{
  "contractName": "AccessControlModuleV3",
  "abi": [
    {
      "inputs": [
        {
          "internalType": "address",
          "name": "_initialAdmin",
          "type": "address"
        },
        {
          "internalType": "address",
          "name": "_multisig",
          "type": "address"
        }
      ],
      "stateMutability": "nonpayable",
      "type": "constructor"
    },
    {
      "anonymous": false,
      "inputs": [
        {
          "indexed": true,
          "internalType": "address",
          "name": "newMultisig",
          "type": "address"
        }
      ],
      "name": "MultisigUpdated",
      "type": "event"
    },
    {
      "anonymous": false,
      "inputs": [
        {
          "indexed": true,
          "internalType": "address",
          "name": "account",
          "type": "address"
        },
        {
          "indexed": false,
          "internalType": "uint8",
          "name": "role",
          "type": "uint8"
        },
        {
          "indexed": false,
          "internalType": "bool",
          "name": "enabled",
          "type": "bool"
        }
      ],
      "name": "RoleUpdated",
      "type": "event"
    },
    {
      "inputs": [
        {
          "internalType": "address",
          "name": "account",
          "type": "address"
        }
      ],
      "name": "addAdmin",
      "outputs": [],
      "stateMutability": "nonpayable",
      "type": "function"
    },
    {
      "inputs": [
        {
          "internalType": "address",
          "name": "account",
          "type": "address"
        }
      ],
      "name": "addCreditOfficer",
      "outputs": [],
      "stateMutability": "nonpayable",
      "type": "function"
    },
    {
      "inputs": [
        {
          "internalType": "address",
          "name": "account",
          "type": "address"
        }
      ],
      "name": "addKeeper",
      "outputs": [],
      "stateMutability": "nonpayable",
      "type": "function"
    },
    {
      "inputs": [
        {
          "internalType": "address",
          "name": "account",
          "type": "address"
        }
      ],
      "name": "isAdmin",
      "outputs": [
        {
          "internalType": "bool",
          "name": "",
          "type": "bool"
        }
      ],
      "stateMutability": "view",
      "type": "function"
    },
    {
      "inputs": [
        {
          "internalType": "address",
          "name": "account",
          "type": "address"
        }
      ],
      "name": "isCreditOfficer",
      "outputs": [
        {
          "internalType": "bool",
          "name": "",
          "type": "bool"
        }
      ],
      "stateMutability": "view",
      "type": "function"
    },
    {
      "inputs": [
        {
          "internalType": "address",
          "name": "account",
          "type": "address"
        }
      ],
      "name": "isKeeper",
      "outputs": [
        {
          "internalType": "bool",
          "name": "",
          "type": "bool"
        }
      ],
      "stateMutability": "view",
      "type": "function"
    },
    {
      "inputs": [],
      "name": "multisig",
      "outputs": [
        {
          "internalType": "address",
          "name": "",
          "type": "address"
        }
      ],
      "stateMutability": "view",
      "type": "function"
    },
    {
      "inputs": [
        {
          "internalType": "address",
          "name": "account",
          "type": "address"
        }
      ],
      "name": "removeAdmin",
      "outputs": [],
      "stateMutability": "nonpayable",
      "type": "function"
    },
    {
      "inputs": [
        {
          "internalType": "address",
          "name": "account",
          "type": "address"
        }
      ],
      "name": "removeCreditOfficer",
      "outputs": [],
      "stateMutability": "nonpayable",
      "type": "function"
    },
    {
      "inputs": [
        {
          "internalType": "address",
          "name": "account",
          "type": "address"
        }
      ],
      "name": "removeKeeper",
      "outputs": [],
      "stateMutability": "nonpayable",
      "type": "function"
    },
    {
      "inputs": [
        {
          "internalType": "address",
          "name": "newMultisig",
          "type": "address"
        }
      ],
      "name": "setMultisig",
      "outputs": [],
      "stateMutability": "nonpayable",
      "type": "function"
    }
  ],
  "bytecode": "0x60803461014957601f61083e38819003918201601f19168301916001600160401b0383118484101761014d57808492604094855283398101031261014957610052602061004b83610161565b9201610161565b6001600160a01b039091169081151580610137575b1561010057815f52600160205260405f20600160ff1982541617905560018060a01b0316908160018060a01b03195f5416175f557f25cef78a4b665fcf0923e3f0e15c3449d405e0fa46d991b78246e8aaf19571ab604080516001815260016020820152a2604051907f6d74d31357c421bb05a45b4becf09f03737979c1150bb0054704d1b4f31bb82a5f80a26106c890816101768239f35b60405162461bcd60e51b815260206004820152600f60248201526e496e76616c6964206164647265737360881b6044820152606490fd5b506001600160a01b0381161515610067565b5f80fd5b634e487b7160e01b5f52604160045260245ffd5b51906001600160a01b03821682036101495756fe60806040526004361015610011575f80fd5b5f3560e01c806314ae9f2e1461054b5780631785f53c146104ae57806324d7806c146104625780633bb965c5146103c15780634032b72b146103205780634783c35b146102f9578063630c27c41461025c5780636ba42aaa1461021a57806370480275146101795780638b7ac4d5146101375763f3283fba14610092575f80fd5b34610133576020366003190112610133576004356001600160a01b0381169081900361013357335f9081526001602081905260409091205460ff16148015610120575b6100de906105e8565b6100e9811515610634565b5f80546001600160a01b031916821781557f6d74d31357c421bb05a45b4becf09f03737979c1150bb0054704d1b4f31bb82a9080a2005b505f546001600160a01b031633146100d5565b5f80fd5b34610133576020366003190112610133576004356001600160a01b03811690819003610133575f5260016020526020600260ff60405f20541614604051908152f35b34610133576020366003190112610133576004356001600160a01b0381169081900361013357335f9081526001602081905260409091205460ff16148015610207575b6101c5906105e8565b6101d0811515610634565b805f52600160205260405f20600160ff198254161790555f5160206106735f395f51905f52604080516001815260016020820152a2005b505f546001600160a01b031633146101bc565b34610133576020366003190112610133576004356001600160a01b03811690819003610133575f5260016020526020600360ff60405f20541614604051908152f35b34610133576020366003190112610133576004356001600160a01b0381169081900361013357335f9081526001602081905260409091205460ff161480156102e6575b6102a8906105e8565b6102b3811515610634565b805f52600160205260405f2060ff1981541690555f5160206106735f395f51905f5260408051600281525f6020820152a2005b505f546001600160a01b0316331461029f565b34610133575f366003190112610133575f546040516001600160a01b039091168152602090f35b34610133576020366003190112610133576004356001600160a01b0381169081900361013357335f9081526001602081905260409091205460ff161480156103ae575b61036c906105e8565b610377811515610634565b805f52600160205260405f20600360ff198254161790555f5160206106735f395f51905f52604080516003815260016020820152a2005b505f546001600160a01b03163314610363565b34610133576020366003190112610133576004356001600160a01b0381169081900361013357335f9081526001602081905260409091205460ff1614801561044f575b61040d906105e8565b610418811515610634565b805f52600160205260405f20600260ff198254161790555f5160206106735f395f51905f52604080516002815260016020820152a2005b505f546001600160a01b03163314610404565b34610133576020366003190112610133576004356001600160a01b0381168103610133576001600160a01b03165f9081526001602081815260409092205460ff16146040519015158152f35b34610133576020366003190112610133576004356001600160a01b0381169081900361013357335f9081526001602081905260409091205460ff16148015610538575b6104fa906105e8565b610505811515610634565b805f52600160205260405f2060ff1981541690555f5160206106735f395f51905f5260408051600181525f6020820152a2005b505f546001600160a01b031633146104f1565b34610133576020366003190112610133576004356001600160a01b0381169081900361013357335f9081526001602081905260409091205460ff161480156105d5575b610597906105e8565b6105a2811515610634565b805f52600160205260405f2060ff1981541690555f5160206106735f395f51905f5260408051600381525f6020820152a2005b505f546001600160a01b0316331461058e565b156105ef57565b60405162461bcd60e51b815260206004820152601860248201527f416363657373436f6e74726f6c3a206e6f742061646d696e00000000000000006044820152606490fd5b1561063b57565b60405162461bcd60e51b815260206004820152600f60248201526e496e76616c6964206164647265737360881b6044820152606490fdfe25cef78a4b665fcf0923e3f0e15c3449d405e0fa46d991b78246e8aaf19571aba2646970667358221220800a265bc17df8c9f18bf6fce267898d753d711e2db354772b773c424d9b806664736f6c634300081e0033",
  "source": "// SPDX-License-Identifier: MIT\r\npragma solidity ^0.8.23;\r\n\r\n/**\r\n * @title AccessControlModuleV3\r\n * @notice Gas-optimized access control module with multisig governance for TRON/EVM.\r\n * @dev Designed for Solidity 0.8.23; avoids redundant storage operations and events.\r\n */\r\ncontract AccessControlModuleV3 {\r\n    address public multisig;\r\n    mapping(address => uint8) private _roles; // 1=admin, 2=creditOfficer, 3=keeper (bit flags can be combined)\r\n\r\n    event RoleUpdated(address indexed account, uint8 role, bool enabled);\r\n    event MultisigUpdated(address indexed newMultisig);\r\n\r\n    uint8 private constant ROLE_ADMIN = 1;\r\n    uint8 private constant ROLE_CREDIT = 2;\r\n    uint8 private constant ROLE_KEEPER = 3;\r\n\r\n    modifier onlyAdmin() {\r\n        require(isAdmin(msg.sender) || msg.sender == multisig, \"AccessControl: not admin\");\r\n        _;\r\n    }\r\n    modifier onlyCreditOfficer() {\r\n        require(isCreditOfficer(msg.sender), \"AccessControl: not credit officer\");\r\n        _;\r\n    }\r\n    modifier onlyKeeper() {\r\n        require(isKeeper(msg.sender), \"AccessControl: not keeper\");\r\n        _;\r\n    }\r\n\r\n    constructor(address _initialAdmin, address _multisig) {\r\n        require(_initialAdmin != address(0) && _multisig != address(0), \"Invalid address\");\r\n        _roles[_initialAdmin] = ROLE_ADMIN;\r\n        multisig = _multisig;\r\n        emit RoleUpdated(_initialAdmin, ROLE_ADMIN, true);\r\n        emit MultisigUpdated(_multisig);\r\n    }\r\n\r\n    // ===== Admin Functions =====\r\n    function addAdmin(address account) external onlyAdmin {\r\n        _setRole(account, ROLE_ADMIN, true);\r\n    }\r\n\r\n    function removeAdmin(address account) external onlyAdmin {\r\n        _setRole(account, ROLE_ADMIN, false);\r\n    }\r\n\r\n    function addCreditOfficer(address account) external onlyAdmin {\r\n        _setRole(account, ROLE_CREDIT, true);\r\n    }\r\n\r\n    function removeCreditOfficer(address account) external onlyAdmin {\r\n        _setRole(account, ROLE_CREDIT, false);\r\n    }\r\n\r\n    function addKeeper(address account) external onlyAdmin {\r\n        _setRole(account, ROLE_KEEPER, true);\r\n    }\r\n\r\n    function removeKeeper(address account) external onlyAdmin {\r\n        _setRole(account, ROLE_KEEPER, false);\r\n    }\r\n\r\n    function setMultisig(address newMultisig) external onlyAdmin {\r\n        require(newMultisig != address(0), \"Invalid address\");\r\n        multisig = newMultisig;\r\n        emit MultisigUpdated(newMultisig);\r\n    }\r\n\r\n    // ===== Role Checks =====\r\n    function isAdmin(address account) public view returns (bool) {\r\n        return _roles[account] == ROLE_ADMIN;\r\n    }\r\n\r\n    function isCreditOfficer(address account) public view returns (bool) {\r\n        return _roles[account] == ROLE_CREDIT;\r\n    }\r\n\r\n    function isKeeper(address account) public view returns (bool) {\r\n        return _roles[account] == ROLE_KEEPER;\r\n    }\r\n\r\n    // ===== Internal Logic =====\r\n    function _setRole(address account, uint8 role, bool enabled) internal {\r\n        require(account != address(0), \"Invalid address\");\r\n        if (enabled) {\r\n            _roles[account] = role;\r\n        } else {\r\n            delete _roles[account];\r\n        }\r\n        emit RoleUpdated(account, role, enabled);\r\n    }\r\n}\r\n",
  "sourcePath": "C:/workspace/tronbfpay/contracts/v3/AccessControlModuleV3.sol",
  "compiler": {
    "name": "solc",
    "version": "0.8.30+commit.73712a01.Emscripten.clang"
  },
  "schemaVersion": "2.0.1",
  "updatedAt": "2025-10-09T13:04:12.856Z"
}