{
  "contractName": "AttestationRegistryV3",
  "abi": [
    {
      "inputs": [],
      "stateMutability": "nonpayable",
      "type": "constructor"
    },
    {
      "anonymous": false,
      "inputs": [
        {
          "indexed": true,
          "internalType": "address",
          "name": "admin",
          "type": "address"
        },
        {
          "indexed": false,
          "internalType": "bool",
          "name": "added",
          "type": "bool"
        }
      ],
      "name": "AdminUpdated",
      "type": "event"
    },
    {
      "anonymous": false,
      "inputs": [
        {
          "indexed": true,
          "internalType": "address",
          "name": "user",
          "type": "address"
        },
        {
          "indexed": false,
          "internalType": "bool",
          "name": "verified",
          "type": "bool"
        }
      ],
      "name": "AttestationUpdated",
      "type": "event"
    },
    {
      "inputs": [
        {
          "internalType": "address",
          "name": "account",
          "type": "address"
        }
      ],
      "name": "isAdmin",
      "outputs": [
        {
          "internalType": "bool",
          "name": "",
          "type": "bool"
        }
      ],
      "stateMutability": "view",
      "type": "function"
    },
    {
      "inputs": [
        {
          "internalType": "address",
          "name": "user",
          "type": "address"
        }
      ],
      "name": "isVerified",
      "outputs": [
        {
          "internalType": "bool",
          "name": "",
          "type": "bool"
        }
      ],
      "stateMutability": "view",
      "type": "function"
    },
    {
      "inputs": [],
      "name": "owner",
      "outputs": [
        {
          "internalType": "address",
          "name": "",
          "type": "address"
        }
      ],
      "stateMutability": "view",
      "type": "function"
    },
    {
      "inputs": [
        {
          "internalType": "address",
          "name": "user",
          "type": "address"
        },
        {
          "internalType": "bool",
          "name": "status",
          "type": "bool"
        }
      ],
      "name": "setVerified",
      "outputs": [],
      "stateMutability": "nonpayable",
      "type": "function"
    },
    {
      "inputs": [
        {
          "internalType": "address",
          "name": "admin",
          "type": "address"
        },
        {
          "internalType": "bool",
          "name": "add",
          "type": "bool"
        }
      ],
      "name": "updateAdmin",
      "outputs": [],
      "stateMutability": "nonpayable",
      "type": "function"
    }
  ],
  "bytecode": "0x60a08060405234606c5733608052335f525f60205260405f20600160ff19825416179055600181527f235bc17e7930760029e9f4d860a2a8089976de5b381cf8380fc11c1d88a1113360203392a2604051610408908161007182396080518181816101a501526101e50152f35b5f80fdfe6080806040526004361015610012575f80fd5b5f3560e01c90816324d7806c1461035557508063670a6fd9146101d45780638da5cb5b146101905780639cf5c613146100945763b9209e3314610053575f80fd5b34610090576020366003190112610090576001600160a01b0361007461038d565b165f526001602052602060ff60405f2054166040519015158152f35b5f80fd5b34610090576100a2366103a3565b90335f525f60205260ff60405f2054161561015e576001600160a01b031690811561012a57815f52600160205260ff60405f20541690151580911515036100e557005b60207f7da7ea8f6c3c3e60e502ef42406ad39b40c7974ceacef723174f65b15a179eb191835f526001825260405f2060ff1981541660ff8316179055604051908152a2005b60405162461bcd60e51b815260206004820152600c60248201526b24b73b30b634b2103ab9b2b960a11b6044820152606490fd5b60405162461bcd60e51b815260206004820152600a60248201526927b7363c9030b236b4b760b11b6044820152606490fd5b34610090575f366003190112610090576040517f00000000000000000000000000000000000000000000000000000000000000006001600160a01b03168152602090f35b34610090576101e2366103a3565b907f00000000000000000000000000000000000000000000000000000000000000006001600160a01b03169033829003610323576001600160a01b03169182156102ec57156102855750805f525f60205260ff60405f2054161561024257005b805f525f60205260405f20600160ff198254161790557f235bc17e7930760029e9f4d860a2a8089976de5b381cf8380fc11c1d88a11133602060405160018152a2005b815f525f60205260ff60405f20541690816102e1575b506102a257005b805f525f60205260405f2060ff1981541690557f235bc17e7930760029e9f4d860a2a8089976de5b381cf8380fc11c1d88a1113360206040515f8152a2005b90508114158261029b565b60405162461bcd60e51b815260206004820152600f60248201526e496e76616c6964206164647265737360881b6044820152606490fd5b60405162461bcd60e51b815260206004820152600a60248201526927b7363c9037bbb732b960b11b6044820152606490fd5b34610090576020366003190112610090576020906001600160a01b0361037961038d565b165f525f825260ff60405f20541615158152f35b600435906001600160a01b038216820361009057565b6040906003190112610090576004356001600160a01b038116810361009057906024358015158103610090579056fea2646970667358221220b4003fcd1bdf87b76b791eb6d336221060a0166b9367a5146f94b0ee886f234464736f6c634300081e0033",
  "source": "// SPDX-License-Identifier: MIT\r\npragma solidity ^0.8.23;\r\n\r\n/**\r\n * @title AttestationRegistry\r\n * @notice Gas-optimized multi-admin registry to record verified user attestations on-chain.\r\n * @dev Optimized for Solidity 0.8.23 (TRON TVM compatible)\r\n */\r\ncontract AttestationRegistryV3 {\r\n    address public immutable owner;\r\n    mapping(address => bool) private _admins;\r\n    mapping(address => bool) private _verified;\r\n\r\n    event AdminUpdated(address indexed admin, bool added);\r\n    event AttestationUpdated(address indexed user, bool verified);\r\n\r\n    constructor() {\r\n        owner = msg.sender;\r\n        _admins[msg.sender] = true; // Owner is initial admin\r\n        emit AdminUpdated(msg.sender, true);\r\n    }\r\n\r\n    modifier onlyOwner() {\r\n        require(msg.sender == owner, \"Only owner\");\r\n        _;\r\n    }\r\n\r\n    modifier onlyAdmin() {\r\n        require(_admins[msg.sender], \"Only admin\");\r\n        _;\r\n    }\r\n\r\n    /**\r\n     * @notice Adds or removes an admin in one call (owner only).\r\n     * @dev Saves gas vs separate add/remove functions.\r\n     * @param admin Address of the admin.\r\n     * @param add True to add, false to remove.\r\n     */\r\n    function updateAdmin(address admin, bool add) external onlyOwner {\r\n        require(admin != address(0), \"Invalid address\");\r\n        if (add) {\r\n            if (!_admins[admin]) {\r\n                _admins[admin] = true;\r\n                emit AdminUpdated(admin, true);\r\n            }\r\n        } else {\r\n            if (_admins[admin] && admin != owner) {\r\n                _admins[admin] = false;\r\n                emit AdminUpdated(admin, false);\r\n            }\r\n        }\r\n    }\r\n\r\n    /**\r\n     * @notice Sets the verification status of a user.\r\n     * @param user The address to update.\r\n     * @param status True if verified, false otherwise.\r\n     */\r\n    function setVerified(address user, bool status) external onlyAdmin {\r\n        require(user != address(0), \"Invalid user\");\r\n        if (_verified[user] != status) {\r\n            _verified[user] = status;\r\n            emit AttestationUpdated(user, status);\r\n        }\r\n    }\r\n\r\n    /**\r\n     * @notice Checks if a user is verified.\r\n     */\r\n    function isVerified(address user) external view returns (bool) {\r\n        return _verified[user];\r\n    }\r\n\r\n    /**\r\n     * @notice Checks if an address is an admin.\r\n     */\r\n    function isAdmin(address account) external view returns (bool) {\r\n        return _admins[account];\r\n    }\r\n}",
  "sourcePath": "C:/workspace/tronbfpay/contracts/AttestationRegistryV3.sol",
  "compiler": {
    "name": "solc",
    "version": "0.8.30+commit.73712a01.Emscripten.clang"
  },
  "schemaVersion": "2.0.1",
  "updatedAt": "2025-12-05T23:17:38.165Z"
}