{
  "contractName": "BlacklistModule",
  "abi": [
    {
      "anonymous": false,
      "inputs": [
        {
          "indexed": true,
          "internalType": "address",
          "name": "account",
          "type": "address"
        }
      ],
      "name": "Blacklisted",
      "type": "event"
    },
    {
      "anonymous": false,
      "inputs": [
        {
          "indexed": true,
          "internalType": "address",
          "name": "account",
          "type": "address"
        }
      ],
      "name": "UnBlacklisted",
      "type": "event"
    },
    {
      "inputs": [
        {
          "internalType": "address",
          "name": "account",
          "type": "address"
        }
      ],
      "name": "blacklist",
      "outputs": [],
      "stateMutability": "nonpayable",
      "type": "function"
    },
    {
      "inputs": [
        {
          "internalType": "address",
          "name": "",
          "type": "address"
        }
      ],
      "name": "blacklisted",
      "outputs": [
        {
          "internalType": "bool",
          "name": "",
          "type": "bool"
        }
      ],
      "stateMutability": "view",
      "type": "function"
    },
    {
      "inputs": [
        {
          "internalType": "address",
          "name": "account",
          "type": "address"
        }
      ],
      "name": "isBlacklisted",
      "outputs": [
        {
          "internalType": "bool",
          "name": "",
          "type": "bool"
        }
      ],
      "stateMutability": "view",
      "type": "function"
    },
    {
      "inputs": [
        {
          "internalType": "address",
          "name": "account",
          "type": "address"
        }
      ],
      "name": "unblacklist",
      "outputs": [],
      "stateMutability": "nonpayable",
      "type": "function"
    }
  ],
  "bytecode": "0x6080806040523460155761010d908161001a8239f35b5f80fdfe608060405260043610156010575f80fd5b5f3560e01c806375e3661e146081578063dbac26e9146040578063f9f92be41460815763fe575a87146040575f80fd5b34607d576020366003190112607d576004356001600160a01b03811690819003607d575f525f602052602060ff60405f2054166040519015158152f35b5f80fd5b34607d576020366003190112607d576004356001600160a01b03811603607d5760405162461bcd60e51b815260206004820152600e60248201526d105113525397d49154555254915160921b6044820152606490fdfea26469706673582212209ad74e52b13a854087dae9d71f25633c6f8db1a901d4a57e412c2088ec76439064736f6c634300081e0033",
  "source": "// SPDX-License-Identifier: MIT\r\npragma solidity ^0.8.23;\r\n\r\n/**\r\n * @title BlacklistModule (TRON Compatible)\r\n * @notice Provides address-level blacklisting integrated with ERC20Core hooks.\r\n */\r\ncontract BlacklistModule {\r\n    mapping(address => bool) public blacklisted;\r\n\r\n    event Blacklisted(address indexed account);\r\n    event UnBlacklisted(address indexed account);\r\n\r\n    // Must be implemented in StablecoinTRON to restrict admin access\r\n    function _requireAdmin() internal view virtual {\r\n        revert(\"ADMIN_REQUIRED\");\r\n    }\r\n\r\n    function blacklist(address account) external {\r\n        _requireAdmin();\r\n        blacklisted[account] = true;\r\n        emit Blacklisted(account);\r\n    }\r\n\r\n    function unblacklist(address account) external {\r\n        _requireAdmin();\r\n        blacklisted[account] = false;\r\n        emit UnBlacklisted(account);\r\n    }\r\n\r\n    function isBlacklisted(address account) public view returns (bool) {\r\n        return blacklisted[account];\r\n    }\r\n}\r\n",
  "sourcePath": "C:\\workspace\\tronbfpay\\contracts\\stablecoin\\BlacklistModule.sol",
  "compiler": {
    "name": "solc",
    "version": "0.8.30+commit.73712a01.Emscripten.clang"
  },
  "schemaVersion": "2.0.1",
  "updatedAt": "2025-12-10T22:41:09.434Z"
}