{
  "contractName": "BNPLAttestationOracle",
  "abi": [
    {
      "inputs": [],
      "stateMutability": "nonpayable",
      "type": "constructor"
    },
    {
      "anonymous": false,
      "inputs": [
        {
          "indexed": true,
          "internalType": "address",
          "name": "borrower",
          "type": "address"
        },
        {
          "indexed": false,
          "internalType": "uint256",
          "name": "creditLimit",
          "type": "uint256"
        },
        {
          "indexed": false,
          "internalType": "uint256",
          "name": "creditScore",
          "type": "uint256"
        },
        {
          "indexed": false,
          "internalType": "bool",
          "name": "kycVerified",
          "type": "bool"
        },
        {
          "indexed": true,
          "internalType": "address",
          "name": "attestor",
          "type": "address"
        }
      ],
      "name": "AttestationUpdated",
      "type": "event"
    },
    {
      "anonymous": false,
      "inputs": [
        {
          "indexed": true,
          "internalType": "address",
          "name": "attestor",
          "type": "address"
        }
      ],
      "name": "AttestorAdded",
      "type": "event"
    },
    {
      "anonymous": false,
      "inputs": [
        {
          "indexed": true,
          "internalType": "address",
          "name": "attestor",
          "type": "address"
        }
      ],
      "name": "AttestorRemoved",
      "type": "event"
    },
    {
      "anonymous": false,
      "inputs": [
        {
          "indexed": true,
          "internalType": "address",
          "name": "borrower",
          "type": "address"
        },
        {
          "indexed": false,
          "internalType": "uint256",
          "name": "newUsedCredit",
          "type": "uint256"
        }
      ],
      "name": "UsedCreditUpdated",
      "type": "event"
    },
    {
      "inputs": [
        {
          "internalType": "address",
          "name": "attestor",
          "type": "address"
        }
      ],
      "name": "addTrustedAttestor",
      "outputs": [],
      "stateMutability": "nonpayable",
      "type": "function"
    },
    {
      "inputs": [
        {
          "internalType": "address",
          "name": "",
          "type": "address"
        }
      ],
      "name": "allowedBNPLPools",
      "outputs": [
        {
          "internalType": "bool",
          "name": "",
          "type": "bool"
        }
      ],
      "stateMutability": "view",
      "type": "function"
    },
    {
      "inputs": [
        {
          "internalType": "address",
          "name": "",
          "type": "address"
        }
      ],
      "name": "attestations",
      "outputs": [
        {
          "internalType": "uint256",
          "name": "creditLimit",
          "type": "uint256"
        },
        {
          "internalType": "uint256",
          "name": "creditScore",
          "type": "uint256"
        },
        {
          "internalType": "bool",
          "name": "kycVerified",
          "type": "bool"
        },
        {
          "internalType": "uint256",
          "name": "utilizedLimit",
          "type": "uint256"
        },
        {
          "internalType": "address",
          "name": "attestor",
          "type": "address"
        },
        {
          "internalType": "uint256",
          "name": "updatedAt",
          "type": "uint256"
        }
      ],
      "stateMutability": "view",
      "type": "function"
    },
    {
      "inputs": [
        {
          "internalType": "address",
          "name": "borrower",
          "type": "address"
        },
        {
          "internalType": "uint256",
          "name": "amount",
          "type": "uint256"
        }
      ],
      "name": "decreaseUsedCredit",
      "outputs": [],
      "stateMutability": "nonpayable",
      "type": "function"
    },
    {
      "inputs": [
        {
          "internalType": "address",
          "name": "borrower",
          "type": "address"
        }
      ],
      "name": "getAttestation",
      "outputs": [
        {
          "internalType": "uint256",
          "name": "creditLimit",
          "type": "uint256"
        },
        {
          "internalType": "uint256",
          "name": "creditScore",
          "type": "uint256"
        },
        {
          "internalType": "bool",
          "name": "kycVerified",
          "type": "bool"
        },
        {
          "internalType": "uint256",
          "name": "utilizedLimit",
          "type": "uint256"
        },
        {
          "internalType": "address",
          "name": "attestor",
          "type": "address"
        },
        {
          "internalType": "uint256",
          "name": "updatedAt",
          "type": "uint256"
        }
      ],
      "stateMutability": "view",
      "type": "function"
    },
    {
      "inputs": [
        {
          "internalType": "address",
          "name": "borrower",
          "type": "address"
        },
        {
          "internalType": "uint256",
          "name": "amount",
          "type": "uint256"
        }
      ],
      "name": "increaseUsedCredit",
      "outputs": [],
      "stateMutability": "nonpayable",
      "type": "function"
    },
    {
      "inputs": [],
      "name": "owner",
      "outputs": [
        {
          "internalType": "address",
          "name": "",
          "type": "address"
        }
      ],
      "stateMutability": "view",
      "type": "function"
    },
    {
      "inputs": [
        {
          "internalType": "address",
          "name": "attestor",
          "type": "address"
        }
      ],
      "name": "removeTrustedAttestor",
      "outputs": [],
      "stateMutability": "nonpayable",
      "type": "function"
    },
    {
      "inputs": [
        {
          "internalType": "address",
          "name": "pool",
          "type": "address"
        },
        {
          "internalType": "bool",
          "name": "allowed",
          "type": "bool"
        }
      ],
      "name": "setAllowedPool",
      "outputs": [],
      "stateMutability": "nonpayable",
      "type": "function"
    },
    {
      "inputs": [
        {
          "internalType": "address",
          "name": "borrower",
          "type": "address"
        },
        {
          "internalType": "uint256",
          "name": "creditLimit",
          "type": "uint256"
        },
        {
          "internalType": "uint256",
          "name": "creditScore",
          "type": "uint256"
        },
        {
          "internalType": "bool",
          "name": "kycVerified",
          "type": "bool"
        }
      ],
      "name": "setAttestation",
      "outputs": [],
      "stateMutability": "nonpayable",
      "type": "function"
    },
    {
      "inputs": [
        {
          "internalType": "address",
          "name": "",
          "type": "address"
        }
      ],
      "name": "trustedAttestors",
      "outputs": [
        {
          "internalType": "bool",
          "name": "",
          "type": "bool"
        }
      ],
      "stateMutability": "view",
      "type": "function"
    }
  ],
  "bytecode": "0x60808060405234602757600380546001600160a01b0319163317905561081a908161002c8239f35b5f80fdfe6080806040526004361015610012575f80fd5b5f3560e01c9081632035704814610650575080634159c83f146105de57806345cc17ca146105a1578063692eee281461053a5780638da5cb5b146105125780639fd427fd146103f9578063bc704fe2146102d7578063df850822146101fa578063e430970d14610185578063f97d6341146101485763f9b7179714610095575f80fd5b34610144576020366003190112610144576001600160a01b036100b66106d3565b165f525f60205260405f206100c9610767565b815480825260018301546020808401829052600285015460ff16151560408086018290526003870154606080880182905260048901546001600160a01b03166080808a018290526005909a015460a0998a0181905284519889529588019690965291860192909252840152938201529081019190915260c090f35b5f80fd5b34610144576020366003190112610144576001600160a01b036101696106d3565b165f526002602052602060ff60405f2054166040519015158152f35b346101445760203660031901126101445761019e6106d3565b6101b360018060a01b036003541633146106e9565b6001600160a01b03165f818152600260205260408120805460ff191660011790557f945c4a21d3fce955d17e31fcc471734b3d754c032b3805b02fe75d89c29b2a3a9080a2005b34610144576040366003190112610144576102136106d3565b60243590335f52600160205261022f60ff60405f20541661079b565b60018060a01b031690815f525f60205260405f209060038201908154908082106102a6578103908111610292577f787c5955ad686799184a89c77c718300e4d598c2bbf4d89982a76c36bc0990dd928160209355600542910155604051908152a2005b634e487b7160e01b5f52601160045260245ffd5b60405162461bcd60e51b8152602060048201526009602482015268756e646572666c6f7760b81b6044820152606490fd5b34610144576040366003190112610144576102f06106d3565b60243590335f52600160205261030c60ff60405f20541661079b565b60018060a01b031690815f525f60205260405f209060ff600283015416156103c1576003820180549261033f83856107d7565b815410610385576103736020937f787c5955ad686799184a89c77c718300e4d598c2bbf4d89982a76c36bc0990dd956107d7565b809255600542910155604051908152a2005b60405162461bcd60e51b8152602060048201526014602482015273195e18d959591cc818dc99591a5d081b1a5b5a5d60621b6044820152606490fd5b60405162461bcd60e51b815260206004820152601060248201526f1b9bdd0812d650c81d995c9a599a595960821b6044820152606490fd5b34610144576080366003190112610144576104126106d3565b602435906044356064359081151580920361014457335f52600260205261043f60ff60405f205416610722565b610447610767565b8481526005602082019483865260408301858152606084015f81526104ab608086019233845260a087019442865260018060a01b0316998a5f525f60205260405f2097518855516001880155511515600287019060ff801983541691151516179055565b516003850155600484019060018060a01b039051166bffffffffffffffffffffffff60a01b82541617905551910155604051938452602084015260408301527fdb5380f167463deec3858160d6f0dbcb8e871f681467300a52b671008cc6d60a60603393a3005b34610144575f366003190112610144576003546040516001600160a01b039091168152602090f35b34610144576040366003190112610144576105536106d3565b60243580151581036101445761059f91335f52600260205261057b60ff60405f205416610722565b60018060a01b03165f52600160205260405f209060ff801983541691151516179055565b005b34610144576020366003190112610144576001600160a01b036105c26106d3565b165f526001602052602060ff60405f2054166040519015158152f35b34610144576020366003190112610144576105f76106d3565b61060c60018060a01b036003541633146106e9565b6001600160a01b03165f818152600260205260408120805460ff191690557f7b1e5155c9ac76eaa3c56fcf63a3383cd696a6fa84c49901c7ae374c0a5086129080a2005b34610144576020366003190112610144576001600160a01b036106716106d3565b165f9081526020818152604091829020805460018201546002830154600384015460048501546005909501549388529487019190915260ff1615159385019390935260608401919091526001600160a01b0316608083015260a082015260c090f35b600435906001600160a01b038216820361014457565b156106f057565b60405162461bcd60e51b815260206004820152600a60248201526937b7363c9037bbb732b960b11b6044820152606490fd5b1561072957565b60405162461bcd60e51b81526020600482015260166024820152753737ba1030903a393ab9ba32b21030ba3a32b9ba37b960511b6044820152606490fd5b6040519060c0820182811067ffffffffffffffff82111761078757604052565b634e487b7160e01b5f52604160045260245ffd5b156107a257565b60405162461bcd60e51b815260206004820152600d60248201526c1b9bdd0810939413081c1bdbdb609a1b6044820152606490fd5b919082018092116102925756fea2646970667358221220347a60e83bb988a7b9f78852ee6d6c409f0829072740a21c235de720f4486ff764736f6c634300081e0033",
  "source": "// SPDX-License-Identifier: MIT\r\npragma solidity ^0.8.23;\r\n\r\ncontract BNPLAttestationOracle {\r\n    struct Attestation {\r\n        uint256 creditLimit;\r\n        uint256 creditScore;   // e.g., 0-1000\r\n        bool kycVerified;\r\n        uint256 utilizedLimit; \r\n        address attestor;      // who issued this attestation\r\n        uint256 updatedAt;     // timestamp\r\n    }\r\n\r\n    // Mapping: borrower => attestation\r\n    mapping(address => Attestation) public attestations;\r\n    mapping(address => bool) public allowedBNPLPools;\r\n\r\n    // Trusted attestors\r\n    mapping(address => bool) public trustedAttestors;\r\n\r\n    // Events\r\n    event AttestationUpdated(address indexed borrower, uint256 creditLimit, uint256 creditScore, bool kycVerified, address indexed attestor);\r\n    event AttestorAdded(address indexed attestor);\r\n    event AttestorRemoved(address indexed attestor);\r\n    event UsedCreditUpdated(address indexed borrower, uint256 newUsedCredit);\r\n\r\n    address public owner;\r\n\r\n    constructor() {\r\n        owner = msg.sender;\r\n    }\r\n\r\n    modifier onlyOwner() {\r\n        require(msg.sender == owner, \"only owner\");\r\n        _;\r\n    }\r\n\r\n    modifier onlyTrustedAttestor() {\r\n        require(trustedAttestors[msg.sender], \"not a trusted attestor\");\r\n        _;\r\n    }\r\n\r\n     modifier onlyPool() {\r\n        require(allowedBNPLPools[msg.sender], \"not BNPL pool\");\r\n        _;\r\n    }\r\n\r\n    function setAllowedPool(address pool, bool allowed) external onlyTrustedAttestor {\r\n        allowedBNPLPools[pool] = allowed;\r\n    }\r\n\r\n\r\n    // Owner can add/remove trusted attestors\r\n    function addTrustedAttestor(address attestor) external onlyOwner {\r\n        trustedAttestors[attestor] = true;\r\n        emit AttestorAdded(attestor);\r\n    }\r\n\r\n    function removeTrustedAttestor(address attestor) external onlyOwner {\r\n        trustedAttestors[attestor] = false;\r\n        emit AttestorRemoved(attestor);\r\n    }\r\n\r\n    // Attestor sets attestation for borrower\r\n    function setAttestation(\r\n        address borrower,\r\n        uint256 creditLimit,\r\n        uint256 creditScore,\r\n        bool kycVerified\r\n    ) external onlyTrustedAttestor {\r\n        attestations[borrower] = Attestation({\r\n            creditLimit: creditLimit,\r\n            creditScore: creditScore,\r\n            kycVerified: kycVerified,\r\n            utilizedLimit: 0,\r\n            attestor: msg.sender,\r\n            updatedAt: block.timestamp\r\n        });\r\n\r\n        emit AttestationUpdated(borrower, creditLimit, creditScore, kycVerified, msg.sender);\r\n    }\r\n\r\n    // ========================\r\n    //     CREDIT UTILIZATION\r\n    // ========================\r\n\r\n    function increaseUsedCredit(address borrower, uint256 amount)\r\n        external\r\n        onlyPool\r\n    {\r\n        Attestation storage a = attestations[borrower];\r\n        require(a.kycVerified, \"not KYC verified\");\r\n        require(a.utilizedLimit + amount <= a.creditLimit, \"exceeds credit limit\");\r\n\r\n        a.utilizedLimit += amount;\r\n        a.updatedAt = block.timestamp;\r\n\r\n        emit UsedCreditUpdated(borrower, a.utilizedLimit);\r\n    }\r\n\r\n    function decreaseUsedCredit(address borrower, uint256 amount)\r\n        external\r\n        onlyPool\r\n    {\r\n        Attestation storage a = attestations[borrower];\r\n        require(a.utilizedLimit >= amount, \"underflow\");\r\n\r\n        a.utilizedLimit -= amount;\r\n        a.updatedAt = block.timestamp;\r\n\r\n        emit UsedCreditUpdated(borrower, a.utilizedLimit);\r\n    }\r\n\r\n    // View function for BNPL pool\r\n    function getAttestation(address borrower) external view returns (uint256 creditLimit, \r\n    uint256 creditScore, bool kycVerified, uint256 utilizedLimit, address attestor, uint256 updatedAt) {\r\n        Attestation memory a = attestations[borrower];\r\n        return (a.creditLimit, a.creditScore, a.kycVerified, a.utilizedLimit, a.attestor, a.updatedAt);\r\n    }\r\n}\r\n",
  "sourcePath": "C:/workspace/tronbfpay/contracts/v4/BNPLAttestationOracle.sol",
  "compiler": {
    "name": "solc",
    "version": "0.8.30+commit.73712a01.Emscripten.clang"
  },
  "schemaVersion": "2.0.1",
  "updatedAt": "2025-11-18T12:38:20.936Z"
}