{
  "contractName": "BorderlessCreditScoreNFTV3",
  "abi": [
    {
      "inputs": [
        {
          "internalType": "address",
          "name": "_creditOfficer",
          "type": "address"
        }
      ],
      "stateMutability": "nonpayable",
      "type": "constructor"
    },
    {
      "anonymous": false,
      "inputs": [
        {
          "indexed": true,
          "internalType": "uint256",
          "name": "tokenId",
          "type": "uint256"
        },
        {
          "indexed": true,
          "internalType": "address",
          "name": "borrower",
          "type": "address"
        },
        {
          "indexed": false,
          "internalType": "uint16",
          "name": "creditScore",
          "type": "uint16"
        },
        {
          "indexed": false,
          "internalType": "uint256",
          "name": "creditLimit",
          "type": "uint256"
        },
        {
          "indexed": false,
          "internalType": "address",
          "name": "creditOfficer",
          "type": "address"
        },
        {
          "indexed": false,
          "internalType": "address",
          "name": "creditManager",
          "type": "address"
        },
        {
          "indexed": false,
          "internalType": "uint64",
          "name": "issuedAt",
          "type": "uint64"
        }
      ],
      "name": "CreditNFTIssued",
      "type": "event"
    },
    {
      "anonymous": false,
      "inputs": [
        {
          "indexed": true,
          "internalType": "uint256",
          "name": "tokenId",
          "type": "uint256"
        },
        {
          "indexed": false,
          "internalType": "uint16",
          "name": "newCreditScore",
          "type": "uint16"
        },
        {
          "indexed": false,
          "internalType": "uint256",
          "name": "newCreditLimit",
          "type": "uint256"
        },
        {
          "indexed": false,
          "internalType": "address",
          "name": "creditOfficer",
          "type": "address"
        },
        {
          "indexed": false,
          "internalType": "uint64",
          "name": "updatedAt",
          "type": "uint64"
        }
      ],
      "name": "CreditNFTUpdated",
      "type": "event"
    },
    {
      "anonymous": false,
      "inputs": [
        {
          "indexed": true,
          "internalType": "address",
          "name": "owner",
          "type": "address"
        }
      ],
      "name": "OwnerAdded",
      "type": "event"
    },
    {
      "anonymous": false,
      "inputs": [
        {
          "indexed": true,
          "internalType": "address",
          "name": "owner",
          "type": "address"
        }
      ],
      "name": "OwnerRemoved",
      "type": "event"
    },
    {
      "inputs": [
        {
          "internalType": "address",
          "name": "newOwner",
          "type": "address"
        }
      ],
      "name": "addOwner",
      "outputs": [],
      "stateMutability": "nonpayable",
      "type": "function"
    },
    {
      "inputs": [
        {
          "internalType": "address",
          "name": "user",
          "type": "address"
        }
      ],
      "name": "balanceOf",
      "outputs": [
        {
          "internalType": "uint256",
          "name": "",
          "type": "uint256"
        }
      ],
      "stateMutability": "view",
      "type": "function"
    },
    {
      "inputs": [
        {
          "internalType": "address",
          "name": "",
          "type": "address"
        }
      ],
      "name": "borrowerToTokenId",
      "outputs": [
        {
          "internalType": "uint256",
          "name": "",
          "type": "uint256"
        }
      ],
      "stateMutability": "view",
      "type": "function"
    },
    {
      "inputs": [],
      "name": "creditOfficer",
      "outputs": [
        {
          "internalType": "address",
          "name": "",
          "type": "address"
        }
      ],
      "stateMutability": "view",
      "type": "function"
    },
    {
      "inputs": [],
      "name": "getAllOwners",
      "outputs": [
        {
          "internalType": "address[]",
          "name": "list",
          "type": "address[]"
        }
      ],
      "stateMutability": "view",
      "type": "function"
    },
    {
      "inputs": [
        {
          "internalType": "address",
          "name": "borrower",
          "type": "address"
        }
      ],
      "name": "getCreditLimitByBorrower",
      "outputs": [
        {
          "internalType": "uint256",
          "name": "",
          "type": "uint256"
        }
      ],
      "stateMutability": "view",
      "type": "function"
    },
    {
      "inputs": [
        {
          "internalType": "address",
          "name": "borrower",
          "type": "address"
        }
      ],
      "name": "getCreditProfileByBorrower",
      "outputs": [
        {
          "internalType": "uint16",
          "name": "creditScore",
          "type": "uint16"
        },
        {
          "internalType": "uint256",
          "name": "creditLimit",
          "type": "uint256"
        },
        {
          "internalType": "address",
          "name": "_creditOfficer",
          "type": "address"
        },
        {
          "internalType": "address",
          "name": "creditManager",
          "type": "address"
        },
        {
          "internalType": "uint64",
          "name": "issuedAt",
          "type": "uint64"
        },
        {
          "internalType": "bool",
          "name": "active",
          "type": "bool"
        }
      ],
      "stateMutability": "view",
      "type": "function"
    },
    {
      "inputs": [
        {
          "internalType": "address",
          "name": "borrower",
          "type": "address"
        }
      ],
      "name": "getCreditScoreByBorrower",
      "outputs": [
        {
          "internalType": "uint16",
          "name": "",
          "type": "uint16"
        }
      ],
      "stateMutability": "view",
      "type": "function"
    },
    {
      "inputs": [],
      "name": "getOwnerCount",
      "outputs": [
        {
          "internalType": "uint256",
          "name": "",
          "type": "uint256"
        }
      ],
      "stateMutability": "view",
      "type": "function"
    },
    {
      "inputs": [
        {
          "internalType": "address",
          "name": "borrower",
          "type": "address"
        },
        {
          "internalType": "uint16",
          "name": "creditScore",
          "type": "uint16"
        },
        {
          "internalType": "uint256",
          "name": "creditLimit",
          "type": "uint256"
        },
        {
          "internalType": "address",
          "name": "_creditOfficer",
          "type": "address"
        },
        {
          "internalType": "address",
          "name": "creditManager",
          "type": "address"
        }
      ],
      "name": "issueCreditNFT",
      "outputs": [
        {
          "internalType": "uint256",
          "name": "",
          "type": "uint256"
        }
      ],
      "stateMutability": "nonpayable",
      "type": "function"
    },
    {
      "inputs": [],
      "name": "name",
      "outputs": [
        {
          "internalType": "string",
          "name": "",
          "type": "string"
        }
      ],
      "stateMutability": "view",
      "type": "function"
    },
    {
      "inputs": [],
      "name": "owner",
      "outputs": [
        {
          "internalType": "address",
          "name": "",
          "type": "address"
        }
      ],
      "stateMutability": "view",
      "type": "function"
    },
    {
      "inputs": [
        {
          "internalType": "uint256",
          "name": "tokenId",
          "type": "uint256"
        }
      ],
      "name": "ownerOf",
      "outputs": [
        {
          "internalType": "address",
          "name": "",
          "type": "address"
        }
      ],
      "stateMutability": "view",
      "type": "function"
    },
    {
      "inputs": [
        {
          "internalType": "address",
          "name": "ownerToRemove",
          "type": "address"
        }
      ],
      "name": "removeOwner",
      "outputs": [],
      "stateMutability": "nonpayable",
      "type": "function"
    },
    {
      "inputs": [
        {
          "internalType": "address",
          "name": "",
          "type": "address"
        },
        {
          "internalType": "address",
          "name": "",
          "type": "address"
        },
        {
          "internalType": "uint256",
          "name": "",
          "type": "uint256"
        }
      ],
      "name": "safeTransferFrom",
      "outputs": [],
      "stateMutability": "pure",
      "type": "function"
    },
    {
      "inputs": [],
      "name": "symbol",
      "outputs": [
        {
          "internalType": "string",
          "name": "",
          "type": "string"
        }
      ],
      "stateMutability": "view",
      "type": "function"
    },
    {
      "inputs": [
        {
          "internalType": "address",
          "name": "",
          "type": "address"
        },
        {
          "internalType": "address",
          "name": "",
          "type": "address"
        },
        {
          "internalType": "uint256",
          "name": "",
          "type": "uint256"
        }
      ],
      "name": "transferFrom",
      "outputs": [],
      "stateMutability": "pure",
      "type": "function"
    },
    {
      "inputs": [
        {
          "internalType": "uint256",
          "name": "tokenId",
          "type": "uint256"
        },
        {
          "internalType": "uint16",
          "name": "newCreditScore",
          "type": "uint16"
        },
        {
          "internalType": "uint256",
          "name": "newCreditLimit",
          "type": "uint256"
        },
        {
          "internalType": "address",
          "name": "_creditOfficer",
          "type": "address"
        }
      ],
      "name": "updateCreditNFT",
      "outputs": [],
      "stateMutability": "nonpayable",
      "type": "function"
    }
  ],
  "bytecode": "0x60803460be57601f610f7f38819003918201601f19168301916001600160401b0383118484101760c25780849260209460405283398101031260be57516001600160a01b0381169081900360be57600160035580156087575f80546001600160a01b0319908116331790915560018054909116919091179055604051610ea890816100d78239f35b60405162461bcd60e51b815260206004820152600f60248201526e24b73b30b634b21037b33334b1b2b960891b6044820152606490fd5b5f80fd5b634e487b7160e01b5f52604160045260245ffdfe60806040526004361015610011575f80fd5b5f3560e01c8063065023e614610b4957806306fdde0314610af657806316c1274614610a1c578063173825d9146108a85780632376273d1461088057806323b872dd1461087b57806342842e0e1461087b5780636352211e14610829578063652a4f4f146107f15780637065cb48146106c157806370a08231146106745780638da5cb5b1461064d57806395d89b411461060d578063a62a2f3514610339578063c734304b146101f8578063cd754951146101a6578063cee76333146101005763ef18374a146100df575f80fd5b346100fc575f3660031901126100fc576020600254604051908152f35b5f80fd5b346100fc5760203660031901126100fc576001600160a01b03610121610b9c565b165f52600560205260405f2054610139811515610c9c565b5f52600660205260c060405f2060ff61ffff82541691600181015490600360018060a01b03600283015416910154916040519485526020850152604084015260018060a01b038116606084015267ffffffffffffffff8160a01c16608084015260e01c16151560a0820152f35b346100fc5760203660031901126100fc576001600160a01b036101c7610b9c565b165f52600560205260405f20546101df811515610c9c565b5f5260066020526020600160405f200154604051908152f35b346100fc5760803660031901126100fc576004357f2c5ac0b6e07a3006f0917aeb7e88cfd9f072d6ecacf15182629020bca42081a46080610237610c8b565b6003604435610244610bb2565b9060018060a01b035f541633148015610325575b61026190610d7f565b5f87815260046020526040902054610288906001600160a01b03161515610d2e565b610d2e565b5f878152600660205260409020805461ffff191661ffff8616178155600181018290556002810180546001600160a01b0319166001600160a01b03851617905592909201805467ffffffffffffffff60a01b19164260a081901b67ffffffffffffffff60a01b169190911790915567ffffffffffffffff169161ffff60405194168452602084015260018060a01b031660408301526060820152a2005b506001546001600160a01b03163314610258565b346100fc5760a03660031901126100fc57610352610b9c565b61035a610c8b565b60443591610366610bb2565b926084356001600160a01b03811692908390036100fc575f546001600160a01b0316331480156105f9575b61039a90610d7f565b6001600160a01b03169182156105c157825f52600560205260405f205461057c57600354936103c885610d71565b600355845f52600460205260405f20846001600160601b0360a01b82541617905567ffffffffffffffff4216956040519660c088019388851067ffffffffffffffff86111761056857602098889661ffff60a0967f86b9d9bcf4d5067567bd2f2f4249c2f846b240d3cd555ddc6b486fde49d61d409860405216948583528861051c67ffffffffffffffff8e8601858152600360408801956001808e1b03169788875260608101968a885260808201938c85528e830197600189525f5260206006905261ffff8060405f209451161661ffff198454161783555160018301556001808f1b03905116600282019060018f81901b03166001600160601b038f1b82541617905501946001808d1b03906001808e1b03905116166001600160601b038c1b8654161785555116839081549067ffffffffffffffff60a01b9060a01b169067ffffffffffffffff60a01b1916179055565b51815460ff60e01b191690151560e01b60ff60e01b161790555f89815260058c526040908190208990558051958652858c019190915284015260608301526080820152a3604051908152f35b634e487b7160e01b5f52604160045260245ffd5b60405162461bcd60e51b815260206004820152601860248201527f426f72726f77657220616c726561647920686173204e465400000000000000006044820152606490fd5b60405162461bcd60e51b815260206004820152601060248201526f24b73b30b634b2103137b93937bbb2b960811b6044820152606490fd5b506001546001600160a01b03163314610391565b346100fc575f3660031901126100fc5761064961062a6040610bc8565b60068152651090d4d3919560d21b602082015260405191829182610bee565b0390f35b346100fc575f3660031901126100fc575f546040516001600160a01b039091168152602090f35b346100fc5760203660031901126100fc576001600160a01b03610695610b9c565b165f90815260056020526040902054156106b957602060015b60ff60405191168152f35b60205f6106ae565b346100fc5760203660031901126100fc576106da610b9c565b5f805260046020527f17ef568e3e12ab5b9c7254a8d58478811de00f9e6eb34345acd53bf8fd09d3ec54610718906001600160a01b03163314610cf6565b6001600160a01b0381169081156107bd5761073290610e2e565b6107885760025461074281610d71565b6002555f52600460205260405f20816001600160601b0360a01b8254161790557f994a936646fe87ffe4f1e469d3d6aa417d6b855598397f323de5b449f765f0c35f80a2005b60405162461bcd60e51b815260206004820152600d60248201526c20b63932b0b23c9037bbb732b960991b6044820152606490fd5b60405162461bcd60e51b815260206004820152600c60248201526b5a65726f206164647265737360a01b6044820152606490fd5b346100fc5760203660031901126100fc576001600160a01b03610812610b9c565b165f526005602052602060405f2054604051908152f35b346100fc5760203660031901126100fc5760043561085d610283825f52600460205260018060a01b0360405f205416151590565b5f526004602052602060018060a01b0360405f205416604051908152f35b610c18565b346100fc575f3660031901126100fc576001546040516001600160a01b039091168152602090f35b346100fc5760203660031901126100fc576108c1610b9c565b5f805260046020527f17ef568e3e12ab5b9c7254a8d58478811de00f9e6eb34345acd53bf8fd09d3ec546108ff906001600160a01b03163314610cf6565b61090881610dbc565b60025490818110156109e7575f1982019182116109a7575f828152600460205260409020546001600160a01b03169181036109bb575b50506002545f1981019081116109a7575f52600460205260405f206001600160601b0360a01b815416905560025480156109a7575f19016002556001600160a01b03167f58619076adf5bb0943d100ef88d52d7c3fd691b19d3a9071b555b651fbf418da5f80a2005b634e487b7160e01b5f52601160045260245ffd5b5f52600460205260405f209060018060a01b03166001600160601b0360a01b825416179055818061093e565b60405162461bcd60e51b815260206004820152600d60248201526c092dcecc2d8d2c840d2dcc8caf609b1b6044820152606490fd5b346100fc575f3660031901126100fc57600254610a40610a3b82610cde565b610bc8565b90808252610a4d81610cde565b602083019190601f19013683375f5b818110610ab0578284604051918291602083019060208452518091526040830191905f5b818110610a8e575050500390f35b82516001600160a01b0316845285945060209384019390920191600101610a80565b805f52600460205260018060a01b0360405f205416908451811015610ae25760019160208260051b8701015201610a5c565b634e487b7160e01b5f52603260045260245ffd5b346100fc575f3660031901126100fc57610649610b136040610bc8565b601b81527f426f726465726c657373204372656469742053636f7265204e46540000000000602082015260405191829182610bee565b346100fc5760203660031901126100fc576001600160a01b03610b6a610b9c565b165f52600560205260405f2054610b82811515610c9c565b5f526006602052602061ffff60405f205416604051908152f35b600435906001600160a01b03821682036100fc57565b606435906001600160a01b03821682036100fc57565b6040519190601f01601f1916820167ffffffffffffffff81118382101761056857604052565b602060409281835280519182918282860152018484015e5f828201840152601f01601f1916010190565b346100fc5760603660031901126100fc576004356001600160a01b03811681036100fc57506024356001600160a01b03811681036100fc575060405162461bcd60e51b8152602060048201526012602482015271151c985b9cd9995c9cc8191a5cd8589b195960721b6044820152606490fd5b6024359061ffff821682036100fc57565b15610ca357565b60405162461bcd60e51b815260206004820152601360248201527227379027232a103337b9103137b93937bbb2b960691b6044820152606490fd5b67ffffffffffffffff81116105685760051b60200190565b15610cfd57565b60405162461bcd60e51b81526020600482015260096024820152682737ba1030b236b4b760b91b6044820152606490fd5b15610d3557565b60405162461bcd60e51b8152602060048201526014602482015273151bdad95b88191bd95cc81b9bdd08195e1a5cdd60621b6044820152606490fd5b5f1981146109a75760010190565b15610d8657565b60405162461bcd60e51b815260206004820152600e60248201526d139bdd08185d5d1a1bdc9a5e995960921b6044820152606490fd5b600254905f5b828110610e005760405162461bcd60e51b815260206004820152600f60248201526e13dddb995c881b9bdd08199bdd5b99608a1b6044820152606490fd5b5f818152600460205260409020546001600160a01b03838116911614610e2857600101610dc2565b91505090565b600254905f5b828110610e42575050505f90565b5f818152600460205260409020546001600160a01b03838116911614610e6a57600101610e34565b50505060019056fea26469706673582212205bd2be57a0dd4840c64a681ab7468d478ea7ad71fe53efb11ad4f228d1edfbc664736f6c634300081e0033",
  "source": "// SPDX-License-Identifier: MIT\r\npragma solidity ^0.8.23;\r\n\r\n/**\r\n * @title BorderlessCreditScoreNFT\r\n * @notice Minimal ERC721-like NFT for credit scores with role-based management\r\n * @dev Gas optimized for Solidity 0.8.23\r\n */\r\ncontract BorderlessCreditScoreNFTV3 {\r\n    string public constant name = \"Borderless Credit Score NFT\";\r\n    string public constant symbol = \"BCSNFT\";\r\n\r\n    address public owner;\r\n    address public creditOfficer;\r\n    uint256 private _ownerCount;\r\n\r\n    uint256 private _nextTokenId = 1;\r\n\r\n    mapping(uint256 => address) private _owners;\r\n    mapping(address => uint256) public borrowerToTokenId;\r\n\r\n    struct CreditProfile {\r\n        uint16 creditScore;\r\n        uint256 creditLimit;\r\n        address creditOfficer;\r\n        address creditManager;\r\n        uint64 issuedAt;\r\n        bool active;\r\n    }\r\n\r\n    mapping(uint256 => CreditProfile) private _creditProfiles;\r\n\r\n    event CreditNFTIssued(\r\n        uint256 indexed tokenId,\r\n        address indexed borrower,\r\n        uint16 creditScore,\r\n        uint256 creditLimit,\r\n        address creditOfficer,\r\n        address creditManager,\r\n        uint64 issuedAt\r\n    );\r\n\r\n    event CreditNFTUpdated(\r\n        uint256 indexed tokenId,\r\n        uint16 newCreditScore,\r\n        uint256 newCreditLimit,\r\n        address creditOfficer,\r\n        uint64 updatedAt\r\n    );\r\n\r\n    event OwnerAdded(address indexed owner);\r\n    event OwnerRemoved(address indexed owner);\r\n\r\n    modifier onlyAdmin() {\r\n        require(msg.sender == _owners[0], \"Not admin\");\r\n        _;\r\n    }\r\n\r\n    modifier onlyOwnerOrOfficer() {\r\n        require(msg.sender == owner || msg.sender == creditOfficer, \"Not authorized\");\r\n        _;\r\n    }\r\n\r\n    constructor(address _creditOfficer) {\r\n        require(_creditOfficer != address(0), \"Invalid officer\");\r\n        owner = msg.sender;\r\n        creditOfficer = _creditOfficer;\r\n    }\r\n\r\n    function _exists(uint256 tokenId) internal view returns (bool) {\r\n        return _owners[tokenId] != address(0);\r\n    }\r\n\r\n    function balanceOf(address user) external view returns (uint256) {\r\n        return borrowerToTokenId[user] != 0 ? 1 : 0;\r\n    }\r\n\r\n    function ownerOf(uint256 tokenId) external view returns (address) {\r\n        require(_exists(tokenId), \"Token does not exist\");\r\n        return _owners[tokenId];\r\n    }\r\n\r\n    function _mint(address to, uint256 tokenId) internal {\r\n        _owners[tokenId] = to;\r\n    }\r\n\r\n    function issueCreditNFT(\r\n        address borrower,\r\n        uint16 creditScore,\r\n        uint256 creditLimit,\r\n        address _creditOfficer,\r\n        address creditManager\r\n    ) external onlyOwnerOrOfficer returns (uint256) {\r\n        require(borrower != address(0), \"Invalid borrower\");\r\n        require(borrowerToTokenId[borrower] == 0, \"Borrower already has NFT\");\r\n\r\n        uint256 tokenId = _nextTokenId++;\r\n        _mint(borrower, tokenId);\r\n\r\n        _creditProfiles[tokenId] = CreditProfile({\r\n            creditScore: creditScore,\r\n            creditLimit: creditLimit,\r\n            creditOfficer: _creditOfficer,\r\n            creditManager: creditManager,\r\n            issuedAt: uint64(block.timestamp),\r\n            active: true\r\n        });\r\n\r\n        borrowerToTokenId[borrower] = tokenId;\r\n\r\n        emit CreditNFTIssued(tokenId, borrower, creditScore, creditLimit, _creditOfficer, creditManager, uint64(block.timestamp));\r\n        return tokenId;\r\n    }\r\n\r\n    function updateCreditNFT(\r\n        uint256 tokenId,\r\n        uint16 newCreditScore,\r\n        uint256 newCreditLimit,\r\n        address _creditOfficer\r\n    ) external onlyOwnerOrOfficer {\r\n        require(_exists(tokenId), \"Token does not exist\");\r\n        CreditProfile storage profile = _creditProfiles[tokenId];\r\n\r\n        profile.creditScore = newCreditScore;\r\n        profile.creditLimit = newCreditLimit;\r\n        profile.creditOfficer = _creditOfficer;\r\n        profile.issuedAt = uint64(block.timestamp);\r\n\r\n        emit CreditNFTUpdated(tokenId, newCreditScore, newCreditLimit, _creditOfficer, uint64(block.timestamp));\r\n    }\r\n\r\n    function getCreditScoreByBorrower(address borrower) external view returns (uint16) {\r\n        uint256 tokenId = borrowerToTokenId[borrower];\r\n        require(tokenId != 0, \"No NFT for borrower\");\r\n        return _creditProfiles[tokenId].creditScore;\r\n    }\r\n\r\n    function getCreditLimitByBorrower(address borrower) external view returns (uint256) {\r\n        uint256 tokenId = borrowerToTokenId[borrower];\r\n        require(tokenId != 0, \"No NFT for borrower\");\r\n        return _creditProfiles[tokenId].creditLimit;\r\n    }\r\n\r\n    function getCreditProfileByBorrower(address borrower)\r\n        external\r\n        view\r\n        returns (\r\n            uint16 creditScore,\r\n            uint256 creditLimit,\r\n            address _creditOfficer,\r\n            address creditManager,\r\n            uint64 issuedAt,\r\n            bool active\r\n        )\r\n    {\r\n        uint256 tokenId = borrowerToTokenId[borrower];\r\n        require(tokenId != 0, \"No NFT for borrower\");\r\n        CreditProfile storage p = _creditProfiles[tokenId];\r\n        return (p.creditScore, p.creditLimit, p.creditOfficer, p.creditManager, p.issuedAt, p.active);\r\n    }\r\n\r\n    // Transfers disabled\r\n    function transferFrom(address, address, uint256) external pure {\r\n        revert(\"Transfers disabled\");\r\n    }\r\n\r\n    function safeTransferFrom(address, address, uint256) external pure {\r\n        revert(\"Transfers disabled\");\r\n    }\r\n\r\n \r\n\r\n    // Add new owner\r\n    function addOwner(address newOwner) external onlyAdmin {\r\n        require(newOwner != address(0), \"Zero address\");\r\n        require(!_isOwner(newOwner), \"Already owner\");\r\n\r\n        _owners[_ownerCount++] = newOwner;\r\n        emit OwnerAdded(newOwner);\r\n    }\r\n\r\n    // Remove owner by address (reorders list)\r\n    function removeOwner(address ownerToRemove) external onlyAdmin () {\r\n        uint256 index = _getOwnerIndex(ownerToRemove);\r\n        require(index < _ownerCount, \"Invalid index\");\r\n\r\n        address lastOwner = _owners[_ownerCount - 1];\r\n        if (index != _ownerCount - 1) {\r\n            _owners[index] = lastOwner; // move last into removed slot\r\n        }\r\n\r\n        delete _owners[_ownerCount - 1];\r\n        _ownerCount--;\r\n\r\n        emit OwnerRemoved(ownerToRemove);\r\n    }\r\n\r\n    // Get total owners\r\n    function getOwnerCount() external view returns (uint256) {\r\n        return _ownerCount;\r\n    }\r\n\r\n    // Get all owners\r\n    function getAllOwners() external view returns (address[] memory list) {\r\n        list = new address[](_ownerCount);\r\n        for (uint256 i; i < _ownerCount; i++) {\r\n            list[i] = _owners[i];\r\n        }\r\n    }\r\n\r\n    // Internal helpers\r\n    function _isOwner(address user) internal view returns (bool) {\r\n        for (uint256 i; i < _ownerCount; i++) {\r\n            if (_owners[i] == user) return true;\r\n        }\r\n        return false;\r\n    }\r\n\r\n    function _getOwnerIndex(address user) internal view returns (uint256) {\r\n        for (uint256 i; i < _ownerCount; i++) {\r\n            if (_owners[i] == user) return i;\r\n        }\r\n        revert(\"Owner not found\");\r\n    }\r\n}",
  "sourcePath": "C:/workspace/tronbfpay/contracts/v3/BorderlessCreditScoreNFTV3.sol",
  "compiler": {
    "name": "solc",
    "version": "0.8.30+commit.73712a01.Emscripten.clang"
  },
  "schemaVersion": "2.0.1",
  "updatedAt": "2025-10-09T13:04:12.871Z"
}