{
  "contractName": "BorderlessCreditScoreNFT",
  "abi": [
    {
      "constant": true,
      "inputs": [
        {
          "name": "borrower",
          "type": "address"
        }
      ],
      "name": "getCreditScoreByBorrower",
      "outputs": [
        {
          "name": "",
          "type": "uint16"
        }
      ],
      "payable": false,
      "stateMutability": "view",
      "type": "function"
    },
    {
      "constant": true,
      "inputs": [],
      "name": "name",
      "outputs": [
        {
          "name": "",
          "type": "string"
        }
      ],
      "payable": false,
      "stateMutability": "view",
      "type": "function"
    },
    {
      "constant": true,
      "inputs": [],
      "name": "creditOfficer",
      "outputs": [
        {
          "name": "",
          "type": "address"
        }
      ],
      "payable": false,
      "stateMutability": "view",
      "type": "function"
    },
    {
      "constant": true,
      "inputs": [
        {
          "name": "from",
          "type": "address"
        },
        {
          "name": "to",
          "type": "address"
        },
        {
          "name": "tokenId",
          "type": "uint256"
        }
      ],
      "name": "transferFrom",
      "outputs": [],
      "payable": false,
      "stateMutability": "pure",
      "type": "function"
    },
    {
      "constant": true,
      "inputs": [
        {
          "name": "from",
          "type": "address"
        },
        {
          "name": "to",
          "type": "address"
        },
        {
          "name": "tokenId",
          "type": "uint256"
        }
      ],
      "name": "safeTransferFrom",
      "outputs": [],
      "payable": false,
      "stateMutability": "pure",
      "type": "function"
    },
    {
      "constant": true,
      "inputs": [
        {
          "name": "tokenId",
          "type": "uint256"
        }
      ],
      "name": "ownerOf",
      "outputs": [
        {
          "name": "",
          "type": "address"
        }
      ],
      "payable": false,
      "stateMutability": "view",
      "type": "function"
    },
    {
      "constant": true,
      "inputs": [
        {
          "name": "",
          "type": "address"
        }
      ],
      "name": "borrowerToTokenId",
      "outputs": [
        {
          "name": "",
          "type": "uint256"
        }
      ],
      "payable": false,
      "stateMutability": "view",
      "type": "function"
    },
    {
      "constant": true,
      "inputs": [
        {
          "name": "user",
          "type": "address"
        }
      ],
      "name": "balanceOf",
      "outputs": [
        {
          "name": "",
          "type": "uint256"
        }
      ],
      "payable": false,
      "stateMutability": "view",
      "type": "function"
    },
    {
      "constant": true,
      "inputs": [],
      "name": "owner",
      "outputs": [
        {
          "name": "",
          "type": "address"
        }
      ],
      "payable": false,
      "stateMutability": "view",
      "type": "function"
    },
    {
      "constant": true,
      "inputs": [],
      "name": "symbol",
      "outputs": [
        {
          "name": "",
          "type": "string"
        }
      ],
      "payable": false,
      "stateMutability": "view",
      "type": "function"
    },
    {
      "constant": false,
      "inputs": [
        {
          "name": "borrower",
          "type": "address"
        },
        {
          "name": "creditScore",
          "type": "uint16"
        },
        {
          "name": "creditLimit",
          "type": "uint256"
        },
        {
          "name": "_creditOfficer",
          "type": "address"
        },
        {
          "name": "creditManager",
          "type": "address"
        }
      ],
      "name": "issueCreditNFT",
      "outputs": [
        {
          "name": "",
          "type": "uint256"
        }
      ],
      "payable": false,
      "stateMutability": "nonpayable",
      "type": "function"
    },
    {
      "constant": false,
      "inputs": [
        {
          "name": "tokenId",
          "type": "uint256"
        },
        {
          "name": "newCreditScore",
          "type": "uint16"
        },
        {
          "name": "newCreditLimit",
          "type": "uint256"
        },
        {
          "name": "_creditOfficer",
          "type": "address"
        }
      ],
      "name": "updateCreditNFT",
      "outputs": [],
      "payable": false,
      "stateMutability": "nonpayable",
      "type": "function"
    },
    {
      "constant": true,
      "inputs": [
        {
          "name": "borrower",
          "type": "address"
        }
      ],
      "name": "getCreditLimitByBorrower",
      "outputs": [
        {
          "name": "",
          "type": "uint256"
        }
      ],
      "payable": false,
      "stateMutability": "view",
      "type": "function"
    },
    {
      "constant": true,
      "inputs": [
        {
          "name": "borrower",
          "type": "address"
        }
      ],
      "name": "getCreditProfileByBorrower",
      "outputs": [
        {
          "name": "creditScore",
          "type": "uint16"
        },
        {
          "name": "creditLimit",
          "type": "uint256"
        },
        {
          "name": "_creditOfficer",
          "type": "address"
        },
        {
          "name": "creditManager",
          "type": "address"
        },
        {
          "name": "issuedAt",
          "type": "uint256"
        },
        {
          "name": "active",
          "type": "bool"
        }
      ],
      "payable": false,
      "stateMutability": "view",
      "type": "function"
    },
    {
      "inputs": [
        {
          "name": "_creditOfficer",
          "type": "address"
        }
      ],
      "payable": false,
      "stateMutability": "nonpayable",
      "type": "constructor"
    },
    {
      "anonymous": false,
      "inputs": [
        {
          "indexed": true,
          "name": "from",
          "type": "address"
        },
        {
          "indexed": true,
          "name": "to",
          "type": "address"
        },
        {
          "indexed": true,
          "name": "tokenId",
          "type": "uint256"
        }
      ],
      "name": "Transfer",
      "type": "event"
    },
    {
      "anonymous": false,
      "inputs": [
        {
          "indexed": true,
          "name": "tokenId",
          "type": "uint256"
        },
        {
          "indexed": true,
          "name": "borrower",
          "type": "address"
        },
        {
          "indexed": false,
          "name": "creditScore",
          "type": "uint16"
        },
        {
          "indexed": false,
          "name": "creditLimit",
          "type": "uint256"
        },
        {
          "indexed": false,
          "name": "creditOfficer",
          "type": "address"
        },
        {
          "indexed": false,
          "name": "creditManager",
          "type": "address"
        },
        {
          "indexed": false,
          "name": "issuedAt",
          "type": "uint256"
        }
      ],
      "name": "CreditNFTIssued",
      "type": "event"
    },
    {
      "anonymous": false,
      "inputs": [
        {
          "indexed": true,
          "name": "tokenId",
          "type": "uint256"
        },
        {
          "indexed": false,
          "name": "newCreditScore",
          "type": "uint16"
        },
        {
          "indexed": false,
          "name": "newCreditLimit",
          "type": "uint256"
        },
        {
          "indexed": false,
          "name": "creditOfficer",
          "type": "address"
        },
        {
          "indexed": false,
          "name": "updatedAt",
          "type": "uint256"
        }
      ],
      "name": "CreditNFTUpdated",
      "type": "event"
    }
  ],
  "bytecode": "0x60806040526040805190810160405280601b81526020017f426f726465726c657373204372656469742053636f7265204e4654000000000081525060009080519060200190620000519291906200016e565b506040805190810160405280600681526020017f4243534e46540000000000000000000000000000000000000000000000000000815250600190805190602001906200009f9291906200016e565b506001600455348015620000b257600080fd5b50604051602080620019b483398101806040526020811015620000d457600080fd5b810190808051906020019092919050505033600260006101000a81548173ffffffffffffffffffffffffffffffffffffffff021916908373ffffffffffffffffffffffffffffffffffffffff16021790555080600360006101000a81548173ffffffffffffffffffffffffffffffffffffffff021916908373ffffffffffffffffffffffffffffffffffffffff160217905550506200021d565b828054600181600116156101000203166002900490600052602060002090601f016020900481019282601f10620001b157805160ff1916838001178555620001e2565b82800160010185558215620001e2579182015b82811115620001e1578251825591602001919060010190620001c4565b5b509050620001f19190620001f5565b5090565b6200021a91905b8082111562000216576000816000905550600101620001fc565b5090565b90565b611787806200022d6000396000f3fe608060405234801561001057600080fd5b5060043610610107576000357c01000000000000000000000000000000000000000000000000000000009004806370a08231116100a9578063a62a2f3511610083578063a62a2f3514610500578063c734304b146105b0578063cd75495114610616578063cee763331461066e57610107565b806370a08231146103db5780638da5cb5b1461043357806395d89b411461047d57610107565b806323b872dd116100e557806323b872dd1461023957806342842e0e146102a75780636352211e14610315578063652a4f4f1461038357610107565b8063065023e61461010c57806306fdde031461016c5780632376273d146101ef575b600080fd5b61014e6004803603602081101561012257600080fd5b81019080803573ffffffffffffffffffffffffffffffffffffffff16906020019092919050505061074d565b604051808261ffff1661ffff16815260200191505060405180910390f35b610174610838565b6040518080602001828103825283818151815260200191508051906020019080838360005b838110156101b4578082015181840152602081019050610199565b50505050905090810190601f1680156101e15780820380516001836020036101000a031916815260200191505b509250505060405180910390f35b6101f76108d6565b604051808273ffffffffffffffffffffffffffffffffffffffff1673ffffffffffffffffffffffffffffffffffffffff16815260200191505060405180910390f35b6102a56004803603606081101561024f57600080fd5b81019080803573ffffffffffffffffffffffffffffffffffffffff169060200190929190803573ffffffffffffffffffffffffffffffffffffffff169060200190929190803590602001909291905050506108fc565b005b610313600480360360608110156102bd57600080fd5b81019080803573ffffffffffffffffffffffffffffffffffffffff169060200190929190803573ffffffffffffffffffffffffffffffffffffffff16906020019092919080359060200190929190505050610977565b005b6103416004803603602081101561032b57600080fd5b81019080803590602001909291905050506109f2565b604051808273ffffffffffffffffffffffffffffffffffffffff1673ffffffffffffffffffffffffffffffffffffffff16815260200191505060405180910390f35b6103c56004803603602081101561039957600080fd5b81019080803573ffffffffffffffffffffffffffffffffffffffff169060200190929190505050610aac565b6040518082815260200191505060405180910390f35b61041d600480360360208110156103f157600080fd5b81019080803573ffffffffffffffffffffffffffffffffffffffff169060200190929190505050610ac4565b6040518082815260200191505060405180910390f35b61043b610b21565b604051808273ffffffffffffffffffffffffffffffffffffffff1673ffffffffffffffffffffffffffffffffffffffff16815260200191505060405180910390f35b610485610b47565b6040518080602001828103825283818151815260200191508051906020019080838360005b838110156104c55780820151818401526020810190506104aa565b50505050905090810190601f1680156104f25780820380516001836020036101000a031916815260200191505b509250505060405180910390f35b61059a600480360360a081101561051657600080fd5b81019080803573ffffffffffffffffffffffffffffffffffffffff169060200190929190803561ffff16906020019092919080359060200190929190803573ffffffffffffffffffffffffffffffffffffffff169060200190929190803573ffffffffffffffffffffffffffffffffffffffff169060200190929190505050610be5565b6040518082815260200191505060405180910390f35b610614600480360360808110156105c657600080fd5b8101908080359060200190929190803561ffff16906020019092919080359060200190929190803573ffffffffffffffffffffffffffffffffffffffff169060200190929190505050611121565b005b6106586004803603602081101561062c57600080fd5b81019080803573ffffffffffffffffffffffffffffffffffffffff1690602001909291905050506113f3565b6040518082815260200191505060405180910390f35b6106b06004803603602081101561068457600080fd5b81019080803573ffffffffffffffffffffffffffffffffffffffff1690602001909291905050506114d0565b604051808761ffff1661ffff1681526020018681526020018573ffffffffffffffffffffffffffffffffffffffff1673ffffffffffffffffffffffffffffffffffffffff1681526020018473ffffffffffffffffffffffffffffffffffffffff1673ffffffffffffffffffffffffffffffffffffffff16815260200183815260200182151515158152602001965050505050505060405180910390f35b600080600660008473ffffffffffffffffffffffffffffffffffffffff1673ffffffffffffffffffffffffffffffffffffffff1681526020019081526020016000205490506000811415151561080b576040517f08c379a00000000000000000000000000000000000000000000000000000000081526004018080602001828103825260138152602001807f426f72726f77657220686173206e6f204e46540000000000000000000000000081525060200191505060405180910390fd5b6008600082815260200190815260200160002060000160009054906101000a900461ffff16915050919050565b60008054600181600116156101000203166002900480601f0160208091040260200160405190810160405280929190818152602001828054600181600116156101000203166002900480156108ce5780601f106108a3576101008083540402835291602001916108ce565b820191906000526020600020905b8154815290600101906020018083116108b157829003601f168201915b505050505081565b600360009054906101000a900473ffffffffffffffffffffffffffffffffffffffff1681565b60001515610972576040517f08c379a00000000000000000000000000000000000000000000000000000000081526004018080602001828103825260128152602001807f5472616e73666572732064697361626c6564000000000000000000000000000081525060200191505060405180910390fd5b505050565b600015156109ed576040517f08c379a00000000000000000000000000000000000000000000000000000000081526004018080602001828103825260128152602001807f5472616e73666572732064697361626c6564000000000000000000000000000081525060200191505060405180910390fd5b505050565b60006109fd8261163d565b1515610a71576040517f08c379a00000000000000000000000000000000000000000000000000000000081526004018080602001828103825260148152602001807f546f6b656e20646f6573206e6f7420657869737400000000000000000000000081525060200191505060405180910390fd5b6005600083815260200190815260200160002060009054906101000a900473ffffffffffffffffffffffffffffffffffffffff169050919050565b60066020528060005260406000206000915090505481565b600080600660008473ffffffffffffffffffffffffffffffffffffffff1673ffffffffffffffffffffffffffffffffffffffff168152602001908152602001600020541415610b14576000610b17565b60015b60ff169050919050565b600260009054906101000a900473ffffffffffffffffffffffffffffffffffffffff1681565b60018054600181600116156101000203166002900480601f016020809104026020016040519081016040528092919081815260200182805460018160011615610100020316600290048015610bdd5780601f10610bb257610100808354040283529160200191610bdd565b820191906000526020600020905b815481529060010190602001808311610bc057829003601f168201915b505050505081565b6000600260009054906101000a900473ffffffffffffffffffffffffffffffffffffffff1673ffffffffffffffffffffffffffffffffffffffff163373ffffffffffffffffffffffffffffffffffffffff161480610c905750600360009054906101000a900473ffffffffffffffffffffffffffffffffffffffff1673ffffffffffffffffffffffffffffffffffffffff163373ffffffffffffffffffffffffffffffffffffffff16145b1515610d04576040517f08c379a00000000000000000000000000000000000000000000000000000000081526004018080602001828103825260098152602001807f4e6f74206f776e6572000000000000000000000000000000000000000000000081525060200191505060405180910390fd5b600073ffffffffffffffffffffffffffffffffffffffff168673ffffffffffffffffffffffffffffffffffffffff1614151515610da9576040517f08c379a00000000000000000000000000000000000000000000000000000000081526004018080602001828103825260108152602001807f496e76616c696420626f72726f7765720000000000000000000000000000000081525060200191505060405180910390fd5b6000600660008873ffffffffffffffffffffffffffffffffffffffff1673ffffffffffffffffffffffffffffffffffffffff16815260200190815260200160002054141515610e60576040517f08c379a00000000000000000000000000000000000000000000000000000000081526004018080602001828103825260188152602001807f426f72726f77657220616c726561647920686173204e4654000000000000000081525060200191505060405180910390fd5b60006004549050600460008154809291906001019190505550610e8387826116a9565b60c0604051908101604052808761ffff1681526020018681526020018573ffffffffffffffffffffffffffffffffffffffff1681526020018473ffffffffffffffffffffffffffffffffffffffff168152602001428152602001600115158152506008600083815260200190815260200160002060008201518160000160006101000a81548161ffff021916908361ffff1602179055506020820151816001015560408201518160020160006101000a81548173ffffffffffffffffffffffffffffffffffffffff021916908373ffffffffffffffffffffffffffffffffffffffff16021790555060608201518160030160006101000a81548173ffffffffffffffffffffffffffffffffffffffff021916908373ffffffffffffffffffffffffffffffffffffffff1602179055506080820151816004015560a08201518160050160006101000a81548160ff02191690831515021790555090505080600660008973ffffffffffffffffffffffffffffffffffffffff1673ffffffffffffffffffffffffffffffffffffffff168152602001908152602001600020819055508673ffffffffffffffffffffffffffffffffffffffff16817f30e08c6e78ff4c79b1d299e412cd707628559a09b6017c6f3a79c0b9328c04ab8888600360009054906101000a900473ffffffffffffffffffffffffffffffffffffffff168842604051808661ffff1661ffff1681526020018581526020018473ffffffffffffffffffffffffffffffffffffffff1673ffffffffffffffffffffffffffffffffffffffff1681526020018373ffffffffffffffffffffffffffffffffffffffff1673ffffffffffffffffffffffffffffffffffffffff1681526020018281526020019550505050505060405180910390a38091505095945050505050565b600260009054906101000a900473ffffffffffffffffffffffffffffffffffffffff1673ffffffffffffffffffffffffffffffffffffffff163373ffffffffffffffffffffffffffffffffffffffff1614806111ca5750600360009054906101000a900473ffffffffffffffffffffffffffffffffffffffff1673ffffffffffffffffffffffffffffffffffffffff163373ffffffffffffffffffffffffffffffffffffffff16145b151561123e576040517f08c379a00000000000000000000000000000000000000000000000000000000081526004018080602001828103825260098152602001807f4e6f74206f776e6572000000000000000000000000000000000000000000000081525060200191505060405180910390fd5b6112478461163d565b15156112bb576040517f08c379a00000000000000000000000000000000000000000000000000000000081526004018080602001828103825260148152602001807f546f6b656e20646f6573206e6f7420657869737400000000000000000000000081525060200191505060405180910390fd5b6000600860008681526020019081526020016000209050838160000160006101000a81548161ffff021916908361ffff160217905550828160010181905550818160020160006101000a81548173ffffffffffffffffffffffffffffffffffffffff021916908373ffffffffffffffffffffffffffffffffffffffff160217905550428160040181905550847f355eec9320bd19d326342bb92b92263d8d41874f5f3be452f681047335731c8b8585600360009054906101000a900473ffffffffffffffffffffffffffffffffffffffff1642604051808561ffff1661ffff1681526020018481526020018373ffffffffffffffffffffffffffffffffffffffff1673ffffffffffffffffffffffffffffffffffffffff16815260200182815260200194505050505060405180910390a25050505050565b600080600660008473ffffffffffffffffffffffffffffffffffffffff1673ffffffffffffffffffffffffffffffffffffffff168152602001908152602001600020549050600081141515156114b1576040517f08c379a00000000000000000000000000000000000000000000000000000000081526004018080602001828103825260138152602001807f426f72726f77657220686173206e6f204e46540000000000000000000000000081525060200191505060405180910390fd5b6008600082815260200190815260200160002060010154915050919050565b6000806000806000806000600660008973ffffffffffffffffffffffffffffffffffffffff1673ffffffffffffffffffffffffffffffffffffffff16815260200190815260200160002054905060008114151515611596576040517f08c379a00000000000000000000000000000000000000000000000000000000081526004018080602001828103825260138152602001807f426f72726f77657220686173206e6f204e46540000000000000000000000000081525060200191505060405180910390fd5b60006008600083815260200190815260200160002090508060000160009054906101000a900461ffff1681600101548260020160009054906101000a900473ffffffffffffffffffffffffffffffffffffffff168360030160009054906101000a900473ffffffffffffffffffffffffffffffffffffffff1684600401548560050160009054906101000a900460ff16975097509750975097509750505091939550919395565b60008073ffffffffffffffffffffffffffffffffffffffff166005600084815260200190815260200160002060009054906101000a900473ffffffffffffffffffffffffffffffffffffffff1673ffffffffffffffffffffffffffffffffffffffff1614159050919050565b816005600083815260200190815260200160002060006101000a81548173ffffffffffffffffffffffffffffffffffffffff021916908373ffffffffffffffffffffffffffffffffffffffff160217905550808273ffffffffffffffffffffffffffffffffffffffff16600073ffffffffffffffffffffffffffffffffffffffff167fddf252ad1be2c89b69c2b068fc378daa952ba7f163c4a11628f55a4df523b3ef60405160405180910390a4505056fea165627a7a723058208a4035f533a80b9d5edb308434ec341702561cc07a34900ae635edf9b22b36380029",
  "source": "// SPDX-License-Identifier: MIT\r\npragma solidity ^0.5.4;\r\n\r\n/// @notice Minimal ERC721 implementation with Ownable included\r\ncontract BorderlessCreditScoreNFT {\r\n    string public name = \"Borderless Credit Score NFT\";\r\n    string public symbol = \"BCSNFT\";\r\n\r\n    address public owner;\r\n    address public creditOfficer;\r\n    uint256 private _nextTokenId = 1;\r\n\r\n    mapping(uint256 => address) private _owners;\r\n    mapping(address => uint256) public borrowerToTokenId;\r\n    mapping(uint256 => address) private _tokenApprovals;\r\n\r\n    struct CreditProfile {\r\n        uint16 creditScore;\r\n        uint256 creditLimit;\r\n        address creditOfficer;\r\n        address creditManager;\r\n        uint256 issuedAt;\r\n        bool active;\r\n    }\r\n\r\n    mapping(uint256 => CreditProfile) private _creditProfiles;\r\n\r\n    event Transfer(address indexed from, address indexed to, uint256 indexed tokenId);\r\n    event CreditNFTIssued(\r\n        uint256 indexed tokenId,\r\n        address indexed borrower,\r\n        uint16 creditScore,\r\n        uint256 creditLimit,\r\n        address creditOfficer,\r\n        address creditManager,\r\n        uint256 issuedAt\r\n    );\r\n\r\n    event CreditNFTUpdated(\r\n        uint256 indexed tokenId,\r\n        uint16 newCreditScore,\r\n        uint256 newCreditLimit,\r\n        address creditOfficer,\r\n        uint256 updatedAt\r\n    );\r\n\r\n    modifier onlyOwner() {\r\n        require(msg.sender == owner || msg.sender == creditOfficer, \"Not owner\");\r\n        _;\r\n    }\r\n\r\n    constructor(address _creditOfficer) public {\r\n        owner = msg.sender;\r\n        creditOfficer = _creditOfficer;\r\n    }\r\n\r\n    function _exists(uint256 tokenId) internal view returns (bool) {\r\n        return _owners[tokenId] != address(0);\r\n    }\r\n\r\n    function balanceOf(address user) external view returns (uint256) {\r\n        return borrowerToTokenId[user] != 0 ? 1 : 0;\r\n    }\r\n\r\n    function ownerOf(uint256 tokenId) external view returns (address) {\r\n        require(_exists(tokenId), \"Token does not exist\");\r\n        return _owners[tokenId];\r\n    }\r\n\r\n    function _safeMint(address to, uint256 tokenId) internal {\r\n        _owners[tokenId] = to;\r\n        emit Transfer(address(0), to, tokenId);\r\n    }\r\n\r\n    function issueCreditNFT(\r\n        address borrower,\r\n        uint16 creditScore,\r\n        uint256 creditLimit,\r\n        address _creditOfficer,\r\n        address creditManager\r\n    ) external onlyOwner returns (uint256) {\r\n        require(borrower != address(0), \"Invalid borrower\");\r\n        require(borrowerToTokenId[borrower] == 0, \"Borrower already has NFT\");\r\n\r\n        uint256 tokenId = _nextTokenId;\r\n        _nextTokenId++;\r\n\r\n        _safeMint(borrower, tokenId);\r\n\r\n        _creditProfiles[tokenId] = CreditProfile({\r\n            creditScore: creditScore,\r\n            creditLimit: creditLimit,\r\n            creditOfficer: _creditOfficer,\r\n            creditManager: creditManager,\r\n            issuedAt: block.timestamp,\r\n            active: true\r\n        });\r\n\r\n        borrowerToTokenId[borrower] = tokenId;\r\n\r\n        emit CreditNFTIssued(tokenId, borrower, creditScore, creditLimit, creditOfficer, creditManager, block.timestamp);\r\n        return tokenId;\r\n    }\r\n\r\n    function updateCreditNFT(\r\n        uint256 tokenId,\r\n        uint16 newCreditScore,\r\n        uint256 newCreditLimit,\r\n        address _creditOfficer\r\n    ) external onlyOwner {\r\n        require(_exists(tokenId), \"Token does not exist\");\r\n\r\n        CreditProfile storage profile = _creditProfiles[tokenId];\r\n        profile.creditScore = newCreditScore;\r\n        profile.creditLimit = newCreditLimit;\r\n        profile.creditOfficer = _creditOfficer;\r\n        profile.issuedAt = block.timestamp;\r\n\r\n        emit CreditNFTUpdated(tokenId, newCreditScore, newCreditLimit, creditOfficer, block.timestamp);\r\n    }\r\n\r\n    function getCreditScoreByBorrower(address borrower) external view returns (uint16) {\r\n        uint256 tokenId = borrowerToTokenId[borrower];\r\n        require(tokenId != 0, \"Borrower has no NFT\");\r\n        return _creditProfiles[tokenId].creditScore;\r\n    }\r\n\r\n    function getCreditLimitByBorrower(address borrower) external view returns (uint256) {\r\n        uint256 tokenId = borrowerToTokenId[borrower];\r\n        require(tokenId != 0, \"Borrower has no NFT\");\r\n        return _creditProfiles[tokenId].creditLimit;\r\n    }\r\n\r\n    function getCreditProfileByBorrower(address borrower)\r\n        external\r\n        view\r\n        returns (\r\n            uint16 creditScore,\r\n            uint256 creditLimit,\r\n            address _creditOfficer,\r\n            address creditManager,\r\n            uint256 issuedAt,\r\n            bool active\r\n        )\r\n    {\r\n        uint256 tokenId = borrowerToTokenId[borrower];\r\n        require(tokenId != 0, \"Borrower has no NFT\");\r\n        CreditProfile storage p = _creditProfiles[tokenId];\r\n        return (p.creditScore, p.creditLimit, p.creditOfficer, p.creditManager, p.issuedAt, p.active);\r\n    }\r\n\r\n\r\n    // Restrict transfers\r\n    function transferFrom(address from, address to, uint256 tokenId) external pure {\r\n        require(false, \"Transfers disabled\"); // only mint/burn allowed\r\n    }\r\n\r\n    function safeTransferFrom(address from, address to, uint256 tokenId) external pure {\r\n        require(false, \"Transfers disabled\"); // only mint/burn allowed\r\n    }\r\n}\r\n",
  "sourcePath": "C:/workspace/tronbfpay/contracts/v3/BorderlessCreditScoreNFT.sol",
  "compiler": {
    "name": "solc",
    "version": "0.5.4+commit.9549d8ff.Emscripten.clang"
  },
  "schemaVersion": "2.0.1",
  "updatedAt": "2025-09-28T17:24:17.034Z"
}