{
  "contractName": "BorderlessCreditScoreNFT",
  "abi": [
    {
      "constant": true,
      "inputs": [
        {
          "name": "borrower",
          "type": "address"
        }
      ],
      "name": "getCreditScoreByBorrower",
      "outputs": [
        {
          "name": "",
          "type": "uint16"
        }
      ],
      "payable": false,
      "stateMutability": "view",
      "type": "function"
    },
    {
      "constant": true,
      "inputs": [],
      "name": "name",
      "outputs": [
        {
          "name": "",
          "type": "string"
        }
      ],
      "payable": false,
      "stateMutability": "view",
      "type": "function"
    },
    {
      "constant": true,
      "inputs": [],
      "name": "creditOfficer",
      "outputs": [
        {
          "name": "",
          "type": "address"
        }
      ],
      "payable": false,
      "stateMutability": "view",
      "type": "function"
    },
    {
      "constant": true,
      "inputs": [
        {
          "name": "from",
          "type": "address"
        },
        {
          "name": "to",
          "type": "address"
        },
        {
          "name": "tokenId",
          "type": "uint256"
        }
      ],
      "name": "transferFrom",
      "outputs": [],
      "payable": false,
      "stateMutability": "pure",
      "type": "function"
    },
    {
      "constant": true,
      "inputs": [
        {
          "name": "from",
          "type": "address"
        },
        {
          "name": "to",
          "type": "address"
        },
        {
          "name": "tokenId",
          "type": "uint256"
        }
      ],
      "name": "safeTransferFrom",
      "outputs": [],
      "payable": false,
      "stateMutability": "pure",
      "type": "function"
    },
    {
      "constant": true,
      "inputs": [
        {
          "name": "tokenId",
          "type": "uint256"
        }
      ],
      "name": "ownerOf",
      "outputs": [
        {
          "name": "",
          "type": "address"
        }
      ],
      "payable": false,
      "stateMutability": "view",
      "type": "function"
    },
    {
      "constant": true,
      "inputs": [
        {
          "name": "",
          "type": "address"
        }
      ],
      "name": "borrowerToTokenId",
      "outputs": [
        {
          "name": "",
          "type": "uint256"
        }
      ],
      "payable": false,
      "stateMutability": "view",
      "type": "function"
    },
    {
      "constant": true,
      "inputs": [
        {
          "name": "user",
          "type": "address"
        }
      ],
      "name": "balanceOf",
      "outputs": [
        {
          "name": "",
          "type": "uint256"
        }
      ],
      "payable": false,
      "stateMutability": "view",
      "type": "function"
    },
    {
      "constant": true,
      "inputs": [],
      "name": "owner",
      "outputs": [
        {
          "name": "",
          "type": "address"
        }
      ],
      "payable": false,
      "stateMutability": "view",
      "type": "function"
    },
    {
      "constant": true,
      "inputs": [],
      "name": "symbol",
      "outputs": [
        {
          "name": "",
          "type": "string"
        }
      ],
      "payable": false,
      "stateMutability": "view",
      "type": "function"
    },
    {
      "constant": false,
      "inputs": [
        {
          "name": "borrower",
          "type": "address"
        },
        {
          "name": "creditScore",
          "type": "uint16"
        },
        {
          "name": "creditLimit",
          "type": "uint256"
        },
        {
          "name": "_creditOfficer",
          "type": "address"
        },
        {
          "name": "creditManager",
          "type": "address"
        }
      ],
      "name": "issueCreditNFT",
      "outputs": [
        {
          "name": "",
          "type": "uint256"
        }
      ],
      "payable": false,
      "stateMutability": "nonpayable",
      "type": "function"
    },
    {
      "constant": false,
      "inputs": [
        {
          "name": "tokenId",
          "type": "uint256"
        },
        {
          "name": "newCreditScore",
          "type": "uint16"
        },
        {
          "name": "newCreditLimit",
          "type": "uint256"
        },
        {
          "name": "_creditOfficer",
          "type": "address"
        }
      ],
      "name": "updateCreditNFT",
      "outputs": [],
      "payable": false,
      "stateMutability": "nonpayable",
      "type": "function"
    },
    {
      "constant": true,
      "inputs": [
        {
          "name": "borrower",
          "type": "address"
        }
      ],
      "name": "getCreditLimitByBorrower",
      "outputs": [
        {
          "name": "",
          "type": "uint256"
        }
      ],
      "payable": false,
      "stateMutability": "view",
      "type": "function"
    },
    {
      "constant": true,
      "inputs": [
        {
          "name": "borrower",
          "type": "address"
        }
      ],
      "name": "getCreditProfileByBorrower",
      "outputs": [
        {
          "name": "creditScore",
          "type": "uint16"
        },
        {
          "name": "creditLimit",
          "type": "uint256"
        },
        {
          "name": "_creditOfficer",
          "type": "address"
        },
        {
          "name": "creditManager",
          "type": "address"
        },
        {
          "name": "issuedAt",
          "type": "uint256"
        },
        {
          "name": "active",
          "type": "bool"
        }
      ],
      "payable": false,
      "stateMutability": "view",
      "type": "function"
    },
    {
      "inputs": [
        {
          "name": "_creditOfficer",
          "type": "address"
        }
      ],
      "payable": false,
      "stateMutability": "nonpayable",
      "type": "constructor"
    },
    {
      "anonymous": false,
      "inputs": [
        {
          "indexed": true,
          "name": "from",
          "type": "address"
        },
        {
          "indexed": true,
          "name": "to",
          "type": "address"
        },
        {
          "indexed": true,
          "name": "tokenId",
          "type": "uint256"
        }
      ],
      "name": "Transfer",
      "type": "event"
    },
    {
      "anonymous": false,
      "inputs": [
        {
          "indexed": true,
          "name": "tokenId",
          "type": "uint256"
        },
        {
          "indexed": true,
          "name": "borrower",
          "type": "address"
        },
        {
          "indexed": false,
          "name": "creditScore",
          "type": "uint16"
        },
        {
          "indexed": false,
          "name": "creditLimit",
          "type": "uint256"
        },
        {
          "indexed": false,
          "name": "creditOfficer",
          "type": "address"
        },
        {
          "indexed": false,
          "name": "creditManager",
          "type": "address"
        },
        {
          "indexed": false,
          "name": "issuedAt",
          "type": "uint256"
        }
      ],
      "name": "CreditNFTIssued",
      "type": "event"
    },
    {
      "anonymous": false,
      "inputs": [
        {
          "indexed": true,
          "name": "tokenId",
          "type": "uint256"
        },
        {
          "indexed": false,
          "name": "newCreditScore",
          "type": "uint16"
        },
        {
          "indexed": false,
          "name": "newCreditLimit",
          "type": "uint256"
        },
        {
          "indexed": false,
          "name": "creditOfficer",
          "type": "address"
        },
        {
          "indexed": false,
          "name": "updatedAt",
          "type": "uint256"
        }
      ],
      "name": "CreditNFTUpdated",
      "type": "event"
    }
  ],
  "bytecode": "0x60806040526040805190810160405280601b81526020017f426f726465726c657373204372656469742053636f7265204e4654000000000081525060009080519060200190620000519291906200018a565b506040805190810160405280600681526020017f4243534e46540000000000000000000000000000000000000000000000000000815250600190805190602001906200009f9291906200018a565b506001600455348015620000b257600080fd5b50d38015620000c057600080fd5b50d28015620000ce57600080fd5b50604051602080620019ea83398101806040526020811015620000f057600080fd5b810190808051906020019092919050505033600260006101000a81548173ffffffffffffffffffffffffffffffffffffffff021916908373ffffffffffffffffffffffffffffffffffffffff16021790555080600360006101000a81548173ffffffffffffffffffffffffffffffffffffffff021916908373ffffffffffffffffffffffffffffffffffffffff1602179055505062000239565b828054600181600116156101000203166002900490600052602060002090601f016020900481019282601f10620001cd57805160ff1916838001178555620001fe565b82800160010185558215620001fe579182015b82811115620001fd578251825591602001919060010190620001e0565b5b5090506200020d919062000211565b5090565b6200023691905b808211156200023257600081600090555060010162000218565b5090565b90565b6117a180620002496000396000f3fe608060405234801561001057600080fd5b50d3801561001d57600080fd5b50d2801561002a57600080fd5b5060043610610121576000357c01000000000000000000000000000000000000000000000000000000009004806370a08231116100c3578063a62a2f351161009d578063a62a2f351461051a578063c734304b146105ca578063cd75495114610630578063cee763331461068857610121565b806370a08231146103f55780638da5cb5b1461044d57806395d89b411461049757610121565b806323b872dd116100ff57806323b872dd1461025357806342842e0e146102c15780636352211e1461032f578063652a4f4f1461039d57610121565b8063065023e61461012657806306fdde03146101865780632376273d14610209575b600080fd5b6101686004803603602081101561013c57600080fd5b81019080803573ffffffffffffffffffffffffffffffffffffffff169060200190929190505050610767565b604051808261ffff1661ffff16815260200191505060405180910390f35b61018e610852565b6040518080602001828103825283818151815260200191508051906020019080838360005b838110156101ce5780820151818401526020810190506101b3565b50505050905090810190601f1680156101fb5780820380516001836020036101000a031916815260200191505b509250505060405180910390f35b6102116108f0565b604051808273ffffffffffffffffffffffffffffffffffffffff1673ffffffffffffffffffffffffffffffffffffffff16815260200191505060405180910390f35b6102bf6004803603606081101561026957600080fd5b81019080803573ffffffffffffffffffffffffffffffffffffffff169060200190929190803573ffffffffffffffffffffffffffffffffffffffff16906020019092919080359060200190929190505050610916565b005b61032d600480360360608110156102d757600080fd5b81019080803573ffffffffffffffffffffffffffffffffffffffff169060200190929190803573ffffffffffffffffffffffffffffffffffffffff16906020019092919080359060200190929190505050610991565b005b61035b6004803603602081101561034557600080fd5b8101908080359060200190929190505050610a0c565b604051808273ffffffffffffffffffffffffffffffffffffffff1673ffffffffffffffffffffffffffffffffffffffff16815260200191505060405180910390f35b6103df600480360360208110156103b357600080fd5b81019080803573ffffffffffffffffffffffffffffffffffffffff169060200190929190505050610ac6565b6040518082815260200191505060405180910390f35b6104376004803603602081101561040b57600080fd5b81019080803573ffffffffffffffffffffffffffffffffffffffff169060200190929190505050610ade565b6040518082815260200191505060405180910390f35b610455610b3b565b604051808273ffffffffffffffffffffffffffffffffffffffff1673ffffffffffffffffffffffffffffffffffffffff16815260200191505060405180910390f35b61049f610b61565b6040518080602001828103825283818151815260200191508051906020019080838360005b838110156104df5780820151818401526020810190506104c4565b50505050905090810190601f16801561050c5780820380516001836020036101000a031916815260200191505b509250505060405180910390f35b6105b4600480360360a081101561053057600080fd5b81019080803573ffffffffffffffffffffffffffffffffffffffff169060200190929190803561ffff16906020019092919080359060200190929190803573ffffffffffffffffffffffffffffffffffffffff169060200190929190803573ffffffffffffffffffffffffffffffffffffffff169060200190929190505050610bff565b6040518082815260200191505060405180910390f35b61062e600480360360808110156105e057600080fd5b8101908080359060200190929190803561ffff16906020019092919080359060200190929190803573ffffffffffffffffffffffffffffffffffffffff16906020019092919050505061113b565b005b6106726004803603602081101561064657600080fd5b81019080803573ffffffffffffffffffffffffffffffffffffffff16906020019092919050505061140d565b6040518082815260200191505060405180910390f35b6106ca6004803603602081101561069e57600080fd5b81019080803573ffffffffffffffffffffffffffffffffffffffff1690602001909291905050506114ea565b604051808761ffff1661ffff1681526020018681526020018573ffffffffffffffffffffffffffffffffffffffff1673ffffffffffffffffffffffffffffffffffffffff1681526020018473ffffffffffffffffffffffffffffffffffffffff1673ffffffffffffffffffffffffffffffffffffffff16815260200183815260200182151515158152602001965050505050505060405180910390f35b600080600660008473ffffffffffffffffffffffffffffffffffffffff1673ffffffffffffffffffffffffffffffffffffffff16815260200190815260200160002054905060008114151515610825576040517f08c379a00000000000000000000000000000000000000000000000000000000081526004018080602001828103825260138152602001807f426f72726f77657220686173206e6f204e46540000000000000000000000000081525060200191505060405180910390fd5b6008600082815260200190815260200160002060000160009054906101000a900461ffff16915050919050565b60008054600181600116156101000203166002900480601f0160208091040260200160405190810160405280929190818152602001828054600181600116156101000203166002900480156108e85780601f106108bd576101008083540402835291602001916108e8565b820191906000526020600020905b8154815290600101906020018083116108cb57829003601f168201915b505050505081565b600360009054906101000a900473ffffffffffffffffffffffffffffffffffffffff1681565b6000151561098c576040517f08c379a00000000000000000000000000000000000000000000000000000000081526004018080602001828103825260128152602001807f5472616e73666572732064697361626c6564000000000000000000000000000081525060200191505060405180910390fd5b505050565b60001515610a07576040517f08c379a00000000000000000000000000000000000000000000000000000000081526004018080602001828103825260128152602001807f5472616e73666572732064697361626c6564000000000000000000000000000081525060200191505060405180910390fd5b505050565b6000610a1782611657565b1515610a8b576040517f08c379a00000000000000000000000000000000000000000000000000000000081526004018080602001828103825260148152602001807f546f6b656e20646f6573206e6f7420657869737400000000000000000000000081525060200191505060405180910390fd5b6005600083815260200190815260200160002060009054906101000a900473ffffffffffffffffffffffffffffffffffffffff169050919050565b60066020528060005260406000206000915090505481565b600080600660008473ffffffffffffffffffffffffffffffffffffffff1673ffffffffffffffffffffffffffffffffffffffff168152602001908152602001600020541415610b2e576000610b31565b60015b60ff169050919050565b600260009054906101000a900473ffffffffffffffffffffffffffffffffffffffff1681565b60018054600181600116156101000203166002900480601f016020809104026020016040519081016040528092919081815260200182805460018160011615610100020316600290048015610bf75780601f10610bcc57610100808354040283529160200191610bf7565b820191906000526020600020905b815481529060010190602001808311610bda57829003601f168201915b505050505081565b6000600260009054906101000a900473ffffffffffffffffffffffffffffffffffffffff1673ffffffffffffffffffffffffffffffffffffffff163373ffffffffffffffffffffffffffffffffffffffff161480610caa5750600360009054906101000a900473ffffffffffffffffffffffffffffffffffffffff1673ffffffffffffffffffffffffffffffffffffffff163373ffffffffffffffffffffffffffffffffffffffff16145b1515610d1e576040517f08c379a00000000000000000000000000000000000000000000000000000000081526004018080602001828103825260098152602001807f4e6f74206f776e6572000000000000000000000000000000000000000000000081525060200191505060405180910390fd5b600073ffffffffffffffffffffffffffffffffffffffff168673ffffffffffffffffffffffffffffffffffffffff1614151515610dc3576040517f08c379a00000000000000000000000000000000000000000000000000000000081526004018080602001828103825260108152602001807f496e76616c696420626f72726f7765720000000000000000000000000000000081525060200191505060405180910390fd5b6000600660008873ffffffffffffffffffffffffffffffffffffffff1673ffffffffffffffffffffffffffffffffffffffff16815260200190815260200160002054141515610e7a576040517f08c379a00000000000000000000000000000000000000000000000000000000081526004018080602001828103825260188152602001807f426f72726f77657220616c726561647920686173204e4654000000000000000081525060200191505060405180910390fd5b60006004549050600460008154809291906001019190505550610e9d87826116c3565b60c0604051908101604052808761ffff1681526020018681526020018573ffffffffffffffffffffffffffffffffffffffff1681526020018473ffffffffffffffffffffffffffffffffffffffff168152602001428152602001600115158152506008600083815260200190815260200160002060008201518160000160006101000a81548161ffff021916908361ffff1602179055506020820151816001015560408201518160020160006101000a81548173ffffffffffffffffffffffffffffffffffffffff021916908373ffffffffffffffffffffffffffffffffffffffff16021790555060608201518160030160006101000a81548173ffffffffffffffffffffffffffffffffffffffff021916908373ffffffffffffffffffffffffffffffffffffffff1602179055506080820151816004015560a08201518160050160006101000a81548160ff02191690831515021790555090505080600660008973ffffffffffffffffffffffffffffffffffffffff1673ffffffffffffffffffffffffffffffffffffffff168152602001908152602001600020819055508673ffffffffffffffffffffffffffffffffffffffff16817f30e08c6e78ff4c79b1d299e412cd707628559a09b6017c6f3a79c0b9328c04ab8888600360009054906101000a900473ffffffffffffffffffffffffffffffffffffffff168842604051808661ffff1661ffff1681526020018581526020018473ffffffffffffffffffffffffffffffffffffffff1673ffffffffffffffffffffffffffffffffffffffff1681526020018373ffffffffffffffffffffffffffffffffffffffff1673ffffffffffffffffffffffffffffffffffffffff1681526020018281526020019550505050505060405180910390a38091505095945050505050565b600260009054906101000a900473ffffffffffffffffffffffffffffffffffffffff1673ffffffffffffffffffffffffffffffffffffffff163373ffffffffffffffffffffffffffffffffffffffff1614806111e45750600360009054906101000a900473ffffffffffffffffffffffffffffffffffffffff1673ffffffffffffffffffffffffffffffffffffffff163373ffffffffffffffffffffffffffffffffffffffff16145b1515611258576040517f08c379a00000000000000000000000000000000000000000000000000000000081526004018080602001828103825260098152602001807f4e6f74206f776e6572000000000000000000000000000000000000000000000081525060200191505060405180910390fd5b61126184611657565b15156112d5576040517f08c379a00000000000000000000000000000000000000000000000000000000081526004018080602001828103825260148152602001807f546f6b656e20646f6573206e6f7420657869737400000000000000000000000081525060200191505060405180910390fd5b6000600860008681526020019081526020016000209050838160000160006101000a81548161ffff021916908361ffff160217905550828160010181905550818160020160006101000a81548173ffffffffffffffffffffffffffffffffffffffff021916908373ffffffffffffffffffffffffffffffffffffffff160217905550428160040181905550847f355eec9320bd19d326342bb92b92263d8d41874f5f3be452f681047335731c8b8585600360009054906101000a900473ffffffffffffffffffffffffffffffffffffffff1642604051808561ffff1661ffff1681526020018481526020018373ffffffffffffffffffffffffffffffffffffffff1673ffffffffffffffffffffffffffffffffffffffff16815260200182815260200194505050505060405180910390a25050505050565b600080600660008473ffffffffffffffffffffffffffffffffffffffff1673ffffffffffffffffffffffffffffffffffffffff168152602001908152602001600020549050600081141515156114cb576040517f08c379a00000000000000000000000000000000000000000000000000000000081526004018080602001828103825260138152602001807f426f72726f77657220686173206e6f204e46540000000000000000000000000081525060200191505060405180910390fd5b6008600082815260200190815260200160002060010154915050919050565b6000806000806000806000600660008973ffffffffffffffffffffffffffffffffffffffff1673ffffffffffffffffffffffffffffffffffffffff168152602001908152602001600020549050600081141515156115b0576040517f08c379a00000000000000000000000000000000000000000000000000000000081526004018080602001828103825260138152602001807f426f72726f77657220686173206e6f204e46540000000000000000000000000081525060200191505060405180910390fd5b60006008600083815260200190815260200160002090508060000160009054906101000a900461ffff1681600101548260020160009054906101000a900473ffffffffffffffffffffffffffffffffffffffff168360030160009054906101000a900473ffffffffffffffffffffffffffffffffffffffff1684600401548560050160009054906101000a900460ff16975097509750975097509750505091939550919395565b60008073ffffffffffffffffffffffffffffffffffffffff166005600084815260200190815260200160002060009054906101000a900473ffffffffffffffffffffffffffffffffffffffff1673ffffffffffffffffffffffffffffffffffffffff1614159050919050565b816005600083815260200190815260200160002060006101000a81548173ffffffffffffffffffffffffffffffffffffffff021916908373ffffffffffffffffffffffffffffffffffffffff160217905550808273ffffffffffffffffffffffffffffffffffffffff16600073ffffffffffffffffffffffffffffffffffffffff167fddf252ad1be2c89b69c2b068fc378daa952ba7f163c4a11628f55a4df523b3ef60405160405180910390a4505056fea165627a7a7230582079fe4e537e99fe0c719f37ab2e25ef18a7ef2476a09461d1db57bd0022df6e580029",
  "source": "// SPDX-License-Identifier: MIT\npragma solidity ^0.5.4;\n\n/// @notice Minimal ERC721 implementation with Ownable included\ncontract BorderlessCreditScoreNFT {\n    string public name = \"Borderless Credit Score NFT\";\n    string public symbol = \"BCSNFT\";\n\n    address public owner;\n    address public creditOfficer;\n    uint256 private _nextTokenId = 1;\n\n    mapping(uint256 => address) private _owners;\n    mapping(address => uint256) public borrowerToTokenId;\n    mapping(uint256 => address) private _tokenApprovals;\n\n    struct CreditProfile {\n        uint16 creditScore;\n        uint256 creditLimit;\n        address creditOfficer;\n        address creditManager;\n        uint256 issuedAt;\n        bool active;\n    }\n\n    mapping(uint256 => CreditProfile) private _creditProfiles;\n\n    event Transfer(address indexed from, address indexed to, uint256 indexed tokenId);\n    event CreditNFTIssued(\n        uint256 indexed tokenId,\n        address indexed borrower,\n        uint16 creditScore,\n        uint256 creditLimit,\n        address creditOfficer,\n        address creditManager,\n        uint256 issuedAt\n    );\n\n    event CreditNFTUpdated(\n        uint256 indexed tokenId,\n        uint16 newCreditScore,\n        uint256 newCreditLimit,\n        address creditOfficer,\n        uint256 updatedAt\n    );\n\n    modifier onlyOwner() {\n        require(msg.sender == owner || msg.sender == creditOfficer, \"Not owner\");\n        _;\n    }\n\n    constructor(address _creditOfficer) public {\n        owner = msg.sender;\n        creditOfficer = _creditOfficer;\n    }\n\n    function _exists(uint256 tokenId) internal view returns (bool) {\n        return _owners[tokenId] != address(0);\n    }\n\n    function balanceOf(address user) external view returns (uint256) {\n        return borrowerToTokenId[user] != 0 ? 1 : 0;\n    }\n\n    function ownerOf(uint256 tokenId) external view returns (address) {\n        require(_exists(tokenId), \"Token does not exist\");\n        return _owners[tokenId];\n    }\n\n    function _safeMint(address to, uint256 tokenId) internal {\n        _owners[tokenId] = to;\n        emit Transfer(address(0), to, tokenId);\n    }\n\n    function issueCreditNFT(\n        address borrower,\n        uint16 creditScore,\n        uint256 creditLimit,\n        address _creditOfficer,\n        address creditManager\n    ) external onlyOwner returns (uint256) {\n        require(borrower != address(0), \"Invalid borrower\");\n        require(borrowerToTokenId[borrower] == 0, \"Borrower already has NFT\");\n\n        uint256 tokenId = _nextTokenId;\n        _nextTokenId++;\n\n        _safeMint(borrower, tokenId);\n\n        _creditProfiles[tokenId] = CreditProfile({\n            creditScore: creditScore,\n            creditLimit: creditLimit,\n            creditOfficer: _creditOfficer,\n            creditManager: creditManager,\n            issuedAt: block.timestamp,\n            active: true\n        });\n\n        borrowerToTokenId[borrower] = tokenId;\n\n        emit CreditNFTIssued(tokenId, borrower, creditScore, creditLimit, creditOfficer, creditManager, block.timestamp);\n        return tokenId;\n    }\n\n    function updateCreditNFT(\n        uint256 tokenId,\n        uint16 newCreditScore,\n        uint256 newCreditLimit,\n        address _creditOfficer\n    ) external onlyOwner {\n        require(_exists(tokenId), \"Token does not exist\");\n\n        CreditProfile storage profile = _creditProfiles[tokenId];\n        profile.creditScore = newCreditScore;\n        profile.creditLimit = newCreditLimit;\n        profile.creditOfficer = _creditOfficer;\n        profile.issuedAt = block.timestamp;\n\n        emit CreditNFTUpdated(tokenId, newCreditScore, newCreditLimit, creditOfficer, block.timestamp);\n    }\n\n    function getCreditScoreByBorrower(address borrower) external view returns (uint16) {\n        uint256 tokenId = borrowerToTokenId[borrower];\n        require(tokenId != 0, \"Borrower has no NFT\");\n        return _creditProfiles[tokenId].creditScore;\n    }\n\n    function getCreditLimitByBorrower(address borrower) external view returns (uint256) {\n        uint256 tokenId = borrowerToTokenId[borrower];\n        require(tokenId != 0, \"Borrower has no NFT\");\n        return _creditProfiles[tokenId].creditLimit;\n    }\n\n    function getCreditProfileByBorrower(address borrower)\n        external\n        view\n        returns (\n            uint16 creditScore,\n            uint256 creditLimit,\n            address _creditOfficer,\n            address creditManager,\n            uint256 issuedAt,\n            bool active\n        )\n    {\n        uint256 tokenId = borrowerToTokenId[borrower];\n        require(tokenId != 0, \"Borrower has no NFT\");\n        CreditProfile storage p = _creditProfiles[tokenId];\n        return (p.creditScore, p.creditLimit, p.creditOfficer, p.creditManager, p.issuedAt, p.active);\n    }\n\n    // Restrict transfers\n    function transferFrom(address from, address to, uint256 tokenId) external pure {\n        require(false, \"Transfers disabled\"); // only mint/burn allowed\n    }\n\n    function safeTransferFrom(address from, address to, uint256 tokenId) external pure {\n        require(false, \"Transfers disabled\"); // only mint/burn allowed\n    }\n}\n",
  "sourcePath": "/Users/taiwo/workspace/tronbfpay/contracts/v3/BorderlessCreditScoreNFT.sol",
  "compiler": {
    "name": "solc",
    "version": "0.5.4+commit.d15a3125.mod.Emscripten.clang"
  },
  "schemaVersion": "2.0.1",
  "updatedAt": "2025-09-18T13:57:01.203Z"
}