{
  "contractName": "BPayEscrowVault",
  "abi": [
    {
      "constant": false,
      "inputs": [
        {
          "name": "escrowId",
          "type": "bytes32"
        },
        {
          "name": "payer",
          "type": "address"
        },
        {
          "name": "payee",
          "type": "address"
        },
        {
          "name": "amount",
          "type": "uint256"
        },
        {
          "name": "expiry",
          "type": "uint256"
        },
        {
          "name": "attestRef",
          "type": "bytes32"
        }
      ],
      "name": "fund",
      "outputs": [],
      "payable": false,
      "stateMutability": "nonpayable",
      "type": "function"
    },
    {
      "constant": true,
      "inputs": [
        {
          "name": "",
          "type": "bytes32"
        }
      ],
      "name": "escrows",
      "outputs": [
        {
          "name": "payer",
          "type": "address"
        },
        {
          "name": "payee",
          "type": "address"
        },
        {
          "name": "amount",
          "type": "uint256"
        },
        {
          "name": "released",
          "type": "bool"
        },
        {
          "name": "expiry",
          "type": "uint256"
        },
        {
          "name": "attestRef",
          "type": "bytes32"
        }
      ],
      "payable": false,
      "stateMutability": "view",
      "type": "function"
    },
    {
      "constant": true,
      "inputs": [],
      "name": "usdt",
      "outputs": [
        {
          "name": "",
          "type": "address"
        }
      ],
      "payable": false,
      "stateMutability": "view",
      "type": "function"
    },
    {
      "constant": true,
      "inputs": [],
      "name": "attestations",
      "outputs": [
        {
          "name": "",
          "type": "address"
        }
      ],
      "payable": false,
      "stateMutability": "view",
      "type": "function"
    },
    {
      "constant": false,
      "inputs": [
        {
          "name": "escrowId",
          "type": "bytes32"
        }
      ],
      "name": "release",
      "outputs": [],
      "payable": false,
      "stateMutability": "nonpayable",
      "type": "function"
    },
    {
      "inputs": [
        {
          "name": "_usdt",
          "type": "address"
        },
        {
          "name": "_attestations",
          "type": "address"
        }
      ],
      "payable": false,
      "stateMutability": "nonpayable",
      "type": "constructor"
    }
  ],
  "bytecode": "0x608060405234801561001057600080fd5b50604051604080610ca58339810180604052604081101561003057600080fd5b810190808051906020019092919080519060200190929190505050816000806101000a81548173ffffffffffffffffffffffffffffffffffffffff021916908373ffffffffffffffffffffffffffffffffffffffff16021790555080600160006101000a81548173ffffffffffffffffffffffffffffffffffffffff021916908373ffffffffffffffffffffffffffffffffffffffff1602179055505050610bc8806100dd6000396000f3fe608060405234801561001057600080fd5b5060043610610074576000357c0100000000000000000000000000000000000000000000000000000000900480631d74e01e146100795780632d83549c146101055780632f48ab7d146101c65780633d47bf0d1461021057806367d42a8b1461025a575b600080fd5b610103600480360360c081101561008f57600080fd5b8101908080359060200190929190803573ffffffffffffffffffffffffffffffffffffffff169060200190929190803573ffffffffffffffffffffffffffffffffffffffff169060200190929190803590602001909291908035906020019092919080359060200190929190505050610288565b005b6101316004803603602081101561011b57600080fd5b81019080803590602001909291905050506106e0565b604051808773ffffffffffffffffffffffffffffffffffffffff1673ffffffffffffffffffffffffffffffffffffffff1681526020018673ffffffffffffffffffffffffffffffffffffffff1673ffffffffffffffffffffffffffffffffffffffff16815260200185815260200184151515158152602001838152602001828152602001965050505050505060405180910390f35b6101ce610769565b604051808273ffffffffffffffffffffffffffffffffffffffff1673ffffffffffffffffffffffffffffffffffffffff16815260200191505060405180910390f35b61021861078e565b604051808273ffffffffffffffffffffffffffffffffffffffff1673ffffffffffffffffffffffffffffffffffffffff16815260200191505060405180910390f35b6102866004803603602081101561027057600080fd5b81019080803590602001909291905050506107b4565b005b600160009054906101000a900473ffffffffffffffffffffffffffffffffffffffff1673ffffffffffffffffffffffffffffffffffffffff1663b9209e33866040518263ffffffff167c0100000000000000000000000000000000000000000000000000000000028152600401808273ffffffffffffffffffffffffffffffffffffffff1673ffffffffffffffffffffffffffffffffffffffff16815260200191505060206040518083038186803b15801561034357600080fd5b505afa158015610357573d6000803e3d6000fd5b505050506040513d602081101561036d57600080fd5b810190808051906020019092919050505015156103f2576040517f08c379a00000000000000000000000000000000000000000000000000000000081526004018080602001828103825260128152602001807f5061796572206e6f74207665726966696564000000000000000000000000000081525060200191505060405180910390fd5b6000809054906101000a900473ffffffffffffffffffffffffffffffffffffffff1673ffffffffffffffffffffffffffffffffffffffff166323b872dd8630866040518463ffffffff167c0100000000000000000000000000000000000000000000000000000000028152600401808473ffffffffffffffffffffffffffffffffffffffff1673ffffffffffffffffffffffffffffffffffffffff1681526020018373ffffffffffffffffffffffffffffffffffffffff1673ffffffffffffffffffffffffffffffffffffffff1681526020018281526020019350505050602060405180830381600087803b1580156104ea57600080fd5b505af11580156104fe573d6000803e3d6000fd5b505050506040513d602081101561051457600080fd5b81019080805190602001909291905050501515610599576040517f08c379a000000000000000000000000000000000000000000000000000000000815260040180806020018281038252600f8152602001807f5472616e73666572206661696c6564000000000000000000000000000000000081525060200191505060405180910390fd5b60c0604051908101604052808673ffffffffffffffffffffffffffffffffffffffff1681526020018573ffffffffffffffffffffffffffffffffffffffff168152602001848152602001600015158152602001838152602001828152506002600088815260200190815260200160002060008201518160000160006101000a81548173ffffffffffffffffffffffffffffffffffffffff021916908373ffffffffffffffffffffffffffffffffffffffff16021790555060208201518160010160006101000a81548173ffffffffffffffffffffffffffffffffffffffff021916908373ffffffffffffffffffffffffffffffffffffffff1602179055506040820151816002015560608201518160030160006101000a81548160ff0219169083151502179055506080820151816004015560a08201518160050155905050505050505050565b60026020528060005260406000206000915090508060000160009054906101000a900473ffffffffffffffffffffffffffffffffffffffff16908060010160009054906101000a900473ffffffffffffffffffffffffffffffffffffffff16908060020154908060030160009054906101000a900460ff16908060040154908060050154905086565b6000809054906101000a900473ffffffffffffffffffffffffffffffffffffffff1681565b600160009054906101000a900473ffffffffffffffffffffffffffffffffffffffff1681565b60006002600083815260200190815260200160002090508060030160009054906101000a900460ff16151515610852576040517f08c379a00000000000000000000000000000000000000000000000000000000081526004018080602001828103825260108152602001807f416c72656164792072656c65617365640000000000000000000000000000000081525060200191505060405180910390fd5b600160009054906101000a900473ffffffffffffffffffffffffffffffffffffffff1673ffffffffffffffffffffffffffffffffffffffff1663b9209e338260010160009054906101000a900473ffffffffffffffffffffffffffffffffffffffff166040518263ffffffff167c0100000000000000000000000000000000000000000000000000000000028152600401808273ffffffffffffffffffffffffffffffffffffffff1673ffffffffffffffffffffffffffffffffffffffff16815260200191505060206040518083038186803b15801561093157600080fd5b505afa158015610945573d6000803e3d6000fd5b505050506040513d602081101561095b57600080fd5b810190808051906020019092919050505015156109e0576040517f08c379a00000000000000000000000000000000000000000000000000000000081526004018080602001828103825260128152602001807f5061796565206e6f74207665726966696564000000000000000000000000000081525060200191505060405180910390fd5b60018160030160006101000a81548160ff0219169083151502179055506000809054906101000a900473ffffffffffffffffffffffffffffffffffffffff1673ffffffffffffffffffffffffffffffffffffffff1663a9059cbb8260010160009054906101000a900473ffffffffffffffffffffffffffffffffffffffff1683600201546040518363ffffffff167c0100000000000000000000000000000000000000000000000000000000028152600401808373ffffffffffffffffffffffffffffffffffffffff1673ffffffffffffffffffffffffffffffffffffffff16815260200182815260200192505050602060405180830381600087803b158015610ae957600080fd5b505af1158015610afd573d6000803e3d6000fd5b505050506040513d6020811015610b1357600080fd5b81019080805190602001909291905050501515610b98576040517f08c379a00000000000000000000000000000000000000000000000000000000081526004018080602001828103825260148152602001807f55534454207472616e73666572206661696c656400000000000000000000000081525060200191505060405180910390fd5b505056fea165627a7a7230582071a9de1717de974cb177aee9ef60315d5391da7e0395afc5043ac3173f7517730029",
  "source": "pragma solidity ^0.5.4;\r\n\r\nimport \"./TRC20.sol\";\r\n\r\ninterface IAttestationRegistry {\r\n    function isVerified(address user) external view returns (bool);\r\n}\r\n\r\ncontract BPayEscrowVault {\r\n    TRC20 public usdt;\r\n    IAttestationRegistry public attestations;\r\n\r\n    struct Escrow {\r\n        address payer;\r\n        address payee;\r\n        uint256 amount;\r\n        bool released;\r\n        uint256 expiry;\r\n        bytes32 attestRef;\r\n    }\r\n\r\n    mapping(bytes32 => Escrow) public escrows;\r\n\r\n    constructor(address _usdt, address _attestations) public {\r\n        usdt = TRC20(_usdt);\r\n        attestations = IAttestationRegistry(_attestations);\r\n    }\r\n\r\n    function fund(\r\n        bytes32 escrowId,\r\n        address payer,\r\n        address payee,\r\n        uint256 amount,\r\n        uint256 expiry,\r\n        bytes32 attestRef\r\n    )\r\n        public\r\n    {\r\n        require(attestations.isVerified(payer), \"Payer not verified\");\r\n        require(usdt.transferFrom(payer, address(this), amount), \"Transfer failed\");\r\n\r\n        escrows[escrowId] = Escrow({\r\n            payer: payer,\r\n            payee: payee,\r\n            amount: amount,\r\n            released: false,\r\n            expiry: expiry,\r\n            attestRef: attestRef\r\n        });\r\n    }\r\n\r\n    function release(bytes32 escrowId) public {\r\n        Escrow storage e = escrows[escrowId];\r\n        require(!e.released, \"Already released\");\r\n        require(attestations.isVerified(e.payee), \"Payee not verified\");\r\n        e.released = true;\r\n        require(usdt.transfer(e.payee, e.amount), \"USDT transfer failed\");\r\n    }\r\n}\r\n",
  "sourcePath": "C:/workspace/tronbfpay/contracts/BPayEscrowVault.sol",
  "compiler": {
    "name": "solc",
    "version": "0.5.4+commit.9549d8ff.Emscripten.clang"
  },
  "schemaVersion": "2.0.1",
  "updatedAt": "2025-10-07T17:16:21.890Z"
}