{
  "contractName": "BPayEscrowVaultV3",
  "abi": [
    {
      "inputs": [
        {
          "internalType": "address",
          "name": "_usdt",
          "type": "address"
        },
        {
          "internalType": "address",
          "name": "_attestations",
          "type": "address"
        }
      ],
      "stateMutability": "nonpayable",
      "type": "constructor"
    },
    {
      "anonymous": false,
      "inputs": [
        {
          "indexed": true,
          "internalType": "bytes32",
          "name": "escrowId",
          "type": "bytes32"
        },
        {
          "indexed": true,
          "internalType": "address",
          "name": "payer",
          "type": "address"
        },
        {
          "indexed": true,
          "internalType": "address",
          "name": "payee",
          "type": "address"
        },
        {
          "indexed": false,
          "internalType": "uint128",
          "name": "amount",
          "type": "uint128"
        },
        {
          "indexed": false,
          "internalType": "uint64",
          "name": "expiry",
          "type": "uint64"
        },
        {
          "indexed": false,
          "internalType": "bytes32",
          "name": "offchainRef",
          "type": "bytes32"
        }
      ],
      "name": "EscrowFunded",
      "type": "event"
    },
    {
      "anonymous": false,
      "inputs": [
        {
          "indexed": true,
          "internalType": "bytes32",
          "name": "escrowId",
          "type": "bytes32"
        },
        {
          "indexed": true,
          "internalType": "address",
          "name": "payer",
          "type": "address"
        },
        {
          "indexed": false,
          "internalType": "uint128",
          "name": "amount",
          "type": "uint128"
        }
      ],
      "name": "EscrowRefunded",
      "type": "event"
    },
    {
      "anonymous": false,
      "inputs": [
        {
          "indexed": true,
          "internalType": "bytes32",
          "name": "escrowId",
          "type": "bytes32"
        },
        {
          "indexed": true,
          "internalType": "address",
          "name": "payee",
          "type": "address"
        },
        {
          "indexed": false,
          "internalType": "uint128",
          "name": "amount",
          "type": "uint128"
        }
      ],
      "name": "EscrowReleased",
      "type": "event"
    },
    {
      "inputs": [],
      "name": "attestations",
      "outputs": [
        {
          "internalType": "contract IAttestationRegistry",
          "name": "",
          "type": "address"
        }
      ],
      "stateMutability": "view",
      "type": "function"
    },
    {
      "inputs": [
        {
          "internalType": "bytes32",
          "name": "escrowId",
          "type": "bytes32"
        },
        {
          "internalType": "address",
          "name": "payer",
          "type": "address"
        },
        {
          "internalType": "address",
          "name": "payee",
          "type": "address"
        },
        {
          "internalType": "uint128",
          "name": "amount",
          "type": "uint128"
        },
        {
          "internalType": "uint64",
          "name": "expiry",
          "type": "uint64"
        },
        {
          "internalType": "bytes32",
          "name": "offchainRef",
          "type": "bytes32"
        }
      ],
      "name": "fund",
      "outputs": [],
      "stateMutability": "nonpayable",
      "type": "function"
    },
    {
      "inputs": [
        {
          "internalType": "bytes32",
          "name": "escrowId",
          "type": "bytes32"
        }
      ],
      "name": "getEscrow",
      "outputs": [
        {
          "components": [
            {
              "internalType": "address",
              "name": "payer",
              "type": "address"
            },
            {
              "internalType": "address",
              "name": "payee",
              "type": "address"
            },
            {
              "internalType": "uint128",
              "name": "amount",
              "type": "uint128"
            },
            {
              "internalType": "uint64",
              "name": "expiry",
              "type": "uint64"
            },
            {
              "internalType": "bool",
              "name": "released",
              "type": "bool"
            },
            {
              "internalType": "bytes32",
              "name": "offchainRef",
              "type": "bytes32"
            }
          ],
          "internalType": "struct BPayEscrowVaultV3.Escrow",
          "name": "",
          "type": "tuple"
        }
      ],
      "stateMutability": "view",
      "type": "function"
    },
    {
      "inputs": [
        {
          "internalType": "bytes32",
          "name": "offchainRef",
          "type": "bytes32"
        }
      ],
      "name": "getEscrowByRef",
      "outputs": [
        {
          "components": [
            {
              "internalType": "address",
              "name": "payer",
              "type": "address"
            },
            {
              "internalType": "address",
              "name": "payee",
              "type": "address"
            },
            {
              "internalType": "uint128",
              "name": "amount",
              "type": "uint128"
            },
            {
              "internalType": "uint64",
              "name": "expiry",
              "type": "uint64"
            },
            {
              "internalType": "bool",
              "name": "released",
              "type": "bool"
            },
            {
              "internalType": "bytes32",
              "name": "offchainRef",
              "type": "bytes32"
            }
          ],
          "internalType": "struct BPayEscrowVaultV3.Escrow",
          "name": "",
          "type": "tuple"
        }
      ],
      "stateMutability": "view",
      "type": "function"
    },
    {
      "inputs": [
        {
          "internalType": "enum BPayEscrowVaultV3.EscrowStatus",
          "name": "status",
          "type": "uint8"
        },
        {
          "internalType": "uint256",
          "name": "offset",
          "type": "uint256"
        },
        {
          "internalType": "uint256",
          "name": "limit",
          "type": "uint256"
        }
      ],
      "name": "getEscrowsByStatus",
      "outputs": [
        {
          "internalType": "bytes32[]",
          "name": "result",
          "type": "bytes32[]"
        },
        {
          "internalType": "uint256",
          "name": "count",
          "type": "uint256"
        }
      ],
      "stateMutability": "view",
      "type": "function"
    },
    {
      "inputs": [
        {
          "internalType": "bytes32",
          "name": "escrowId",
          "type": "bytes32"
        }
      ],
      "name": "refund",
      "outputs": [],
      "stateMutability": "nonpayable",
      "type": "function"
    },
    {
      "inputs": [
        {
          "internalType": "bytes32",
          "name": "escrowId",
          "type": "bytes32"
        }
      ],
      "name": "release",
      "outputs": [],
      "stateMutability": "nonpayable",
      "type": "function"
    },
    {
      "inputs": [],
      "name": "usdt",
      "outputs": [
        {
          "internalType": "contract TRC20",
          "name": "",
          "type": "address"
        }
      ],
      "stateMutability": "view",
      "type": "function"
    }
  ],
  "bytecode": "0x60c03461010157601f61129a38819003918201601f19168301916001600160401b0383118484101761010557808492604094855283398101031261010157610052602061004b83610119565b9201610119565b906001600160a01b0316801515806100ef575b156100bb576080526001600160a01b031660a05260405161116c908161012e823960805181818160a60152818161024a015281816104270152610fa9015260a05181818160f1015281816101af0152610de70152f35b60405162461bcd60e51b815260206004820152600c60248201526b24b73b30b634b21030b2323960a11b6044820152606490fd5b506001600160a01b0382161515610065565b5f80fd5b634e487b7160e01b5f52604160045260245ffd5b51906001600160a01b03821682036101015756fe60806040526004361015610011575f80fd5b5f3560e01c80632f48ab7d146100945780633d47bf0d1461008f57806367d42a8b1461008a5780637249fbb6146100855780637a36e5e3146100805780639a34b6dc1461007b578063e7f460d0146100765763f023b81114610071575f80fd5b6108f2565b610663565b6105af565b6104f4565b61037f565b610120565b6100dc565b346100d8575f3660031901126100d8577f00000000000000000000000000000000000000000000000000000000000000006001600160a01b03166080908152602090f35b5f80fd5b346100d8575f3660031901126100d8576040517f00000000000000000000000000000000000000000000000000000000000000006001600160a01b03168152602090f35b346100d85760203660031901126100d8576004355f81815260208190526040902054610156906001600160a01b03161515610999565b610167815f525f60205260405f2090565b90600282019161017c835460ff9060c01c1690565b61035157600101805460405163b9209e3360e01b81526001600160a01b03909116600482015290602082806024810103817f00000000000000000000000000000000000000000000000000000000000000006001600160a01b03165afa91821561032d57610245926101f5915f91610332575b50610a49565b8354600160c01b60ff60c01b198216178555815460405163a9059cbb60e01b81526001600160a01b0390911660048201526001600160801b03909116602482015291602090839081906044820190565b03815f7f00000000000000000000000000000000000000000000000000000000000000006001600160a01b03165af191821561032d576102c56102f9926102b87f528754f756ea57ed6bcba7307673e16ffb520367fe8cfe1b546ebd65ad8bcf72956102d3945f916102fe575b50610a82565b546001600160a01b031690565b94546001600160801b031690565b6040516001600160801b0390911681526001600160a01b03909416939081906020820190565b0390a3005b610320915060203d602011610326575b6103188183610a05565b810190610a26565b5f6102b2565b503d61030e565b610a3e565b61034b915060203d602011610326576103188183610a05565b5f6101ef565b60405162461bcd60e51b81526020600480830191909152602482015263446f6e6560e01b6044820152606490fd5b346100d85760203660031901126100d8576004355f818152602081905260409020546103b5906001600160a01b03161515610999565b6103c6815f525f60205260405f2090565b60028101805490929160c082901c60ff166103515761040c6104046103f8610422946001600160401b039060801c1690565b6001600160401b031690565b421015610aba565b80546101f5906001600160a01b03163314610aef565b03815f7f00000000000000000000000000000000000000000000000000000000000000006001600160a01b03165af191821561032d576102c56102f9926102b87fc17ebae6d71323d0f2bbb00e87a9847efe200ce78341af9c56b83459a7c28fd8956102d3945f916102fe5750610a82565b91909160a08060c0830194600180831b038151168452600180831b0360208201511660208501526001600160801b0360408201511660408501526001600160401b0360608201511660608501526080810151151560808501520151910152565b346100d85760203660031901126100d857600435610510610b38565b505f52600160205260405f205480151580610590575b1561055757610547610542610553925f525f60205260405f2090565b610b68565b60405191829182610494565b0390f35b60405162461bcd60e51b815260206004820152601160248201527027379032b9b1b937bb903337b9103932b360791b6044820152606490fd5b505f818152602081905260409020546001600160a01b03161515610526565b346100d85760c03660031901126100d8576024356004356001600160a01b03821682036100d8576044356001600160a01b03811681036100d8576064356001600160801b03811681036100d857608435916001600160401b03831683036100d85761061d9460a43594610d32565b005b92919060408401906040855280518092526020606086019101915f5b81811061064d57505060209150930152565b835183526020938401939092019160010161063b565b346100d85760603660031901126100d85760043560058110156100d857600354602435916044356106938161109e565b905f94908315915b858110806108e9575b156108d757806106c36106b961070b93610cc7565b90549060031b1c90565b60026106d6825f525f60205260405f2090565b015460c081901c60ff166108d0575f906106ef896110f7565b86806108ac575b1561072a57505060015b610710575b506110e4565b61069b565b61072361071c8a6110e4565b9987611122565b525f610705565b610733896110f7565b6004891480610887575b80610863575b1561075257505060015b610700565b61075b896110f7565b600389148061083e575b8061081b575b156107795750506001610700565b610782896110f7565b60028914806107f2575b806107dc575b156107a05750506001610700565b6107a9896110f7565b6001891490816107c2575b501561074d57506001610700565b4291506001600160401b039060801c81161611155f6107b4565b5042608082901c6001600160401b031611610792565b50603c6108144261080f608085901c6001600160401b03166103f8565b611115565b111561078c565b50603c6108384261080f608085901c6001600160401b03166103f8565b1161076b565b5061012c61085c4261080f608085901c6001600160401b03166103f8565b1115610765565b5061012c6108814261080f608085901c6001600160401b03166103f8565b11610743565b506102586108a54261080f608085901c6001600160401b03166103f8565b111561073d565b506102586108ca4261080f608085901c6001600160401b03166103f8565b116106f6565b50506110e4565b8684526040518061055389878361061f565b508187106106a4565b346100d85760203660031901126100d85760043561090e610b38565b505f525f60205261055360405f2060036040519161092b836109e5565b80546001600160a01b039081168452600182015416602084015260028101546001600160801b03811660408501526109869061097d906001600160401b03608082901c16606087015260c01c60ff1690565b15156080850152565b015460a082015260405191829182610494565b156109a057565b60405162461bcd60e51b81526020600482015260096024820152684e6f20657363726f7760b81b6044820152606490fd5b634e487b7160e01b5f52604160045260245ffd5b60c081019081106001600160401b03821117610a0057604052565b6109d1565b90601f801991011681019081106001600160401b03821117610a0057604052565b908160209103126100d8575180151581036100d85790565b6040513d5f823e3d90fd5b15610a5057565b60405162461bcd60e51b815260206004820152600a602482015269155b9d995c9a599a595960b21b6044820152606490fd5b15610a8957565b60405162461bcd60e51b81526020600482015260096024820152681e19995c8819985a5b60ba1b6044820152606490fd5b15610ac157565b60405162461bcd60e51b815260206004820152600660248201526541637469766560d01b6044820152606490fd5b15610af657565b60405162461bcd60e51b81526020600482015260096024820152682737ba103830bcb2b960b91b6044820152606490fd5b60405190610b3660c083610a05565b565b60405190610b45826109e5565b5f60a0838281528260208201528260408201528260608201528260808201520152565b90604051610b75816109e5565b82546001600160a01b039081168252600184015416602082015260028301546001600160801b0381166040830152608081901c6001600160401b031660608301529092839160a091600391610bd39060c01c60ff1615156080860152565b0154910152565b15610be157565b60405162461bcd60e51b815260206004820152600660248201526545786973747360d01b6044820152606490fd5b15610c1657565b60405162461bcd60e51b8152602060048201526008602482015267149959881d5cd95960c21b6044820152606490fd5b15610c4d57565b60405162461bcd60e51b81526020600482015260086024820152672130b21030b2323960c11b6044820152606490fd5b15610c8457565b60405162461bcd60e51b8152602060048201526007602482015266125b9d985b1a5960ca1b6044820152606490fd5b634e487b7160e01b5f52603260045260245ffd5b600354811015610cdf5760035f5260205f2001905f90565b610cb3565b60035468010000000000000000811015610a005760018101600355600354811015610cdf5760035f527fc2575a0e9e593c00f959f8c92f12db2869c3395a3b0502d05e2516446f71f85b0155565b9294939091610d5c60018060a01b03610d556102b8875f525f60205260405f2090565b1615610bda565b610d87610d82610d7e610d77885f52600260205260405f2090565b5460ff1690565b1590565b610c0f565b6001600160a01b0383169485151580611075575b610da490610c46565b6001600160801b038716151580611063575b610dbf90610c7d565b60405163b9209e3360e01b81526001600160a01b0385166004820152602081806024810103817f00000000000000000000000000000000000000000000000000000000000000006001600160a01b03165afa801561032d57610fa495610e2f8a926020945f9161104c5750610a49565b610f26610e3a610b27565b6001600160a01b03831681526001600160a01b038716818601526001600160801b03841660408201526001600160401b03881660608201525f60808201528560a0820152610e8f8a5f525f60205260405f2090565b815181546001600160a01b03199081166001600160a01b0392831617835560208401516001840180549190931691161790559060039060a0906040810151600285018054606084015160808086015191901b67ffffffffffffffff60801b166001600160801b039094166001600160c81b0319909216919091179290921791151560c01b60ff60c01b169190911790550151910155565b610f48610f3b855f52600260205260405f2090565b805460ff19166001179055565b87610f5b855f52600160205260405f2090565b55610f6588610ce4565b6040516323b872dd60e01b81526001600160a01b0390911660048201523060248201526001600160801b03909116604482015294859081906064820190565b03815f7f00000000000000000000000000000000000000000000000000000000000000006001600160a01b03165af190811561032d5761100f611047927fc2a69bf8a3b88553764be77d9ddc6060d1dc0fbdbd51bda7667e9af166443bf8965f916102fe5750610a82565b60405193849360018060a01b031698846001600160401b036040929594936001600160801b0360608401971683521660208201520152565b0390a4565b61034b9150853d8711610326576103188183610a05565b50426001600160401b03841611610db6565b506001600160a01b0382161515610d9b565b6001600160401b038111610a005760051b60200190565b906110a882611087565b6110b56040519182610a05565b82815280926110c6601f1991611087565b0190602036910137565b634e487b7160e01b5f52601160045260245ffd5b5f1981146110f25760010190565b6110d0565b6005111561110157565b634e487b7160e01b5f52602160045260245ffd5b919082039182116110f257565b8051821015610cdf5760209160051b01019056fea26469706673582212202930823f1442dd77be2d42907d2ef324da3985f8b3727ae650cd286ed1f43c3164736f6c634300081e0033",
  "source": "// SPDX-License-Identifier: MIT\r\npragma solidity >=0.4.22 <0.9.0;\r\n\r\nimport \"../TRC20.sol\";\r\n\r\ninterface IAttestationRegistry {\r\n    function isVerified(address user) external view returns (bool);\r\n}\r\n\r\n/**\r\n * @title BPayEscrowVault\r\n * @notice Gas-optimized escrow vault for TRON USDT transfers with a single off-chain reference validation.\r\n */\r\ncontract BPayEscrowVaultV3 {\r\n    TRC20 public immutable usdt;\r\n    IAttestationRegistry public immutable attestations;\r\n\r\n    struct Escrow {\r\n        address payer;\r\n        address payee;\r\n        uint128 amount;\r\n        uint64 expiry;\r\n        bool released;\r\n        bytes32 offchainRef;\r\n    }\r\n\r\n    mapping(bytes32 => Escrow) private _escrows;\r\n    mapping(bytes32 => bytes32) private _refToEscrowId;\r\n    mapping(bytes32 => bool) private _usedRefs;\r\n    bytes32[] private _escrowIds;\r\n\r\n    event EscrowFunded(\r\n        bytes32 indexed escrowId,\r\n        address indexed payer,\r\n        address indexed payee,\r\n        uint128 amount,\r\n        uint64 expiry,\r\n        bytes32 offchainRef\r\n    );\r\n    event EscrowReleased(bytes32 indexed escrowId, address indexed payee, uint128 amount);\r\n    event EscrowRefunded(bytes32 indexed escrowId, address indexed payer, uint128 amount);\r\n\r\n    constructor(address _usdt, address _attestations) {\r\n        require(_usdt != address(0) && _attestations != address(0), \"Invalid addr\");\r\n        usdt = TRC20(_usdt);\r\n        attestations = IAttestationRegistry(_attestations);\r\n    }\r\n\r\n    modifier onlyExisting(bytes32 escrowId) {\r\n        require(_escrows[escrowId].payer != address(0), \"No escrow\");\r\n        _;\r\n    }\r\n\r\n    function fund(\r\n        bytes32 escrowId,\r\n        address payer,\r\n        address payee,\r\n        uint128 amount,\r\n        uint64 expiry,\r\n        bytes32 offchainRef\r\n    ) external {\r\n        require(_escrows[escrowId].payer == address(0), \"Exists\");\r\n        require(!_usedRefs[offchainRef], \"Ref used\");\r\n        require(payer != address(0) && payee != address(0), \"Bad addr\");\r\n        require(amount > 0 && expiry > block.timestamp, \"Invalid\");\r\n        require(attestations.isVerified(payer), \"Unverified\");\r\n\r\n        _escrows[escrowId] = Escrow({\r\n            payer: payer,\r\n            payee: payee,\r\n            amount: amount,\r\n            expiry: expiry,\r\n            released: false,\r\n            offchainRef: offchainRef\r\n        });\r\n        _usedRefs[offchainRef] = true;\r\n        _refToEscrowId[offchainRef] = escrowId;\r\n        _escrowIds.push(escrowId);\r\n\r\n        require(usdt.transferFrom(payer, address(this), amount), \"xfer fail\");\r\n\r\n        emit EscrowFunded(escrowId, payer, payee, amount, expiry, offchainRef);\r\n    }\r\n\r\n    function release(bytes32 escrowId) external onlyExisting(escrowId) {\r\n        Escrow storage e = _escrows[escrowId];\r\n        if (e.released) revert(\"Done\");\r\n        require(attestations.isVerified(e.payee), \"Unverified\");\r\n\r\n        e.released = true;\r\n        require(usdt.transfer(e.payee, e.amount), \"xfer fail\");\r\n\r\n        emit EscrowReleased(escrowId, e.payee, e.amount);\r\n    }\r\n\r\n    function refund(bytes32 escrowId) external onlyExisting(escrowId) {\r\n        Escrow storage e = _escrows[escrowId];\r\n        if (e.released) revert(\"Done\");\r\n        require(block.timestamp >= e.expiry, \"Active\");\r\n        require(msg.sender == e.payer, \"Not payer\");\r\n\r\n        e.released = true;\r\n        require(usdt.transfer(e.payer, e.amount), \"xfer fail\");\r\n\r\n        emit EscrowRefunded(escrowId, e.payer, e.amount);\r\n    }\r\n\r\n    function getEscrow(bytes32 escrowId) external view returns (Escrow memory) {\r\n        return _escrows[escrowId];\r\n    }\r\n\r\n    function getEscrowByRef(bytes32 offchainRef) external view returns (Escrow memory) {\r\n        bytes32 escrowId = _refToEscrowId[offchainRef];\r\n        require(escrowId != 0 && _escrows[escrowId].payer != address(0), \"No escrow for ref\");\r\n        return _escrows[escrowId];\r\n    }\r\n\r\n        // Status enum for clarity\r\n    enum EscrowStatus { Active, Expired, Expiring1m, Expiring5m, Expiring10m }\r\n\r\n    function getEscrowsByStatus(EscrowStatus status, uint offset, uint limit) \r\n        external view returns (bytes32[] memory result, uint count) \r\n    {\r\n        uint len = _escrowIds.length;\r\n        uint maxSize = limit;\r\n        result = new bytes32[](maxSize);\r\n        count = 0;\r\n        uint nowTs = block.timestamp;\r\n\r\n        for (uint i = offset; i < len && count < maxSize; i++) {\r\n            bytes32 id = _escrowIds[i];\r\n            Escrow storage e = _escrows[id];\r\n            if (e.released) continue;\r\n\r\n            bool matches = false;\r\n            if (status == EscrowStatus.Active && e.expiry - nowTs > 600) matches = true;\r\n            else if (status == EscrowStatus.Expiring10m && e.expiry - nowTs <= 600 && e.expiry - nowTs > 300) matches = true;\r\n            else if (status == EscrowStatus.Expiring5m && e.expiry - nowTs <= 300 && e.expiry - nowTs > 60) matches = true;\r\n            else if (status == EscrowStatus.Expiring1m && e.expiry - nowTs <= 60 && e.expiry > nowTs) matches = true;\r\n            else if (status == EscrowStatus.Expired && e.expiry <= nowTs) matches = true;\r\n\r\n            if (matches) {\r\n                result[count++] = id;\r\n            }\r\n        }\r\n\r\n        // Resize array to actual count\r\n        assembly { mstore(result, count) }\r\n    }\r\n\r\n}\r\n\r\n",
  "sourcePath": "C:/workspace/tronbfpay/contracts/v2/BPayEscrowVaultV3.sol",
  "compiler": {
    "name": "solc",
    "version": "0.8.30+commit.73712a01.Emscripten.clang"
  },
  "schemaVersion": "2.0.1",
  "updatedAt": "2025-10-09T13:04:12.861Z"
}