{
  "contractName": "BPayEscrowVaultV2",
  "abi": [
    {
      "constant": false,
      "inputs": [
        {
          "name": "escrowId",
          "type": "bytes32"
        },
        {
          "name": "payer",
          "type": "address"
        },
        {
          "name": "payee",
          "type": "address"
        },
        {
          "name": "amount",
          "type": "uint256"
        },
        {
          "name": "expiry",
          "type": "uint256"
        },
        {
          "name": "attestRef",
          "type": "bytes32"
        }
      ],
      "name": "fund",
      "outputs": [],
      "payable": false,
      "stateMutability": "nonpayable",
      "type": "function"
    },
    {
      "constant": true,
      "inputs": [
        {
          "name": "",
          "type": "bytes32"
        }
      ],
      "name": "escrows",
      "outputs": [
        {
          "name": "payer",
          "type": "address"
        },
        {
          "name": "payee",
          "type": "address"
        },
        {
          "name": "amount",
          "type": "uint256"
        },
        {
          "name": "released",
          "type": "bool"
        },
        {
          "name": "expiry",
          "type": "uint256"
        },
        {
          "name": "attestRef",
          "type": "bytes32"
        }
      ],
      "payable": false,
      "stateMutability": "view",
      "type": "function"
    },
    {
      "constant": true,
      "inputs": [],
      "name": "usdt",
      "outputs": [
        {
          "name": "",
          "type": "address"
        }
      ],
      "payable": false,
      "stateMutability": "view",
      "type": "function"
    },
    {
      "constant": true,
      "inputs": [],
      "name": "attestations",
      "outputs": [
        {
          "name": "",
          "type": "address"
        }
      ],
      "payable": false,
      "stateMutability": "view",
      "type": "function"
    },
    {
      "constant": false,
      "inputs": [
        {
          "name": "escrowId",
          "type": "bytes32"
        }
      ],
      "name": "release",
      "outputs": [],
      "payable": false,
      "stateMutability": "nonpayable",
      "type": "function"
    },
    {
      "inputs": [
        {
          "name": "_usdt",
          "type": "address"
        },
        {
          "name": "_attestations",
          "type": "address"
        }
      ],
      "payable": false,
      "stateMutability": "nonpayable",
      "type": "constructor"
    }
  ],
  "bytecode": "0x608060405234801561001057600080fd5b50d3801561001d57600080fd5b50d2801561002a57600080fd5b50604051604080610cd98339810180604052604081101561004a57600080fd5b810190808051906020019092919080519060200190929190505050816000806101000a81548173ffffffffffffffffffffffffffffffffffffffff021916908373ffffffffffffffffffffffffffffffffffffffff16021790555080600160006101000a81548173ffffffffffffffffffffffffffffffffffffffff021916908373ffffffffffffffffffffffffffffffffffffffff1602179055505050610be2806100f76000396000f3fe608060405234801561001057600080fd5b50d3801561001d57600080fd5b50d2801561002a57600080fd5b506004361061008e576000357c0100000000000000000000000000000000000000000000000000000000900480631d74e01e146100935780632d83549c1461011f5780632f48ab7d146101e05780633d47bf0d1461022a57806367d42a8b14610274575b600080fd5b61011d600480360360c08110156100a957600080fd5b8101908080359060200190929190803573ffffffffffffffffffffffffffffffffffffffff169060200190929190803573ffffffffffffffffffffffffffffffffffffffff1690602001909291908035906020019092919080359060200190929190803590602001909291905050506102a2565b005b61014b6004803603602081101561013557600080fd5b81019080803590602001909291905050506106fa565b604051808773ffffffffffffffffffffffffffffffffffffffff1673ffffffffffffffffffffffffffffffffffffffff1681526020018673ffffffffffffffffffffffffffffffffffffffff1673ffffffffffffffffffffffffffffffffffffffff16815260200185815260200184151515158152602001838152602001828152602001965050505050505060405180910390f35b6101e8610783565b604051808273ffffffffffffffffffffffffffffffffffffffff1673ffffffffffffffffffffffffffffffffffffffff16815260200191505060405180910390f35b6102326107a8565b604051808273ffffffffffffffffffffffffffffffffffffffff1673ffffffffffffffffffffffffffffffffffffffff16815260200191505060405180910390f35b6102a06004803603602081101561028a57600080fd5b81019080803590602001909291905050506107ce565b005b600160009054906101000a900473ffffffffffffffffffffffffffffffffffffffff1673ffffffffffffffffffffffffffffffffffffffff1663b9209e33866040518263ffffffff167c0100000000000000000000000000000000000000000000000000000000028152600401808273ffffffffffffffffffffffffffffffffffffffff1673ffffffffffffffffffffffffffffffffffffffff16815260200191505060206040518083038186803b15801561035d57600080fd5b505afa158015610371573d6000803e3d6000fd5b505050506040513d602081101561038757600080fd5b8101908080519060200190929190505050151561040c576040517f08c379a00000000000000000000000000000000000000000000000000000000081526004018080602001828103825260128152602001807f5061796572206e6f74207665726966696564000000000000000000000000000081525060200191505060405180910390fd5b6000809054906101000a900473ffffffffffffffffffffffffffffffffffffffff1673ffffffffffffffffffffffffffffffffffffffff166323b872dd8630866040518463ffffffff167c0100000000000000000000000000000000000000000000000000000000028152600401808473ffffffffffffffffffffffffffffffffffffffff1673ffffffffffffffffffffffffffffffffffffffff1681526020018373ffffffffffffffffffffffffffffffffffffffff1673ffffffffffffffffffffffffffffffffffffffff1681526020018281526020019350505050602060405180830381600087803b15801561050457600080fd5b505af1158015610518573d6000803e3d6000fd5b505050506040513d602081101561052e57600080fd5b810190808051906020019092919050505015156105b3576040517f08c379a000000000000000000000000000000000000000000000000000000000815260040180806020018281038252600f8152602001807f5472616e73666572206661696c6564000000000000000000000000000000000081525060200191505060405180910390fd5b60c0604051908101604052808673ffffffffffffffffffffffffffffffffffffffff1681526020018573ffffffffffffffffffffffffffffffffffffffff168152602001848152602001600015158152602001838152602001828152506002600088815260200190815260200160002060008201518160000160006101000a81548173ffffffffffffffffffffffffffffffffffffffff021916908373ffffffffffffffffffffffffffffffffffffffff16021790555060208201518160010160006101000a81548173ffffffffffffffffffffffffffffffffffffffff021916908373ffffffffffffffffffffffffffffffffffffffff1602179055506040820151816002015560608201518160030160006101000a81548160ff0219169083151502179055506080820151816004015560a08201518160050155905050505050505050565b60026020528060005260406000206000915090508060000160009054906101000a900473ffffffffffffffffffffffffffffffffffffffff16908060010160009054906101000a900473ffffffffffffffffffffffffffffffffffffffff16908060020154908060030160009054906101000a900460ff16908060040154908060050154905086565b6000809054906101000a900473ffffffffffffffffffffffffffffffffffffffff1681565b600160009054906101000a900473ffffffffffffffffffffffffffffffffffffffff1681565b60006002600083815260200190815260200160002090508060030160009054906101000a900460ff1615151561086c576040517f08c379a00000000000000000000000000000000000000000000000000000000081526004018080602001828103825260108152602001807f416c72656164792072656c65617365640000000000000000000000000000000081525060200191505060405180910390fd5b600160009054906101000a900473ffffffffffffffffffffffffffffffffffffffff1673ffffffffffffffffffffffffffffffffffffffff1663b9209e338260010160009054906101000a900473ffffffffffffffffffffffffffffffffffffffff166040518263ffffffff167c0100000000000000000000000000000000000000000000000000000000028152600401808273ffffffffffffffffffffffffffffffffffffffff1673ffffffffffffffffffffffffffffffffffffffff16815260200191505060206040518083038186803b15801561094b57600080fd5b505afa15801561095f573d6000803e3d6000fd5b505050506040513d602081101561097557600080fd5b810190808051906020019092919050505015156109fa576040517f08c379a00000000000000000000000000000000000000000000000000000000081526004018080602001828103825260128152602001807f5061796565206e6f74207665726966696564000000000000000000000000000081525060200191505060405180910390fd5b60018160030160006101000a81548160ff0219169083151502179055506000809054906101000a900473ffffffffffffffffffffffffffffffffffffffff1673ffffffffffffffffffffffffffffffffffffffff1663a9059cbb8260010160009054906101000a900473ffffffffffffffffffffffffffffffffffffffff1683600201546040518363ffffffff167c0100000000000000000000000000000000000000000000000000000000028152600401808373ffffffffffffffffffffffffffffffffffffffff1673ffffffffffffffffffffffffffffffffffffffff16815260200182815260200192505050602060405180830381600087803b158015610b0357600080fd5b505af1158015610b17573d6000803e3d6000fd5b505050506040513d6020811015610b2d57600080fd5b81019080805190602001909291905050501515610bb2576040517f08c379a00000000000000000000000000000000000000000000000000000000081526004018080602001828103825260148152602001807f55534454207472616e73666572206661696c656400000000000000000000000081525060200191505060405180910390fd5b505056fea165627a7a7230582028a3e928eaaaf0bcac9b120923b89bfbe9d01fe6bdce365973f555fef2a763180029",
  "source": "pragma solidity ^0.5.4;\n\nimport \"../TRC20.sol\";\n\ninterface IAttestationRegistry {\n    function isVerified(address user) external view returns (bool);\n}\n\ncontract BPayEscrowVaultV2 {\n    TRC20 public usdt;\n    IAttestationRegistry public attestations;\n\n    struct Escrow {\n        address payer;\n        address payee;\n        uint256 amount;\n        bool released;\n        uint256 expiry;\n        bytes32 attestRef;\n    }\n\n    mapping(bytes32 => Escrow) public escrows;\n\n    constructor(address _usdt, address _attestations) public {\n        usdt = TRC20(_usdt);\n        attestations = IAttestationRegistry(_attestations);\n    }\n\n    function fund(\n        bytes32 escrowId,\n        address payer,\n        address payee,\n        uint256 amount,\n        uint256 expiry,\n        bytes32 attestRef\n    )\n        public\n    {\n        require(attestations.isVerified(payer), \"Payer not verified\");\n        require(usdt.transferFrom(payer, address(this), amount), \"Transfer failed\");\n\n        escrows[escrowId] = Escrow({\n            payer: payer,\n            payee: payee,\n            amount: amount,\n            released: false,\n            expiry: expiry,\n            attestRef: attestRef\n        });\n    }\n\n    function release(bytes32 escrowId) public {\n        Escrow storage e = escrows[escrowId];\n        require(!e.released, \"Already released\");\n        require(attestations.isVerified(e.payee), \"Payee not verified\");\n        e.released = true;\n        require(usdt.transfer(e.payee, e.amount), \"USDT transfer failed\");\n    }\n}\n",
  "sourcePath": "/Users/taiwo/workspace/tronbfpay/contracts/v2/BPayEscrowVaultV2.sol",
  "compiler": {
    "name": "solc",
    "version": "0.5.4+commit.d15a3125.mod.Emscripten.clang"
  },
  "schemaVersion": "2.0.1",
  "updatedAt": "2025-08-23T17:53:57.282Z"
}