{
  "contractName": "EscrowVaultProxy",
  "abi": [
    {
      "constant": false,
      "inputs": [
        {
          "name": "newImplementation",
          "type": "address"
        }
      ],
      "name": "upgradeTo",
      "outputs": [],
      "payable": false,
      "stateMutability": "nonpayable",
      "type": "function"
    },
    {
      "constant": true,
      "inputs": [],
      "name": "implementation",
      "outputs": [
        {
          "name": "",
          "type": "address"
        }
      ],
      "payable": false,
      "stateMutability": "view",
      "type": "function"
    },
    {
      "constant": true,
      "inputs": [],
      "name": "admin",
      "outputs": [
        {
          "name": "",
          "type": "address"
        }
      ],
      "payable": false,
      "stateMutability": "view",
      "type": "function"
    },
    {
      "inputs": [
        {
          "name": "_implementation",
          "type": "address"
        }
      ],
      "payable": false,
      "stateMutability": "nonpayable",
      "type": "constructor"
    },
    {
      "payable": true,
      "stateMutability": "payable",
      "type": "fallback"
    }
  ],
  "bytecode": "0x608060405234801561001057600080fd5b50d3801561001d57600080fd5b50d2801561002a57600080fd5b506040516020806105a08339810180604052602081101561004a57600080fd5b8101908080519060200190929190505050806000806101000a81548173ffffffffffffffffffffffffffffffffffffffff021916908373ffffffffffffffffffffffffffffffffffffffff16021790555033600160006101000a81548173ffffffffffffffffffffffffffffffffffffffff021916908373ffffffffffffffffffffffffffffffffffffffff160217905550506104b4806100ec6000396000f3fe608060405260043610610051576000357c0100000000000000000000000000000000000000000000000000000000900480633659cfe6146101435780635c60da1b146101ae578063f851a4401461021f575b60008060009054906101000a900473ffffffffffffffffffffffffffffffffffffffff169050600073ffffffffffffffffffffffffffffffffffffffff168173ffffffffffffffffffffffffffffffffffffffff161415151561011c576040517f08c379a00000000000000000000000000000000000000000000000000000000081526004018080602001828103825260168152602001807f496d706c656d656e746174696f6e206e6f74207365740000000000000000000081525060200191505060405180910390fd5b3660008037600080366000845af43d806000803e816000811461013e57816000f35b816000fd5b34801561014f57600080fd5b50d3801561015c57600080fd5b50d2801561016957600080fd5b506101ac6004803603602081101561018057600080fd5b81019080803573ffffffffffffffffffffffffffffffffffffffff169060200190929190505050610290565b005b3480156101ba57600080fd5b50d380156101c757600080fd5b50d280156101d457600080fd5b506101dd61043d565b604051808273ffffffffffffffffffffffffffffffffffffffff1673ffffffffffffffffffffffffffffffffffffffff16815260200191505060405180910390f35b34801561022b57600080fd5b50d3801561023857600080fd5b50d2801561024557600080fd5b5061024e610462565b604051808273ffffffffffffffffffffffffffffffffffffffff1673ffffffffffffffffffffffffffffffffffffffff16815260200191505060405180910390f35b600160009054906101000a900473ffffffffffffffffffffffffffffffffffffffff1673ffffffffffffffffffffffffffffffffffffffff163373ffffffffffffffffffffffffffffffffffffffff16141515610355576040517f08c379a000000000000000000000000000000000000000000000000000000000815260040180806020018281038252600a8152602001807f4f6e6c792061646d696e0000000000000000000000000000000000000000000081525060200191505060405180910390fd5b600073ffffffffffffffffffffffffffffffffffffffff168173ffffffffffffffffffffffffffffffffffffffff16141515156103fa576040517f08c379a000000000000000000000000000000000000000000000000000000000815260040180806020018281038252600f8152602001807f496e76616c69642061646472657373000000000000000000000000000000000081525060200191505060405180910390fd5b806000806101000a81548173ffffffffffffffffffffffffffffffffffffffff021916908373ffffffffffffffffffffffffffffffffffffffff16021790555050565b6000809054906101000a900473ffffffffffffffffffffffffffffffffffffffff1681565b600160009054906101000a900473ffffffffffffffffffffffffffffffffffffffff168156fea165627a7a72305820b98d767d3ee83c8ebcee47ae0a45b700570c69365c123ffcda07bfd6cd2858b10029",
  "source": "pragma solidity ^0.5.4;\n\ncontract EscrowVaultProxy {\n    // Address of the implementation contract\n    address public implementation;\n    address public admin;\n\n    constructor(address _implementation) public {\n        implementation = _implementation;\n        admin = msg.sender;\n    }\n\n    // Only admin can upgrade implementation\n    function upgradeTo(address newImplementation) public {\n        require(msg.sender == admin, \"Only admin\");\n        require(newImplementation != address(0), \"Invalid address\");\n        implementation = newImplementation;\n    }\n\n    // Fallback delegates all calls to implementation\n    function() external payable {\n        address impl = implementation;\n        require(impl != address(0), \"Implementation not set\");\n\n        assembly {\n            // Copy calldata to memory\n            calldatacopy(0x0, 0x0, calldatasize)\n\n            // Delegatecall to implementation\n            let result := delegatecall(gas, impl, 0x0, calldatasize, 0x0, 0)\n\n            // Copy returned data\n            let size := returndatasize\n            returndatacopy(0x0, 0x0, size)\n\n            // Forward return / revert\n            switch result\n            case 0 { revert(0x0, size) }\n            default { return(0x0, size) }\n        }\n    }\n}\n",
  "sourcePath": "/Users/taiwo/workspace/tronbfpay/contracts/v2/EscrowVaultProxy.sol",
  "compiler": {
    "name": "solc",
    "version": "0.5.4+commit.d15a3125.mod.Emscripten.clang"
  },
  "schemaVersion": "2.0.1",
  "updatedAt": "2025-08-23T17:22:27.381Z"
}