{
  "contractName": "EscrowVaultProxy",
  "abi": [
    {
      "constant": false,
      "inputs": [
        {
          "name": "newImplementation",
          "type": "address"
        }
      ],
      "name": "upgradeTo",
      "outputs": [],
      "payable": false,
      "stateMutability": "nonpayable",
      "type": "function"
    },
    {
      "constant": true,
      "inputs": [],
      "name": "implementation",
      "outputs": [
        {
          "name": "",
          "type": "address"
        }
      ],
      "payable": false,
      "stateMutability": "view",
      "type": "function"
    },
    {
      "constant": true,
      "inputs": [],
      "name": "admin",
      "outputs": [
        {
          "name": "",
          "type": "address"
        }
      ],
      "payable": false,
      "stateMutability": "view",
      "type": "function"
    },
    {
      "inputs": [
        {
          "name": "_implementation",
          "type": "address"
        }
      ],
      "payable": false,
      "stateMutability": "nonpayable",
      "type": "constructor"
    },
    {
      "payable": true,
      "stateMutability": "payable",
      "type": "fallback"
    }
  ],
  "bytecode": "0x608060405234801561001057600080fd5b506040516020806105388339810180604052602081101561003057600080fd5b8101908080519060200190929190505050806000806101000a81548173ffffffffffffffffffffffffffffffffffffffff021916908373ffffffffffffffffffffffffffffffffffffffff16021790555033600160006101000a81548173ffffffffffffffffffffffffffffffffffffffff021916908373ffffffffffffffffffffffffffffffffffffffff16021790555050610466806100d26000396000f3fe608060405260043610610051576000357c0100000000000000000000000000000000000000000000000000000000900480633659cfe6146101435780635c60da1b14610194578063f851a440146101eb575b60008060009054906101000a900473ffffffffffffffffffffffffffffffffffffffff169050600073ffffffffffffffffffffffffffffffffffffffff168173ffffffffffffffffffffffffffffffffffffffff161415151561011c576040517f08c379a00000000000000000000000000000000000000000000000000000000081526004018080602001828103825260168152602001807f496d706c656d656e746174696f6e206e6f74207365740000000000000000000081525060200191505060405180910390fd5b3660008037600080366000845af43d806000803e816000811461013e57816000f35b816000fd5b34801561014f57600080fd5b506101926004803603602081101561016657600080fd5b81019080803573ffffffffffffffffffffffffffffffffffffffff169060200190929190505050610242565b005b3480156101a057600080fd5b506101a96103ef565b604051808273ffffffffffffffffffffffffffffffffffffffff1673ffffffffffffffffffffffffffffffffffffffff16815260200191505060405180910390f35b3480156101f757600080fd5b50610200610414565b604051808273ffffffffffffffffffffffffffffffffffffffff1673ffffffffffffffffffffffffffffffffffffffff16815260200191505060405180910390f35b600160009054906101000a900473ffffffffffffffffffffffffffffffffffffffff1673ffffffffffffffffffffffffffffffffffffffff163373ffffffffffffffffffffffffffffffffffffffff16141515610307576040517f08c379a000000000000000000000000000000000000000000000000000000000815260040180806020018281038252600a8152602001807f4f6e6c792061646d696e0000000000000000000000000000000000000000000081525060200191505060405180910390fd5b600073ffffffffffffffffffffffffffffffffffffffff168173ffffffffffffffffffffffffffffffffffffffff16141515156103ac576040517f08c379a000000000000000000000000000000000000000000000000000000000815260040180806020018281038252600f8152602001807f496e76616c69642061646472657373000000000000000000000000000000000081525060200191505060405180910390fd5b806000806101000a81548173ffffffffffffffffffffffffffffffffffffffff021916908373ffffffffffffffffffffffffffffffffffffffff16021790555050565b6000809054906101000a900473ffffffffffffffffffffffffffffffffffffffff1681565b600160009054906101000a900473ffffffffffffffffffffffffffffffffffffffff168156fea165627a7a72305820b96e8c15c55456945ee89da10e0b2dfcd354900a8534f213418c3c4e4c21e9f50029",
  "source": "pragma solidity ^0.5.4;\r\n\r\ncontract EscrowVaultProxy {\r\n    // Address of the implementation contract\r\n    address public implementation;\r\n    address public admin;\r\n\r\n    constructor(address _implementation) public {\r\n        implementation = _implementation;\r\n        admin = msg.sender;\r\n    }\r\n\r\n    // Only admin can upgrade implementation\r\n    function upgradeTo(address newImplementation) public {\r\n        require(msg.sender == admin, \"Only admin\");\r\n        require(newImplementation != address(0), \"Invalid address\");\r\n        implementation = newImplementation;\r\n    }\r\n\r\n    // Fallback delegates all calls to implementation\r\n    function() external payable {\r\n        address impl = implementation;\r\n        require(impl != address(0), \"Implementation not set\");\r\n\r\n        assembly {\r\n            // Copy calldata to memory\r\n            calldatacopy(0x0, 0x0, calldatasize)\r\n\r\n            // Delegatecall to implementation\r\n            let result := delegatecall(gas, impl, 0x0, calldatasize, 0x0, 0)\r\n\r\n            // Copy returned data\r\n            let size := returndatasize\r\n            returndatacopy(0x0, 0x0, size)\r\n\r\n            // Forward return / revert\r\n            switch result\r\n            case 0 { revert(0x0, size) }\r\n            default { return(0x0, size) }\r\n        }\r\n    }\r\n}\r\n",
  "sourcePath": "C:/workspace/tronbfpay/contracts/v2/EscrowVaultProxy.sol",
  "compiler": {
    "name": "solc",
    "version": "0.5.4+commit.9549d8ff.Emscripten.clang"
  },
  "schemaVersion": "2.0.1",
  "updatedAt": "2025-09-26T19:32:39.045Z"
}