{
  "contractName": "FeeSplitter",
  "abi": [
    {
      "constant": true,
      "inputs": [],
      "name": "usdt",
      "outputs": [
        {
          "name": "",
          "type": "address"
        }
      ],
      "payable": false,
      "stateMutability": "view",
      "type": "function"
    },
    {
      "constant": true,
      "inputs": [],
      "name": "reserveBps",
      "outputs": [
        {
          "name": "",
          "type": "uint16"
        }
      ],
      "payable": false,
      "stateMutability": "view",
      "type": "function"
    },
    {
      "constant": true,
      "inputs": [],
      "name": "platform",
      "outputs": [
        {
          "name": "",
          "type": "address"
        }
      ],
      "payable": false,
      "stateMutability": "view",
      "type": "function"
    },
    {
      "constant": true,
      "inputs": [],
      "name": "owner",
      "outputs": [
        {
          "name": "",
          "type": "address"
        }
      ],
      "payable": false,
      "stateMutability": "view",
      "type": "function"
    },
    {
      "constant": false,
      "inputs": [
        {
          "name": "m",
          "type": "address"
        }
      ],
      "name": "setMerchant",
      "outputs": [],
      "payable": false,
      "stateMutability": "nonpayable",
      "type": "function"
    },
    {
      "constant": true,
      "inputs": [],
      "name": "merchant",
      "outputs": [
        {
          "name": "",
          "type": "address"
        }
      ],
      "payable": false,
      "stateMutability": "view",
      "type": "function"
    },
    {
      "constant": false,
      "inputs": [
        {
          "name": "_plat",
          "type": "uint16"
        },
        {
          "name": "_res",
          "type": "uint16"
        }
      ],
      "name": "setBps",
      "outputs": [],
      "payable": false,
      "stateMutability": "nonpayable",
      "type": "function"
    },
    {
      "constant": true,
      "inputs": [],
      "name": "reserve",
      "outputs": [
        {
          "name": "",
          "type": "address"
        }
      ],
      "payable": false,
      "stateMutability": "view",
      "type": "function"
    },
    {
      "constant": false,
      "inputs": [
        {
          "name": "amount",
          "type": "uint256"
        }
      ],
      "name": "split",
      "outputs": [],
      "payable": false,
      "stateMutability": "nonpayable",
      "type": "function"
    },
    {
      "constant": true,
      "inputs": [],
      "name": "platformBps",
      "outputs": [
        {
          "name": "",
          "type": "uint16"
        }
      ],
      "payable": false,
      "stateMutability": "view",
      "type": "function"
    },
    {
      "inputs": [
        {
          "name": "_usdt",
          "type": "address"
        },
        {
          "name": "_platform",
          "type": "address"
        },
        {
          "name": "_reserve",
          "type": "address"
        }
      ],
      "payable": false,
      "stateMutability": "nonpayable",
      "type": "constructor"
    },
    {
      "anonymous": false,
      "inputs": [
        {
          "indexed": false,
          "name": "gross",
          "type": "uint256"
        },
        {
          "indexed": false,
          "name": "toMerchant",
          "type": "uint256"
        },
        {
          "indexed": false,
          "name": "toPlatform",
          "type": "uint256"
        },
        {
          "indexed": false,
          "name": "toReserve",
          "type": "uint256"
        }
      ],
      "name": "Split",
      "type": "event"
    }
  ],
  "bytecode": "0x608060405234801561001057600080fd5b50d3801561001d57600080fd5b50d2801561002a57600080fd5b50604051606080610da98339810180604052606081101561004a57600080fd5b81019080805190602001909291908051906020019092919080519060200190929190505050336000806101000a81548173ffffffffffffffffffffffffffffffffffffffff021916908373ffffffffffffffffffffffffffffffffffffffff16021790555082600160006101000a81548173ffffffffffffffffffffffffffffffffffffffff021916908373ffffffffffffffffffffffffffffffffffffffff16021790555081600360006101000a81548173ffffffffffffffffffffffffffffffffffffffff021916908373ffffffffffffffffffffffffffffffffffffffff16021790555080600460006101000a81548173ffffffffffffffffffffffffffffffffffffffff021916908373ffffffffffffffffffffffffffffffffffffffff160217905550603c600460146101000a81548161ffff021916908361ffff1602179055506014600460166101000a81548161ffff021916908361ffff160217905550505050610be9806101c06000396000f3fe608060405234801561001057600080fd5b50d3801561001d57600080fd5b50d2801561002a57600080fd5b50600436106100d5576000357c010000000000000000000000000000000000000000000000000000000090048063a5ff76511161009d578063a5ff765114610222578063c2c7b2b01461026c578063cd3293de146102ac578063dbceb005146102f6578063f76835e614610324576100d5565b80632f48ab7d146100da57806338925449146101245780634bde38c81461014a5780638da5cb5b14610194578063a2fba484146101de575b600080fd5b6100e261034a565b604051808273ffffffffffffffffffffffffffffffffffffffff1673ffffffffffffffffffffffffffffffffffffffff16815260200191505060405180910390f35b61012c610370565b604051808261ffff1661ffff16815260200191505060405180910390f35b610152610384565b604051808273ffffffffffffffffffffffffffffffffffffffff1673ffffffffffffffffffffffffffffffffffffffff16815260200191505060405180910390f35b61019c6103aa565b604051808273ffffffffffffffffffffffffffffffffffffffff1673ffffffffffffffffffffffffffffffffffffffff16815260200191505060405180910390f35b610220600480360360208110156101f457600080fd5b81019080803573ffffffffffffffffffffffffffffffffffffffff1690602001909291905050506103cf565b005b61022a6104d7565b604051808273ffffffffffffffffffffffffffffffffffffffff1673ffffffffffffffffffffffffffffffffffffffff16815260200191505060405180910390f35b6102aa6004803603604081101561028257600080fd5b81019080803561ffff169060200190929190803561ffff1690602001909291905050506104fd565b005b6102b46105ff565b604051808273ffffffffffffffffffffffffffffffffffffffff1673ffffffffffffffffffffffffffffffffffffffff16815260200191505060405180910390f35b6103226004803603602081101561030c57600080fd5b8101908080359060200190929190505050610625565b005b61032c610ba9565b604051808261ffff1661ffff16815260200191505060405180910390f35b600160009054906101000a900473ffffffffffffffffffffffffffffffffffffffff1681565b600460169054906101000a900461ffff1681565b600360009054906101000a900473ffffffffffffffffffffffffffffffffffffffff1681565b6000809054906101000a900473ffffffffffffffffffffffffffffffffffffffff1681565b6000809054906101000a900473ffffffffffffffffffffffffffffffffffffffff1673ffffffffffffffffffffffffffffffffffffffff163373ffffffffffffffffffffffffffffffffffffffff16141515610493576040517f08c379a00000000000000000000000000000000000000000000000000000000081526004018080602001828103825260098152602001807f6e6f74206f776e6572000000000000000000000000000000000000000000000081525060200191505060405180910390fd5b80600260006101000a81548173ffffffffffffffffffffffffffffffffffffffff021916908373ffffffffffffffffffffffffffffffffffffffff16021790555050565b600260009054906101000a900473ffffffffffffffffffffffffffffffffffffffff1681565b6000809054906101000a900473ffffffffffffffffffffffffffffffffffffffff1673ffffffffffffffffffffffffffffffffffffffff163373ffffffffffffffffffffffffffffffffffffffff161415156105c1576040517f08c379a00000000000000000000000000000000000000000000000000000000081526004018080602001828103825260098152602001807f6e6f74206f776e6572000000000000000000000000000000000000000000000081525060200191505060405180910390fd5b81600460146101000a81548161ffff021916908361ffff16021790555080600460166101000a81548161ffff021916908361ffff1602179055505050565b600460009054906101000a900473ffffffffffffffffffffffffffffffffffffffff1681565b6000612710600460149054906101000a900461ffff1661ffff16830281151561064a57fe5b0490506000612710600460169054906101000a900461ffff1661ffff16840281151561067257fe5b049050600081838503039050600160009054906101000a900473ffffffffffffffffffffffffffffffffffffffff1673ffffffffffffffffffffffffffffffffffffffff1663a9059cbb600260009054906101000a900473ffffffffffffffffffffffffffffffffffffffff16836040518363ffffffff167c0100000000000000000000000000000000000000000000000000000000028152600401808373ffffffffffffffffffffffffffffffffffffffff1673ffffffffffffffffffffffffffffffffffffffff16815260200182815260200192505050602060405180830381600087803b15801561076557600080fd5b505af1158015610779573d6000803e3d6000fd5b505050506040513d602081101561078f57600080fd5b81019080805190602001909291905050501515610814576040517f08c379a00000000000000000000000000000000000000000000000000000000081526004018080602001828103825260068152602001807f6d2078666572000000000000000000000000000000000000000000000000000081525060200191505060405180910390fd5b60008311156109b457600160009054906101000a900473ffffffffffffffffffffffffffffffffffffffff1673ffffffffffffffffffffffffffffffffffffffff1663a9059cbb600360009054906101000a900473ffffffffffffffffffffffffffffffffffffffff16856040518363ffffffff167c0100000000000000000000000000000000000000000000000000000000028152600401808373ffffffffffffffffffffffffffffffffffffffff1673ffffffffffffffffffffffffffffffffffffffff16815260200182815260200192505050602060405180830381600087803b15801561090457600080fd5b505af1158015610918573d6000803e3d6000fd5b505050506040513d602081101561092e57600080fd5b810190808051906020019092919050505015156109b3576040517f08c379a00000000000000000000000000000000000000000000000000000000081526004018080602001828103825260068152602001807f702078666572000000000000000000000000000000000000000000000000000081525060200191505060405180910390fd5b5b6000821115610b5457600160009054906101000a900473ffffffffffffffffffffffffffffffffffffffff1673ffffffffffffffffffffffffffffffffffffffff1663a9059cbb600460009054906101000a900473ffffffffffffffffffffffffffffffffffffffff16846040518363ffffffff167c0100000000000000000000000000000000000000000000000000000000028152600401808373ffffffffffffffffffffffffffffffffffffffff1673ffffffffffffffffffffffffffffffffffffffff16815260200182815260200192505050602060405180830381600087803b158015610aa457600080fd5b505af1158015610ab8573d6000803e3d6000fd5b505050506040513d6020811015610ace57600080fd5b81019080805190602001909291905050501515610b53576040517f08c379a00000000000000000000000000000000000000000000000000000000081526004018080602001828103825260068152602001807f722078666572000000000000000000000000000000000000000000000000000081525060200191505060405180910390fd5b5b7f493ae8affdadf8bca526bb93601a9be01655081df8a914b104edcfac7ca98f99848285856040518085815260200184815260200183815260200182815260200194505050505060405180910390a150505050565b600460149054906101000a900461ffff168156fea165627a7a723058206a75aae4e0090fc059b82a1213f1bcfa932a2374b3ebe402cba8627a4a4cf9640029",
  "source": "// SPDX-License-Identifier: MIT\npragma solidity ^0.5.4;\nimport \"./TRC20.sol\";\n\ncontract FeeSplitter {\n    address public owner;\n    TRC20 public usdt;\n    address public merchant;\n    address public platform;\n    address public reserve;\n    uint16 public platformBps;\n    uint16 public reserveBps;\n\n    event Split(uint256 gross, uint256 toMerchant, uint256 toPlatform, uint256 toReserve);\n\n    constructor(TRC20 _usdt, address _platform, address _reserve) public {\n        owner = msg.sender;\n        usdt = _usdt; platform = _platform; reserve = _reserve;\n        platformBps = 60; reserveBps = 20;\n    }\n    modifier onlyOwner(){ require(msg.sender == owner, \"not owner\"); _; }\n    function setMerchant(address m) external onlyOwner { merchant = m; }\n    function setBps(uint16 _plat, uint16 _res) external onlyOwner { platformBps = _plat; reserveBps = _res; }\n\n    function split(uint256 amount) external {\n        uint256 p = amount * platformBps / 10_000;\n        uint256 r = amount * reserveBps / 10_000;\n        uint256 m = amount - p - r;\n        require(usdt.transfer(merchant, m), \"m xfer\");\n        if (p > 0) require(usdt.transfer(platform, p), \"p xfer\");\n        if (r > 0) require(usdt.transfer(reserve, r), \"r xfer\");\n        emit Split(amount, m, p, r);\n    }\n}\n",
  "sourcePath": "/Users/taiwo/workspace/tronbfpay/contracts/FeeSplitter.sol",
  "compiler": {
    "name": "solc",
    "version": "0.5.4+commit.d15a3125.mod.Emscripten.clang"
  },
  "schemaVersion": "2.0.1",
  "updatedAt": "2025-08-23T17:53:57.280Z"
}