{
  "contractName": "FeeSplitter",
  "abi": [
    {
      "constant": true,
      "inputs": [],
      "name": "usdt",
      "outputs": [
        {
          "name": "",
          "type": "address"
        }
      ],
      "payable": false,
      "stateMutability": "view",
      "type": "function"
    },
    {
      "constant": true,
      "inputs": [],
      "name": "reserveBps",
      "outputs": [
        {
          "name": "",
          "type": "uint16"
        }
      ],
      "payable": false,
      "stateMutability": "view",
      "type": "function"
    },
    {
      "constant": true,
      "inputs": [],
      "name": "platform",
      "outputs": [
        {
          "name": "",
          "type": "address"
        }
      ],
      "payable": false,
      "stateMutability": "view",
      "type": "function"
    },
    {
      "constant": true,
      "inputs": [],
      "name": "owner",
      "outputs": [
        {
          "name": "",
          "type": "address"
        }
      ],
      "payable": false,
      "stateMutability": "view",
      "type": "function"
    },
    {
      "constant": false,
      "inputs": [
        {
          "name": "m",
          "type": "address"
        }
      ],
      "name": "setMerchant",
      "outputs": [],
      "payable": false,
      "stateMutability": "nonpayable",
      "type": "function"
    },
    {
      "constant": true,
      "inputs": [],
      "name": "merchant",
      "outputs": [
        {
          "name": "",
          "type": "address"
        }
      ],
      "payable": false,
      "stateMutability": "view",
      "type": "function"
    },
    {
      "constant": false,
      "inputs": [
        {
          "name": "_plat",
          "type": "uint16"
        },
        {
          "name": "_res",
          "type": "uint16"
        }
      ],
      "name": "setBps",
      "outputs": [],
      "payable": false,
      "stateMutability": "nonpayable",
      "type": "function"
    },
    {
      "constant": true,
      "inputs": [],
      "name": "reserve",
      "outputs": [
        {
          "name": "",
          "type": "address"
        }
      ],
      "payable": false,
      "stateMutability": "view",
      "type": "function"
    },
    {
      "constant": false,
      "inputs": [
        {
          "name": "amount",
          "type": "uint256"
        }
      ],
      "name": "split",
      "outputs": [],
      "payable": false,
      "stateMutability": "nonpayable",
      "type": "function"
    },
    {
      "constant": true,
      "inputs": [],
      "name": "platformBps",
      "outputs": [
        {
          "name": "",
          "type": "uint16"
        }
      ],
      "payable": false,
      "stateMutability": "view",
      "type": "function"
    },
    {
      "inputs": [
        {
          "name": "_usdt",
          "type": "address"
        },
        {
          "name": "_platform",
          "type": "address"
        },
        {
          "name": "_reserve",
          "type": "address"
        }
      ],
      "payable": false,
      "stateMutability": "nonpayable",
      "type": "constructor"
    },
    {
      "anonymous": false,
      "inputs": [
        {
          "indexed": false,
          "name": "gross",
          "type": "uint256"
        },
        {
          "indexed": false,
          "name": "toMerchant",
          "type": "uint256"
        },
        {
          "indexed": false,
          "name": "toPlatform",
          "type": "uint256"
        },
        {
          "indexed": false,
          "name": "toReserve",
          "type": "uint256"
        }
      ],
      "name": "Split",
      "type": "event"
    }
  ],
  "bytecode": "0x608060405234801561001057600080fd5b50604051606080610d758339810180604052606081101561003057600080fd5b81019080805190602001909291908051906020019092919080519060200190929190505050336000806101000a81548173ffffffffffffffffffffffffffffffffffffffff021916908373ffffffffffffffffffffffffffffffffffffffff16021790555082600160006101000a81548173ffffffffffffffffffffffffffffffffffffffff021916908373ffffffffffffffffffffffffffffffffffffffff16021790555081600360006101000a81548173ffffffffffffffffffffffffffffffffffffffff021916908373ffffffffffffffffffffffffffffffffffffffff16021790555080600460006101000a81548173ffffffffffffffffffffffffffffffffffffffff021916908373ffffffffffffffffffffffffffffffffffffffff160217905550603c600460146101000a81548161ffff021916908361ffff1602179055506014600460166101000a81548161ffff021916908361ffff160217905550505050610bcf806101a66000396000f3fe608060405234801561001057600080fd5b50600436106100bb576000357c010000000000000000000000000000000000000000000000000000000090048063a5ff765111610083578063a5ff765114610208578063c2c7b2b014610252578063cd3293de14610292578063dbceb005146102dc578063f76835e61461030a576100bb565b80632f48ab7d146100c0578063389254491461010a5780634bde38c8146101305780638da5cb5b1461017a578063a2fba484146101c4575b600080fd5b6100c8610330565b604051808273ffffffffffffffffffffffffffffffffffffffff1673ffffffffffffffffffffffffffffffffffffffff16815260200191505060405180910390f35b610112610356565b604051808261ffff1661ffff16815260200191505060405180910390f35b61013861036a565b604051808273ffffffffffffffffffffffffffffffffffffffff1673ffffffffffffffffffffffffffffffffffffffff16815260200191505060405180910390f35b610182610390565b604051808273ffffffffffffffffffffffffffffffffffffffff1673ffffffffffffffffffffffffffffffffffffffff16815260200191505060405180910390f35b610206600480360360208110156101da57600080fd5b81019080803573ffffffffffffffffffffffffffffffffffffffff1690602001909291905050506103b5565b005b6102106104bd565b604051808273ffffffffffffffffffffffffffffffffffffffff1673ffffffffffffffffffffffffffffffffffffffff16815260200191505060405180910390f35b6102906004803603604081101561026857600080fd5b81019080803561ffff169060200190929190803561ffff1690602001909291905050506104e3565b005b61029a6105e5565b604051808273ffffffffffffffffffffffffffffffffffffffff1673ffffffffffffffffffffffffffffffffffffffff16815260200191505060405180910390f35b610308600480360360208110156102f257600080fd5b810190808035906020019092919050505061060b565b005b610312610b8f565b604051808261ffff1661ffff16815260200191505060405180910390f35b600160009054906101000a900473ffffffffffffffffffffffffffffffffffffffff1681565b600460169054906101000a900461ffff1681565b600360009054906101000a900473ffffffffffffffffffffffffffffffffffffffff1681565b6000809054906101000a900473ffffffffffffffffffffffffffffffffffffffff1681565b6000809054906101000a900473ffffffffffffffffffffffffffffffffffffffff1673ffffffffffffffffffffffffffffffffffffffff163373ffffffffffffffffffffffffffffffffffffffff16141515610479576040517f08c379a00000000000000000000000000000000000000000000000000000000081526004018080602001828103825260098152602001807f6e6f74206f776e6572000000000000000000000000000000000000000000000081525060200191505060405180910390fd5b80600260006101000a81548173ffffffffffffffffffffffffffffffffffffffff021916908373ffffffffffffffffffffffffffffffffffffffff16021790555050565b600260009054906101000a900473ffffffffffffffffffffffffffffffffffffffff1681565b6000809054906101000a900473ffffffffffffffffffffffffffffffffffffffff1673ffffffffffffffffffffffffffffffffffffffff163373ffffffffffffffffffffffffffffffffffffffff161415156105a7576040517f08c379a00000000000000000000000000000000000000000000000000000000081526004018080602001828103825260098152602001807f6e6f74206f776e6572000000000000000000000000000000000000000000000081525060200191505060405180910390fd5b81600460146101000a81548161ffff021916908361ffff16021790555080600460166101000a81548161ffff021916908361ffff1602179055505050565b600460009054906101000a900473ffffffffffffffffffffffffffffffffffffffff1681565b6000612710600460149054906101000a900461ffff1661ffff16830281151561063057fe5b0490506000612710600460169054906101000a900461ffff1661ffff16840281151561065857fe5b049050600081838503039050600160009054906101000a900473ffffffffffffffffffffffffffffffffffffffff1673ffffffffffffffffffffffffffffffffffffffff1663a9059cbb600260009054906101000a900473ffffffffffffffffffffffffffffffffffffffff16836040518363ffffffff167c0100000000000000000000000000000000000000000000000000000000028152600401808373ffffffffffffffffffffffffffffffffffffffff1673ffffffffffffffffffffffffffffffffffffffff16815260200182815260200192505050602060405180830381600087803b15801561074b57600080fd5b505af115801561075f573d6000803e3d6000fd5b505050506040513d602081101561077557600080fd5b810190808051906020019092919050505015156107fa576040517f08c379a00000000000000000000000000000000000000000000000000000000081526004018080602001828103825260068152602001807f6d2078666572000000000000000000000000000000000000000000000000000081525060200191505060405180910390fd5b600083111561099a57600160009054906101000a900473ffffffffffffffffffffffffffffffffffffffff1673ffffffffffffffffffffffffffffffffffffffff1663a9059cbb600360009054906101000a900473ffffffffffffffffffffffffffffffffffffffff16856040518363ffffffff167c0100000000000000000000000000000000000000000000000000000000028152600401808373ffffffffffffffffffffffffffffffffffffffff1673ffffffffffffffffffffffffffffffffffffffff16815260200182815260200192505050602060405180830381600087803b1580156108ea57600080fd5b505af11580156108fe573d6000803e3d6000fd5b505050506040513d602081101561091457600080fd5b81019080805190602001909291905050501515610999576040517f08c379a00000000000000000000000000000000000000000000000000000000081526004018080602001828103825260068152602001807f702078666572000000000000000000000000000000000000000000000000000081525060200191505060405180910390fd5b5b6000821115610b3a57600160009054906101000a900473ffffffffffffffffffffffffffffffffffffffff1673ffffffffffffffffffffffffffffffffffffffff1663a9059cbb600460009054906101000a900473ffffffffffffffffffffffffffffffffffffffff16846040518363ffffffff167c0100000000000000000000000000000000000000000000000000000000028152600401808373ffffffffffffffffffffffffffffffffffffffff1673ffffffffffffffffffffffffffffffffffffffff16815260200182815260200192505050602060405180830381600087803b158015610a8a57600080fd5b505af1158015610a9e573d6000803e3d6000fd5b505050506040513d6020811015610ab457600080fd5b81019080805190602001909291905050501515610b39576040517f08c379a00000000000000000000000000000000000000000000000000000000081526004018080602001828103825260068152602001807f722078666572000000000000000000000000000000000000000000000000000081525060200191505060405180910390fd5b5b7f493ae8affdadf8bca526bb93601a9be01655081df8a914b104edcfac7ca98f99848285856040518085815260200184815260200183815260200182815260200194505050505060405180910390a150505050565b600460149054906101000a900461ffff168156fea165627a7a72305820f0e1afda43c69fe32630b1db64ff94de52820a8e1ad5eb89fdb589fd845762980029",
  "source": "// SPDX-License-Identifier: MIT\r\npragma solidity ^0.5.4;\r\nimport \"./TRC20.sol\";\r\n\r\ncontract FeeSplitter {\r\n    address public owner;\r\n    TRC20 public usdt;\r\n    address public merchant;\r\n    address public platform;\r\n    address public reserve;\r\n    uint16 public platformBps;\r\n    uint16 public reserveBps;\r\n\r\n    event Split(uint256 gross, uint256 toMerchant, uint256 toPlatform, uint256 toReserve);\r\n\r\n    constructor(TRC20 _usdt, address _platform, address _reserve) public {\r\n        owner = msg.sender;\r\n        usdt = _usdt; platform = _platform; reserve = _reserve;\r\n        platformBps = 60; reserveBps = 20;\r\n    }\r\n    modifier onlyOwner(){ require(msg.sender == owner, \"not owner\"); _; }\r\n    function setMerchant(address m) external onlyOwner { merchant = m; }\r\n    function setBps(uint16 _plat, uint16 _res) external onlyOwner { platformBps = _plat; reserveBps = _res; }\r\n\r\n    function split(uint256 amount) external {\r\n        uint256 p = amount * platformBps / 10_000;\r\n        uint256 r = amount * reserveBps / 10_000;\r\n        uint256 m = amount - p - r;\r\n        require(usdt.transfer(merchant, m), \"m xfer\");\r\n        if (p > 0) require(usdt.transfer(platform, p), \"p xfer\");\r\n        if (r > 0) require(usdt.transfer(reserve, r), \"r xfer\");\r\n        emit Split(amount, m, p, r);\r\n    }\r\n}\r\n",
  "sourcePath": "C:/workspace/tronbfpay/contracts/FeeSplitter.sol",
  "compiler": {
    "name": "solc",
    "version": "0.5.4+commit.9549d8ff.Emscripten.clang"
  },
  "schemaVersion": "2.0.1",
  "updatedAt": "2025-10-07T17:16:21.894Z"
}