{
  "contractName": "LiquidityPoolV11",
  "abi": [
    {
      "inputs": [
        {
          "internalType": "address",
          "name": "_tokenA",
          "type": "address"
        },
        {
          "internalType": "address",
          "name": "_accessControl",
          "type": "address"
        }
      ],
      "stateMutability": "nonpayable",
      "type": "constructor"
    },
    {
      "anonymous": false,
      "inputs": [
        {
          "indexed": true,
          "internalType": "address",
          "name": "lender",
          "type": "address"
        },
        {
          "indexed": false,
          "internalType": "uint256",
          "name": "amount",
          "type": "uint256"
        },
        {
          "indexed": false,
          "internalType": "uint256",
          "name": "shares",
          "type": "uint256"
        }
      ],
      "name": "Deposited",
      "type": "event"
    },
    {
      "anonymous": false,
      "inputs": [
        {
          "indexed": true,
          "internalType": "address",
          "name": "token",
          "type": "address"
        },
        {
          "indexed": true,
          "internalType": "address",
          "name": "to",
          "type": "address"
        },
        {
          "indexed": false,
          "internalType": "uint256",
          "name": "amount",
          "type": "uint256"
        }
      ],
      "name": "EmergencyWithdraw",
      "type": "event"
    },
    {
      "anonymous": false,
      "inputs": [
        {
          "indexed": true,
          "internalType": "address",
          "name": "by",
          "type": "address"
        }
      ],
      "name": "Paused",
      "type": "event"
    },
    {
      "anonymous": false,
      "inputs": [
        {
          "indexed": true,
          "internalType": "address",
          "name": "by",
          "type": "address"
        }
      ],
      "name": "Unpaused",
      "type": "event"
    },
    {
      "anonymous": false,
      "inputs": [
        {
          "indexed": true,
          "internalType": "address",
          "name": "lender",
          "type": "address"
        },
        {
          "indexed": false,
          "internalType": "uint256",
          "name": "amount",
          "type": "uint256"
        }
      ],
      "name": "Withdrawn",
      "type": "event"
    },
    {
      "inputs": [],
      "name": "accessControl",
      "outputs": [
        {
          "internalType": "contract IAccessControl",
          "name": "",
          "type": "address"
        }
      ],
      "stateMutability": "view",
      "type": "function"
    },
    {
      "inputs": [
        {
          "internalType": "uint256",
          "name": "amount",
          "type": "uint256"
        }
      ],
      "name": "deposit",
      "outputs": [],
      "stateMutability": "nonpayable",
      "type": "function"
    },
    {
      "inputs": [
        {
          "internalType": "address",
          "name": "",
          "type": "address"
        }
      ],
      "name": "deposits",
      "outputs": [
        {
          "internalType": "uint256",
          "name": "",
          "type": "uint256"
        }
      ],
      "stateMutability": "view",
      "type": "function"
    },
    {
      "inputs": [
        {
          "internalType": "address",
          "name": "token",
          "type": "address"
        },
        {
          "internalType": "address",
          "name": "to",
          "type": "address"
        },
        {
          "internalType": "uint256",
          "name": "amount",
          "type": "uint256"
        }
      ],
      "name": "emergencyWithdraw",
      "outputs": [],
      "stateMutability": "nonpayable",
      "type": "function"
    },
    {
      "inputs": [],
      "name": "getTotalDeposits",
      "outputs": [
        {
          "internalType": "uint256",
          "name": "",
          "type": "uint256"
        }
      ],
      "stateMutability": "view",
      "type": "function"
    },
    {
      "inputs": [],
      "name": "getTotalShares",
      "outputs": [
        {
          "internalType": "uint256",
          "name": "",
          "type": "uint256"
        }
      ],
      "stateMutability": "view",
      "type": "function"
    },
    {
      "inputs": [],
      "name": "pause",
      "outputs": [],
      "stateMutability": "nonpayable",
      "type": "function"
    },
    {
      "inputs": [],
      "name": "paused",
      "outputs": [
        {
          "internalType": "bool",
          "name": "",
          "type": "bool"
        }
      ],
      "stateMutability": "view",
      "type": "function"
    },
    {
      "inputs": [
        {
          "internalType": "address",
          "name": "to",
          "type": "address"
        },
        {
          "internalType": "uint256",
          "name": "amount",
          "type": "uint256"
        }
      ],
      "name": "pullFunds",
      "outputs": [],
      "stateMutability": "nonpayable",
      "type": "function"
    },
    {
      "inputs": [
        {
          "internalType": "address",
          "name": "who",
          "type": "address"
        },
        {
          "internalType": "bool",
          "name": "allowed",
          "type": "bool"
        }
      ],
      "name": "setWithdrawWhitelist",
      "outputs": [],
      "stateMutability": "nonpayable",
      "type": "function"
    },
    {
      "inputs": [
        {
          "internalType": "address",
          "name": "",
          "type": "address"
        }
      ],
      "name": "shares",
      "outputs": [
        {
          "internalType": "uint256",
          "name": "",
          "type": "uint256"
        }
      ],
      "stateMutability": "view",
      "type": "function"
    },
    {
      "inputs": [],
      "name": "tokenA",
      "outputs": [
        {
          "internalType": "contract ITRC20",
          "name": "",
          "type": "address"
        }
      ],
      "stateMutability": "view",
      "type": "function"
    },
    {
      "inputs": [],
      "name": "totalDeposits",
      "outputs": [
        {
          "internalType": "uint256",
          "name": "",
          "type": "uint256"
        }
      ],
      "stateMutability": "view",
      "type": "function"
    },
    {
      "inputs": [],
      "name": "totalShares",
      "outputs": [
        {
          "internalType": "uint256",
          "name": "",
          "type": "uint256"
        }
      ],
      "stateMutability": "view",
      "type": "function"
    },
    {
      "inputs": [],
      "name": "unpause",
      "outputs": [],
      "stateMutability": "nonpayable",
      "type": "function"
    },
    {
      "inputs": [
        {
          "internalType": "uint256",
          "name": "amount",
          "type": "uint256"
        }
      ],
      "name": "withdraw",
      "outputs": [],
      "stateMutability": "nonpayable",
      "type": "function"
    },
    {
      "inputs": [
        {
          "internalType": "address",
          "name": "",
          "type": "address"
        }
      ],
      "name": "withdrawWhitelist",
      "outputs": [
        {
          "internalType": "bool",
          "name": "",
          "type": "bool"
        }
      ],
      "stateMutability": "view",
      "type": "function"
    }
  ],
  "bytecode": "0x60c03461012157601f61102c38819003918201601f19168301916001600160401b0383118484101761012557808492604094855283398101031261012157610052602061004b83610139565b9201610139565b60015f55906001600160a01b03168015158061010f575b156100d6576080526001600160a01b031660a052604051610ede908161014e82396080518181816103a4015281816104e0015281816108ae0152610c31015260a0518181816101610152818161031f015281816106370152818161077301528181610b550152610bed0152f35b60405162461bcd60e51b8152602060048201526011602482015270496e76616c69642061646472657373657360781b6044820152606490fd5b506001600160a01b0382161515610069565b5f80fd5b634e487b7160e01b5f52604160045260245ffd5b51906001600160a01b03821682036101215756fe6080806040526004361015610012575f80fd5b5f3560e01c908163046f5fb014610c60575080630fc63d1014610c1c57806313007d5514610bd8578063168a4822146107095780632b827a4b14610b135780632e1a7d4d1461081f5780633a98ef39146102965780633f4ba83a146107485780635c975abb146107265780637d882097146107095780638456cb591461060c578063b6b55f2514610467578063c6cdbcbb146102eb578063ce7c2ac2146102b3578063d5002f2e14610296578063e63ea408146101135763fc7e286d146100d7575f80fd5b3461010f57602036600319011261010f576001600160a01b036100f8610c99565b165f526002602052602060405f2054604051908152f35b5f80fd5b3461010f57606036600319011261010f5761012c610c99565b6024356001600160a01b038116919082900361010f5760405163429b62e560e01b8152336004820152604435916020826024817f00000000000000000000000000000000000000000000000000000000000000006001600160a01b03165afa90811561028b576101c76020927ff24ef89f38eadc1bde50701ad6e4d6d11a2dc24f7cf834a486991f3883328504945f9161025e575b50610cfd565b60405163a9059cbb60e01b8382019081523360248301526044820186905261021e915f91829161020481606481015b03601f198101835282610caf565b519082865af1610212610e18565b81610231575b50610e57565b6040519384526001600160a01b031692a3005b8051801592508215610246575b505087610218565b610257925081018501908501610ce5565b878061023e565b61027e9150843d8611610284575b6102768183610caf565b810190610ce5565b876101c1565b503d61026c565b6040513d5f823e3d90fd5b3461010f575f36600319011261010f576020600754604051908152f35b3461010f57602036600319011261010f576001600160a01b036102d4610c99565b165f526006602052602060405f2054604051908152f35b3461010f57604036600319011261010f57610304610c99565b60405163429b62e560e01b81523360048201526020816024817f00000000000000000000000000000000000000000000000000000000000000006001600160a01b03165afa90811561028b575f91610448575b50156104125760405163a9059cbb60e01b602082019081526001600160a01b039092166024808301919091523560448201526103e1915f9182919061039f81606481016101f6565b5190827f00000000000000000000000000000000000000000000000000000000000000006001600160a01b03165af16103d6610e18565b816103e35750610e57565b005b80518015925082156103f8575b505082610218565b61040b9250602080918301019101610ce5565b82806103f0565b60405162461bcd60e51b815260206004820152600e60248201526d139bdd08185d5d1a1bdc9a5e995960921b6044820152606490fd5b610461915060203d602011610284576102768183610caf565b82610357565b3461010f57602036600319011261010f5760043561048860015f5414610d35565b60025f5561049b60ff6001541615610d81565b6104a6811515610db6565b5f8060405160208101906323b872dd60e01b8252336024820152306044820152846064820152606481526104db608482610caf565b5190827f00000000000000000000000000000000000000000000000000000000000000006001600160a01b03165af1610512610e18565b816105dd575b50156105a657335f52600260205260405f20610535828254610e9b565b905561054381600354610e9b565b600355335f52600660205260405f2061055d828254610e9b565b905561056b81600754610e9b565b6007556040519080825260208201527f73a19dd210f1a7f902193214c0ee91dd35ee5b4d920cba8d519eca65a7b488ca60403392a260015f55005b60405162461bcd60e51b815260206004820152600f60248201526e151c985b9cd9995c8819985a5b1959608a1b6044820152606490fd5b80518015925082156105f2575b505082610518565b6106059250602080918301019101610ce5565b82806105ea565b3461010f575f36600319011261010f5760405163429b62e560e01b81523360048201526020816024817f00000000000000000000000000000000000000000000000000000000000000006001600160a01b03165afa801561028b57610677915f916106ea5750610cfd565b60015460ff81166106b45760019060ff191617600155337f62e78cea01bee320cd4e420270b5ea74000d11b0c9f74754ebdbfc544b05a2585f80a2005b60405162461bcd60e51b815260206004820152600e60248201526d105b1c9958591e481c185d5cd95960921b6044820152606490fd5b610703915060203d602011610284576102768183610caf565b826101c1565b3461010f575f36600319011261010f576020600354604051908152f35b3461010f575f36600319011261010f57602060ff600154166040519015158152f35b3461010f575f36600319011261010f5760405163429b62e560e01b81523360048201526020816024817f00000000000000000000000000000000000000000000000000000000000000006001600160a01b03165afa801561028b576107b3915f916106ea5750610cfd565b60015460ff8116156107ed5760ff1916600155337f5db9ee0a495bf2e6ff9c91a7834c1ba4fdd244a5e8aa4e537bd38aeae4b073aa5f80a2005b60405162461bcd60e51b815260206004820152600a602482015269139bdd081c185d5cd95960b21b6044820152606490fd5b3461010f57602036600319011261010f5760043561084060015f5414610d35565b60025f5561085360ff6001541615610d81565b335f52600860205260ff60405f20541615610adc57610873811515610db6565b335f5260026020528060405f205410610aa057335f5260066020528060405f205410610a65576040516370a0823160e01b81523060048201527f00000000000000000000000000000000000000000000000000000000000000006001600160a01b031690602081602481855afa801561028b5783915f91610a30575b50106109f2575f8061099192338252600260205260408220610912868254610df7565b905561092085600354610df7565b60035533825260066020526040822061093a868254610df7565b905561094885600754610df7565b60075560405163a9059cbb60e01b602082019081523360248301526044820187905290839061097a81606481016101f6565b51925af1610986610e18565b816109c35750610e57565b6040519081527f7084f5476618d8e60b11ef0d7d3f06914655adb8793e28ff7f018d4c76d505d560203392a260015f55005b80518015925082156109d8575b505083610218565b6109eb9250602080918301019101610ce5565b83806109d0565b60405162461bcd60e51b8152602060048201526016602482015275496e73756666696369656e74206c697175696469747960501b6044820152606490fd5b9150506020813d602011610a5d575b81610a4c60209383610caf565b8101031261010f57829051846108ef565b3d9150610a3f565b60405162461bcd60e51b8152602060048201526013602482015272496e73756666696369656e742073686172657360681b6044820152606490fd5b60405162461bcd60e51b8152602060048201526014602482015273125b9cdd59999a58da595b9d0819195c1bdcda5d60621b6044820152606490fd5b60405162461bcd60e51b815260206004820152600f60248201526e139bdd081dda1a5d195b1a5cdd1959608a1b6044820152606490fd5b3461010f57604036600319011261010f57610b2c610c99565b6024359081151580920361010f5760405163429b62e560e01b81523360048201526020816024817f00000000000000000000000000000000000000000000000000000000000000006001600160a01b03165afa801561028b57610b95915f91610bb95750610cfd565b60018060a01b03165f52600860205260405f209060ff801983541691161790555f80f35b610bd2915060203d602011610284576102768183610caf565b846101c1565b3461010f575f36600319011261010f576040517f00000000000000000000000000000000000000000000000000000000000000006001600160a01b03168152602090f35b3461010f575f36600319011261010f576040517f00000000000000000000000000000000000000000000000000000000000000006001600160a01b03168152602090f35b3461010f57602036600319011261010f576020906001600160a01b03610c84610c99565b165f526008825260ff60405f20541615158152f35b600435906001600160a01b038216820361010f57565b90601f8019910116810190811067ffffffffffffffff821117610cd157604052565b634e487b7160e01b5f52604160045260245ffd5b9081602091031261010f5751801515810361010f5790565b15610d0457565b60405162461bcd60e51b81526020600482015260096024820152682737ba1030b236b4b760b91b6044820152606490fd5b15610d3c57565b60405162461bcd60e51b815260206004820152601f60248201527f5265656e7472616e637947756172643a207265656e7472616e742063616c6c006044820152606490fd5b15610d8857565b60405162461bcd60e51b815260206004820152600660248201526514185d5cd95960d21b6044820152606490fd5b15610dbd57565b60405162461bcd60e51b81526020600482015260126024820152710416d6f756e74206d757374206265203e20360741b6044820152606490fd5b91908203918211610e0457565b634e487b7160e01b5f52601160045260245ffd5b3d15610e52573d9067ffffffffffffffff8211610cd15760405191610e47601f8201601f191660200184610caf565b82523d5f602084013e565b606090565b15610e5e57565b60405162461bcd60e51b8152602060048201526015602482015274151490cc8c081d1c985b9cd9995c8819985a5b1959605a1b6044820152606490fd5b91908201809211610e045756fea26469706673582212200a3916c71ca9a023bb7403e2b467e9fb43441cf12551ea1db9f35480fc39bc5a64736f6c634300081e0033",
  "source": "// SPDX-License-Identifier: MIT\r\npragma solidity ^0.8.23;\r\n\r\nimport \"../libs/SafeTRC20.sol\";\r\nimport \"../libs/ReentrancyGuard.sol\";\r\n\r\ninterface IAccessControl {\r\n    function admins(address account) external view returns (bool);\r\n}\r\n\r\n/**\r\n * @title LiquidityPoolV3\r\n * @notice Gas-optimized TRON liquidity pool for a single token with whitelist & emergency features\r\n */\r\ncontract LiquidityPoolV11 is ReentrancyGuard {\r\n    using SafeTRC20 for ITRC20;\r\n\r\n    ITRC20 public immutable tokenA; // USDT\r\n    IAccessControl public immutable accessControl;\r\n\r\n    bool public paused;\r\n\r\n    mapping(address => uint256) public deposits; // lender => amount (single token)\r\n    uint256 public totalDeposits;\r\n\r\n    address[] private depositors;\r\n    mapping(address => bool) private hasDeposited;\r\n\r\n\r\n    mapping(address => uint256) public shares; // lender -> shares\r\n    uint256 public totalShares;\r\n\r\n    mapping(address => bool) public withdrawWhitelist;\r\n\r\n    event Deposited(address indexed lender, uint256 amount, uint256 shares);\r\n    event Withdrawn(address indexed lender, uint256 amount);\r\n    event Paused(address indexed by);\r\n    event Unpaused(address indexed by);\r\n    event EmergencyWithdraw(address indexed token, address indexed to, uint256 amount);\r\n\r\n    constructor(address _tokenA, address _accessControl) {\r\n        require(_tokenA != address(0) && _accessControl != address(0), \"Invalid addresses\");\r\n        tokenA = ITRC20(_tokenA);\r\n        accessControl = IAccessControl(_accessControl);\r\n    }\r\n\r\n    modifier onlyAdmin() {\r\n        require(accessControl.admins(msg.sender), \"Not admin\");\r\n        _;\r\n    }\r\n\r\n    modifier whenNotPaused() {\r\n        require(!paused, \"Paused\");\r\n        _;\r\n    }\r\n\r\n    function pause() external onlyAdmin {\r\n        require(!paused, \"Already paused\");\r\n        paused = true;\r\n        emit Paused(msg.sender);\r\n    }\r\n\r\n    function unpause() external onlyAdmin {\r\n        require(paused, \"Not paused\");\r\n        paused = false;\r\n        emit Unpaused(msg.sender);\r\n    }\r\n\r\n    function setWithdrawWhitelist(address who, bool allowed) external onlyAdmin {\r\n        withdrawWhitelist[who] = allowed;\r\n    }\r\n\r\n    function deposit(uint256 amount) external nonReentrant whenNotPaused {\r\n        require(amount > 0, \"Amount must be > 0\");\r\n\r\n        /*uint256 balBefore = tokenA.balanceOf(address(this));\r\n        tokenA.safeTransferFrom(msg.sender, address(this), amount);\r\n        uint256 balAfter = tokenA.balanceOf(address(this));\r\n        uint256 received = balAfter - balBefore;\r\n        require(received > 0, \"No tokens received\");*/\r\n\r\n        (bool success, bytes memory data) = address(tokenA).call(\r\n            abi.encodeWithSignature(\"transferFrom(address,address,uint256)\", msg.sender, address(this), amount)\r\n        );\r\n        require(success && (data.length == 0 || abi.decode(data, (bool))), \"Transfer failed\");\r\n        uint256 received = amount;\r\n\r\n        deposits[msg.sender] += received;\r\n        totalDeposits += received;\r\n\r\n        shares[msg.sender] += received;\r\n        totalShares += received;\r\n\r\n        emit Deposited(msg.sender, received, received);\r\n    }\r\n\r\n    function withdraw(uint256 amount) external nonReentrant whenNotPaused {\r\n        require(withdrawWhitelist[msg.sender], \"Not whitelisted\");\r\n        require(amount > 0, \"Amount must be > 0\");\r\n        require(deposits[msg.sender] >= amount, \"Insufficient deposit\");\r\n        require(shares[msg.sender] >= amount, \"Insufficient shares\");\r\n        require(tokenA.balanceOf(address(this)) >= amount, \"Insufficient liquidity\");\r\n\r\n        deposits[msg.sender] -= amount;\r\n        totalDeposits -= amount;\r\n\r\n        shares[msg.sender] -= amount;\r\n        totalShares -= amount;\r\n\r\n        //tokenA.safeTransfer(msg.sender, amount);\r\n\r\n        (bool success, bytes memory data) = address(tokenA).call(\r\n            abi.encodeWithSignature(\"transfer(address,uint256)\", msg.sender, amount)\r\n        );\r\n        require(success && (data.length == 0 || abi.decode(data, (bool))), \"TRC20 transfer failed\");\r\n\r\n\r\n        emit Withdrawn(msg.sender, amount);\r\n    }\r\n\r\n    function pullFunds(address to, uint256 amount) external {\r\n        require(accessControl.admins(msg.sender), \"Not authorized\");\r\n        //tokenA.safeTransfer(to, amount);\r\n        (bool success, bytes memory data) = address(tokenA).call(\r\n            abi.encodeWithSignature(\"transfer(address,uint256)\", to, amount)\r\n        );\r\n        require(success && (data.length == 0 || abi.decode(data, (bool))), \"TRC20 transfer failed\");\r\n\r\n    }\r\n\r\n    function emergencyWithdraw(address token, address to, uint256 amount) external onlyAdmin {\r\n        //ITRC20(token).safeTransfer(to, amount);\r\n\r\n        (bool success, bytes memory data) = address(token).call(\r\n            abi.encodeWithSignature(\"transfer(address,uint256)\", msg.sender, amount)\r\n        );\r\n        require(success && (data.length == 0 || abi.decode(data, (bool))), \"TRC20 transfer failed\");\r\n\r\n        emit EmergencyWithdraw(token, to, amount);\r\n    }\r\n\r\n    // Returns the total amount of tokenA deposited in the pool \r\n    function getTotalShares() external view returns (uint256) \r\n    { \r\n        return totalShares;\r\n    }\r\n\r\n    function getTotalDeposits() external view returns (uint256) \r\n    { \r\n        return totalDeposits;\r\n    }\r\n\r\n      \r\n}\r\n",
  "sourcePath": "C:/workspace/tronbfpay/contracts/v3/LiquidityPoolV11.sol",
  "compiler": {
    "name": "solc",
    "version": "0.8.30+commit.73712a01.Emscripten.clang"
  },
  "schemaVersion": "2.0.1",
  "updatedAt": "2025-10-09T13:04:12.879Z"
}