{
  "contractName": "LiquidityPoolV4",
  "abi": [
    {
      "inputs": [
        {
          "internalType": "address",
          "name": "_tokenA",
          "type": "address"
        },
        {
          "internalType": "address",
          "name": "_accessControl",
          "type": "address"
        }
      ],
      "stateMutability": "nonpayable",
      "type": "constructor"
    },
    {
      "anonymous": false,
      "inputs": [
        {
          "indexed": true,
          "internalType": "address",
          "name": "lender",
          "type": "address"
        },
        {
          "indexed": false,
          "internalType": "uint256",
          "name": "amount",
          "type": "uint256"
        },
        {
          "indexed": false,
          "internalType": "uint256",
          "name": "shares",
          "type": "uint256"
        }
      ],
      "name": "Deposited",
      "type": "event"
    },
    {
      "anonymous": false,
      "inputs": [
        {
          "indexed": true,
          "internalType": "address",
          "name": "token",
          "type": "address"
        },
        {
          "indexed": true,
          "internalType": "address",
          "name": "to",
          "type": "address"
        },
        {
          "indexed": false,
          "internalType": "uint256",
          "name": "amount",
          "type": "uint256"
        }
      ],
      "name": "EmergencyWithdraw",
      "type": "event"
    },
    {
      "anonymous": false,
      "inputs": [
        {
          "indexed": true,
          "internalType": "address",
          "name": "by",
          "type": "address"
        }
      ],
      "name": "Paused",
      "type": "event"
    },
    {
      "anonymous": false,
      "inputs": [
        {
          "indexed": true,
          "internalType": "address",
          "name": "by",
          "type": "address"
        }
      ],
      "name": "Unpaused",
      "type": "event"
    },
    {
      "anonymous": false,
      "inputs": [
        {
          "indexed": true,
          "internalType": "address",
          "name": "lender",
          "type": "address"
        },
        {
          "indexed": false,
          "internalType": "uint256",
          "name": "amount",
          "type": "uint256"
        }
      ],
      "name": "Withdrawn",
      "type": "event"
    },
    {
      "inputs": [],
      "name": "accessControl",
      "outputs": [
        {
          "internalType": "contract IAccessControl",
          "name": "",
          "type": "address"
        }
      ],
      "stateMutability": "view",
      "type": "function"
    },
    {
      "inputs": [
        {
          "internalType": "uint256",
          "name": "amount",
          "type": "uint256"
        }
      ],
      "name": "deposit",
      "outputs": [],
      "stateMutability": "nonpayable",
      "type": "function"
    },
    {
      "inputs": [
        {
          "internalType": "address",
          "name": "",
          "type": "address"
        }
      ],
      "name": "deposits",
      "outputs": [
        {
          "internalType": "uint256",
          "name": "",
          "type": "uint256"
        }
      ],
      "stateMutability": "view",
      "type": "function"
    },
    {
      "inputs": [
        {
          "internalType": "address",
          "name": "token",
          "type": "address"
        },
        {
          "internalType": "address",
          "name": "to",
          "type": "address"
        },
        {
          "internalType": "uint256",
          "name": "amount",
          "type": "uint256"
        }
      ],
      "name": "emergencyWithdraw",
      "outputs": [],
      "stateMutability": "nonpayable",
      "type": "function"
    },
    {
      "inputs": [],
      "name": "pause",
      "outputs": [],
      "stateMutability": "nonpayable",
      "type": "function"
    },
    {
      "inputs": [],
      "name": "paused",
      "outputs": [
        {
          "internalType": "bool",
          "name": "",
          "type": "bool"
        }
      ],
      "stateMutability": "view",
      "type": "function"
    },
    {
      "inputs": [
        {
          "internalType": "address",
          "name": "to",
          "type": "address"
        },
        {
          "internalType": "uint256",
          "name": "amount",
          "type": "uint256"
        }
      ],
      "name": "pullFunds",
      "outputs": [],
      "stateMutability": "nonpayable",
      "type": "function"
    },
    {
      "inputs": [
        {
          "internalType": "address",
          "name": "who",
          "type": "address"
        },
        {
          "internalType": "bool",
          "name": "allowed",
          "type": "bool"
        }
      ],
      "name": "setWithdrawWhitelist",
      "outputs": [],
      "stateMutability": "nonpayable",
      "type": "function"
    },
    {
      "inputs": [
        {
          "internalType": "address",
          "name": "",
          "type": "address"
        }
      ],
      "name": "shares",
      "outputs": [
        {
          "internalType": "uint256",
          "name": "",
          "type": "uint256"
        }
      ],
      "stateMutability": "view",
      "type": "function"
    },
    {
      "inputs": [],
      "name": "tokenA",
      "outputs": [
        {
          "internalType": "contract ITRC20",
          "name": "",
          "type": "address"
        }
      ],
      "stateMutability": "view",
      "type": "function"
    },
    {
      "inputs": [],
      "name": "totalDeposits",
      "outputs": [
        {
          "internalType": "uint256",
          "name": "",
          "type": "uint256"
        }
      ],
      "stateMutability": "view",
      "type": "function"
    },
    {
      "inputs": [],
      "name": "totalShares",
      "outputs": [
        {
          "internalType": "uint256",
          "name": "",
          "type": "uint256"
        }
      ],
      "stateMutability": "view",
      "type": "function"
    },
    {
      "inputs": [],
      "name": "unpause",
      "outputs": [],
      "stateMutability": "nonpayable",
      "type": "function"
    },
    {
      "inputs": [
        {
          "internalType": "uint256",
          "name": "amount",
          "type": "uint256"
        }
      ],
      "name": "withdraw",
      "outputs": [],
      "stateMutability": "nonpayable",
      "type": "function"
    },
    {
      "inputs": [
        {
          "internalType": "address",
          "name": "",
          "type": "address"
        }
      ],
      "name": "withdrawWhitelist",
      "outputs": [
        {
          "internalType": "bool",
          "name": "",
          "type": "bool"
        }
      ],
      "stateMutability": "view",
      "type": "function"
    }
  ],
  "bytecode": "0x60c03461012157601f610f0a38819003918201601f19168301916001600160401b0383118484101761012557808492604094855283398101031261012157610052602061004b83610139565b9201610139565b60015f55906001600160a01b03168015158061010f575b156100d6576080526001600160a01b031660a052604051610dbc908161014e82396080518181816102ba015281816103ae015281816107e40152610af8015260a05181818161014a01528181610272015281816105500152818161068c01528181610a1c0152610ab40152f35b60405162461bcd60e51b8152602060048201526011602482015270496e76616c69642061646472657373657360781b6044820152606490fd5b506001600160a01b0382161515610069565b5f80fd5b634e487b7160e01b5f52604160045260245ffd5b51906001600160a01b03821682036101215756fe6080806040526004361015610012575f80fd5b5f3560e01c908163046f5fb014610b27575080630fc63d1014610ae357806313007d5514610a9f5780632b827a4b146109da5780632e1a7d4d146107555780633a98ef39146107385780633f4ba83a146106615780635c975abb1461063f5780637d882097146106225780638456cb5914610525578063b6b55f2514610335578063c6cdbcbb1461023e578063ce7c2ac214610206578063e63ea408146100fd5763fc7e286d146100c1575f80fd5b346100f95760203660031901126100f9576001600160a01b036100e2610b60565b165f526002602052602060405f2054604051908152f35b5f80fd5b346100f95760603660031901126100f957610116610b60565b6024356001600160a01b038116918282036100f95760405163429b62e560e01b8152336004820152906044356020836024817f00000000000000000000000000000000000000000000000000000000000000006001600160a01b03165afa9283156101fb57816020936101b57ff24ef89f38eadc1bde50701ad6e4d6d11a2dc24f7cf834a486991f3883328504966101c5945f916101ce575b50610bb0565b6001600160a01b03169586610cd8565b604051908152a3005b6101ee9150873d89116101f4575b6101e68183610b76565b810190610b98565b8a6101af565b503d6101dc565b6040513d5f823e3d90fd5b346100f95760203660031901126100f9576001600160a01b03610227610b60565b165f526004602052602060405f2054604051908152f35b346100f95760403660031901126100f957610257610b60565b60405163429b62e560e01b81523360048201526020816024817f00000000000000000000000000000000000000000000000000000000000000006001600160a01b03165afa9081156101fb575f91610316575b50156102e0576102de90602435907f0000000000000000000000000000000000000000000000000000000000000000610cd8565b005b60405162461bcd60e51b815260206004820152600e60248201526d139bdd08185d5d1a1bdc9a5e995960921b6044820152606490fd5b61032f915060203d6020116101f4576101e68183610b76565b826102aa565b346100f95760203660031901126100f95760043561035660015f5414610be8565b60025f5561036960ff6001541615610c34565b610374811515610c69565b5f8060405160208101906323b872dd60e01b8252336024820152306044820152846064820152606481526103a9608482610b76565b5190827f00000000000000000000000000000000000000000000000000000000000000006001600160a01b03165af13d1561051e573d67ffffffffffffffff811161050a5760405190610406601f8201601f191660200183610b76565b81523d5f602083013e5b816104db575b50156104a457335f52600260205260405f20610433828254610ccb565b905561044181600354610ccb565b600355335f52600460205260405f2061045b828254610ccb565b905561046981600554610ccb565b6005556040519080825260208201527f73a19dd210f1a7f902193214c0ee91dd35ee5b4d920cba8d519eca65a7b488ca60403392a260015f55005b60405162461bcd60e51b815260206004820152600f60248201526e151c985b9cd9995c8819985a5b1959608a1b6044820152606490fd5b80518015925082156104f0575b505082610416565b6105039250602080918301019101610b98565b82806104e8565b634e487b7160e01b5f52604160045260245ffd5b6060610410565b346100f9575f3660031901126100f95760405163429b62e560e01b81523360048201526020816024817f00000000000000000000000000000000000000000000000000000000000000006001600160a01b03165afa80156101fb57610590915f916106035750610bb0565b60015460ff81166105cd5760019060ff191617600155337f62e78cea01bee320cd4e420270b5ea74000d11b0c9f74754ebdbfc544b05a2585f80a2005b60405162461bcd60e51b815260206004820152600e60248201526d105b1c9958591e481c185d5cd95960921b6044820152606490fd5b61061c915060203d6020116101f4576101e68183610b76565b826101af565b346100f9575f3660031901126100f9576020600354604051908152f35b346100f9575f3660031901126100f957602060ff600154166040519015158152f35b346100f9575f3660031901126100f95760405163429b62e560e01b81523360048201526020816024817f00000000000000000000000000000000000000000000000000000000000000006001600160a01b03165afa80156101fb576106cc915f916106035750610bb0565b60015460ff8116156107065760ff1916600155337f5db9ee0a495bf2e6ff9c91a7834c1ba4fdd244a5e8aa4e537bd38aeae4b073aa5f80a2005b60405162461bcd60e51b815260206004820152600a602482015269139bdd081c185d5cd95960b21b6044820152606490fd5b346100f9575f3660031901126100f9576020600554604051908152f35b346100f95760203660031901126100f95760043561077660015f5414610be8565b60025f5561078960ff6001541615610c34565b335f52600660205260ff60405f205416156109a3576107a9811515610c69565b335f5260026020528060405f20541061096757335f5260046020528060405f20541061092c576040516370a0823160e01b81523060048201527f0000000000000000000000000000000000000000000000000000000000000000906020816024816001600160a01b0386165afa80156101fb5783915f916108f7575b50106108b9578161088791335f52600260205260405f20610847838254610caa565b905561085582600354610caa565b600355335f52600460205260405f2061086f838254610caa565b905561087d82600554610caa565b6005553390610cd8565b6040519081527f7084f5476618d8e60b11ef0d7d3f06914655adb8793e28ff7f018d4c76d505d560203392a260015f55005b60405162461bcd60e51b8152602060048201526016602482015275496e73756666696369656e74206c697175696469747960501b6044820152606490fd5b9150506020813d602011610924575b8161091360209383610b76565b810103126100f95782905184610825565b3d9150610906565b60405162461bcd60e51b8152602060048201526013602482015272496e73756666696369656e742073686172657360681b6044820152606490fd5b60405162461bcd60e51b8152602060048201526014602482015273125b9cdd59999a58da595b9d0819195c1bdcda5d60621b6044820152606490fd5b60405162461bcd60e51b815260206004820152600f60248201526e139bdd081dda1a5d195b1a5cdd1959608a1b6044820152606490fd5b346100f95760403660031901126100f9576109f3610b60565b602435908115158092036100f95760405163429b62e560e01b81523360048201526020816024817f00000000000000000000000000000000000000000000000000000000000000006001600160a01b03165afa80156101fb57610a5c915f91610a805750610bb0565b60018060a01b03165f52600660205260405f209060ff801983541691161790555f80f35b610a99915060203d6020116101f4576101e68183610b76565b846101af565b346100f9575f3660031901126100f9576040517f00000000000000000000000000000000000000000000000000000000000000006001600160a01b03168152602090f35b346100f9575f3660031901126100f9576040517f00000000000000000000000000000000000000000000000000000000000000006001600160a01b03168152602090f35b346100f95760203660031901126100f9576020906001600160a01b03610b4b610b60565b165f526006825260ff60405f20541615158152f35b600435906001600160a01b03821682036100f957565b90601f8019910116810190811067ffffffffffffffff82111761050a57604052565b908160209103126100f9575180151581036100f95790565b15610bb757565b60405162461bcd60e51b81526020600482015260096024820152682737ba1030b236b4b760b91b6044820152606490fd5b15610bef57565b60405162461bcd60e51b815260206004820152601f60248201527f5265656e7472616e637947756172643a207265656e7472616e742063616c6c006044820152606490fd5b15610c3b57565b60405162461bcd60e51b815260206004820152600660248201526514185d5cd95960d21b6044820152606490fd5b15610c7057565b60405162461bcd60e51b81526020600482015260126024820152710416d6f756e74206d757374206265203e20360741b6044820152606490fd5b91908203918211610cb757565b634e487b7160e01b5f52601160045260245ffd5b91908201809211610cb757565b60405163a9059cbb60e01b81526001600160a01b0392831660048201526024810193909352602091839160449183915f91165af19081156101fb575f91610d67575b5015610d2257565b60405162461bcd60e51b815260206004820152601a60248201527f5361666554524332303a207472616e73666572206661696c65640000000000006044820152606490fd5b610d80915060203d6020116101f4576101e68183610b76565b5f610d1a56fea264697066735822122068944f8eb87550dab2febadce9cffddd634e189a321532898f8133d1ff4e2e6c64736f6c634300081e0033",
  "source": "// SPDX-License-Identifier: MIT\r\npragma solidity ^0.8.23;\r\n\r\nimport \"../libs/SafeTRC20.sol\";\r\nimport \"../libs/ReentrancyGuard.sol\";\r\n\r\ninterface IAccessControl {\r\n    function admins(address account) external view returns (bool);\r\n}\r\n\r\n/**\r\n * @title LiquidityPoolV3\r\n * @notice Gas-optimized TRON liquidity pool for a single token with whitelist & emergency features\r\n */\r\ncontract LiquidityPoolV4 is ReentrancyGuard {\r\n    using SafeTRC20 for ITRC20;\r\n\r\n    ITRC20 public immutable tokenA; // USDT\r\n    IAccessControl public immutable accessControl;\r\n\r\n    bool public paused;\r\n\r\n    mapping(address => uint256) public deposits; // lender => amount (single token)\r\n    uint256 public totalDeposits;\r\n\r\n    mapping(address => uint256) public shares; // lender -> shares\r\n    uint256 public totalShares;\r\n\r\n    mapping(address => bool) public withdrawWhitelist;\r\n\r\n    event Deposited(address indexed lender, uint256 amount, uint256 shares);\r\n    event Withdrawn(address indexed lender, uint256 amount);\r\n    event Paused(address indexed by);\r\n    event Unpaused(address indexed by);\r\n    event EmergencyWithdraw(address indexed token, address indexed to, uint256 amount);\r\n\r\n    constructor(address _tokenA, address _accessControl) {\r\n        require(_tokenA != address(0) && _accessControl != address(0), \"Invalid addresses\");\r\n        tokenA = ITRC20(_tokenA);\r\n        accessControl = IAccessControl(_accessControl);\r\n    }\r\n\r\n    modifier onlyAdmin() {\r\n        require(accessControl.admins(msg.sender), \"Not admin\");\r\n        _;\r\n    }\r\n\r\n    modifier whenNotPaused() {\r\n        require(!paused, \"Paused\");\r\n        _;\r\n    }\r\n\r\n    function pause() external onlyAdmin {\r\n        require(!paused, \"Already paused\");\r\n        paused = true;\r\n        emit Paused(msg.sender);\r\n    }\r\n\r\n    function unpause() external onlyAdmin {\r\n        require(paused, \"Not paused\");\r\n        paused = false;\r\n        emit Unpaused(msg.sender);\r\n    }\r\n\r\n    function setWithdrawWhitelist(address who, bool allowed) external onlyAdmin {\r\n        withdrawWhitelist[who] = allowed;\r\n    }\r\n\r\n    function deposit(uint256 amount) external nonReentrant whenNotPaused {\r\n        require(amount > 0, \"Amount must be > 0\");\r\n\r\n        /*uint256 balBefore = tokenA.balanceOf(address(this));\r\n        tokenA.safeTransferFrom(msg.sender, address(this), amount);\r\n        uint256 balAfter = tokenA.balanceOf(address(this));\r\n        uint256 received = balAfter - balBefore;\r\n        require(received > 0, \"No tokens received\");*/\r\n\r\n        (bool success, bytes memory data) = address(tokenA).call(\r\n            abi.encodeWithSignature(\"transferFrom(address,address,uint256)\", msg.sender, address(this), amount)\r\n        );\r\n        require(success && (data.length == 0 || abi.decode(data, (bool))), \"Transfer failed\");\r\n        uint256 received = amount;\r\n\r\n        deposits[msg.sender] += received;\r\n        totalDeposits += received;\r\n\r\n        shares[msg.sender] += received;\r\n        totalShares += received;\r\n\r\n        emit Deposited(msg.sender, received, received);\r\n    }\r\n\r\n    function withdraw(uint256 amount) external nonReentrant whenNotPaused {\r\n        require(withdrawWhitelist[msg.sender], \"Not whitelisted\");\r\n        require(amount > 0, \"Amount must be > 0\");\r\n        require(deposits[msg.sender] >= amount, \"Insufficient deposit\");\r\n        require(shares[msg.sender] >= amount, \"Insufficient shares\");\r\n        require(tokenA.balanceOf(address(this)) >= amount, \"Insufficient liquidity\");\r\n\r\n        deposits[msg.sender] -= amount;\r\n        totalDeposits -= amount;\r\n\r\n        shares[msg.sender] -= amount;\r\n        totalShares -= amount;\r\n\r\n        tokenA.safeTransfer(msg.sender, amount);\r\n\r\n        emit Withdrawn(msg.sender, amount);\r\n    }\r\n\r\n    function pullFunds(address to, uint256 amount) external {\r\n        require(accessControl.admins(msg.sender), \"Not authorized\");\r\n        tokenA.safeTransfer(to, amount);\r\n    }\r\n\r\n    function emergencyWithdraw(address token, address to, uint256 amount) external onlyAdmin {\r\n        ITRC20(token).safeTransfer(to, amount);\r\n        emit EmergencyWithdraw(token, to, amount);\r\n    }\r\n}\r\n",
  "sourcePath": "C:/workspace/tronbfpay/contracts/v3/LiquidityPoolV4.sol",
  "compiler": {
    "name": "solc",
    "version": "0.8.30+commit.73712a01.Emscripten.clang"
  },
  "schemaVersion": "2.0.1",
  "updatedAt": "2025-10-09T08:47:57.397Z"
}