{
  "contractName": "LiquidityPool",
  "abi": [
    {
      "constant": true,
      "inputs": [
        {
          "name": "",
          "type": "address"
        }
      ],
      "name": "withdrawWhitelist",
      "outputs": [
        {
          "name": "",
          "type": "bool"
        }
      ],
      "payable": false,
      "stateMutability": "view",
      "type": "function"
    },
    {
      "constant": true,
      "inputs": [],
      "name": "tokenA",
      "outputs": [
        {
          "name": "",
          "type": "address"
        }
      ],
      "payable": false,
      "stateMutability": "view",
      "type": "function"
    },
    {
      "constant": true,
      "inputs": [],
      "name": "accessControl",
      "outputs": [
        {
          "name": "",
          "type": "address"
        }
      ],
      "payable": false,
      "stateMutability": "view",
      "type": "function"
    },
    {
      "constant": false,
      "inputs": [
        {
          "name": "token",
          "type": "address"
        },
        {
          "name": "to",
          "type": "address"
        },
        {
          "name": "amount",
          "type": "uint256"
        }
      ],
      "name": "pullFunds",
      "outputs": [],
      "payable": false,
      "stateMutability": "nonpayable",
      "type": "function"
    },
    {
      "constant": false,
      "inputs": [
        {
          "name": "who",
          "type": "address"
        },
        {
          "name": "allowed",
          "type": "bool"
        }
      ],
      "name": "setWithdrawWhitelist",
      "outputs": [],
      "payable": false,
      "stateMutability": "nonpayable",
      "type": "function"
    },
    {
      "constant": false,
      "inputs": [],
      "name": "unpause",
      "outputs": [],
      "payable": false,
      "stateMutability": "nonpayable",
      "type": "function"
    },
    {
      "constant": false,
      "inputs": [
        {
          "name": "token",
          "type": "address"
        },
        {
          "name": "amount",
          "type": "uint256"
        }
      ],
      "name": "deposit",
      "outputs": [],
      "payable": false,
      "stateMutability": "nonpayable",
      "type": "function"
    },
    {
      "constant": true,
      "inputs": [],
      "name": "paused",
      "outputs": [
        {
          "name": "",
          "type": "bool"
        }
      ],
      "payable": false,
      "stateMutability": "view",
      "type": "function"
    },
    {
      "constant": true,
      "inputs": [
        {
          "name": "",
          "type": "address"
        },
        {
          "name": "",
          "type": "address"
        }
      ],
      "name": "shares",
      "outputs": [
        {
          "name": "",
          "type": "uint256"
        }
      ],
      "payable": false,
      "stateMutability": "view",
      "type": "function"
    },
    {
      "constant": false,
      "inputs": [],
      "name": "pause",
      "outputs": [],
      "payable": false,
      "stateMutability": "nonpayable",
      "type": "function"
    },
    {
      "constant": true,
      "inputs": [
        {
          "name": "",
          "type": "address"
        },
        {
          "name": "",
          "type": "address"
        }
      ],
      "name": "deposits",
      "outputs": [
        {
          "name": "",
          "type": "uint256"
        }
      ],
      "payable": false,
      "stateMutability": "view",
      "type": "function"
    },
    {
      "constant": true,
      "inputs": [
        {
          "name": "",
          "type": "address"
        }
      ],
      "name": "totalShares",
      "outputs": [
        {
          "name": "",
          "type": "uint256"
        }
      ],
      "payable": false,
      "stateMutability": "view",
      "type": "function"
    },
    {
      "constant": true,
      "inputs": [
        {
          "name": "",
          "type": "address"
        }
      ],
      "name": "totalDeposits",
      "outputs": [
        {
          "name": "",
          "type": "uint256"
        }
      ],
      "payable": false,
      "stateMutability": "view",
      "type": "function"
    },
    {
      "constant": false,
      "inputs": [
        {
          "name": "token",
          "type": "address"
        },
        {
          "name": "amount",
          "type": "uint256"
        }
      ],
      "name": "withdraw",
      "outputs": [],
      "payable": false,
      "stateMutability": "nonpayable",
      "type": "function"
    },
    {
      "inputs": [
        {
          "name": "_tokenA",
          "type": "address"
        },
        {
          "name": "_accessControl",
          "type": "address"
        }
      ],
      "payable": false,
      "stateMutability": "nonpayable",
      "type": "constructor"
    },
    {
      "anonymous": false,
      "inputs": [
        {
          "indexed": true,
          "name": "lender",
          "type": "address"
        },
        {
          "indexed": true,
          "name": "token",
          "type": "address"
        },
        {
          "indexed": false,
          "name": "amount",
          "type": "uint256"
        },
        {
          "indexed": false,
          "name": "shares",
          "type": "uint256"
        }
      ],
      "name": "Deposited",
      "type": "event"
    },
    {
      "anonymous": false,
      "inputs": [
        {
          "indexed": true,
          "name": "lender",
          "type": "address"
        },
        {
          "indexed": true,
          "name": "token",
          "type": "address"
        },
        {
          "indexed": false,
          "name": "amount",
          "type": "uint256"
        }
      ],
      "name": "Withdrawn",
      "type": "event"
    },
    {
      "anonymous": false,
      "inputs": [
        {
          "indexed": true,
          "name": "by",
          "type": "address"
        }
      ],
      "name": "Paused",
      "type": "event"
    },
    {
      "anonymous": false,
      "inputs": [
        {
          "indexed": true,
          "name": "by",
          "type": "address"
        }
      ],
      "name": "Unpaused",
      "type": "event"
    },
    {
      "anonymous": false,
      "inputs": [
        {
          "indexed": true,
          "name": "token",
          "type": "address"
        },
        {
          "indexed": true,
          "name": "to",
          "type": "address"
        },
        {
          "indexed": false,
          "name": "amount",
          "type": "uint256"
        }
      ],
      "name": "EmergencyWithdraw",
      "type": "event"
    }
  ],
  "bytecode": "0x608060405234801561001057600080fd5b50d3801561001d57600080fd5b50d2801561002a57600080fd5b5060405160408061261c8339810180604052604081101561004a57600080fd5b810190808051906020019092919080519060200190929190505050600160008190555081600160006101000a81548173ffffffffffffffffffffffffffffffffffffffff021916908373ffffffffffffffffffffffffffffffffffffffff16021790555080600260006101000a81548173ffffffffffffffffffffffffffffffffffffffff021916908373ffffffffffffffffffffffffffffffffffffffff1602179055506000600260146101000a81548160ff02191690831515021790555050506125018061011b6000396000f3fe608060405234801561001057600080fd5b50d3801561001d57600080fd5b50d2801561002a57600080fd5b5060043610610121576000357c0100000000000000000000000000000000000000000000000000000000900480635c975abb116100c35780638f601f661161009d5780638f601f66146103d0578063bf6b874e14610448578063e9403256146104a0578063f3fef3a3146104f857610121565b80635c975abb1461032c5780637df446471461034e5780638456cb59146103c657610121565b8063201add9b116100ff578063201add9b146102165780632b827a4b146102845780633f4ba83a146102d457806347e7ef24146102de57610121565b8063046f5fb0146101265780630fc63d101461018257806313007d55146101cc575b600080fd5b6101686004803603602081101561013c57600080fd5b81019080803573ffffffffffffffffffffffffffffffffffffffff169060200190929190505050610546565b604051808215151515815260200191505060405180910390f35b61018a610566565b604051808273ffffffffffffffffffffffffffffffffffffffff1673ffffffffffffffffffffffffffffffffffffffff16815260200191505060405180910390f35b6101d461058c565b604051808273ffffffffffffffffffffffffffffffffffffffff1673ffffffffffffffffffffffffffffffffffffffff16815260200191505060405180910390f35b6102826004803603606081101561022c57600080fd5b81019080803573ffffffffffffffffffffffffffffffffffffffff169060200190929190803573ffffffffffffffffffffffffffffffffffffffff169060200190929190803590602001909291905050506105b2565b005b6102d26004803603604081101561029a57600080fd5b81019080803573ffffffffffffffffffffffffffffffffffffffff1690602001909291908035151590602001909291905050506107ed565b005b6102dc610a53565b005b61032a600480360360408110156102f457600080fd5b81019080803573ffffffffffffffffffffffffffffffffffffffff16906020019092919080359060200190929190505050610df7565b005b610334611540565b604051808215151515815260200191505060405180910390f35b6103b06004803603604081101561036457600080fd5b81019080803573ffffffffffffffffffffffffffffffffffffffff169060200190929190803573ffffffffffffffffffffffffffffffffffffffff169060200190929190505050611553565b6040518082815260200191505060405180910390f35b6103ce611578565b005b610432600480360360408110156103e657600080fd5b81019080803573ffffffffffffffffffffffffffffffffffffffff169060200190929190803573ffffffffffffffffffffffffffffffffffffffff16906020019092919050505061191d565b6040518082815260200191505060405180910390f35b61048a6004803603602081101561045e57600080fd5b81019080803573ffffffffffffffffffffffffffffffffffffffff169060200190929190505050611942565b6040518082815260200191505060405180910390f35b6104e2600480360360208110156104b657600080fd5b81019080803573ffffffffffffffffffffffffffffffffffffffff16906020019092919050505061195a565b6040518082815260200191505060405180910390f35b6105446004803603604081101561050e57600080fd5b81019080803573ffffffffffffffffffffffffffffffffffffffff16906020019092919080359060200190929190505050611972565b005b60076020528060005260406000206000915054906101000a900460ff1681565b600160009054906101000a900473ffffffffffffffffffffffffffffffffffffffff1681565b600260009054906101000a900473ffffffffffffffffffffffffffffffffffffffff1681565b6000600260009054906101000a900473ffffffffffffffffffffffffffffffffffffffff1673ffffffffffffffffffffffffffffffffffffffff1633604051602401808273ffffffffffffffffffffffffffffffffffffffff1673ffffffffffffffffffffffffffffffffffffffff1681526020019150506040516020818303038152906040527f429b62e5000000000000000000000000000000000000000000000000000000007bffffffffffffffffffffffffffffffffffffffffffffffffffffffff19166020820180517bffffffffffffffffffffffffffffffffffffffffffffffffffffffff83818316178352505050506040518082805190602001908083835b6020831015156106dc57805182526020820191506020810190506020830392506106b7565b6001836020036101000a0380198251168184511680821785525050505050509050019150506000604051808303816000865af19150503d806000811461073e576040519150601f19603f3d011682016040523d82523d6000602084013e610743565b606091505b505090508015156107bc576040517f08c379a000000000000000000000000000000000000000000000000000000000815260040180806020018281038252600e8152602001807f6e6f7420617574686f72697a656400000000000000000000000000000000000081525060200191505060405180910390fd5b6107e783838673ffffffffffffffffffffffffffffffffffffffff166121c39092919063ffffffff16565b50505050565b6000600260009054906101000a900473ffffffffffffffffffffffffffffffffffffffff1673ffffffffffffffffffffffffffffffffffffffff1633604051602401808273ffffffffffffffffffffffffffffffffffffffff1673ffffffffffffffffffffffffffffffffffffffff1681526020019150506040516020818303038152906040527f429b62e5000000000000000000000000000000000000000000000000000000007bffffffffffffffffffffffffffffffffffffffffffffffffffffffff19166020820180517bffffffffffffffffffffffffffffffffffffffffffffffffffffffff83818316178352505050506040518082805190602001908083835b60208310151561091757805182526020820191506020810190506020830392506108f2565b6001836020036101000a0380198251168184511680821785525050505050509050019150506000604051808303816000865af19150503d8060008114610979576040519150601f19603f3d011682016040523d82523d6000602084013e61097e565b606091505b505090508015156109f7576040517f08c379a00000000000000000000000000000000000000000000000000000000081526004018080602001828103825260098152602001807f6e6f742061646d696e000000000000000000000000000000000000000000000081525060200191505060405180910390fd5b81600760008573ffffffffffffffffffffffffffffffffffffffff1673ffffffffffffffffffffffffffffffffffffffff16815260200190815260200160002060006101000a81548160ff021916908315150217905550505050565b60006060600260009054906101000a900473ffffffffffffffffffffffffffffffffffffffff1673ffffffffffffffffffffffffffffffffffffffff1633604051602401808273ffffffffffffffffffffffffffffffffffffffff1673ffffffffffffffffffffffffffffffffffffffff1681526020019150506040516020818303038152906040527f429b62e5000000000000000000000000000000000000000000000000000000007bffffffffffffffffffffffffffffffffffffffffffffffffffffffff19166020820180517bffffffffffffffffffffffffffffffffffffffffffffffffffffffff83818316178352505050506040518082805190602001908083835b602083101515610b7f5780518252602082019150602081019050602083039250610b5a565b6001836020036101000a0380198251168184511680821785525050505050509050019150506000604051808303816000865af19150503d8060008114610be1576040519150601f19603f3d011682016040523d82523d6000602084013e610be6565b606091505b5091509150600081511115610c9a576000818060200190516020811015610c0c57600080fd5b81019080805190602001909291905050509050801515610c94576040517f08c379a00000000000000000000000000000000000000000000000000000000081526004018080602001828103825260098152602001807f6e6f742061646d696e000000000000000000000000000000000000000000000081525060200191505060405180910390fd5b50610d11565b60001515610d10576040517f08c379a00000000000000000000000000000000000000000000000000000000081526004018080602001828103825260198152602001807f616363657373636f6e74726f6c2063616c6c206661696c65640000000000000081525060200191505060405180910390fd5b5b600260149054906101000a900460ff161515610d95576040517f08c379a00000000000000000000000000000000000000000000000000000000081526004018080602001828103825260118152602001807f5661756c743a206e6f742070617573656400000000000000000000000000000081525060200191505060405180910390fd5b6000600260146101000a81548160ff0219169083151502179055503373ffffffffffffffffffffffffffffffffffffffff167f5db9ee0a495bf2e6ff9c91a7834c1ba4fdd244a5e8aa4e537bd38aeae4b073aa60405160405180910390a25050565b6001600054141515610e71576040517f08c379a000000000000000000000000000000000000000000000000000000000815260040180806020018281038252600e8152602001807f5265656e7472616e742063616c6c00000000000000000000000000000000000081525060200191505060405180910390fd5b6002600081905550600260149054906101000a900460ff16151515610efe576040517f08c379a000000000000000000000000000000000000000000000000000000000815260040180806020018281038252600d8152602001807f5661756c743a207061757365640000000000000000000000000000000000000081525060200191505060405180910390fd5b600160009054906101000a900473ffffffffffffffffffffffffffffffffffffffff1673ffffffffffffffffffffffffffffffffffffffff168273ffffffffffffffffffffffffffffffffffffffff16141515610fc3576040517f08c379a00000000000000000000000000000000000000000000000000000000081526004018080602001828103825260148152602001807f5661756c743a20696e76616c696420746f6b656e00000000000000000000000081525060200191505060405180910390fd5b60008111151561103b576040517f08c379a00000000000000000000000000000000000000000000000000000000081526004018080602001828103825260198152602001807f5661756c743a20616d6f756e74206d757374206265203e20300000000000000081525060200191505060405180910390fd5b6000600160009054906101000a900473ffffffffffffffffffffffffffffffffffffffff16905060008173ffffffffffffffffffffffffffffffffffffffff166370a08231306040518263ffffffff167c0100000000000000000000000000000000000000000000000000000000028152600401808273ffffffffffffffffffffffffffffffffffffffff1673ffffffffffffffffffffffffffffffffffffffff16815260200191505060206040518083038186803b1580156110fd57600080fd5b505afa158015611111573d6000803e3d6000fd5b505050506040513d602081101561112757600080fd5b8101908080519060200190929190505050905061114682333086612320565b60008273ffffffffffffffffffffffffffffffffffffffff166370a08231306040518263ffffffff167c0100000000000000000000000000000000000000000000000000000000028152600401808273ffffffffffffffffffffffffffffffffffffffff1673ffffffffffffffffffffffffffffffffffffffff16815260200191505060206040518083038186803b1580156111e157600080fd5b505afa1580156111f5573d6000803e3d6000fd5b505050506040513d602081101561120b57600080fd5b81019080805190602001909291905050509050818110151515611296576040517f08c379a00000000000000000000000000000000000000000000000000000000081526004018080602001828103825260178152602001807f5661756c743a20696e76616c6964207472616e7366657200000000000000000081525060200191505060405180910390fd5b60008282039050600081111515611315576040517f08c379a00000000000000000000000000000000000000000000000000000000081526004018080602001828103825260198152602001807f5661756c743a206e6f20746f6b656e732072656365697665640000000000000081525060200191505060405180910390fd5b80600360003373ffffffffffffffffffffffffffffffffffffffff1673ffffffffffffffffffffffffffffffffffffffff16815260200190815260200160002060008873ffffffffffffffffffffffffffffffffffffffff1673ffffffffffffffffffffffffffffffffffffffff1681526020019081526020016000206000828254019250508190555080600460008873ffffffffffffffffffffffffffffffffffffffff1673ffffffffffffffffffffffffffffffffffffffff1681526020019081526020016000206000828254019250508190555080600560003373ffffffffffffffffffffffffffffffffffffffff1673ffffffffffffffffffffffffffffffffffffffff16815260200190815260200160002060008873ffffffffffffffffffffffffffffffffffffffff1673ffffffffffffffffffffffffffffffffffffffff1681526020019081526020016000206000828254019250508190555080600660008873ffffffffffffffffffffffffffffffffffffffff1673ffffffffffffffffffffffffffffffffffffffff168152602001908152602001600020600082825401925050819055508573ffffffffffffffffffffffffffffffffffffffff163373ffffffffffffffffffffffffffffffffffffffff167ff5681f9d0db1b911ac18ee83d515a1cf1051853a9eae418316a2fdf7dea427c58384604051808381526020018281526020019250505060405180910390a35050505060016000819055505050565b600260149054906101000a900460ff1681565b6005602052816000526040600020602052806000526040600020600091509150505481565b60006060600260009054906101000a900473ffffffffffffffffffffffffffffffffffffffff1673ffffffffffffffffffffffffffffffffffffffff1633604051602401808273ffffffffffffffffffffffffffffffffffffffff1673ffffffffffffffffffffffffffffffffffffffff1681526020019150506040516020818303038152906040527f429b62e5000000000000000000000000000000000000000000000000000000007bffffffffffffffffffffffffffffffffffffffffffffffffffffffff19166020820180517bffffffffffffffffffffffffffffffffffffffffffffffffffffffff83818316178352505050506040518082805190602001908083835b6020831015156116a4578051825260208201915060208101905060208303925061167f565b6001836020036101000a0380198251168184511680821785525050505050509050019150506000604051808303816000865af19150503d8060008114611706576040519150601f19603f3d011682016040523d82523d6000602084013e61170b565b606091505b50915091506000815111156117bf57600081806020019051602081101561173157600080fd5b810190808051906020019092919050505090508015156117b9576040517f08c379a00000000000000000000000000000000000000000000000000000000081526004018080602001828103825260098152602001807f6e6f742061646d696e000000000000000000000000000000000000000000000081525060200191505060405180910390fd5b50611836565b60001515611835576040517f08c379a00000000000000000000000000000000000000000000000000000000081526004018080602001828103825260198152602001807f616363657373636f6e74726f6c2063616c6c206661696c65640000000000000081525060200191505060405180910390fd5b5b600260149054906101000a900460ff161515156118bb576040517f08c379a00000000000000000000000000000000000000000000000000000000081526004018080602001828103825260158152602001807f5661756c743a20616c726561647920706175736564000000000000000000000081525060200191505060405180910390fd5b6001600260146101000a81548160ff0219169083151502179055503373ffffffffffffffffffffffffffffffffffffffff167f62e78cea01bee320cd4e420270b5ea74000d11b0c9f74754ebdbfc544b05a25860405160405180910390a25050565b6003602052816000526040600020602052806000526040600020600091509150505481565b60066020528060005260406000206000915090505481565b60046020528060005260406000206000915090505481565b60016000541415156119ec576040517f08c379a000000000000000000000000000000000000000000000000000000000815260040180806020018281038252600e8152602001807f5265656e7472616e742063616c6c00000000000000000000000000000000000081525060200191505060405180910390fd5b6002600081905550600260149054906101000a900460ff16151515611a79576040517f08c379a000000000000000000000000000000000000000000000000000000000815260040180806020018281038252600d8152602001807f5661756c743a207061757365640000000000000000000000000000000000000081525060200191505060405180910390fd5b600160009054906101000a900473ffffffffffffffffffffffffffffffffffffffff1673ffffffffffffffffffffffffffffffffffffffff168273ffffffffffffffffffffffffffffffffffffffff16141515611b3e576040517f08c379a00000000000000000000000000000000000000000000000000000000081526004018080602001828103825260148152602001807f5661756c743a20696e76616c696420746f6b656e00000000000000000000000081525060200191505060405180910390fd5b600760003373ffffffffffffffffffffffffffffffffffffffff1673ffffffffffffffffffffffffffffffffffffffff16815260200190815260200160002060009054906101000a900460ff161515611bff576040517f08c379a00000000000000000000000000000000000000000000000000000000081526004018080602001828103825260168152602001807f5661756c743a206e6f742077686974656c69737465640000000000000000000081525060200191505060405180910390fd5b600081111515611c77576040517f08c379a00000000000000000000000000000000000000000000000000000000081526004018080602001828103825260198152602001807f5661756c743a20616d6f756e74206d757374206265203e20300000000000000081525060200191505060405180910390fd5b80600360003373ffffffffffffffffffffffffffffffffffffffff1673ffffffffffffffffffffffffffffffffffffffff16815260200190815260200160002060008473ffffffffffffffffffffffffffffffffffffffff1673ffffffffffffffffffffffffffffffffffffffff1681526020019081526020016000205410151515611d6b576040517f08c379a000000000000000000000000000000000000000000000000000000000815260040180806020018281038252601b8152602001807f5661756c743a20696e73756666696369656e74206465706f736974000000000081525060200191505060405180910390fd5b80600560003373ffffffffffffffffffffffffffffffffffffffff1673ffffffffffffffffffffffffffffffffffffffff16815260200190815260200160002060008473ffffffffffffffffffffffffffffffffffffffff1673ffffffffffffffffffffffffffffffffffffffff1681526020019081526020016000205410151515611e5f576040517f08c379a000000000000000000000000000000000000000000000000000000000815260040180806020018281038252601a8152602001807f5661756c743a20696e73756666696369656e742073686172657300000000000081525060200191505060405180910390fd5b600082905060008173ffffffffffffffffffffffffffffffffffffffff166370a08231306040518263ffffffff167c0100000000000000000000000000000000000000000000000000000000028152600401808273ffffffffffffffffffffffffffffffffffffffff1673ffffffffffffffffffffffffffffffffffffffff16815260200191505060206040518083038186803b158015611eff57600080fd5b505afa158015611f13573d6000803e3d6000fd5b505050506040513d6020811015611f2957600080fd5b81019080805190602001909291905050509050828110151515611f97576040517f08c379a00000000000000000000000000000000000000000000000000000000081526004018080602001828103825260238152602001806124b36023913960400191505060405180910390fd5b82600360003373ffffffffffffffffffffffffffffffffffffffff1673ffffffffffffffffffffffffffffffffffffffff16815260200190815260200160002060008673ffffffffffffffffffffffffffffffffffffffff1673ffffffffffffffffffffffffffffffffffffffff1681526020019081526020016000206000828254039250508190555082600460008673ffffffffffffffffffffffffffffffffffffffff1673ffffffffffffffffffffffffffffffffffffffff1681526020019081526020016000206000828254039250508190555082600560003373ffffffffffffffffffffffffffffffffffffffff1673ffffffffffffffffffffffffffffffffffffffff16815260200190815260200160002060008673ffffffffffffffffffffffffffffffffffffffff1673ffffffffffffffffffffffffffffffffffffffff1681526020019081526020016000206000828254039250508190555082600660008673ffffffffffffffffffffffffffffffffffffffff1673ffffffffffffffffffffffffffffffffffffffff168152602001908152602001600020600082825403925050819055506121508233856121c3565b8373ffffffffffffffffffffffffffffffffffffffff163373ffffffffffffffffffffffffffffffffffffffff167fd1c19fbcd4551a5edfb66d43d2e337c04837afda3482b42bdf569a8fccdae5fb856040518082815260200191505060405180910390a3505060016000819055505050565b60008373ffffffffffffffffffffffffffffffffffffffff1663a9059cbb84846040518363ffffffff167c0100000000000000000000000000000000000000000000000000000000028152600401808373ffffffffffffffffffffffffffffffffffffffff1673ffffffffffffffffffffffffffffffffffffffff16815260200182815260200192505050602060405180830381600087803b15801561226857600080fd5b505af115801561227c573d6000803e3d6000fd5b505050506040513d602081101561229257600080fd5b8101908080519060200190929190505050905080151561231a576040517f08c379a000000000000000000000000000000000000000000000000000000000815260040180806020018281038252601a8152602001807f5361666554524332303a207472616e73666572206661696c656400000000000081525060200191505060405180910390fd5b50505050565b60008473ffffffffffffffffffffffffffffffffffffffff166323b872dd8585856040518463ffffffff167c0100000000000000000000000000000000000000000000000000000000028152600401808473ffffffffffffffffffffffffffffffffffffffff1673ffffffffffffffffffffffffffffffffffffffff1681526020018373ffffffffffffffffffffffffffffffffffffffff1673ffffffffffffffffffffffffffffffffffffffff1681526020018281526020019350505050602060405180830381600087803b1580156123f957600080fd5b505af115801561240d573d6000803e3d6000fd5b505050506040513d602081101561242357600080fd5b810190808051906020019092919050505090508015156124ab576040517f08c379a000000000000000000000000000000000000000000000000000000000815260040180806020018281038252601e8152602001807f5361666554524332303a207472616e7366657246726f6d206661696c6564000081525060200191505060405180910390fd5b505050505056fe5661756c743a20696e73756666696369656e74207661756c74206c6971756964697479a165627a7a72305820c66c972f12e710df1184733f244d33319cff9e3d7da4c9ad1612d7008c40939b0029",
  "source": "// SPDX-License-Identifier: MIT\npragma solidity ^0.5.4;\n\nimport \"../libs/SafeTRC20.sol\";\nimport \"../libs/ReentrancyGuard.sol\";\n\ncontract LiquidityPool is ReentrancyGuard {\n    using SafeTRC20 for ITRC20;\n\n    ITRC20 public tokenA; // USDT\n    address public accessControl;\n    bool public paused;\n\n    // lender => token => amount\n    mapping(address => mapping(address => uint256)) public deposits;\n    // total deposits per token\n    mapping(address => uint256) public totalDeposits;\n\n    // simple LP shares (scaled)\n    mapping(address => mapping(address => uint256)) public shares; // lender -> token -> shares\n    mapping(address => uint256) public totalShares; // token -> total shares (stored in mapping key hack)\n\n    // withdrawal whitelist\n    mapping(address => bool) public withdrawWhitelist;\n\n    event Deposited(address indexed lender, address indexed token, uint256 amount, uint256 shares);\n    event Withdrawn(address indexed lender, address indexed token, uint256 amount);\n\n    event Paused(address indexed by);\n    event Unpaused(address indexed by);\n    event EmergencyWithdraw(address indexed token, address indexed to, uint256 amount);\n\n    constructor(address _tokenA, address _accessControl) public {\n        tokenA = ITRC20(_tokenA); \n        accessControl = _accessControl;\n        paused = false;\n    }\n\n    modifier onlyAdmin(){\n        (bool ok, bytes memory data) = accessControl.call(abi.encodeWithSignature(\"admins(address)\", msg.sender));\n        if(data.length>0) { bool isAdmin = abi.decode(data,(bool)); require(isAdmin, \"not admin\"); } else { require(false, \"accesscontrol call failed\"); }\n        _;\n    }\n\n    modifier whenNotPaused() {\n        require(!paused, \"Vault: paused\");\n        _;\n    }\n\n    // pause / unpause (circuit-breaker)\n    function pause() external onlyAdmin {\n        require(!paused, \"Vault: already paused\");\n        paused = true;\n        emit Paused(msg.sender);\n    }\n\n    function unpause() external onlyAdmin {\n        require(paused, \"Vault: not paused\");\n        paused = false;\n        emit Unpaused(msg.sender);\n    }\n\n\n    function setWithdrawWhitelist(address who, bool allowed) external {\n        // only admin via AccessControl should set, for simplicity allow accessControl to call\n        (bool ok,) = accessControl.call(abi.encodeWithSignature(\"admins(address)\", msg.sender));\n        require(ok, \"not admin\"); // best-effort check\n        withdrawWhitelist[who]=allowed;\n    }\n\n    function deposit(address token, uint256 amount) external nonReentrant whenNotPaused {\n        require(token == address(tokenA), \"Vault: invalid token\");\n        require(amount > 0, \"Vault: amount must be > 0\");\n\n        ITRC20 t = ITRC20(tokenA);\n\n        // Check balance before\n        uint256 balBefore = t.balanceOf(address(this));\n\n        // Transfer in tokens\n        SafeTRC20.safeTransferFrom(t, msg.sender, address(this), amount);\n\n        // Check actual received\n        uint256 balAfter = t.balanceOf(address(this));\n        require(balAfter >= balBefore, \"Vault: invalid transfer\");\n        uint256 received = balAfter - balBefore;\n        require(received > 0, \"Vault: no tokens received\");\n\n        // Update accounting using received amount\n        deposits[msg.sender][token] += received;\n        totalDeposits[token] += received;\n        shares[msg.sender][token] += received;\n        totalShares[token] += received;\n\n        emit Deposited(msg.sender, token, received, received);\n    }\n\n    function withdraw(address token, uint256 amount) \n    external \n    nonReentrant \n    whenNotPaused \n    {\n        require(token == address(tokenA), \"Vault: invalid token\");\n        require(withdrawWhitelist[msg.sender], \"Vault: not whitelisted\");\n        require(amount > 0, \"Vault: amount must be > 0\");\n        require(deposits[msg.sender][token] >= amount, \"Vault: insufficient deposit\");\n        require(shares[msg.sender][token] >= amount, \"Vault: insufficient shares\");\n\n        ITRC20 t = ITRC20(token);\n\n        // Check vault balance before withdrawal\n        uint256 vaultBalance = t.balanceOf(address(this));\n        require(vaultBalance >= amount, \"Vault: insufficient vault liquidity\");\n\n        // --- Update accounting before external transfer (Reentrancy Safe) ---\n        deposits[msg.sender][token] -= amount;\n        totalDeposits[token] -= amount;\n\n        shares[msg.sender][token] -= amount;\n        totalShares[token] -= amount;\n\n        // --- Transfer tokens out (external call after state updates) ---\n        SafeTRC20.safeTransfer(t, msg.sender, amount);\n\n        emit Withdrawn(msg.sender, token, amount);\n    }\n\n\n    // allow vault/loanmanager to pull funds for disbursement\n    function pullFunds(address token, address to, uint256 amount) external {\n        // cheap access control: only AccessControl contract or LoanManager should call\n        (bool ok, ) = accessControl.call(abi.encodeWithSignature(\"admins(address)\", msg.sender));\n        require(ok, \"not authorized\");\n        ITRC20(token).safeTransfer(to, amount);\n    }\n}",
  "sourcePath": "/Users/taiwo/workspace/tronbfpay/contracts/v3/LiquidityPool.sol",
  "compiler": {
    "name": "solc",
    "version": "0.5.4+commit.d15a3125.mod.Emscripten.clang"
  },
  "schemaVersion": "2.0.1",
  "updatedAt": "2025-09-14T19:28:47.006Z"
}