{
  "contractName": "LiquidityPool",
  "abi": [
    {
      "constant": true,
      "inputs": [
        {
          "name": "",
          "type": "address"
        }
      ],
      "name": "withdrawWhitelist",
      "outputs": [
        {
          "name": "",
          "type": "bool"
        }
      ],
      "payable": false,
      "stateMutability": "view",
      "type": "function"
    },
    {
      "constant": true,
      "inputs": [],
      "name": "tokenA",
      "outputs": [
        {
          "name": "",
          "type": "address"
        }
      ],
      "payable": false,
      "stateMutability": "view",
      "type": "function"
    },
    {
      "constant": true,
      "inputs": [],
      "name": "accessControl",
      "outputs": [
        {
          "name": "",
          "type": "address"
        }
      ],
      "payable": false,
      "stateMutability": "view",
      "type": "function"
    },
    {
      "constant": false,
      "inputs": [
        {
          "name": "token",
          "type": "address"
        },
        {
          "name": "to",
          "type": "address"
        },
        {
          "name": "amount",
          "type": "uint256"
        }
      ],
      "name": "pullFunds",
      "outputs": [],
      "payable": false,
      "stateMutability": "nonpayable",
      "type": "function"
    },
    {
      "constant": false,
      "inputs": [
        {
          "name": "who",
          "type": "address"
        },
        {
          "name": "allowed",
          "type": "bool"
        }
      ],
      "name": "setWithdrawWhitelist",
      "outputs": [],
      "payable": false,
      "stateMutability": "nonpayable",
      "type": "function"
    },
    {
      "constant": false,
      "inputs": [],
      "name": "unpause",
      "outputs": [],
      "payable": false,
      "stateMutability": "nonpayable",
      "type": "function"
    },
    {
      "constant": false,
      "inputs": [
        {
          "name": "token",
          "type": "address"
        },
        {
          "name": "amount",
          "type": "uint256"
        }
      ],
      "name": "deposit",
      "outputs": [],
      "payable": false,
      "stateMutability": "nonpayable",
      "type": "function"
    },
    {
      "constant": true,
      "inputs": [],
      "name": "paused",
      "outputs": [
        {
          "name": "",
          "type": "bool"
        }
      ],
      "payable": false,
      "stateMutability": "view",
      "type": "function"
    },
    {
      "constant": true,
      "inputs": [
        {
          "name": "",
          "type": "address"
        },
        {
          "name": "",
          "type": "address"
        }
      ],
      "name": "shares",
      "outputs": [
        {
          "name": "",
          "type": "uint256"
        }
      ],
      "payable": false,
      "stateMutability": "view",
      "type": "function"
    },
    {
      "constant": false,
      "inputs": [],
      "name": "pause",
      "outputs": [],
      "payable": false,
      "stateMutability": "nonpayable",
      "type": "function"
    },
    {
      "constant": true,
      "inputs": [
        {
          "name": "",
          "type": "address"
        },
        {
          "name": "",
          "type": "address"
        }
      ],
      "name": "deposits",
      "outputs": [
        {
          "name": "",
          "type": "uint256"
        }
      ],
      "payable": false,
      "stateMutability": "view",
      "type": "function"
    },
    {
      "constant": true,
      "inputs": [
        {
          "name": "",
          "type": "address"
        }
      ],
      "name": "totalShares",
      "outputs": [
        {
          "name": "",
          "type": "uint256"
        }
      ],
      "payable": false,
      "stateMutability": "view",
      "type": "function"
    },
    {
      "constant": true,
      "inputs": [
        {
          "name": "",
          "type": "address"
        }
      ],
      "name": "totalDeposits",
      "outputs": [
        {
          "name": "",
          "type": "uint256"
        }
      ],
      "payable": false,
      "stateMutability": "view",
      "type": "function"
    },
    {
      "constant": false,
      "inputs": [
        {
          "name": "token",
          "type": "address"
        },
        {
          "name": "amount",
          "type": "uint256"
        }
      ],
      "name": "withdraw",
      "outputs": [],
      "payable": false,
      "stateMutability": "nonpayable",
      "type": "function"
    },
    {
      "inputs": [
        {
          "name": "_tokenA",
          "type": "address"
        },
        {
          "name": "_accessControl",
          "type": "address"
        }
      ],
      "payable": false,
      "stateMutability": "nonpayable",
      "type": "constructor"
    },
    {
      "anonymous": false,
      "inputs": [
        {
          "indexed": true,
          "name": "lender",
          "type": "address"
        },
        {
          "indexed": true,
          "name": "token",
          "type": "address"
        },
        {
          "indexed": false,
          "name": "amount",
          "type": "uint256"
        },
        {
          "indexed": false,
          "name": "shares",
          "type": "uint256"
        }
      ],
      "name": "Deposited",
      "type": "event"
    },
    {
      "anonymous": false,
      "inputs": [
        {
          "indexed": true,
          "name": "lender",
          "type": "address"
        },
        {
          "indexed": true,
          "name": "token",
          "type": "address"
        },
        {
          "indexed": false,
          "name": "amount",
          "type": "uint256"
        }
      ],
      "name": "Withdrawn",
      "type": "event"
    },
    {
      "anonymous": false,
      "inputs": [
        {
          "indexed": true,
          "name": "by",
          "type": "address"
        }
      ],
      "name": "Paused",
      "type": "event"
    },
    {
      "anonymous": false,
      "inputs": [
        {
          "indexed": true,
          "name": "by",
          "type": "address"
        }
      ],
      "name": "Unpaused",
      "type": "event"
    },
    {
      "anonymous": false,
      "inputs": [
        {
          "indexed": true,
          "name": "token",
          "type": "address"
        },
        {
          "indexed": true,
          "name": "to",
          "type": "address"
        },
        {
          "indexed": false,
          "name": "amount",
          "type": "uint256"
        }
      ],
      "name": "EmergencyWithdraw",
      "type": "event"
    }
  ],
  "bytecode": "0x608060405234801561001057600080fd5b506040516040806125e88339810180604052604081101561003057600080fd5b810190808051906020019092919080519060200190929190505050600160008190555081600160006101000a81548173ffffffffffffffffffffffffffffffffffffffff021916908373ffffffffffffffffffffffffffffffffffffffff16021790555080600260006101000a81548173ffffffffffffffffffffffffffffffffffffffff021916908373ffffffffffffffffffffffffffffffffffffffff1602179055506000600260146101000a81548160ff02191690831515021790555050506124e7806101016000396000f3fe608060405234801561001057600080fd5b5060043610610107576000357c0100000000000000000000000000000000000000000000000000000000900480635c975abb116100a95780638f601f66116100835780638f601f66146103b6578063bf6b874e1461042e578063e940325614610486578063f3fef3a3146104de57610107565b80635c975abb146103125780637df44647146103345780638456cb59146103ac57610107565b8063201add9b116100e5578063201add9b146101fc5780632b827a4b1461026a5780633f4ba83a146102ba57806347e7ef24146102c457610107565b8063046f5fb01461010c5780630fc63d101461016857806313007d55146101b2575b600080fd5b61014e6004803603602081101561012257600080fd5b81019080803573ffffffffffffffffffffffffffffffffffffffff16906020019092919050505061052c565b604051808215151515815260200191505060405180910390f35b61017061054c565b604051808273ffffffffffffffffffffffffffffffffffffffff1673ffffffffffffffffffffffffffffffffffffffff16815260200191505060405180910390f35b6101ba610572565b604051808273ffffffffffffffffffffffffffffffffffffffff1673ffffffffffffffffffffffffffffffffffffffff16815260200191505060405180910390f35b6102686004803603606081101561021257600080fd5b81019080803573ffffffffffffffffffffffffffffffffffffffff169060200190929190803573ffffffffffffffffffffffffffffffffffffffff16906020019092919080359060200190929190505050610598565b005b6102b86004803603604081101561028057600080fd5b81019080803573ffffffffffffffffffffffffffffffffffffffff1690602001909291908035151590602001909291905050506107d3565b005b6102c2610a39565b005b610310600480360360408110156102da57600080fd5b81019080803573ffffffffffffffffffffffffffffffffffffffff16906020019092919080359060200190929190505050610ddd565b005b61031a611526565b604051808215151515815260200191505060405180910390f35b6103966004803603604081101561034a57600080fd5b81019080803573ffffffffffffffffffffffffffffffffffffffff169060200190929190803573ffffffffffffffffffffffffffffffffffffffff169060200190929190505050611539565b6040518082815260200191505060405180910390f35b6103b461155e565b005b610418600480360360408110156103cc57600080fd5b81019080803573ffffffffffffffffffffffffffffffffffffffff169060200190929190803573ffffffffffffffffffffffffffffffffffffffff169060200190929190505050611903565b6040518082815260200191505060405180910390f35b6104706004803603602081101561044457600080fd5b81019080803573ffffffffffffffffffffffffffffffffffffffff169060200190929190505050611928565b6040518082815260200191505060405180910390f35b6104c86004803603602081101561049c57600080fd5b81019080803573ffffffffffffffffffffffffffffffffffffffff169060200190929190505050611940565b6040518082815260200191505060405180910390f35b61052a600480360360408110156104f457600080fd5b81019080803573ffffffffffffffffffffffffffffffffffffffff16906020019092919080359060200190929190505050611958565b005b60076020528060005260406000206000915054906101000a900460ff1681565b600160009054906101000a900473ffffffffffffffffffffffffffffffffffffffff1681565b600260009054906101000a900473ffffffffffffffffffffffffffffffffffffffff1681565b6000600260009054906101000a900473ffffffffffffffffffffffffffffffffffffffff1673ffffffffffffffffffffffffffffffffffffffff1633604051602401808273ffffffffffffffffffffffffffffffffffffffff1673ffffffffffffffffffffffffffffffffffffffff1681526020019150506040516020818303038152906040527f429b62e5000000000000000000000000000000000000000000000000000000007bffffffffffffffffffffffffffffffffffffffffffffffffffffffff19166020820180517bffffffffffffffffffffffffffffffffffffffffffffffffffffffff83818316178352505050506040518082805190602001908083835b6020831015156106c2578051825260208201915060208101905060208303925061069d565b6001836020036101000a0380198251168184511680821785525050505050509050019150506000604051808303816000865af19150503d8060008114610724576040519150601f19603f3d011682016040523d82523d6000602084013e610729565b606091505b505090508015156107a2576040517f08c379a000000000000000000000000000000000000000000000000000000000815260040180806020018281038252600e8152602001807f6e6f7420617574686f72697a656400000000000000000000000000000000000081525060200191505060405180910390fd5b6107cd83838673ffffffffffffffffffffffffffffffffffffffff166121a99092919063ffffffff16565b50505050565b6000600260009054906101000a900473ffffffffffffffffffffffffffffffffffffffff1673ffffffffffffffffffffffffffffffffffffffff1633604051602401808273ffffffffffffffffffffffffffffffffffffffff1673ffffffffffffffffffffffffffffffffffffffff1681526020019150506040516020818303038152906040527f429b62e5000000000000000000000000000000000000000000000000000000007bffffffffffffffffffffffffffffffffffffffffffffffffffffffff19166020820180517bffffffffffffffffffffffffffffffffffffffffffffffffffffffff83818316178352505050506040518082805190602001908083835b6020831015156108fd57805182526020820191506020810190506020830392506108d8565b6001836020036101000a0380198251168184511680821785525050505050509050019150506000604051808303816000865af19150503d806000811461095f576040519150601f19603f3d011682016040523d82523d6000602084013e610964565b606091505b505090508015156109dd576040517f08c379a00000000000000000000000000000000000000000000000000000000081526004018080602001828103825260098152602001807f6e6f742061646d696e000000000000000000000000000000000000000000000081525060200191505060405180910390fd5b81600760008573ffffffffffffffffffffffffffffffffffffffff1673ffffffffffffffffffffffffffffffffffffffff16815260200190815260200160002060006101000a81548160ff021916908315150217905550505050565b60006060600260009054906101000a900473ffffffffffffffffffffffffffffffffffffffff1673ffffffffffffffffffffffffffffffffffffffff1633604051602401808273ffffffffffffffffffffffffffffffffffffffff1673ffffffffffffffffffffffffffffffffffffffff1681526020019150506040516020818303038152906040527f429b62e5000000000000000000000000000000000000000000000000000000007bffffffffffffffffffffffffffffffffffffffffffffffffffffffff19166020820180517bffffffffffffffffffffffffffffffffffffffffffffffffffffffff83818316178352505050506040518082805190602001908083835b602083101515610b655780518252602082019150602081019050602083039250610b40565b6001836020036101000a0380198251168184511680821785525050505050509050019150506000604051808303816000865af19150503d8060008114610bc7576040519150601f19603f3d011682016040523d82523d6000602084013e610bcc565b606091505b5091509150600081511115610c80576000818060200190516020811015610bf257600080fd5b81019080805190602001909291905050509050801515610c7a576040517f08c379a00000000000000000000000000000000000000000000000000000000081526004018080602001828103825260098152602001807f6e6f742061646d696e000000000000000000000000000000000000000000000081525060200191505060405180910390fd5b50610cf7565b60001515610cf6576040517f08c379a00000000000000000000000000000000000000000000000000000000081526004018080602001828103825260198152602001807f616363657373636f6e74726f6c2063616c6c206661696c65640000000000000081525060200191505060405180910390fd5b5b600260149054906101000a900460ff161515610d7b576040517f08c379a00000000000000000000000000000000000000000000000000000000081526004018080602001828103825260118152602001807f5661756c743a206e6f742070617573656400000000000000000000000000000081525060200191505060405180910390fd5b6000600260146101000a81548160ff0219169083151502179055503373ffffffffffffffffffffffffffffffffffffffff167f5db9ee0a495bf2e6ff9c91a7834c1ba4fdd244a5e8aa4e537bd38aeae4b073aa60405160405180910390a25050565b6001600054141515610e57576040517f08c379a000000000000000000000000000000000000000000000000000000000815260040180806020018281038252600e8152602001807f5265656e7472616e742063616c6c00000000000000000000000000000000000081525060200191505060405180910390fd5b6002600081905550600260149054906101000a900460ff16151515610ee4576040517f08c379a000000000000000000000000000000000000000000000000000000000815260040180806020018281038252600d8152602001807f5661756c743a207061757365640000000000000000000000000000000000000081525060200191505060405180910390fd5b600160009054906101000a900473ffffffffffffffffffffffffffffffffffffffff1673ffffffffffffffffffffffffffffffffffffffff168273ffffffffffffffffffffffffffffffffffffffff16141515610fa9576040517f08c379a00000000000000000000000000000000000000000000000000000000081526004018080602001828103825260148152602001807f5661756c743a20696e76616c696420746f6b656e00000000000000000000000081525060200191505060405180910390fd5b600081111515611021576040517f08c379a00000000000000000000000000000000000000000000000000000000081526004018080602001828103825260198152602001807f5661756c743a20616d6f756e74206d757374206265203e20300000000000000081525060200191505060405180910390fd5b6000600160009054906101000a900473ffffffffffffffffffffffffffffffffffffffff16905060008173ffffffffffffffffffffffffffffffffffffffff166370a08231306040518263ffffffff167c0100000000000000000000000000000000000000000000000000000000028152600401808273ffffffffffffffffffffffffffffffffffffffff1673ffffffffffffffffffffffffffffffffffffffff16815260200191505060206040518083038186803b1580156110e357600080fd5b505afa1580156110f7573d6000803e3d6000fd5b505050506040513d602081101561110d57600080fd5b8101908080519060200190929190505050905061112c82333086612306565b60008273ffffffffffffffffffffffffffffffffffffffff166370a08231306040518263ffffffff167c0100000000000000000000000000000000000000000000000000000000028152600401808273ffffffffffffffffffffffffffffffffffffffff1673ffffffffffffffffffffffffffffffffffffffff16815260200191505060206040518083038186803b1580156111c757600080fd5b505afa1580156111db573d6000803e3d6000fd5b505050506040513d60208110156111f157600080fd5b8101908080519060200190929190505050905081811015151561127c576040517f08c379a00000000000000000000000000000000000000000000000000000000081526004018080602001828103825260178152602001807f5661756c743a20696e76616c6964207472616e7366657200000000000000000081525060200191505060405180910390fd5b600082820390506000811115156112fb576040517f08c379a00000000000000000000000000000000000000000000000000000000081526004018080602001828103825260198152602001807f5661756c743a206e6f20746f6b656e732072656365697665640000000000000081525060200191505060405180910390fd5b80600360003373ffffffffffffffffffffffffffffffffffffffff1673ffffffffffffffffffffffffffffffffffffffff16815260200190815260200160002060008873ffffffffffffffffffffffffffffffffffffffff1673ffffffffffffffffffffffffffffffffffffffff1681526020019081526020016000206000828254019250508190555080600460008873ffffffffffffffffffffffffffffffffffffffff1673ffffffffffffffffffffffffffffffffffffffff1681526020019081526020016000206000828254019250508190555080600560003373ffffffffffffffffffffffffffffffffffffffff1673ffffffffffffffffffffffffffffffffffffffff16815260200190815260200160002060008873ffffffffffffffffffffffffffffffffffffffff1673ffffffffffffffffffffffffffffffffffffffff1681526020019081526020016000206000828254019250508190555080600660008873ffffffffffffffffffffffffffffffffffffffff1673ffffffffffffffffffffffffffffffffffffffff168152602001908152602001600020600082825401925050819055508573ffffffffffffffffffffffffffffffffffffffff163373ffffffffffffffffffffffffffffffffffffffff167ff5681f9d0db1b911ac18ee83d515a1cf1051853a9eae418316a2fdf7dea427c58384604051808381526020018281526020019250505060405180910390a35050505060016000819055505050565b600260149054906101000a900460ff1681565b6005602052816000526040600020602052806000526040600020600091509150505481565b60006060600260009054906101000a900473ffffffffffffffffffffffffffffffffffffffff1673ffffffffffffffffffffffffffffffffffffffff1633604051602401808273ffffffffffffffffffffffffffffffffffffffff1673ffffffffffffffffffffffffffffffffffffffff1681526020019150506040516020818303038152906040527f429b62e5000000000000000000000000000000000000000000000000000000007bffffffffffffffffffffffffffffffffffffffffffffffffffffffff19166020820180517bffffffffffffffffffffffffffffffffffffffffffffffffffffffff83818316178352505050506040518082805190602001908083835b60208310151561168a5780518252602082019150602081019050602083039250611665565b6001836020036101000a0380198251168184511680821785525050505050509050019150506000604051808303816000865af19150503d80600081146116ec576040519150601f19603f3d011682016040523d82523d6000602084013e6116f1565b606091505b50915091506000815111156117a557600081806020019051602081101561171757600080fd5b8101908080519060200190929190505050905080151561179f576040517f08c379a00000000000000000000000000000000000000000000000000000000081526004018080602001828103825260098152602001807f6e6f742061646d696e000000000000000000000000000000000000000000000081525060200191505060405180910390fd5b5061181c565b6000151561181b576040517f08c379a00000000000000000000000000000000000000000000000000000000081526004018080602001828103825260198152602001807f616363657373636f6e74726f6c2063616c6c206661696c65640000000000000081525060200191505060405180910390fd5b5b600260149054906101000a900460ff161515156118a1576040517f08c379a00000000000000000000000000000000000000000000000000000000081526004018080602001828103825260158152602001807f5661756c743a20616c726561647920706175736564000000000000000000000081525060200191505060405180910390fd5b6001600260146101000a81548160ff0219169083151502179055503373ffffffffffffffffffffffffffffffffffffffff167f62e78cea01bee320cd4e420270b5ea74000d11b0c9f74754ebdbfc544b05a25860405160405180910390a25050565b6003602052816000526040600020602052806000526040600020600091509150505481565b60066020528060005260406000206000915090505481565b60046020528060005260406000206000915090505481565b60016000541415156119d2576040517f08c379a000000000000000000000000000000000000000000000000000000000815260040180806020018281038252600e8152602001807f5265656e7472616e742063616c6c00000000000000000000000000000000000081525060200191505060405180910390fd5b6002600081905550600260149054906101000a900460ff16151515611a5f576040517f08c379a000000000000000000000000000000000000000000000000000000000815260040180806020018281038252600d8152602001807f5661756c743a207061757365640000000000000000000000000000000000000081525060200191505060405180910390fd5b600160009054906101000a900473ffffffffffffffffffffffffffffffffffffffff1673ffffffffffffffffffffffffffffffffffffffff168273ffffffffffffffffffffffffffffffffffffffff16141515611b24576040517f08c379a00000000000000000000000000000000000000000000000000000000081526004018080602001828103825260148152602001807f5661756c743a20696e76616c696420746f6b656e00000000000000000000000081525060200191505060405180910390fd5b600760003373ffffffffffffffffffffffffffffffffffffffff1673ffffffffffffffffffffffffffffffffffffffff16815260200190815260200160002060009054906101000a900460ff161515611be5576040517f08c379a00000000000000000000000000000000000000000000000000000000081526004018080602001828103825260168152602001807f5661756c743a206e6f742077686974656c69737465640000000000000000000081525060200191505060405180910390fd5b600081111515611c5d576040517f08c379a00000000000000000000000000000000000000000000000000000000081526004018080602001828103825260198152602001807f5661756c743a20616d6f756e74206d757374206265203e20300000000000000081525060200191505060405180910390fd5b80600360003373ffffffffffffffffffffffffffffffffffffffff1673ffffffffffffffffffffffffffffffffffffffff16815260200190815260200160002060008473ffffffffffffffffffffffffffffffffffffffff1673ffffffffffffffffffffffffffffffffffffffff1681526020019081526020016000205410151515611d51576040517f08c379a000000000000000000000000000000000000000000000000000000000815260040180806020018281038252601b8152602001807f5661756c743a20696e73756666696369656e74206465706f736974000000000081525060200191505060405180910390fd5b80600560003373ffffffffffffffffffffffffffffffffffffffff1673ffffffffffffffffffffffffffffffffffffffff16815260200190815260200160002060008473ffffffffffffffffffffffffffffffffffffffff1673ffffffffffffffffffffffffffffffffffffffff1681526020019081526020016000205410151515611e45576040517f08c379a000000000000000000000000000000000000000000000000000000000815260040180806020018281038252601a8152602001807f5661756c743a20696e73756666696369656e742073686172657300000000000081525060200191505060405180910390fd5b600082905060008173ffffffffffffffffffffffffffffffffffffffff166370a08231306040518263ffffffff167c0100000000000000000000000000000000000000000000000000000000028152600401808273ffffffffffffffffffffffffffffffffffffffff1673ffffffffffffffffffffffffffffffffffffffff16815260200191505060206040518083038186803b158015611ee557600080fd5b505afa158015611ef9573d6000803e3d6000fd5b505050506040513d6020811015611f0f57600080fd5b81019080805190602001909291905050509050828110151515611f7d576040517f08c379a00000000000000000000000000000000000000000000000000000000081526004018080602001828103825260238152602001806124996023913960400191505060405180910390fd5b82600360003373ffffffffffffffffffffffffffffffffffffffff1673ffffffffffffffffffffffffffffffffffffffff16815260200190815260200160002060008673ffffffffffffffffffffffffffffffffffffffff1673ffffffffffffffffffffffffffffffffffffffff1681526020019081526020016000206000828254039250508190555082600460008673ffffffffffffffffffffffffffffffffffffffff1673ffffffffffffffffffffffffffffffffffffffff1681526020019081526020016000206000828254039250508190555082600560003373ffffffffffffffffffffffffffffffffffffffff1673ffffffffffffffffffffffffffffffffffffffff16815260200190815260200160002060008673ffffffffffffffffffffffffffffffffffffffff1673ffffffffffffffffffffffffffffffffffffffff1681526020019081526020016000206000828254039250508190555082600660008673ffffffffffffffffffffffffffffffffffffffff1673ffffffffffffffffffffffffffffffffffffffff168152602001908152602001600020600082825403925050819055506121368233856121a9565b8373ffffffffffffffffffffffffffffffffffffffff163373ffffffffffffffffffffffffffffffffffffffff167fd1c19fbcd4551a5edfb66d43d2e337c04837afda3482b42bdf569a8fccdae5fb856040518082815260200191505060405180910390a3505060016000819055505050565b60008373ffffffffffffffffffffffffffffffffffffffff1663a9059cbb84846040518363ffffffff167c0100000000000000000000000000000000000000000000000000000000028152600401808373ffffffffffffffffffffffffffffffffffffffff1673ffffffffffffffffffffffffffffffffffffffff16815260200182815260200192505050602060405180830381600087803b15801561224e57600080fd5b505af1158015612262573d6000803e3d6000fd5b505050506040513d602081101561227857600080fd5b81019080805190602001909291905050509050801515612300576040517f08c379a000000000000000000000000000000000000000000000000000000000815260040180806020018281038252601a8152602001807f5361666554524332303a207472616e73666572206661696c656400000000000081525060200191505060405180910390fd5b50505050565b60008473ffffffffffffffffffffffffffffffffffffffff166323b872dd8585856040518463ffffffff167c0100000000000000000000000000000000000000000000000000000000028152600401808473ffffffffffffffffffffffffffffffffffffffff1673ffffffffffffffffffffffffffffffffffffffff1681526020018373ffffffffffffffffffffffffffffffffffffffff1673ffffffffffffffffffffffffffffffffffffffff1681526020018281526020019350505050602060405180830381600087803b1580156123df57600080fd5b505af11580156123f3573d6000803e3d6000fd5b505050506040513d602081101561240957600080fd5b81019080805190602001909291905050509050801515612491576040517f08c379a000000000000000000000000000000000000000000000000000000000815260040180806020018281038252601e8152602001807f5361666554524332303a207472616e7366657246726f6d206661696c6564000081525060200191505060405180910390fd5b505050505056fe5661756c743a20696e73756666696369656e74207661756c74206c6971756964697479a165627a7a7230582048b504161d5885f13f63e374ee3356e2ec1742db72d9a5f297c993230bfae8e10029",
  "source": "// SPDX-License-Identifier: MIT\r\npragma solidity ^0.5.4;\r\n\r\nimport \"../libs/SafeTRC20.sol\";\r\nimport \"../libs/ReentrancyGuard.sol\";\r\n\r\ncontract LiquidityPool is ReentrancyGuard {\r\n    using SafeTRC20 for ITRC20;\r\n\r\n    ITRC20 public tokenA; // USDT\r\n    address public accessControl;\r\n    bool public paused;\r\n\r\n    // lender => token => amount\r\n    mapping(address => mapping(address => uint256)) public deposits;\r\n    // total deposits per token\r\n    mapping(address => uint256) public totalDeposits;\r\n\r\n    // simple LP shares (scaled)\r\n    mapping(address => mapping(address => uint256)) public shares; // lender -> token -> shares\r\n    mapping(address => uint256) public totalShares; // token -> total shares (stored in mapping key hack)\r\n\r\n    // withdrawal whitelist\r\n    mapping(address => bool) public withdrawWhitelist;\r\n\r\n    event Deposited(address indexed lender, address indexed token, uint256 amount, uint256 shares);\r\n    event Withdrawn(address indexed lender, address indexed token, uint256 amount);\r\n\r\n    event Paused(address indexed by);\r\n    event Unpaused(address indexed by);\r\n    event EmergencyWithdraw(address indexed token, address indexed to, uint256 amount);\r\n\r\n    constructor(address _tokenA, address _accessControl) public {\r\n        tokenA = ITRC20(_tokenA); \r\n        accessControl = _accessControl;\r\n        paused = false;\r\n    }\r\n\r\n    modifier onlyAdmin(){\r\n        (bool ok, bytes memory data) = accessControl.call(abi.encodeWithSignature(\"admins(address)\", msg.sender));\r\n        if(data.length>0) { bool isAdmin = abi.decode(data,(bool)); require(isAdmin, \"not admin\"); } else { require(false, \"accesscontrol call failed\"); }\r\n        _;\r\n    }\r\n\r\n    modifier whenNotPaused() {\r\n        require(!paused, \"Vault: paused\");\r\n        _;\r\n    }\r\n\r\n    // pause / unpause (circuit-breaker)\r\n    function pause() external onlyAdmin {\r\n        require(!paused, \"Vault: already paused\");\r\n        paused = true;\r\n        emit Paused(msg.sender);\r\n    }\r\n\r\n    function unpause() external onlyAdmin {\r\n        require(paused, \"Vault: not paused\");\r\n        paused = false;\r\n        emit Unpaused(msg.sender);\r\n    }\r\n\r\n\r\n    function setWithdrawWhitelist(address who, bool allowed) external {\r\n        // only admin via AccessControl should set, for simplicity allow accessControl to call\r\n        (bool ok,) = accessControl.call(abi.encodeWithSignature(\"admins(address)\", msg.sender));\r\n        require(ok, \"not admin\"); // best-effort check\r\n        withdrawWhitelist[who]=allowed;\r\n    }\r\n\r\n    function deposit(address token, uint256 amount) external nonReentrant whenNotPaused {\r\n        require(token == address(tokenA), \"Vault: invalid token\");\r\n        require(amount > 0, \"Vault: amount must be > 0\");\r\n\r\n        ITRC20 t = ITRC20(tokenA);\r\n\r\n        // Check balance before\r\n        uint256 balBefore = t.balanceOf(address(this));\r\n\r\n        // Transfer in tokens\r\n        SafeTRC20.safeTransferFrom(t, msg.sender, address(this), amount);\r\n\r\n        // Check actual received\r\n        uint256 balAfter = t.balanceOf(address(this));\r\n        require(balAfter >= balBefore, \"Vault: invalid transfer\");\r\n        uint256 received = balAfter - balBefore;\r\n        require(received > 0, \"Vault: no tokens received\");\r\n\r\n        // Update accounting using received amount\r\n        deposits[msg.sender][token] += received;\r\n        totalDeposits[token] += received;\r\n        shares[msg.sender][token] += received;\r\n        totalShares[token] += received;\r\n\r\n        emit Deposited(msg.sender, token, received, received);\r\n    }\r\n\r\n    function withdraw(address token, uint256 amount) \r\n    external \r\n    nonReentrant \r\n    whenNotPaused \r\n    {\r\n        require(token == address(tokenA), \"Vault: invalid token\");\r\n        require(withdrawWhitelist[msg.sender], \"Vault: not whitelisted\");\r\n        require(amount > 0, \"Vault: amount must be > 0\");\r\n        require(deposits[msg.sender][token] >= amount, \"Vault: insufficient deposit\");\r\n        require(shares[msg.sender][token] >= amount, \"Vault: insufficient shares\");\r\n\r\n        ITRC20 t = ITRC20(token);\r\n\r\n        // Check vault balance before withdrawal\r\n        uint256 vaultBalance = t.balanceOf(address(this));\r\n        require(vaultBalance >= amount, \"Vault: insufficient vault liquidity\");\r\n\r\n        // --- Update accounting before external transfer (Reentrancy Safe) ---\r\n        deposits[msg.sender][token] -= amount;\r\n        totalDeposits[token] -= amount;\r\n\r\n        shares[msg.sender][token] -= amount;\r\n        totalShares[token] -= amount;\r\n\r\n        // --- Transfer tokens out (external call after state updates) ---\r\n        SafeTRC20.safeTransfer(t, msg.sender, amount);\r\n\r\n        emit Withdrawn(msg.sender, token, amount);\r\n    }\r\n\r\n\r\n    // allow vault/loanmanager to pull funds for disbursement\r\n    function pullFunds(address token, address to, uint256 amount) external {\r\n        // cheap access control: only AccessControl contract or LoanManager should call\r\n        (bool ok, ) = accessControl.call(abi.encodeWithSignature(\"admins(address)\", msg.sender));\r\n        require(ok, \"not authorized\");\r\n        ITRC20(token).safeTransfer(to, amount);\r\n    }\r\n}",
  "sourcePath": "C:/workspace/tronbfpay/contracts/v3/LiquidityPool.sol",
  "compiler": {
    "name": "solc",
    "version": "0.5.4+commit.9549d8ff.Emscripten.clang"
  },
  "schemaVersion": "2.0.1",
  "updatedAt": "2025-10-07T17:16:24.789Z"
}