{
  "contractName": "LiquidityPoolV5",
  "abi": [
    {
      "inputs": [
        {
          "internalType": "address",
          "name": "_tokenA",
          "type": "address"
        },
        {
          "internalType": "address",
          "name": "_accessControl",
          "type": "address"
        }
      ],
      "stateMutability": "nonpayable",
      "type": "constructor"
    },
    {
      "anonymous": false,
      "inputs": [
        {
          "indexed": true,
          "internalType": "address",
          "name": "lender",
          "type": "address"
        },
        {
          "indexed": false,
          "internalType": "uint256",
          "name": "amount",
          "type": "uint256"
        },
        {
          "indexed": false,
          "internalType": "uint256",
          "name": "shares",
          "type": "uint256"
        }
      ],
      "name": "Deposited",
      "type": "event"
    },
    {
      "anonymous": false,
      "inputs": [
        {
          "indexed": true,
          "internalType": "address",
          "name": "token",
          "type": "address"
        },
        {
          "indexed": true,
          "internalType": "address",
          "name": "to",
          "type": "address"
        },
        {
          "indexed": false,
          "internalType": "uint256",
          "name": "amount",
          "type": "uint256"
        }
      ],
      "name": "EmergencyWithdraw",
      "type": "event"
    },
    {
      "anonymous": false,
      "inputs": [
        {
          "indexed": true,
          "internalType": "address",
          "name": "by",
          "type": "address"
        }
      ],
      "name": "Paused",
      "type": "event"
    },
    {
      "anonymous": false,
      "inputs": [
        {
          "indexed": true,
          "internalType": "address",
          "name": "by",
          "type": "address"
        }
      ],
      "name": "Unpaused",
      "type": "event"
    },
    {
      "anonymous": false,
      "inputs": [
        {
          "indexed": true,
          "internalType": "address",
          "name": "lender",
          "type": "address"
        },
        {
          "indexed": false,
          "internalType": "uint256",
          "name": "amount",
          "type": "uint256"
        }
      ],
      "name": "Withdrawn",
      "type": "event"
    },
    {
      "inputs": [],
      "name": "accessControl",
      "outputs": [
        {
          "internalType": "contract IAccessControl",
          "name": "",
          "type": "address"
        }
      ],
      "stateMutability": "view",
      "type": "function"
    },
    {
      "inputs": [
        {
          "internalType": "uint256",
          "name": "amount",
          "type": "uint256"
        }
      ],
      "name": "deposit",
      "outputs": [],
      "stateMutability": "nonpayable",
      "type": "function"
    },
    {
      "inputs": [
        {
          "internalType": "address",
          "name": "",
          "type": "address"
        }
      ],
      "name": "deposits",
      "outputs": [
        {
          "internalType": "uint256",
          "name": "",
          "type": "uint256"
        }
      ],
      "stateMutability": "view",
      "type": "function"
    },
    {
      "inputs": [
        {
          "internalType": "address",
          "name": "token",
          "type": "address"
        },
        {
          "internalType": "address",
          "name": "to",
          "type": "address"
        },
        {
          "internalType": "uint256",
          "name": "amount",
          "type": "uint256"
        }
      ],
      "name": "emergencyWithdraw",
      "outputs": [],
      "stateMutability": "nonpayable",
      "type": "function"
    },
    {
      "inputs": [],
      "name": "pause",
      "outputs": [],
      "stateMutability": "nonpayable",
      "type": "function"
    },
    {
      "inputs": [],
      "name": "paused",
      "outputs": [
        {
          "internalType": "bool",
          "name": "",
          "type": "bool"
        }
      ],
      "stateMutability": "view",
      "type": "function"
    },
    {
      "inputs": [
        {
          "internalType": "address",
          "name": "to",
          "type": "address"
        },
        {
          "internalType": "uint256",
          "name": "amount",
          "type": "uint256"
        }
      ],
      "name": "pullFunds",
      "outputs": [],
      "stateMutability": "nonpayable",
      "type": "function"
    },
    {
      "inputs": [
        {
          "internalType": "address",
          "name": "who",
          "type": "address"
        },
        {
          "internalType": "bool",
          "name": "allowed",
          "type": "bool"
        }
      ],
      "name": "setWithdrawWhitelist",
      "outputs": [],
      "stateMutability": "nonpayable",
      "type": "function"
    },
    {
      "inputs": [
        {
          "internalType": "address",
          "name": "",
          "type": "address"
        }
      ],
      "name": "shares",
      "outputs": [
        {
          "internalType": "uint256",
          "name": "",
          "type": "uint256"
        }
      ],
      "stateMutability": "view",
      "type": "function"
    },
    {
      "inputs": [],
      "name": "tokenA",
      "outputs": [
        {
          "internalType": "contract ITRC20",
          "name": "",
          "type": "address"
        }
      ],
      "stateMutability": "view",
      "type": "function"
    },
    {
      "inputs": [],
      "name": "totalDeposits",
      "outputs": [
        {
          "internalType": "uint256",
          "name": "",
          "type": "uint256"
        }
      ],
      "stateMutability": "view",
      "type": "function"
    },
    {
      "inputs": [],
      "name": "totalShares",
      "outputs": [
        {
          "internalType": "uint256",
          "name": "",
          "type": "uint256"
        }
      ],
      "stateMutability": "view",
      "type": "function"
    },
    {
      "inputs": [],
      "name": "unpause",
      "outputs": [],
      "stateMutability": "nonpayable",
      "type": "function"
    },
    {
      "inputs": [
        {
          "internalType": "uint256",
          "name": "amount",
          "type": "uint256"
        }
      ],
      "name": "withdraw",
      "outputs": [],
      "stateMutability": "nonpayable",
      "type": "function"
    },
    {
      "inputs": [
        {
          "internalType": "address",
          "name": "",
          "type": "address"
        }
      ],
      "name": "withdrawWhitelist",
      "outputs": [
        {
          "internalType": "bool",
          "name": "",
          "type": "bool"
        }
      ],
      "stateMutability": "view",
      "type": "function"
    }
  ],
  "bytecode": "0x60c03461012157601f61101638819003918201601f19168301916001600160401b0383118484101761012557808492604094855283398101031261012157610052602061004b83610139565b9201610139565b60015f55906001600160a01b03168015158061010f575b156100d6576080526001600160a01b031660a052604051610ec8908161014e8239608051818181610371015281816104ad015281816108980152610c1b015260a05181818161014b015281816102ec015281816106040152818161074001528181610b3f0152610bd70152f35b60405162461bcd60e51b8152602060048201526011602482015270496e76616c69642061646472657373657360781b6044820152606490fd5b506001600160a01b0382161515610069565b5f80fd5b634e487b7160e01b5f52604160045260245ffd5b51906001600160a01b03821682036101215756fe6080806040526004361015610012575f80fd5b5f3560e01c908163046f5fb014610c4a575080630fc63d1014610c0657806313007d5514610bc25780632b827a4b14610afd5780632e1a7d4d146108095780633a98ef39146107ec5780633f4ba83a146107155780635c975abb146106f35780637d882097146106d65780638456cb59146105d9578063b6b55f2514610434578063c6cdbcbb146102b8578063ce7c2ac214610280578063e63ea408146100fd5763fc7e286d146100c1575f80fd5b346100f95760203660031901126100f9576001600160a01b036100e2610c83565b165f526002602052602060405f2054604051908152f35b5f80fd5b346100f95760603660031901126100f957610116610c83565b6024356001600160a01b03811691908290036100f95760405163429b62e560e01b8152336004820152604435916020826024817f00000000000000000000000000000000000000000000000000000000000000006001600160a01b03165afa908115610275576101b16020927ff24ef89f38eadc1bde50701ad6e4d6d11a2dc24f7cf834a486991f3883328504945f91610248575b50610ce7565b60405163a9059cbb60e01b83820190815233602483015260448201869052610208915f9182916101ee81606481015b03601f198101835282610c99565b519082865af16101fc610e02565b8161021b575b50610e41565b6040519384526001600160a01b031692a3005b8051801592508215610230575b505087610202565b610241925081018501908501610ccf565b8780610228565b6102689150843d861161026e575b6102608183610c99565b810190610ccf565b876101ab565b503d610256565b6040513d5f823e3d90fd5b346100f95760203660031901126100f9576001600160a01b036102a1610c83565b165f526004602052602060405f2054604051908152f35b346100f95760403660031901126100f9576102d1610c83565b60405163429b62e560e01b81523360048201526020816024817f00000000000000000000000000000000000000000000000000000000000000006001600160a01b03165afa908115610275575f91610415575b50156103df5760405163a9059cbb60e01b602082019081526001600160a01b039092166024808301919091523560448201526103ae915f9182919061036c81606481016101e0565b5190827f00000000000000000000000000000000000000000000000000000000000000006001600160a01b03165af16103a3610e02565b816103b05750610e41565b005b80518015925082156103c5575b505082610202565b6103d89250602080918301019101610ccf565b82806103bd565b60405162461bcd60e51b815260206004820152600e60248201526d139bdd08185d5d1a1bdc9a5e995960921b6044820152606490fd5b61042e915060203d60201161026e576102608183610c99565b82610324565b346100f95760203660031901126100f95760043561045560015f5414610d1f565b60025f5561046860ff6001541615610d6b565b610473811515610da0565b5f8060405160208101906323b872dd60e01b8252336024820152306044820152846064820152606481526104a8608482610c99565b5190827f00000000000000000000000000000000000000000000000000000000000000006001600160a01b03165af16104df610e02565b816105aa575b501561057357335f52600260205260405f20610502828254610e85565b905561051081600354610e85565b600355335f52600460205260405f2061052a828254610e85565b905561053881600554610e85565b6005556040519080825260208201527f73a19dd210f1a7f902193214c0ee91dd35ee5b4d920cba8d519eca65a7b488ca60403392a260015f55005b60405162461bcd60e51b815260206004820152600f60248201526e151c985b9cd9995c8819985a5b1959608a1b6044820152606490fd5b80518015925082156105bf575b5050826104e5565b6105d29250602080918301019101610ccf565b82806105b7565b346100f9575f3660031901126100f95760405163429b62e560e01b81523360048201526020816024817f00000000000000000000000000000000000000000000000000000000000000006001600160a01b03165afa801561027557610644915f916106b75750610ce7565b60015460ff81166106815760019060ff191617600155337f62e78cea01bee320cd4e420270b5ea74000d11b0c9f74754ebdbfc544b05a2585f80a2005b60405162461bcd60e51b815260206004820152600e60248201526d105b1c9958591e481c185d5cd95960921b6044820152606490fd5b6106d0915060203d60201161026e576102608183610c99565b826101ab565b346100f9575f3660031901126100f9576020600354604051908152f35b346100f9575f3660031901126100f957602060ff600154166040519015158152f35b346100f9575f3660031901126100f95760405163429b62e560e01b81523360048201526020816024817f00000000000000000000000000000000000000000000000000000000000000006001600160a01b03165afa801561027557610780915f916106b75750610ce7565b60015460ff8116156107ba5760ff1916600155337f5db9ee0a495bf2e6ff9c91a7834c1ba4fdd244a5e8aa4e537bd38aeae4b073aa5f80a2005b60405162461bcd60e51b815260206004820152600a602482015269139bdd081c185d5cd95960b21b6044820152606490fd5b346100f9575f3660031901126100f9576020600554604051908152f35b346100f95760203660031901126100f95760043561082a60015f5414610d1f565b60025f5561083d60ff6001541615610d6b565b335f52600660205260ff60405f20541615610ac65761085d811515610da0565b335f5260026020528060405f205410610a8a57335f5260046020528060405f205410610a4f576040516370a0823160e01b81523060048201527f00000000000000000000000000000000000000000000000000000000000000006001600160a01b031690602081602481855afa80156102755783915f91610a1a575b50106109dc575f8061097b923382526002602052604082206108fc868254610de1565b905561090a85600354610de1565b600355338252600460205260408220610924868254610de1565b905561093285600554610de1565b60055560405163a9059cbb60e01b602082019081523360248301526044820187905290839061096481606481016101e0565b51925af1610970610e02565b816109ad5750610e41565b6040519081527f7084f5476618d8e60b11ef0d7d3f06914655adb8793e28ff7f018d4c76d505d560203392a260015f55005b80518015925082156109c2575b505083610202565b6109d59250602080918301019101610ccf565b83806109ba565b60405162461bcd60e51b8152602060048201526016602482015275496e73756666696369656e74206c697175696469747960501b6044820152606490fd5b9150506020813d602011610a47575b81610a3660209383610c99565b810103126100f957829051846108d9565b3d9150610a29565b60405162461bcd60e51b8152602060048201526013602482015272496e73756666696369656e742073686172657360681b6044820152606490fd5b60405162461bcd60e51b8152602060048201526014602482015273125b9cdd59999a58da595b9d0819195c1bdcda5d60621b6044820152606490fd5b60405162461bcd60e51b815260206004820152600f60248201526e139bdd081dda1a5d195b1a5cdd1959608a1b6044820152606490fd5b346100f95760403660031901126100f957610b16610c83565b602435908115158092036100f95760405163429b62e560e01b81523360048201526020816024817f00000000000000000000000000000000000000000000000000000000000000006001600160a01b03165afa801561027557610b7f915f91610ba35750610ce7565b60018060a01b03165f52600660205260405f209060ff801983541691161790555f80f35b610bbc915060203d60201161026e576102608183610c99565b846101ab565b346100f9575f3660031901126100f9576040517f00000000000000000000000000000000000000000000000000000000000000006001600160a01b03168152602090f35b346100f9575f3660031901126100f9576040517f00000000000000000000000000000000000000000000000000000000000000006001600160a01b03168152602090f35b346100f95760203660031901126100f9576020906001600160a01b03610c6e610c83565b165f526006825260ff60405f20541615158152f35b600435906001600160a01b03821682036100f957565b90601f8019910116810190811067ffffffffffffffff821117610cbb57604052565b634e487b7160e01b5f52604160045260245ffd5b908160209103126100f9575180151581036100f95790565b15610cee57565b60405162461bcd60e51b81526020600482015260096024820152682737ba1030b236b4b760b91b6044820152606490fd5b15610d2657565b60405162461bcd60e51b815260206004820152601f60248201527f5265656e7472616e637947756172643a207265656e7472616e742063616c6c006044820152606490fd5b15610d7257565b60405162461bcd60e51b815260206004820152600660248201526514185d5cd95960d21b6044820152606490fd5b15610da757565b60405162461bcd60e51b81526020600482015260126024820152710416d6f756e74206d757374206265203e20360741b6044820152606490fd5b91908203918211610dee57565b634e487b7160e01b5f52601160045260245ffd5b3d15610e3c573d9067ffffffffffffffff8211610cbb5760405191610e31601f8201601f191660200184610c99565b82523d5f602084013e565b606090565b15610e4857565b60405162461bcd60e51b8152602060048201526015602482015274151490cc8c081d1c985b9cd9995c8819985a5b1959605a1b6044820152606490fd5b91908201809211610dee5756fea2646970667358221220e3581d7cc90bef842a6ab79a61b9591610287cbc4246cbd45b1063eddb22773964736f6c634300081e0033",
  "source": "// SPDX-License-Identifier: MIT\r\npragma solidity ^0.8.23;\r\n\r\nimport \"../libs/SafeTRC20.sol\";\r\nimport \"../libs/ReentrancyGuard.sol\";\r\n\r\ninterface IAccessControl {\r\n    function admins(address account) external view returns (bool);\r\n}\r\n\r\n/**\r\n * @title LiquidityPoolV3\r\n * @notice Gas-optimized TRON liquidity pool for a single token with whitelist & emergency features\r\n */\r\ncontract LiquidityPoolV5 is ReentrancyGuard {\r\n    using SafeTRC20 for ITRC20;\r\n\r\n    ITRC20 public immutable tokenA; // USDT\r\n    IAccessControl public immutable accessControl;\r\n\r\n    bool public paused;\r\n\r\n    mapping(address => uint256) public deposits; // lender => amount (single token)\r\n    uint256 public totalDeposits;\r\n\r\n    mapping(address => uint256) public shares; // lender -> shares\r\n    uint256 public totalShares;\r\n\r\n    mapping(address => bool) public withdrawWhitelist;\r\n\r\n    event Deposited(address indexed lender, uint256 amount, uint256 shares);\r\n    event Withdrawn(address indexed lender, uint256 amount);\r\n    event Paused(address indexed by);\r\n    event Unpaused(address indexed by);\r\n    event EmergencyWithdraw(address indexed token, address indexed to, uint256 amount);\r\n\r\n    constructor(address _tokenA, address _accessControl) {\r\n        require(_tokenA != address(0) && _accessControl != address(0), \"Invalid addresses\");\r\n        tokenA = ITRC20(_tokenA);\r\n        accessControl = IAccessControl(_accessControl);\r\n    }\r\n\r\n    modifier onlyAdmin() {\r\n        require(accessControl.admins(msg.sender), \"Not admin\");\r\n        _;\r\n    }\r\n\r\n    modifier whenNotPaused() {\r\n        require(!paused, \"Paused\");\r\n        _;\r\n    }\r\n\r\n    function pause() external onlyAdmin {\r\n        require(!paused, \"Already paused\");\r\n        paused = true;\r\n        emit Paused(msg.sender);\r\n    }\r\n\r\n    function unpause() external onlyAdmin {\r\n        require(paused, \"Not paused\");\r\n        paused = false;\r\n        emit Unpaused(msg.sender);\r\n    }\r\n\r\n    function setWithdrawWhitelist(address who, bool allowed) external onlyAdmin {\r\n        withdrawWhitelist[who] = allowed;\r\n    }\r\n\r\n    function deposit(uint256 amount) external nonReentrant whenNotPaused {\r\n        require(amount > 0, \"Amount must be > 0\");\r\n\r\n        /*uint256 balBefore = tokenA.balanceOf(address(this));\r\n        tokenA.safeTransferFrom(msg.sender, address(this), amount);\r\n        uint256 balAfter = tokenA.balanceOf(address(this));\r\n        uint256 received = balAfter - balBefore;\r\n        require(received > 0, \"No tokens received\");*/\r\n\r\n        (bool success, bytes memory data) = address(tokenA).call(\r\n            abi.encodeWithSignature(\"transferFrom(address,address,uint256)\", msg.sender, address(this), amount)\r\n        );\r\n        require(success && (data.length == 0 || abi.decode(data, (bool))), \"Transfer failed\");\r\n        uint256 received = amount;\r\n\r\n        deposits[msg.sender] += received;\r\n        totalDeposits += received;\r\n\r\n        shares[msg.sender] += received;\r\n        totalShares += received;\r\n\r\n        emit Deposited(msg.sender, received, received);\r\n    }\r\n\r\n    function withdraw(uint256 amount) external nonReentrant whenNotPaused {\r\n        require(withdrawWhitelist[msg.sender], \"Not whitelisted\");\r\n        require(amount > 0, \"Amount must be > 0\");\r\n        require(deposits[msg.sender] >= amount, \"Insufficient deposit\");\r\n        require(shares[msg.sender] >= amount, \"Insufficient shares\");\r\n        require(tokenA.balanceOf(address(this)) >= amount, \"Insufficient liquidity\");\r\n\r\n        deposits[msg.sender] -= amount;\r\n        totalDeposits -= amount;\r\n\r\n        shares[msg.sender] -= amount;\r\n        totalShares -= amount;\r\n\r\n        //tokenA.safeTransfer(msg.sender, amount);\r\n\r\n        (bool success, bytes memory data) = address(tokenA).call(\r\n            abi.encodeWithSignature(\"transfer(address,uint256)\", msg.sender, amount)\r\n        );\r\n        require(success && (data.length == 0 || abi.decode(data, (bool))), \"TRC20 transfer failed\");\r\n\r\n\r\n        emit Withdrawn(msg.sender, amount);\r\n    }\r\n\r\n    function pullFunds(address to, uint256 amount) external {\r\n        require(accessControl.admins(msg.sender), \"Not authorized\");\r\n        //tokenA.safeTransfer(to, amount);\r\n        (bool success, bytes memory data) = address(tokenA).call(\r\n            abi.encodeWithSignature(\"transfer(address,uint256)\", to, amount)\r\n        );\r\n        require(success && (data.length == 0 || abi.decode(data, (bool))), \"TRC20 transfer failed\");\r\n\r\n    }\r\n\r\n    function emergencyWithdraw(address token, address to, uint256 amount) external onlyAdmin {\r\n        //ITRC20(token).safeTransfer(to, amount);\r\n\r\n        (bool success, bytes memory data) = address(token).call(\r\n            abi.encodeWithSignature(\"transfer(address,uint256)\", msg.sender, amount)\r\n        );\r\n        require(success && (data.length == 0 || abi.decode(data, (bool))), \"TRC20 transfer failed\");\r\n\r\n        emit EmergencyWithdraw(token, to, amount);\r\n    }\r\n}\r\n",
  "sourcePath": "C:/workspace/tronbfpay/contracts/v3/LiquidityPoolV5.sol",
  "compiler": {
    "name": "solc",
    "version": "0.8.30+commit.73712a01.Emscripten.clang"
  },
  "schemaVersion": "2.0.1",
  "updatedAt": "2025-10-09T11:40:38.179Z"
}