{
  "contractName": "LoanManagerV6",
  "abi": [
    {
      "inputs": [
        {
          "internalType": "address",
          "name": "_accessControl",
          "type": "address"
        },
        {
          "internalType": "address",
          "name": "_liquidityPool",
          "type": "address"
        },
        {
          "internalType": "address",
          "name": "_vault",
          "type": "address"
        },
        {
          "internalType": "address",
          "name": "_creditNFT",
          "type": "address"
        },
        {
          "internalType": "address",
          "name": "_platformFeeAddr",
          "type": "address"
        },
        {
          "internalType": "address",
          "name": "_lenderPoolIncomeAddr",
          "type": "address"
        }
      ],
      "stateMutability": "nonpayable",
      "type": "constructor"
    },
    {
      "anonymous": false,
      "inputs": [
        {
          "indexed": true,
          "internalType": "address",
          "name": "borrower",
          "type": "address"
        },
        {
          "indexed": true,
          "internalType": "address",
          "name": "token",
          "type": "address"
        },
        {
          "indexed": false,
          "internalType": "uint256",
          "name": "amount",
          "type": "uint256"
        }
      ],
      "name": "BorrowerRepayment",
      "type": "event"
    },
    {
      "anonymous": false,
      "inputs": [
        {
          "indexed": true,
          "internalType": "address",
          "name": "borrower",
          "type": "address"
        },
        {
          "indexed": false,
          "internalType": "uint256",
          "name": "totalAmount",
          "type": "uint256"
        },
        {
          "indexed": true,
          "internalType": "address",
          "name": "token",
          "type": "address"
        },
        {
          "indexed": true,
          "internalType": "address",
          "name": "merchant",
          "type": "address"
        },
        {
          "indexed": false,
          "internalType": "uint256",
          "name": "settleAmount",
          "type": "uint256"
        }
      ],
      "name": "LoanApproved",
      "type": "event"
    },
    {
      "anonymous": false,
      "inputs": [
        {
          "indexed": true,
          "internalType": "address",
          "name": "borrower",
          "type": "address"
        }
      ],
      "name": "LoanRepaid",
      "type": "event"
    },
    {
      "anonymous": false,
      "inputs": [
        {
          "indexed": true,
          "internalType": "address",
          "name": "borrower",
          "type": "address"
        },
        {
          "indexed": false,
          "internalType": "uint256",
          "name": "requestedAmount",
          "type": "uint256"
        }
      ],
      "name": "LoanRequested",
      "type": "event"
    },
    {
      "anonymous": false,
      "inputs": [
        {
          "indexed": true,
          "internalType": "address",
          "name": "by",
          "type": "address"
        }
      ],
      "name": "Paused",
      "type": "event"
    },
    {
      "anonymous": false,
      "inputs": [
        {
          "indexed": true,
          "internalType": "address",
          "name": "by",
          "type": "address"
        }
      ],
      "name": "Unpaused",
      "type": "event"
    },
    {
      "inputs": [],
      "name": "accessControl",
      "outputs": [
        {
          "internalType": "contract IAccessControl",
          "name": "",
          "type": "address"
        }
      ],
      "stateMutability": "view",
      "type": "function"
    },
    {
      "inputs": [
        {
          "internalType": "address",
          "name": "borrower",
          "type": "address"
        },
        {
          "internalType": "address",
          "name": "tokenToBorrow",
          "type": "address"
        },
        {
          "internalType": "uint256",
          "name": "totalAmount",
          "type": "uint256"
        },
        {
          "internalType": "uint256",
          "name": "depositAmount",
          "type": "uint256"
        },
        {
          "internalType": "uint256",
          "name": "fee",
          "type": "uint256"
        },
        {
          "internalType": "address",
          "name": "merchantAddr",
          "type": "address"
        }
      ],
      "name": "approveAndDisburse",
      "outputs": [],
      "stateMutability": "nonpayable",
      "type": "function"
    },
    {
      "inputs": [],
      "name": "creditNFT",
      "outputs": [
        {
          "internalType": "contract IBorderlessCreditNFT",
          "name": "",
          "type": "address"
        }
      ],
      "stateMutability": "view",
      "type": "function"
    },
    {
      "inputs": [
        {
          "internalType": "address",
          "name": "borrower",
          "type": "address"
        }
      ],
      "name": "getLoanDetails",
      "outputs": [
        {
          "internalType": "address",
          "name": "loanBorrower",
          "type": "address"
        },
        {
          "internalType": "address",
          "name": "token",
          "type": "address"
        },
        {
          "internalType": "address",
          "name": "merchant",
          "type": "address"
        },
        {
          "internalType": "uint256",
          "name": "principal",
          "type": "uint256"
        },
        {
          "internalType": "uint256",
          "name": "outstanding",
          "type": "uint256"
        },
        {
          "internalType": "uint256",
          "name": "startedAt",
          "type": "uint256"
        },
        {
          "internalType": "uint256",
          "name": "installmentsPaid",
          "type": "uint256"
        },
        {
          "internalType": "uint256",
          "name": "fee",
          "type": "uint256"
        },
        {
          "internalType": "bool",
          "name": "active",
          "type": "bool"
        }
      ],
      "stateMutability": "view",
      "type": "function"
    },
    {
      "inputs": [],
      "name": "lenderIncomeOfTotalBps",
      "outputs": [
        {
          "internalType": "uint256",
          "name": "",
          "type": "uint256"
        }
      ],
      "stateMutability": "view",
      "type": "function"
    },
    {
      "inputs": [],
      "name": "lenderPoolIncomeAddress",
      "outputs": [
        {
          "internalType": "address",
          "name": "",
          "type": "address"
        }
      ],
      "stateMutability": "view",
      "type": "function"
    },
    {
      "inputs": [
        {
          "internalType": "address",
          "name": "borrower",
          "type": "address"
        },
        {
          "internalType": "uint256",
          "name": "amountNeeded",
          "type": "uint256"
        }
      ],
      "name": "liquidateDue",
      "outputs": [],
      "stateMutability": "nonpayable",
      "type": "function"
    },
    {
      "inputs": [],
      "name": "liquidityPool",
      "outputs": [
        {
          "internalType": "contract ILiquidityPool",
          "name": "",
          "type": "address"
        }
      ],
      "stateMutability": "view",
      "type": "function"
    },
    {
      "inputs": [
        {
          "internalType": "address",
          "name": "",
          "type": "address"
        }
      ],
      "name": "loans",
      "outputs": [
        {
          "internalType": "address",
          "name": "borrower",
          "type": "address"
        },
        {
          "internalType": "address",
          "name": "token",
          "type": "address"
        },
        {
          "internalType": "address",
          "name": "merchant",
          "type": "address"
        },
        {
          "internalType": "uint256",
          "name": "principal",
          "type": "uint256"
        },
        {
          "internalType": "uint256",
          "name": "outstanding",
          "type": "uint256"
        },
        {
          "internalType": "uint256",
          "name": "startedAt",
          "type": "uint256"
        },
        {
          "internalType": "uint256",
          "name": "installmentsPaid",
          "type": "uint256"
        },
        {
          "internalType": "uint256",
          "name": "fee",
          "type": "uint256"
        },
        {
          "internalType": "bool",
          "name": "active",
          "type": "bool"
        }
      ],
      "stateMutability": "view",
      "type": "function"
    },
    {
      "inputs": [],
      "name": "merchantFeeBps",
      "outputs": [
        {
          "internalType": "uint256",
          "name": "",
          "type": "uint256"
        }
      ],
      "stateMutability": "view",
      "type": "function"
    },
    {
      "inputs": [
        {
          "internalType": "address",
          "name": "borrower",
          "type": "address"
        }
      ],
      "name": "outstandingOf",
      "outputs": [
        {
          "internalType": "uint256",
          "name": "",
          "type": "uint256"
        }
      ],
      "stateMutability": "view",
      "type": "function"
    },
    {
      "inputs": [],
      "name": "pause",
      "outputs": [],
      "stateMutability": "nonpayable",
      "type": "function"
    },
    {
      "inputs": [],
      "name": "paused",
      "outputs": [
        {
          "internalType": "bool",
          "name": "",
          "type": "bool"
        }
      ],
      "stateMutability": "view",
      "type": "function"
    },
    {
      "inputs": [],
      "name": "platformFeeAddress",
      "outputs": [
        {
          "internalType": "address",
          "name": "",
          "type": "address"
        }
      ],
      "stateMutability": "view",
      "type": "function"
    },
    {
      "inputs": [],
      "name": "platformFeeOfTotalBps",
      "outputs": [
        {
          "internalType": "uint256",
          "name": "",
          "type": "uint256"
        }
      ],
      "stateMutability": "view",
      "type": "function"
    },
    {
      "inputs": [
        {
          "internalType": "address",
          "name": "token",
          "type": "address"
        },
        {
          "internalType": "uint256",
          "name": "amount",
          "type": "uint256"
        }
      ],
      "name": "repay",
      "outputs": [],
      "stateMutability": "nonpayable",
      "type": "function"
    },
    {
      "inputs": [
        {
          "internalType": "address",
          "name": "tokenToBorrow",
          "type": "address"
        },
        {
          "internalType": "uint256",
          "name": "requestedAmount",
          "type": "uint256"
        }
      ],
      "name": "requestLoan",
      "outputs": [],
      "stateMutability": "nonpayable",
      "type": "function"
    },
    {
      "inputs": [
        {
          "internalType": "address",
          "name": "_platformFeeAddr",
          "type": "address"
        },
        {
          "internalType": "address",
          "name": "_lenderPoolIncomeAddr",
          "type": "address"
        }
      ],
      "name": "setFeeAddresses",
      "outputs": [],
      "stateMutability": "nonpayable",
      "type": "function"
    },
    {
      "inputs": [
        {
          "internalType": "uint256",
          "name": "_bps",
          "type": "uint256"
        }
      ],
      "name": "setMerchantFeeBps",
      "outputs": [],
      "stateMutability": "nonpayable",
      "type": "function"
    },
    {
      "inputs": [
        {
          "internalType": "uint256",
          "name": "_platformBps",
          "type": "uint256"
        },
        {
          "internalType": "uint256",
          "name": "_lenderBps",
          "type": "uint256"
        }
      ],
      "name": "setPlatformAndLenderFeeSplits",
      "outputs": [],
      "stateMutability": "nonpayable",
      "type": "function"
    },
    {
      "inputs": [],
      "name": "unpause",
      "outputs": [],
      "stateMutability": "nonpayable",
      "type": "function"
    },
    {
      "inputs": [],
      "name": "vault",
      "outputs": [
        {
          "internalType": "contract ILoanVaultCoreV3",
          "name": "",
          "type": "address"
        }
      ],
      "stateMutability": "view",
      "type": "function"
    }
  ],
  "bytecode": "0x6080346101ea57601f611b0238819003918201601f19168301916001600160401b038311848410176101ee5780849260c0946040528339810103126101ea5761004781610202565b61005360208301610202565b9061006060408401610202565b61006c60608501610202565b9261008560a061007e60808801610202565b9601610202565b60015f5561032060055560646006556102bc600755926001600160a01b0316801515806101d8575b806101c6575b806101b4575b806101a2575b80610190575b1561014b57600180546001600160a01b03199081169290921790556002805482166001600160a01b0393841617905560038054821693831693909317909255600480546008805485169784169790971790965560098054909316938216939093179091556001600160a81b0319909316919092161790556040516118eb90816102178239f35b60405162461bcd60e51b815260206004820152601960248201527f4c6f616e4d616e616765723a207a65726f2061646472657373000000000000006044820152606490fd5b506001600160a01b03841615156100c5565b506001600160a01b03861615156100bf565b506001600160a01b03851615156100b9565b506001600160a01b03831615156100b3565b506001600160a01b03821615156100ad565b5f80fd5b634e487b7160e01b5f52604160045260245ffd5b51906001600160a01b03821682036101ea5756fe6080806040526004361015610012575f80fd5b5f905f3560e01c90816311c84120146115a65750806313007d551461157e57806315c0c8321461156157806322867d781461138b5780633f4ba83a146113055780634f98cded146112e85780635c975abb146112c3578063665a11ca1461129b5780636a2df6471461127357806373b4086b146111ed57806377a1875a146111b25780637c46499b14610de45780638456cb5914610d395780638d68861a14610d1c57806392594d7914610cf4578063aa4c7fad14610b0e578063b7f2458a14610a53578063d04d041c1461034d578063e8a7da8e14610256578063ed14834f1461022d578063fbfa77cf146102045763fd4d9a3214610110575f80fd5b3461020157604036600319011261020157600435602435906024602060018060a01b036001541660405192838092630935e01b60e21b82523360048301525afa80156101f6576101679185916101c7575b50611774565b610171828261188e565b600554036101825760065560075580f35b60405162461bcd60e51b815260206004820152601b60248201527f4c6f616e4d616e616765723a2073706c6974206d69736d6174636800000000006044820152606490fd5b6101e9915060203d6020116101ef575b6101e1818361173a565b81019061175c565b5f610161565b503d6101d7565b6040513d86823e3d90fd5b80fd5b50346102015780600319360112610201576003546040516001600160a01b039091168152602090f35b50346102015780600319360112610201576008546040516001600160a01b039091168152602090f35b5034610201576020366003190112610201576001600160a01b036102786116b9565b168152600a602052604081206040519161012083019083821067ffffffffffffffff831117610339575060405261033561010060018060a01b038354169283855260018060a01b036001820154169485602082015260018060a01b0360028301541680604083015260038301548060608401526004840154908160808501526005850154928360a08601526006860154948560c082015260ff60086007890154988960e085015201541615159788910152604051998a998a6116e5565b0390f35b634e487b7160e01b81526041600452602490fd5b50346107775760c0366003190112610777576103676116b9565b61036f6116cf565b60a4356001600160a01b0381169291608435906044359060643586850361077757600154604051638b7ac4d560e01b81523360048201526001600160a01b0390911695906020816024818a5afa90811561076c575f91610a34575b50156109ef576103dd60015f54146117b9565b60025f556004546103f460ff8260a01c1615611805565b604051630935e01b60e21b81526001600160a01b0389166004820181905297602082602481845afa91821561076c575f926109ce575b50811561097a575b50610935578615158061092c575b156108fb57865f52600a60205260ff600860405f200154166108c6578415906104698215611847565b60405163032811f360e11b815260048101899052906001600160a01b0316602082602481845afa90811561076c576024925f92610894575b506020906040519384809263cd75495160e01b82528d60048301525afa91821561076c575f9261085e575b5061ffff1615159081610853575b501561081d576003546040516355e6e1e760e11b81526001600160a01b03998a166004820152858a1660248201529816976020816044818c5afa801561076c5784915f916107e8575b50106107a3576022850290858204602214171561078f57612710610548910485611881565b9261055c836105578888611881565b611881565b610566818561188e565b94604051608081019080821067ffffffffffffffff83111761077b578c916040528a81526020810160018060a01b0386169c8d8252604083019384526060830192898452813b1561077757604051631dd7c13960e01b815290516001600160a01b03908116600483015292518316602482015293519091166044840152905160648301525f908290608490829084905af1801561076c57610751575b50908b9392916106c6575b50505060409392917f993fe0584e9b5abdcb2eb0582e7ccd65ceb33d252790cb08d51deabddcea1e64958760089352600a602052858b2091886001600160601b0360a01b845416178355600183018a6001600160601b0360a01b825416179055600283018b6001600160601b0360a01b8254161790558560038401556106938187611881565b60048401554260058401556006830155600782015501805460ff1916600117905582519182526020820152a46001815580f35b6002546001600160a01b0316803b1561074d5760405163201add9b60e01b81526001600160a01b039384166004820152939092166024840152604483015282908290606490829084905af1801561074257610723575b808061060d565b81610731919594939561173a565b61073e579091875f61071c565b8780fd5b6040513d84823e3d90fd5b8480fd5b610761919493929c505f9061173a565b5f9a9091925f610602565b6040513d5f823e3d90fd5b5f80fd5b634e487b7160e01b5f52604160045260245ffd5b634e487b7160e01b5f52601160045260245ffd5b60405162461bcd60e51b815260206004820152601b60248201527f5661756c743a20696e73756666696369656e742062616c616e636500000000006044820152606490fd5b9150506020813d602011610815575b816108046020938361173a565b81010312610777578390515f610523565b3d91506107f7565b60405162461bcd60e51b815260206004820152600e60248201526d125b9d985b1a5908185b5bdd5b9d60921b6044820152606490fd5b90508511155f6104da565b9091506020813d60201161088c575b8161087a6020938361173a565b8101031261077757519061ffff6104cc565b3d915061086d565b60209192506108b890823d84116108bf575b6108b0818361173a565b81019061189b565b91906104a1565b503d6108a6565b60405162461bcd60e51b815260206004820152600d60248201526c22bc34b9ba34b733903637b0b760991b6044820152606490fd5b60405162461bcd60e51b81526020600482015260096024820152682d32b9379030b2323960b91b6044820152606490fd5b50881515610440565b60405162461bcd60e51b815260206004820152601860248201527f50726976696c656765642063616e6e6f7420626f72726f7700000000000000006044820152606490fd5b6024915060209060405192838092638b7ac4d560e01b82528c60048301525afa90811561076c575f916109af575b505f610432565b6109c8915060203d6020116101ef576101e1818361173a565b5f6109a8565b6109e891925060203d6020116101ef576101e1818361173a565b905f61042a565b60405162461bcd60e51b815260206004820152601f60248201527f4c6f616e4d616e616765723a206e6f7420637265646974206f666669636572006044820152606490fd5b610a4d915060203d6020116101ef576101e1818361173a565b5f6103ca565b34610777576020366003190112610777576004356024602060018060a01b036001541660405192838092630935e01b60e21b82523360048301525afa801561076c57610aa5915f91610aef5750611774565b6107d08111610ab357600555005b60405162461bcd60e51b81526020600482015260146024820152734c6f616e4d616e616765723a206d61782032302560601b6044820152606490fd5b610b08915060203d6020116101ef576101e1818361173a565b83610161565b3461077757604036600319011261077757610b276116b9565b60243590610b3860015f54146117b9565b60025f55610b4e60ff60045460a01c1615611805565b6001546040516335d2155560e11b8152336004820152906001600160a01b0316602082602481845afa91821561076c575f92610cd3575b508115610c7e575b5015610c4a5760018060a01b031690815f52600a60205260405f2090600882019160ff83541615610c14576004018054909190808210610bff5750505f905560ff1981541690557f314bd9beaed705e54938dcb29f8f4ccd8b4e9c766dd263b70acf7d5bd5f5da555f80a25b60015f55005b90919350610c0d9250611881565b9055610bf9565b60405162461bcd60e51b815260206004820152600e60248201526d27379030b1ba34bb32903637b0b760911b6044820152606490fd5b60405162461bcd60e51b815260206004820152600c60248201526b155b985d5d1a1bdc9a5e995960a21b6044820152606490fd5b604051630935e01b60e21b81523360048201529150602090829060249082905afa90811561076c575f91610cb4575b5083610b8d565b610ccd915060203d6020116101ef576101e1818361173a565b83610cad565b610ced91925060203d6020116101ef576101e1818361173a565b9084610b85565b34610777575f366003190112610777576009546040516001600160a01b039091168152602090f35b34610777575f366003190112610777576020600554604051908152f35b34610777575f36600319011261077757600154604051630935e01b60e21b815233600482015290602090829060249082906001600160a01b03165afa801561076c57610d8b915f91610dc55750611774565b6004805460ff60a01b1916600160a01b179055337f62e78cea01bee320cd4e420270b5ea74000d11b0c9f74754ebdbfc544b05a2585f80a2005b610dde915060203d6020116101ef576101e1818361173a565b82610161565b3461077757604036600319011261077757610dfd6116b9565b60243560045490610e1460ff8360a01c1615611805565b6001600160a01b03831691821561116d57335f52600a60205260ff600860405f200154166111285760405163032811f360e11b8152336004820152906001600160a01b0316602082602481845afa90811561076c576024925f92611106575b506020906040519384809263cd75495160e01b82523360048301525afa91821561076c575f926110d0575b5061ffff161561108b5781159081159081611080575b5015611031576003546040516355e6e1e760e11b81523360048201526001600160a01b0395861660248201529460209186916044918391165afa93841561076c575f94610ffd575b5060228202918204602214171561078f576127109004809210610fac576002546040516323b872dd60e01b81523360048201526001600160a01b0390911660248201526044810183905290602090829060649082905f905af1801561076c57610f8f575b506040519081527f06c22e520074f676b380b03ffba06f2ccf61e51cbeee2a4e084b80a19d2fc23760203392a2005b610fa79060203d6020116101ef576101e1818361173a565b610f60565b60405162461bcd60e51b8152602060048201526024808201527f4c6f616e4d616e616765723a20696e73756666696369656e7420636f6c6c6174604482015263195c985b60e21b6064820152608490fd5b9093506020813d602011611029575b816110196020938361173a565b8101031261077757519284610efc565b3d915061100c565b60405162461bcd60e51b815260206004820152602160248201527f4c6f616e4d616e616765723a206578636565647320637265646974206c696d696044820152601d60fa1b6064820152608490fd5b905082111585610eb4565b60405162461bcd60e51b815260206004820152601a60248201527f4c6f616e4d616e616765723a20696e76616c69642073636f72650000000000006044820152606490fd5b9091506020813d6020116110fe575b816110ec6020938361173a565b8101031261077757519061ffff610e9e565b3d91506110df565b602091925061112190823d84116108bf576108b0818361173a565b9190610e73565b60405162461bcd60e51b815260206004820152601f60248201527f4c6f616e4d616e616765723a206f6e65206c6f616e20617420612074696d65006044820152606490fd5b60405162461bcd60e51b815260206004820152601760248201527f4c6f616e4d616e616765723a207a65726f20746f6b656e0000000000000000006044820152606490fd5b34610777576020366003190112610777576001600160a01b036111d36116b9565b165f52600a6020526020600460405f200154604051908152f35b34610777576020366003190112610777576001600160a01b0361120e6116b9565b165f52600a60205260405f2060018060a01b0381541661033560018060a01b036001840154169260018060a01b03600282015416906003810154600482015460058301549060068401549260ff600860078701549601541695604051998a998a6116e5565b34610777575f366003190112610777576004546040516001600160a01b039091168152602090f35b34610777575f366003190112610777576002546040516001600160a01b039091168152602090f35b34610777575f36600319011261077757602060ff60045460a01c166040519015158152f35b34610777575f366003190112610777576020600754604051908152f35b34610777575f36600319011261077757600154604051630935e01b60e21b815233600482015290602090829060249082906001600160a01b03165afa801561076c57611357915f91610dc55750611774565b6004805460ff60a01b19169055337f5db9ee0a495bf2e6ff9c91a7834c1ba4fdd244a5e8aa4e537bd38aeae4b073aa5f80a2005b34610777576040366003190112610777576113a46116b9565b6024356113b460015f54146117b9565b60025f556113ca60ff60045460a01c1615611805565b6113d5811515611847565b335f52600a60205260405f20600881019260ff84541680611548575b1561150e5761144d60048301938454908181115f146115065750915b6002546040516323b872dd60e01b81523360048201526001600160a01b039182166024820152604481018590529116939091602090839081906064820190565b03815f885af191821561076c576006926114e9575b5061146e838654611881565b8095550161147d82825461188e565b90556040519081527f3af4119bfbfe5fad91d49964d41a50d53c558acd92d71e08b936ae3d5a0047fb60203392a3156114b65760015f55005b805460ff19169055337f314bd9beaed705e54938dcb29f8f4ccd8b4e9c766dd263b70acf7d5bd5f5da555f80a280610bf9565b6115019060203d6020116101ef576101e1818361173a565b611462565b90509161140d565b60405162461bcd60e51b815260206004820152601260248201527124b73b30b634b2103637b0b717ba37b5b2b760711b6044820152606490fd5b5060018201546001600160a01b038281169116146113f1565b34610777575f366003190112610777576020600654604051908152f35b34610777575f366003190112610777576001546040516001600160a01b039091168152602090f35b34610777576040366003190112610777576115bf6116b9565b6115c76116cf565b9160208160248160018060a01b0360015416630935e01b60e21b82523360048301525afa801561076c57611601915f9161169a5750611774565b6001600160a01b031680151580611688575b1561164a576001600160601b0360a01b600854161760085560018060a01b03166001600160601b0360a01b60095416176009555f80f35b60405162461bcd60e51b81526020600482015260166024820152752637b0b726b0b730b3b2b91d103d32b9379030b2323960511b6044820152606490fd5b506001600160a01b0382161515611613565b6116b3915060203d6020116101ef576101e1818361173a565b84610161565b600435906001600160a01b038216820361077757565b602435906001600160a01b038216820361077757565b6001600160a01b039182168152918116602083015290911660408201526060810191909152608081019190915260a081019190915260c081019190915260e08101919091529015156101008201526101200190565b90601f8019910116810190811067ffffffffffffffff82111761077b57604052565b90816020910312610777575180151581036107775790565b1561177b57565b60405162461bcd60e51b81526020600482015260166024820152752637b0b726b0b730b3b2b91d103737ba1030b236b4b760511b6044820152606490fd5b156117c057565b60405162461bcd60e51b815260206004820152601f60248201527f5265656e7472616e637947756172643a207265656e7472616e742063616c6c006044820152606490fd5b1561180c57565b60405162461bcd60e51b8152602060048201526013602482015272131bd85b93585b9859d95c8e881c185d5cd959606a1b6044820152606490fd5b1561184e57565b60405162461bcd60e51b815260206004820152600b60248201526a16995c9bc8185b5bdd5b9d60aa1b6044820152606490fd5b9190820391821161078f57565b9190820180921161078f57565b90816020910312610777575161ffff81168103610777579056fea2646970667358221220876148389e4159ccfde8ec957ca655d3b7c91407b4d4d03efe3486b1b102257e64736f6c634300081e0033",
  "source": "// SPDX-License-Identifier: MIT\r\npragma solidity ^0.8.23;\r\n\r\nimport \"../libs/ReentrancyGuard.sol\";\r\n\r\ninterface ITRC20 {\r\n    function balanceOf(address account) external view returns (uint256);\r\n    function transfer(address to, uint256 value) external returns (bool);\r\n    function transferFrom(address from, address to, uint256 value) external returns (bool);\r\n}\r\n\r\ninterface ILoanVaultCoreV3 {\r\n    struct SweepParams {\r\n        address borrower;\r\n        address tokenToBorrow;\r\n        address merchantAddr;\r\n        uint256 depositAmount;\r\n    }\r\n    function sweepCollateral(SweepParams calldata p) external;\r\n    function getVaultBalance(address borrower, address token) external view returns (uint256);\r\n}\r\n\r\ninterface ILiquidityPool {\r\n    function pullFunds(address token, address to, uint256 amount) external;\r\n}\r\n\r\ninterface IBorderlessCreditNFT {\r\n    function getCreditScoreByBorrower(address borrower) external view returns (uint16);\r\n    function getCreditLimitByBorrower(address borrower) external view returns (uint256);\r\n}\r\n\r\ninterface IAccessControl {\r\n    function isAdmin(address user) external view returns (bool);\r\n    function isCreditOfficer(address user) external view returns (bool);\r\n    function isKeeper(address user) external view returns (bool);\r\n}\r\n\r\ncontract LoanManagerV6 is ReentrancyGuard {\r\n   \r\n\r\n    // External contracts\r\n    IAccessControl public accessControl;\r\n    ILiquidityPool public liquidityPool;\r\n    ILoanVaultCoreV3 public vault;\r\n    IBorderlessCreditNFT public creditNFT;\r\n\r\n    // Pause state\r\n    bool public paused;\r\n\r\n    // Fees (bps)\r\n    uint256 public merchantFeeBps = 800;\r\n    uint256 public platformFeeOfTotalBps = 100;\r\n    uint256 public lenderIncomeOfTotalBps = 700;\r\n    address public platformFeeAddress;\r\n    address public lenderPoolIncomeAddress;\r\n\r\n    struct Loan {\r\n        address borrower;\r\n        address token;\r\n        address merchant;\r\n        uint256 principal;\r\n        uint256 outstanding;\r\n        uint256 startedAt;\r\n        uint256 installmentsPaid;\r\n        uint256 fee;\r\n        bool active;\r\n    }\r\n\r\n    mapping(address => Loan) public loans;\r\n\r\n    // Events\r\n    event LoanRequested(address indexed borrower, uint256 requestedAmount);\r\n    event LoanApproved(address indexed borrower, uint256 totalAmount, address indexed token, address indexed merchant, uint256 settleAmount);\r\n    event BorrowerRepayment(address indexed borrower, address indexed token, uint256 amount);\r\n    event LoanRepaid(address indexed borrower);\r\n    event Paused(address indexed by);\r\n    event Unpaused(address indexed by);\r\n\r\n    modifier onlyAdmin() {\r\n        require(accessControl.isAdmin(msg.sender), \"LoanManager: not admin\");\r\n        _;\r\n    }\r\n\r\n    modifier onlyCreditOfficer() {\r\n        require(accessControl.isCreditOfficer(msg.sender), \"LoanManager: not credit officer\");\r\n        _;\r\n    }\r\n\r\n    modifier whenNotPaused() {\r\n        require(!paused, \"LoanManager: paused\");\r\n        _;\r\n    }\r\n\r\n    constructor(\r\n        address _accessControl,\r\n        address _liquidityPool,\r\n        address _vault,\r\n        address _creditNFT,\r\n        address _platformFeeAddr,\r\n        address _lenderPoolIncomeAddr\r\n    ) {\r\n        require(_accessControl != address(0) && _liquidityPool != address(0) &&\r\n                _vault != address(0) && _creditNFT != address(0) &&\r\n                _platformFeeAddr != address(0) && _lenderPoolIncomeAddr != address(0),\r\n                \"LoanManager: zero address\");\r\n\r\n        accessControl = IAccessControl(_accessControl);\r\n        liquidityPool = ILiquidityPool(_liquidityPool);\r\n        vault = ILoanVaultCoreV3(_vault);\r\n        creditNFT = IBorderlessCreditNFT(_creditNFT);\r\n        platformFeeAddress = _platformFeeAddr;\r\n        lenderPoolIncomeAddress = _lenderPoolIncomeAddr;\r\n        paused = false;\r\n    }\r\n\r\n    // --- Pause functions ---\r\n    function pause() external onlyAdmin {\r\n        paused = true;\r\n        emit Paused(msg.sender);\r\n    }\r\n\r\n    function unpause() external onlyAdmin {\r\n        paused = false;\r\n        emit Unpaused(msg.sender);\r\n    }\r\n\r\n    // --- Admin setters ---\r\n    function setFeeAddresses(address _platformFeeAddr, address _lenderPoolIncomeAddr) external onlyAdmin {\r\n        require(_platformFeeAddr != address(0) && _lenderPoolIncomeAddr != address(0), \"LoanManager: zero addr\");\r\n        platformFeeAddress = _platformFeeAddr;\r\n        lenderPoolIncomeAddress = _lenderPoolIncomeAddr;\r\n    }\r\n\r\n    function setMerchantFeeBps(uint256 _bps) external onlyAdmin {\r\n        require(_bps <= 2000, \"LoanManager: max 20%\");\r\n        merchantFeeBps = _bps;\r\n    }\r\n\r\n    function setPlatformAndLenderFeeSplits(uint256 _platformBps, uint256 _lenderBps) external onlyAdmin {\r\n        require(_platformBps + _lenderBps == merchantFeeBps, \"LoanManager: split mismatch\");\r\n        platformFeeOfTotalBps = _platformBps;\r\n        lenderIncomeOfTotalBps = _lenderBps;\r\n    }\r\n\r\n    // --- Loan request & approval ---\r\n    function requestLoan(address tokenToBorrow, uint256 requestedAmount) external whenNotPaused {\r\n        require(tokenToBorrow != address(0), \"LoanManager: zero token\");\r\n        require(!loans[msg.sender].active, \"LoanManager: one loan at a time\");\r\n\r\n        uint16 score = creditNFT.getCreditScoreByBorrower(msg.sender);\r\n        uint256 nftLimit = creditNFT.getCreditLimitByBorrower(msg.sender);\r\n\r\n        require(score > 0, \"LoanManager: invalid score\");\r\n        require(requestedAmount > 0 && requestedAmount <= nftLimit, \"LoanManager: exceeds credit limit\");\r\n\r\n        uint256 vaultBalance = vault.getVaultBalance(msg.sender, tokenToBorrow);\r\n        uint256 requiredCollateral = (requestedAmount * 34) / 10000;\r\n        require(vaultBalance >= requiredCollateral, \"LoanManager: insufficient collateral\");\r\n        ITRC20(tokenToBorrow).transferFrom(msg.sender, address(liquidityPool), requiredCollateral);\r\n\r\n        emit LoanRequested(msg.sender, requiredCollateral);\r\n    }\r\n\r\n    function approveAndDisburse(\r\n        address borrower,\r\n        address tokenToBorrow,\r\n        uint256 totalAmount,\r\n        uint256 depositAmount,\r\n        uint256 fee,\r\n        address merchantAddr\r\n    ) external onlyCreditOfficer nonReentrant whenNotPaused {\r\n        require(!_isPrivileged(borrower), \"Privileged cannot borrow\");\r\n        require(borrower != address(0) && merchantAddr != address(0), \"Zero addr\");\r\n        require(!loans[borrower].active, \"Existing loan\");\r\n        require(totalAmount > 0, \"Zero amount\");\r\n\r\n        uint16 score = creditNFT.getCreditScoreByBorrower(borrower);\r\n        uint256 nftLimit = creditNFT.getCreditLimitByBorrower(borrower);\r\n        require(score > 0 && totalAmount <= nftLimit, \"Invalid amount\");\r\n\r\n        uint256 vaultBalance = vault.getVaultBalance(borrower, tokenToBorrow);\r\n        require(vaultBalance >= depositAmount, \"Vault: insufficient balance\");\r\n\r\n        uint256 borrowerPart = (totalAmount * 34) / 10000;\r\n        uint256 lenderPart = totalAmount - borrowerPart;\r\n        uint256 merchantSettleAmt = totalAmount - fee - depositAmount;\r\n        uint256 settleAmount = depositAmount + merchantSettleAmt;\r\n\r\n        // Sweep collateral from vault to merchant\r\n        ILoanVaultCoreV3.SweepParams memory p = ILoanVaultCoreV3.SweepParams({\r\n            borrower: borrower,\r\n            tokenToBorrow: tokenToBorrow,\r\n            merchantAddr: merchantAddr,\r\n            depositAmount: depositAmount\r\n        });\r\n        vault.sweepCollateral(p);\r\n\r\n        // Pull lender funds from liquidity pool\r\n        if (lenderPart > 0) {\r\n            liquidityPool.pullFunds(tokenToBorrow, merchantAddr, merchantSettleAmt);\r\n        }\r\n\r\n        // Record loan\r\n        Loan storage L = loans[borrower];\r\n        L.borrower = borrower;\r\n        L.token = tokenToBorrow;\r\n        L.merchant = merchantAddr;\r\n        L.principal = totalAmount;\r\n        L.outstanding = totalAmount - depositAmount;\r\n        L.startedAt = block.timestamp;\r\n        L.installmentsPaid = depositAmount;\r\n        L.fee = fee;\r\n        L.active = true;\r\n\r\n        emit LoanApproved(borrower, totalAmount, tokenToBorrow, merchantAddr,settleAmount);\r\n    }\r\n\r\n    // --- Repayments ---\r\n    function repay(address token, uint256 amount) external nonReentrant whenNotPaused {\r\n        require(amount > 0, \"Zero amount\");\r\n        Loan storage L = loans[msg.sender];\r\n        require(L.active && token == L.token, \"Invalid loan/token\");\r\n\r\n        uint256 payAmount = amount > L.outstanding ? L.outstanding : amount;\r\n        ITRC20(token).transferFrom(msg.sender, address(liquidityPool), payAmount);\r\n\r\n        L.outstanding -= payAmount;\r\n        L.installmentsPaid += payAmount;\r\n        emit BorrowerRepayment(msg.sender, token, payAmount);\r\n\r\n        if (L.outstanding == 0) {\r\n            L.active = false;\r\n            emit LoanRepaid(msg.sender);\r\n        }\r\n    }\r\n\r\n    // --- Keeper/Admin liquidation ---\r\n    function liquidateDue(address borrower, uint256 amountNeeded) external nonReentrant whenNotPaused {\r\n        require(accessControl.isKeeper(msg.sender) || accessControl.isAdmin(msg.sender), \"Unauthorized\");\r\n        Loan storage L = loans[borrower];\r\n        require(L.active, \"No active loan\");\r\n\r\n        if (amountNeeded >= L.outstanding) {\r\n            L.outstanding = 0;\r\n            L.active = false;\r\n            emit LoanRepaid(borrower);\r\n        } else {\r\n            L.outstanding -= amountNeeded;\r\n        }\r\n    }\r\n\r\n    // --- Loan getters ---\r\n    function getLoanDetails(address borrower) external view returns (\r\n        address loanBorrower,\r\n        address token,\r\n        address merchant,\r\n        uint256 principal,\r\n        uint256 outstanding,\r\n        uint256 startedAt,\r\n        uint256 installmentsPaid,\r\n        uint256 fee,\r\n        bool active\r\n    ) {\r\n        Loan memory L = loans[borrower];\r\n        return (L.borrower, L.token, L.merchant, L.principal, L.outstanding, L.startedAt, L.installmentsPaid, L.fee, L.active);\r\n    }\r\n\r\n    function outstandingOf(address borrower) external view returns (uint256) {\r\n        return loans[borrower].outstanding;\r\n    }\r\n\r\n    function _isPrivileged(address user) internal view returns (bool) {\r\n        return accessControl.isAdmin(user) || accessControl.isCreditOfficer(user);\r\n    }\r\n}\r\n",
  "sourcePath": "C:/workspace/tronbfpay/contracts/v3/LoanManagerV9.sol",
  "compiler": {
    "name": "solc",
    "version": "0.8.30+commit.73712a01.Emscripten.clang"
  },
  "schemaVersion": "2.0.1",
  "updatedAt": "2025-10-09T04:28:08.043Z"
}