{
  "contractName": "LoanVaultCoreV15",
  "abi": [
    {
      "inputs": [
        {
          "internalType": "address",
          "name": "_accessControl",
          "type": "address"
        },
        {
          "internalType": "address",
          "name": "_liquidityPool",
          "type": "address"
        }
      ],
      "stateMutability": "nonpayable",
      "type": "constructor"
    },
    {
      "anonymous": false,
      "inputs": [
        {
          "indexed": true,
          "internalType": "address",
          "name": "who",
          "type": "address"
        },
        {
          "indexed": true,
          "internalType": "address",
          "name": "token",
          "type": "address"
        },
        {
          "indexed": false,
          "internalType": "uint256",
          "name": "amount",
          "type": "uint256"
        }
      ],
      "name": "CollateralDeposited",
      "type": "event"
    },
    {
      "anonymous": false,
      "inputs": [
        {
          "indexed": true,
          "internalType": "address",
          "name": "who",
          "type": "address"
        },
        {
          "indexed": true,
          "internalType": "address",
          "name": "token",
          "type": "address"
        },
        {
          "indexed": false,
          "internalType": "uint256",
          "name": "amount",
          "type": "uint256"
        }
      ],
      "name": "CollateralSweep",
      "type": "event"
    },
    {
      "anonymous": false,
      "inputs": [
        {
          "indexed": true,
          "internalType": "address",
          "name": "token",
          "type": "address"
        },
        {
          "indexed": true,
          "internalType": "address",
          "name": "to",
          "type": "address"
        },
        {
          "indexed": false,
          "internalType": "uint256",
          "name": "amount",
          "type": "uint256"
        }
      ],
      "name": "EmergencyWithdraw",
      "type": "event"
    },
    {
      "anonymous": false,
      "inputs": [
        {
          "indexed": true,
          "internalType": "address",
          "name": "by",
          "type": "address"
        }
      ],
      "name": "Paused",
      "type": "event"
    },
    {
      "anonymous": false,
      "inputs": [
        {
          "indexed": true,
          "internalType": "address",
          "name": "by",
          "type": "address"
        }
      ],
      "name": "Unpaused",
      "type": "event"
    },
    {
      "inputs": [],
      "name": "accessControl",
      "outputs": [
        {
          "internalType": "address",
          "name": "",
          "type": "address"
        }
      ],
      "stateMutability": "view",
      "type": "function"
    },
    {
      "inputs": [
        {
          "internalType": "address",
          "name": "",
          "type": "address"
        },
        {
          "internalType": "address",
          "name": "",
          "type": "address"
        }
      ],
      "name": "collateral",
      "outputs": [
        {
          "internalType": "uint256",
          "name": "",
          "type": "uint256"
        }
      ],
      "stateMutability": "view",
      "type": "function"
    },
    {
      "inputs": [
        {
          "internalType": "address",
          "name": "token",
          "type": "address"
        },
        {
          "internalType": "uint256",
          "name": "amount",
          "type": "uint256"
        }
      ],
      "name": "depositCollateral",
      "outputs": [],
      "stateMutability": "nonpayable",
      "type": "function"
    },
    {
      "inputs": [
        {
          "internalType": "address",
          "name": "borrower",
          "type": "address"
        },
        {
          "internalType": "address",
          "name": "token",
          "type": "address"
        }
      ],
      "name": "getVaultBalance",
      "outputs": [
        {
          "internalType": "uint256",
          "name": "",
          "type": "uint256"
        }
      ],
      "stateMutability": "view",
      "type": "function"
    },
    {
      "inputs": [],
      "name": "liquidityPool",
      "outputs": [
        {
          "internalType": "address",
          "name": "",
          "type": "address"
        }
      ],
      "stateMutability": "view",
      "type": "function"
    },
    {
      "inputs": [],
      "name": "pause",
      "outputs": [],
      "stateMutability": "nonpayable",
      "type": "function"
    },
    {
      "inputs": [],
      "name": "paused",
      "outputs": [
        {
          "internalType": "bool",
          "name": "",
          "type": "bool"
        }
      ],
      "stateMutability": "view",
      "type": "function"
    },
    {
      "inputs": [
        {
          "internalType": "address",
          "name": "borrower",
          "type": "address"
        },
        {
          "internalType": "address",
          "name": "token",
          "type": "address"
        },
        {
          "internalType": "uint256",
          "name": "amount",
          "type": "uint256"
        }
      ],
      "name": "removeCollateral",
      "outputs": [],
      "stateMutability": "nonpayable",
      "type": "function"
    },
    {
      "inputs": [
        {
          "internalType": "address",
          "name": "_accessControl",
          "type": "address"
        }
      ],
      "name": "setAccessControl",
      "outputs": [],
      "stateMutability": "nonpayable",
      "type": "function"
    },
    {
      "inputs": [
        {
          "internalType": "address",
          "name": "_liquidityPool",
          "type": "address"
        }
      ],
      "name": "setLiquidityPool",
      "outputs": [],
      "stateMutability": "nonpayable",
      "type": "function"
    },
    {
      "inputs": [
        {
          "components": [
            {
              "internalType": "address",
              "name": "borrower",
              "type": "address"
            },
            {
              "internalType": "address",
              "name": "tokenToBorrow",
              "type": "address"
            },
            {
              "internalType": "address",
              "name": "merchantAddr",
              "type": "address"
            },
            {
              "internalType": "uint256",
              "name": "depositAmount",
              "type": "uint256"
            }
          ],
          "internalType": "struct LoanVaultCoreV15.SweepParams",
          "name": "p",
          "type": "tuple"
        }
      ],
      "name": "sweepCollateral",
      "outputs": [],
      "stateMutability": "nonpayable",
      "type": "function"
    },
    {
      "inputs": [],
      "name": "unpause",
      "outputs": [],
      "stateMutability": "nonpayable",
      "type": "function"
    }
  ],
  "bytecode": "0x60803461011e57601f61106938819003918201601f19168301916001600160401b0383118484101761012257808492604094855283398101031261011e57610052602061004b83610136565b9201610136565b6001600160a01b039091169081156100e4576001600160a01b03169081156100aa575f80546001600160a01b031916919091179055600180546001600160a81b031916919091179055604051610f1e908161014b8239f35b60405162461bcd60e51b81526020600482015260126024820152711e995c9bc81b1a5c5d5a591a5d1e541bdbdb60721b6044820152606490fd5b60405162461bcd60e51b81526020600482015260126024820152711e995c9bc81858d8d95cdcd0dbdb9d1c9bdb60721b6044820152606490fd5b5f80fd5b634e487b7160e01b5f52604160045260245ffd5b51906001600160a01b038216820361011e5756fe60806040526004361015610011575f80fd5b5f3560e01c80630187702014610b9957806313007d5514610b7257806319129e5a14610b1f5780631dd7c1391461072a5780633f4ba83a1461069c5780635c975abb14610677578063665a11ca1461064f5780638456cb59146105b8578063a5d5db0c14610292578063abcdc3ce14610242578063cc218ece146102425763cce19f811461009d575f80fd5b3461023e57606036600319011261023e576100b6610bee565b6100be610c04565b6044356100d26100cd33610e7a565b610c1a565b6001600160a01b038216925f9081908515158061022c575b6100f390610c66565b6100fe841515610ce3565b60018060a01b0316938482526002602052604082208683526020526101298460408420541015610d1d565b8482526002602052604082208683526020526040822061014a858254610d69565b905560405163a9059cbb60e01b602082019081523360248301526044808301879052825290839061017c606482610d76565b51925af1610188610e3b565b816101fd575b50156101c15760207fe783af515f58fd3380d481c6745c4302841fd36d7c108204fca4e0d7e40c6f5091604051908152a3005b60405162461bcd60e51b81526020600482015260146024820152731554d115081d1c985b9cd9995c8819985a5b195960621b6044820152606490fd5b8051801592508215610212575b50505f61018e565b6102259250602080918301019101610dac565b5f8061020a565b506001600160a01b03811615156100ea565b5f80fd5b3461023e57604036600319011261023e5761025b610bee565b610263610c04565b6001600160a01b039182165f908152600260209081526040808320949093168252928352819020549051908152f35b3461023e57604036600319011261023e576102ab610bee565b60243560ff60015460a01c1661057b576001600160a01b038216918215610549576102d7821515610ce3565b604051636eb1769f60e11b8152336004820152306024820152602081604481875afa80156104cb5783915f91610514575b50106104d6576040516370a0823160e01b8152336004820152602081602481875afa80156104cb5783915f91610496575b501061045a575f80916040518260208201916323b872dd60e01b835233602482015230604482015286606482015260648152610376608482610d76565b51925af1610382610e3b565b8161042b575b50156103f457335f52600260205260405f20825f5260205260405f208054908282018092116103e057556040519081527ff1c0dd7e9b98bbff859029005ef89b127af049cd18df1a8d79f0b7e019911e5660203392a3005b634e487b7160e01b5f52601160045260245ffd5b60405162461bcd60e51b815260206004820152600f60248201526e1d1c985b9cd9995c8819985a5b1959608a1b6044820152606490fd5b8051801592508215610440575b505083610388565b6104539250602080918301019101610dac565b8380610438565b60405162461bcd60e51b8152602060048201526014602482015273696e73756666696369656e742062616c616e636560601b6044820152606490fd5b9150506020813d6020116104c3575b816104b260209383610d76565b8101031261023e5782905185610339565b3d91506104a5565b6040513d5f823e3d90fd5b60405162461bcd60e51b8152602060048201526016602482015275696e73756666696369656e7420616c6c6f77616e636560501b6044820152606490fd5b9150506020813d602011610541575b8161053060209383610d76565b8101031261023e5782905185610308565b3d9150610523565b60405162461bcd60e51b815260206004820152600a6024820152693d32b937903a37b5b2b760b11b6044820152606490fd5b60405162461bcd60e51b8152602060048201526015602482015274131bd85b95985d5b1d10dbdc994e881c185d5cd959605a1b6044820152606490fd5b3461023e575f36600319011261023e576105d46100cd33610e7a565b60015460ff8160a01c166106195760ff60a01b1916600160a01b17600155337f62e78cea01bee320cd4e420270b5ea74000d11b0c9f74754ebdbfc544b05a2585f80a2005b60405162461bcd60e51b815260206004820152600e60248201526d185b1c9958591e481c185d5cd95960921b6044820152606490fd5b3461023e575f36600319011261023e576001546040516001600160a01b039091168152602090f35b3461023e575f36600319011261023e57602060ff60015460a01c166040519015158152f35b3461023e575f36600319011261023e576106b86100cd33610e7a565b60015460ff8160a01c16156106f85760ff60a01b1916600155337f5db9ee0a495bf2e6ff9c91a7834c1ba4fdd244a5e8aa4e537bd38aeae4b073aa5f80a2005b60405162461bcd60e51b815260206004820152600a6024820152691b9bdd081c185d5cd95960b21b6044820152606490fd5b3461023e57608036600319011261023e576107476100cd33610e7a565b6001600160a01b03610757610ca1565b16151580610b06575b80610ae8575b61076f90610c66565b60643561077d811515610ce3565b6001600160a01b0361078d610cb7565b165f52600260205260405f206107a1610ca1565b60018060a01b03165f526020526107be8160405f20541015610d1d565b6001600160a01b036107ce610cb7565b165f52600260205260405f206107e2610ca1565b60018060a01b03165f5260205260405f206107fe828254610d69565b9055602460206001600160a01b03610814610ca1565b16604051928380926370a0823160e01b82523060048301525afa80156104cb5782915f91610ab3575b5010610a62576108996020826001600160a01b03610859610ca1565b16610862610ccd565b60405163a9059cbb60e01b81526001600160a01b0390911660048201526024810192909252909283919082905f9082906044820190565b03925af15f9181610a31575b5061099c575f60033d1161098c575b6308c379a0146108fc575b60405162461bcd60e51b81526020600482015260156024820152743a37b5b2b7103932bb32b93a1d103ab735b737bbb760591b6044820152606490fd5b610904610dc4565b8061090f57506108bf565b6044604051610954602e826020808201966d03a37b5b2b7103932bb32b93a1d160951b88528051918291018484015e81015f838201520301601f198101835282610d76565b60405192839162461bcd60e51b8352602060048401525180918160248501528484015e5f828201840152601f01601f19168101030190fd5b5060045f803e5f5160e01c6108b4565b156109ec576109a9610cb7565b907fe783af515f58fd3380d481c6745c4302841fd36d7c108204fca4e0d7e40c6f5060206109d5610ca1565b6040519384526001600160a01b03908116941692a3005b60405162461bcd60e51b815260206004820152601760248201527f7472616e736665722072657475726e65642066616c73650000000000000000006044820152606490fd5b610a5491925060203d602011610a5b575b610a4c8183610d76565b810190610dac565b90836108a5565b503d610a42565b60405162461bcd60e51b8152602060048201526024808201527f7661756c742068617320696e73756666696369656e7420746f6b656e2062616c604482015263616e636560e01b6064820152608490fd5b9150506020813d602011610ae0575b81610acf60209383610d76565b8101031261023e578190518361083d565b3d9150610ac2565b5061076f6001600160a01b03610afc610ccd565b1615159050610766565b506001600160a01b03610b17610cb7565b161515610760565b3461023e57602036600319011261023e57610b38610bee565b610b446100cd33610e7a565b6001600160a01b0316610b58811515610c66565b6bffffffffffffffffffffffff60a01b5f5416175f555f80f35b3461023e575f36600319011261023e575f546040516001600160a01b039091168152602090f35b3461023e57602036600319011261023e57610bb2610bee565b610bbe6100cd33610e7a565b6001600160a01b0316610bd2811515610c66565b6bffffffffffffffffffffffff60a01b60015416176001555f80f35b600435906001600160a01b038216820361023e57565b602435906001600160a01b038216820361023e57565b15610c2157565b60405162461bcd60e51b815260206004820152601d60248201527f4c6f616e5661756c74436f72653a206e6f7420617574686f72697a65640000006044820152606490fd5b15610c6d57565b60405162461bcd60e51b815260206004820152600c60248201526b7a65726f206164647265737360a01b6044820152606490fd5b6024356001600160a01b038116810361023e5790565b6004356001600160a01b038116810361023e5790565b6044356001600160a01b038116810361023e5790565b15610cea57565b60405162461bcd60e51b815260206004820152600b60248201526a1e995c9bc8185b5bdd5b9d60aa1b6044820152606490fd5b15610d2457565b60405162461bcd60e51b815260206004820152601760248201527f696e73756666696369656e7420636f6c6c61746572616c0000000000000000006044820152606490fd5b919082039182116103e057565b90601f8019910116810190811067ffffffffffffffff821117610d9857604052565b634e487b7160e01b5f52604160045260245ffd5b9081602091031261023e5751801515810361023e5790565b5f60443d10610e2a576040513d600319016004823e8051913d602484011167ffffffffffffffff841117610e35578282019283519167ffffffffffffffff8311610e2d573d84016003190185840160200111610e2d5750610e2a92910160200190610d76565b90565b949350505050565b92915050565b3d15610e75573d9067ffffffffffffffff8211610d985760405191610e6a601f8201601f191660200184610d76565b82523d5f602084013e565b606090565b5f546001600160a01b03168015159182610e9357505090565b604051630935e01b60e21b81526001600160a01b0390911660048201529150602090829060249082905afa9081156104cb575f91610ecf575090565b610e2a915060203d602011610a5b57610a4c8183610d7656fea2646970667358221220ff5d5cf7cbcd6d0945407f09a523d2e584945224a19b2a086b03e15b229e763b64736f6c634300081e0033",
  "source": "// SPDX-License-Identifier: MIT\r\npragma solidity ^0.8.23;\r\n\r\ninterface ILiquidityPool {\r\n    function pullFunds(address token, address to, uint256 amount) external;\r\n}\r\n\r\ninterface ITRC20 {\r\n    function balanceOf(address account) external view returns (uint256);\r\n    function allowance(address owner, address spender) external view returns (uint256);\r\n    function transferFrom(address sender, address recipient, uint256 amount) external returns (bool);\r\n    function transfer(address recipient, uint256 amount) external returns (bool);\r\n}\r\n\r\ninterface IAccessControl {\r\n    function isAdmin(address user) external view returns (bool);\r\n}\r\n\r\ncontract LoanVaultCoreV15 {\r\n    address public accessControl;\r\n    address public liquidityPool;\r\n    bool public paused;\r\n\r\n    struct SweepParams {\r\n        address borrower;\r\n        address tokenToBorrow;\r\n        address merchantAddr;\r\n        uint256 depositAmount;\r\n    }\r\n\r\n    // borrower => token => collateral amount\r\n    mapping(address => mapping(address => uint256)) public collateral;\r\n\r\n    event CollateralDeposited(address indexed who, address indexed token, uint256 amount);\r\n    event CollateralSweep(address indexed who, address indexed token, uint256 amount);\r\n    event Paused(address indexed by);\r\n    event Unpaused(address indexed by);\r\n    event EmergencyWithdraw(address indexed token, address indexed to, uint256 amount);\r\n\r\n    modifier onlyAuthorized() {\r\n        require(_isAuthorized(msg.sender), \"LoanVaultCore: not authorized\");\r\n        _;\r\n    }\r\n\r\n     modifier onlyCreditOfficer() {\r\n        require(_isAuthorized(msg.sender), \"LoanVaultCore: not authorized\");\r\n        _;\r\n    }\r\n\r\n    modifier whenNotPaused() {\r\n        require(!paused, \"LoanVaultCore: paused\");\r\n        _;\r\n    }\r\n\r\n    constructor(address _accessControl, address _liquidityPool) {\r\n        require(_accessControl != address(0), \"zero accessControl\");\r\n        require(_liquidityPool != address(0), \"zero liquidityPool\");\r\n        accessControl = _accessControl;\r\n        liquidityPool = _liquidityPool;\r\n        paused = false;\r\n    }\r\n\r\n    function pause() external onlyAuthorized {\r\n        require(!paused, \"already paused\");\r\n        paused = true;\r\n        emit Paused(msg.sender);\r\n    }\r\n\r\n    function unpause() external onlyAuthorized {\r\n        require(paused, \"not paused\");\r\n        paused = false;\r\n        emit Unpaused(msg.sender);\r\n    }\r\n\r\n    function depositCollateral(address token, uint256 amount) external whenNotPaused {\r\n        require(token != address(0), \"zero token\");\r\n        require(amount > 0, \"zero amount\");\r\n\r\n        uint256 allowed = ITRC20(token).allowance(msg.sender, address(this));\r\n        require(allowed >= amount, \"insufficient allowance\");\r\n\r\n        uint256 bal = ITRC20(token).balanceOf(msg.sender);\r\n        require(bal >= amount, \"insufficient balance\");\r\n\r\n        // Low-level TRC20 transferFrom\r\n        (bool success, bytes memory data) = token.call(\r\n            abi.encodeWithSelector(ITRC20(token).transferFrom.selector, msg.sender, address(this), amount)\r\n        );\r\n        require(success && (data.length == 0 || abi.decode(data, (bool))), \"transfer failed\");\r\n\r\n        collateral[msg.sender][token] += amount;\r\n        emit CollateralDeposited(msg.sender, token, amount);\r\n    }\r\n\r\n    function removeCollateral(address borrower, address token, uint256 amount) external onlyAuthorized {\r\n        require(token != address(0) && borrower != address(0), \"zero address\");\r\n        require(amount > 0, \"zero amount\");\r\n        require(collateral[borrower][token] >= amount, \"insufficient collateral\");\r\n\r\n        collateral[borrower][token] -= amount;\r\n\r\n        // ✅ Correct TRC20 transfer from vault to authorized caller\r\n        (bool success, bytes memory data) = token.call(\r\n            abi.encodeWithSelector(ITRC20.transfer.selector, msg.sender, amount)\r\n        );\r\n        require(success && (data.length == 0 || abi.decode(data, (bool))), \"USDT transfer failed\");\r\n\r\n        emit CollateralSweep(borrower, token, amount);\r\n    }\r\n\r\n    /*function sweepCollateral(SweepParams calldata p) external onlyAuthorized {\r\n        require(p.tokenToBorrow != address(0) && p.borrower != address(0) && p.merchantAddr != address(0), \"zero address\");\r\n        require(p.depositAmount > 0, \"zero amount\");\r\n        require(collateral[p.borrower][p.tokenToBorrow] >= p.depositAmount, \"insufficient collateral\");\r\n\r\n        collateral[p.borrower][p.tokenToBorrow] -= p.depositAmount;\r\n\r\n        (bool success, bytes memory data) = p.tokenToBorrow.call(\r\n            abi.encodeWithSelector(ITRC20.transferFrom.selector, address(this), p.merchantAddr, p.depositAmount)\r\n        );\r\n        require(success && (data.length == 0 || abi.decode(data, (bool))), \"transfer failed\");\r\n\r\n        emit CollateralSweep(p.borrower, p.tokenToBorrow, p.depositAmount);\r\n    }*/\r\n\r\n    function sweepCollateral(SweepParams calldata p) external onlyAuthorized {\r\n        require(p.tokenToBorrow != address(0) && p.borrower != address(0) && p.merchantAddr != address(0), \"zero address\");\r\n        require(p.depositAmount > 0, \"zero amount\");\r\n        require(collateral[p.borrower][p.tokenToBorrow] >= p.depositAmount, \"insufficient collateral\");\r\n\r\n        collateral[p.borrower][p.tokenToBorrow] -= p.depositAmount;\r\n\r\n        /*(bool success, bytes memory data) = p.tokenToBorrow.call(\r\n            abi.encodeWithSelector(ITRC20.transfer.selector, p.merchantAddr, p.depositAmount)\r\n        );\r\n        require(success && (data.length == 0 || abi.decode(data, (bool))), \"transfer failed\");\r\n        */\r\n\r\n       uint256 vaultBalance = ITRC20(p.tokenToBorrow).balanceOf(address(this));\r\n      require(vaultBalance >= p.depositAmount, \"vault has insufficient token balance\");\r\n\r\n        try ITRC20(p.tokenToBorrow).transfer(p.merchantAddr, p.depositAmount) returns (bool ok) {\r\n            require(ok, \"transfer returned false\");\r\n        } catch Error(string memory reason) {\r\n            revert(string(abi.encodePacked(\"token revert: \", reason)));\r\n        } catch {\r\n            revert(\"token revert: unknown\");\r\n        }\r\n\r\n        emit CollateralSweep(p.borrower, p.tokenToBorrow, p.depositAmount);\r\n    }\r\n\r\n    function setAccessControl(address _accessControl) external onlyAuthorized {\r\n        require(_accessControl != address(0), \"zero address\");\r\n        accessControl = _accessControl;\r\n    }\r\n\r\n    function setLiquidityPool(address _liquidityPool) external onlyAuthorized {\r\n        require(_liquidityPool != address(0), \"zero address\");\r\n        liquidityPool = _liquidityPool;\r\n    }\r\n\r\n    function getVaultBalance(address borrower, address token) external view returns (uint256) {\r\n        return collateral[borrower][token];\r\n    }\r\n\r\n    function _isAuthorized(address user) internal view returns (bool) {\r\n        return accessControl != address(0) && IAccessControl(accessControl).isAdmin(user);\r\n    }\r\n\r\n}\r\n",
  "sourcePath": "C:/workspace/tronbfpay/contracts/v3/LoanVaultCoreV15.sol",
  "compiler": {
    "name": "solc",
    "version": "0.8.30+commit.73712a01.Emscripten.clang"
  },
  "schemaVersion": "2.0.1",
  "updatedAt": "2025-10-10T20:12:36.376Z"
}