{
  "contractName": "LoanManagerV11",
  "abi": [
    {
      "inputs": [
        {
          "internalType": "address",
          "name": "_accessControl",
          "type": "address"
        },
        {
          "internalType": "address",
          "name": "_liquidityPool",
          "type": "address"
        },
        {
          "internalType": "address",
          "name": "_vault",
          "type": "address"
        },
        {
          "internalType": "address",
          "name": "_creditNFT",
          "type": "address"
        },
        {
          "internalType": "address",
          "name": "_platformFeeAddr",
          "type": "address"
        },
        {
          "internalType": "address",
          "name": "_lenderPoolIncomeAddr",
          "type": "address"
        }
      ],
      "stateMutability": "nonpayable",
      "type": "constructor"
    },
    {
      "anonymous": false,
      "inputs": [
        {
          "indexed": true,
          "internalType": "address",
          "name": "borrower",
          "type": "address"
        },
        {
          "indexed": true,
          "internalType": "address",
          "name": "token",
          "type": "address"
        },
        {
          "indexed": false,
          "internalType": "uint256",
          "name": "amount",
          "type": "uint256"
        }
      ],
      "name": "BorrowerRepayment",
      "type": "event"
    },
    {
      "anonymous": false,
      "inputs": [
        {
          "indexed": true,
          "internalType": "address",
          "name": "borrower",
          "type": "address"
        },
        {
          "indexed": false,
          "internalType": "uint256",
          "name": "totalAmount",
          "type": "uint256"
        },
        {
          "indexed": true,
          "internalType": "address",
          "name": "token",
          "type": "address"
        },
        {
          "indexed": true,
          "internalType": "address",
          "name": "merchant",
          "type": "address"
        },
        {
          "indexed": false,
          "internalType": "uint256",
          "name": "settleAmount",
          "type": "uint256"
        }
      ],
      "name": "LoanApproved",
      "type": "event"
    },
    {
      "anonymous": false,
      "inputs": [
        {
          "indexed": true,
          "internalType": "address",
          "name": "borrower",
          "type": "address"
        }
      ],
      "name": "LoanRepaid",
      "type": "event"
    },
    {
      "anonymous": false,
      "inputs": [
        {
          "indexed": true,
          "internalType": "address",
          "name": "borrower",
          "type": "address"
        },
        {
          "indexed": false,
          "internalType": "uint256",
          "name": "requestedAmount",
          "type": "uint256"
        }
      ],
      "name": "LoanRequested",
      "type": "event"
    },
    {
      "anonymous": false,
      "inputs": [
        {
          "indexed": true,
          "internalType": "address",
          "name": "by",
          "type": "address"
        }
      ],
      "name": "Paused",
      "type": "event"
    },
    {
      "anonymous": false,
      "inputs": [
        {
          "indexed": true,
          "internalType": "address",
          "name": "by",
          "type": "address"
        }
      ],
      "name": "Unpaused",
      "type": "event"
    },
    {
      "inputs": [],
      "name": "accessControl",
      "outputs": [
        {
          "internalType": "contract IAccessControl",
          "name": "",
          "type": "address"
        }
      ],
      "stateMutability": "view",
      "type": "function"
    },
    {
      "inputs": [
        {
          "internalType": "address",
          "name": "borrower",
          "type": "address"
        },
        {
          "internalType": "address",
          "name": "tokenToBorrow",
          "type": "address"
        },
        {
          "internalType": "uint256",
          "name": "totalAmount",
          "type": "uint256"
        },
        {
          "internalType": "uint256",
          "name": "depositAmount",
          "type": "uint256"
        },
        {
          "internalType": "uint256",
          "name": "fee",
          "type": "uint256"
        },
        {
          "internalType": "address",
          "name": "merchantAddr",
          "type": "address"
        }
      ],
      "name": "approveAndDisburse",
      "outputs": [],
      "stateMutability": "nonpayable",
      "type": "function"
    },
    {
      "inputs": [],
      "name": "creditNFT",
      "outputs": [
        {
          "internalType": "contract IBorderlessCreditNFT",
          "name": "",
          "type": "address"
        }
      ],
      "stateMutability": "view",
      "type": "function"
    },
    {
      "inputs": [],
      "name": "getAllBorrowers",
      "outputs": [
        {
          "internalType": "address[]",
          "name": "",
          "type": "address[]"
        }
      ],
      "stateMutability": "view",
      "type": "function"
    },
    {
      "inputs": [
        {
          "internalType": "address",
          "name": "borrower",
          "type": "address"
        }
      ],
      "name": "getLoanDetails",
      "outputs": [
        {
          "internalType": "address",
          "name": "loanBorrower",
          "type": "address"
        },
        {
          "internalType": "address",
          "name": "token",
          "type": "address"
        },
        {
          "internalType": "address",
          "name": "merchant",
          "type": "address"
        },
        {
          "internalType": "uint256",
          "name": "principal",
          "type": "uint256"
        },
        {
          "internalType": "uint256",
          "name": "outstanding",
          "type": "uint256"
        },
        {
          "internalType": "uint256",
          "name": "startedAt",
          "type": "uint256"
        },
        {
          "internalType": "uint256",
          "name": "installmentsPaid",
          "type": "uint256"
        },
        {
          "internalType": "uint256",
          "name": "fee",
          "type": "uint256"
        },
        {
          "internalType": "bool",
          "name": "active",
          "type": "bool"
        }
      ],
      "stateMutability": "view",
      "type": "function"
    },
    {
      "inputs": [],
      "name": "getLoanStats",
      "outputs": [
        {
          "internalType": "uint256",
          "name": "totalPrincipal",
          "type": "uint256"
        },
        {
          "internalType": "uint256",
          "name": "totalOutstanding",
          "type": "uint256"
        },
        {
          "internalType": "uint256",
          "name": "totalPaid",
          "type": "uint256"
        },
        {
          "internalType": "uint256",
          "name": "totalFees",
          "type": "uint256"
        },
        {
          "internalType": "uint256",
          "name": "activeCount",
          "type": "uint256"
        },
        {
          "internalType": "uint256",
          "name": "totalCount",
          "type": "uint256"
        }
      ],
      "stateMutability": "view",
      "type": "function"
    },
    {
      "inputs": [],
      "name": "lenderIncomeOfTotalBps",
      "outputs": [
        {
          "internalType": "uint256",
          "name": "",
          "type": "uint256"
        }
      ],
      "stateMutability": "view",
      "type": "function"
    },
    {
      "inputs": [],
      "name": "lenderPoolIncomeAddress",
      "outputs": [
        {
          "internalType": "address",
          "name": "",
          "type": "address"
        }
      ],
      "stateMutability": "view",
      "type": "function"
    },
    {
      "inputs": [
        {
          "internalType": "address",
          "name": "borrower",
          "type": "address"
        },
        {
          "internalType": "uint256",
          "name": "amountNeeded",
          "type": "uint256"
        }
      ],
      "name": "liquidateDue",
      "outputs": [],
      "stateMutability": "nonpayable",
      "type": "function"
    },
    {
      "inputs": [],
      "name": "liquidityPool",
      "outputs": [
        {
          "internalType": "contract ILiquidityPool",
          "name": "",
          "type": "address"
        }
      ],
      "stateMutability": "view",
      "type": "function"
    },
    {
      "inputs": [
        {
          "internalType": "address",
          "name": "",
          "type": "address"
        }
      ],
      "name": "loans",
      "outputs": [
        {
          "internalType": "address",
          "name": "borrower",
          "type": "address"
        },
        {
          "internalType": "address",
          "name": "token",
          "type": "address"
        },
        {
          "internalType": "address",
          "name": "merchant",
          "type": "address"
        },
        {
          "internalType": "uint256",
          "name": "principal",
          "type": "uint256"
        },
        {
          "internalType": "uint256",
          "name": "outstanding",
          "type": "uint256"
        },
        {
          "internalType": "uint256",
          "name": "startedAt",
          "type": "uint256"
        },
        {
          "internalType": "uint256",
          "name": "installmentsPaid",
          "type": "uint256"
        },
        {
          "internalType": "uint256",
          "name": "fee",
          "type": "uint256"
        },
        {
          "internalType": "bool",
          "name": "active",
          "type": "bool"
        }
      ],
      "stateMutability": "view",
      "type": "function"
    },
    {
      "inputs": [],
      "name": "merchantFeeBps",
      "outputs": [
        {
          "internalType": "uint256",
          "name": "",
          "type": "uint256"
        }
      ],
      "stateMutability": "view",
      "type": "function"
    },
    {
      "inputs": [
        {
          "internalType": "address",
          "name": "borrower",
          "type": "address"
        }
      ],
      "name": "outstandingOf",
      "outputs": [
        {
          "internalType": "uint256",
          "name": "",
          "type": "uint256"
        }
      ],
      "stateMutability": "view",
      "type": "function"
    },
    {
      "inputs": [],
      "name": "pause",
      "outputs": [],
      "stateMutability": "nonpayable",
      "type": "function"
    },
    {
      "inputs": [],
      "name": "paused",
      "outputs": [
        {
          "internalType": "bool",
          "name": "",
          "type": "bool"
        }
      ],
      "stateMutability": "view",
      "type": "function"
    },
    {
      "inputs": [],
      "name": "platformFeeAddress",
      "outputs": [
        {
          "internalType": "address",
          "name": "",
          "type": "address"
        }
      ],
      "stateMutability": "view",
      "type": "function"
    },
    {
      "inputs": [],
      "name": "platformFeeOfTotalBps",
      "outputs": [
        {
          "internalType": "uint256",
          "name": "",
          "type": "uint256"
        }
      ],
      "stateMutability": "view",
      "type": "function"
    },
    {
      "inputs": [
        {
          "internalType": "address",
          "name": "token",
          "type": "address"
        },
        {
          "internalType": "uint256",
          "name": "amount",
          "type": "uint256"
        }
      ],
      "name": "repay",
      "outputs": [],
      "stateMutability": "nonpayable",
      "type": "function"
    },
    {
      "inputs": [
        {
          "internalType": "address",
          "name": "tokenToBorrow",
          "type": "address"
        },
        {
          "internalType": "uint256",
          "name": "requestedAmount",
          "type": "uint256"
        }
      ],
      "name": "requestLoan",
      "outputs": [],
      "stateMutability": "nonpayable",
      "type": "function"
    },
    {
      "inputs": [
        {
          "internalType": "address",
          "name": "_platformFeeAddr",
          "type": "address"
        },
        {
          "internalType": "address",
          "name": "_lenderPoolIncomeAddr",
          "type": "address"
        }
      ],
      "name": "setFeeAddresses",
      "outputs": [],
      "stateMutability": "nonpayable",
      "type": "function"
    },
    {
      "inputs": [
        {
          "internalType": "uint256",
          "name": "_bps",
          "type": "uint256"
        }
      ],
      "name": "setMerchantFeeBps",
      "outputs": [],
      "stateMutability": "nonpayable",
      "type": "function"
    },
    {
      "inputs": [
        {
          "internalType": "uint256",
          "name": "_platformBps",
          "type": "uint256"
        },
        {
          "internalType": "uint256",
          "name": "_lenderBps",
          "type": "uint256"
        }
      ],
      "name": "setPlatformAndLenderFeeSplits",
      "outputs": [],
      "stateMutability": "nonpayable",
      "type": "function"
    },
    {
      "inputs": [],
      "name": "unpause",
      "outputs": [],
      "stateMutability": "nonpayable",
      "type": "function"
    },
    {
      "inputs": [],
      "name": "vault",
      "outputs": [
        {
          "internalType": "contract ILoanVaultCoreV3",
          "name": "",
          "type": "address"
        }
      ],
      "stateMutability": "view",
      "type": "function"
    }
  ],
  "bytecode": "0x6080346101ea57601f611dc338819003918201601f19168301916001600160401b038311848410176101ee5780849260c0946040528339810103126101ea5761004781610202565b61005360208301610202565b9061006060408401610202565b61006c60608501610202565b9261008560a061007e60808801610202565b9601610202565b60015f5561032060055560646006556102bc600755926001600160a01b0316801515806101d8575b806101c6575b806101b4575b806101a2575b80610190575b1561014b57600180546001600160a01b03199081169290921790556002805482166001600160a01b0393841617905560038054821693831693909317909255600480546008805485169784169790971790965560098054909316938216939093179091556001600160a81b031990931691909216179055604051611bac90816102178239f35b60405162461bcd60e51b815260206004820152601960248201527f4c6f616e4d616e616765723a207a65726f2061646472657373000000000000006044820152606490fd5b506001600160a01b03841615156100c5565b506001600160a01b03861615156100bf565b506001600160a01b03851615156100b9565b506001600160a01b03831615156100b3565b506001600160a01b03821615156100ad565b5f80fd5b634e487b7160e01b5f52604160045260245ffd5b51906001600160a01b03821682036101ea5756fe6080806040526004361015610012575f80fd5b5f905f3560e01c90816311c84120146118315750806313007d551461180957806315c0c832146117ec57806322867d781461158357806332abcdbe146114bb5780633f4ba83a146114355780634f98cded146114185780635c975abb146113f3578063665a11ca146113cb5780636a2df647146113a357806373b4086b1461131d57806377a1875a146112e257806377e63a3c1461120f5780637c46499b14610ea95780638456cb5914610dfe5780638d68861a14610de157806392594d7914610db9578063aa4c7fad14610bd3578063b7f2458a14610b18578063d04d041c14610363578063e8a7da8e1461026c578063ed14834f14610243578063fbfa77cf1461021a5763fd4d9a3214610126575f80fd5b3461021757604036600319011261021757600435602435906024602060018060a01b036001541660405192838092630935e01b60e21b82523360048301525afa801561020c5761017d9185916101dd575b50611a09565b6101878282611b23565b600554036101985760065560075580f35b60405162461bcd60e51b815260206004820152601b60248201527f4c6f616e4d616e616765723a2073706c6974206d69736d6174636800000000006044820152606490fd5b6101ff915060203d602011610205575b6101f781836119cf565b8101906119f1565b5f610177565b503d6101ed565b6040513d86823e3d90fd5b80fd5b50346102175780600319360112610217576003546040516001600160a01b039091168152602090f35b50346102175780600319360112610217576008546040516001600160a01b039091168152602090f35b5034610217576020366003190112610217576001600160a01b0361028e61194e565b168152600a602052604081206040519161012083019083821067ffffffffffffffff83111761034f575060405261034b61010060018060a01b038354169283855260018060a01b036001820154169485602082015260018060a01b0360028301541680604083015260038301548060608401526004840154908160808501526005850154928360a08601526006860154948560c082015260ff60086007890154988960e085015201541615159788910152604051998a998a61197a565b0390f35b634e487b7160e01b81526041600452602490fd5b503461083c5760c036600319011261083c5761037d61194e565b610385611964565b60a4356001600160a01b03811692916044359060643560843586850361083c57600154604051638b7ac4d560e01b81523360048201526001600160a01b0390911695906020816024818a5afa908115610831575f91610af9575b5015610ab4576103f260015f5414611a4e565b60025f5560045461040960ff8260a01c1615611a9a565b604051630935e01b60e21b81526001600160a01b0389166004820181905297602082602481845afa918215610831575f92610a93575b508115610a3f575b506109fa57861515806109f1575b156109c057865f52600a60205260ff600860405f2001541661098b5785159061047e8215611adc565b60405163032811f360e11b815260048101899052906001600160a01b0316602082602481845afa908115610831576024925f92610959575b506020906040519384809263cd75495160e01b82528d60048301525afa918215610831575f92610923575b5061ffff1615159081610918575b50156108e2576003546040516355e6e1e760e11b81526001600160a01b03998a166004820152868a1660248201529816976020816044818c5afa80156108315785915f916108ad575b501061086857602286029086820460221417156108545761271061055d910486611b16565b936105718461056c8589611b16565b611b16565b61057b8186611b23565b95604051608081019080821067ffffffffffffffff831117610840578c916040528a81526020810160018060a01b0386169c8d82526040830193845260608301928a8452813b1561083c57604051631dd7c13960e01b815290516001600160a01b03908116600483015292518316602482015293519091166044840152905160648301525f908290608490829084905af1801561083157610816575b50908b939291610791575b505050859052600a6020526040882080546001600160a01b03199081168717825560018201805482168917905560028201805490911689179055600381018590559161066e8186611b16565b60048401554260058401556006830155600782015560088101805460ff1916600117905580546001600160a01b0316808852600c602052604088205460ff16156106ec575b50507f993fe0584e9b5abdcb2eb0582e7ccd65ceb33d252790cb08d51deabddcea1e649160409182519182526020820152a46001815580f35b8752600c60205260408720805460ff1916600117905554600b546001600160a01b0391909116906801000000000000000081101561077d57917f993fe0584e9b5abdcb2eb0582e7ccd65ceb33d252790cb08d51deabddcea1e64939161075a84600160409601600b55611b30565b819291549060031b91821b9160018060a01b03901b1916179055918193506106b3565b634e487b7160e01b88526041600452602488fd5b6002546001600160a01b0316803b156108125760405163201add9b60e01b81526001600160a01b039384166004820152939092166024840152604483015282908290606490829084905af18015610807576107ee575b8080610622565b816107f8916119cf565b61080357875f6107e7565b8780fd5b6040513d84823e3d90fd5b8480fd5b610826919493929c505f906119cf565b5f9a9091925f610617565b6040513d5f823e3d90fd5b5f80fd5b634e487b7160e01b5f52604160045260245ffd5b634e487b7160e01b5f52601160045260245ffd5b60405162461bcd60e51b815260206004820152601b60248201527f5661756c743a20696e73756666696369656e742062616c616e636500000000006044820152606490fd5b9150506020813d6020116108da575b816108c9602093836119cf565b8101031261083c578490515f610538565b3d91506108bc565b60405162461bcd60e51b815260206004820152600e60248201526d125b9d985b1a5908185b5bdd5b9d60921b6044820152606490fd5b90508611155f6104ef565b9091506020813d602011610951575b8161093f602093836119cf565b8101031261083c57519061ffff6104e1565b3d9150610932565b602091925061097d90823d8411610984575b61097581836119cf565b810190611b5c565b91906104b6565b503d61096b565b60405162461bcd60e51b815260206004820152600d60248201526c22bc34b9ba34b733903637b0b760991b6044820152606490fd5b60405162461bcd60e51b81526020600482015260096024820152682d32b9379030b2323960b91b6044820152606490fd5b50881515610455565b60405162461bcd60e51b815260206004820152601860248201527f50726976696c656765642063616e6e6f7420626f72726f7700000000000000006044820152606490fd5b6024915060209060405192838092638b7ac4d560e01b82528c60048301525afa908115610831575f91610a74575b505f610447565b610a8d915060203d602011610205576101f781836119cf565b5f610a6d565b610aad91925060203d602011610205576101f781836119cf565b905f61043f565b60405162461bcd60e51b815260206004820152601f60248201527f4c6f616e4d616e616765723a206e6f7420637265646974206f666669636572006044820152606490fd5b610b12915060203d602011610205576101f781836119cf565b5f6103df565b3461083c57602036600319011261083c576004356024602060018060a01b036001541660405192838092630935e01b60e21b82523360048301525afa801561083157610b6a915f91610bb45750611a09565b6107d08111610b7857600555005b60405162461bcd60e51b81526020600482015260146024820152734c6f616e4d616e616765723a206d61782032302560601b6044820152606490fd5b610bcd915060203d602011610205576101f781836119cf565b83610177565b3461083c57604036600319011261083c57610bec61194e565b60243590610bfd60015f5414611a4e565b60025f55610c1360ff60045460a01c1615611a9a565b6001546040516335d2155560e11b8152336004820152906001600160a01b0316602082602481845afa918215610831575f92610d98575b508115610d43575b5015610d0f5760018060a01b031690815f52600a60205260405f2090600882019160ff83541615610cd9576004018054909190808210610cc45750505f905560ff1981541690557f314bd9beaed705e54938dcb29f8f4ccd8b4e9c766dd263b70acf7d5bd5f5da555f80a25b60015f55005b90919350610cd29250611b16565b9055610cbe565b60405162461bcd60e51b815260206004820152600e60248201526d27379030b1ba34bb32903637b0b760911b6044820152606490fd5b60405162461bcd60e51b815260206004820152600c60248201526b155b985d5d1a1bdc9a5e995960a21b6044820152606490fd5b604051630935e01b60e21b81523360048201529150602090829060249082905afa908115610831575f91610d79575b5083610c52565b610d92915060203d602011610205576101f781836119cf565b83610d72565b610db291925060203d602011610205576101f781836119cf565b9084610c4a565b3461083c575f36600319011261083c576009546040516001600160a01b039091168152602090f35b3461083c575f36600319011261083c576020600554604051908152f35b3461083c575f36600319011261083c57600154604051630935e01b60e21b815233600482015290602090829060249082906001600160a01b03165afa801561083157610e50915f91610e8a5750611a09565b6004805460ff60a01b1916600160a01b179055337f62e78cea01bee320cd4e420270b5ea74000d11b0c9f74754ebdbfc544b05a2585f80a2005b610ea3915060203d602011610205576101f781836119cf565b82610177565b3461083c57604036600319011261083c57610ec261194e565b602435600454610ed860ff8260a01c1615611a9a565b6001600160a01b038316156111ca57335f52600a60205260ff600860405f200154166111855760405163032811f360e11b8152336004820152906001600160a01b0316602082602481845afa908115610831576024925f92611163575b506020906040519384809263cd75495160e01b82523360048301525afa918215610831575f9261112d575b5061ffff16156110e857811590811590816110dd575b501561108e576003546040516355e6e1e760e11b81523360048201526001600160a01b0394851660248201529360209185916044918391165afa928315610831575f9361105a575b50602282029182046022141715610854576127109004809110611009576040519081527f06c22e520074f676b380b03ffba06f2ccf61e51cbeee2a4e084b80a19d2fc23760203392a2005b60405162461bcd60e51b8152602060048201526024808201527f4c6f616e4d616e616765723a20696e73756666696369656e7420636f6c6c6174604482015263195c985b60e21b6064820152608490fd5b9092506020813d602011611086575b81611076602093836119cf565b8101031261083c57519183610fbe565b3d9150611069565b60405162461bcd60e51b815260206004820152602160248201527f4c6f616e4d616e616765723a206578636565647320637265646974206c696d696044820152601d60fa1b6064820152608490fd5b905082111584610f76565b60405162461bcd60e51b815260206004820152601a60248201527f4c6f616e4d616e616765723a20696e76616c69642073636f72650000000000006044820152606490fd5b9091506020813d60201161115b575b81611149602093836119cf565b8101031261083c57519061ffff610f60565b3d915061113c565b602091925061117e90823d84116109845761097581836119cf565b9190610f35565b60405162461bcd60e51b815260206004820152601f60248201527f4c6f616e4d616e616765723a206f6e65206c6f616e20617420612074696d65006044820152606490fd5b60405162461bcd60e51b815260206004820152601760248201527f4c6f616e4d616e616765723a207a65726f20746f6b656e0000000000000000006044820152606490fd5b3461083c575f36600319011261083c57600b545f908190818080805b8487106112575760c09650604051958652602086015260408501526060840152608083015260a0820152f35b9491909561126481611b30565b60018060a01b0391549060031b1c165f52600a60205260ff60086112be6112b26112a661129a60405f209860038a015490611b23565b9a600489015490611b23565b9a600688015490611b23565b94600787015490611b23565b940154166112d0575b6001019561122b565b925f19811461085457600101926112c7565b3461083c57602036600319011261083c576001600160a01b0361130361194e565b165f52600a6020526020600460405f200154604051908152f35b3461083c57602036600319011261083c576001600160a01b0361133e61194e565b165f52600a60205260405f2060018060a01b0381541661034b60018060a01b036001840154169260018060a01b03600282015416906003810154600482015460058301549060068401549260ff600860078701549601541695604051998a998a61197a565b3461083c575f36600319011261083c576004546040516001600160a01b039091168152602090f35b3461083c575f36600319011261083c576002546040516001600160a01b039091168152602090f35b3461083c575f36600319011261083c57602060ff60045460a01c166040519015158152f35b3461083c575f36600319011261083c576020600754604051908152f35b3461083c575f36600319011261083c57600154604051630935e01b60e21b815233600482015290602090829060249082906001600160a01b03165afa801561083157611487915f91610e8a5750611a09565b6004805460ff60a01b19169055337f5db9ee0a495bf2e6ff9c91a7834c1ba4fdd244a5e8aa4e537bd38aeae4b073aa5f80a2005b3461083c575f36600319011261083c57604051806020600b5492838152018092600b5f527f0175b7a638427703f0dbe7bb9bbf987a2551717b34e79f33b5b1008d1fa01db9905f5b81811061156457505050816115199103826119cf565b604051918291602083019060208452518091526040830191905f5b818110611542575050500390f35b82516001600160a01b0316845285945060209384019390920191600101611534565b82546001600160a01b0316845260209093019260019283019201611503565b3461083c57604036600319011261083c5761159c61194e565b6024356115ac60015f5414611a4e565b60025f556115c260ff60045460a01c1615611a9a565b6115cd811515611adc565b335f52600a60205260405f20600881019260ff845416806117d3575b15611799576004820180549093818111156117915750915b6002546040516323b872dd60e01b602082019081523360248301526001600160a01b039092166044820152606480820186905281525f9182916116456084826119cf565b519082865af13d1561178a573d67ffffffffffffffff81116108405760405190611679601f8201601f1916602001836119cf565b81523d5f602083013e5b8161175b575b50156117245760069061169d848654611b16565b809555016116ac838254611b23565b90556040519182526001600160a01b03169033907f3af4119bfbfe5fad91d49964d41a50d53c558acd92d71e08b936ae3d5a0047fb90602090a3156116f15760015f55005b805460ff19169055337f314bd9beaed705e54938dcb29f8f4ccd8b4e9c766dd263b70acf7d5bd5f5da555f80a280610cbe565b60405162461bcd60e51b815260206004820152600f60248201526e1d1c985b9cd9995c8819985a5b1959608a1b6044820152606490fd5b8051801592508215611770575b505086611689565b61178392506020809183010191016119f1565b8680611768565b6060611683565b905091611601565b60405162461bcd60e51b815260206004820152601260248201527124b73b30b634b2103637b0b717ba37b5b2b760711b6044820152606490fd5b5060018201546001600160a01b038281169116146115e9565b3461083c575f36600319011261083c576020600654604051908152f35b3461083c575f36600319011261083c576001546040516001600160a01b039091168152602090f35b3461083c57604036600319011261083c5761184a61194e565b611852611964565b9160208160248160018060a01b0360015416630935e01b60e21b82523360048301525afa80156108315761188c915f9161192f5750611a09565b6001600160a01b03168015158061191d575b156118df576bffffffffffffffffffffffff60a01b600854161760085560018060a01b03166bffffffffffffffffffffffff60a01b60095416176009555f80f35b60405162461bcd60e51b81526020600482015260166024820152752637b0b726b0b730b3b2b91d103d32b9379030b2323960511b6044820152606490fd5b506001600160a01b038216151561189e565b611948915060203d602011610205576101f781836119cf565b84610177565b600435906001600160a01b038216820361083c57565b602435906001600160a01b038216820361083c57565b6001600160a01b039182168152918116602083015290911660408201526060810191909152608081019190915260a081019190915260c081019190915260e08101919091529015156101008201526101200190565b90601f8019910116810190811067ffffffffffffffff82111761084057604052565b9081602091031261083c5751801515810361083c5790565b15611a1057565b60405162461bcd60e51b81526020600482015260166024820152752637b0b726b0b730b3b2b91d103737ba1030b236b4b760511b6044820152606490fd5b15611a5557565b60405162461bcd60e51b815260206004820152601f60248201527f5265656e7472616e637947756172643a207265656e7472616e742063616c6c006044820152606490fd5b15611aa157565b60405162461bcd60e51b8152602060048201526013602482015272131bd85b93585b9859d95c8e881c185d5cd959606a1b6044820152606490fd5b15611ae357565b60405162461bcd60e51b815260206004820152600b60248201526a16995c9bc8185b5bdd5b9d60aa1b6044820152606490fd5b9190820391821161085457565b9190820180921161085457565b600b54811015611b4857600b5f5260205f2001905f90565b634e487b7160e01b5f52603260045260245ffd5b9081602091031261083c575161ffff8116810361083c579056fea26469706673582212206599d881bd2f6cc71d4376f91e5ddf22939983bb1966452fc4ba525eaa8a5e3b64736f6c634300081e0033",
  "source": "// SPDX-License-Identifier: MIT\r\npragma solidity ^0.8.23;\r\n\r\nimport \"../libs/ReentrancyGuard.sol\";\r\n\r\ninterface ITRC20 {\r\n    function balanceOf(address account) external view returns (uint256);\r\n    function transfer(address to, uint256 value) external returns (bool);\r\n    function transferFrom(address from, address to, uint256 value) external returns (bool);\r\n}\r\n\r\ninterface ILoanVaultCoreV3 {\r\n    struct SweepParams {\r\n        address borrower;\r\n        address tokenToBorrow;\r\n        address merchantAddr;\r\n        uint256 depositAmount;\r\n    }\r\n    function sweepCollateral(SweepParams calldata p) external;\r\n    function getVaultBalance(address borrower, address token) external view returns (uint256);\r\n}\r\n\r\ninterface ILiquidityPool {\r\n    function pullFunds(address token, address to, uint256 amount) external;\r\n}\r\n\r\ninterface IBorderlessCreditNFT {\r\n    function getCreditScoreByBorrower(address borrower) external view returns (uint16);\r\n    function getCreditLimitByBorrower(address borrower) external view returns (uint256);\r\n}\r\n\r\ninterface IAccessControl {\r\n    function isAdmin(address user) external view returns (bool);\r\n    function isCreditOfficer(address user) external view returns (bool);\r\n    function isKeeper(address user) external view returns (bool);\r\n}\r\n\r\ncontract LoanManagerV11 is ReentrancyGuard {\r\n   \r\n\r\n    // External contracts\r\n    IAccessControl public accessControl;\r\n    ILiquidityPool public liquidityPool;\r\n    ILoanVaultCoreV3 public vault;\r\n    IBorderlessCreditNFT public creditNFT;\r\n\r\n    // Pause state\r\n    bool public paused;\r\n\r\n    // Fees (bps)\r\n    uint256 public merchantFeeBps = 800;\r\n    uint256 public platformFeeOfTotalBps = 100;\r\n    uint256 public lenderIncomeOfTotalBps = 700;\r\n    address public platformFeeAddress;\r\n    address public lenderPoolIncomeAddress;\r\n\r\n    struct Loan {\r\n        address borrower;\r\n        address token;\r\n        address merchant;\r\n        uint256 principal;\r\n        uint256 outstanding;\r\n        uint256 startedAt;\r\n        uint256 installmentsPaid;\r\n        uint256 fee;\r\n        bool active;\r\n    }\r\n\r\n    mapping(address => Loan) public loans;\r\n    address[] private borrowers; // track loan borrowers\r\n    mapping(address => bool) private hasLoan; // prevent duplicates\r\n\r\n    // Events\r\n    event LoanRequested(address indexed borrower, uint256 requestedAmount);\r\n    event LoanApproved(address indexed borrower, uint256 totalAmount, address indexed token, address indexed merchant, uint256 settleAmount);\r\n    event BorrowerRepayment(address indexed borrower, address indexed token, uint256 amount);\r\n    event LoanRepaid(address indexed borrower);\r\n    event Paused(address indexed by);\r\n    event Unpaused(address indexed by);\r\n\r\n    modifier onlyAdmin() {\r\n        require(accessControl.isAdmin(msg.sender), \"LoanManager: not admin\");\r\n        _;\r\n    }\r\n\r\n    modifier onlyCreditOfficer() {\r\n        require(accessControl.isCreditOfficer(msg.sender), \"LoanManager: not credit officer\");\r\n        _;\r\n    }\r\n\r\n    modifier whenNotPaused() {\r\n        require(!paused, \"LoanManager: paused\");\r\n        _;\r\n    }\r\n\r\n    constructor(\r\n        address _accessControl,\r\n        address _liquidityPool,\r\n        address _vault,\r\n        address _creditNFT,\r\n        address _platformFeeAddr,\r\n        address _lenderPoolIncomeAddr\r\n    ) {\r\n        require(_accessControl != address(0) && _liquidityPool != address(0) &&\r\n                _vault != address(0) && _creditNFT != address(0) &&\r\n                _platformFeeAddr != address(0) && _lenderPoolIncomeAddr != address(0),\r\n                \"LoanManager: zero address\");\r\n\r\n        accessControl = IAccessControl(_accessControl);\r\n        liquidityPool = ILiquidityPool(_liquidityPool);\r\n        vault = ILoanVaultCoreV3(_vault);\r\n        creditNFT = IBorderlessCreditNFT(_creditNFT);\r\n        platformFeeAddress = _platformFeeAddr;\r\n        lenderPoolIncomeAddress = _lenderPoolIncomeAddr;\r\n        paused = false;\r\n    }\r\n\r\n    // --- Pause functions ---\r\n    function pause() external onlyAdmin {\r\n        paused = true;\r\n        emit Paused(msg.sender);\r\n    }\r\n\r\n    function unpause() external onlyAdmin {\r\n        paused = false;\r\n        emit Unpaused(msg.sender);\r\n    }\r\n\r\n    // --- Admin setters ---\r\n    function setFeeAddresses(address _platformFeeAddr, address _lenderPoolIncomeAddr) external onlyAdmin {\r\n        require(_platformFeeAddr != address(0) && _lenderPoolIncomeAddr != address(0), \"LoanManager: zero addr\");\r\n        platformFeeAddress = _platformFeeAddr;\r\n        lenderPoolIncomeAddress = _lenderPoolIncomeAddr;\r\n    }\r\n\r\n    function setMerchantFeeBps(uint256 _bps) external onlyAdmin {\r\n        require(_bps <= 2000, \"LoanManager: max 20%\");\r\n        merchantFeeBps = _bps;\r\n    }\r\n\r\n    function setPlatformAndLenderFeeSplits(uint256 _platformBps, uint256 _lenderBps) external onlyAdmin {\r\n        require(_platformBps + _lenderBps == merchantFeeBps, \"LoanManager: split mismatch\");\r\n        platformFeeOfTotalBps = _platformBps;\r\n        lenderIncomeOfTotalBps = _lenderBps;\r\n    }\r\n\r\n    // --- Loan request & approval ---\r\n    function requestLoan(address tokenToBorrow, uint256 requestedAmount) external whenNotPaused {\r\n        require(tokenToBorrow != address(0), \"LoanManager: zero token\");\r\n        require(!loans[msg.sender].active, \"LoanManager: one loan at a time\");\r\n\r\n        uint16 score = creditNFT.getCreditScoreByBorrower(msg.sender);\r\n        uint256 nftLimit = creditNFT.getCreditLimitByBorrower(msg.sender);\r\n\r\n        require(score > 0, \"LoanManager: invalid score\");\r\n        require(requestedAmount > 0 && requestedAmount <= nftLimit, \"LoanManager: exceeds credit limit\");\r\n\r\n        uint256 vaultBalance = vault.getVaultBalance(msg.sender, tokenToBorrow);\r\n        uint256 requiredCollateral = (requestedAmount * 34) / 10000;\r\n        require(vaultBalance >= requiredCollateral, \"LoanManager: insufficient collateral\");\r\n        //ITRC20(tokenToBorrow).transferFrom(msg.sender, address(liquidityPool), requiredCollateral);\r\n\r\n        // Low-level TRC20 transferFrom\r\n        /*(bool success, bytes memory data) = tokenToBorrow.call(\r\n            abi.encodeWithSelector(ITRC20(tokenToBorrow).transferFrom.selector, msg.sender, address(this), amount)\r\n        );\r\n        require(success && (data.length == 0 || abi.decode(data, (bool))), \"transfer failed\");\r\n        */\r\n\r\n        emit LoanRequested(msg.sender, requiredCollateral);\r\n    }\r\n\r\n    function approveAndDisburse(\r\n        address borrower,\r\n        address tokenToBorrow,\r\n        uint256 totalAmount,\r\n        uint256 depositAmount,\r\n        uint256 fee,\r\n        address merchantAddr\r\n    ) external onlyCreditOfficer nonReentrant whenNotPaused {\r\n        require(!_isPrivileged(borrower), \"Privileged cannot borrow\");\r\n        require(borrower != address(0) && merchantAddr != address(0), \"Zero addr\");\r\n        require(!loans[borrower].active, \"Existing loan\");\r\n        require(totalAmount > 0, \"Zero amount\");\r\n\r\n        uint16 score = creditNFT.getCreditScoreByBorrower(borrower);\r\n        uint256 nftLimit = creditNFT.getCreditLimitByBorrower(borrower);\r\n        require(score > 0 && totalAmount <= nftLimit, \"Invalid amount\");\r\n\r\n        uint256 vaultBalance = vault.getVaultBalance(borrower, tokenToBorrow);\r\n        require(vaultBalance >= depositAmount, \"Vault: insufficient balance\");\r\n\r\n        uint256 borrowerPart = (totalAmount * 34) / 10000;\r\n        uint256 lenderPart = totalAmount - borrowerPart;\r\n        uint256 merchantSettleAmt = totalAmount - fee - depositAmount;\r\n        uint256 settleAmount = depositAmount + merchantSettleAmt;\r\n\r\n        // Sweep collateral from vault to merchant\r\n        ILoanVaultCoreV3.SweepParams memory p = ILoanVaultCoreV3.SweepParams({\r\n            borrower: borrower,\r\n            tokenToBorrow: tokenToBorrow,\r\n            merchantAddr: merchantAddr,\r\n            depositAmount: depositAmount\r\n        });\r\n        vault.sweepCollateral(p);\r\n\r\n        // Pull lender funds from liquidity pool\r\n        if (lenderPart > 0) {\r\n            liquidityPool.pullFunds(tokenToBorrow, merchantAddr, merchantSettleAmt);\r\n        }\r\n\r\n        // Record loan\r\n        Loan storage L = loans[borrower];\r\n        L.borrower = borrower;\r\n        L.token = tokenToBorrow;\r\n        L.merchant = merchantAddr;\r\n        L.principal = totalAmount;\r\n        L.outstanding = totalAmount - depositAmount;\r\n        L.startedAt = block.timestamp;\r\n        L.installmentsPaid = depositAmount;\r\n        L.fee = fee;\r\n        L.active = true;\r\n\r\n        if (!hasLoan[L.borrower]) {\r\n            hasLoan[L.borrower] = true;\r\n            borrowers.push(L.borrower);\r\n        }\r\n        \r\n\r\n        emit LoanApproved(borrower, totalAmount, tokenToBorrow, merchantAddr,settleAmount);\r\n    }\r\n\r\n    // --- Repayments ---\r\n    function repay(address token, uint256 amount) external nonReentrant whenNotPaused {\r\n        require(amount > 0, \"Zero amount\");\r\n        Loan storage L = loans[msg.sender];\r\n        require(L.active && token == L.token, \"Invalid loan/token\");\r\n\r\n        uint256 payAmount = amount > L.outstanding ? L.outstanding : amount;\r\n        //ITRC20(token).transferFrom(msg.sender, address(liquidityPool), payAmount);\r\n\r\n         // Low-level TRC20 transferFrom\r\n        (bool success, bytes memory data) = token.call(\r\n            abi.encodeWithSelector(ITRC20(token).transferFrom.selector, msg.sender, address(liquidityPool), payAmount)\r\n        );\r\n        require(success && (data.length == 0 || abi.decode(data, (bool))), \"transfer failed\");\r\n\r\n        L.outstanding -= payAmount;\r\n        L.installmentsPaid += payAmount;\r\n        emit BorrowerRepayment(msg.sender, token, payAmount);\r\n\r\n        if (L.outstanding == 0) {\r\n            L.active = false;\r\n            emit LoanRepaid(msg.sender);\r\n        }\r\n    }\r\n\r\n    // --- Keeper/Admin liquidation ---\r\n    function liquidateDue(address borrower, uint256 amountNeeded) external nonReentrant whenNotPaused {\r\n        require(accessControl.isKeeper(msg.sender) || accessControl.isAdmin(msg.sender), \"Unauthorized\");\r\n        Loan storage L = loans[borrower];\r\n        require(L.active, \"No active loan\");\r\n\r\n        if (amountNeeded >= L.outstanding) {\r\n            L.outstanding = 0;\r\n            L.active = false;\r\n            emit LoanRepaid(borrower);\r\n        } else {\r\n            L.outstanding -= amountNeeded;\r\n        }\r\n    }\r\n\r\n    // --- Loan getters ---\r\n    function getLoanDetails(address borrower) external view returns (\r\n        address loanBorrower,\r\n        address token,\r\n        address merchant,\r\n        uint256 principal,\r\n        uint256 outstanding,\r\n        uint256 startedAt,\r\n        uint256 installmentsPaid,\r\n        uint256 fee,\r\n        bool active\r\n    ) {\r\n        Loan memory L = loans[borrower];\r\n        return (L.borrower, L.token, L.merchant, L.principal, L.outstanding, L.startedAt, L.installmentsPaid, L.fee, L.active);\r\n    }\r\n\r\n    function outstandingOf(address borrower) external view returns (uint256) {\r\n        return loans[borrower].outstanding;\r\n    }\r\n\r\n    function _isPrivileged(address user) internal view returns (bool) {\r\n        return accessControl.isAdmin(user) || accessControl.isCreditOfficer(user);\r\n    }\r\n\r\n    /// @notice Aggregate loan statistics (gas heavy if many loans)\r\n    function getLoanStats()\r\n        external\r\n        view\r\n        returns (\r\n            uint256 totalPrincipal,\r\n            uint256 totalOutstanding,\r\n            uint256 totalPaid,\r\n            uint256 totalFees,\r\n            uint256 activeCount,\r\n            uint256 totalCount\r\n        )\r\n    {\r\n        totalCount = borrowers.length;\r\n\r\n        for (uint256 i = 0; i < totalCount; i++) {\r\n            Loan storage L = loans[borrowers[i]];\r\n            totalPrincipal += L.principal;\r\n            totalOutstanding += L.outstanding;\r\n            totalPaid += L.installmentsPaid;\r\n            totalFees += L.fee;\r\n            if (L.active) activeCount++;\r\n        }\r\n    }\r\n\r\n    /// @notice Returns all borrower addresses\r\n    function getAllBorrowers() external view returns (address[] memory) {\r\n        return borrowers;\r\n    }\r\n\r\n\r\n}\r\n",
  "sourcePath": "C:/workspace/tronbfpay/contracts/v3/LoanManagerV11.sol",
  "compiler": {
    "name": "solc",
    "version": "0.8.30+commit.73712a01.Emscripten.clang"
  },
  "schemaVersion": "2.0.1",
  "updatedAt": "2025-10-09T13:04:12.886Z"
}