{
  "contractName": "LoanManager",
  "abi": [
    {
      "constant": false,
      "inputs": [
        {
          "name": "tokenToBorrow",
          "type": "address"
        },
        {
          "name": "requestedAmount",
          "type": "uint256"
        },
        {
          "name": "merchantAddr",
          "type": "address"
        }
      ],
      "name": "requestLoan",
      "outputs": [],
      "payable": false,
      "stateMutability": "nonpayable",
      "type": "function"
    },
    {
      "constant": false,
      "inputs": [
        {
          "name": "_platformFeeAddr",
          "type": "address"
        },
        {
          "name": "_lenderPoolIncomeAddr",
          "type": "address"
        }
      ],
      "name": "setFeeAddresses",
      "outputs": [],
      "payable": false,
      "stateMutability": "nonpayable",
      "type": "function"
    },
    {
      "constant": true,
      "inputs": [],
      "name": "accessControl",
      "outputs": [
        {
          "name": "",
          "type": "address"
        }
      ],
      "payable": false,
      "stateMutability": "view",
      "type": "function"
    },
    {
      "constant": true,
      "inputs": [],
      "name": "platformFeeOfTotalBps",
      "outputs": [
        {
          "name": "",
          "type": "uint256"
        }
      ],
      "payable": false,
      "stateMutability": "view",
      "type": "function"
    },
    {
      "constant": false,
      "inputs": [
        {
          "name": "token",
          "type": "address"
        },
        {
          "name": "amount",
          "type": "uint256"
        }
      ],
      "name": "repay",
      "outputs": [],
      "payable": false,
      "stateMutability": "nonpayable",
      "type": "function"
    },
    {
      "constant": false,
      "inputs": [],
      "name": "unpause",
      "outputs": [],
      "payable": false,
      "stateMutability": "nonpayable",
      "type": "function"
    },
    {
      "constant": true,
      "inputs": [],
      "name": "scaleCount",
      "outputs": [
        {
          "name": "",
          "type": "uint16"
        }
      ],
      "payable": false,
      "stateMutability": "view",
      "type": "function"
    },
    {
      "constant": true,
      "inputs": [],
      "name": "lenderIncomeOfTotalBps",
      "outputs": [
        {
          "name": "",
          "type": "uint256"
        }
      ],
      "payable": false,
      "stateMutability": "view",
      "type": "function"
    },
    {
      "constant": true,
      "inputs": [],
      "name": "paused",
      "outputs": [
        {
          "name": "",
          "type": "bool"
        }
      ],
      "payable": false,
      "stateMutability": "view",
      "type": "function"
    },
    {
      "constant": false,
      "inputs": [
        {
          "name": "scaleId",
          "type": "uint16"
        },
        {
          "name": "newMinScore",
          "type": "uint256"
        },
        {
          "name": "newMaxScore",
          "type": "uint256"
        },
        {
          "name": "newCreditLimit",
          "type": "uint256"
        }
      ],
      "name": "updateCreditLimitScale",
      "outputs": [],
      "payable": false,
      "stateMutability": "nonpayable",
      "type": "function"
    },
    {
      "constant": true,
      "inputs": [],
      "name": "liquidityPool",
      "outputs": [
        {
          "name": "",
          "type": "address"
        }
      ],
      "payable": false,
      "stateMutability": "view",
      "type": "function"
    },
    {
      "constant": true,
      "inputs": [],
      "name": "creditNFT",
      "outputs": [
        {
          "name": "",
          "type": "address"
        }
      ],
      "payable": false,
      "stateMutability": "view",
      "type": "function"
    },
    {
      "constant": true,
      "inputs": [
        {
          "name": "",
          "type": "address"
        }
      ],
      "name": "loans",
      "outputs": [
        {
          "name": "borrower",
          "type": "address"
        },
        {
          "name": "token",
          "type": "address"
        },
        {
          "name": "merchant",
          "type": "address"
        },
        {
          "name": "principal",
          "type": "uint256"
        },
        {
          "name": "outstanding",
          "type": "uint256"
        },
        {
          "name": "startedAt",
          "type": "uint256"
        },
        {
          "name": "installmentsPaid",
          "type": "uint8"
        },
        {
          "name": "totalInstallments",
          "type": "uint8"
        },
        {
          "name": "installmentAmount",
          "type": "uint256"
        },
        {
          "name": "active",
          "type": "bool"
        }
      ],
      "payable": false,
      "stateMutability": "view",
      "type": "function"
    },
    {
      "constant": false,
      "inputs": [
        {
          "name": "borrower",
          "type": "address"
        },
        {
          "name": "tokenToBorrow",
          "type": "address"
        },
        {
          "name": "totalAmount",
          "type": "uint256"
        },
        {
          "name": "merchantAddr",
          "type": "address"
        }
      ],
      "name": "approveAndDisburse",
      "outputs": [],
      "payable": false,
      "stateMutability": "nonpayable",
      "type": "function"
    },
    {
      "constant": true,
      "inputs": [
        {
          "name": "borrower",
          "type": "address"
        }
      ],
      "name": "outstandingOf",
      "outputs": [
        {
          "name": "",
          "type": "uint256"
        }
      ],
      "payable": false,
      "stateMutability": "view",
      "type": "function"
    },
    {
      "constant": true,
      "inputs": [
        {
          "name": "score",
          "type": "uint256"
        }
      ],
      "name": "getCreditLimitByScore",
      "outputs": [
        {
          "name": "",
          "type": "uint256"
        }
      ],
      "payable": false,
      "stateMutability": "view",
      "type": "function"
    },
    {
      "constant": false,
      "inputs": [
        {
          "name": "minScore",
          "type": "uint256"
        },
        {
          "name": "maxScore",
          "type": "uint256"
        },
        {
          "name": "creditLimit",
          "type": "uint256"
        }
      ],
      "name": "addCreditLimitScale",
      "outputs": [
        {
          "name": "",
          "type": "uint16"
        }
      ],
      "payable": false,
      "stateMutability": "nonpayable",
      "type": "function"
    },
    {
      "constant": false,
      "inputs": [],
      "name": "pause",
      "outputs": [],
      "payable": false,
      "stateMutability": "nonpayable",
      "type": "function"
    },
    {
      "constant": true,
      "inputs": [],
      "name": "merchantFeeBps",
      "outputs": [
        {
          "name": "",
          "type": "uint256"
        }
      ],
      "payable": false,
      "stateMutability": "view",
      "type": "function"
    },
    {
      "constant": true,
      "inputs": [],
      "name": "lenderPoolIncomeAddress",
      "outputs": [
        {
          "name": "",
          "type": "address"
        }
      ],
      "payable": false,
      "stateMutability": "view",
      "type": "function"
    },
    {
      "constant": true,
      "inputs": [
        {
          "name": "",
          "type": "uint16"
        }
      ],
      "name": "creditLimitScales",
      "outputs": [
        {
          "name": "minScore",
          "type": "uint256"
        },
        {
          "name": "maxScore",
          "type": "uint256"
        },
        {
          "name": "creditLimit",
          "type": "uint256"
        }
      ],
      "payable": false,
      "stateMutability": "view",
      "type": "function"
    },
    {
      "constant": false,
      "inputs": [
        {
          "name": "borrower",
          "type": "address"
        },
        {
          "name": "amountNeeded",
          "type": "uint256"
        }
      ],
      "name": "liquidateDue",
      "outputs": [],
      "payable": false,
      "stateMutability": "nonpayable",
      "type": "function"
    },
    {
      "constant": false,
      "inputs": [
        {
          "name": "_bps",
          "type": "uint256"
        }
      ],
      "name": "setMerchantFeeBps",
      "outputs": [],
      "payable": false,
      "stateMutability": "nonpayable",
      "type": "function"
    },
    {
      "constant": true,
      "inputs": [
        {
          "name": "borrower",
          "type": "address"
        }
      ],
      "name": "getLoanDetails",
      "outputs": [
        {
          "name": "loanBorrower",
          "type": "address"
        },
        {
          "name": "token",
          "type": "address"
        },
        {
          "name": "merchant",
          "type": "address"
        },
        {
          "name": "principal",
          "type": "uint256"
        },
        {
          "name": "outstanding",
          "type": "uint256"
        },
        {
          "name": "startedAt",
          "type": "uint256"
        },
        {
          "name": "installmentsPaid",
          "type": "uint8"
        },
        {
          "name": "totalInstallments",
          "type": "uint8"
        },
        {
          "name": "installmentAmount",
          "type": "uint256"
        },
        {
          "name": "active",
          "type": "bool"
        }
      ],
      "payable": false,
      "stateMutability": "view",
      "type": "function"
    },
    {
      "constant": true,
      "inputs": [],
      "name": "platformFeeAddress",
      "outputs": [
        {
          "name": "",
          "type": "address"
        }
      ],
      "payable": false,
      "stateMutability": "view",
      "type": "function"
    },
    {
      "constant": false,
      "inputs": [
        {
          "name": "minScores",
          "type": "uint256[]"
        },
        {
          "name": "maxScores",
          "type": "uint256[]"
        },
        {
          "name": "creditLimits",
          "type": "uint256[]"
        }
      ],
      "name": "addCreditLimitScalesBatch",
      "outputs": [],
      "payable": false,
      "stateMutability": "nonpayable",
      "type": "function"
    },
    {
      "constant": true,
      "inputs": [],
      "name": "vault",
      "outputs": [
        {
          "name": "",
          "type": "address"
        }
      ],
      "payable": false,
      "stateMutability": "view",
      "type": "function"
    },
    {
      "constant": false,
      "inputs": [
        {
          "name": "_platformBpsOfTotal",
          "type": "uint256"
        },
        {
          "name": "_lenderIncomeBpsOfTotal",
          "type": "uint256"
        }
      ],
      "name": "setPlatformAndLenderFeeSplits",
      "outputs": [],
      "payable": false,
      "stateMutability": "nonpayable",
      "type": "function"
    },
    {
      "inputs": [
        {
          "name": "_accessControl",
          "type": "address"
        },
        {
          "name": "_liquidityPool",
          "type": "address"
        },
        {
          "name": "_vault",
          "type": "address"
        },
        {
          "name": "_creditNFT",
          "type": "address"
        },
        {
          "name": "_platformFeeAddr",
          "type": "address"
        },
        {
          "name": "_lenderPoolIncomeAddr",
          "type": "address"
        }
      ],
      "payable": false,
      "stateMutability": "nonpayable",
      "type": "constructor"
    },
    {
      "anonymous": false,
      "inputs": [
        {
          "indexed": true,
          "name": "borrower",
          "type": "address"
        },
        {
          "indexed": false,
          "name": "requestedAmount",
          "type": "uint256"
        },
        {
          "indexed": true,
          "name": "merchant",
          "type": "address"
        }
      ],
      "name": "LoanRequested",
      "type": "event"
    },
    {
      "anonymous": false,
      "inputs": [
        {
          "indexed": true,
          "name": "borrower",
          "type": "address"
        },
        {
          "indexed": false,
          "name": "totalAmount",
          "type": "uint256"
        },
        {
          "indexed": true,
          "name": "token",
          "type": "address"
        },
        {
          "indexed": true,
          "name": "merchant",
          "type": "address"
        }
      ],
      "name": "LoanApproved",
      "type": "event"
    },
    {
      "anonymous": false,
      "inputs": [
        {
          "indexed": true,
          "name": "token",
          "type": "address"
        },
        {
          "indexed": false,
          "name": "amount",
          "type": "uint256"
        },
        {
          "indexed": true,
          "name": "merchant",
          "type": "address"
        }
      ],
      "name": "MerchantSettlement",
      "type": "event"
    },
    {
      "anonymous": false,
      "inputs": [
        {
          "indexed": true,
          "name": "token",
          "type": "address"
        },
        {
          "indexed": false,
          "name": "amount",
          "type": "uint256"
        },
        {
          "indexed": true,
          "name": "platformFeeAddr",
          "type": "address"
        }
      ],
      "name": "PlatformFeePosted",
      "type": "event"
    },
    {
      "anonymous": false,
      "inputs": [
        {
          "indexed": true,
          "name": "token",
          "type": "address"
        },
        {
          "indexed": false,
          "name": "amount",
          "type": "uint256"
        },
        {
          "indexed": true,
          "name": "lenderPoolAddr",
          "type": "address"
        }
      ],
      "name": "LenderFeePosted",
      "type": "event"
    },
    {
      "anonymous": false,
      "inputs": [
        {
          "indexed": true,
          "name": "borrower",
          "type": "address"
        },
        {
          "indexed": true,
          "name": "token",
          "type": "address"
        },
        {
          "indexed": false,
          "name": "amount",
          "type": "uint256"
        },
        {
          "indexed": false,
          "name": "installmentNo",
          "type": "uint8"
        }
      ],
      "name": "BorrowerRepayment",
      "type": "event"
    },
    {
      "anonymous": false,
      "inputs": [
        {
          "indexed": true,
          "name": "borrower",
          "type": "address"
        }
      ],
      "name": "LoanRepaid",
      "type": "event"
    },
    {
      "anonymous": false,
      "inputs": [
        {
          "indexed": true,
          "name": "by",
          "type": "address"
        }
      ],
      "name": "Paused",
      "type": "event"
    },
    {
      "anonymous": false,
      "inputs": [
        {
          "indexed": true,
          "name": "by",
          "type": "address"
        }
      ],
      "name": "Unpaused",
      "type": "event"
    }
  ],
  "bytecode": "0x608060405261032060055560646006556102bc6007553480156200002257600080fd5b5060405160c08062004b7c833981018060405260c08110156200004457600080fd5b810190808051906020019092919080519060200190929190805190602001909291908051906020019092919080519060200190929190805190602001909291905050506001600081905550600073ffffffffffffffffffffffffffffffffffffffff168673ffffffffffffffffffffffffffffffffffffffff161415151562000135576040517f08c379a000000000000000000000000000000000000000000000000000000000815260040180806020018281038252601f8152602001807f4c6f616e4d616e616765723a207a65726f20616363657373436f6e74726f6c0081525060200191505060405180910390fd5b600073ffffffffffffffffffffffffffffffffffffffff168573ffffffffffffffffffffffffffffffffffffffff1614151515620001db576040517f08c379a000000000000000000000000000000000000000000000000000000000815260040180806020018281038252601f8152602001807f4c6f616e4d616e616765723a207a65726f206c6971756964697479506f6f6c0081525060200191505060405180910390fd5b600073ffffffffffffffffffffffffffffffffffffffff168473ffffffffffffffffffffffffffffffffffffffff161415151562000281576040517f08c379a00000000000000000000000000000000000000000000000000000000081526004018080602001828103825260178152602001807f4c6f616e4d616e616765723a207a65726f207661756c7400000000000000000081525060200191505060405180910390fd5b600073ffffffffffffffffffffffffffffffffffffffff168373ffffffffffffffffffffffffffffffffffffffff161415151562000327576040517f08c379a000000000000000000000000000000000000000000000000000000000815260040180806020018281038252601b8152602001807f4c6f616e4d616e616765723a207a65726f206372656469744e4654000000000081525060200191505060405180910390fd5b600073ffffffffffffffffffffffffffffffffffffffff168273ffffffffffffffffffffffffffffffffffffffff1614151515620003b1576040517f08c379a000000000000000000000000000000000000000000000000000000000815260040180806020018281038252602381526020018062004b596023913960400191505060405180910390fd5b600073ffffffffffffffffffffffffffffffffffffffff168173ffffffffffffffffffffffffffffffffffffffff16141515156200043b576040517f08c379a000000000000000000000000000000000000000000000000000000000815260040180806020018281038252602481526020018062004b356024913960400191505060405180910390fd5b85600160006101000a81548173ffffffffffffffffffffffffffffffffffffffff021916908373ffffffffffffffffffffffffffffffffffffffff16021790555084600260006101000a81548173ffffffffffffffffffffffffffffffffffffffff021916908373ffffffffffffffffffffffffffffffffffffffff16021790555083600360006101000a81548173ffffffffffffffffffffffffffffffffffffffff021916908373ffffffffffffffffffffffffffffffffffffffff16021790555082600460006101000a81548173ffffffffffffffffffffffffffffffffffffffff021916908373ffffffffffffffffffffffffffffffffffffffff16021790555081600860006101000a81548173ffffffffffffffffffffffffffffffffffffffff021916908373ffffffffffffffffffffffffffffffffffffffff16021790555080600960006101000a81548173ffffffffffffffffffffffffffffffffffffffff021916908373ffffffffffffffffffffffffffffffffffffffff1602179055506000600460146101000a81548160ff02191690831515021790555050505050505061454380620005f26000396000f3fe608060405234801561001057600080fd5b50600436106101e1576000357c01000000000000000000000000000000000000000000000000000000009004806377a1875a11610116578063aa4c7fad116100b4578063ed14834f1161008e578063ed14834f146109e0578063ee943be814610a2a578063fbfa77cf14610b4d578063fd4d9a3214610b97576101e1565b8063aa4c7fad14610839578063b7f2458a14610887578063e8a7da8e146108b5576101e1565b80638456cb59116100f05780638456cb59146107735780638d68861a1461077d57806392594d791461079b5780639e6e1ab9146107e5576101e1565b806377a1875a1461067b57806378673df6146106d35780637a5d5f0814610715576101e1565b80634f98cded11610183578063665a11ca1161015d578063665a11ca1461042e5780636a2df6471461047857806373b4086b146104c257806375d2c5a6146105ed576101e1565b80634f98cded1461039e5780635c975abb146103bc5780635ee10bc0146103de576101e1565b806315c0c832116101bf57806315c0c8321461030257806322867d78146103205780633f4ba83a1461036e5780634defb44d14610378576101e1565b806305c56cf5146101e657806311c841201461025457806313007d55146102b8575b600080fd5b610252600480360360608110156101fc57600080fd5b81019080803573ffffffffffffffffffffffffffffffffffffffff16906020019092919080359060200190929190803573ffffffffffffffffffffffffffffffffffffffff169060200190929190505050610bcf565b005b6102b66004803603604081101561026a57600080fd5b81019080803573ffffffffffffffffffffffffffffffffffffffff169060200190929190803573ffffffffffffffffffffffffffffffffffffffff169060200190929190505050611462565b005b6102c0611643565b604051808273ffffffffffffffffffffffffffffffffffffffff1673ffffffffffffffffffffffffffffffffffffffff16815260200191505060405180910390f35b61030a611669565b6040518082815260200191505060405180910390f35b61036c6004803603604081101561033657600080fd5b81019080803573ffffffffffffffffffffffffffffffffffffffff1690602001909291908035906020019092919050505061166f565b005b610376611b26565b005b610380611c03565b604051808261ffff1661ffff16815260200191505060405180910390f35b6103a6611c17565b6040518082815260200191505060405180910390f35b6103c4611c1d565b604051808215151515815260200191505060405180910390f35b61042c600480360360808110156103f457600080fd5b81019080803561ffff169060200190929190803590602001909291908035906020019092919080359060200190929190505050611c30565b005b610436611f57565b604051808273ffffffffffffffffffffffffffffffffffffffff1673ffffffffffffffffffffffffffffffffffffffff16815260200191505060405180910390f35b610480611f7d565b604051808273ffffffffffffffffffffffffffffffffffffffff1673ffffffffffffffffffffffffffffffffffffffff16815260200191505060405180910390f35b610504600480360360208110156104d857600080fd5b81019080803573ffffffffffffffffffffffffffffffffffffffff169060200190929190505050611fa3565b604051808b73ffffffffffffffffffffffffffffffffffffffff1673ffffffffffffffffffffffffffffffffffffffff1681526020018a73ffffffffffffffffffffffffffffffffffffffff1673ffffffffffffffffffffffffffffffffffffffff1681526020018973ffffffffffffffffffffffffffffffffffffffff1673ffffffffffffffffffffffffffffffffffffffff1681526020018881526020018781526020018681526020018560ff1660ff1681526020018460ff1660ff168152602001838152602001821515151581526020019a505050505050505050505060405180910390f35b6106796004803603608081101561060357600080fd5b81019080803573ffffffffffffffffffffffffffffffffffffffff169060200190929190803573ffffffffffffffffffffffffffffffffffffffff16906020019092919080359060200190929190803573ffffffffffffffffffffffffffffffffffffffff16906020019092919050505061207e565b005b6106bd6004803603602081101561069157600080fd5b81019080803573ffffffffffffffffffffffffffffffffffffffff169060200190929190505050612ec9565b6040518082815260200191505060405180910390f35b6106ff600480360360208110156106e957600080fd5b8101908080359060200190929190505050612f15565b6040518082815260200191505060405180910390f35b6107556004803603606081101561072b57600080fd5b81019080803590602001909291908035906020019092919080359060200190929190505050613039565b604051808261ffff1661ffff16815260200191505060405180910390f35b61077b6132a3565b005b610785613380565b6040518082815260200191505060405180910390f35b6107a3613386565b604051808273ffffffffffffffffffffffffffffffffffffffff1673ffffffffffffffffffffffffffffffffffffffff16815260200191505060405180910390f35b610815600480360360208110156107fb57600080fd5b81019080803561ffff1690602001909291905050506133ac565b60405180848152602001838152602001828152602001935050505060405180910390f35b6108856004803603604081101561084f57600080fd5b81019080803573ffffffffffffffffffffffffffffffffffffffff169060200190929190803590602001909291905050506133d6565b005b6108b36004803603602081101561089d57600080fd5b81019080803590602001909291905050506136d8565b005b6108f7600480360360208110156108cb57600080fd5b81019080803573ffffffffffffffffffffffffffffffffffffffff1690602001909291905050506137d9565b604051808b73ffffffffffffffffffffffffffffffffffffffff1673ffffffffffffffffffffffffffffffffffffffff1681526020018a73ffffffffffffffffffffffffffffffffffffffff1673ffffffffffffffffffffffffffffffffffffffff1681526020018973ffffffffffffffffffffffffffffffffffffffff1673ffffffffffffffffffffffffffffffffffffffff1681526020018881526020018781526020018681526020018560ff1660ff1681526020018460ff1660ff168152602001838152602001821515151581526020019a505050505050505050505060405180910390f35b6109e8613a13565b604051808273ffffffffffffffffffffffffffffffffffffffff1673ffffffffffffffffffffffffffffffffffffffff16815260200191505060405180910390f35b610b4b60048036036060811015610a4057600080fd5b8101908080359060200190640100000000811115610a5d57600080fd5b820183602082011115610a6f57600080fd5b80359060200191846020830284011164010000000083111715610a9157600080fd5b909192939192939080359060200190640100000000811115610ab257600080fd5b820183602082011115610ac457600080fd5b80359060200191846020830284011164010000000083111715610ae657600080fd5b909192939192939080359060200190640100000000811115610b0757600080fd5b820183602082011115610b1957600080fd5b80359060200191846020830284011164010000000083111715610b3b57600080fd5b9091929391929390505050613a39565b005b610b55613c2e565b604051808273ffffffffffffffffffffffffffffffffffffffff1673ffffffffffffffffffffffffffffffffffffffff16815260200191505060405180910390f35b610bcd60048036036040811015610bad57600080fd5b810190808035906020019092919080359060200190929190505050613c54565b005b600460149054906101000a900460ff16151515610c54576040517f08c379a00000000000000000000000000000000000000000000000000000000081526004018080602001828103825260138152602001807f4c6f616e4d616e616765723a207061757365640000000000000000000000000081525060200191505060405180910390fd5b610c5d33613d41565b151515610cb5576040517f08c379a000000000000000000000000000000000000000000000000000000000815260040180806020018281038252602b815260200180614431602b913960400191505060405180910390fd5b600073ffffffffffffffffffffffffffffffffffffffff168373ffffffffffffffffffffffffffffffffffffffff1614151515610d5a576040517f08c379a00000000000000000000000000000000000000000000000000000000081526004018080602001828103825260178152602001807f4c6f616e4d616e616765723a207a65726f20746f6b656e00000000000000000081525060200191505060405180910390fd5b600073ffffffffffffffffffffffffffffffffffffffff168173ffffffffffffffffffffffffffffffffffffffff1614151515610dff576040517f08c379a000000000000000000000000000000000000000000000000000000000815260040180806020018281038252601a8152602001807f4c6f616e4d616e616765723a207a65726f206d65726368616e7400000000000081525060200191505060405180910390fd5b600a60003373ffffffffffffffffffffffffffffffffffffffff1673ffffffffffffffffffffffffffffffffffffffff16815260200190815260200160002060080160009054906101000a900460ff16151515610ec4576040517f08c379a000000000000000000000000000000000000000000000000000000000815260040180806020018281038252601f8152602001807f4c6f616e4d616e616765723a206f6e65206c6f616e20617420612074696d650081525060200191505060405180910390fd5b6000600460009054906101000a900473ffffffffffffffffffffffffffffffffffffffff1673ffffffffffffffffffffffffffffffffffffffff1663065023e6336040518263ffffffff167c0100000000000000000000000000000000000000000000000000000000028152600401808273ffffffffffffffffffffffffffffffffffffffff1673ffffffffffffffffffffffffffffffffffffffff16815260200191505060206040518083038186803b158015610f8157600080fd5b505afa158015610f95573d6000803e3d6000fd5b505050506040513d6020811015610fab57600080fd5b810190808051906020019092919050505090506000600460009054906101000a900473ffffffffffffffffffffffffffffffffffffffff1673ffffffffffffffffffffffffffffffffffffffff1663cd754951336040518263ffffffff167c0100000000000000000000000000000000000000000000000000000000028152600401808273ffffffffffffffffffffffffffffffffffffffff1673ffffffffffffffffffffffffffffffffffffffff16815260200191505060206040518083038186803b15801561107b57600080fd5b505afa15801561108f573d6000803e3d6000fd5b505050506040513d60208110156110a557600080fd5b8101908080519060200190929190505050905060006110c78361ffff16612f15565b9050600085111515611141576040517f08c379a00000000000000000000000000000000000000000000000000000000081526004018080602001828103825260188152602001807f4c6f616e4d616e616765723a207a65726f20616d6f756e74000000000000000081525060200191505060405180910390fd5b60008361ffff161115156111a0576040517f08c379a00000000000000000000000000000000000000000000000000000000081526004018080602001828103825260218152602001806144106021913960400191505060405180910390fd5b8185111515156111fb576040517f08c379a00000000000000000000000000000000000000000000000000000000081526004018080602001828103825260218152602001806144a46021913960400191505060405180910390fd5b808510151515611256576040517f08c379a000000000000000000000000000000000000000000000000000000000815260040180806020018281038252602481526020018061445c6024913960400191505060405180910390fd5b60006064601e870281151561126757fe5b0490506000600360009054906101000a900473ffffffffffffffffffffffffffffffffffffffff1673ffffffffffffffffffffffffffffffffffffffff1663cc218ece338a6040518363ffffffff167c0100000000000000000000000000000000000000000000000000000000028152600401808373ffffffffffffffffffffffffffffffffffffffff1673ffffffffffffffffffffffffffffffffffffffff1681526020018273ffffffffffffffffffffffffffffffffffffffff1673ffffffffffffffffffffffffffffffffffffffff1681526020019250505060206040518083038186803b15801561135b57600080fd5b505afa15801561136f573d6000803e3d6000fd5b505050506040513d602081101561138557600080fd5b810190808051906020019092919050505090508181101515156113f3576040517f08c379a00000000000000000000000000000000000000000000000000000000081526004018080602001828103825260248152602001806144806024913960400191505060405180910390fd5b8573ffffffffffffffffffffffffffffffffffffffff163373ffffffffffffffffffffffffffffffffffffffff167fa0e1da0b27290d27c909b7d941e11550eb51fb6b3f4da505888e0b754ac6a48f896040518082815260200191505060405180910390a35050505050505050565b61146b33613d63565b15156114df576040517f08c379a00000000000000000000000000000000000000000000000000000000081526004018080602001828103825260168152602001807f4c6f616e4d616e616765723a206e6f742061646d696e0000000000000000000081525060200191505060405180910390fd5b600073ffffffffffffffffffffffffffffffffffffffff168273ffffffffffffffffffffffffffffffffffffffff16141580156115495750600073ffffffffffffffffffffffffffffffffffffffff168173ffffffffffffffffffffffffffffffffffffffff1614155b15156115bd576040517f08c379a00000000000000000000000000000000000000000000000000000000081526004018080602001828103825260168152602001807f4c6f616e4d616e616765723a207a65726f20616464720000000000000000000081525060200191505060405180910390fd5b81600860006101000a81548173ffffffffffffffffffffffffffffffffffffffff021916908373ffffffffffffffffffffffffffffffffffffffff16021790555080600960006101000a81548173ffffffffffffffffffffffffffffffffffffffff021916908373ffffffffffffffffffffffffffffffffffffffff1602179055505050565b600160009054906101000a900473ffffffffffffffffffffffffffffffffffffffff1681565b60065481565b60016000541415156116e9576040517f08c379a000000000000000000000000000000000000000000000000000000000815260040180806020018281038252600e8152602001807f5265656e7472616e742063616c6c00000000000000000000000000000000000081525060200191505060405180910390fd5b6002600081905550600460149054906101000a900460ff16151515611776576040517f08c379a00000000000000000000000000000000000000000000000000000000081526004018080602001828103825260138152602001807f4c6f616e4d616e616765723a207061757365640000000000000000000000000081525060200191505060405180910390fd5b6000811115156117ee576040517f08c379a00000000000000000000000000000000000000000000000000000000081526004018080602001828103825260188152602001807f4c6f616e4d616e616765723a207a65726f20616d6f756e74000000000000000081525060200191505060405180910390fd5b6000600a60003373ffffffffffffffffffffffffffffffffffffffff1673ffffffffffffffffffffffffffffffffffffffff16815260200190815260200160002090508060080160009054906101000a900460ff1615156118b7576040517f08c379a000000000000000000000000000000000000000000000000000000000815260040180806020018281038252601b8152602001807f4c6f616e4d616e616765723a206e6f20616374697665206c6f616e000000000081525060200191505060405180910390fd5b8060010160009054906101000a900473ffffffffffffffffffffffffffffffffffffffff1673ffffffffffffffffffffffffffffffffffffffff168373ffffffffffffffffffffffffffffffffffffffff1614151561197e576040517f08c379a00000000000000000000000000000000000000000000000000000000081526004018080602001828103825260188152602001807f4c6f616e4d616e616765723a2077726f6e6720746f6b656e000000000000000081525060200191505060405180910390fd5b6000829050816004015481111561199757816004015490505b6119e633600260009054906101000a900473ffffffffffffffffffffffffffffffffffffffff16838773ffffffffffffffffffffffffffffffffffffffff16613e62909392919063ffffffff16565b80826004015403826004018190555060018260060160009054906101000a900460ff16018260060160006101000a81548160ff021916908360ff1602179055508373ffffffffffffffffffffffffffffffffffffffff163373ffffffffffffffffffffffffffffffffffffffff167f963e5f34899c22f1e1e63cf617c4189b5f3d57e519ca7c4ce787c315293705e8838560060160009054906101000a900460ff16604051808381526020018260ff1660ff1681526020019250505060405180910390a3600082600401541415611b185760008260080160006101000a81548160ff0219169083151502179055503373ffffffffffffffffffffffffffffffffffffffff167f314bd9beaed705e54938dcb29f8f4ccd8b4e9c766dd263b70acf7d5bd5f5da5560405160405180910390a25b505060016000819055505050565b611b2f33613d63565b1515611ba3576040517f08c379a00000000000000000000000000000000000000000000000000000000081526004018080602001828103825260168152602001807f4c6f616e4d616e616765723a206e6f742061646d696e0000000000000000000081525060200191505060405180910390fd5b6000600460146101000a81548160ff0219169083151502179055503373ffffffffffffffffffffffffffffffffffffffff167f5db9ee0a495bf2e6ff9c91a7834c1ba4fdd244a5e8aa4e537bd38aeae4b073aa60405160405180910390a2565b600c60009054906101000a900461ffff1681565b60075481565b600460149054906101000a900460ff1681565b611c3933613d63565b1515611cad576040517f08c379a00000000000000000000000000000000000000000000000000000000081526004018080602001828103825260168152602001807f4c6f616e4d616e616765723a206e6f742061646d696e0000000000000000000081525060200191505060405180910390fd5b600c60009054906101000a900461ffff1661ffff168461ffff16101515611d3c576040517f08c379a00000000000000000000000000000000000000000000000000000000081526004018080602001828103825260148152602001807f5363616c6520646f6573206e6f7420657869737400000000000000000000000081525060200191505060405180910390fd5b818311151515611db4576040517f08c379a00000000000000000000000000000000000000000000000000000000081526004018080602001828103825260138152602001807f496e76616c69642073636f72652072616e67650000000000000000000000000081525060200191505060405180910390fd5b60008461ffff161115611e5a57600b60006001860361ffff1661ffff1681526020019081526020016000206001015483111515611e59576040517f08c379a000000000000000000000000000000000000000000000000000000000815260040180806020018281038252601b8152602001807f4f7665726c617020776974682070726576696f7573207363616c65000000000081525060200191505060405180910390fd5b5b6001600c60009054906101000a900461ffff160361ffff168461ffff161015611f1657600b60006001860161ffff1661ffff1681526020019081526020016000206000015482101515611f15576040517f08c379a00000000000000000000000000000000000000000000000000000000081526004018080602001828103825260178152602001807f4f7665726c61702077697468206e657874207363616c6500000000000000000081525060200191505060405180910390fd5b5b6000600b60008661ffff1661ffff16815260200190815260200160002090508381600001819055508281600101819055508181600201819055505050505050565b600260009054906101000a900473ffffffffffffffffffffffffffffffffffffffff1681565b600460009054906101000a900473ffffffffffffffffffffffffffffffffffffffff1681565b600a6020528060005260406000206000915090508060000160009054906101000a900473ffffffffffffffffffffffffffffffffffffffff16908060010160009054906101000a900473ffffffffffffffffffffffffffffffffffffffff16908060020160009054906101000a900473ffffffffffffffffffffffffffffffffffffffff16908060030154908060040154908060050154908060060160009054906101000a900460ff16908060060160019054906101000a900460ff16908060070154908060080160009054906101000a900460ff1690508a565b61208733613ff4565b15156120fb576040517f08c379a000000000000000000000000000000000000000000000000000000000815260040180806020018281038252601f8152602001807f4c6f616e4d616e616765723a206e6f7420637265646974206f6666696365720081525060200191505060405180910390fd5b6001600054141515612175576040517f08c379a000000000000000000000000000000000000000000000000000000000815260040180806020018281038252600e8152602001807f5265656e7472616e742063616c6c00000000000000000000000000000000000081525060200191505060405180910390fd5b6002600081905550600460149054906101000a900460ff16151515612202576040517f08c379a00000000000000000000000000000000000000000000000000000000081526004018080602001828103825260138152602001807f4c6f616e4d616e616765723a207061757365640000000000000000000000000081525060200191505060405180910390fd5b61220b84613d41565b151515612263576040517f08c379a00000000000000000000000000000000000000000000000000000000081526004018080602001828103825260258152602001806144c56025913960400191505060405180910390fd5b600073ffffffffffffffffffffffffffffffffffffffff168473ffffffffffffffffffffffffffffffffffffffff1614151515612308576040517f08c379a000000000000000000000000000000000000000000000000000000000815260040180806020018281038252601a8152602001807f4c6f616e4d616e616765723a207a65726f20626f72726f77657200000000000081525060200191505060405180910390fd5b600073ffffffffffffffffffffffffffffffffffffffff168173ffffffffffffffffffffffffffffffffffffffff16141515156123ad576040517f08c379a000000000000000000000000000000000000000000000000000000000815260040180806020018281038252601a8152602001807f4c6f616e4d616e616765723a207a65726f206d65726368616e7400000000000081525060200191505060405180910390fd5b600a60008573ffffffffffffffffffffffffffffffffffffffff1673ffffffffffffffffffffffffffffffffffffffff16815260200190815260200160002060080160009054906101000a900460ff16151515612472576040517f08c379a000000000000000000000000000000000000000000000000000000000815260040180806020018281038252601a8152602001807f4c6f616e4d616e616765723a206578697374696e67206c6f616e00000000000081525060200191505060405180910390fd5b6000821115156124ea576040517f08c379a00000000000000000000000000000000000000000000000000000000081526004018080602001828103825260188152602001807f4c6f616e4d616e616765723a207a65726f20616d6f756e74000000000000000081525060200191505060405180910390fd5b6000600460009054906101000a900473ffffffffffffffffffffffffffffffffffffffff1673ffffffffffffffffffffffffffffffffffffffff1663065023e6866040518263ffffffff167c0100000000000000000000000000000000000000000000000000000000028152600401808273ffffffffffffffffffffffffffffffffffffffff1673ffffffffffffffffffffffffffffffffffffffff16815260200191505060206040518083038186803b1580156125a757600080fd5b505afa1580156125bb573d6000803e3d6000fd5b505050506040513d60208110156125d157600080fd5b810190808051906020019092919050505090506000600460009054906101000a900473ffffffffffffffffffffffffffffffffffffffff1673ffffffffffffffffffffffffffffffffffffffff1663cd754951876040518263ffffffff167c0100000000000000000000000000000000000000000000000000000000028152600401808273ffffffffffffffffffffffffffffffffffffffff1673ffffffffffffffffffffffffffffffffffffffff16815260200191505060206040518083038186803b1580156126a157600080fd5b505afa1580156126b5573d6000803e3d6000fd5b505050506040513d60208110156126cb57600080fd5b8101908080519060200190929190505050905060008261ffff1611151561275a576040517f08c379a000000000000000000000000000000000000000000000000000000000815260040180806020018281038252601a8152602001807f4c6f616e4d616e616765723a20696e76616c69642073636f726500000000000081525060200191505060405180910390fd5b8084111515156127b5576040517f08c379a00000000000000000000000000000000000000000000000000000000081526004018080602001828103825260218152602001806144a46021913960400191505060405180910390fd5b60006064602286028115156127c657fe5b04905060008186039050600061271060055488028115156127e357fe5b049050600061271060065489028115156127f957fe5b04905060006127106007548a0281151561280f57fe5b0490508281830114151561288b576040517f08c379a00000000000000000000000000000000000000000000000000000000081526004018080602001828103825260128152602001807f4665652073706c6974206d69736d61746368000000000000000000000000000081525060200191505060405180910390fd5b6000851115612927576128c18b89878d73ffffffffffffffffffffffffffffffffffffffff16613e62909392919063ffffffff16565b8773ffffffffffffffffffffffffffffffffffffffff168a73ffffffffffffffffffffffffffffffffffffffff167fd5b1024486032ed467488f4e16a106ded5ed94c488bb2ea53332c13d32655c57876040518082815260200191505060405180910390a35b6000841115612a4257600260009054906101000a900473ffffffffffffffffffffffffffffffffffffffff1673ffffffffffffffffffffffffffffffffffffffff1663201add9b8b30876040518463ffffffff167c0100000000000000000000000000000000000000000000000000000000028152600401808473ffffffffffffffffffffffffffffffffffffffff1673ffffffffffffffffffffffffffffffffffffffff1681526020018373ffffffffffffffffffffffffffffffffffffffff1673ffffffffffffffffffffffffffffffffffffffff1681526020018281526020019350505050600060405180830381600087803b158015612a2957600080fd5b505af1158015612a3d573d6000803e3d6000fd5b505050505b6000821115612b2057612a98600860009054906101000a900473ffffffffffffffffffffffffffffffffffffffff16838c73ffffffffffffffffffffffffffffffffffffffff166140f39092919063ffffffff16565b600860009054906101000a900473ffffffffffffffffffffffffffffffffffffffff1673ffffffffffffffffffffffffffffffffffffffff168a73ffffffffffffffffffffffffffffffffffffffff167fe4e992533abd547ba3766ec34fa59570328f7dc163d99b4f9eed6ec85bfe873b846040518082815260200191505060405180910390a35b6000811115612bfe57612b76600960009054906101000a900473ffffffffffffffffffffffffffffffffffffffff16828c73ffffffffffffffffffffffffffffffffffffffff166140f39092919063ffffffff16565b600960009054906101000a900473ffffffffffffffffffffffffffffffffffffffff1673ffffffffffffffffffffffffffffffffffffffff168a73ffffffffffffffffffffffffffffffffffffffff167f5b0b1aaf2c5143a4aaec53ce4b5ebad3df00949e34bfd066204e4531125a8be5836040518082815260200191505060405180910390a35b600080905083851115612ca1578385039050612c3b89828d73ffffffffffffffffffffffffffffffffffffffff166140f39092919063ffffffff16565b8873ffffffffffffffffffffffffffffffffffffffff168b73ffffffffffffffffffffffffffffffffffffffff167fd5b1024486032ed467488f4e16a106ded5ed94c488bb2ea53332c13d32655c57836040518082815260200191505060405180910390a35b6000600a60008e73ffffffffffffffffffffffffffffffffffffffff1673ffffffffffffffffffffffffffffffffffffffff16815260200190815260200160002090508c8160000160006101000a81548173ffffffffffffffffffffffffffffffffffffffff021916908373ffffffffffffffffffffffffffffffffffffffff1602179055508b8160010160006101000a81548173ffffffffffffffffffffffffffffffffffffffff021916908373ffffffffffffffffffffffffffffffffffffffff160217905550898160020160006101000a81548173ffffffffffffffffffffffffffffffffffffffff021916908373ffffffffffffffffffffffffffffffffffffffff16021790555085816003018190555085816004018190555042816005018190555060008160060160006101000a81548160ff021916908360ff16021790555060028160060160016101000a81548160ff021916908360ff160217905550600286811515612e1057fe5b04816007018190555060018160080160006101000a81548160ff0219169083151502179055508973ffffffffffffffffffffffffffffffffffffffff168c73ffffffffffffffffffffffffffffffffffffffff168e73ffffffffffffffffffffffffffffffffffffffff167ff9dff605c0c044888786a30932639f6c606440b2d32b28f0889012aca8f873e48e6040518082815260200191505060405180910390a4505050505050505050600160008190555050505050565b6000600a60008373ffffffffffffffffffffffffffffffffffffffff1673ffffffffffffffffffffffffffffffffffffffff168152602001908152602001600020600401549050919050565b600080600c60009054906101000a900461ffff1661ffff161415612f3c5760009050613034565b600080905060006001600c60009054906101000a900461ffff160390505b8061ffff168261ffff1611151561302d576000600283830361ffff16811515612f7f57fe5b0483019050612f8c61434f565b600b60008361ffff1661ffff16815260200190815260200160002060606040519081016040529081600082015481526020016001820154815260200160028201548152505090508060000151861015612ffe5760008261ffff161415612ff357505061302d565b600182039250613026565b806020015186111561301557600182019350613025565b8060400151945050505050613034565b5b5050612f5a565b6000925050505b919050565b600061304433613d63565b15156130b8576040517f08c379a00000000000000000000000000000000000000000000000000000000081526004018080602001828103825260168152602001807f4c6f616e4d616e616765723a206e6f742061646d696e0000000000000000000081525060200191505060405180910390fd5b828411151515613130576040517f08c379a00000000000000000000000000000000000000000000000000000000081526004018080602001828103825260138152602001807f496e76616c69642073636f72652072616e67650000000000000000000000000081525060200191505060405180910390fd5b6000600c60009054906101000a900461ffff1661ffff1611156131f657600b60006001600c60009054906101000a900461ffff160361ffff1661ffff16815260200190815260200160002060010154841115156131f5576040517f08c379a00000000000000000000000000000000000000000000000000000000081526004018080602001828103825260178152602001807f5363616c6573206d757374206e6f74206f7665726c617000000000000000000081525060200191505060405180910390fd5b5b6000600c60009054906101000a900461ffff16905060606040519081016040528086815260200185815260200184815250600b60008361ffff1661ffff168152602001908152602001600020600082015181600001556020820151816001015560408201518160020155905050600c600081819054906101000a900461ffff168092919060010191906101000a81548161ffff021916908361ffff16021790555050809150509392505050565b6132ac33613d63565b1515613320576040517f08c379a00000000000000000000000000000000000000000000000000000000081526004018080602001828103825260168152602001807f4c6f616e4d616e616765723a206e6f742061646d696e0000000000000000000081525060200191505060405180910390fd5b6001600460146101000a81548160ff0219169083151502179055503373ffffffffffffffffffffffffffffffffffffffff167f62e78cea01bee320cd4e420270b5ea74000d11b0c9f74754ebdbfc544b05a25860405160405180910390a2565b60055481565b600960009054906101000a900473ffffffffffffffffffffffffffffffffffffffff1681565b600b6020528060005260406000206000915090508060000154908060010154908060020154905083565b6001600054141515613450576040517f08c379a000000000000000000000000000000000000000000000000000000000815260040180806020018281038252600e8152602001807f5265656e7472616e742063616c6c00000000000000000000000000000000000081525060200191505060405180910390fd5b6002600081905550600460149054906101000a900460ff161515156134dd576040517f08c379a00000000000000000000000000000000000000000000000000000000081526004018080602001828103825260138152602001807f4c6f616e4d616e616765723a207061757365640000000000000000000000000081525060200191505060405180910390fd5b60006134e833614250565b905060006134f533613d63565b905081806135005750805b1515613574576040517f08c379a00000000000000000000000000000000000000000000000000000000081526004018080602001828103825260198152602001807f4c6f616e4d616e616765723a20756e617574686f72697a65640000000000000081525060200191505060405180910390fd5b6000600a60008673ffffffffffffffffffffffffffffffffffffffff1673ffffffffffffffffffffffffffffffffffffffff16815260200190815260200160002090508060080160009054906101000a900460ff16151561363d576040517f08c379a000000000000000000000000000000000000000000000000000000000815260040180806020018281038252601b8152602001807f4c6f616e4d616e616765723a206e6f20616374697665206c6f616e000000000081525060200191505060405180910390fd5b8060040154841015156136b9576000816004018190555060008160080160006101000a81548160ff0219169083151502179055508473ffffffffffffffffffffffffffffffffffffffff167f314bd9beaed705e54938dcb29f8f4ccd8b4e9c766dd263b70acf7d5bd5f5da5560405160405180910390a26136c9565b8381600401540381600401819055505b50505060016000819055505050565b6136e133613d63565b1515613755576040517f08c379a00000000000000000000000000000000000000000000000000000000081526004018080602001828103825260168152602001807f4c6f616e4d616e616765723a206e6f742061646d696e0000000000000000000081525060200191505060405180910390fd5b6107d081111515156137cf576040517f08c379a00000000000000000000000000000000000000000000000000000000081526004018080602001828103825260198152602001807f4c6f616e4d616e616765723a2066656520746f6f20686967680000000000000081525060200191505060405180910390fd5b8060058190555050565b6000806000806000806000806000806137f0614371565b600a60008d73ffffffffffffffffffffffffffffffffffffffff1673ffffffffffffffffffffffffffffffffffffffff16815260200190815260200160002061014060405190810160405290816000820160009054906101000a900473ffffffffffffffffffffffffffffffffffffffff1673ffffffffffffffffffffffffffffffffffffffff1673ffffffffffffffffffffffffffffffffffffffff1681526020016001820160009054906101000a900473ffffffffffffffffffffffffffffffffffffffff1673ffffffffffffffffffffffffffffffffffffffff1673ffffffffffffffffffffffffffffffffffffffff1681526020016002820160009054906101000a900473ffffffffffffffffffffffffffffffffffffffff1673ffffffffffffffffffffffffffffffffffffffff1673ffffffffffffffffffffffffffffffffffffffff1681526020016003820154815260200160048201548152602001600582015481526020016006820160009054906101000a900460ff1660ff1660ff1681526020016006820160019054906101000a900460ff1660ff1660ff168152602001600782015481526020016008820160009054906101000a900460ff1615151515815250509050806000015181602001518260400151836060015184608001518560a001518660c001518760e001518861010001518961012001519a509a509a509a509a509a509a509a509a509a50509193959799509193959799565b600860009054906101000a900473ffffffffffffffffffffffffffffffffffffffff1681565b613a4233613d63565b1515613ab6576040517f08c379a00000000000000000000000000000000000000000000000000000000081526004018080602001828103825260168152602001807f4c6f616e4d616e616765723a206e6f742061646d696e0000000000000000000081525060200191505060405180910390fd5b8383905086869050148015613ad057508181905084849050145b1515613b44576040517f08c379a00000000000000000000000000000000000000000000000000000000081526004018080602001828103825260158152602001807f4172726179206c656e677468206d69736d61746368000000000000000000000081525060200191505060405180910390fd5b600086869050111515613bbf576040517f08c379a00000000000000000000000000000000000000000000000000000000081526004018080602001828103825260128152602001807f4e6f207363616c65732070726f7669646564000000000000000000000000000081525060200191505060405180910390fd5b60008090505b86869050811015613c2557613c178787838181101515613be157fe5b905060200201358686848181101515613bf657fe5b905060200201358585858181101515613c0b57fe5b90506020020135613039565b508080600101915050613bc5565b50505050505050565b600360009054906101000a900473ffffffffffffffffffffffffffffffffffffffff1681565b613c5d33613d63565b1515613cd1576040517f08c379a00000000000000000000000000000000000000000000000000000000081526004018080602001828103825260168152602001807f4c6f616e4d616e616765723a206e6f742061646d696e0000000000000000000081525060200191505060405180910390fd5b600554818301141515613d2f576040517f08c379a000000000000000000000000000000000000000000000000000000000815260040180806020018281038252602e8152602001806144ea602e913960400191505060405180910390fd5b81600681905550806007819055505050565b6000613d4c82613d63565b80613d5c5750613d5b82613ff4565b5b9050919050565b6000600160009054906101000a900473ffffffffffffffffffffffffffffffffffffffff1673ffffffffffffffffffffffffffffffffffffffff166324d7806c836040518263ffffffff167c0100000000000000000000000000000000000000000000000000000000028152600401808273ffffffffffffffffffffffffffffffffffffffff1673ffffffffffffffffffffffffffffffffffffffff16815260200191505060206040518083038186803b158015613e2057600080fd5b505afa158015613e34573d6000803e3d6000fd5b505050506040513d6020811015613e4a57600080fd5b81019080805190602001909291905050509050919050565b60008473ffffffffffffffffffffffffffffffffffffffff166323b872dd8585856040518463ffffffff167c0100000000000000000000000000000000000000000000000000000000028152600401808473ffffffffffffffffffffffffffffffffffffffff1673ffffffffffffffffffffffffffffffffffffffff1681526020018373ffffffffffffffffffffffffffffffffffffffff1673ffffffffffffffffffffffffffffffffffffffff1681526020018281526020019350505050602060405180830381600087803b158015613f3b57600080fd5b505af1158015613f4f573d6000803e3d6000fd5b505050506040513d6020811015613f6557600080fd5b81019080805190602001909291905050509050801515613fed576040517f08c379a000000000000000000000000000000000000000000000000000000000815260040180806020018281038252601e8152602001807f5361666554524332303a207472616e7366657246726f6d206661696c6564000081525060200191505060405180910390fd5b5050505050565b6000600160009054906101000a900473ffffffffffffffffffffffffffffffffffffffff1673ffffffffffffffffffffffffffffffffffffffff16638b7ac4d5836040518263ffffffff167c0100000000000000000000000000000000000000000000000000000000028152600401808273ffffffffffffffffffffffffffffffffffffffff1673ffffffffffffffffffffffffffffffffffffffff16815260200191505060206040518083038186803b1580156140b157600080fd5b505afa1580156140c5573d6000803e3d6000fd5b505050506040513d60208110156140db57600080fd5b81019080805190602001909291905050509050919050565b60008373ffffffffffffffffffffffffffffffffffffffff1663a9059cbb84846040518363ffffffff167c0100000000000000000000000000000000000000000000000000000000028152600401808373ffffffffffffffffffffffffffffffffffffffff1673ffffffffffffffffffffffffffffffffffffffff16815260200182815260200192505050602060405180830381600087803b15801561419857600080fd5b505af11580156141ac573d6000803e3d6000fd5b505050506040513d60208110156141c257600080fd5b8101908080519060200190929190505050905080151561424a576040517f08c379a000000000000000000000000000000000000000000000000000000000815260040180806020018281038252601a8152602001807f5361666554524332303a207472616e73666572206661696c656400000000000081525060200191505060405180910390fd5b50505050565b6000600160009054906101000a900473ffffffffffffffffffffffffffffffffffffffff1673ffffffffffffffffffffffffffffffffffffffff16636ba42aaa836040518263ffffffff167c0100000000000000000000000000000000000000000000000000000000028152600401808273ffffffffffffffffffffffffffffffffffffffff1673ffffffffffffffffffffffffffffffffffffffff16815260200191505060206040518083038186803b15801561430d57600080fd5b505afa158015614321573d6000803e3d6000fd5b505050506040513d602081101561433757600080fd5b81019080805190602001909291905050509050919050565b6060604051908101604052806000815260200160008152602001600081525090565b61014060405190810160405280600073ffffffffffffffffffffffffffffffffffffffff168152602001600073ffffffffffffffffffffffffffffffffffffffff168152602001600073ffffffffffffffffffffffffffffffffffffffff168152602001600081526020016000815260200160008152602001600060ff168152602001600060ff16815260200160008152602001600015158152509056fe4c6f616e4d616e616765723a20696e76616c6964206372656469742073636f72654c6f616e4d616e616765723a2070726976696c656765642075736572732063616e6e6f7420626f72726f774c6f616e4d616e616765723a2062656c6f77206d696e696d756d20666f722073636f72654c6f616e4d616e616765723a20696e73756666696369656e7420636f6c6c61746572616c4c6f616e4d616e616765723a206578636565647320637265646974206c696d69744c6f616e4d616e616765723a2070726976696c656765642063616e6e6f7420626f72726f774c6f616e4d616e616765723a2073706c697473206d7573742073756d20746f206d65726368616e74466565427073a165627a7a7230582053084f5ccf5a795234da874cee535953931594b7128a123e09750aed9f829ac900294c6f616e4d616e616765723a207a65726f206c656e64657220696e636f6d6520616464724c6f616e4d616e616765723a207a65726f20706c6174666f726d206665652061646472",
  "source": "// SPDX-License-Identifier: MIT\r\npragma solidity ^0.5.4;\r\n\r\nimport \"../libs/ReentrancyGuard.sol\";\r\nimport \"../libs/SafeTRC20.sol\";\r\n\r\n/*\r\ninterface ITRC20 {\r\n    function balanceOf(address account) external view returns (uint256);\r\n    function transfer(address to, uint256 value) external returns (bool);\r\n    function transferFrom(address from, address to, uint256 value) external returns (bool);\r\n}*/\r\n\r\ninterface ILiquidityPool {\r\n    // pull funds from the pool to the `to` address\r\n    function pullFunds(address token, address to, uint256 amount) external;\r\n}\r\n\r\ninterface ILoanVaultCore {\r\n    function collateral(address borrower, address token) external view returns (uint256);\r\n}\r\n\r\ninterface IBorderlessCreditNFT {\r\n    function getCreditScoreByBorrower(address borrower) external view returns (uint16);\r\n    function getCreditLimitByBorrower(address borrower) external view returns (uint256);\r\n}\r\n\r\ninterface IAccessControl {\r\n    function isAdmin(address user) external view returns (bool);\r\n    function isCreditOfficer(address user) external view returns (bool);\r\n    function isKeeper(address user) external view returns (bool);\r\n}\r\n\r\ncontract LoanManager is ReentrancyGuard {\r\n    using SafeTRC20 for ITRC20;\r\n\r\n    // External system addresses\r\n    address public accessControl;\r\n    ILiquidityPool public liquidityPool;\r\n    ILoanVaultCore public vault;\r\n    IBorderlessCreditNFT public creditNFT;\r\n\r\n    bool public paused;\r\n\r\n    // Fee configuration (bps = parts per 10,000)\r\n    // merchantFeeBps is 800 = 8% of TOTAL amount\r\n    uint256 public merchantFeeBps = 800; // 8% of totalAmount\r\n    // Splits of the total amount (expressed directly as bps of totalAmount):\r\n    // platform gets 100 bps (1% of total), lender income gets 700 bps (7% of total).\r\n    uint256 public platformFeeOfTotalBps = 100; // 1% of total amount\r\n    uint256 public lenderIncomeOfTotalBps = 700; // 7% of total amount\r\n\r\n    address public platformFeeAddress;       // gets the platform 1% (of total)\r\n    address public lenderPoolIncomeAddress;  // gets the lender 7% (of total)\r\n\r\n    // Loan record per borrower (one loan at a time)\r\n    struct Loan {\r\n        address borrower;\r\n        address token;\r\n        address merchant;        // NEW: settlement merchant address for this loan\r\n        uint256 principal;       // the lender-funded principal (66% of total)\r\n        uint256 outstanding;     // outstanding principal\r\n        uint256 startedAt;\r\n        uint8 installmentsPaid;\r\n        uint8 totalInstallments; // typically 2 (second + third)\r\n        uint256 installmentAmount;\r\n        bool active;\r\n    }\r\n\r\n    struct CreditLimitScale {\r\n        uint256 minScore;\r\n        uint256 maxScore;\r\n        uint256 creditLimit;\r\n    }\r\n\r\n    mapping(address => Loan) public loans;\r\n    mapping(uint16 => CreditLimitScale) public creditLimitScales;\r\n    uint16 public scaleCount;\r\n\r\n    // Events - full accounting\r\n    event LoanRequested(address indexed borrower, uint256 requestedAmount, address indexed merchant);\r\n    event LoanApproved(address indexed borrower, uint256 totalAmount, address indexed token, address indexed merchant);\r\n    event MerchantSettlement(address indexed token, uint256 amount, address indexed merchant);\r\n    event PlatformFeePosted(address indexed token, uint256 amount, address indexed platformFeeAddr);\r\n    event LenderFeePosted(address indexed token, uint256 amount, address indexed lenderPoolAddr);\r\n    event BorrowerRepayment(address indexed borrower, address indexed token, uint256 amount, uint8 installmentNo);\r\n    event LoanRepaid(address indexed borrower);\r\n    event Paused(address indexed by);\r\n    event Unpaused(address indexed by);\r\n\r\n    modifier onlyCreditOfficer() {\r\n        require(_isCreditOfficer(msg.sender), \"LoanManager: not credit officer\");\r\n        _;\r\n    }\r\n\r\n    modifier onlyAdmin() {\r\n        require(_isAdmin(msg.sender), \"LoanManager: not admin\");\r\n        _;\r\n    }\r\n\r\n    modifier whenNotPaused() {\r\n        require(!paused, \"LoanManager: paused\");\r\n        _;\r\n    }\r\n\r\n    constructor(\r\n        address _accessControl,\r\n        address _liquidityPool,\r\n        address _vault,\r\n        address _creditNFT,\r\n        address _platformFeeAddr,\r\n        address _lenderPoolIncomeAddr\r\n    ) public {\r\n        require(_accessControl != address(0), \"LoanManager: zero accessControl\");\r\n        require(_liquidityPool != address(0), \"LoanManager: zero liquidityPool\");\r\n        require(_vault != address(0), \"LoanManager: zero vault\");\r\n        require(_creditNFT != address(0), \"LoanManager: zero creditNFT\");\r\n        require(_platformFeeAddr != address(0), \"LoanManager: zero platform fee addr\");\r\n        require(_lenderPoolIncomeAddr != address(0), \"LoanManager: zero lender income addr\");\r\n\r\n        accessControl = _accessControl;\r\n        liquidityPool = ILiquidityPool(_liquidityPool);\r\n        vault = ILoanVaultCore(_vault);\r\n        creditNFT = IBorderlessCreditNFT(_creditNFT);\r\n        platformFeeAddress = _platformFeeAddr;\r\n        lenderPoolIncomeAddress = _lenderPoolIncomeAddr;\r\n        paused = false;\r\n    }\r\n\r\n    // --- pause controls ---\r\n    function pause() external onlyAdmin {\r\n        paused = true;\r\n        emit Paused(msg.sender);\r\n    }\r\n\r\n    function unpause() external onlyAdmin {\r\n        paused = false;\r\n        emit Unpaused(msg.sender);\r\n    }\r\n\r\n    // --- admin setters ---\r\n    function setFeeAddresses(address _platformFeeAddr, address _lenderPoolIncomeAddr) external onlyAdmin {\r\n        require(_platformFeeAddr != address(0) && _lenderPoolIncomeAddr != address(0), \"LoanManager: zero addr\");\r\n        platformFeeAddress = _platformFeeAddr;\r\n        lenderPoolIncomeAddress = _lenderPoolIncomeAddr;\r\n    }\r\n\r\n    function setMerchantFeeBps(uint256 _bps) external onlyAdmin {\r\n        require(_bps <= 2000, \"LoanManager: fee too high\"); // max 20% safeguard\r\n        merchantFeeBps = _bps;\r\n    }\r\n\r\n    function setPlatformAndLenderFeeSplits(uint256 _platformBpsOfTotal, uint256 _lenderIncomeBpsOfTotal) external onlyAdmin {\r\n        require(_platformBpsOfTotal + _lenderIncomeBpsOfTotal == merchantFeeBps, \"LoanManager: splits must sum to merchantFeeBps\");\r\n        platformFeeOfTotalBps = _platformBpsOfTotal;\r\n        lenderIncomeOfTotalBps = _lenderIncomeBpsOfTotal;\r\n    }\r\n\r\n    // --- privileged check helper ---\r\n    function _isAdmin(address user) internal view returns (bool) {\r\n        return IAccessControl(accessControl).isAdmin(user);\r\n    }\r\n\r\n    function _isCreditOfficer(address user) internal view returns (bool) {\r\n        return IAccessControl(accessControl).isCreditOfficer(user);\r\n    }\r\n\r\n    function _isKeeper(address user) internal view returns (bool) {\r\n        return IAccessControl(accessControl).isKeeper(user);\r\n    }\r\n\r\n    function _isPrivileged(address user) internal view returns (bool) {\r\n        return _isAdmin(user) || _isCreditOfficer(user);\r\n    }\r\n\r\n    // --- credit limit scales (admin only) ---\r\n    function addCreditLimitScale(uint256 minScore, uint256 maxScore, uint256 creditLimit) public onlyAdmin returns (uint16) {\r\n        require(minScore <= maxScore, \"Invalid score range\");\r\n        if (scaleCount > 0) {\r\n            require(minScore > creditLimitScales[scaleCount - 1].maxScore, \"Scales must not overlap\");\r\n        }\r\n        uint16 scaleId = scaleCount;\r\n        creditLimitScales[scaleId] = CreditLimitScale(minScore, maxScore, creditLimit);\r\n        scaleCount++;\r\n        return scaleId;\r\n    }\r\n\r\n    function addCreditLimitScalesBatch(uint256[] calldata minScores, uint256[] calldata maxScores, uint256[] calldata creditLimits) external onlyAdmin {\r\n        require(minScores.length == maxScores.length && maxScores.length == creditLimits.length, \"Array length mismatch\");\r\n        require(minScores.length > 0, \"No scales provided\");\r\n        for (uint256 i = 0; i < minScores.length; i++) {\r\n            addCreditLimitScale(minScores[i], maxScores[i], creditLimits[i]);\r\n        }\r\n    }\r\n\r\n    function updateCreditLimitScale(uint16 scaleId, uint256 newMinScore, uint256 newMaxScore, uint256 newCreditLimit) external onlyAdmin {\r\n        require(scaleId < scaleCount, \"Scale does not exist\");\r\n        require(newMinScore <= newMaxScore, \"Invalid score range\");\r\n        if (scaleId > 0) {\r\n            require(newMinScore > creditLimitScales[scaleId - 1].maxScore, \"Overlap with previous scale\");\r\n        }\r\n        if (scaleId < scaleCount - 1) {\r\n            require(newMaxScore < creditLimitScales[scaleId + 1].minScore, \"Overlap with next scale\");\r\n        }\r\n        CreditLimitScale storage scale = creditLimitScales[scaleId];\r\n        scale.minScore = newMinScore;\r\n        scale.maxScore = newMaxScore;\r\n        scale.creditLimit = newCreditLimit;\r\n    }\r\n\r\n    // Public getter for scale-based credit limit (binary search)\r\n    function getCreditLimitByScore(uint256 score) public view returns (uint256) {\r\n        if (scaleCount == 0) return 0;\r\n        uint16 left = 0;\r\n        uint16 right = scaleCount - 1;\r\n        while (left <= right) {\r\n            uint16 mid = left + (right - left) / 2;\r\n            CreditLimitScale memory scale = creditLimitScales[mid];\r\n            if (score < scale.minScore) {\r\n                if (mid == 0) break;\r\n                right = mid - 1;\r\n            } else if (score > scale.maxScore) {\r\n                left = mid + 1;\r\n            } else {\r\n                return scale.creditLimit;\r\n            }\r\n        }\r\n        return 0;\r\n    }\r\n\r\n    // --- borrower loan request (optional step) ---\r\n    // Borrower can request a loan and provide intended merchant address for settlement.\r\n    function requestLoan(address tokenToBorrow, uint256 requestedAmount, address merchantAddr) external whenNotPaused {\r\n        require(!_isPrivileged(msg.sender), \"LoanManager: privileged users cannot borrow\");\r\n        require(tokenToBorrow != address(0), \"LoanManager: zero token\");\r\n        require(merchantAddr != address(0), \"LoanManager: zero merchant\");\r\n        require(!loans[msg.sender].active, \"LoanManager: one loan at a time\");\r\n\r\n        uint16 score = creditNFT.getCreditScoreByBorrower(msg.sender);\r\n        uint256 nftLimit = creditNFT.getCreditLimitByBorrower(msg.sender);\r\n        uint256 scaleMin = getCreditLimitByScore(score);\r\n\r\n        require(requestedAmount > 0, \"LoanManager: zero amount\");\r\n        require(score > 0, \"LoanManager: invalid credit score\");\r\n        require(requestedAmount <= nftLimit, \"LoanManager: exceeds credit limit\");\r\n        require(requestedAmount >= scaleMin, \"LoanManager: below minimum for score\");\r\n\r\n        uint256 requiredCollateral = (requestedAmount * 30) / 100;\r\n        uint256 coll = vault.collateral(msg.sender, tokenToBorrow);\r\n        require(coll >= requiredCollateral, \"LoanManager: insufficient collateral\");\r\n\r\n        emit LoanRequested(msg.sender, requestedAmount, merchantAddr);\r\n    }\r\n\r\n    /** \r\n     * approveAndDisburse:\r\n     * - totalAmount: full purchase amount\r\n     * - merchantAddr: settlement address for merchant for this purchase\r\n     *\r\n     * Flow:\r\n     * 1) Borrower pays 34% directly to merchant (contract transfers from borrower -> merchant; borrower must have approved).\r\n     * 2) LiquidityPool provides 66% (pullFunds to this contract).\r\n     * 3) From totalAmount, merchant fee = merchantFeeBps (default 8% of total).\r\n     *    - platform fee = platformFeeOfTotalBps (1% of total)\r\n     *    - lender income = lenderIncomeOfTotalBps (7% of total)\r\n     * 4) Transfer fees to respective fee addresses and transfer remaining lender funds to merchant.\r\n     * 5) Create loan representing outstanding lender principal (66% of total).\r\n     */\r\n    function approveAndDisburse(\r\n        address borrower,\r\n        address tokenToBorrow,\r\n        uint256 totalAmount,\r\n        address merchantAddr\r\n    ) external onlyCreditOfficer nonReentrant whenNotPaused {\r\n        require(!_isPrivileged(borrower), \"LoanManager: privileged cannot borrow\");\r\n        require(borrower != address(0), \"LoanManager: zero borrower\");\r\n        require(merchantAddr != address(0), \"LoanManager: zero merchant\");\r\n        require(!loans[borrower].active, \"LoanManager: existing loan\");\r\n        require(totalAmount > 0, \"LoanManager: zero amount\");\r\n\r\n        uint16 score = creditNFT.getCreditScoreByBorrower(borrower);\r\n        uint256 nftLimit = creditNFT.getCreditLimitByBorrower(borrower);\r\n        require(score > 0, \"LoanManager: invalid score\");\r\n        require(totalAmount <= nftLimit, \"LoanManager: exceeds credit limit\");\r\n\r\n        // split amounts\r\n        uint256 borrowerPart = (totalAmount * 34) / 100; // 34% paid by borrower\r\n        uint256 lenderPart = totalAmount - borrowerPart; // 66% funded by lenders\r\n\r\n        // fees expressed as bps of totalAmount\r\n        uint256 feeAmount = (totalAmount * merchantFeeBps) / 10000;\r\n        uint256 platformFee = (totalAmount * platformFeeOfTotalBps) / 10000;\r\n        uint256 lenderIncome = (totalAmount * lenderIncomeOfTotalBps) / 10000;\r\n        // sanity: platformFee + lenderIncome should equal feeAmount\r\n        require(platformFee + lenderIncome == feeAmount, \"Fee split mismatch\");\r\n\r\n        // 1) Borrower -> merchant (34%)\r\n        if (borrowerPart > 0) {\r\n            ITRC20(tokenToBorrow).safeTransferFrom(borrower, merchantAddr, borrowerPart);\r\n            emit MerchantSettlement(tokenToBorrow, borrowerPart, merchantAddr);\r\n        }\r\n\r\n        // 2) Pull lender funds (66%) from liquidity pool to this contract\r\n        if (lenderPart > 0) {\r\n            liquidityPool.pullFunds(tokenToBorrow, address(this), lenderPart);\r\n        }\r\n\r\n        // 3) Distribute fees\r\n        if (platformFee > 0) {\r\n            ITRC20(tokenToBorrow).safeTransfer(platformFeeAddress, platformFee);\r\n            emit PlatformFeePosted(tokenToBorrow, platformFee, platformFeeAddress);\r\n        }\r\n        if (lenderIncome > 0) {\r\n            ITRC20(tokenToBorrow).safeTransfer(lenderPoolIncomeAddress, lenderIncome);\r\n            emit LenderFeePosted(tokenToBorrow, lenderIncome, lenderPoolIncomeAddress);\r\n        }\r\n\r\n        // 4) Transfer remainder of lender part to merchant (lenderPart - feeAmount)\r\n        uint256 merchantFromLender = 0;\r\n        if (lenderPart > feeAmount) {\r\n            merchantFromLender = lenderPart - feeAmount;\r\n            ITRC20(tokenToBorrow).safeTransfer(merchantAddr, merchantFromLender);\r\n            emit MerchantSettlement(tokenToBorrow, merchantFromLender, merchantAddr);\r\n        }\r\n\r\n        // 5) Create loan for borrower representing lender-funded principal\r\n        //uint8 installments = 2; // second + third repayments\r\n        //uint256 installmentAmount = lenderPart / uint256(installments);\r\n\r\n        // Create loan struct (avoid stack too deep by assigning fields individually)\r\n        Loan storage L = loans[borrower];\r\n        L.borrower = borrower;\r\n        L.token = tokenToBorrow;\r\n        L.merchant = merchantAddr;\r\n        L.principal = lenderPart;\r\n        L.outstanding = lenderPart;\r\n        L.startedAt = block.timestamp;\r\n        L.installmentsPaid = 0;\r\n        L.totalInstallments = 2; // second + third repayments\r\n        L.installmentAmount = lenderPart / 2;\r\n        //L.merchantFee = feeAmount;\r\n        //L.platformFee = platformFee;\r\n        //L.lenderIncomeFee = lenderIncome;\r\n        L.active = true;\r\n\r\n        emit LoanApproved(borrower, totalAmount, tokenToBorrow, merchantAddr);\r\n    }\r\n\r\n    /**\r\n     * repay:\r\n     * Borrower repays installment(s). Funds flow directly into the lenders liquidity pool.\r\n     * Each repayment reduces outstanding; when outstanding reaches 0 loan is closed.\r\n     */\r\n    function repay(address token, uint256 amount) external nonReentrant whenNotPaused {\r\n        require(amount > 0, \"LoanManager: zero amount\");\r\n        Loan storage L = loans[msg.sender];\r\n        require(L.active, \"LoanManager: no active loan\");\r\n        require(token == L.token, \"LoanManager: wrong token\");\r\n\r\n        uint256 payAmount = amount;\r\n        if (payAmount > L.outstanding) {\r\n            payAmount = L.outstanding;\r\n        }\r\n\r\n        // Transfer from borrower into liquidity pool (lenders)\r\n        ITRC20(token).safeTransferFrom(msg.sender, address(liquidityPool), payAmount);\r\n\r\n        L.outstanding = L.outstanding - payAmount;\r\n        L.installmentsPaid = L.installmentsPaid + 1;\r\n\r\n        emit BorrowerRepayment(msg.sender, token, payAmount, L.installmentsPaid);\r\n\r\n        if (L.outstanding == 0) {\r\n            L.active = false;\r\n            emit LoanRepaid(msg.sender);\r\n        }\r\n    }\r\n\r\n    // Keeper/admin liquidation helper\r\n    function liquidateDue(address borrower, uint256 amountNeeded) external nonReentrant whenNotPaused {\r\n        bool isKeeper = _isKeeper(msg.sender);\r\n        bool isAdmin = _isAdmin(msg.sender);\r\n        require(isKeeper || isAdmin, \"LoanManager: unauthorized\");\r\n\r\n        Loan storage L = loans[borrower];\r\n        require(L.active, \"LoanManager: no active loan\");\r\n\r\n        if (amountNeeded >= L.outstanding) {\r\n            L.outstanding = 0;\r\n            L.active = false;\r\n            emit LoanRepaid(borrower);\r\n        } else {\r\n            L.outstanding = L.outstanding - amountNeeded;\r\n        }\r\n    }\r\n\r\n        // Fetch full loan details for a borrower\r\n    function getLoanDetails(address borrower) external view returns (\r\n        address loanBorrower,\r\n        address token,\r\n        address merchant,\r\n        uint256 principal,\r\n        uint256 outstanding,\r\n        uint256 startedAt,\r\n        uint8 installmentsPaid,\r\n        uint8 totalInstallments,\r\n        uint256 installmentAmount,\r\n        bool active\r\n    ) {\r\n        Loan memory L = loans[borrower];\r\n        return (\r\n            L.borrower,\r\n            L.token,\r\n            L.merchant,\r\n            L.principal,\r\n            L.outstanding,\r\n            L.startedAt,\r\n            L.installmentsPaid,\r\n            L.totalInstallments,\r\n            L.installmentAmount,\r\n            L.active\r\n        );\r\n    }\r\n\r\n\r\n    // Expose outstanding\r\n    function outstandingOf(address borrower) external view returns (uint256) {\r\n        return loans[borrower].outstanding;\r\n    }\r\n}\r\n",
  "sourcePath": "C:/workspace/tronbfpay/contracts/v3/LoanManager.sol",
  "compiler": {
    "name": "solc",
    "version": "0.5.4+commit.9549d8ff.Emscripten.clang"
  },
  "schemaVersion": "2.0.1",
  "updatedAt": "2025-09-28T17:24:17.043Z"
}