{
  "contractName": "LoanVaultCoreV11",
  "abi": [
    {
      "inputs": [
        {
          "internalType": "address",
          "name": "_accessControl",
          "type": "address"
        },
        {
          "internalType": "address",
          "name": "_liquidityPool",
          "type": "address"
        }
      ],
      "stateMutability": "nonpayable",
      "type": "constructor"
    },
    {
      "anonymous": false,
      "inputs": [
        {
          "indexed": true,
          "internalType": "address",
          "name": "who",
          "type": "address"
        },
        {
          "indexed": true,
          "internalType": "address",
          "name": "token",
          "type": "address"
        },
        {
          "indexed": false,
          "internalType": "uint256",
          "name": "amount",
          "type": "uint256"
        }
      ],
      "name": "CollateralDeposited",
      "type": "event"
    },
    {
      "anonymous": false,
      "inputs": [
        {
          "indexed": true,
          "internalType": "address",
          "name": "who",
          "type": "address"
        },
        {
          "indexed": true,
          "internalType": "address",
          "name": "token",
          "type": "address"
        },
        {
          "indexed": false,
          "internalType": "uint256",
          "name": "amount",
          "type": "uint256"
        }
      ],
      "name": "CollateralSweep",
      "type": "event"
    },
    {
      "anonymous": false,
      "inputs": [
        {
          "indexed": true,
          "internalType": "address",
          "name": "token",
          "type": "address"
        },
        {
          "indexed": true,
          "internalType": "address",
          "name": "to",
          "type": "address"
        },
        {
          "indexed": false,
          "internalType": "uint256",
          "name": "amount",
          "type": "uint256"
        }
      ],
      "name": "EmergencyWithdraw",
      "type": "event"
    },
    {
      "anonymous": false,
      "inputs": [
        {
          "indexed": true,
          "internalType": "address",
          "name": "by",
          "type": "address"
        }
      ],
      "name": "Paused",
      "type": "event"
    },
    {
      "anonymous": false,
      "inputs": [
        {
          "indexed": true,
          "internalType": "address",
          "name": "by",
          "type": "address"
        }
      ],
      "name": "Unpaused",
      "type": "event"
    },
    {
      "inputs": [],
      "name": "accessControl",
      "outputs": [
        {
          "internalType": "address",
          "name": "",
          "type": "address"
        }
      ],
      "stateMutability": "view",
      "type": "function"
    },
    {
      "inputs": [
        {
          "internalType": "address",
          "name": "",
          "type": "address"
        },
        {
          "internalType": "address",
          "name": "",
          "type": "address"
        }
      ],
      "name": "collateral",
      "outputs": [
        {
          "internalType": "uint256",
          "name": "",
          "type": "uint256"
        }
      ],
      "stateMutability": "view",
      "type": "function"
    },
    {
      "inputs": [
        {
          "internalType": "address",
          "name": "token",
          "type": "address"
        },
        {
          "internalType": "uint256",
          "name": "amount",
          "type": "uint256"
        }
      ],
      "name": "depositCollateral",
      "outputs": [],
      "stateMutability": "nonpayable",
      "type": "function"
    },
    {
      "inputs": [
        {
          "internalType": "address",
          "name": "borrower",
          "type": "address"
        },
        {
          "internalType": "address",
          "name": "token",
          "type": "address"
        }
      ],
      "name": "getVaultBalance",
      "outputs": [
        {
          "internalType": "uint256",
          "name": "",
          "type": "uint256"
        }
      ],
      "stateMutability": "view",
      "type": "function"
    },
    {
      "inputs": [],
      "name": "liquidityPool",
      "outputs": [
        {
          "internalType": "address",
          "name": "",
          "type": "address"
        }
      ],
      "stateMutability": "view",
      "type": "function"
    },
    {
      "inputs": [],
      "name": "pause",
      "outputs": [],
      "stateMutability": "nonpayable",
      "type": "function"
    },
    {
      "inputs": [],
      "name": "paused",
      "outputs": [
        {
          "internalType": "bool",
          "name": "",
          "type": "bool"
        }
      ],
      "stateMutability": "view",
      "type": "function"
    },
    {
      "inputs": [
        {
          "internalType": "address",
          "name": "borrower",
          "type": "address"
        },
        {
          "internalType": "address",
          "name": "token",
          "type": "address"
        },
        {
          "internalType": "uint256",
          "name": "amount",
          "type": "uint256"
        }
      ],
      "name": "removeCollateral",
      "outputs": [],
      "stateMutability": "nonpayable",
      "type": "function"
    },
    {
      "inputs": [
        {
          "internalType": "address",
          "name": "_accessControl",
          "type": "address"
        }
      ],
      "name": "setAccessControl",
      "outputs": [],
      "stateMutability": "nonpayable",
      "type": "function"
    },
    {
      "inputs": [
        {
          "internalType": "address",
          "name": "_liquidityPool",
          "type": "address"
        }
      ],
      "name": "setLiquidityPool",
      "outputs": [],
      "stateMutability": "nonpayable",
      "type": "function"
    },
    {
      "inputs": [
        {
          "components": [
            {
              "internalType": "address",
              "name": "borrower",
              "type": "address"
            },
            {
              "internalType": "address",
              "name": "tokenToBorrow",
              "type": "address"
            },
            {
              "internalType": "address",
              "name": "merchantAddr",
              "type": "address"
            },
            {
              "internalType": "uint256",
              "name": "depositAmount",
              "type": "uint256"
            }
          ],
          "internalType": "struct LoanVaultCoreV11.SweepParams",
          "name": "p",
          "type": "tuple"
        }
      ],
      "name": "sweepCollateral",
      "outputs": [],
      "stateMutability": "nonpayable",
      "type": "function"
    },
    {
      "inputs": [],
      "name": "unpause",
      "outputs": [],
      "stateMutability": "nonpayable",
      "type": "function"
    }
  ],
  "bytecode": "0x60803461011e57601f610ddc38819003918201601f19168301916001600160401b0383118484101761012257808492604094855283398101031261011e57610052602061004b83610136565b9201610136565b6001600160a01b039091169081156100e4576001600160a01b03169081156100aa575f80546001600160a01b031916919091179055600180546001600160a81b031916919091179055604051610c91908161014b8239f35b60405162461bcd60e51b81526020600482015260126024820152711e995c9bc81b1a5c5d5a591a5d1e541bdbdb60721b6044820152606490fd5b60405162461bcd60e51b81526020600482015260126024820152711e995c9bc81858d8d95cdcd0dbdb9d1c9bdb60721b6044820152606490fd5b5f80fd5b634e487b7160e01b5f52604160045260245ffd5b51906001600160a01b038216820361011e5756fe60806040526004361015610011575f80fd5b5f3560e01c8063018770201461093257806313007d551461090b57806319129e5a146108b85780631dd7c139146106c75780633f4ba83a146106395780635c975abb14610614578063665a11ca146105ec5780638456cb5914610555578063a5d5db0c14610261578063abcdc3ce14610211578063cc218ece146102115763cce19f811461009d575f80fd5b3461020d57606036600319011261020d576100b6610987565b6100be61099d565b7fe783af515f58fd3380d481c6745c4302841fd36d7c108204fca4e0d7e40c6f5060206044356100f56100f033610bda565b6109b3565b6001600160a01b038416946101c5905f908190881515806101fb575b61011a906109ff565b610125851515610a7c565b60018060a01b0316968782526002865260408220898352865261014e8560408420541015610ab6565b878252600286526040822089835286526040822061016d868254610b02565b90556040516323b872dd60e01b878201908152306024830152336044830152606482018790529083906101ad81608481015b03601f198101835282610b0f565b51925af16101b9610b45565b816101ce575b50610b9c565b604051908152a3005b80518015925082156101e3575b50505f6101bf565b6101f4925081018501908501610b84565b5f806101db565b506001600160a01b0381161515610111565b5f80fd5b3461020d57604036600319011261020d5761022a610987565b61023261099d565b6001600160a01b039182165f908152600260209081526040808320949093168252928352819020549051908152f35b3461020d57604036600319011261020d5761027a610987565b60243560ff60015460a01c16610518576001600160a01b0382169182156104e6576102a6821515610a7c565b604051636eb1769f60e11b8152336004820152306024820152602081604481875afa80156104685783915f916104b1575b5010610473576040516370a0823160e01b8152336004820152602081602481875afa80156104685783915f91610433575b50106103f7576040516323b872dd60e01b6020820190815233602483015230604483015260648201849052610362925f92839290839061034b816084810161019f565b51925af1610357610b45565b816103c85750610b9c565b335f52600260205260405f20825f5260205260405f208054908282018092116103b457556040519081527ff1c0dd7e9b98bbff859029005ef89b127af049cd18df1a8d79f0b7e019911e5660203392a3005b634e487b7160e01b5f52601160045260245ffd5b80518015925082156103dd575b5050846101bf565b6103f09250602080918301019101610b84565b84806103d5565b60405162461bcd60e51b8152602060048201526014602482015273696e73756666696369656e742062616c616e636560601b6044820152606490fd5b9150506020813d602011610460575b8161044f60209383610b0f565b8101031261020d5782905185610308565b3d9150610442565b6040513d5f823e3d90fd5b60405162461bcd60e51b8152602060048201526016602482015275696e73756666696369656e7420616c6c6f77616e636560501b6044820152606490fd5b9150506020813d6020116104de575b816104cd60209383610b0f565b8101031261020d57829051856102d7565b3d91506104c0565b60405162461bcd60e51b815260206004820152600a6024820152693d32b937903a37b5b2b760b11b6044820152606490fd5b60405162461bcd60e51b8152602060048201526015602482015274131bd85b95985d5b1d10dbdc994e881c185d5cd959605a1b6044820152606490fd5b3461020d575f36600319011261020d576105716100f033610bda565b60015460ff8160a01c166105b65760ff60a01b1916600160a01b17600155337f62e78cea01bee320cd4e420270b5ea74000d11b0c9f74754ebdbfc544b05a2585f80a2005b60405162461bcd60e51b815260206004820152600e60248201526d185b1c9958591e481c185d5cd95960921b6044820152606490fd5b3461020d575f36600319011261020d576001546040516001600160a01b039091168152602090f35b3461020d575f36600319011261020d57602060ff60015460a01c166040519015158152f35b3461020d575f36600319011261020d576106556100f033610bda565b60015460ff8160a01c16156106955760ff60a01b1916600155337f5db9ee0a495bf2e6ff9c91a7834c1ba4fdd244a5e8aa4e537bd38aeae4b073aa5f80a2005b60405162461bcd60e51b815260206004820152600a6024820152691b9bdd081c185d5cd95960b21b6044820152606490fd5b3461020d57608036600319011261020d576106e46100f033610bda565b6001600160a01b036106f4610a3a565b1615158061089f575b80610881575b61070c906109ff565b60643561071a811515610a7c565b6001600160a01b0361072a610a50565b165f52600260205260405f2061073e610a3a565b60018060a01b03165f5260205261075b8160405f20541015610ab6565b6001600160a01b0361076b610a50565b165f52600260205260405f2061077f610a3a565b60018060a01b03165f5260205260405f2061079b828254610b02565b90556108075f806107aa610a3a565b6107b2610a66565b6040516323b872dd60e01b602082019081523060248301526001600160a01b0390921660448201526064810187905283906107f0816084810161019f565b51925af16107fc610b45565b816108525750610b9c565b61080f610a50565b907fe783af515f58fd3380d481c6745c4302841fd36d7c108204fca4e0d7e40c6f50602061083b610a3a565b6040519384526001600160a01b03908116941692a3005b8051801592508215610867575b5050836101bf565b61087a9250602080918301019101610b84565b838061085f565b5061070c6001600160a01b03610895610a66565b1615159050610703565b506001600160a01b036108b0610a50565b1615156106fd565b3461020d57602036600319011261020d576108d1610987565b6108dd6100f033610bda565b6001600160a01b03166108f18115156109ff565b6bffffffffffffffffffffffff60a01b5f5416175f555f80f35b3461020d575f36600319011261020d575f546040516001600160a01b039091168152602090f35b3461020d57602036600319011261020d5761094b610987565b6109576100f033610bda565b6001600160a01b031661096b8115156109ff565b6bffffffffffffffffffffffff60a01b60015416176001555f80f35b600435906001600160a01b038216820361020d57565b602435906001600160a01b038216820361020d57565b156109ba57565b60405162461bcd60e51b815260206004820152601d60248201527f4c6f616e5661756c74436f72653a206e6f7420617574686f72697a65640000006044820152606490fd5b15610a0657565b60405162461bcd60e51b815260206004820152600c60248201526b7a65726f206164647265737360a01b6044820152606490fd5b6024356001600160a01b038116810361020d5790565b6004356001600160a01b038116810361020d5790565b6044356001600160a01b038116810361020d5790565b15610a8357565b60405162461bcd60e51b815260206004820152600b60248201526a1e995c9bc8185b5bdd5b9d60aa1b6044820152606490fd5b15610abd57565b60405162461bcd60e51b815260206004820152601760248201527f696e73756666696369656e7420636f6c6c61746572616c0000000000000000006044820152606490fd5b919082039182116103b457565b90601f8019910116810190811067ffffffffffffffff821117610b3157604052565b634e487b7160e01b5f52604160045260245ffd5b3d15610b7f573d9067ffffffffffffffff8211610b315760405191610b74601f8201601f191660200184610b0f565b82523d5f602084013e565b606090565b9081602091031261020d5751801515810361020d5790565b15610ba357565b60405162461bcd60e51b815260206004820152600f60248201526e1d1c985b9cd9995c8819985a5b1959608a1b6044820152606490fd5b5f546001600160a01b03168015159182610bf357505090565b604051630935e01b60e21b81526001600160a01b0390911660048201529150602090829060249082905afa908115610468575f91610c2f575090565b610c51915060203d602011610c54575b610c498183610b0f565b810190610b84565b90565b503d610c3f56fea2646970667358221220575f1d38310e24c0905aa7d461f1f441acb7f79f1ba6b9ba74fbab142b65766c64736f6c634300081e0033",
  "source": "// SPDX-License-Identifier: MIT\r\npragma solidity ^0.8.23;\r\n\r\ninterface ILiquidityPool {\r\n    function pullFunds(address token, address to, uint256 amount) external;\r\n}\r\n\r\ninterface ITRC20 {\r\n    function balanceOf(address account) external view returns (uint256);\r\n    function allowance(address owner, address spender) external view returns (uint256);\r\n    function transferFrom(address sender, address recipient, uint256 amount) external returns (bool);\r\n}\r\n\r\ninterface IAccessControl {\r\n    function isAdmin(address user) external view returns (bool);\r\n}\r\n\r\ncontract LoanVaultCoreV11 {\r\n    address public accessControl;\r\n    address public liquidityPool;\r\n    bool public paused;\r\n\r\n    struct SweepParams {\r\n        address borrower;\r\n        address tokenToBorrow;\r\n        address merchantAddr;\r\n        uint256 depositAmount;\r\n    }\r\n\r\n    // borrower => token => collateral amount\r\n    mapping(address => mapping(address => uint256)) public collateral;\r\n\r\n    event CollateralDeposited(address indexed who, address indexed token, uint256 amount);\r\n    event CollateralSweep(address indexed who, address indexed token, uint256 amount);\r\n    event Paused(address indexed by);\r\n    event Unpaused(address indexed by);\r\n    event EmergencyWithdraw(address indexed token, address indexed to, uint256 amount);\r\n\r\n    modifier onlyAuthorized() {\r\n        require(_isAuthorized(msg.sender), \"LoanVaultCore: not authorized\");\r\n        _;\r\n    }\r\n\r\n    modifier whenNotPaused() {\r\n        require(!paused, \"LoanVaultCore: paused\");\r\n        _;\r\n    }\r\n\r\n    constructor(address _accessControl, address _liquidityPool) {\r\n        require(_accessControl != address(0), \"zero accessControl\");\r\n        require(_liquidityPool != address(0), \"zero liquidityPool\");\r\n        accessControl = _accessControl;\r\n        liquidityPool = _liquidityPool;\r\n        paused = false;\r\n    }\r\n\r\n    function pause() external onlyAuthorized {\r\n        require(!paused, \"already paused\");\r\n        paused = true;\r\n        emit Paused(msg.sender);\r\n    }\r\n\r\n    function unpause() external onlyAuthorized {\r\n        require(paused, \"not paused\");\r\n        paused = false;\r\n        emit Unpaused(msg.sender);\r\n    }\r\n\r\n    function depositCollateral(address token, uint256 amount) external whenNotPaused {\r\n        require(token != address(0), \"zero token\");\r\n        require(amount > 0, \"zero amount\");\r\n\r\n        uint256 allowed = ITRC20(token).allowance(msg.sender, address(this));\r\n        require(allowed >= amount, \"insufficient allowance\");\r\n\r\n        uint256 bal = ITRC20(token).balanceOf(msg.sender);\r\n        require(bal >= amount, \"insufficient balance\");\r\n\r\n        // Low-level TRC20 transferFrom\r\n        (bool success, bytes memory data) = token.call(\r\n            abi.encodeWithSelector(ITRC20(token).transferFrom.selector, msg.sender, address(this), amount)\r\n        );\r\n        require(success && (data.length == 0 || abi.decode(data, (bool))), \"transfer failed\");\r\n\r\n        collateral[msg.sender][token] += amount;\r\n        emit CollateralDeposited(msg.sender, token, amount);\r\n    }\r\n\r\n    function removeCollateral(address borrower, address token, uint256 amount) external onlyAuthorized {\r\n        require(token != address(0) && borrower != address(0), \"zero address\");\r\n        require(amount > 0, \"zero amount\");\r\n        require(collateral[borrower][token] >= amount, \"insufficient collateral\");\r\n\r\n        collateral[borrower][token] -= amount;\r\n\r\n        (bool success, bytes memory data) = token.call(\r\n            abi.encodeWithSelector(ITRC20.transferFrom.selector, address(this), msg.sender, amount)\r\n        );\r\n        require(success && (data.length == 0 || abi.decode(data, (bool))), \"transfer failed\");\r\n\r\n        emit CollateralSweep(borrower, token, amount);\r\n    }\r\n\r\n    function sweepCollateral(SweepParams calldata p) external onlyAuthorized {\r\n        require(p.tokenToBorrow != address(0) && p.borrower != address(0) && p.merchantAddr != address(0), \"zero address\");\r\n        require(p.depositAmount > 0, \"zero amount\");\r\n        require(collateral[p.borrower][p.tokenToBorrow] >= p.depositAmount, \"insufficient collateral\");\r\n\r\n        collateral[p.borrower][p.tokenToBorrow] -= p.depositAmount;\r\n\r\n        (bool success, bytes memory data) = p.tokenToBorrow.call(\r\n            abi.encodeWithSelector(ITRC20.transferFrom.selector, address(this), p.merchantAddr, p.depositAmount)\r\n        );\r\n        require(success && (data.length == 0 || abi.decode(data, (bool))), \"transfer failed\");\r\n\r\n        emit CollateralSweep(p.borrower, p.tokenToBorrow, p.depositAmount);\r\n    }\r\n\r\n    function setAccessControl(address _accessControl) external onlyAuthorized {\r\n        require(_accessControl != address(0), \"zero address\");\r\n        accessControl = _accessControl;\r\n    }\r\n\r\n    function setLiquidityPool(address _liquidityPool) external onlyAuthorized {\r\n        require(_liquidityPool != address(0), \"zero address\");\r\n        liquidityPool = _liquidityPool;\r\n    }\r\n\r\n    function getVaultBalance(address borrower, address token) external view returns (uint256) {\r\n        return collateral[borrower][token];\r\n    }\r\n\r\n    function _isAuthorized(address user) internal view returns (bool) {\r\n        return accessControl != address(0) && IAccessControl(accessControl).isAdmin(user);\r\n    }\r\n}\r\n",
  "sourcePath": "C:/workspace/tronbfpay/contracts/v3/LoanVaultCoreV11.sol",
  "compiler": {
    "name": "solc",
    "version": "0.8.30+commit.73712a01.Emscripten.clang"
  },
  "schemaVersion": "2.0.1",
  "updatedAt": "2025-10-09T13:04:12.867Z"
}