{
  "contractName": "LoanVaultCore",
  "abi": [
    {
      "constant": false,
      "inputs": [
        {
          "name": "_liquidityPool",
          "type": "address"
        }
      ],
      "name": "setLiquidityPool",
      "outputs": [],
      "payable": false,
      "stateMutability": "nonpayable",
      "type": "function"
    },
    {
      "constant": true,
      "inputs": [],
      "name": "accessControl",
      "outputs": [
        {
          "name": "",
          "type": "address"
        }
      ],
      "payable": false,
      "stateMutability": "view",
      "type": "function"
    },
    {
      "constant": false,
      "inputs": [
        {
          "name": "_accessControl",
          "type": "address"
        }
      ],
      "name": "setAccessControl",
      "outputs": [],
      "payable": false,
      "stateMutability": "nonpayable",
      "type": "function"
    },
    {
      "constant": false,
      "inputs": [
        {
          "name": "borrower",
          "type": "address"
        },
        {
          "name": "token",
          "type": "address"
        },
        {
          "name": "amount",
          "type": "uint256"
        }
      ],
      "name": "sweepCollateral",
      "outputs": [],
      "payable": false,
      "stateMutability": "nonpayable",
      "type": "function"
    },
    {
      "constant": false,
      "inputs": [],
      "name": "unpause",
      "outputs": [],
      "payable": false,
      "stateMutability": "nonpayable",
      "type": "function"
    },
    {
      "constant": true,
      "inputs": [],
      "name": "paused",
      "outputs": [
        {
          "name": "",
          "type": "bool"
        }
      ],
      "payable": false,
      "stateMutability": "view",
      "type": "function"
    },
    {
      "constant": true,
      "inputs": [],
      "name": "liquidityPool",
      "outputs": [
        {
          "name": "",
          "type": "address"
        }
      ],
      "payable": false,
      "stateMutability": "view",
      "type": "function"
    },
    {
      "constant": false,
      "inputs": [],
      "name": "pause",
      "outputs": [],
      "payable": false,
      "stateMutability": "nonpayable",
      "type": "function"
    },
    {
      "constant": false,
      "inputs": [
        {
          "name": "token",
          "type": "address"
        },
        {
          "name": "amount",
          "type": "uint256"
        }
      ],
      "name": "depositCollateral",
      "outputs": [],
      "payable": false,
      "stateMutability": "nonpayable",
      "type": "function"
    },
    {
      "constant": true,
      "inputs": [
        {
          "name": "",
          "type": "address"
        },
        {
          "name": "",
          "type": "address"
        }
      ],
      "name": "collateral",
      "outputs": [
        {
          "name": "",
          "type": "uint256"
        }
      ],
      "payable": false,
      "stateMutability": "view",
      "type": "function"
    },
    {
      "constant": false,
      "inputs": [
        {
          "name": "borrower",
          "type": "address"
        },
        {
          "name": "token",
          "type": "address"
        },
        {
          "name": "amount",
          "type": "uint256"
        }
      ],
      "name": "removeCollateral",
      "outputs": [],
      "payable": false,
      "stateMutability": "nonpayable",
      "type": "function"
    },
    {
      "inputs": [
        {
          "name": "_accessControl",
          "type": "address"
        },
        {
          "name": "_liquidityPool",
          "type": "address"
        }
      ],
      "payable": false,
      "stateMutability": "nonpayable",
      "type": "constructor"
    },
    {
      "anonymous": false,
      "inputs": [
        {
          "indexed": true,
          "name": "who",
          "type": "address"
        },
        {
          "indexed": true,
          "name": "token",
          "type": "address"
        },
        {
          "indexed": false,
          "name": "amount",
          "type": "uint256"
        }
      ],
      "name": "CollateralDeposited",
      "type": "event"
    },
    {
      "anonymous": false,
      "inputs": [
        {
          "indexed": true,
          "name": "who",
          "type": "address"
        },
        {
          "indexed": true,
          "name": "token",
          "type": "address"
        },
        {
          "indexed": false,
          "name": "amount",
          "type": "uint256"
        }
      ],
      "name": "CollateralRemoved",
      "type": "event"
    },
    {
      "anonymous": false,
      "inputs": [
        {
          "indexed": true,
          "name": "by",
          "type": "address"
        }
      ],
      "name": "Paused",
      "type": "event"
    },
    {
      "anonymous": false,
      "inputs": [
        {
          "indexed": true,
          "name": "by",
          "type": "address"
        }
      ],
      "name": "Unpaused",
      "type": "event"
    },
    {
      "anonymous": false,
      "inputs": [
        {
          "indexed": true,
          "name": "token",
          "type": "address"
        },
        {
          "indexed": true,
          "name": "to",
          "type": "address"
        },
        {
          "indexed": false,
          "name": "amount",
          "type": "uint256"
        }
      ],
      "name": "EmergencyWithdraw",
      "type": "event"
    }
  ],
  "bytecode": "0x608060405234801561001057600080fd5b50604051604080611d778339810180604052604081101561003057600080fd5b8101908080519060200190929190805190602001909291905050506001600081905550600073ffffffffffffffffffffffffffffffffffffffff168273ffffffffffffffffffffffffffffffffffffffff16141515156100db576040517f08c379a0000000000000000000000000000000000000000000000000000000008152600401808060200182810382526021815260200180611d566021913960400191505060405180910390fd5b600073ffffffffffffffffffffffffffffffffffffffff168173ffffffffffffffffffffffffffffffffffffffff1614151515610163576040517f08c379a0000000000000000000000000000000000000000000000000000000008152600401808060200182810382526021815260200180611d356021913960400191505060405180910390fd5b81600160006101000a81548173ffffffffffffffffffffffffffffffffffffffff021916908373ffffffffffffffffffffffffffffffffffffffff16021790555080600260006101000a81548173ffffffffffffffffffffffffffffffffffffffff021916908373ffffffffffffffffffffffffffffffffffffffff1602179055506000600260146101000a81548160ff0219169083151502179055505050611b24806102116000396000f3fe608060405234801561001057600080fd5b50600436106100c6576000357c0100000000000000000000000000000000000000000000000000000000900480635c975abb1161008e5780635c975abb14610215578063665a11ca146102375780638456cb5914610281578063a5d5db0c1461028b578063cc218ece146102d9578063cce19f8114610351576100c6565b806301877020146100cb57806313007d551461010f57806319129e5a14610159578063297fde2c1461019d5780633f4ba83a1461020b575b600080fd5b61010d600480360360208110156100e157600080fd5b81019080803573ffffffffffffffffffffffffffffffffffffffff1690602001909291905050506103bf565b005b6101176105af565b604051808273ffffffffffffffffffffffffffffffffffffffff1673ffffffffffffffffffffffffffffffffffffffff16815260200191505060405180910390f35b61019b6004803603602081101561016f57600080fd5b81019080803573ffffffffffffffffffffffffffffffffffffffff1690602001909291905050506105d5565b005b610209600480360360608110156101b357600080fd5b81019080803573ffffffffffffffffffffffffffffffffffffffff169060200190929190803573ffffffffffffffffffffffffffffffffffffffff169060200190929190803590602001909291905050506107c5565b005b610213610bfa565b005b61021d610d5b565b604051808215151515815260200191505060405180910390f35b61023f610d6e565b604051808273ffffffffffffffffffffffffffffffffffffffff1673ffffffffffffffffffffffffffffffffffffffff16815260200191505060405180910390f35b610289610d94565b005b6102d7600480360360408110156102a157600080fd5b81019080803573ffffffffffffffffffffffffffffffffffffffff16906020019092919080359060200190929190505050610ef6565b005b61033b600480360360408110156102ef57600080fd5b81019080803573ffffffffffffffffffffffffffffffffffffffff169060200190929190803573ffffffffffffffffffffffffffffffffffffffff1690602001909291905050506111bd565b6040518082815260200191505060405180910390f35b6103bd6004803603606081101561036757600080fd5b81019080803573ffffffffffffffffffffffffffffffffffffffff169060200190929190803573ffffffffffffffffffffffffffffffffffffffff169060200190929190803590602001909291905050506111e2565b005b6001600054141515610439576040517f08c379a000000000000000000000000000000000000000000000000000000000815260040180806020018281038252600e8152602001807f5265656e7472616e742063616c6c00000000000000000000000000000000000081525060200191505060405180910390fd5b6002600081905550600073ffffffffffffffffffffffffffffffffffffffff168173ffffffffffffffffffffffffffffffffffffffff16141515156104e6576040517f08c379a000000000000000000000000000000000000000000000000000000000815260040180806020018281038252601b8152602001807f4c6f616e5661756c74436f72653a207a65726f2061646472657373000000000081525060200191505060405180910390fd5b6104ef33611617565b1515610563576040517f08c379a000000000000000000000000000000000000000000000000000000000815260040180806020018281038252601d8152602001807f4c6f616e5661756c74436f72653a206e6f7420617574686f72697a656400000081525060200191505060405180910390fd5b80600260006101000a81548173ffffffffffffffffffffffffffffffffffffffff021916908373ffffffffffffffffffffffffffffffffffffffff160217905550600160008190555050565b600160009054906101000a900473ffffffffffffffffffffffffffffffffffffffff1681565b600160005414151561064f576040517f08c379a000000000000000000000000000000000000000000000000000000000815260040180806020018281038252600e8152602001807f5265656e7472616e742063616c6c00000000000000000000000000000000000081525060200191505060405180910390fd5b6002600081905550600073ffffffffffffffffffffffffffffffffffffffff168173ffffffffffffffffffffffffffffffffffffffff16141515156106fc576040517f08c379a000000000000000000000000000000000000000000000000000000000815260040180806020018281038252601b8152602001807f4c6f616e5661756c74436f72653a207a65726f2061646472657373000000000081525060200191505060405180910390fd5b61070533611617565b1515610779576040517f08c379a000000000000000000000000000000000000000000000000000000000815260040180806020018281038252601d8152602001807f4c6f616e5661756c74436f72653a206e6f7420617574686f72697a656400000081525060200191505060405180910390fd5b80600160006101000a81548173ffffffffffffffffffffffffffffffffffffffff021916908373ffffffffffffffffffffffffffffffffffffffff160217905550600160008190555050565b600073ffffffffffffffffffffffffffffffffffffffff168273ffffffffffffffffffffffffffffffffffffffff161415151561086a576040517f08c379a00000000000000000000000000000000000000000000000000000000081526004018080602001828103825260198152602001807f4c6f616e5661756c74436f72653a207a65726f20746f6b656e0000000000000081525060200191505060405180910390fd5b600073ffffffffffffffffffffffffffffffffffffffff168373ffffffffffffffffffffffffffffffffffffffff161415151561090f576040517f08c379a000000000000000000000000000000000000000000000000000000000815260040180806020018281038252601c8152602001807f4c6f616e5661756c74436f72653a207a65726f20626f72726f7765720000000081525060200191505060405180910390fd5b600081111515610987576040517f08c379a000000000000000000000000000000000000000000000000000000000815260040180806020018281038252601a8152602001807f4c6f616e5661756c74436f72653a207a65726f20616d6f756e7400000000000081525060200191505060405180910390fd5b61099033611617565b1515610a04576040517f08c379a000000000000000000000000000000000000000000000000000000000815260040180806020018281038252601d8152602001807f4c6f616e5661756c74436f72653a206e6f7420617574686f72697a656400000081525060200191505060405180910390fd5b80600360008573ffffffffffffffffffffffffffffffffffffffff1673ffffffffffffffffffffffffffffffffffffffff16815260200190815260200160002060008473ffffffffffffffffffffffffffffffffffffffff1673ffffffffffffffffffffffffffffffffffffffff1681526020019081526020016000205410151515610adb576040517f08c379a0000000000000000000000000000000000000000000000000000000008152600401808060200182810382526026815260200180611ad36026913960400191505060405180910390fd5b80600360008573ffffffffffffffffffffffffffffffffffffffff1673ffffffffffffffffffffffffffffffffffffffff16815260200190815260200160002060008473ffffffffffffffffffffffffffffffffffffffff1673ffffffffffffffffffffffffffffffffffffffff16815260200190815260200160002060008282540392505081905550610b9033828473ffffffffffffffffffffffffffffffffffffffff166117bf9092919063ffffffff16565b8173ffffffffffffffffffffffffffffffffffffffff168373ffffffffffffffffffffffffffffffffffffffff167fce4d55ad6d5734bd8b947e19d64c51774bdc08ab4b2e59ee3a764476bea650de836040518082815260200191505060405180910390a3505050565b610c0333611617565b1515610c77576040517f08c379a000000000000000000000000000000000000000000000000000000000815260040180806020018281038252601d8152602001807f4c6f616e5661756c74436f72653a206e6f7420617574686f72697a656400000081525060200191505060405180910390fd5b600260149054906101000a900460ff161515610cfb576040517f08c379a00000000000000000000000000000000000000000000000000000000081526004018080602001828103825260198152602001807f4c6f616e5661756c74436f72653a206e6f74207061757365640000000000000081525060200191505060405180910390fd5b6000600260146101000a81548160ff0219169083151502179055503373ffffffffffffffffffffffffffffffffffffffff167f5db9ee0a495bf2e6ff9c91a7834c1ba4fdd244a5e8aa4e537bd38aeae4b073aa60405160405180910390a2565b600260149054906101000a900460ff1681565b600260009054906101000a900473ffffffffffffffffffffffffffffffffffffffff1681565b610d9d33611617565b1515610e11576040517f08c379a000000000000000000000000000000000000000000000000000000000815260040180806020018281038252601d8152602001807f4c6f616e5661756c74436f72653a206e6f7420617574686f72697a656400000081525060200191505060405180910390fd5b600260149054906101000a900460ff16151515610e96576040517f08c379a000000000000000000000000000000000000000000000000000000000815260040180806020018281038252601d8152602001807f4c6f616e5661756c74436f72653a20616c72656164792070617573656400000081525060200191505060405180910390fd5b6001600260146101000a81548160ff0219169083151502179055503373ffffffffffffffffffffffffffffffffffffffff167f62e78cea01bee320cd4e420270b5ea74000d11b0c9f74754ebdbfc544b05a25860405160405180910390a2565b6001600054141515610f70576040517f08c379a000000000000000000000000000000000000000000000000000000000815260040180806020018281038252600e8152602001807f5265656e7472616e742063616c6c00000000000000000000000000000000000081525060200191505060405180910390fd5b6002600081905550600073ffffffffffffffffffffffffffffffffffffffff168273ffffffffffffffffffffffffffffffffffffffff161415151561101d576040517f08c379a00000000000000000000000000000000000000000000000000000000081526004018080602001828103825260198152602001807f4c6f616e5661756c74436f72653a207a65726f20746f6b656e0000000000000081525060200191505060405180910390fd5b600081111515611095576040517f08c379a000000000000000000000000000000000000000000000000000000000815260040180806020018281038252601a8152602001807f4c6f616e5661756c74436f72653a207a65726f20616d6f756e7400000000000081525060200191505060405180910390fd5b6110c23330838573ffffffffffffffffffffffffffffffffffffffff1661191c909392919063ffffffff16565b80600360003373ffffffffffffffffffffffffffffffffffffffff1673ffffffffffffffffffffffffffffffffffffffff16815260200190815260200160002060008473ffffffffffffffffffffffffffffffffffffffff1673ffffffffffffffffffffffffffffffffffffffff168152602001908152602001600020600082825401925050819055508173ffffffffffffffffffffffffffffffffffffffff163373ffffffffffffffffffffffffffffffffffffffff167ff1c0dd7e9b98bbff859029005ef89b127af049cd18df1a8d79f0b7e019911e56836040518082815260200191505060405180910390a360016000819055505050565b6003602052816000526040600020602052806000526040600020600091509150505481565b600073ffffffffffffffffffffffffffffffffffffffff168273ffffffffffffffffffffffffffffffffffffffff1614151515611287576040517f08c379a00000000000000000000000000000000000000000000000000000000081526004018080602001828103825260198152602001807f4c6f616e5661756c74436f72653a207a65726f20746f6b656e0000000000000081525060200191505060405180910390fd5b600073ffffffffffffffffffffffffffffffffffffffff168373ffffffffffffffffffffffffffffffffffffffff161415151561132c576040517f08c379a000000000000000000000000000000000000000000000000000000000815260040180806020018281038252601c8152602001807f4c6f616e5661756c74436f72653a207a65726f20626f72726f7765720000000081525060200191505060405180910390fd5b6000811115156113a4576040517f08c379a000000000000000000000000000000000000000000000000000000000815260040180806020018281038252601a8152602001807f4c6f616e5661756c74436f72653a207a65726f20616d6f756e7400000000000081525060200191505060405180910390fd5b6113ad33611617565b1515611421576040517f08c379a000000000000000000000000000000000000000000000000000000000815260040180806020018281038252601d8152602001807f4c6f616e5661756c74436f72653a206e6f7420617574686f72697a656400000081525060200191505060405180910390fd5b80600360008573ffffffffffffffffffffffffffffffffffffffff1673ffffffffffffffffffffffffffffffffffffffff16815260200190815260200160002060008473ffffffffffffffffffffffffffffffffffffffff1673ffffffffffffffffffffffffffffffffffffffff16815260200190815260200160002054101515156114f8576040517f08c379a0000000000000000000000000000000000000000000000000000000008152600401808060200182810382526026815260200180611ad36026913960400191505060405180910390fd5b80600360008573ffffffffffffffffffffffffffffffffffffffff1673ffffffffffffffffffffffffffffffffffffffff16815260200190815260200160002060008473ffffffffffffffffffffffffffffffffffffffff1673ffffffffffffffffffffffffffffffffffffffff168152602001908152602001600020600082825403925050819055506115ad33828473ffffffffffffffffffffffffffffffffffffffff166117bf9092919063ffffffff16565b8173ffffffffffffffffffffffffffffffffffffffff168373ffffffffffffffffffffffffffffffffffffffff167fce4d55ad6d5734bd8b947e19d64c51774bdc08ab4b2e59ee3a764476bea650de836040518082815260200191505060405180910390a3505050565b60008073ffffffffffffffffffffffffffffffffffffffff16600160009054906101000a900473ffffffffffffffffffffffffffffffffffffffff1673ffffffffffffffffffffffffffffffffffffffff16141515156116c2576040517f08c379a0000000000000000000000000000000000000000000000000000000008152600401808060200182810382526024815260200180611aaf6024913960400191505060405180910390fd5b600160009054906101000a900473ffffffffffffffffffffffffffffffffffffffff1673ffffffffffffffffffffffffffffffffffffffff166324d7806c836040518263ffffffff167c0100000000000000000000000000000000000000000000000000000000028152600401808273ffffffffffffffffffffffffffffffffffffffff1673ffffffffffffffffffffffffffffffffffffffff16815260200191505060206040518083038186803b15801561177d57600080fd5b505afa158015611791573d6000803e3d6000fd5b505050506040513d60208110156117a757600080fd5b81019080805190602001909291905050509050919050565b60008373ffffffffffffffffffffffffffffffffffffffff1663a9059cbb84846040518363ffffffff167c0100000000000000000000000000000000000000000000000000000000028152600401808373ffffffffffffffffffffffffffffffffffffffff1673ffffffffffffffffffffffffffffffffffffffff16815260200182815260200192505050602060405180830381600087803b15801561186457600080fd5b505af1158015611878573d6000803e3d6000fd5b505050506040513d602081101561188e57600080fd5b81019080805190602001909291905050509050801515611916576040517f08c379a000000000000000000000000000000000000000000000000000000000815260040180806020018281038252601a8152602001807f5361666554524332303a207472616e73666572206661696c656400000000000081525060200191505060405180910390fd5b50505050565b60008473ffffffffffffffffffffffffffffffffffffffff166323b872dd8585856040518463ffffffff167c0100000000000000000000000000000000000000000000000000000000028152600401808473ffffffffffffffffffffffffffffffffffffffff1673ffffffffffffffffffffffffffffffffffffffff1681526020018373ffffffffffffffffffffffffffffffffffffffff1673ffffffffffffffffffffffffffffffffffffffff1681526020018281526020019350505050602060405180830381600087803b1580156119f557600080fd5b505af1158015611a09573d6000803e3d6000fd5b505050506040513d6020811015611a1f57600080fd5b81019080805190602001909291905050509050801515611aa7576040517f08c379a000000000000000000000000000000000000000000000000000000000815260040180806020018281038252601e8152602001807f5361666554524332303a207472616e7366657246726f6d206661696c6564000081525060200191505060405180910390fd5b505050505056fe4c6f616e5661756c74436f72653a20616363657373436f6e74726f6c206e6f74207365744c6f616e5661756c74436f72653a20696e73756666696369656e7420636f6c6c61746572616ca165627a7a72305820aeb1f41cf5fdbbcb98a15d74c5aa09732b9f2f8040c230ff0a3663fbf120da2a00294c6f616e5661756c74436f72653a207a65726f206c6971756964697479506f6f6c4c6f616e5661756c74436f72653a207a65726f20616363657373436f6e74726f6c",
  "source": "// SPDX-License-Identifier: MIT\r\npragma solidity ^0.5.4;\r\n\r\nimport \"../libs/ReentrancyGuard.sol\";\r\nimport \"../libs/SafeTRC20.sol\";\r\n\r\ninterface ILiquidityPool {\r\n    function pullFunds(address token, address to, uint256 amount) external;\r\n}\r\n\r\ninterface IAccessControl {\r\n    function isAdmin(address user) external view returns (bool);\r\n}\r\n\r\n\r\ncontract LoanVaultCore is ReentrancyGuard {\r\n    using SafeTRC20 for ITRC20;\r\n\r\n    address public accessControl;\r\n    address public liquidityPool;\r\n    bool public paused;\r\n\r\n    // borrower -> token collateral amount\r\n    mapping(address => mapping(address => uint256)) public collateral;\r\n\r\n    event CollateralDeposited(address indexed who, address indexed token, uint256 amount);\r\n    event CollateralRemoved(address indexed who, address indexed token, uint256 amount);\r\n    event Paused(address indexed by);\r\n    event Unpaused(address indexed by);\r\n    event EmergencyWithdraw(address indexed token, address indexed to, uint256 amount);\r\n\r\n\r\n\r\n    constructor(address _accessControl, address _liquidityPool) public \r\n    { \r\n        require(_accessControl != address(0), \"LoanVaultCore: zero accessControl\");\r\n        require(_liquidityPool != address(0), \"LoanVaultCore: zero liquidityPool\");\r\n\r\n        accessControl=_accessControl; \r\n        liquidityPool=_liquidityPool; \r\n         paused = false;\r\n    }\r\n\r\n    // --- modifiers ---\r\n    modifier whenNotPaused() {\r\n        require(!paused, \"LoanVaultCore: paused\");\r\n        _;\r\n    }\r\n\r\n    modifier onlyAuthorized() {\r\n        require(_isAuthorized(msg.sender), \"LoanVaultCore: not authorized\");\r\n        _;\r\n    }\r\n\r\n    // --- pause control ---\r\n    function pause() external onlyAuthorized {\r\n        require(!paused, \"LoanVaultCore: already paused\");\r\n        paused = true;\r\n        emit Paused(msg.sender);\r\n    }\r\n\r\n    function unpause() external onlyAuthorized {\r\n        require(paused, \"LoanVaultCore: not paused\");\r\n        paused = false;\r\n        emit Unpaused(msg.sender);\r\n    }\r\n\r\n    function depositCollateral(address token, uint256 amount) external nonReentrant {\r\n\r\n        require(token != address(0), \"LoanVaultCore: zero token\");\r\n        require(amount > 0, \"LoanVaultCore: zero amount\");\r\n\r\n        ITRC20(token).safeTransferFrom(msg.sender, address(this), amount);\r\n        collateral[msg.sender][token] += amount;\r\n        emit CollateralDeposited(msg.sender, token, amount);\r\n    }\r\n\r\n    function removeCollateral(address borrower, address token, uint256 amount) external {\r\n        // Only LoanManager (authorized via AccessControl) can remove collateral on liquidation or refund.\r\n       \r\n       require(token != address(0), \"LoanVaultCore: zero token\");\r\n        require(borrower != address(0), \"LoanVaultCore: zero borrower\");\r\n        require(amount > 0, \"LoanVaultCore: zero amount\");\r\n\r\n        // Authorization check\r\n        require(_isAuthorized(msg.sender), \"LoanVaultCore: not authorized\");\r\n\r\n        // Sufficient collateral check\r\n        require(collateral[borrower][token] >= amount, \"LoanVaultCore: insufficient collateral\");\r\n\r\n        // Update state first (prevent reentrancy)\r\n        collateral[borrower][token] -= amount;\r\n\r\n\r\n        ITRC20(token).safeTransfer(msg.sender, amount);\r\n        emit CollateralRemoved(borrower, token, amount);\r\n    }\r\n\r\n    // helper to sweep collateral to repay loan\r\n    function sweepCollateral(address borrower, address token, uint256 amount) external {\r\n        require(token != address(0), \"LoanVaultCore: zero token\");\r\n        require(borrower != address(0), \"LoanVaultCore: zero borrower\");\r\n        require(amount > 0, \"LoanVaultCore: zero amount\");\r\n\r\n        // Authorization check\r\n        require(_isAuthorized(msg.sender), \"LoanVaultCore: not authorized\");\r\n\r\n        // Sufficient collateral check\r\n        require(collateral[borrower][token] >= amount, \"LoanVaultCore: insufficient collateral\");\r\n\r\n        // Update state before external call\r\n        collateral[borrower][token] -= amount;\r\n\r\n        ITRC20(token).safeTransfer(msg.sender, amount);\r\n        emit CollateralRemoved(borrower, token, amount);\r\n    }\r\n\r\n    /// @dev Internal authorization helper\r\n    function _isAuthorized(address user) internal view returns (bool) {\r\n        require(accessControl != address(0), \"LoanVaultCore: accessControl not set\");\r\n        return IAccessControl(accessControl).isAdmin(user);\r\n    }\r\n\r\n    /// @notice Change access control contract (only admin)\r\n    function setAccessControl(address _accessControl) external nonReentrant {\r\n        require(_accessControl != address(0), \"LoanVaultCore: zero address\");\r\n        require(_isAuthorized(msg.sender), \"LoanVaultCore: not authorized\");\r\n        accessControl = _accessControl;\r\n    }\r\n\r\n    /// @notice Change liquidity pool address (only admin)\r\n    function setLiquidityPool(address _liquidityPool) external nonReentrant {\r\n        require(_liquidityPool != address(0), \"LoanVaultCore: zero address\");\r\n        require(_isAuthorized(msg.sender), \"LoanVaultCore: not authorized\");\r\n        liquidityPool = _liquidityPool;\r\n    }\r\n}",
  "sourcePath": "C:/workspace/tronbfpay/contracts/v3/LoanVaultCore.sol",
  "compiler": {
    "name": "solc",
    "version": "0.5.4+commit.9549d8ff.Emscripten.clang"
  },
  "schemaVersion": "2.0.1",
  "updatedAt": "2025-10-07T17:16:27.685Z"
}