{
  "contractName": "OverdraftLineVault",
  "abi": [
    {
      "inputs": [
        {
          "internalType": "address",
          "name": "_vaultAdmin",
          "type": "address"
        },
        {
          "internalType": "address",
          "name": "_token",
          "type": "address"
        },
        {
          "internalType": "uint256",
          "name": "_tokenDecimal",
          "type": "uint256"
        },
        {
          "internalType": "uint256",
          "name": "_nativeDecimal",
          "type": "uint256"
        }
      ],
      "stateMutability": "nonpayable",
      "type": "constructor"
    },
    {
      "anonymous": false,
      "inputs": [
        {
          "indexed": false,
          "internalType": "address",
          "name": "borrower",
          "type": "address"
        },
        {
          "indexed": false,
          "internalType": "bool",
          "name": "whitelisted",
          "type": "bool"
        }
      ],
      "name": "BorrowerWhitelisted",
      "type": "event"
    },
    {
      "anonymous": false,
      "inputs": [
        {
          "indexed": true,
          "internalType": "address",
          "name": "user",
          "type": "address"
        },
        {
          "indexed": true,
          "internalType": "address",
          "name": "token",
          "type": "address"
        },
        {
          "indexed": false,
          "internalType": "uint256",
          "name": "amount",
          "type": "uint256"
        }
      ],
      "name": "CollateralDeposited",
      "type": "event"
    },
    {
      "anonymous": false,
      "inputs": [
        {
          "indexed": true,
          "internalType": "address",
          "name": "user",
          "type": "address"
        },
        {
          "indexed": true,
          "internalType": "address",
          "name": "token",
          "type": "address"
        },
        {
          "indexed": false,
          "internalType": "uint256",
          "name": "amount",
          "type": "uint256"
        }
      ],
      "name": "CollateralWithdrawn",
      "type": "event"
    },
    {
      "anonymous": false,
      "inputs": [
        {
          "indexed": true,
          "internalType": "bytes32",
          "name": "ref",
          "type": "bytes32"
        },
        {
          "indexed": true,
          "internalType": "bytes32",
          "name": "tranRef",
          "type": "bytes32"
        },
        {
          "indexed": false,
          "internalType": "bool",
          "name": "topup",
          "type": "bool"
        },
        {
          "indexed": false,
          "internalType": "uint256",
          "name": "fiatAmount",
          "type": "uint256"
        },
        {
          "indexed": false,
          "internalType": "uint256",
          "name": "feeBps",
          "type": "uint256"
        },
        {
          "indexed": false,
          "internalType": "uint256",
          "name": "fiatRate",
          "type": "uint256"
        }
      ],
      "name": "CreditLimitAdjusted",
      "type": "event"
    },
    {
      "anonymous": false,
      "inputs": [
        {
          "indexed": false,
          "internalType": "address",
          "name": "officer",
          "type": "address"
        },
        {
          "indexed": false,
          "internalType": "bool",
          "name": "enabled",
          "type": "bool"
        }
      ],
      "name": "CreditOfficerToggled",
      "type": "event"
    },
    {
      "anonymous": false,
      "inputs": [
        {
          "indexed": false,
          "internalType": "uint256",
          "name": "totalFee",
          "type": "uint256"
        },
        {
          "indexed": false,
          "internalType": "uint256",
          "name": "amount",
          "type": "uint256"
        }
      ],
      "name": "DailyBulkFeePosted",
      "type": "event"
    },
    {
      "anonymous": false,
      "inputs": [
        {
          "indexed": true,
          "internalType": "bytes32",
          "name": "creditRef",
          "type": "bytes32"
        },
        {
          "indexed": false,
          "internalType": "uint256",
          "name": "amount",
          "type": "uint256"
        }
      ],
      "name": "DailyFeePosted",
      "type": "event"
    },
    {
      "anonymous": false,
      "inputs": [
        {
          "indexed": true,
          "internalType": "bytes32",
          "name": "paymentRef",
          "type": "bytes32"
        },
        {
          "indexed": true,
          "internalType": "bytes32",
          "name": "creditRef",
          "type": "bytes32"
        },
        {
          "indexed": false,
          "internalType": "uint256",
          "name": "fiatAmount",
          "type": "uint256"
        },
        {
          "indexed": false,
          "internalType": "uint256",
          "name": "tokenAmount",
          "type": "uint256"
        },
        {
          "indexed": false,
          "internalType": "uint256",
          "name": "rate",
          "type": "uint256"
        }
      ],
      "name": "DebitTransactionPosted",
      "type": "event"
    },
    {
      "anonymous": false,
      "inputs": [
        {
          "indexed": false,
          "internalType": "address",
          "name": "manager",
          "type": "address"
        },
        {
          "indexed": false,
          "internalType": "bool",
          "name": "enabled",
          "type": "bool"
        }
      ],
      "name": "ManagerToggled",
      "type": "event"
    },
    {
      "anonymous": false,
      "inputs": [
        {
          "indexed": true,
          "internalType": "bytes32",
          "name": "ref",
          "type": "bytes32"
        },
        {
          "indexed": false,
          "internalType": "address",
          "name": "borrower",
          "type": "address"
        },
        {
          "indexed": false,
          "internalType": "uint256",
          "name": "creditLimit",
          "type": "uint256"
        }
      ],
      "name": "OverdraftPosted",
      "type": "event"
    },
    {
      "anonymous": false,
      "inputs": [
        {
          "indexed": true,
          "internalType": "address",
          "name": "previousOwner",
          "type": "address"
        },
        {
          "indexed": true,
          "internalType": "address",
          "name": "newOwner",
          "type": "address"
        }
      ],
      "name": "OwnershipTransferred",
      "type": "event"
    },
    {
      "anonymous": false,
      "inputs": [
        {
          "indexed": true,
          "internalType": "bytes32",
          "name": "paymentRef",
          "type": "bytes32"
        },
        {
          "indexed": true,
          "internalType": "bytes32",
          "name": "creditRef",
          "type": "bytes32"
        }
      ],
      "name": "PaymentApproved",
      "type": "event"
    },
    {
      "anonymous": false,
      "inputs": [
        {
          "indexed": true,
          "internalType": "bytes32",
          "name": "paymentRef",
          "type": "bytes32"
        },
        {
          "indexed": true,
          "internalType": "bytes32",
          "name": "creditRef",
          "type": "bytes32"
        },
        {
          "indexed": false,
          "internalType": "uint256",
          "name": "amount",
          "type": "uint256"
        },
        {
          "indexed": false,
          "internalType": "uint256",
          "name": "fiatAmount",
          "type": "uint256"
        },
        {
          "indexed": false,
          "internalType": "uint256",
          "name": "rate",
          "type": "uint256"
        },
        {
          "indexed": true,
          "internalType": "address",
          "name": "by",
          "type": "address"
        }
      ],
      "name": "PaymentMarkedPaid",
      "type": "event"
    },
    {
      "anonymous": false,
      "inputs": [
        {
          "indexed": false,
          "internalType": "address",
          "name": "receiver",
          "type": "address"
        },
        {
          "indexed": false,
          "internalType": "uint256",
          "name": "amount",
          "type": "uint256"
        }
      ],
      "name": "PlatformFeeWithdrawn",
      "type": "event"
    },
    {
      "anonymous": false,
      "inputs": [
        {
          "indexed": true,
          "internalType": "address",
          "name": "oldAdmin",
          "type": "address"
        },
        {
          "indexed": true,
          "internalType": "address",
          "name": "newAdmin",
          "type": "address"
        }
      ],
      "name": "VaultAdminChanged",
      "type": "event"
    },
    {
      "inputs": [],
      "name": "activeOverdraftCount",
      "outputs": [
        {
          "internalType": "uint256",
          "name": "",
          "type": "uint256"
        }
      ],
      "stateMutability": "view",
      "type": "function"
    },
    {
      "inputs": [
        {
          "internalType": "bytes32",
          "name": "",
          "type": "bytes32"
        }
      ],
      "name": "amountsPaid",
      "outputs": [
        {
          "internalType": "bytes32",
          "name": "tranRef",
          "type": "bytes32"
        },
        {
          "internalType": "address",
          "name": "borrower",
          "type": "address"
        },
        {
          "internalType": "uint256",
          "name": "amount",
          "type": "uint256"
        },
        {
          "internalType": "uint256",
          "name": "fiatAmount",
          "type": "uint256"
        },
        {
          "internalType": "uint256",
          "name": "rate",
          "type": "uint256"
        },
        {
          "internalType": "bytes32",
          "name": "creditRef",
          "type": "bytes32"
        },
        {
          "internalType": "bool",
          "name": "exists",
          "type": "bool"
        },
        {
          "internalType": "bool",
          "name": "approved",
          "type": "bool"
        },
        {
          "internalType": "address",
          "name": "postedBy",
          "type": "address"
        }
      ],
      "stateMutability": "view",
      "type": "function"
    },
    {
      "inputs": [
        {
          "internalType": "bytes32",
          "name": "paymentRef",
          "type": "bytes32"
        },
        {
          "internalType": "bytes32",
          "name": "creditRef",
          "type": "bytes32"
        }
      ],
      "name": "approveRepayment",
      "outputs": [],
      "stateMutability": "nonpayable",
      "type": "function"
    },
    {
      "inputs": [
        {
          "internalType": "address",
          "name": "",
          "type": "address"
        }
      ],
      "name": "balances",
      "outputs": [
        {
          "internalType": "uint256",
          "name": "",
          "type": "uint256"
        }
      ],
      "stateMutability": "view",
      "type": "function"
    },
    {
      "inputs": [
        {
          "internalType": "address",
          "name": "",
          "type": "address"
        }
      ],
      "name": "borrowerWhitelisted",
      "outputs": [
        {
          "internalType": "bool",
          "name": "",
          "type": "bool"
        }
      ],
      "stateMutability": "view",
      "type": "function"
    },
    {
      "inputs": [
        {
          "internalType": "uint256",
          "name": "tokenAmount",
          "type": "uint256"
        },
        {
          "internalType": "uint256",
          "name": "utilizedAmount",
          "type": "uint256"
        }
      ],
      "name": "computeHealthFactor",
      "outputs": [
        {
          "internalType": "uint256",
          "name": "",
          "type": "uint256"
        }
      ],
      "stateMutability": "view",
      "type": "function"
    },
    {
      "inputs": [],
      "name": "contractOwner",
      "outputs": [
        {
          "internalType": "address",
          "name": "",
          "type": "address"
        }
      ],
      "stateMutability": "view",
      "type": "function"
    },
    {
      "inputs": [
        {
          "internalType": "bytes32",
          "name": "",
          "type": "bytes32"
        }
      ],
      "name": "creditLimitAdjustments",
      "outputs": [
        {
          "internalType": "bytes32",
          "name": "creditRef",
          "type": "bytes32"
        },
        {
          "internalType": "bytes32",
          "name": "tranRef",
          "type": "bytes32"
        },
        {
          "internalType": "bool",
          "name": "topup",
          "type": "bool"
        },
        {
          "internalType": "uint256",
          "name": "amount",
          "type": "uint256"
        },
        {
          "internalType": "uint256",
          "name": "fiatAmount",
          "type": "uint256"
        },
        {
          "internalType": "uint256",
          "name": "rate",
          "type": "uint256"
        },
        {
          "internalType": "bool",
          "name": "exists",
          "type": "bool"
        },
        {
          "internalType": "bool",
          "name": "approved",
          "type": "bool"
        }
      ],
      "stateMutability": "view",
      "type": "function"
    },
    {
      "inputs": [
        {
          "internalType": "address",
          "name": "",
          "type": "address"
        }
      ],
      "name": "creditOfficers",
      "outputs": [
        {
          "internalType": "bool",
          "name": "",
          "type": "bool"
        }
      ],
      "stateMutability": "view",
      "type": "function"
    },
    {
      "inputs": [
        {
          "internalType": "bytes32",
          "name": "",
          "type": "bytes32"
        },
        {
          "internalType": "uint256",
          "name": "",
          "type": "uint256"
        }
      ],
      "name": "dailyOverdraftFee",
      "outputs": [
        {
          "internalType": "bool",
          "name": "",
          "type": "bool"
        }
      ],
      "stateMutability": "view",
      "type": "function"
    },
    {
      "inputs": [
        {
          "internalType": "address",
          "name": "",
          "type": "address"
        },
        {
          "internalType": "uint256",
          "name": "",
          "type": "uint256"
        }
      ],
      "name": "dailyUsedByBorrower",
      "outputs": [
        {
          "internalType": "uint256",
          "name": "",
          "type": "uint256"
        }
      ],
      "stateMutability": "view",
      "type": "function"
    },
    {
      "inputs": [
        {
          "internalType": "bytes32",
          "name": "",
          "type": "bytes32"
        }
      ],
      "name": "debitTransactions",
      "outputs": [
        {
          "internalType": "bytes32",
          "name": "creditRef",
          "type": "bytes32"
        },
        {
          "internalType": "uint256",
          "name": "fiatAmount",
          "type": "uint256"
        },
        {
          "internalType": "uint256",
          "name": "amount",
          "type": "uint256"
        },
        {
          "internalType": "uint256",
          "name": "rate",
          "type": "uint256"
        },
        {
          "internalType": "address",
          "name": "payer",
          "type": "address"
        },
        {
          "internalType": "bool",
          "name": "markedPaid",
          "type": "bool"
        },
        {
          "internalType": "bool",
          "name": "approved",
          "type": "bool"
        },
        {
          "internalType": "uint256",
          "name": "approveReleaseTimestamp",
          "type": "uint256"
        },
        {
          "internalType": "bool",
          "name": "exists",
          "type": "bool"
        }
      ],
      "stateMutability": "view",
      "type": "function"
    },
    {
      "inputs": [
        {
          "internalType": "uint256",
          "name": "amount",
          "type": "uint256"
        }
      ],
      "name": "depositCollateral",
      "outputs": [],
      "stateMutability": "nonpayable",
      "type": "function"
    },
    {
      "inputs": [
        {
          "internalType": "address",
          "name": "borrower",
          "type": "address"
        }
      ],
      "name": "fetchBorrowerDepositCollateral",
      "outputs": [
        {
          "internalType": "uint256",
          "name": "",
          "type": "uint256"
        }
      ],
      "stateMutability": "view",
      "type": "function"
    },
    {
      "inputs": [
        {
          "internalType": "bytes32",
          "name": "paymentRef",
          "type": "bytes32"
        }
      ],
      "name": "fetchDebitTransaction",
      "outputs": [
        {
          "internalType": "bytes32",
          "name": "creditRef",
          "type": "bytes32"
        },
        {
          "internalType": "uint256",
          "name": "fiatAmount",
          "type": "uint256"
        },
        {
          "internalType": "uint256",
          "name": "amount",
          "type": "uint256"
        },
        {
          "internalType": "uint256",
          "name": "rate",
          "type": "uint256"
        },
        {
          "internalType": "address",
          "name": "payer",
          "type": "address"
        },
        {
          "internalType": "bool",
          "name": "markedPaid",
          "type": "bool"
        },
        {
          "internalType": "bool",
          "name": "approved",
          "type": "bool"
        },
        {
          "internalType": "uint256",
          "name": "approveReleaseTimestamp",
          "type": "uint256"
        },
        {
          "internalType": "bool",
          "name": "exists",
          "type": "bool"
        }
      ],
      "stateMutability": "view",
      "type": "function"
    },
    {
      "inputs": [
        {
          "internalType": "bytes32",
          "name": "ref",
          "type": "bytes32"
        }
      ],
      "name": "fetchOverdraft",
      "outputs": [
        {
          "internalType": "bytes32",
          "name": "refOut",
          "type": "bytes32"
        },
        {
          "internalType": "uint256",
          "name": "creditLimit",
          "type": "uint256"
        },
        {
          "internalType": "uint256",
          "name": "availableLimit",
          "type": "uint256"
        },
        {
          "internalType": "uint256",
          "name": "utilizedLimit",
          "type": "uint256"
        },
        {
          "internalType": "uint256",
          "name": "fee",
          "type": "uint256"
        },
        {
          "internalType": "uint256",
          "name": "expiry",
          "type": "uint256"
        },
        {
          "internalType": "address",
          "name": "borrower",
          "type": "address"
        },
        {
          "internalType": "address",
          "name": "lender",
          "type": "address"
        },
        {
          "internalType": "uint256",
          "name": "tokenAmount",
          "type": "uint256"
        },
        {
          "internalType": "uint256",
          "name": "_tokenToFiatRate",
          "type": "uint256"
        },
        {
          "internalType": "uint256",
          "name": "healthFactor",
          "type": "uint256"
        },
        {
          "internalType": "uint256",
          "name": "tokenBalance",
          "type": "uint256"
        }
      ],
      "stateMutability": "view",
      "type": "function"
    },
    {
      "inputs": [
        {
          "internalType": "bytes32",
          "name": "tranRef",
          "type": "bytes32"
        }
      ],
      "name": "fetchRepaymentTransaction",
      "outputs": [
        {
          "internalType": "bytes32",
          "name": "tranRefOut",
          "type": "bytes32"
        },
        {
          "internalType": "address",
          "name": "borrower",
          "type": "address"
        },
        {
          "internalType": "uint256",
          "name": "amount",
          "type": "uint256"
        },
        {
          "internalType": "uint256",
          "name": "fiatAmount",
          "type": "uint256"
        },
        {
          "internalType": "uint256",
          "name": "rate",
          "type": "uint256"
        },
        {
          "internalType": "bytes32",
          "name": "creditRef",
          "type": "bytes32"
        },
        {
          "internalType": "bool",
          "name": "exists",
          "type": "bool"
        },
        {
          "internalType": "bool",
          "name": "approved",
          "type": "bool"
        }
      ],
      "stateMutability": "view",
      "type": "function"
    },
    {
      "inputs": [],
      "name": "fetchVaultSettings",
      "outputs": [
        {
          "internalType": "uint256",
          "name": "noOfOverdrafts",
          "type": "uint256"
        },
        {
          "internalType": "uint256",
          "name": "_maximumOverdraftLimit",
          "type": "uint256"
        },
        {
          "internalType": "uint256",
          "name": "_globalFeeBps",
          "type": "uint256"
        },
        {
          "internalType": "uint256",
          "name": "_maximumDebitAmount",
          "type": "uint256"
        },
        {
          "internalType": "uint256",
          "name": "_maximumDailyLimit",
          "type": "uint256"
        },
        {
          "internalType": "uint256",
          "name": "_tokenToFiatRate",
          "type": "uint256"
        },
        {
          "internalType": "uint256",
          "name": "_totalFeeCollected",
          "type": "uint256"
        },
        {
          "internalType": "uint256",
          "name": "_tokenDecimal",
          "type": "uint256"
        }
      ],
      "stateMutability": "view",
      "type": "function"
    },
    {
      "inputs": [
        {
          "internalType": "address",
          "name": "borrower",
          "type": "address"
        }
      ],
      "name": "getTotalUtilizedLimit",
      "outputs": [
        {
          "internalType": "uint256",
          "name": "totalUtilized",
          "type": "uint256"
        },
        {
          "internalType": "uint256",
          "name": "totalTokenAmount",
          "type": "uint256"
        }
      ],
      "stateMutability": "view",
      "type": "function"
    },
    {
      "inputs": [
        {
          "internalType": "uint256",
          "name": "utilizedAmount",
          "type": "uint256"
        },
        {
          "internalType": "uint256",
          "name": "_tokenToFiatRate",
          "type": "uint256"
        }
      ],
      "name": "getUtilizedAmountInToken",
      "outputs": [
        {
          "internalType": "uint256",
          "name": "",
          "type": "uint256"
        }
      ],
      "stateMutability": "view",
      "type": "function"
    },
    {
      "inputs": [],
      "name": "globalFeeBps",
      "outputs": [
        {
          "internalType": "uint256",
          "name": "",
          "type": "uint256"
        }
      ],
      "stateMutability": "view",
      "type": "function"
    },
    {
      "inputs": [
        {
          "internalType": "address",
          "name": "",
          "type": "address"
        }
      ],
      "name": "managers",
      "outputs": [
        {
          "internalType": "bool",
          "name": "",
          "type": "bool"
        }
      ],
      "stateMutability": "view",
      "type": "function"
    },
    {
      "inputs": [],
      "name": "maximumDailyLimit",
      "outputs": [
        {
          "internalType": "uint256",
          "name": "",
          "type": "uint256"
        }
      ],
      "stateMutability": "view",
      "type": "function"
    },
    {
      "inputs": [],
      "name": "maximumDebitAmount",
      "outputs": [
        {
          "internalType": "uint256",
          "name": "",
          "type": "uint256"
        }
      ],
      "stateMutability": "view",
      "type": "function"
    },
    {
      "inputs": [],
      "name": "maximumOverdraftLimit",
      "outputs": [
        {
          "internalType": "uint256",
          "name": "",
          "type": "uint256"
        }
      ],
      "stateMutability": "view",
      "type": "function"
    },
    {
      "inputs": [
        {
          "internalType": "bytes32",
          "name": "ref",
          "type": "bytes32"
        },
        {
          "internalType": "bytes32",
          "name": "tranRef",
          "type": "bytes32"
        },
        {
          "internalType": "bool",
          "name": "topup",
          "type": "bool"
        },
        {
          "internalType": "uint256",
          "name": "fiatAmount",
          "type": "uint256"
        },
        {
          "internalType": "uint256",
          "name": "feeBps",
          "type": "uint256"
        },
        {
          "internalType": "uint256",
          "name": "expiry",
          "type": "uint256"
        },
        {
          "internalType": "uint256",
          "name": "tokenAmount",
          "type": "uint256"
        },
        {
          "internalType": "uint256",
          "name": "_tokenToFiatRate",
          "type": "uint256"
        }
      ],
      "name": "modifyOverdraftLine",
      "outputs": [],
      "stateMutability": "nonpayable",
      "type": "function"
    },
    {
      "inputs": [],
      "name": "nativeDecimal",
      "outputs": [
        {
          "internalType": "uint256",
          "name": "",
          "type": "uint256"
        }
      ],
      "stateMutability": "view",
      "type": "function"
    },
    {
      "inputs": [
        {
          "internalType": "bytes32",
          "name": "creditRef",
          "type": "bytes32"
        }
      ],
      "name": "overdraftLineHealthFactor",
      "outputs": [
        {
          "internalType": "uint256",
          "name": "",
          "type": "uint256"
        }
      ],
      "stateMutability": "view",
      "type": "function"
    },
    {
      "inputs": [
        {
          "internalType": "bytes32",
          "name": "",
          "type": "bytes32"
        }
      ],
      "name": "overdrafts",
      "outputs": [
        {
          "internalType": "bytes32",
          "name": "ref",
          "type": "bytes32"
        },
        {
          "internalType": "uint256",
          "name": "creditLimit",
          "type": "uint256"
        },
        {
          "internalType": "uint256",
          "name": "availableLimit",
          "type": "uint256"
        },
        {
          "internalType": "uint256",
          "name": "utilizedLimit",
          "type": "uint256"
        },
        {
          "internalType": "uint256",
          "name": "fee",
          "type": "uint256"
        },
        {
          "internalType": "uint256",
          "name": "expiry",
          "type": "uint256"
        },
        {
          "internalType": "address",
          "name": "borrower",
          "type": "address"
        },
        {
          "internalType": "address",
          "name": "lender",
          "type": "address"
        },
        {
          "internalType": "uint256",
          "name": "tokenAmount",
          "type": "uint256"
        },
        {
          "internalType": "uint256",
          "name": "tokenToFiatRate",
          "type": "uint256"
        },
        {
          "internalType": "bool",
          "name": "exists",
          "type": "bool"
        }
      ],
      "stateMutability": "view",
      "type": "function"
    },
    {
      "inputs": [],
      "name": "owner",
      "outputs": [
        {
          "internalType": "address",
          "name": "",
          "type": "address"
        }
      ],
      "stateMutability": "view",
      "type": "function"
    },
    {
      "inputs": [],
      "name": "pause",
      "outputs": [],
      "stateMutability": "nonpayable",
      "type": "function"
    },
    {
      "inputs": [],
      "name": "paused",
      "outputs": [
        {
          "internalType": "bool",
          "name": "",
          "type": "bool"
        }
      ],
      "stateMutability": "view",
      "type": "function"
    },
    {
      "inputs": [],
      "name": "platformFeeAddress",
      "outputs": [
        {
          "internalType": "address",
          "name": "",
          "type": "address"
        }
      ],
      "stateMutability": "view",
      "type": "function"
    },
    {
      "inputs": [
        {
          "internalType": "bytes32",
          "name": "creditRef",
          "type": "bytes32"
        }
      ],
      "name": "postDailyFee",
      "outputs": [],
      "stateMutability": "nonpayable",
      "type": "function"
    },
    {
      "inputs": [
        {
          "internalType": "bytes32",
          "name": "paymentRef",
          "type": "bytes32"
        },
        {
          "internalType": "uint256",
          "name": "fiatAmount",
          "type": "uint256"
        },
        {
          "internalType": "bytes32",
          "name": "creditRef",
          "type": "bytes32"
        },
        {
          "internalType": "uint256",
          "name": "amount",
          "type": "uint256"
        },
        {
          "internalType": "uint256",
          "name": "rate",
          "type": "uint256"
        }
      ],
      "name": "postDebitTransaction",
      "outputs": [],
      "stateMutability": "nonpayable",
      "type": "function"
    },
    {
      "inputs": [
        {
          "internalType": "bytes32",
          "name": "ref",
          "type": "bytes32"
        },
        {
          "internalType": "uint256",
          "name": "creditLimit",
          "type": "uint256"
        },
        {
          "internalType": "uint256",
          "name": "feeBps",
          "type": "uint256"
        },
        {
          "internalType": "uint256",
          "name": "expiry",
          "type": "uint256"
        },
        {
          "internalType": "address",
          "name": "borrower",
          "type": "address"
        },
        {
          "internalType": "address",
          "name": "lender",
          "type": "address"
        },
        {
          "internalType": "uint256",
          "name": "tokenAmount",
          "type": "uint256"
        },
        {
          "internalType": "uint256",
          "name": "_tokenToFiatRate",
          "type": "uint256"
        }
      ],
      "name": "postOverdraftLine",
      "outputs": [],
      "stateMutability": "nonpayable",
      "type": "function"
    },
    {
      "inputs": [
        {
          "internalType": "bytes32",
          "name": "paymentRef",
          "type": "bytes32"
        },
        {
          "internalType": "address",
          "name": "borrower",
          "type": "address"
        },
        {
          "internalType": "uint256",
          "name": "fiatAmount",
          "type": "uint256"
        },
        {
          "internalType": "uint256",
          "name": "amount",
          "type": "uint256"
        },
        {
          "internalType": "uint256",
          "name": "rate",
          "type": "uint256"
        },
        {
          "internalType": "bytes32",
          "name": "creditRef",
          "type": "bytes32"
        }
      ],
      "name": "postRepayment",
      "outputs": [],
      "stateMutability": "nonpayable",
      "type": "function"
    },
    {
      "inputs": [
        {
          "internalType": "address",
          "name": "borrower",
          "type": "address"
        }
      ],
      "name": "processBulkDailyFee",
      "outputs": [],
      "stateMutability": "nonpayable",
      "type": "function"
    },
    {
      "inputs": [
        {
          "internalType": "uint256",
          "name": "amount",
          "type": "uint256"
        },
        {
          "internalType": "address",
          "name": "lender",
          "type": "address"
        }
      ],
      "name": "releaseFundToLender",
      "outputs": [],
      "stateMutability": "nonpayable",
      "type": "function"
    },
    {
      "inputs": [],
      "name": "rescueAllowedAfter",
      "outputs": [
        {
          "internalType": "uint256",
          "name": "",
          "type": "uint256"
        }
      ],
      "stateMutability": "view",
      "type": "function"
    },
    {
      "inputs": [
        {
          "internalType": "uint256",
          "name": "rate",
          "type": "uint256"
        }
      ],
      "name": "setConfigValues",
      "outputs": [],
      "stateMutability": "nonpayable",
      "type": "function"
    },
    {
      "inputs": [
        {
          "internalType": "uint256",
          "name": "newFeeBps",
          "type": "uint256"
        }
      ],
      "name": "setGlobalFeeBps",
      "outputs": [],
      "stateMutability": "nonpayable",
      "type": "function"
    },
    {
      "inputs": [
        {
          "internalType": "uint256",
          "name": "newDailyLimit",
          "type": "uint256"
        }
      ],
      "name": "setMaximumDailyLimit",
      "outputs": [],
      "stateMutability": "nonpayable",
      "type": "function"
    },
    {
      "inputs": [
        {
          "internalType": "uint256",
          "name": "newMaxDebit",
          "type": "uint256"
        }
      ],
      "name": "setMaximumDebitAmount",
      "outputs": [],
      "stateMutability": "nonpayable",
      "type": "function"
    },
    {
      "inputs": [
        {
          "internalType": "uint256",
          "name": "newLimit",
          "type": "uint256"
        }
      ],
      "name": "setMaximumOverdraftLimit",
      "outputs": [],
      "stateMutability": "nonpayable",
      "type": "function"
    },
    {
      "inputs": [
        {
          "internalType": "uint256",
          "name": "_newDailyLimit",
          "type": "uint256"
        },
        {
          "internalType": "uint256",
          "name": "_newMaxDebit",
          "type": "uint256"
        },
        {
          "internalType": "uint256",
          "name": "_newLimit",
          "type": "uint256"
        },
        {
          "internalType": "uint256",
          "name": "_newFeeBps",
          "type": "uint256"
        }
      ],
      "name": "setRatesAndLimits",
      "outputs": [],
      "stateMutability": "nonpayable",
      "type": "function"
    },
    {
      "inputs": [
        {
          "internalType": "uint256",
          "name": "newTimelock",
          "type": "uint256"
        }
      ],
      "name": "setTimelockAfterApproval",
      "outputs": [],
      "stateMutability": "nonpayable",
      "type": "function"
    },
    {
      "inputs": [
        {
          "internalType": "address",
          "name": "_newAdmin",
          "type": "address"
        }
      ],
      "name": "setVaultAdmin",
      "outputs": [],
      "stateMutability": "nonpayable",
      "type": "function"
    },
    {
      "inputs": [],
      "name": "timelockAfterApproval",
      "outputs": [
        {
          "internalType": "uint256",
          "name": "",
          "type": "uint256"
        }
      ],
      "stateMutability": "view",
      "type": "function"
    },
    {
      "inputs": [
        {
          "internalType": "address",
          "name": "_o",
          "type": "address"
        },
        {
          "internalType": "bool",
          "name": "_enable",
          "type": "bool"
        }
      ],
      "name": "toggleCreditOfficer",
      "outputs": [],
      "stateMutability": "nonpayable",
      "type": "function"
    },
    {
      "inputs": [
        {
          "internalType": "address",
          "name": "_mgr",
          "type": "address"
        },
        {
          "internalType": "bool",
          "name": "_enable",
          "type": "bool"
        }
      ],
      "name": "toggleManager",
      "outputs": [],
      "stateMutability": "nonpayable",
      "type": "function"
    },
    {
      "inputs": [],
      "name": "tokenDecimal",
      "outputs": [
        {
          "internalType": "uint256",
          "name": "",
          "type": "uint256"
        }
      ],
      "stateMutability": "view",
      "type": "function"
    },
    {
      "inputs": [],
      "name": "tokenToFiatRate",
      "outputs": [
        {
          "internalType": "uint256",
          "name": "",
          "type": "uint256"
        }
      ],
      "stateMutability": "view",
      "type": "function"
    },
    {
      "inputs": [],
      "name": "totalFeeCollected",
      "outputs": [
        {
          "internalType": "uint256",
          "name": "",
          "type": "uint256"
        }
      ],
      "stateMutability": "view",
      "type": "function"
    },
    {
      "inputs": [
        {
          "internalType": "address",
          "name": "newOwner",
          "type": "address"
        }
      ],
      "name": "transferOwnership",
      "outputs": [],
      "stateMutability": "nonpayable",
      "type": "function"
    },
    {
      "inputs": [],
      "name": "unpause",
      "outputs": [],
      "stateMutability": "nonpayable",
      "type": "function"
    },
    {
      "inputs": [
        {
          "internalType": "uint256",
          "name": "utilizedAmount",
          "type": "uint256"
        },
        {
          "internalType": "uint256",
          "name": "_tokenToFiatRate",
          "type": "uint256"
        }
      ],
      "name": "utilizedAmountInToken",
      "outputs": [
        {
          "internalType": "uint256",
          "name": "",
          "type": "uint256"
        }
      ],
      "stateMutability": "view",
      "type": "function"
    },
    {
      "inputs": [],
      "name": "vaultAdmin",
      "outputs": [
        {
          "internalType": "address",
          "name": "",
          "type": "address"
        }
      ],
      "stateMutability": "view",
      "type": "function"
    },
    {
      "inputs": [
        {
          "internalType": "address",
          "name": "borrower",
          "type": "address"
        },
        {
          "internalType": "bool",
          "name": "allowed",
          "type": "bool"
        }
      ],
      "name": "whitelistBorrower",
      "outputs": [],
      "stateMutability": "nonpayable",
      "type": "function"
    },
    {
      "inputs": [
        {
          "internalType": "uint256",
          "name": "amount",
          "type": "uint256"
        }
      ],
      "name": "withdrawCollateral",
      "outputs": [],
      "stateMutability": "nonpayable",
      "type": "function"
    },
    {
      "inputs": [
        {
          "internalType": "uint256",
          "name": "amount",
          "type": "uint256"
        }
      ],
      "name": "withdrawFee",
      "outputs": [],
      "stateMutability": "nonpayable",
      "type": "function"
    }
  ],
  "bytecode": "0x60803461012257601f6134ae38819003918201601f19168301916001600160401b0383118484101761012657808492608094604052833981010312610122576100478161013a565b906100546020820161013a565b60408201516060909201515f54600180556305f5e100600c5562015180600d556032600e5562989680600f556301312d006010556001600160a01b03191693909291903315610122576040519433337f8be0079c531659141344cd1fd0a4f28419497f9722a3daafe3b4186f6b6457e05f80a36001600160a01b03193381811690921782175f55601a805482166001600160a01b0394851617905560028054821694909316939093179091556012929092556011929092556016805490921617905561335f908161014f8239f35b5f80fd5b634e487b7160e01b5f52604160045260245ffd5b51906001600160a01b03821682036101225756fe6080806040526004361015610012575f80fd5b5f3560e01c908163089cc6af14612a1a575080630988db4c146129a657806317cdeb34146128f8578063198e1e60146126835780631c155ba3146126125780631f223ffd146125a35780632074295e1461253b5780632095ca391461251e57806320a83c2514612501578063213051e51461247e57806327e235e314611f1f5780633f4ba83a1461244c57806340e1f64b1461236c5780634822638c146122e95780634f3c46241461224d5780635204f538146122305780635793de0c146121d5578063580ead92146121f75780635a3e988c146121da5780635c8d5dfd146121d55780635c975abb146121b15780635caed029146121945780635d85209d146121575780635f393a171461213a5780636112fe2e146120b657806375e673a11461209957806383806e55146120805780638456cb591461204957806385913ba31461200d5780638b80cbf914611ff05780638c44a7b914611fb75780638da5cb5b14611f905780638e9fd7ad14611f575780638eec0bf214611f1f5780639c07143914611ee45780639e0c548514611ea0578063a113b0fa14611db8578063aebe0ecd14611d9b578063b1734eb714611bcc578063b9b2b5cd14611baf578063bad4a01f14611a45578063bc009378146119ab578063be35761614611881578063bf8c44d9146112b0578063c69b76a814610eb2578063caeed85714610df4578063ce606ee014610dcc578063d8e49ff314610d4a578063dc9d243014610cf1578063ddea224e14610c1e578063e4cf867f14610bae578063e730dd3014610b62578063e7f6f22514610b3a578063eb0054c314610a2d578063ed14834f14610a05578063f0ab8f1a146107a3578063f2fde38b1461072d578063f323e4b8146104dd578063f89c1945146104c0578063f936917a146102fc5763fdff9b4d146102bb575f80fd5b346102f85760203660031901126102f8576001600160a01b036102dc612a53565b165f52601b602052602060ff60405f2054166040519015158152f35b5f80fd5b346102f85760403660031901126102f8576004356024359061032560ff5f5460a01c1615612b41565b61033a60018060a01b03601a54163314612c4c565b805f52600960205260405f20600681019081549060ff82161561048e57600585910154036104575760ff8160081c1661041f57601081901c6001600160a01b031633146103ce5761010090845f5260046020526103a060ff600a60405f20015416612bb8565b61ff0019161790557f9fe66c55a0ca9b75ec12fb8c5a64573fcc752edfc0ae41a40db54aae7dc419655f80a3005b60405162461bcd60e51b8152602060048201526024808201527f73616d6520616464726573732063616e6e6f7420706f737420616e6420617070604482015263726f766560e01b6064820152608490fd5b60405162461bcd60e51b815260206004820152601060248201526f185b1c9958591e48185c1c1c9bdd995960821b6044820152606490fd5b60405162461bcd60e51b815260206004820152600f60248201526e0c6e4cac8d2e840dad2e6dac2e8c6d608b1b6044820152606490fd5b60405162461bcd60e51b815260206004820152600a6024820152691b9bc81c185e5b595b9d60b21b6044820152606490fd5b346102f8575f3660031901126102f8576020600d54604051908152f35b346102f85760c03660031901126102f8576004356104f9612a69565b90604435906064359260843560a4359361051a60ff5f5460a01c1615612b41565b335f52601b60205260ff60405f2054168015610719575b61053a90613031565b845f52600460205260405f209261055760ff600a86015416612bb8565b60068401546001600160a01b03918216911681036106e55760037f5e87d3de0def8bbfc83e31c2d67731ce6e31214b220bae9022f40b4d275090f894865f5260096020526105af60ff600660405f2001541615612f65565b600281016105be858254612c3f565b9055016105cc838254612c32565b9055846106a4604051926105df84612bf3565b8284526020840190815261068d600660408601958c87528b6060820189815260808301908b825260a0840192835260c084019960018b5260e08501975f895261010086019a338c525f52600960205260405f209551865560018060a01b03905116600186019060018060a01b03166001600160601b0360a01b8254161790555160028501555160038401555160048301555160058201550194511515859060ff801983541691151516179055565b51835461ff00191690151560081b61ff0016178355565b51815462010000600160b01b03191660109190911b62010000600160b01b0316179055604080519687526020870191909152850152339380606081010390a4005b60405162461bcd60e51b815260206004820152600c60248201526b3737ba103137b93937bbb2b960a11b6044820152606490fd5b50601a546001600160a01b03163314610531565b346102f85760203660031901126102f857610746612a53565b5f546001600160a01b0381169161075e338414612b09565b6001600160a01b03169182156102f85782907f8be0079c531659141344cd1fd0a4f28419497f9722a3daafe3b4186f6b6457e05f80a36001600160a01b031916175f55005b346102f85760203660031901126102f8576004356107c860ff5f5460a01c1615612b41565b6107d760026001541415612c8b565b6002600155335f52601b60205260ff60405f20541680156109f1575b6107fc90613031565b805f52600460205260405f2061081860ff600a83015416612bb8565b60018060a01b036006820154169060038101805480156109b95761271061084a62015180420492600486015490612cc3565b049261085a600982015485612cf4565b9281545f52601860205260405f20835f5260205260ff60405f20541661097457855f5260036020528360405f20541061092f576108f26020957f93e4ab0634b41b32496d8dc564abe9e9763c3e52bfcea2a326213611f080f9249760028501906108c78383541015612f19565b5f526003885260405f206108dc888254612c32565b90556108e9828254612c32565b90558254612c3f565b905561090083601454612c3f565b601455545f526018835260405f20905f52825260405f20600160ff19825416179055604051908152a260018055005b60405162461bcd60e51b815260206004820152601f60248201527f696e73756666696369656e7420636f6c6c61746572616c2062616c616e6365006044820152606490fd5b60405162461bcd60e51b815260206004820152601860248201527f6461696c792066656520616c726561647920706f7374656400000000000000006044820152606490fd5b60405162461bcd60e51b815260206004820152601060248201526f1b9bc81d5d1a5b1a5e995908199d5b9960821b6044820152606490fd5b50601a546001600160a01b031633146107f3565b346102f8575f3660031901126102f8576015546040516001600160a01b039091168152602090f35b346102f85760203660031901126102f8576004355f52600460205260405f2060ff600a8201541615610aff57806008610180920154906003810154610a72818461326e565b90825493600184015493600281015492600482015460058301549060018060a01b0360068501541692600960018060a01b0360078701541695015496845f52600360205260405f2054996040519b8c5260208c015260408b015260608a0152608089015260a088015260c087015260e0860152610100850152610120840152610140830152610160820152f35b60405162461bcd60e51b815260206004820152601360248201527213d59154911490519517d393d517d193d55391606a1b6044820152606490fd5b346102f8575f3660031901126102f857601a546040516001600160a01b039091168152602090f35b346102f85760203660031901126102f8576004355f5260046020526020610ba660405f20610b9660ff600a83015416612bb8565b600360088201549101549061326e565b604051908152f35b346102f85760803660031901126102f85760043560243560443560643591610be160018060a01b03601a54163314612c4c565b610bec841515612e0b565b610bf7811515612d58565b610c02821515612dcf565b610c106103e8841115612d94565b600f55600c55600e55601055005b346102f85760203660031901126102f8576004355f52600960205260405f2060068101549060ff821615610cac5760ff6101009282549260018060a01b036001820154169060028101546003820154906005600484015493015493604051978852602088015260408701526060860152608085015260a0840152600160c084015260081c16151560e0820152f35b60405162461bcd60e51b815260206004820152601f60248201527f52455041594d454e545f5452414e53414354494f4e5f4e4f545f464f554e44006044820152606490fd5b346102f8575f3660031901126102f857610100600b54600c54600e54600f54601054601354916014549360125495604051978852602088015260408701526060860152608085015260a084015260c083015260e0820152f35b346102f85760203660031901126102f8576004355f52600560205261010060405f2060ff81549160018101549082600282015416600382015460048301549160066005850154940154946040519788526020880152151560408701526060860152608085015260a0840152818116151560c084015260081c16151560e0820152f35b346102f8575f3660031901126102f8576016546040516001600160a01b039091168152602090f35b346102f85760203660031901126102f8576004355f52600860205260405f2060ff6006820154168015610e6d57610e69825491600184015492600285015493600386015495600560048201549101549260405197889760ff8460a81c169460ff8560a01c169460018060a01b0316938a612a8e565b0390f35b60405162461bcd60e51b815260206004820152601b60248201527f44454249545f5452414e53414354494f4e5f4e4f545f464f554e4400000000006044820152606490fd5b346102f85760a03660031901126102f857600435602435906044359160643560843591610ee660ff5f5460a01c1615612b41565b610ef560026001541415612c8b565b6002600155845f52600460205260405f2092610f1760ff600a86015416612bb8565b6006840180546001600160a01b03169190338314801561129a575b8015611286575b156112315783156111fa57600f5484116111b55762015180420490835f52601760205260405f20825f52602052610f748560405f2054612c3f565b6010541061117a57866111719461101d8861101660027f51dfb5fda5c85afc3841599b8b258fea4dabe53d49b9ab53b3f4e2f92314f7a99c0193610fbb8b86541015612f19565b8d5f526008602052610fd760ff600660405f2001541615612f65565b610fec60038701966009885491015490612cf4565b90805f5260036020526110058260405f20541015612fa2565b5f52600360205260405f2054612c32565b1015612fee565b61110e60405161102c81612bf3565b8c815260068c602083018b8152604084018d815260608501908b8252608086019133835260a08701905f825260c08801925f845260e08901955f87526101008a0197600189525f52600860205260405f2099518a555160018a0155516002890155516003880155600487019260018060a01b039060018060a01b03905116166001600160601b0360a01b84541617835551151582549060ff60a01b9060a01b169060ff60a01b191617825551151581549060ff60a81b9060a81b169060ff60a81b191617905551600584015551151591019060ff801983541691151516179055565b611119878254612c32565b9055611126868254612c3f565b905560018060a01b039054165f52601760205260405f20905f5260205260405f20611152848254612c3f565b9055604051938493846040919493926060820195825260208201520152565b0390a360018055005b60405162461bcd60e51b8152602060048201526013602482015272195e18d959591cc819185a5b1e481b1a5b5a5d606a1b6044820152606490fd5b60405162461bcd60e51b815260206004820152601860248201527f65786365656473206d617820646562697420616d6f756e7400000000000000006044820152606490fd5b60405162461bcd60e51b815260206004820152600f60248201526e66696174416d6f756e74207a65726f60881b6044820152606490fd5b60405162461bcd60e51b815260206004820152602760248201527f6f6e6c7920626f72726f776572206f72207661756c742061646d696e206f722060448201526636b0b730b3b2b960c91b6064820152608490fd5b50601a546001600160a01b03163314610f39565b50335f52601b60205260ff60405f205416610f32565b346102f8576101003660031901126102f8576004356084356024356001600160a01b0382166044356064358285036102f85760a4356001600160a01b03811691908290036102f85760c4359160e43561131060ff5f5460a01c1615612b41565b335f52601c60205260ff60405f205416801561186b575b8015611857575b61133790612b76565b885f52600460205260ff600a60405f2001541661182557600c5487116117e057855f52600660205260ff60405f20541661179b57851561175657811561171857855f5260036020528360405f2054106116c25784156116845780156116505783156116145786156115d857821561159d576040519361016085019285841067ffffffffffffffff851117611589576114c196600a958c9560405285885260208801918b8352604089018c815260608a01905f825260808b0192835260a08b0193845260c08b01948d865260e08c019687526101008c019788526101208c019889526101408c019960018b525f52600460205260405f209b518c555160018c01555160028b01555160038a015551600489015551600588015560018060a01b03905116600687019060018060a01b03166001600160601b0360a01b82541617905560018060a01b03905116600786019060018060a01b03166001600160601b0360a01b82541617905551600885015551600984015551151591019060ff801983541691151516179055565b805f52600660205260405f20600160ff198254161790555f52600760205260405f2080546801000000000000000081101561158957600181018083558110156115755784915f5260205f200155600b54916001830180931161156157600b92909255604080516001600160a01b03909316835260208301919091527f610c4ff9495a92527ce02188ab13f3a6476a85c6695e1e2c797c7c65d96f40c591a2005b634e487b7160e01b5f52601160045260245ffd5b634e487b7160e01b5f52603260045260245ffd5b634e487b7160e01b5f52604160045260245ffd5b60405162461bcd60e51b81526020600482015260136024820152724578706972792064617465206973207a65726f60681b6044820152606490fd5b60405162461bcd60e51b8152602060048201526014602482015273437265646974204c696d6974206973207a65726f60601b6044820152606490fd5b60405162461bcd60e51b8152602060048201526014602482015273546f6b656e20616d6f756e74206973207a65726f60601b6044820152606490fd5b60405162461bcd60e51b815260206004820152600c60248201526b72617465206973207a65726f60a01b6044820152606490fd5b60405162461bcd60e51b815260206004820152601660248201527511185a5b1e481c985d1948199959481b9bdd081cd95d60521b6044820152606490fd5b60405162461bcd60e51b815260206004820152602860248201527f696e73756666696369656e7420636f6c6c61746572616c20626f72726f7765726044820152670819195c1bdcda5d60c21b6064820152608490fd5b60405162461bcd60e51b8152602060048201526016602482015275496e76616c6964206c656e646572206164647265737360501b6044820152606490fd5b60405162461bcd60e51b815260206004820152601860248201527f496e76616c696420626f72726f776572206164647265737300000000000000006044820152606490fd5b60405162461bcd60e51b815260206004820152601e60248201527f426f72726f77657220686173206f766572647261667420616c726561647900006044820152606490fd5b60405162461bcd60e51b815260206004820152601f60248201527f65786365656473206d6178696d756d206f7665726472616674206c696d6974006044820152606490fd5b60405162461bcd60e51b815260206004820152600a6024820152697265662065786973747360b01b6044820152606490fd5b50601a546001600160a01b0316331461132e565b50335f52601b60205260ff60405f205416611327565b346102f85760203660031901126102f8576004356118a660ff5f5460a01c1615612b41565b6118b560026001541415612c8b565b600260015560145490811561197b576118ef817fd116803f8b8538a601b6096e8d1196e3ce3ef43dec6dbbe4cd4e5c69dd171d8b93612c32565b60145560025460155460405163a9059cbb60e01b602082019081526001600160a01b03928316602483015260448201859052611958935f93849391169190839061194681606481015b03601f198101835282612c10565b51925af1611952612e9a565b50612ed9565b601554604080516001600160a01b0390921682526020820192909252a160018055005b60405162461bcd60e51b8152602060048201526008602482015267020466565203e20360c41b6044820152606490fd5b346102f85760203660031901126102f8576004355f52600960205261012060405f2080549060018060a01b0360018201541690600281015460038201546004830154916006600585015494015494604051968752602087015260408601526060850152608084015260a083015260ff8116151560c083015260ff8160081c16151560e083015260018060a01b039060101c16610100820152f35b346102f85760203660031901126102f857600435611a6a60ff5f5460a01c1615612b41565b611a7960026001541415612c8b565b6002600155611a89811515612e61565b6002546040516323b872dd60e01b81523360048201523060248201526044810183905290602090829060649082905f906001600160a01b03165af1908115611ba4575f91611b69575b5015611b3257335f52600360205260405f20611aef828254612c3f565b90556002546040519182526001600160a01b03169033907ff1c0dd7e9b98bbff859029005ef89b127af049cd18df1a8d79f0b7e019911e5690602090a360018055005b60405162461bcd60e51b815260206004820152600f60248201526e1d1c985b9cd9995c8819985a5b1959608a1b6044820152606490fd5b90506020813d602011611b9c575b81611b8460209383612c10565b810103126102f8575180151581036102f85782611ad2565b3d9150611b77565b6040513d5f823e3d90fd5b346102f8575f3660031901126102f8576020601454604051908152f35b346102f85760203660031901126102f8576001600160a01b03611bed612a53565b16805f52600760205260405f20604051808260208294549384815201905f5260205f20925f5b818110611d82575050611c2892500382612c10565b6201518042045f925f5b8351811015611d4d57611c458185612e4d565b515f52600460205260405f2060ff600a8201541680611d2b575b611c6d575b50600101611c32565b60038101805480151580611d1e575b611c88575b5050611c64565b908297612710611ca3611cf594600460019897015490612cc3565b0491611cdf611cb660098c015485612cf4565b93885f52600360205260405f20611cce868254612c32565b905560028c016108e9828254612c32565b9055611ced82601454612c3f565b601455612c3f565b95545f52601860205260405f20845f5260205260405f208260ff19825416179055908680611c81565b5060048301541515611c7c565b5080545f52601860205260405f20845f5260205260ff60405f20541615611c5f565b7f64f9107da25908ab4035012fd9bebe2c1ddd02a8f18c68a85b80f4dd6941db4a6040866014549082519182526020820152a1005b8454835260019485019486945060209093019201611c13565b346102f8575f3660031901126102f8576020600c54604051908152f35b346102f85760203660031901126102f857611dd1612a53565b6001600160a01b03165f90815260076020908152604080832090518154808252918452828420909284928491820190845b818110611e87575050611e1792500383612c10565b5f5b8251811015611e7757611e2c8184612e4d565b515f52600460205260405f2060ff600a82015416611e4e575b50600101611e19565b91600191946008611e67611e7093600387015490612c3f565b94015490612c3f565b9390611e45565b6040828582519182526020820152f35b8454835260019485019487945060209093019201611e02565b346102f85760403660031901126102f8576001600160a01b03611ec1612a53565b165f52601760205260405f206024355f52602052602060405f2054604051908152f35b346102f85760403660031901126102f8576004355f52601860205260405f206024355f52602052602060ff60405f2054166040519015158152f35b346102f85760203660031901126102f8576001600160a01b03611f40612a53565b165f526003602052602060405f2054604051908152f35b346102f85760203660031901126102f857600435611f8060018060a01b03601a54163314612c4c565b611f8b811515612e0b565b601055005b346102f8575f3660031901126102f8575f546040516001600160a01b039091168152602090f35b346102f85760203660031901126102f857600435611fe060018060a01b03601a54163314612c4c565b611feb811515612dcf565b600c55005b346102f8575f3660031901126102f8576020600e54604051908152f35b346102f85760203660031901126102f85760043561203660018060a01b03601a54163314612c4c565b6120446103e8821115612d94565b600e55005b346102f8575f3660031901126102f8575f5461206f336001600160a01b03831614612b09565b60ff60a01b1916600160a01b175f55005b346102f8576020610ba661209336612ada565b9061326e565b346102f8575f3660031901126102f8576020600b54604051908152f35b346102f85760203660031901126102f8576004356120db60ff5f5460a01c1615612b41565b6120ea60026001541415612c8b565b60026001556120f9338261306c565b6002546040519182526001600160a01b03169033907f45892a46e6cef329bb642da6d69846d324db43d19008edc141ed82382eda1bee90602090a360018055005b346102f8575f3660031901126102f8576020601054604051908152f35b346102f85760203660031901126102f8576001600160a01b03612178612a53565b165f52601c602052602060ff60405f2054166040519015158152f35b346102f8575f3660031901126102f8576020601254604051908152f35b346102f8575f3660031901126102f857602060ff5f5460a01c166040519015158152f35b612af0565b346102f8575f3660031901126102f8576020600f54604051908152f35b346102f85760203660031901126102f85760043561222060018060a01b03601a54163314612c4c565b61222b811515612d58565b600f55005b346102f8575f3660031901126102f8576020601954604051908152f35b346102f85760403660031901126102f8577fc06b3ea10f261e1046d2465e60a4d2728421b1da49c730dd4663b047b9b28863612287612a53565b61228f612a7f565b906122a560018060a01b03601a54163314612c4c565b6001600160a01b0381165f908152600a60205260409020805460ff191660ff841515161790555b604080516001600160a01b039290921682529115156020820152a1005b346102f85760403660031901126102f8577f4c98db678b2e31985e27aeef62d618a7b85f3f7083232fa923f6c083392301f7612323612a53565b61232b612a7f565b9061234160018060a01b03601a54163314612c4c565b6001600160a01b0381165f908152601b60205260409020805460ff191660ff841515161790556122cc565b346102f85760403660031901126102f857600435612388612a69565b9061239a60ff5f5460a01c1615612b41565b6123a960026001541415612c8b565b6002600155335f52601c60205260ff60405f2054168015612436575b8015612422575b6123d590612b76565b6123df828261306c565b6002546040519182526001600160a01b039081169216907f45892a46e6cef329bb642da6d69846d324db43d19008edc141ed82382eda1bee90602090a360018055005b50601a546001600160a01b031633146123cc565b50335f52601b60205260ff60405f2054166123c5565b346102f8575f3660031901126102f85761247060018060a01b035f54163314612b09565b5f805460ff60a01b19169055005b346102f85760403660031901126102f8577fc9c53b8c9ea205af19a608c901ecdec828651a2ebe5acb40e49eeeb8c08ce5106124b8612a53565b6124c0612a7f565b906124d660018060a01b03601a54163314612c4c565b6001600160a01b0381165f908152601c60205260409020805460ff191660ff841515161790556122cc565b346102f8575f3660031901126102f8576020601154604051908152f35b346102f8575f3660031901126102f8576020601354604051908152f35b346102f85760203660031901126102f85760043561256460018060a01b03601a54163314612c4c565b801561256f57601355005b60405162461bcd60e51b815260206004820152600c60248201526b496e76616c6964207261746560a01b6044820152606490fd5b346102f85760203660031901126102f8576004355f52600860205260405f20805490610e69600182015492600283015492600381015494600482015460ff60066005850154940154169360405197889760ff8460a81c169460ff8560a01c169460018060a01b0316938a612a8e565b346102f85760203660031901126102f85760043561263b60018060a01b03601a54163314612c4c565b62278d00811161264a57600d55005b60405162461bcd60e51b815260206004820152601160248201527054494d454c4f434b5f544f4f5f4c4f4e4760781b6044820152606490fd5b346102f8576101003660031901126102f857602435600435604435801515908181036102f8576064359160843560e435906126c560ff5f5460a01c1615612b41565b335f52601c60205260ff60405f20541680156128e2575b80156128ce575b6126ec90612b76565b855f52600460205260405f209461270960ff600a88015416612bb8565b875f52600560205260ff600660405f200154166128985760405161010081019080821067ffffffffffffffff831117611589577f785ff45b7dd31a9884f4d13ca36c72b6cb5dc355fc116c7d733033e4770d98d197608097612821888d61280a60068f976009988d9a6040528152898b6020830196868852604084019081526127e1606085019160c43583526080860193845260a0860194855260c086019960018b5260e08701995f8b525f52600560205260405f2096518755516001870155511515600286019060ff801983541691151516179055565b5160038401555160048301555160058201550192511515839060ff801983541691151516179055565b51815461ff00191690151560081b61ff0016179055565b156128715760018101612835858254612c3f565b905560028101612846858254612c3f565b90555b84600482015560a43560058201550155604051938452602084015260408301526060820152a3005b60018101612880858254612c32565b905560028101612891858254612c32565b9055612849565b60405162461bcd60e51b815260206004820152600e60248201526d7472616e7265662065786973747360901b6044820152606490fd5b50601a546001600160a01b031633146126e3565b50335f52601b60205260ff60405f2054166126dc565b346102f85760203660031901126102f8576004355f52600460205261016060405f20805490600181015490600281015460038201546004830154600584015460018060a01b036006860154169160018060a01b036007870154169360088701549560ff600a60098a015499015416986040519a8b5260208b015260408a01526060890152608088015260a087015260c086015260e08501526101008401526101208301521515610140820152f35b346102f85760203660031901126102f8576129bf612a53565b6129d360018060a01b035f54163314612b09565b601a546001600160a01b0391821691829082167f98c30f3cc89b3424f24027a22c5e438aa46755c070cb392f5cf69f439b8cb05c5f80a36001600160a01b03191617601a55005b346102f85760203660031901126102f8576020906001600160a01b03612a3e612a53565b165f52600a825260ff60405f20541615158152f35b600435906001600160a01b03821682036102f857565b602435906001600160a01b03821682036102f857565b6024359081151582036102f857565b979491926101009794919a9996936101208a019b8a5260208a01526040890152606088015260018060a01b03166080870152151560a0860152151560c085015260e08401521515910152565b60409060031901126102f8576004359060243590565b346102f8576020610ba6612b0336612ada565b90612cf4565b15612b1057565b60405162461bcd60e51b81526020600482015260096024820152682727aa2fa7aba722a960b91b6044820152606490fd5b15612b4857565b60405162461bcd60e51b815260206004820152600660248201526514105554d15160d21b6044820152606490fd5b15612b7d57565b60405162461bcd60e51b8152602060048201526013602482015272637265646974206f666669636572206f6e6c7960681b6044820152606490fd5b15612bbf57565b60405162461bcd60e51b815260206004820152600c60248201526b1b9bc81bdd995c991c98599d60a21b6044820152606490fd5b610120810190811067ffffffffffffffff82111761158957604052565b90601f8019910116810190811067ffffffffffffffff82111761158957604052565b9190820391821161156157565b9190820180921161156157565b15612c5357565b60405162461bcd60e51b815260206004820152601060248201526f7661756c742061646d696e206f6e6c7960801b6044820152606490fd5b15612c9257565b60405162461bcd60e51b815260206004820152600960248201526814915153951490539560ba1b6044820152606490fd5b8181029291811591840414171561156157565b8115612ce0570490565b634e487b7160e01b5f52601260045260245ffd5b908015612d1357612d0b612d109260125490612cc3565b612cd6565b90565b60405162461bcd60e51b815260206004820152601a60248201527f746f6b656e20746f20666961742072617465206973207a65726f0000000000006044820152606490fd5b15612d5f57565b60405162461bcd60e51b815260206004820152600d60248201526c1253959053125117d111509255609a1b6044820152606490fd5b15612d9b57565b60405162461bcd60e51b815260206004820152600c60248201526b08c8a8abea89e9ebe90928e960a31b6044820152606490fd5b15612dd657565b60405162461bcd60e51b815260206004820152600d60248201526c1253959053125117d312535255609a1b6044820152606490fd5b15612e1257565b60405162461bcd60e51b81526020600482015260136024820152721253959053125117d11052531657d312535255606a1b6044820152606490fd5b80518210156115755760209160051b010190565b15612e6857565b60405162461bcd60e51b815260206004820152600a6024820152690616d6f756e74203e20360b41b6044820152606490fd5b3d15612ed4573d9067ffffffffffffffff82116115895760405191612ec9601f8201601f191660200184612c10565b82523d5f602084013e565b606090565b15612ee057565b60405162461bcd60e51b815260206004820152601160248201527019985a5b1959081dda5d1a191c985dd85b607a1b6044820152606490fd5b15612f2057565b60405162461bcd60e51b815260206004820152601c60248201527f696e73756666696369656e7420617661696c61626c65206c696d6974000000006044820152606490fd5b15612f6c57565b60405162461bcd60e51b815260206004820152600e60248201526d7061796d656e742065786973747360901b6044820152606490fd5b15612fa957565b60405162461bcd60e51b815260206004820152601760248201527f696e73756666696369656e7420636f6c6c61746572616c0000000000000000006044820152606490fd5b15612ff557565b60405162461bcd60e51b8152602060048201526014602482015273696e73756666696369656e742062616c616e636560601b6044820152606490fd5b1561303857565b60405162461bcd60e51b815260206004820152600c60248201526b6d616e61676572206f6e6c7960a01b6044820152606490fd5b613077811515612e61565b60018060a01b03821691825f5260036020526130998260405f20541015612fa2565b6013541561323d5760125491821561320057835f52600760205260405f2091604051808160208654928381520180965f5260205f20925f5b8181106131e75750506130e692500382612c10565b51156115755761316a945f94848695505185526004602052604085209060ff600a8301541661316c575b50508352600360205260408320613128838254612c32565b905560025460405163a9059cbb60e01b602082019081526001600160a01b03938416602483015260448201949094529116919083906119468160648101611938565b565b6131a96131de91612d0b60038501546131a38961101661319160098a01548095612cf4565b8a8e52600360205260408e2054612c32565b88612cc3565b600183019260028454916131bd8484612c32565b5001936131d7838654936131d18286612c32565b50612c32565b9055612c32565b90555f80613110565b84548352600194850194869450602090930192016130d1565b60405162461bcd60e51b81526020600482015260156024820152741d1bdad95b88191958da5b585b081b9bdd081cd95d605a1b6044820152606490fd5b60405162461bcd60e51b81526020600482015260096024820152687a65726f207261746560b81b6044820152606490fd5b60135480156132f85760125480156132c357612d0b6132909261329994612cc3565b60115490612cc3565b9080156132bc5760648202918083046064149015171561156157612d1091612cd6565b5050606490565b60405162461bcd60e51b815260206004820152600d60248201526c5554494c495a45445f5a45524f60981b6044820152606490fd5b60405162461bcd60e51b8152602060048201526009602482015268524154455f5a45524f60b81b6044820152606490fdfea264697066735822122034266795f25d506374951fc4eccdff5397c7246a8f1d0fab65c0552c0bf1b4cd64736f6c634300081e0033",
  "source": "// SPDX-License-Identifier: MIT\npragma solidity ^0.8.23;\n\nimport \"./Ownable.sol\";\nimport \"./Pausable.sol\";\nimport \"./OverdraftLineVaultStorageV2.sol\";\nimport \"./ReentrancyGuard.sol\";\n\ncontract OverdraftLineVault is Ownable, Pausable, ReentrancyGuard {\n    \n \n    address token;\n\n    //mapping(address => CollateralPosition) internal _positions;\n    mapping(address => uint256) public balances;\n    mapping(bytes32 => Overdraft) public overdrafts;\n    mapping(bytes32 => CreditLimitAdjustment) public creditLimitAdjustments;\n    mapping(address => bool) private hasActiveOverdraft;\n    mapping(address => bytes32[]) private borrowerOverdraftRefs;\n    mapping(bytes32 => DebitTransaction) public debitTransactions;\n    mapping(bytes32 => RepaymentTransaction) public amountsPaid;\n    //mapping(address => uint256) public tokenPrice; // token => price (fiat with 18 decimals)\n    mapping(address => bool) public borrowerWhitelisted;\n\n    // configuration\n    uint256 public activeOverdraftCount;\n    uint256 public maximumOverdraftLimit = 1_000_000 * 100;\n    uint256 public timelockAfterApproval = 1 days;\n    uint256 public globalFeeBps = 50;\n    uint256 public maximumDebitAmount = 100_000 * 100;\n    uint256 public maximumDailyLimit = 200_000 * 100;\n    //uint256 public constant DECIMALS_18 = 1e18;\n    uint256 public nativeDecimal; // = 1e18;\n    uint256 public tokenDecimal;\n    uint256 public tokenToFiatRate;\n    uint256 public totalFeeCollected;\n    address public platformFeeAddress;\n    address public contractOwner;\n\n    mapping(address => mapping(uint256 => uint256)) public dailyUsedByBorrower;\n    mapping(bytes32 => mapping(uint256 => bool)) public dailyOverdraftFee;\n\n    // Rescue protection\n    uint256 public rescueAllowedAfter; // timestamp when owner may call rescueERC20 (must be paused)\n\n    // --- Roles & governance ---\n    address public vaultAdmin; // can manage managers/credit officers, whitelist, set params\n    mapping(address => bool) public managers;\n    mapping(address => bool) public creditOfficers;\n\n    modifier onlyVaultAdmin() {\n        require(msg.sender == vaultAdmin, \"vault admin only\");\n        _;\n    }\n    modifier onlyManager() {\n        require(managers[msg.sender] || msg.sender == vaultAdmin , \"manager only\");\n        _;\n    }\n    modifier onlyCreditOfficer() {\n        require(creditOfficers[msg.sender] || managers[msg.sender] || msg.sender == vaultAdmin , \"credit officer only\");\n        _;\n    }\n\n    constructor(address _vaultAdmin, address _token, uint256 _tokenDecimal, uint256 _nativeDecimal ) {\n        transferOwnership(msg.sender);\n        vaultAdmin = _vaultAdmin;\n        token = _token;\n        tokenDecimal = _tokenDecimal;\n        nativeDecimal = _nativeDecimal;\n        contractOwner = msg.sender;\n    }\n    \n    // --- Helpers ---\n    function _dayOf(uint256 ts) internal pure returns (uint256) { return ts / 1 days; }\n\n    // --- Role management ---\n    function setVaultAdmin(address _newAdmin) external onlyOwner {\n        emit VaultAdminChanged(vaultAdmin, _newAdmin);\n        vaultAdmin = _newAdmin;\n    }\n    function toggleManager(address _mgr, bool _enable) external onlyVaultAdmin {\n        managers[_mgr] = _enable;\n        emit ManagerToggled(_mgr, _enable);\n    }\n    function toggleCreditOfficer(address _o, bool _enable) external onlyVaultAdmin {\n        creditOfficers[_o] = _enable;\n        emit CreditOfficerToggled(_o, _enable);\n    }\n\n    // --- Pause/unpause ---\n    /*function pause() external onlyVaultAdmin {\n        _pause();\n        emit PausedContract();\n    }\n    function unpause() external onlyVaultAdmin {\n        _unpause();\n        emit UnpausedContract();\n    }*/\n\n    // SETTER FUNCTIONS (ADMIN ONLY)\n\n    // Set maximum overdraft limit\n    function setMaximumOverdraftLimit(uint256 newLimit) external onlyVaultAdmin {\n        require(newLimit > 0, \"INVALID_LIMIT\");\n        maximumOverdraftLimit = newLimit;\n    }\n\n    // Set timelock (in seconds)\n    function setTimelockAfterApproval(uint256 newTimelock) external onlyVaultAdmin {\n        require(newTimelock <= 30 days, \"TIMELOCK_TOO_LONG\");\n        timelockAfterApproval = newTimelock;\n    }\n\n    // Set fee rate (basis points)\n    function setGlobalFeeBps(uint256 newFeeBps) external onlyVaultAdmin {\n        require(newFeeBps <= 1000, \"FEE_TOO_HIGH\"); // max 10%\n        globalFeeBps = newFeeBps;\n    }\n\n    // Set max debit amount per transaction\n    function setMaximumDebitAmount(uint256 newMaxDebit) external onlyVaultAdmin {\n        require(newMaxDebit > 0, \"INVALID_DEBIT\");\n        maximumDebitAmount = newMaxDebit;\n    }\n\n    // Set daily spending limit\n    function setMaximumDailyLimit(uint256 newDailyLimit) external onlyVaultAdmin {\n        require(newDailyLimit > 0, \"INVALID_DAILY_LIMIT\");\n        maximumDailyLimit = newDailyLimit;\n    }\n\n    // Set daily spending limit\n    function setConfigValues(uint256 rate ) external onlyVaultAdmin {\n        require(rate > 0, \"Invalid rate\");\n        tokenToFiatRate = rate;\n    }\n\n    // Set daily spending limit\n    function setRatesAndLimits(uint256 _newDailyLimit, uint256 _newMaxDebit,uint256 _newLimit,uint256 _newFeeBps ) external onlyVaultAdmin {\n        require(_newDailyLimit > 0, \"INVALID_DAILY_LIMIT\");\n        require(_newMaxDebit > 0, \"INVALID_DEBIT\");\n        require(_newLimit > 0, \"INVALID_LIMIT\");\n        require(_newFeeBps <= 1000, \"FEE_TOO_HIGH\");\n        \n        maximumDebitAmount = _newMaxDebit;\n        maximumOverdraftLimit = _newLimit;\n        globalFeeBps = _newFeeBps;\n        maximumDailyLimit = _newDailyLimit;\n       \n    }\n\n    // --- Collateral deposit/withdraw ---\n    function depositCollateral( uint256 amount) external whenNotPaused nonReentrant {\n        require(amount > 0, \"amount > 0\");\n        // Effects\n       \n        require(ITRC20(token).transferFrom(msg.sender, address(this), amount), \"transfer failed\");\n        balances[msg.sender] += amount;\n       \n        emit CollateralDeposited(msg.sender, token, amount);\n    }\n\n    function withdrawCollateral(uint256 amount) external whenNotPaused nonReentrant {\n    \n        _releaseFund(amount, msg.sender);\n        emit CollateralWithdrawn(msg.sender, token, amount);\n    }\n\n    function releaseFundToLender(uint256 amount,address lender) external whenNotPaused nonReentrant onlyCreditOfficer {\n      \n      _releaseFund(amount, lender);\n      emit CollateralWithdrawn(lender, token, amount);\n    }\n\n    function _releaseFund(uint256 amount,address lender) internal  {\n        require(amount > 0, \"amount > 0\");\n        require(balances[lender] >= amount, \"insufficient collateral\");\n        require(tokenToFiatRate > 0, \"zero rate\");\n        require(tokenDecimal > 0 , \"token decimal not set\");\n        \n      \n        //(limitUsed, totalTokenAmount) = _totalUtilizedLimit(msg.sender);\n         bytes32[] memory refs = borrowerOverdraftRefs[lender];\n         Overdraft storage od = overdrafts[refs[0]];\n         if(od.exists)\n         {\n            uint256 tokenValueUsed = _utilizedAmountInToken(od.utilizedLimit,od.tokenToFiatRate);\n            uint256 availableBalance = balances[lender] - tokenValueUsed;\n            require(availableBalance >= amount, \"insufficient balance\");\n\n            uint256 fiatAmt = _collateralTokenAmountInFiat(amount,od.tokenToFiatRate);\n            require( (od.creditLimit - fiatAmt) >= 0 , \"no credit limit left\" );\n            require( (od.availableLimit - fiatAmt) >= 0 , \"no credit limit left\" );\n            \n            od.creditLimit -= fiatAmt;\n            od.availableLimit -= fiatAmt;\n         }\n\n        // Effects: reduce first\n        balances[lender] -= amount;\n       \n        //require(ITRC20(token).transfer(lender, amount),\"token transfer failed\");\n        ITRC20 tokenA = ITRC20(token);\n         (bool success, bytes memory data) = address(tokenA).call(\n                abi.encodeWithSelector(tokenA.transfer.selector, lender, amount)\n         );\n        require(success, \"failed withdrawal\");\n        \n    }\n\n    // --- Overdraft management ---\n    function postOverdraftLine(\n        bytes32 ref,\n        uint256 creditLimit,\n        uint256 feeBps,\n        uint256 expiry,\n        address borrower,\n        address lender,\n        uint256 tokenAmount,\n        uint256 _tokenToFiatRate\n    ) external whenNotPaused onlyCreditOfficer {\n        require(!overdrafts[ref].exists, \"ref exists\");\n        require(creditLimit <= maximumOverdraftLimit, \"exceeds maximum overdraft limit\");\n        require(!hasActiveOverdraft[borrower], \"Borrower has overdraft already\");\n        require(borrower != address(0), \"Invalid borrower address\");\n        require(lender != address(0), \"Invalid lender address\");\n        require(balances[borrower] >= tokenAmount,\"insufficient collateral borrower deposit\");\n        require(feeBps > 0, \"Daily rate fee not set\");\n        require(_tokenToFiatRate > 0, \"rate is zero\");\n        require(tokenAmount > 0, \"Token amount is zero\");\n        require(creditLimit > 0, \"Credit Limit is zero\");\n        require(expiry > 0, \"Expiry date is zero\");\n\n        overdrafts[ref] = Overdraft({\n            ref: ref,\n            creditLimit: creditLimit,\n            availableLimit: creditLimit,\n            utilizedLimit: 0,\n            fee: feeBps,\n            expiry: expiry,\n            borrower: borrower,\n            lender: lender,\n            tokenAmount: tokenAmount,\n            tokenToFiatRate: _tokenToFiatRate,\n            exists: true\n        });\n        hasActiveOverdraft[borrower] = true;\n        borrowerOverdraftRefs[borrower].push(ref);\n        activeOverdraftCount += 1;\n        emit OverdraftPosted(ref, borrower, creditLimit);\n    }\n\n    // borrower posts debit transaction (creates a payment against credit)\n    function postDebitTransaction(bytes32 paymentRef, uint256 fiatAmount, bytes32 creditRef, uint256 amount, uint256 rate) external whenNotPaused nonReentrant {\n        Overdraft storage od = overdrafts[creditRef];\n        require(od.exists, \"no overdraft\");\n        require(msg.sender == od.borrower || managers[msg.sender] || msg.sender == vaultAdmin, \"only borrower or vault admin or manager\");\n        require(fiatAmount > 0, \"fiatAmount zero\");\n        require(fiatAmount <= maximumDebitAmount, \"exceeds max debit amount\");\n        uint256 day = _dayOf(block.timestamp);\n        require(dailyUsedByBorrower[od.borrower][day] + fiatAmount <= maximumDailyLimit, \"exceeds daily limit\");\n        require(od.availableLimit >= fiatAmount, \"insufficient available limit\");\n        require(!debitTransactions[paymentRef].exists , \"payment exists\");\n\n        uint256 tokenValueUsed = _utilizedAmountInToken(od.utilizedLimit,od.tokenToFiatRate);\n        require(balances[od.borrower] >= tokenValueUsed, \"insufficient collateral\");\n        uint256 availableBalance = balances[od.borrower] - tokenValueUsed;\n        require(availableBalance >= amount, \"insufficient balance\");\n\n        // Effects\n        debitTransactions[paymentRef] = DebitTransaction({\n            creditRef: creditRef,\n            fiatAmount: fiatAmount,\n            amount: amount,\n            rate: rate,\n            payer: msg.sender,\n            markedPaid: false,\n            approved: false,\n            approveReleaseTimestamp: 0,\n            exists: true\n        });\n        od.availableLimit -= fiatAmount;\n        od.utilizedLimit += fiatAmount;\n        dailyUsedByBorrower[od.borrower][day] += fiatAmount;\n\n        emit DebitTransactionPosted(paymentRef, creditRef, fiatAmount,amount,rate);\n    }\n\n    // manager post repayment paid (records payment as paid and stores AmountPaid)\n    function postRepayment(bytes32 paymentRef, address borrower, uint256 fiatAmount, uint256 amount, uint256 rate, bytes32 creditRef) external whenNotPaused onlyManager {\n        \n        Overdraft storage od = overdrafts[creditRef];\n        require(od.exists, \"no overdraft\");\n        require(borrower == od.borrower, \"not borrower\");\n        require(!amountsPaid[paymentRef].exists , \"payment exists\");\n\n        od.availableLimit += fiatAmount;\n        od.utilizedLimit -= fiatAmount;\n    \n        amountsPaid[paymentRef] = RepaymentTransaction({tranRef: paymentRef, borrower: borrower,\n        amount: amount, fiatAmount: fiatAmount, rate: rate, creditRef: creditRef, exists:true,\n        approved:false,postedBy: msg.sender });\n\n        emit PaymentMarkedPaid(paymentRef, creditRef, amount, fiatAmount, rate, msg.sender);\n    }\n\n    // vault admin approves marked payment and starts timelock for borrower withdrawal\n    function approveRepayment(bytes32 paymentRef, bytes32 creditRef) external whenNotPaused onlyVaultAdmin {\n        RepaymentTransaction storage tp = amountsPaid[paymentRef];\n        require(tp.exists, \"no payment\");\n        require(tp.creditRef == creditRef, \"credit mismatch\");\n        //require(du.markedPaid, \"not marked\");\n        require(!tp.approved, \"already approved\");\n        require(tp.postedBy != msg.sender, \"same address cannot post and approve\");\n\n        Overdraft storage od = overdrafts[creditRef];\n        require(od.exists, \"no overdraft\");\n   \n        //od.availableLimit += tp.fiatAmount;\n        //od.utilizedLimit -= tp.fiatAmount;\n        tp.approved = true;\n\n        //du.approveReleaseTimestamp = block.timestamp + timelockAfterApproval;\n\n        emit PaymentApproved(paymentRef, creditRef);\n    }\n\n   \n    // whitelist borrower\n    function whitelistBorrower(address borrower, bool allowed) external onlyVaultAdmin {\n        borrowerWhitelisted[borrower] = allowed;\n        emit BorrowerWhitelisted(borrower, allowed);\n    }\n\n    // post daily fee and deduct from collateral. Manager only.\n    function postDailyFee(bytes32 creditRef) external whenNotPaused nonReentrant onlyManager {\n        Overdraft storage od = overdrafts[creditRef];\n        require(od.exists, \"no overdraft\");\n        address borrower = od.borrower;\n               \n        require(od.utilizedLimit > 0, \"no utilized fund\");\n        \n        uint256 day = _dayOf(block.timestamp);\n        //daily fee amount\n        // daily fee in fiat\n        uint256 feeAmtFiat = (od.utilizedLimit * od.fee) / 10000;\n        //uint256 feeAmt =  (od.utilizedLimit * od.fee) / 10000;\n        // convert fee to token units (6 decimals)\n        uint256 feeAmtToken = _utilizedAmountInToken(feeAmtFiat,od.tokenToFiatRate);\n\n        require(!dailyOverdraftFee[od.ref][day], \"daily fee already posted\");\n        require(balances[borrower] >= feeAmtToken, \"insufficient collateral balance\");\n        require(od.availableLimit >= feeAmtFiat, \"insufficient available limit\");\n\n        // Deduct\n        balances[borrower] -= feeAmtToken;\n        od.availableLimit -= feeAmtFiat;\n        od.utilizedLimit += feeAmtFiat;\n        totalFeeCollected += feeAmtToken;\n        dailyOverdraftFee[od.ref][day] = true;\n        emit DailyFeePosted(creditRef, feeAmtToken);\n    }\n\n    function processBulkDailyFee(address borrower) external  {\n        bytes32[] memory refs = borrowerOverdraftRefs[borrower];\n        uint256 day = _dayOf(block.timestamp);\n        uint256 todayFee =0;\n    \n        for (uint256 i = 0; i < refs.length; i++) {\n            Overdraft storage od = overdrafts[refs[i]];\n            if (od.exists && !dailyOverdraftFee[od.ref][day]) {\n                \n                if(od.utilizedLimit > 0 && od.fee > 0) {\n\n                    uint256 feeAmtFiat = (od.utilizedLimit * od.fee) / 10000;\n                    uint256 feeAmtToken = _utilizedAmountInToken(feeAmtFiat,od.tokenToFiatRate);\n                    \n                    balances[borrower] -= feeAmtToken;\n                    od.availableLimit -= feeAmtFiat;\n                    od.utilizedLimit += feeAmtFiat;\n                    totalFeeCollected += feeAmtToken;\n                    todayFee += feeAmtToken;\n                    dailyOverdraftFee[od.ref][day] = true;\n                }\n            }\n        }\n\n        emit DailyBulkFeePosted(totalFeeCollected, todayFee);\n    }\n\n    function withdrawFee(uint256 amount) external whenNotPaused nonReentrant {\n        require(totalFeeCollected > 0, \" Fee > 0\");\n        \n        totalFeeCollected -= amount;\n        ITRC20 tokenA = ITRC20(token);\n         (bool success, bytes memory data) = address(tokenA).call(\n                abi.encodeWithSelector(tokenA.transfer.selector, platformFeeAddress, amount)\n         );\n        require(success, \"failed withdrawal\");\n        emit PlatformFeeWithdrawn(platformFeeAddress, amount);\n    }\n\n    function modifyOverdraftLine(\n        bytes32 ref,\n        bytes32 tranRef,\n        bool topup,\n        uint256 fiatAmount,\n        uint256 feeBps,\n        uint256 expiry,\n        uint256 tokenAmount,\n        uint256 _tokenToFiatRate\n    ) external whenNotPaused onlyCreditOfficer {\n\n        Overdraft storage od = overdrafts[ref];\n        require(od.exists, \"no overdraft\");\n        require(!creditLimitAdjustments[tranRef].exists, \"tranref exists\");\n\n           creditLimitAdjustments[tranRef] = CreditLimitAdjustment({\n                creditRef: ref,\n                tranRef: tranRef,\n                topup: topup,\n                amount: tokenAmount,\n                fiatAmount: fiatAmount,\n                rate: _tokenToFiatRate,\n                exists: true,\n                approved: false\n            }); \n\n            if(topup) {\n                od.creditLimit += fiatAmount;\n                od.availableLimit += fiatAmount;\n            }\n            else \n            {\n                od.creditLimit -= fiatAmount;\n                od.availableLimit -= fiatAmount;\n            }\n            od.fee = feeBps;\n            od.expiry = expiry;\n            od.tokenToFiatRate = _tokenToFiatRate;\n\n        emit CreditLimitAdjusted( ref, tranRef, topup,  fiatAmount,  feeBps,  _tokenToFiatRate);\n           \n\n    }\n \n    function _computeHealthFactor(\n        uint256 tokenAmount,  // 6 decimals\n        uint256 utilizedAmount             // 18 decimals\n    )  internal view returns (uint256) {\n       \n        require(tokenToFiatRate > 0, \"RATE_ZERO\");       // Ensure rate is set\n        require(tokenDecimal > 0, \"UTILIZED_ZERO\");  \n        // Convert collateral to NGN (no decimals added)\n        uint256 collateralValue = (tokenAmount * tokenToFiatRate) / tokenDecimal;\n\n        // Scale collateral to 18 decimals to match utilized amount\n        collateralValue = collateralValue * nativeDecimal;\n        if(utilizedAmount == 0)\n           return 100;\n\n        // HF = collateral / utilized, scaled to 1e18\n        return collateralValue * 100 / utilizedAmount;\n    }\n\n    function computeHealthFactor(uint256 tokenAmount,uint256 utilizedAmount)  external view returns (uint256) {\n        return _computeHealthFactor(tokenAmount,utilizedAmount);\n    }\n\n    function overdraftLineHealthFactor(bytes32 creditRef)  external view returns (uint256) {\n        Overdraft storage od = overdrafts[creditRef];\n        require(od.exists, \"no overdraft\");\n        return _computeHealthFactor(od.tokenAmount,od.utilizedLimit);\n    }\n\n    function _collateralTokenAmountInFiat(uint256 tokenAmount, uint256 _tokenToFiatRate)  internal view returns (uint256) {\n        // GBP = (USDT * 1e18) / rate\n        //(usdtAmount6 * rate) / DECIMALS_6\n         require(tokenDecimal > 0, \"Token Decimal is zero\"); // prevent divide by zero\n        return (tokenAmount * _tokenToFiatRate) / tokenDecimal;\n    }\n\n    function _utilizedAmountInToken(uint256 utilizedAmount, uint256 _tokenToFiatRate)  internal view returns (uint256) {\n       require(_tokenToFiatRate > 0, \"token to fiat rate is zero\"); // prevent divide by zero\n       return (utilizedAmount * tokenDecimal) / _tokenToFiatRate;\n    }\n\n    function utilizedAmountInToken(uint256 utilizedAmount,uint256 _tokenToFiatRate)  external view returns (uint256) {\n       \n       require(_tokenToFiatRate > 0, \"token to fiat rate is zero\");\n       return (utilizedAmount * tokenDecimal) / _tokenToFiatRate;\n    }\n\n    function _totalUtilizedLimit(address borrower) internal view returns (uint256 totalUtilized, uint256 totalTokenAmount) {\n        bytes32[] memory refs = borrowerOverdraftRefs[borrower];\n\n        for (uint256 i = 0; i < refs.length; i++) {\n            Overdraft storage od = overdrafts[refs[i]];\n            if (od.exists) {\n                totalUtilized += od.utilizedLimit;\n                totalTokenAmount += od.tokenAmount;\n            }\n        }\n    }\n\n    function getTotalUtilizedLimit(address borrower) external view returns (uint256 totalUtilized,\n    uint256 totalTokenAmount) {\n       (totalUtilized,totalTokenAmount) = _totalUtilizedLimit(borrower);\n    }\n    function getUtilizedAmountInToken(uint256 utilizedAmount,uint256 _tokenToFiatRate) external view returns (uint256) {\n       \n       require(_tokenToFiatRate > 0, \"token to fiat rate is zero\");\n       return (utilizedAmount * tokenDecimal) / _tokenToFiatRate;\n    }\n\n    function fetchBorrowerDepositCollateral(address borrower) external view returns (uint256) {\n       \n       return balances[borrower];\n    }\n\n    function fetchOverdraft(bytes32 ref) \n        external \n        view \n        returns (\n            bytes32 refOut,\n            uint256 creditLimit,\n            uint256 availableLimit,\n            uint256 utilizedLimit,\n            uint256 fee,\n            uint256 expiry,\n            address borrower,\n            address lender,\n            uint256 tokenAmount,\n            uint256 _tokenToFiatRate,\n            uint256 healthFactor,\n            uint256 tokenBalance\n        ) \n    {\n        Overdraft storage od = overdrafts[ref];\n        require(od.exists, \"OVERDRAFT_NOT_FOUND\");\n        uint256 hf = _computeHealthFactor(od.tokenAmount,od.utilizedLimit);\n\n        return (\n            od.ref,\n            od.creditLimit,\n            od.availableLimit,\n            od.utilizedLimit,\n            od.fee,\n            od.expiry,\n            od.borrower,\n            od.lender,\n            od.tokenAmount,\n            od.tokenToFiatRate,\n            hf, \n            balances[od.borrower]\n        );\n    }\n\n    function fetchDebitTransaction(bytes32 paymentRef) \n        external \n        view \n        returns (\n            bytes32 creditRef,\n            uint256 fiatAmount,\n            uint256 amount,\n            uint256 rate,\n            address payer,\n            bool markedPaid,\n            bool approved,\n            uint256 approveReleaseTimestamp,\n            bool exists\n        ) \n    {\n        DebitTransaction storage dt = debitTransactions[paymentRef];\n        require(dt.exists, \"DEBIT_TRANSACTION_NOT_FOUND\");\n\n        return (\n            dt.creditRef,\n            dt.fiatAmount,\n            dt.amount,\n            dt.rate,\n            dt.payer,\n            dt.markedPaid,\n            dt.approved,\n            dt.approveReleaseTimestamp,\n            dt.exists\n        );\n    }\n\n    function fetchRepaymentTransaction(bytes32 tranRef) \n        external \n        view \n        returns (\n            bytes32 tranRefOut,\n            address borrower,\n            uint256 amount,\n            uint256 fiatAmount,\n            uint256 rate,\n            bytes32 creditRef,\n            bool exists,\n            bool approved\n        ) \n    {\n        RepaymentTransaction storage rp = amountsPaid[tranRef];\n        require(rp.exists, \"REPAYMENT_TRANSACTION_NOT_FOUND\");\n\n        return (\n            rp.tranRef,\n            rp.borrower,\n            rp.amount,\n            rp.fiatAmount,\n            rp.rate,\n            rp.creditRef,\n            rp.exists,\n            rp.approved\n        );\n    }\n\n    function fetchVaultSettings() \n        external \n        view \n        returns (\n            uint256 noOfOverdrafts,\n            uint256 _maximumOverdraftLimit,\n            uint256 _globalFeeBps,\n            uint256 _maximumDebitAmount,\n            uint256 _maximumDailyLimit,\n            uint256 _tokenToFiatRate,\n            uint256 _totalFeeCollected,\n            uint256 _tokenDecimal\n            \n        ) \n    {\n       \n        return (\n           \n             activeOverdraftCount,\n             maximumOverdraftLimit,\n             globalFeeBps,\n            maximumDebitAmount,\n            maximumDailyLimit,\n            tokenToFiatRate,\n            totalFeeCollected,\n            tokenDecimal\n        );\n    }\n\n\n\n\n    \n\n\n\n\n}",
  "sourcePath": "C:/workspace/tronbfpay/contracts/v5/OverdraftLineVault.sol",
  "compiler": {
    "name": "solc",
    "version": "0.8.30+commit.73712a01.Emscripten.clang"
  },
  "schemaVersion": "2.0.1",
  "updatedAt": "2025-12-10T22:41:13.042Z"
}