{
  "contractName": "P2PExchange",
  "abi": [
    {
      "constant": true,
      "inputs": [],
      "name": "offerCount",
      "outputs": [
        {
          "name": "",
          "type": "uint256"
        }
      ],
      "payable": false,
      "stateMutability": "view",
      "type": "function"
    },
    {
      "constant": true,
      "inputs": [],
      "name": "orderCount",
      "outputs": [
        {
          "name": "",
          "type": "uint256"
        }
      ],
      "payable": false,
      "stateMutability": "view",
      "type": "function"
    },
    {
      "constant": false,
      "inputs": [
        {
          "name": "_orderId",
          "type": "uint256"
        },
        {
          "name": "_receipt",
          "type": "string"
        }
      ],
      "name": "markPaid",
      "outputs": [],
      "payable": false,
      "stateMutability": "nonpayable",
      "type": "function"
    },
    {
      "constant": false,
      "inputs": [
        {
          "name": "_orderId",
          "type": "uint256"
        },
        {
          "name": "releaseToBuyer",
          "type": "bool"
        }
      ],
      "name": "resolveDispute",
      "outputs": [],
      "payable": false,
      "stateMutability": "nonpayable",
      "type": "function"
    },
    {
      "constant": false,
      "inputs": [
        {
          "name": "_orderId",
          "type": "uint256"
        }
      ],
      "name": "release",
      "outputs": [],
      "payable": false,
      "stateMutability": "nonpayable",
      "type": "function"
    },
    {
      "constant": false,
      "inputs": [],
      "name": "unpause",
      "outputs": [],
      "payable": false,
      "stateMutability": "nonpayable",
      "type": "function"
    },
    {
      "constant": true,
      "inputs": [
        {
          "name": "",
          "type": "address"
        }
      ],
      "name": "admins",
      "outputs": [
        {
          "name": "",
          "type": "bool"
        }
      ],
      "payable": false,
      "stateMutability": "view",
      "type": "function"
    },
    {
      "constant": false,
      "inputs": [
        {
          "name": "_admin",
          "type": "address"
        },
        {
          "name": "_status",
          "type": "bool"
        }
      ],
      "name": "setAdmin",
      "outputs": [],
      "payable": false,
      "stateMutability": "nonpayable",
      "type": "function"
    },
    {
      "constant": false,
      "inputs": [
        {
          "name": "_orderId",
          "type": "uint256"
        }
      ],
      "name": "cancelOrder",
      "outputs": [],
      "payable": false,
      "stateMutability": "nonpayable",
      "type": "function"
    },
    {
      "constant": true,
      "inputs": [],
      "name": "paused",
      "outputs": [
        {
          "name": "",
          "type": "bool"
        }
      ],
      "payable": false,
      "stateMutability": "view",
      "type": "function"
    },
    {
      "constant": false,
      "inputs": [
        {
          "name": "_offerId",
          "type": "uint256"
        },
        {
          "name": "_fiatQuantity",
          "type": "uint256"
        }
      ],
      "name": "createOrder",
      "outputs": [],
      "payable": false,
      "stateMutability": "nonpayable",
      "type": "function"
    },
    {
      "constant": false,
      "inputs": [],
      "name": "pause",
      "outputs": [],
      "payable": false,
      "stateMutability": "nonpayable",
      "type": "function"
    },
    {
      "constant": true,
      "inputs": [
        {
          "name": "",
          "type": "uint256"
        }
      ],
      "name": "offers",
      "outputs": [
        {
          "name": "seller",
          "type": "address"
        },
        {
          "name": "instructions",
          "type": "string"
        },
        {
          "name": "fiatCurrency",
          "type": "string"
        },
        {
          "name": "minQty",
          "type": "uint256"
        },
        {
          "name": "maxQty",
          "type": "uint256"
        },
        {
          "name": "rate",
          "type": "uint256"
        },
        {
          "name": "amount",
          "type": "uint256"
        },
        {
          "name": "deadline",
          "type": "uint256"
        },
        {
          "name": "status",
          "type": "uint8"
        },
        {
          "name": "tradeType",
          "type": "uint8"
        }
      ],
      "payable": false,
      "stateMutability": "view",
      "type": "function"
    },
    {
      "constant": true,
      "inputs": [],
      "name": "owner",
      "outputs": [
        {
          "name": "",
          "type": "address"
        }
      ],
      "payable": false,
      "stateMutability": "view",
      "type": "function"
    },
    {
      "constant": true,
      "inputs": [
        {
          "name": "",
          "type": "uint256"
        }
      ],
      "name": "orders",
      "outputs": [
        {
          "name": "offerId",
          "type": "uint256"
        },
        {
          "name": "buyer",
          "type": "address"
        },
        {
          "name": "fiatQuantity",
          "type": "uint256"
        },
        {
          "name": "usdtAmount",
          "type": "uint256"
        },
        {
          "name": "paymentReceipt",
          "type": "string"
        },
        {
          "name": "status",
          "type": "uint8"
        },
        {
          "name": "appealRequested",
          "type": "bool"
        }
      ],
      "payable": false,
      "stateMutability": "view",
      "type": "function"
    },
    {
      "constant": true,
      "inputs": [
        {
          "name": "",
          "type": "address"
        }
      ],
      "name": "users",
      "outputs": [
        {
          "name": "approved",
          "type": "bool"
        },
        {
          "name": "reputation",
          "type": "uint256"
        }
      ],
      "payable": false,
      "stateMutability": "view",
      "type": "function"
    },
    {
      "constant": true,
      "inputs": [],
      "name": "usdtToken",
      "outputs": [
        {
          "name": "",
          "type": "address"
        }
      ],
      "payable": false,
      "stateMutability": "view",
      "type": "function"
    },
    {
      "constant": false,
      "inputs": [
        {
          "name": "_orderId",
          "type": "uint256"
        }
      ],
      "name": "requestAppeal",
      "outputs": [],
      "payable": false,
      "stateMutability": "nonpayable",
      "type": "function"
    },
    {
      "constant": false,
      "inputs": [
        {
          "name": "_user",
          "type": "address"
        }
      ],
      "name": "approveUser",
      "outputs": [],
      "payable": false,
      "stateMutability": "nonpayable",
      "type": "function"
    },
    {
      "constant": false,
      "inputs": [
        {
          "name": "_instructions",
          "type": "string"
        },
        {
          "name": "_fiatCurrency",
          "type": "string"
        },
        {
          "name": "_minQty",
          "type": "uint256"
        },
        {
          "name": "_maxQty",
          "type": "uint256"
        },
        {
          "name": "_rate",
          "type": "uint256"
        },
        {
          "name": "_usdtAmount",
          "type": "uint256"
        },
        {
          "name": "_duration",
          "type": "uint256"
        }
      ],
      "name": "createOfferUSDTForFiat",
      "outputs": [],
      "payable": false,
      "stateMutability": "nonpayable",
      "type": "function"
    },
    {
      "constant": false,
      "inputs": [
        {
          "name": "_instructions",
          "type": "string"
        },
        {
          "name": "_fiatCurrency",
          "type": "string"
        },
        {
          "name": "_minQty",
          "type": "uint256"
        },
        {
          "name": "_maxQty",
          "type": "uint256"
        },
        {
          "name": "_rate",
          "type": "uint256"
        },
        {
          "name": "_usdtAmount",
          "type": "uint256"
        },
        {
          "name": "_duration",
          "type": "uint256"
        }
      ],
      "name": "createOfferFIATForUSDT",
      "outputs": [],
      "payable": false,
      "stateMutability": "nonpayable",
      "type": "function"
    },
    {
      "inputs": [
        {
          "name": "_usdtToken",
          "type": "address"
        }
      ],
      "payable": false,
      "stateMutability": "nonpayable",
      "type": "constructor"
    },
    {
      "anonymous": false,
      "inputs": [
        {
          "indexed": false,
          "name": "offerId",
          "type": "uint256"
        },
        {
          "indexed": false,
          "name": "seller",
          "type": "address"
        },
        {
          "indexed": false,
          "name": "fiatCurrency",
          "type": "string"
        },
        {
          "indexed": false,
          "name": "rate",
          "type": "uint256"
        },
        {
          "indexed": false,
          "name": "amount",
          "type": "uint256"
        },
        {
          "indexed": false,
          "name": "tradeType",
          "type": "uint8"
        }
      ],
      "name": "OfferCreated",
      "type": "event"
    },
    {
      "anonymous": false,
      "inputs": [
        {
          "indexed": false,
          "name": "orderId",
          "type": "uint256"
        },
        {
          "indexed": false,
          "name": "offerId",
          "type": "uint256"
        },
        {
          "indexed": false,
          "name": "buyer",
          "type": "address"
        },
        {
          "indexed": false,
          "name": "fiatQuantity",
          "type": "uint256"
        },
        {
          "indexed": false,
          "name": "usdtAmount",
          "type": "uint256"
        }
      ],
      "name": "OrderCreated",
      "type": "event"
    },
    {
      "anonymous": false,
      "inputs": [
        {
          "indexed": false,
          "name": "orderId",
          "type": "uint256"
        },
        {
          "indexed": false,
          "name": "paymentReceipt",
          "type": "string"
        }
      ],
      "name": "OrderMarkedPaid",
      "type": "event"
    },
    {
      "anonymous": false,
      "inputs": [
        {
          "indexed": false,
          "name": "orderId",
          "type": "uint256"
        }
      ],
      "name": "OrderReleased",
      "type": "event"
    },
    {
      "anonymous": false,
      "inputs": [
        {
          "indexed": false,
          "name": "orderId",
          "type": "uint256"
        }
      ],
      "name": "OrderCancelled",
      "type": "event"
    },
    {
      "anonymous": false,
      "inputs": [
        {
          "indexed": false,
          "name": "orderId",
          "type": "uint256"
        }
      ],
      "name": "AppealRequested",
      "type": "event"
    },
    {
      "anonymous": false,
      "inputs": [
        {
          "indexed": false,
          "name": "orderId",
          "type": "uint256"
        },
        {
          "indexed": false,
          "name": "releasedToBuyer",
          "type": "bool"
        }
      ],
      "name": "DisputeResolved",
      "type": "event"
    },
    {
      "anonymous": false,
      "inputs": [],
      "name": "Paused",
      "type": "event"
    },
    {
      "anonymous": false,
      "inputs": [],
      "name": "Unpaused",
      "type": "event"
    }
  ],
  "bytecode": "0x60806040526000600160146101000a81548160ff02191690831515021790555034801561002b57600080fd5b50604051602080613f1c8339810180604052602081101561004b57600080fd5b8101908080519060200190929190505050806000806101000a81548173ffffffffffffffffffffffffffffffffffffffff021916908373ffffffffffffffffffffffffffffffffffffffff16021790555033600160006101000a81548173ffffffffffffffffffffffffffffffffffffffff021916908373ffffffffffffffffffffffffffffffffffffffff1602179055506001600760003373ffffffffffffffffffffffffffffffffffffffff1673ffffffffffffffffffffffffffffffffffffffff16815260200190815260200160002060006101000a81548160ff02191690831515021790555050613dd7806101456000396000f3fe608060405234801561001057600080fd5b5060043610610154576000357c01000000000000000000000000000000000000000000000000000000009004806379109baa116100d5578063a87430ba11610099578063a87430ba146106b4578063a98ad46c14610717578063b1e3c43814610761578063d624fdb61461078f578063f319634d146107d3578063fd048184146108d357610154565b806379109baa146103865780638456cb59146103be5780638a72ea6a146103c85780638da5cb5b1461055b578063a85c38ef146105a557610154565b80633f4ba83a1161011c5780633f4ba83a14610280578063429b62e51461028a5780634b0bddd2146102e6578063514fcac7146103365780635c975abb1461036457610154565b80631115c24d146101595780632453ffa81461017757806334146c3c1461019557806334b25ee21461021857806337bdc99b14610252575b600080fd5b6101616109d3565b6040518082815260200191505060405180910390f35b61017f6109d9565b6040518082815260200191505060405180910390f35b610216600480360360408110156101ab57600080fd5b8101908080359060200190929190803590602001906401000000008111156101d257600080fd5b8201836020820111156101e457600080fd5b8035906020019184600183028401116401000000008311171561020657600080fd5b90919293919293905050506109df565b005b6102506004803603604081101561022e57600080fd5b8101908080359060200190929190803515159060200190929190505050610d50565b005b61027e6004803603602081101561026857600080fd5b81019080803590602001909291905050506112e9565b005b6102886118f8565b005b6102cc600480360360208110156102a057600080fd5b81019080803573ffffffffffffffffffffffffffffffffffffffff169060200190929190505050611a86565b604051808215151515815260200191505060405180910390f35b610334600480360360408110156102fc57600080fd5b81019080803573ffffffffffffffffffffffffffffffffffffffff169060200190929190803515159060200190929190505050611aa6565b005b6103626004803603602081101561034c57600080fd5b8101908080359060200190929190505050611bc6565b005b61036c6120df565b604051808215151515815260200191505060405180910390f35b6103bc6004803603604081101561039c57600080fd5b8101908080359060200190929190803590602001909291905050506120f2565b005b6103c6612633565b005b6103f4600480360360208110156103de57600080fd5b81019080803590602001909291905050506127c1565b604051808b73ffffffffffffffffffffffffffffffffffffffff1673ffffffffffffffffffffffffffffffffffffffff16815260200180602001806020018a815260200189815260200188815260200187815260200186815260200185600281111561045c57fe5b60ff16815260200184600181111561047057fe5b60ff16815260200183810383528c818151815260200191508051906020019080838360005b838110156104b0578082015181840152602081019050610495565b50505050905090810190601f1680156104dd5780820380516001836020036101000a031916815260200191505b5083810382528b818151815260200191508051906020019080838360005b838110156105165780820151818401526020810190506104fb565b50505050905090810190601f1680156105435780820380516001836020036101000a031916815260200191505b509c5050505050505050505050505060405180910390f35b61056361297f565b604051808273ffffffffffffffffffffffffffffffffffffffff1673ffffffffffffffffffffffffffffffffffffffff16815260200191505060405180910390f35b6105d1600480360360208110156105bb57600080fd5b81019080803590602001909291905050506129a5565b604051808881526020018773ffffffffffffffffffffffffffffffffffffffff1673ffffffffffffffffffffffffffffffffffffffff1681526020018681526020018581526020018060200184600481111561062957fe5b60ff16815260200183151515158152602001828103825285818151815260200191508051906020019080838360005b83811015610673578082015181840152602081019050610658565b50505050905090810190601f1680156106a05780820380516001836020036101000a031916815260200191505b509850505050505050505060405180910390f35b6106f6600480360360208110156106ca57600080fd5b81019080803573ffffffffffffffffffffffffffffffffffffffff169060200190929190505050612ab9565b60405180831515151581526020018281526020019250505060405180910390f35b61071f612aea565b604051808273ffffffffffffffffffffffffffffffffffffffff1673ffffffffffffffffffffffffffffffffffffffff16815260200191505060405180910390f35b61078d6004803603602081101561077757600080fd5b8101908080359060200190929190505050612b0f565b005b6107d1600480360360208110156107a557600080fd5b81019080803573ffffffffffffffffffffffffffffffffffffffff169060200190929190505050612e2a565b005b6108d1600480360360e08110156107e957600080fd5b810190808035906020019064010000000081111561080657600080fd5b82018360208201111561081857600080fd5b8035906020019184600183028401116401000000008311171561083a57600080fd5b90919293919293908035906020019064010000000081111561085b57600080fd5b82018360208201111561086d57600080fd5b8035906020019184600183028401116401000000008311171561088f57600080fd5b90919293919293908035906020019092919080359060200190929190803590602001909291908035906020019092919080359060200190929190505050612f91565b005b6109d1600480360360e08110156108e957600080fd5b810190808035906020019064010000000081111561090657600080fd5b82018360208201111561091857600080fd5b8035906020019184600183028401116401000000008311171561093a57600080fd5b90919293919293908035906020019064010000000081111561095b57600080fd5b82018360208201111561096d57600080fd5b8035906020019184600183028401116401000000008311171561098f57600080fd5b9091929391929390803590602001909291908035906020019092919080359060200190929190803590602001909291908035906020019092919050505061360b565b005b60025481565b60035481565b600460003373ffffffffffffffffffffffffffffffffffffffff1673ffffffffffffffffffffffffffffffffffffffff16815260200190815260200160002060000160009054906101000a900460ff161515610aa3576040517f08c379a000000000000000000000000000000000000000000000000000000000815260040180806020018281038252600c8152602001807f4e6f7420617070726f766564000000000000000000000000000000000000000081525060200191505060405180910390fd5b600160149054906101000a900460ff16151515610b28576040517f08c379a00000000000000000000000000000000000000000000000000000000081526004018080602001828103825260128152602001807f436f6e747261637420697320706175736564000000000000000000000000000081525060200191505060405180910390fd5b60006006600085815260200190815260200160002090503373ffffffffffffffffffffffffffffffffffffffff168160010160009054906101000a900473ffffffffffffffffffffffffffffffffffffffff1673ffffffffffffffffffffffffffffffffffffffff16141515610c06576040517f08c379a000000000000000000000000000000000000000000000000000000000815260040180806020018281038252600e8152602001807f4e6f7420796f7572206f7264657200000000000000000000000000000000000081525060200191505060405180910390fd5b60006004811115610c1357fe5b8160050160009054906101000a900460ff166004811115610c3057fe5b141515610ca5576040517f08c379a00000000000000000000000000000000000000000000000000000000081526004018080602001828103825260108152602001807f43616e6e6f74206d61726b20706169640000000000000000000000000000000081525060200191505060405180910390fd5b8282826004019190610cb8929190613c86565b5060018160050160006101000a81548160ff02191690836004811115610cda57fe5b02179055507f128d565eb802a27a25eba3e987e70735bf2db64072b3f68898d046ce2725109f84848460405180848152602001806020018281038252848482818152602001925080828437600081840152601f19601f82011690508083019250505094505050505060405180910390a150505050565b600760003373ffffffffffffffffffffffffffffffffffffffff1673ffffffffffffffffffffffffffffffffffffffff16815260200190815260200160002060009054906101000a900460ff161515610e11576040517f08c379a00000000000000000000000000000000000000000000000000000000081526004018080602001828103825260098152602001807f4e6f742061646d696e000000000000000000000000000000000000000000000081525060200191505060405180910390fd5b600160159054906101000a900460ff16151515610e96576040517f08c379a000000000000000000000000000000000000000000000000000000000815260040180806020018281038252600e8152602001807f5265656e7472616e742063616c6c00000000000000000000000000000000000081525060200191505060405180910390fd5b60018060156101000a81548160ff021916908315150217905550600160149054906101000a900460ff16151515610f35576040517f08c379a00000000000000000000000000000000000000000000000000000000081526004018080602001828103825260128152602001807f436f6e747261637420697320706175736564000000000000000000000000000081525060200191505060405180910390fd5b6000600660008481526020019081526020016000209050600060056000836000015481526020019081526020016000209050600480811115610f7357fe5b8260050160009054906101000a900460ff166004811115610f9057fe5b141515611005576040517f08c379a000000000000000000000000000000000000000000000000000000000815260040180806020018281038252600c8152602001807f4e6f74206469737075746564000000000000000000000000000000000000000081525060200191505060405180910390fd5b82156111d35760028260050160006101000a81548160ff0219169083600481111561102c57fe5b02179055506000809054906101000a900473ffffffffffffffffffffffffffffffffffffffff1673ffffffffffffffffffffffffffffffffffffffff1663a9059cbb8360010160009054906101000a900473ffffffffffffffffffffffffffffffffffffffff1684600301546040518363ffffffff167c0100000000000000000000000000000000000000000000000000000000028152600401808373ffffffffffffffffffffffffffffffffffffffff1673ffffffffffffffffffffffffffffffffffffffff16815260200182815260200192505050602060405180830381600087803b15801561111d57600080fd5b505af1158015611131573d6000803e3d6000fd5b505050506040513d602081101561114757600080fd5b8101908080519060200190929190505050506005600460008460010160009054906101000a900473ffffffffffffffffffffffffffffffffffffffff1673ffffffffffffffffffffffffffffffffffffffff1673ffffffffffffffffffffffffffffffffffffffff16815260200190815260200160002060010160008282540192505081905550611285565b60038260050160006101000a81548160ff021916908360048111156111f457fe5b0217905550816003015481600601600082825401925050819055506005600460008360000160009054906101000a900473ffffffffffffffffffffffffffffffffffffffff1673ffffffffffffffffffffffffffffffffffffffff1673ffffffffffffffffffffffffffffffffffffffff168152602001908152602001600020600101600082825401925050819055505b7f5a87909bff68caaaaf0b3fd9c74eeccc928832f879315e5c6fb7a73612f26c0c848460405180838152602001821515151581526020019250505060405180910390a150506000600160156101000a81548160ff0219169083151502179055505050565b600460003373ffffffffffffffffffffffffffffffffffffffff1673ffffffffffffffffffffffffffffffffffffffff16815260200190815260200160002060000160009054906101000a900460ff1615156113ad576040517f08c379a000000000000000000000000000000000000000000000000000000000815260040180806020018281038252600c8152602001807f4e6f7420617070726f766564000000000000000000000000000000000000000081525060200191505060405180910390fd5b600160159054906101000a900460ff16151515611432576040517f08c379a000000000000000000000000000000000000000000000000000000000815260040180806020018281038252600e8152602001807f5265656e7472616e742063616c6c00000000000000000000000000000000000081525060200191505060405180910390fd5b60018060156101000a81548160ff021916908315150217905550600160149054906101000a900460ff161515156114d1576040517f08c379a00000000000000000000000000000000000000000000000000000000081526004018080602001828103825260128152602001807f436f6e747261637420697320706175736564000000000000000000000000000081525060200191505060405180910390fd5b60006006600083815260200190815260200160002090506000600560008360000154815260200190815260200160002090508060000160009054906101000a900473ffffffffffffffffffffffffffffffffffffffff1673ffffffffffffffffffffffffffffffffffffffff163373ffffffffffffffffffffffffffffffffffffffff161415156115ca576040517f08c379a000000000000000000000000000000000000000000000000000000000815260040180806020018281038252600a8152602001807f4e6f742073656c6c65720000000000000000000000000000000000000000000081525060200191505060405180910390fd5b600160048111156115d757fe5b8260050160009054906101000a900460ff1660048111156115f457fe5b141515611669576040517f08c379a000000000000000000000000000000000000000000000000000000000815260040180806020018281038252600e8152602001807f4f72646572206e6f74207061696400000000000000000000000000000000000081525060200191505060405180910390fd5b60028260050160006101000a81548160ff0219169083600481111561168a57fe5b02179055506000809054906101000a900473ffffffffffffffffffffffffffffffffffffffff1673ffffffffffffffffffffffffffffffffffffffff1663a9059cbb8360010160009054906101000a900473ffffffffffffffffffffffffffffffffffffffff1684600301546040518363ffffffff167c0100000000000000000000000000000000000000000000000000000000028152600401808373ffffffffffffffffffffffffffffffffffffffff1673ffffffffffffffffffffffffffffffffffffffff16815260200182815260200192505050602060405180830381600087803b15801561177b57600080fd5b505af115801561178f573d6000803e3d6000fd5b505050506040513d60208110156117a557600080fd5b8101908080519060200190929190505050506005600460008460010160009054906101000a900473ffffffffffffffffffffffffffffffffffffffff1673ffffffffffffffffffffffffffffffffffffffff1673ffffffffffffffffffffffffffffffffffffffff168152602001908152602001600020600101600082825401925050819055506005600460008360000160009054906101000a900473ffffffffffffffffffffffffffffffffffffffff1673ffffffffffffffffffffffffffffffffffffffff1673ffffffffffffffffffffffffffffffffffffffff168152602001908152602001600020600101600082825401925050819055507f0b95f52995bcf0bbdadcd2680b5cfcab5c2afd2f34a865d843873049aeab6f1f836040518082815260200191505060405180910390a150506000600160156101000a81548160ff02191690831515021790555050565b600760003373ffffffffffffffffffffffffffffffffffffffff1673ffffffffffffffffffffffffffffffffffffffff16815260200190815260200160002060009054906101000a900460ff1615156119b9576040517f08c379a00000000000000000000000000000000000000000000000000000000081526004018080602001828103825260098152602001807f4e6f742061646d696e000000000000000000000000000000000000000000000081525060200191505060405180910390fd5b600160149054906101000a900460ff161515611a3d576040517f08c379a00000000000000000000000000000000000000000000000000000000081526004018080602001828103825260168152602001807f436f6e7472616374206973206e6f74207061757365640000000000000000000081525060200191505060405180910390fd5b6000600160146101000a81548160ff0219169083151502179055507fa45f47fdea8a1efdd9029a5691c7f759c32b7c698632b563573e155625d1693360405160405180910390a1565b60076020528060005260406000206000915054906101000a900460ff1681565b600160009054906101000a900473ffffffffffffffffffffffffffffffffffffffff1673ffffffffffffffffffffffffffffffffffffffff163373ffffffffffffffffffffffffffffffffffffffff16141515611b6b576040517f08c379a000000000000000000000000000000000000000000000000000000000815260040180806020018281038252600a8152602001807f4f6e6c79206f776e65720000000000000000000000000000000000000000000081525060200191505060405180910390fd5b80600760008473ffffffffffffffffffffffffffffffffffffffff1673ffffffffffffffffffffffffffffffffffffffff16815260200190815260200160002060006101000a81548160ff0219169083151502179055505050565b600160159054906101000a900460ff16151515611c4b576040517f08c379a000000000000000000000000000000000000000000000000000000000815260040180806020018281038252600e8152602001807f5265656e7472616e742063616c6c00000000000000000000000000000000000081525060200191505060405180910390fd5b60018060156101000a81548160ff021916908315150217905550600160149054906101000a900460ff16151515611cea576040517f08c379a00000000000000000000000000000000000000000000000000000000081526004018080602001828103825260128152602001807f436f6e747261637420697320706175736564000000000000000000000000000081525060200191505060405180910390fd5b60006006600083815260200190815260200160002090506000600560008360000154815260200190815260200160002090508160010160009054906101000a900473ffffffffffffffffffffffffffffffffffffffff1673ffffffffffffffffffffffffffffffffffffffff163373ffffffffffffffffffffffffffffffffffffffff161480611dc957508060000160009054906101000a900473ffffffffffffffffffffffffffffffffffffffff1673ffffffffffffffffffffffffffffffffffffffff163373ffffffffffffffffffffffffffffffffffffffff16145b80611e1d5750600760003373ffffffffffffffffffffffffffffffffffffffff1673ffffffffffffffffffffffffffffffffffffffff16815260200190815260200160002060009054906101000a900460ff165b1515611e91576040517f08c379a000000000000000000000000000000000000000000000000000000000815260040180806020018281038252600e8152602001807f4e6f7420617574686f72697a656400000000000000000000000000000000000081525060200191505060405180910390fd5b60006004811115611e9e57fe5b8260050160009054906101000a900460ff166004811115611ebb57fe5b1480611eee575060016004811115611ecf57fe5b8260050160009054906101000a900460ff166004811115611eec57fe5b145b1515611f62576040517f08c379a000000000000000000000000000000000000000000000000000000000815260040180806020018281038252600d8152602001807f43616e6e6f742063616e63656c0000000000000000000000000000000000000081525060200191505060405180910390fd5b60038260050160006101000a81548160ff02191690836004811115611f8357fe5b0217905550816003015481600601600082825401925050819055506002600460008460010160009054906101000a900473ffffffffffffffffffffffffffffffffffffffff1673ffffffffffffffffffffffffffffffffffffffff1673ffffffffffffffffffffffffffffffffffffffff168152602001908152602001600020600101600082825403925050819055506002600460008360000160009054906101000a900473ffffffffffffffffffffffffffffffffffffffff1673ffffffffffffffffffffffffffffffffffffffff1673ffffffffffffffffffffffffffffffffffffffff168152602001908152602001600020600101600082825403925050819055507f61b9399f2f0f32ca39ce8d7be32caed5ec22fe07a6daba3a467ed479ec606582836040518082815260200191505060405180910390a150506000600160156101000a81548160ff02191690831515021790555050565b600160149054906101000a900460ff1681565b600460003373ffffffffffffffffffffffffffffffffffffffff1673ffffffffffffffffffffffffffffffffffffffff16815260200190815260200160002060000160009054906101000a900460ff1615156121b6576040517f08c379a000000000000000000000000000000000000000000000000000000000815260040180806020018281038252600c8152602001807f4e6f7420617070726f766564000000000000000000000000000000000000000081525060200191505060405180910390fd5b600160149054906101000a900460ff1615151561223b576040517f08c379a00000000000000000000000000000000000000000000000000000000081526004018080602001828103825260128152602001807f436f6e747261637420697320706175736564000000000000000000000000000081525060200191505060405180910390fd5b60006005600084815260200190815260200160002090506000600281111561225f57fe5b8160080160009054906101000a900460ff16600281111561227c57fe5b1415156122f1576040517f08c379a00000000000000000000000000000000000000000000000000000000081526004018080602001828103825260108152602001807f4f66666572206e6f74206163746976650000000000000000000000000000000081525060200191505060405180910390fd5b80600301548210158015612309575080600401548211155b151561237d576040517f08c379a00000000000000000000000000000000000000000000000000000000081526004018080602001828103825260168152602001807f5175616e74697479206f7574206f6620626f756e64730000000000000000000081525060200191505060405180910390fd5b600081600501548302905081600601548111151515612404576040517f08c379a000000000000000000000000000000000000000000000000000000000815260040180806020018281038252601a8152602001807f496e73756666696369656e74205553445420696e206f6666657200000000000081525060200191505060405180910390fd5b60036000815480929190600101919050555060e0604051908101604052808581526020013373ffffffffffffffffffffffffffffffffffffffff168152602001848152602001828152602001602060405190810160405280600081525081526020016000600481111561247357fe5b8152602001600015158152506006600060035481526020019081526020016000206000820151816000015560208201518160010160006101000a81548173ffffffffffffffffffffffffffffffffffffffff021916908373ffffffffffffffffffffffffffffffffffffffff16021790555060408201518160020155606082015181600301556080820151816004019080519060200190612515929190613d06565b5060a08201518160050160006101000a81548160ff0219169083600481111561253a57fe5b021790555060c08201518160050160016101000a81548160ff0219169083151502179055509050508082600601600082825403925050819055506000826006015414156125a85760018260080160006101000a81548160ff021916908360028111156125a257fe5b02179055505b7f136333a1c3b206d34cce3dda5c5f12f2a06f154d243f4c5406cbc2ebda94749c60035485338685604051808681526020018581526020018473ffffffffffffffffffffffffffffffffffffffff1673ffffffffffffffffffffffffffffffffffffffff1681526020018381526020018281526020019550505050505060405180910390a150505050565b600760003373ffffffffffffffffffffffffffffffffffffffff1673ffffffffffffffffffffffffffffffffffffffff16815260200190815260200160002060009054906101000a900460ff1615156126f4576040517f08c379a00000000000000000000000000000000000000000000000000000000081526004018080602001828103825260098152602001807f4e6f742061646d696e000000000000000000000000000000000000000000000081525060200191505060405180910390fd5b600160149054906101000a900460ff16151515612779576040517f08c379a00000000000000000000000000000000000000000000000000000000081526004018080602001828103825260128152602001807f436f6e747261637420697320706175736564000000000000000000000000000081525060200191505060405180910390fd5b60018060146101000a81548160ff0219169083151502179055507f9e87fac88ff661f02d44f95383c817fece4bce600a3dab7a54406878b965e75260405160405180910390a1565b60056020528060005260406000206000915090508060000160009054906101000a900473ffffffffffffffffffffffffffffffffffffffff1690806001018054600181600116156101000203166002900480601f0160208091040260200160405190810160405280929190818152602001828054600181600116156101000203166002900480156128935780601f1061286857610100808354040283529160200191612893565b820191906000526020600020905b81548152906001019060200180831161287657829003601f168201915b505050505090806002018054600181600116156101000203166002900480601f0160208091040260200160405190810160405280929190818152602001828054600181600116156101000203166002900480156129315780601f1061290657610100808354040283529160200191612931565b820191906000526020600020905b81548152906001019060200180831161291457829003601f168201915b5050505050908060030154908060040154908060050154908060060154908060070154908060080160009054906101000a900460ff16908060080160019054906101000a900460ff1690508a565b600160009054906101000a900473ffffffffffffffffffffffffffffffffffffffff1681565b60066020528060005260406000206000915090508060000154908060010160009054906101000a900473ffffffffffffffffffffffffffffffffffffffff1690806002015490806003015490806004018054600181600116156101000203166002900480601f016020809104026020016040519081016040528092919081815260200182805460018160011615610100020316600290048015612a895780601f10612a5e57610100808354040283529160200191612a89565b820191906000526020600020905b815481529060010190602001808311612a6c57829003601f168201915b5050505050908060050160009054906101000a900460ff16908060050160019054906101000a900460ff16905087565b60046020528060005260406000206000915090508060000160009054906101000a900460ff16908060010154905082565b6000809054906101000a900473ffffffffffffffffffffffffffffffffffffffff1681565b600460003373ffffffffffffffffffffffffffffffffffffffff1673ffffffffffffffffffffffffffffffffffffffff16815260200190815260200160002060000160009054906101000a900460ff161515612bd3576040517f08c379a000000000000000000000000000000000000000000000000000000000815260040180806020018281038252600c8152602001807f4e6f7420617070726f766564000000000000000000000000000000000000000081525060200191505060405180910390fd5b600160149054906101000a900460ff16151515612c58576040517f08c379a00000000000000000000000000000000000000000000000000000000081526004018080602001828103825260128152602001807f436f6e747261637420697320706175736564000000000000000000000000000081525060200191505060405180910390fd5b60006006600083815260200190815260200160002090506000600560008360000154815260200190815260200160002090508160010160009054906101000a900473ffffffffffffffffffffffffffffffffffffffff1673ffffffffffffffffffffffffffffffffffffffff163373ffffffffffffffffffffffffffffffffffffffff161480612d3757508060000160009054906101000a900473ffffffffffffffffffffffffffffffffffffffff1673ffffffffffffffffffffffffffffffffffffffff163373ffffffffffffffffffffffffffffffffffffffff16145b1515612dab576040517f08c379a000000000000000000000000000000000000000000000000000000000815260040180806020018281038252600b8152602001807f4e6f7420616c6c6f77656400000000000000000000000000000000000000000081525060200191505060405180910390fd5b60018260050160016101000a81548160ff02191690831515021790555060048260050160006101000a81548160ff02191690836004811115612de957fe5b02179055507fca8d4564de04f72f716e3c4769568c6736b4b647491f37146bb42b0d3338534a836040518082815260200191505060405180910390a1505050565b600760003373ffffffffffffffffffffffffffffffffffffffff1673ffffffffffffffffffffffffffffffffffffffff16815260200190815260200160002060009054906101000a900460ff161515612eeb576040517f08c379a00000000000000000000000000000000000000000000000000000000081526004018080602001828103825260098152602001807f4e6f742061646d696e000000000000000000000000000000000000000000000081525060200191505060405180910390fd5b6001600460008373ffffffffffffffffffffffffffffffffffffffff1673ffffffffffffffffffffffffffffffffffffffff16815260200190815260200160002060000160006101000a81548160ff0219169083151502179055506064600460008373ffffffffffffffffffffffffffffffffffffffff1673ffffffffffffffffffffffffffffffffffffffff1681526020019081526020016000206001018190555050565b600460003373ffffffffffffffffffffffffffffffffffffffff1673ffffffffffffffffffffffffffffffffffffffff16815260200190815260200160002060000160009054906101000a900460ff161515613055576040517f08c379a000000000000000000000000000000000000000000000000000000000815260040180806020018281038252600c8152602001807f4e6f7420617070726f766564000000000000000000000000000000000000000081525060200191505060405180910390fd5b600160149054906101000a900460ff161515156130da576040517f08c379a00000000000000000000000000000000000000000000000000000000081526004018080602001828103825260128152602001807f436f6e747261637420697320706175736564000000000000000000000000000081525060200191505060405180910390fd5b82850282101580156130ee57508284028211155b1515613162576040517f08c379a00000000000000000000000000000000000000000000000000000000081526004018080602001828103825260138152602001807f416d6f756e74206f7574206f662072616e67650000000000000000000000000081525060200191505060405180910390fd5b6000809054906101000a900473ffffffffffffffffffffffffffffffffffffffff1673ffffffffffffffffffffffffffffffffffffffff166323b872dd3330856040518463ffffffff167c0100000000000000000000000000000000000000000000000000000000028152600401808473ffffffffffffffffffffffffffffffffffffffff1673ffffffffffffffffffffffffffffffffffffffff1681526020018373ffffffffffffffffffffffffffffffffffffffff1673ffffffffffffffffffffffffffffffffffffffff1681526020018281526020019350505050602060405180830381600087803b15801561325a57600080fd5b505af115801561326e573d6000803e3d6000fd5b505050506040513d602081101561328457600080fd5b81019080805190602001909291905050501515613309576040517f08c379a000000000000000000000000000000000000000000000000000000000815260040180806020018281038252600e8152602001807f4465706f736974206661696c656400000000000000000000000000000000000081525060200191505060405180910390fd5b600260008154809291906001019190505550610140604051908101604052803373ffffffffffffffffffffffffffffffffffffffff1681526020018a8a8080601f016020809104026020016040519081016040528093929190818152602001838380828437600081840152601f19601f82011690508083019250505050505050815260200188888080601f016020809104026020016040519081016040528093929190818152602001838380828437600081840152601f19601f82011690508083019250505050505050815260200186815260200185815260200184815260200183815260200182420181526020016000600281111561340557fe5b815260200160018081111561341657fe5b81525060056000600254815260200190815260200160002060008201518160000160006101000a81548173ffffffffffffffffffffffffffffffffffffffff021916908373ffffffffffffffffffffffffffffffffffffffff1602179055506020820151816001019080519060200190613491929190613d06565b5060408201518160020190805190602001906134ae929190613d06565b50606082015181600301556080820151816004015560a0820151816005015560c0820151816006015560e082015181600701556101008201518160080160006101000a81548160ff0219169083600281111561350657fe5b02179055506101208201518160080160016101000a81548160ff0219169083600181111561353057fe5b02179055509050507f11ce79b97a9a7bde5cf452ffbb8b10b9edcaea7f6cc6a6e6d97ac308e8d692ba60025433898987876001604051808881526020018773ffffffffffffffffffffffffffffffffffffffff1673ffffffffffffffffffffffffffffffffffffffff168152602001806020018581526020018481526020018360018111156135bb57fe5b60ff1681526020018281038252878782818152602001925080828437600081840152601f19601f8201169050808301925050509850505050505050505060405180910390a1505050505050505050565b600460003373ffffffffffffffffffffffffffffffffffffffff1673ffffffffffffffffffffffffffffffffffffffff16815260200190815260200160002060000160009054906101000a900460ff1615156136cf576040517f08c379a000000000000000000000000000000000000000000000000000000000815260040180806020018281038252600c8152602001807f4e6f7420617070726f766564000000000000000000000000000000000000000081525060200191505060405180910390fd5b600160149054906101000a900460ff16151515613754576040517f08c379a00000000000000000000000000000000000000000000000000000000081526004018080602001828103825260128152602001807f436f6e747261637420697320706175736564000000000000000000000000000081525060200191505060405180910390fd5b828502821015801561376857508284028211155b15156137dc576040517f08c379a00000000000000000000000000000000000000000000000000000000081526004018080602001828103825260138152602001807f416d6f756e74206f7574206f662072616e67650000000000000000000000000081525060200191505060405180910390fd5b6000809054906101000a900473ffffffffffffffffffffffffffffffffffffffff1673ffffffffffffffffffffffffffffffffffffffff166323b872dd3330856040518463ffffffff167c0100000000000000000000000000000000000000000000000000000000028152600401808473ffffffffffffffffffffffffffffffffffffffff1673ffffffffffffffffffffffffffffffffffffffff1681526020018373ffffffffffffffffffffffffffffffffffffffff1673ffffffffffffffffffffffffffffffffffffffff1681526020018281526020019350505050602060405180830381600087803b1580156138d457600080fd5b505af11580156138e8573d6000803e3d6000fd5b505050506040513d60208110156138fe57600080fd5b81019080805190602001909291905050501515613983576040517f08c379a000000000000000000000000000000000000000000000000000000000815260040180806020018281038252600e8152602001807f4465706f736974206661696c656400000000000000000000000000000000000081525060200191505060405180910390fd5b600260008154809291906001019190505550610140604051908101604052803373ffffffffffffffffffffffffffffffffffffffff1681526020018a8a8080601f016020809104026020016040519081016040528093929190818152602001838380828437600081840152601f19601f82011690508083019250505050505050815260200188888080601f016020809104026020016040519081016040528093929190818152602001838380828437600081840152601f19601f820116905080830192505050505050508152602001868152602001858152602001848152602001838152602001824201815260200160006002811115613a7f57fe5b815260200160006001811115613a9157fe5b81525060056000600254815260200190815260200160002060008201518160000160006101000a81548173ffffffffffffffffffffffffffffffffffffffff021916908373ffffffffffffffffffffffffffffffffffffffff1602179055506020820151816001019080519060200190613b0c929190613d06565b506040820151816002019080519060200190613b29929190613d06565b50606082015181600301556080820151816004015560a0820151816005015560c0820151816006015560e082015181600701556101008201518160080160006101000a81548160ff02191690836002811115613b8157fe5b02179055506101208201518160080160016101000a81548160ff02191690836001811115613bab57fe5b02179055509050507f11ce79b97a9a7bde5cf452ffbb8b10b9edcaea7f6cc6a6e6d97ac308e8d692ba60025433898987876000604051808881526020018773ffffffffffffffffffffffffffffffffffffffff1673ffffffffffffffffffffffffffffffffffffffff16815260200180602001858152602001848152602001836001811115613c3657fe5b60ff1681526020018281038252878782818152602001925080828437600081840152601f19601f8201169050808301925050509850505050505050505060405180910390a1505050505050505050565b828054600181600116156101000203166002900490600052602060002090601f016020900481019282601f10613cc757803560ff1916838001178555613cf5565b82800160010185558215613cf5579182015b82811115613cf4578235825591602001919060010190613cd9565b5b509050613d029190613d86565b5090565b828054600181600116156101000203166002900490600052602060002090601f016020900481019282601f10613d4757805160ff1916838001178555613d75565b82800160010185558215613d75579182015b82811115613d74578251825591602001919060010190613d59565b5b509050613d829190613d86565b5090565b613da891905b80821115613da4576000816000905550600101613d8c565b5090565b9056fea165627a7a72305820933207b18a12613264f91b5ea3604243e64fbb92c73d750168d545cf5e9123de0029",
  "source": "// SPDX-License-Identifier: MIT\r\npragma solidity ^0.5.4;\r\n\r\ninterface ITRC20 {\r\n    function transferFrom(address from, address to, uint256 value) external returns (bool);\r\n    function transfer(address to, uint256 value) external returns (bool);\r\n    function balanceOf(address account) external view returns (uint256);\r\n}\r\n\r\ncontract P2PExchange {\r\n    ITRC20 public usdtToken;\r\n    address public owner;\r\n    bool public paused = false;\r\n    bool internal locked;\r\n\r\n    uint256 public offerCount;\r\n    uint256 public orderCount;\r\n\r\n    enum OfferStatus { Active, Completed, Cancelled }\r\n    enum OrderStatus { Pending, Paid, Released, Cancelled, Disputed }\r\n    enum TradeType { FIAT_FOR_USDT, USDT_FOR_FIAT }\r\n\r\n    struct User {\r\n        bool approved;\r\n        uint256 reputation;\r\n    }\r\n\r\n    struct Offer {\r\n        address seller;\r\n        string instructions;\r\n        string fiatCurrency;\r\n        uint256 minQty;\r\n        uint256 maxQty;\r\n        uint256 rate;    // USDT per 1 fiat unit\r\n        uint256 amount;  // USDT remaining in escrow\r\n        uint256 deadline;\r\n        OfferStatus status;\r\n        TradeType tradeType;\r\n    }\r\n\r\n    struct Order {\r\n        uint256 offerId;\r\n        address buyer;\r\n        uint256 fiatQuantity;\r\n        uint256 usdtAmount;\r\n        string paymentReceipt;\r\n        OrderStatus status;\r\n        bool appealRequested;\r\n    }\r\n\r\n    mapping(address => User) public users;\r\n    mapping(uint256 => Offer) public offers;\r\n    mapping(uint256 => Order) public orders;\r\n    mapping(address => bool) public admins;\r\n\r\n    // Events\r\n    event OfferCreated(uint256 offerId, address seller, string fiatCurrency, uint256 rate, uint256 amount, TradeType tradeType);\r\n    event OrderCreated(uint256 orderId, uint256 offerId, address buyer, uint256 fiatQuantity, uint256 usdtAmount);\r\n    event OrderMarkedPaid(uint256 orderId, string paymentReceipt);\r\n    event OrderReleased(uint256 orderId);\r\n    event OrderCancelled(uint256 orderId);\r\n    event AppealRequested(uint256 orderId);\r\n    event DisputeResolved(uint256 orderId, bool releasedToBuyer);\r\n    event Paused();\r\n    event Unpaused();\r\n\r\n    // Modifiers\r\n    modifier noReentrancy() {\r\n        require(!locked, \"Reentrant call\");\r\n        locked = true;\r\n        _;\r\n        locked = false;\r\n    }\r\n\r\n    modifier onlyApproved() {\r\n        require(users[msg.sender].approved, \"Not approved\");\r\n        _;\r\n    }\r\n\r\n    modifier onlyAdmin() {\r\n        require(admins[msg.sender], \"Not admin\");\r\n        _;\r\n    }\r\n\r\n    modifier whenNotPaused() {\r\n        require(!paused, \"Contract is paused\");\r\n        _;\r\n    }\r\n\r\n    modifier whenPaused() {\r\n        require(paused, \"Contract is not paused\");\r\n        _;\r\n    }\r\n\r\n    // Constructor\r\n    constructor(address _usdtToken) public {\r\n        usdtToken = ITRC20(_usdtToken);\r\n        owner = msg.sender;\r\n        admins[msg.sender] = true;\r\n    }\r\n\r\n    // Pause/Unpause\r\n    function pause() external onlyAdmin whenNotPaused {\r\n        paused = true;\r\n        emit Paused();\r\n    }\r\n\r\n    function unpause() external onlyAdmin whenPaused {\r\n        paused = false;\r\n        emit Unpaused();\r\n    }\r\n\r\n    // Admin functions\r\n    function setAdmin(address _admin, bool _status) external {\r\n        require(msg.sender == owner, \"Only owner\");\r\n        admins[_admin] = _status;\r\n    }\r\n\r\n    function approveUser(address _user) external onlyAdmin {\r\n        users[_user].approved = true;\r\n        users[_user].reputation = 100;\r\n    }\r\n\r\n    // --------------------\r\n    // Offer creation\r\n    // --------------------\r\n\r\n    function createOfferFIATForUSDT(\r\n        string calldata _instructions,\r\n        string calldata _fiatCurrency,\r\n        uint256 _minQty,\r\n        uint256 _maxQty,\r\n        uint256 _rate,\r\n        uint256 _usdtAmount,\r\n        uint256 _duration\r\n    ) external onlyApproved whenNotPaused {\r\n        require(_usdtAmount >= _minQty * _rate && _usdtAmount <= _maxQty * _rate, \"Amount out of range\");\r\n        require(usdtToken.transferFrom(msg.sender, address(this), _usdtAmount), \"Deposit failed\");\r\n\r\n        offerCount++;\r\n        offers[offerCount] = Offer({\r\n            seller: msg.sender,\r\n            instructions: _instructions,\r\n            fiatCurrency: _fiatCurrency,\r\n            minQty: _minQty,\r\n            maxQty: _maxQty,\r\n            rate: _rate,\r\n            amount: _usdtAmount,\r\n            deadline: block.timestamp + _duration,\r\n            status: OfferStatus.Active,\r\n            tradeType: TradeType.FIAT_FOR_USDT\r\n        });\r\n\r\n        emit OfferCreated(offerCount, msg.sender, _fiatCurrency, _rate, _usdtAmount, TradeType.FIAT_FOR_USDT);\r\n    }\r\n\r\n    function createOfferUSDTForFiat(\r\n        string calldata _instructions,\r\n        string calldata _fiatCurrency,\r\n        uint256 _minQty,\r\n        uint256 _maxQty,\r\n        uint256 _rate,\r\n        uint256 _usdtAmount,\r\n        uint256 _duration\r\n    ) external onlyApproved whenNotPaused {\r\n        require(_usdtAmount >= _minQty * _rate && _usdtAmount <= _maxQty * _rate, \"Amount out of range\");\r\n        require(usdtToken.transferFrom(msg.sender, address(this), _usdtAmount), \"Deposit failed\");\r\n\r\n        offerCount++;\r\n        offers[offerCount] = Offer({\r\n            seller: msg.sender,\r\n            instructions: _instructions,\r\n            fiatCurrency: _fiatCurrency,\r\n            minQty: _minQty,\r\n            maxQty: _maxQty,\r\n            rate: _rate,\r\n            amount: _usdtAmount,\r\n            deadline: block.timestamp + _duration,\r\n            status: OfferStatus.Active,\r\n            tradeType: TradeType.USDT_FOR_FIAT\r\n        });\r\n\r\n        emit OfferCreated(offerCount, msg.sender, _fiatCurrency, _rate, _usdtAmount, TradeType.USDT_FOR_FIAT);\r\n    }\r\n\r\n    // --------------------\r\n    // Buyer creates order (partial fills supported)\r\n    // --------------------\r\n    function createOrder(uint256 _offerId, uint256 _fiatQuantity) external onlyApproved whenNotPaused {\r\n        Offer storage offer = offers[_offerId];\r\n        require(offer.status == OfferStatus.Active, \"Offer not active\");\r\n        require(_fiatQuantity >= offer.minQty && _fiatQuantity <= offer.maxQty, \"Quantity out of bounds\");\r\n\r\n        uint256 usdtAmount = _fiatQuantity * offer.rate;\r\n        require(usdtAmount <= offer.amount, \"Insufficient USDT in offer\");\r\n\r\n        orderCount++;\r\n        orders[orderCount] = Order({\r\n            offerId: _offerId,\r\n            buyer: msg.sender,\r\n            fiatQuantity: _fiatQuantity,\r\n            usdtAmount: usdtAmount,\r\n            paymentReceipt: \"\",\r\n            status: OrderStatus.Pending,\r\n            appealRequested: false\r\n        });\r\n\r\n        // Deduct from offer escrow\r\n        offer.amount -= usdtAmount;\r\n        if (offer.amount == 0) offer.status = OfferStatus.Completed;\r\n\r\n        emit OrderCreated(orderCount, _offerId, msg.sender, _fiatQuantity, usdtAmount);\r\n    }\r\n\r\n    // --------------------\r\n    // Mark paid\r\n    // --------------------\r\n    function markPaid(uint256 _orderId, string calldata _receipt) external onlyApproved whenNotPaused {\r\n        Order storage order = orders[_orderId];\r\n        require(order.buyer == msg.sender, \"Not your order\");\r\n        require(order.status == OrderStatus.Pending, \"Cannot mark paid\");\r\n\r\n        order.paymentReceipt = _receipt;\r\n        order.status = OrderStatus.Paid;\r\n\r\n        emit OrderMarkedPaid(_orderId, _receipt);\r\n    }\r\n\r\n    // --------------------\r\n    // Release USDT\r\n    // --------------------\r\n    function release(uint256 _orderId) external onlyApproved noReentrancy whenNotPaused {\r\n        Order storage order = orders[_orderId];\r\n        Offer storage offer = offers[order.offerId];\r\n\r\n        require(msg.sender == offer.seller, \"Not seller\");\r\n        require(order.status == OrderStatus.Paid, \"Order not paid\");\r\n\r\n        order.status = OrderStatus.Released;\r\n        usdtToken.transfer(order.buyer, order.usdtAmount);\r\n\r\n        users[order.buyer].reputation += 5;\r\n        users[offer.seller].reputation += 5;\r\n\r\n        emit OrderReleased(_orderId);\r\n    }\r\n\r\n    // --------------------\r\n    // Cancel order\r\n    // --------------------\r\n    function cancelOrder(uint256 _orderId) external noReentrancy whenNotPaused {\r\n        Order storage order = orders[_orderId];\r\n        Offer storage offer = offers[order.offerId];\r\n\r\n        require(msg.sender == order.buyer || msg.sender == offer.seller || admins[msg.sender], \"Not authorized\");\r\n        require(order.status == OrderStatus.Pending || order.status == OrderStatus.Paid, \"Cannot cancel\");\r\n\r\n        order.status = OrderStatus.Cancelled;\r\n        offer.amount += order.usdtAmount;\r\n\r\n        users[order.buyer].reputation -= 2;\r\n        users[offer.seller].reputation -= 2;\r\n\r\n        emit OrderCancelled(_orderId);\r\n    }\r\n\r\n    // --------------------\r\n    // Appeal request\r\n    // --------------------\r\n    function requestAppeal(uint256 _orderId) external onlyApproved whenNotPaused {\r\n        Order storage order = orders[_orderId];\r\n        Offer storage offer = offers[order.offerId];\r\n        require(msg.sender == order.buyer || msg.sender == offer.seller, \"Not allowed\");\r\n\r\n        order.appealRequested = true;\r\n        order.status = OrderStatus.Disputed;\r\n\r\n        emit AppealRequested(_orderId);\r\n    }\r\n\r\n    // --------------------\r\n    // Resolve dispute\r\n    // --------------------\r\n    function resolveDispute(uint256 _orderId, bool releaseToBuyer) external onlyAdmin noReentrancy whenNotPaused {\r\n        Order storage order = orders[_orderId];\r\n        Offer storage offer = offers[order.offerId];\r\n        require(order.status == OrderStatus.Disputed, \"Not disputed\");\r\n\r\n        if (releaseToBuyer) {\r\n            order.status = OrderStatus.Released;\r\n            usdtToken.transfer(order.buyer, order.usdtAmount);\r\n            users[order.buyer].reputation += 5;\r\n        } else {\r\n            order.status = OrderStatus.Cancelled;\r\n            offer.amount += order.usdtAmount;\r\n            users[offer.seller].reputation += 5;\r\n        }\r\n\r\n        emit DisputeResolved(_orderId, releaseToBuyer);\r\n    }\r\n}\r\n",
  "sourcePath": "C:/workspace/tronbfpay/contracts/v3/P2PExchange.sol",
  "compiler": {
    "name": "solc",
    "version": "0.5.4+commit.9549d8ff.Emscripten.clang"
  },
  "schemaVersion": "2.0.1",
  "updatedAt": "2025-09-28T17:32:36.688Z"
}