{
  "contractName": "PaymentRouter",
  "abi": [
    {
      "constant": false,
      "inputs": [
        {
          "name": "orderId",
          "type": "bytes32"
        },
        {
          "name": "splitter",
          "type": "address"
        },
        {
          "name": "amount",
          "type": "uint256"
        },
        {
          "name": "expiry",
          "type": "uint256"
        },
        {
          "name": "attestRef",
          "type": "bytes32"
        }
      ],
      "name": "routePayment",
      "outputs": [],
      "payable": false,
      "stateMutability": "nonpayable",
      "type": "function"
    },
    {
      "constant": false,
      "inputs": [
        {
          "name": "orderId",
          "type": "bytes32"
        }
      ],
      "name": "releasePayment",
      "outputs": [],
      "payable": false,
      "stateMutability": "nonpayable",
      "type": "function"
    },
    {
      "constant": true,
      "inputs": [],
      "name": "vault",
      "outputs": [
        {
          "name": "",
          "type": "address"
        }
      ],
      "payable": false,
      "stateMutability": "view",
      "type": "function"
    },
    {
      "inputs": [
        {
          "name": "_vault",
          "type": "address"
        }
      ],
      "payable": false,
      "stateMutability": "nonpayable",
      "type": "constructor"
    }
  ],
  "bytecode": "0x608060405234801561001057600080fd5b50d3801561001d57600080fd5b50d2801561002a57600080fd5b506040516020806104378339810180604052602081101561004a57600080fd5b8101908080519060200190929190505050806000806101000a81548173ffffffffffffffffffffffffffffffffffffffff021916908373ffffffffffffffffffffffffffffffffffffffff1602179055505061038c806100ab6000396000f3fe608060405234801561001057600080fd5b50d3801561001d57600080fd5b50d2801561002a57600080fd5b5060043610610078576000357c010000000000000000000000000000000000000000000000000000000090048063674a852b1461007d5780637aa1ed58146100e9578063fbfa77cf14610117575b600080fd5b6100e7600480360360a081101561009357600080fd5b8101908080359060200190929190803573ffffffffffffffffffffffffffffffffffffffff169060200190929190803590602001909291908035906020019092919080359060200190929190505050610161565b005b610115600480360360208110156100ff57600080fd5b8101908080359060200190929190505050610290565b005b61011f61033b565b604051808273ffffffffffffffffffffffffffffffffffffffff1673ffffffffffffffffffffffffffffffffffffffff16815260200191505060405180910390f35b6000809054906101000a900473ffffffffffffffffffffffffffffffffffffffff1673ffffffffffffffffffffffffffffffffffffffff16631d74e01e8633878787876040518763ffffffff167c0100000000000000000000000000000000000000000000000000000000028152600401808781526020018673ffffffffffffffffffffffffffffffffffffffff1673ffffffffffffffffffffffffffffffffffffffff1681526020018573ffffffffffffffffffffffffffffffffffffffff1673ffffffffffffffffffffffffffffffffffffffff1681526020018481526020018381526020018281526020019650505050505050600060405180830381600087803b15801561027157600080fd5b505af1158015610285573d6000803e3d6000fd5b505050505050505050565b6000809054906101000a900473ffffffffffffffffffffffffffffffffffffffff1673ffffffffffffffffffffffffffffffffffffffff166367d42a8b826040518263ffffffff167c010000000000000000000000000000000000000000000000000000000002815260040180828152602001915050600060405180830381600087803b15801561032057600080fd5b505af1158015610334573d6000803e3d6000fd5b5050505050565b6000809054906101000a900473ffffffffffffffffffffffffffffffffffffffff168156fea165627a7a723058202fbc70498a4bc72fcaed74effd964f11023b03021d58b26902d50e5a135d7f670029",
  "source": "pragma solidity ^0.5.4;\n\nimport \"./BPayEscrowVault.sol\";\n\ncontract PaymentRouter {\n    BPayEscrowVault public vault;\n\n    constructor(address _vault) public {\n        vault = BPayEscrowVault(_vault);\n    }\n\n    function routePayment(\n        bytes32 orderId,\n        address splitter,\n        uint256 amount,\n        uint256 expiry,\n        bytes32 attestRef\n    )\n        public\n    {\n        vault.fund(orderId, msg.sender, splitter, amount, expiry, attestRef);\n    }\n\n    function releasePayment(bytes32 orderId) public {\n        vault.release(orderId);\n    }\n}\n",
  "sourcePath": "/Users/taiwo/workspace/tronbfpay/contracts/PaymentRouter.sol",
  "compiler": {
    "name": "solc",
    "version": "0.5.4+commit.d15a3125.mod.Emscripten.clang"
  },
  "schemaVersion": "2.0.1",
  "updatedAt": "2025-08-22T21:00:42.574Z"
}