{
  "contractName": "PaymentRouterV2",
  "abi": [
    {
      "constant": false,
      "inputs": [
        {
          "name": "orderId",
          "type": "bytes32"
        },
        {
          "name": "splitter",
          "type": "address"
        },
        {
          "name": "amount",
          "type": "uint256"
        },
        {
          "name": "expiry",
          "type": "uint256"
        },
        {
          "name": "attestRef",
          "type": "bytes32"
        }
      ],
      "name": "routePayment",
      "outputs": [],
      "payable": false,
      "stateMutability": "nonpayable",
      "type": "function"
    },
    {
      "constant": false,
      "inputs": [
        {
          "name": "orderId",
          "type": "bytes32"
        }
      ],
      "name": "releasePayment",
      "outputs": [],
      "payable": false,
      "stateMutability": "nonpayable",
      "type": "function"
    },
    {
      "constant": true,
      "inputs": [],
      "name": "vault",
      "outputs": [
        {
          "name": "",
          "type": "address"
        }
      ],
      "payable": false,
      "stateMutability": "view",
      "type": "function"
    },
    {
      "inputs": [
        {
          "name": "_vault",
          "type": "address"
        }
      ],
      "payable": false,
      "stateMutability": "nonpayable",
      "type": "constructor"
    }
  ],
  "bytecode": "0x608060405234801561001057600080fd5b506040516020806104038339810180604052602081101561003057600080fd5b8101908080519060200190929190505050806000806101000a81548173ffffffffffffffffffffffffffffffffffffffff021916908373ffffffffffffffffffffffffffffffffffffffff16021790555050610372806100916000396000f3fe608060405234801561001057600080fd5b506004361061005e576000357c010000000000000000000000000000000000000000000000000000000090048063674a852b146100635780637aa1ed58146100cf578063fbfa77cf146100fd575b600080fd5b6100cd600480360360a081101561007957600080fd5b8101908080359060200190929190803573ffffffffffffffffffffffffffffffffffffffff169060200190929190803590602001909291908035906020019092919080359060200190929190505050610147565b005b6100fb600480360360208110156100e557600080fd5b8101908080359060200190929190505050610276565b005b610105610321565b604051808273ffffffffffffffffffffffffffffffffffffffff1673ffffffffffffffffffffffffffffffffffffffff16815260200191505060405180910390f35b6000809054906101000a900473ffffffffffffffffffffffffffffffffffffffff1673ffffffffffffffffffffffffffffffffffffffff16631d74e01e8633878787876040518763ffffffff167c0100000000000000000000000000000000000000000000000000000000028152600401808781526020018673ffffffffffffffffffffffffffffffffffffffff1673ffffffffffffffffffffffffffffffffffffffff1681526020018573ffffffffffffffffffffffffffffffffffffffff1673ffffffffffffffffffffffffffffffffffffffff1681526020018481526020018381526020018281526020019650505050505050600060405180830381600087803b15801561025757600080fd5b505af115801561026b573d6000803e3d6000fd5b505050505050505050565b6000809054906101000a900473ffffffffffffffffffffffffffffffffffffffff1673ffffffffffffffffffffffffffffffffffffffff166367d42a8b826040518263ffffffff167c010000000000000000000000000000000000000000000000000000000002815260040180828152602001915050600060405180830381600087803b15801561030657600080fd5b505af115801561031a573d6000803e3d6000fd5b5050505050565b6000809054906101000a900473ffffffffffffffffffffffffffffffffffffffff168156fea165627a7a72305820679243737a1a7e4dd8b17e84534e99d61d536252661dd859bc5bce25ee04d6780029",
  "source": "pragma solidity ^0.5.4;\r\n\r\nimport \"../v2/BPayEscrowVaultV2.sol\";\r\n\r\ncontract PaymentRouterV2 {\r\n    BPayEscrowVaultV2 public vault;\r\n\r\n    constructor(address _vault) public {\r\n        vault = BPayEscrowVaultV2(_vault);\r\n    }\r\n\r\n    function routePayment(\r\n        bytes32 orderId,\r\n        address splitter,\r\n        uint256 amount,\r\n        uint256 expiry,\r\n        bytes32 attestRef\r\n    )\r\n        public\r\n    {\r\n        vault.fund(orderId, msg.sender, splitter, amount, expiry, attestRef);\r\n    }\r\n\r\n    function releasePayment(bytes32 orderId) public {\r\n        vault.release(orderId);\r\n    }\r\n}\r\n",
  "sourcePath": "C:/workspace/tronbfpay/contracts/v2/PaymentRouterV2.sol",
  "compiler": {
    "name": "solc",
    "version": "0.5.4+commit.9549d8ff.Emscripten.clang"
  },
  "schemaVersion": "2.0.1",
  "updatedAt": "2025-10-07T17:16:21.885Z"
}