{
  "contractName": "ReserveValidationModule",
  "abi": [
    {
      "anonymous": false,
      "inputs": [
        {
          "indexed": false,
          "internalType": "uint256",
          "name": "totalSupply",
          "type": "uint256"
        }
      ],
      "name": "ReserveValidated",
      "type": "event"
    },
    {
      "inputs": [],
      "name": "reserveValidator",
      "outputs": [
        {
          "internalType": "address",
          "name": "",
          "type": "address"
        }
      ],
      "stateMutability": "view",
      "type": "function"
    },
    {
      "inputs": [
        {
          "internalType": "address",
          "name": "validator",
          "type": "address"
        }
      ],
      "name": "setReserveValidator",
      "outputs": [],
      "stateMutability": "nonpayable",
      "type": "function"
    }
  ],
  "bytecode": "0x6080806040523460135760c4908160188239f35b5f80fdfe60808060405260043610156011575f80fd5b5f3560e01c80636c772ff914605157636d40e82314602d575f80fd5b34604d575f366003190112604d575f546001600160a01b03168152602090f35b5f80fd5b34604d576020366003190112604d576004356001600160a01b03811690819003604d576bffffffffffffffffffffffff60a01b5f5416175f555f80f3fea2646970667358221220707c06b7ebf7894e19687710936f9a7cd96a8e5bc0b7338dcba10bb98a43582064736f6c634300081e0033",
  "source": "// SPDX-License-Identifier: MIT\r\npragma solidity ^0.8.23;\r\n\r\ncontract ReserveValidationModule {\r\n    address public reserveValidator;\r\n\r\n    event ReserveValidated(uint256 totalSupply);\r\n\r\n    // Internal function called after mint to validate reserves\r\n    function _validateReserves(uint256 currentTotalSupply) internal virtual {\r\n        if (reserveValidator != address(0)) {\r\n            (bool success, bytes memory data) = reserveValidator.staticcall(\r\n                abi.encodeWithSignature(\"validate(uint256)\", currentTotalSupply)\r\n            );\r\n            require(success, \"RESERVE_VALIDATION_FAILED\");\r\n            \r\n            // Optional: decode response if validator returns a boolean\r\n            bool validated = abi.decode(data, (bool));\r\n            require(validated, \"RESERVE_NOT_SUFFICIENT\");\r\n        }\r\n\r\n        emit ReserveValidated(currentTotalSupply);\r\n    }\r\n\r\n    // Admin can set the reserve validator contract\r\n    function setReserveValidator(address validator) external virtual {\r\n        reserveValidator = validator;\r\n    }\r\n}\r\n",
  "sourcePath": "C:\\workspace\\tronbfpay\\contracts\\stablecoin\\ReserveValidationModule.sol",
  "compiler": {
    "name": "solc",
    "version": "0.8.30+commit.73712a01.Emscripten.clang"
  },
  "schemaVersion": "2.0.1",
  "updatedAt": "2025-12-10T22:41:09.439Z"
}