{
  "contractName": "RolesModule",
  "abi": [
    {
      "anonymous": false,
      "inputs": [
        {
          "indexed": true,
          "internalType": "address",
          "name": "account",
          "type": "address"
        }
      ],
      "name": "AdminAdded",
      "type": "event"
    },
    {
      "anonymous": false,
      "inputs": [
        {
          "indexed": true,
          "internalType": "address",
          "name": "account",
          "type": "address"
        }
      ],
      "name": "AdminRemoved",
      "type": "event"
    },
    {
      "anonymous": false,
      "inputs": [
        {
          "indexed": true,
          "internalType": "address",
          "name": "account",
          "type": "address"
        }
      ],
      "name": "BurnerAdded",
      "type": "event"
    },
    {
      "anonymous": false,
      "inputs": [
        {
          "indexed": true,
          "internalType": "address",
          "name": "account",
          "type": "address"
        }
      ],
      "name": "BurnerRemoved",
      "type": "event"
    },
    {
      "anonymous": false,
      "inputs": [
        {
          "indexed": true,
          "internalType": "address",
          "name": "account",
          "type": "address"
        }
      ],
      "name": "MinterAdded",
      "type": "event"
    },
    {
      "anonymous": false,
      "inputs": [
        {
          "indexed": true,
          "internalType": "address",
          "name": "account",
          "type": "address"
        }
      ],
      "name": "MinterRemoved",
      "type": "event"
    },
    {
      "inputs": [
        {
          "internalType": "address",
          "name": "account",
          "type": "address"
        }
      ],
      "name": "addAdmin",
      "outputs": [],
      "stateMutability": "nonpayable",
      "type": "function"
    },
    {
      "inputs": [
        {
          "internalType": "address",
          "name": "account",
          "type": "address"
        }
      ],
      "name": "addBurner",
      "outputs": [],
      "stateMutability": "nonpayable",
      "type": "function"
    },
    {
      "inputs": [
        {
          "internalType": "address",
          "name": "account",
          "type": "address"
        }
      ],
      "name": "addMinter",
      "outputs": [],
      "stateMutability": "nonpayable",
      "type": "function"
    },
    {
      "inputs": [
        {
          "internalType": "address",
          "name": "account",
          "type": "address"
        }
      ],
      "name": "checkAdmin",
      "outputs": [
        {
          "internalType": "bool",
          "name": "",
          "type": "bool"
        }
      ],
      "stateMutability": "view",
      "type": "function"
    },
    {
      "inputs": [
        {
          "internalType": "address",
          "name": "account",
          "type": "address"
        }
      ],
      "name": "checkBurner",
      "outputs": [
        {
          "internalType": "bool",
          "name": "",
          "type": "bool"
        }
      ],
      "stateMutability": "view",
      "type": "function"
    },
    {
      "inputs": [
        {
          "internalType": "address",
          "name": "account",
          "type": "address"
        }
      ],
      "name": "checkMinter",
      "outputs": [
        {
          "internalType": "bool",
          "name": "",
          "type": "bool"
        }
      ],
      "stateMutability": "view",
      "type": "function"
    },
    {
      "inputs": [
        {
          "internalType": "address",
          "name": "",
          "type": "address"
        }
      ],
      "name": "isAdmin",
      "outputs": [
        {
          "internalType": "bool",
          "name": "",
          "type": "bool"
        }
      ],
      "stateMutability": "view",
      "type": "function"
    },
    {
      "inputs": [
        {
          "internalType": "address",
          "name": "",
          "type": "address"
        }
      ],
      "name": "isBurner",
      "outputs": [
        {
          "internalType": "bool",
          "name": "",
          "type": "bool"
        }
      ],
      "stateMutability": "view",
      "type": "function"
    },
    {
      "inputs": [
        {
          "internalType": "address",
          "name": "",
          "type": "address"
        }
      ],
      "name": "isMinter",
      "outputs": [
        {
          "internalType": "bool",
          "name": "",
          "type": "bool"
        }
      ],
      "stateMutability": "view",
      "type": "function"
    },
    {
      "inputs": [
        {
          "internalType": "address",
          "name": "account",
          "type": "address"
        }
      ],
      "name": "removeAdmin",
      "outputs": [],
      "stateMutability": "nonpayable",
      "type": "function"
    },
    {
      "inputs": [
        {
          "internalType": "address",
          "name": "account",
          "type": "address"
        }
      ],
      "name": "removeBurner",
      "outputs": [],
      "stateMutability": "nonpayable",
      "type": "function"
    },
    {
      "inputs": [
        {
          "internalType": "address",
          "name": "account",
          "type": "address"
        }
      ],
      "name": "removeMinter",
      "outputs": [],
      "stateMutability": "nonpayable",
      "type": "function"
    }
  ],
  "bytecode": "0x608080604052346015576104a2908161001a8239f35b5f80fdfe60806040526004361015610011575f80fd5b5f3560e01c806302846858146103bd5780631785f53c1461034757806324d7806c146101d65780633092afd5146102d05780634334614a1461028f57806357d959411461028f57806370480275146102165780639026dee8146101d6578063983b2d561461015c578063aa271e1a1461011b578063b789bb1a1461011b5763f44637ba1461009d575f80fd5b34610117576020366003190112610117576004356001600160a01b0381169081900361011757335f525f6020526100da60ff60405f205416610434565b805f52600260205260405f20600160ff198254161790557f86e57fd2b90329052917118de7c3f521f400d439b9650deaa906a25b08b945605f80a2005b5f80fd5b34610117576020366003190112610117576004356001600160a01b03811690819003610117575f526001602052602060ff60405f2054166040519015158152f35b34610117576020366003190112610117576004356001600160a01b0381169081900361011757335f525f60205261019960ff60405f205416610434565b805f52600160205260405f20600160ff198254161790557f6ae172837ea30b801fbfcdd4108aa1d5bf8ff775444fd70256b44e6bf3dfc3f65f80a2005b34610117576020366003190112610117576004356001600160a01b03811690819003610117575f525f602052602060ff60405f2054166040519015158152f35b34610117576020366003190112610117576004356001600160a01b0381169081900361011757335f525f60205261025360ff60405f205416610434565b805f525f60205260405f20600160ff198254161790557f44d6d25963f097ad14f29f06854a01f575648a1ef82f30e562ccd3889717e3395f80a2005b34610117576020366003190112610117576004356001600160a01b03811690819003610117575f526002602052602060ff60405f2054166040519015158152f35b34610117576020366003190112610117576004356001600160a01b0381169081900361011757335f525f60205261030d60ff60405f205416610434565b805f52600160205260405f2060ff1981541690557fe94479a9f7e1952cc78f2d6baab678adc1b772d936c6583def489e524cb666925f80a2005b34610117576020366003190112610117576004356001600160a01b0381169081900361011757335f525f60205261038460ff60405f205416610434565b805f525f60205260405f2060ff1981541690557fa3b62bc36326052d97ea62d63c3d60308ed4c3ea8ac079dd8499f1e9c4f80c0f5f80a2005b34610117576020366003190112610117576004356001600160a01b0381169081900361011757335f525f6020526103fa60ff60405f205416610434565b805f52600260205260405f2060ff1981541690557f90eabbc0c667db2a5029ed6bc0f5fe9f356d11684a4ca9fcfaec0e53f12b9c8e5f80a2005b1561043b57565b60405162461bcd60e51b81526020600482015260096024820152682727aa2fa0a226a4a760b91b6044820152606490fdfea26469706673582212209dc75cef6fc660e377a6bce6ee44a1837f03f3ad79e8b6256e029573ba3b1e2b64736f6c634300081e0033",
  "source": "// SPDX-License-Identifier: MIT\r\npragma solidity ^0.8.20;\r\n\r\ncontract RolesModule {\r\n    mapping(address => bool) public isAdmin;\r\n    mapping(address => bool) public isMinter;\r\n    mapping(address => bool) public isBurner;\r\n\r\n    event AdminAdded(address indexed account);\r\n    event AdminRemoved(address indexed account);\r\n    event MinterAdded(address indexed account);\r\n    event MinterRemoved(address indexed account);\r\n    event BurnerAdded(address indexed account);\r\n    event BurnerRemoved(address indexed account);\r\n\r\n    modifier onlyAdmin() {\r\n        require(isAdmin[msg.sender], \"NOT_ADMIN\");\r\n        _;\r\n    }\r\n\r\n    // Admin management\r\n    function addAdmin(address account) external onlyAdmin {\r\n        isAdmin[account] = true;\r\n        emit AdminAdded(account);\r\n    }\r\n\r\n    function removeAdmin(address account) external onlyAdmin {\r\n        isAdmin[account] = false;\r\n        emit AdminRemoved(account);\r\n    }\r\n\r\n    // Minter management\r\n    function addMinter(address account) external onlyAdmin {\r\n        isMinter[account] = true;\r\n        emit MinterAdded(account);\r\n    }\r\n\r\n    function removeMinter(address account) external onlyAdmin {\r\n        isMinter[account] = false;\r\n        emit MinterRemoved(account);\r\n    }\r\n\r\n    // Burner management\r\n    function addBurner(address account) external onlyAdmin {\r\n        isBurner[account] = true;\r\n        emit BurnerAdded(account);\r\n    }\r\n\r\n    function removeBurner(address account) external onlyAdmin {\r\n        isBurner[account] = false;\r\n        emit BurnerRemoved(account);\r\n    }\r\n\r\n    // Role checks\r\n    function checkMinter(address account) external view returns (bool) {\r\n        return isMinter[account];\r\n    }\r\n\r\n    function checkBurner(address account) external view returns (bool) {\r\n        return isBurner[account];\r\n    }\r\n\r\n    function checkAdmin(address account) external view returns (bool) {\r\n        return isAdmin[account];\r\n    }\r\n}\r\n",
  "sourcePath": "C:\\workspace\\tronbfpay\\contracts\\stablecoin\\RolesModule.sol",
  "compiler": {
    "name": "solc",
    "version": "0.8.30+commit.73712a01.Emscripten.clang"
  },
  "schemaVersion": "2.0.1",
  "updatedAt": "2025-12-10T22:41:09.440Z"
}