{
  "contractName": "StableCoinCore",
  "abi": [
    {
      "inputs": [
        {
          "internalType": "string",
          "name": "_name",
          "type": "string"
        },
        {
          "internalType": "string",
          "name": "_symbol",
          "type": "string"
        },
        {
          "internalType": "uint8",
          "name": "_decimals",
          "type": "uint8"
        },
        {
          "internalType": "address",
          "name": "initialAdmin",
          "type": "address"
        },
        {
          "internalType": "uint256",
          "name": "initialSupply",
          "type": "uint256"
        }
      ],
      "stateMutability": "nonpayable",
      "type": "constructor"
    },
    {
      "anonymous": false,
      "inputs": [
        {
          "indexed": true,
          "internalType": "address",
          "name": "account",
          "type": "address"
        }
      ],
      "name": "AdminAdded",
      "type": "event"
    },
    {
      "anonymous": false,
      "inputs": [
        {
          "indexed": true,
          "internalType": "address",
          "name": "account",
          "type": "address"
        }
      ],
      "name": "AdminRemoved",
      "type": "event"
    },
    {
      "anonymous": false,
      "inputs": [
        {
          "indexed": true,
          "internalType": "address",
          "name": "owner",
          "type": "address"
        },
        {
          "indexed": true,
          "internalType": "address",
          "name": "spender",
          "type": "address"
        },
        {
          "indexed": false,
          "internalType": "uint256",
          "name": "amount",
          "type": "uint256"
        }
      ],
      "name": "Approval",
      "type": "event"
    },
    {
      "anonymous": false,
      "inputs": [
        {
          "indexed": true,
          "internalType": "address",
          "name": "account",
          "type": "address"
        }
      ],
      "name": "Blacklisted",
      "type": "event"
    },
    {
      "anonymous": false,
      "inputs": [
        {
          "indexed": true,
          "internalType": "address",
          "name": "account",
          "type": "address"
        }
      ],
      "name": "BurnerAdded",
      "type": "event"
    },
    {
      "anonymous": false,
      "inputs": [
        {
          "indexed": true,
          "internalType": "address",
          "name": "account",
          "type": "address"
        }
      ],
      "name": "BurnerRemoved",
      "type": "event"
    },
    {
      "anonymous": false,
      "inputs": [
        {
          "indexed": false,
          "internalType": "uint256",
          "name": "newCap",
          "type": "uint256"
        }
      ],
      "name": "CapUpdated",
      "type": "event"
    },
    {
      "anonymous": false,
      "inputs": [
        {
          "indexed": true,
          "internalType": "address",
          "name": "account",
          "type": "address"
        }
      ],
      "name": "MinterAdded",
      "type": "event"
    },
    {
      "anonymous": false,
      "inputs": [
        {
          "indexed": true,
          "internalType": "address",
          "name": "account",
          "type": "address"
        }
      ],
      "name": "MinterRemoved",
      "type": "event"
    },
    {
      "anonymous": false,
      "inputs": [
        {
          "indexed": true,
          "internalType": "address",
          "name": "admin",
          "type": "address"
        }
      ],
      "name": "Paused",
      "type": "event"
    },
    {
      "anonymous": false,
      "inputs": [
        {
          "indexed": true,
          "internalType": "address",
          "name": "oldOracle",
          "type": "address"
        },
        {
          "indexed": true,
          "internalType": "address",
          "name": "newOracle",
          "type": "address"
        }
      ],
      "name": "PriceOracleUpdated",
      "type": "event"
    },
    {
      "anonymous": false,
      "inputs": [
        {
          "indexed": false,
          "internalType": "uint256",
          "name": "totalSupply",
          "type": "uint256"
        }
      ],
      "name": "ReserveValidated",
      "type": "event"
    },
    {
      "anonymous": false,
      "inputs": [
        {
          "indexed": true,
          "internalType": "address",
          "name": "from",
          "type": "address"
        },
        {
          "indexed": true,
          "internalType": "address",
          "name": "to",
          "type": "address"
        },
        {
          "indexed": false,
          "internalType": "uint256",
          "name": "amount",
          "type": "uint256"
        }
      ],
      "name": "Transfer",
      "type": "event"
    },
    {
      "anonymous": false,
      "inputs": [
        {
          "indexed": true,
          "internalType": "address",
          "name": "account",
          "type": "address"
        }
      ],
      "name": "UnBlacklisted",
      "type": "event"
    },
    {
      "anonymous": false,
      "inputs": [
        {
          "indexed": true,
          "internalType": "address",
          "name": "account",
          "type": "address"
        }
      ],
      "name": "UnWhitelisted",
      "type": "event"
    },
    {
      "anonymous": false,
      "inputs": [
        {
          "indexed": true,
          "internalType": "address",
          "name": "admin",
          "type": "address"
        }
      ],
      "name": "Unpaused",
      "type": "event"
    },
    {
      "anonymous": false,
      "inputs": [
        {
          "indexed": true,
          "internalType": "address",
          "name": "account",
          "type": "address"
        }
      ],
      "name": "Whitelisted",
      "type": "event"
    },
    {
      "inputs": [
        {
          "internalType": "address",
          "name": "account",
          "type": "address"
        }
      ],
      "name": "addAdmin",
      "outputs": [],
      "stateMutability": "nonpayable",
      "type": "function"
    },
    {
      "inputs": [
        {
          "internalType": "address",
          "name": "account",
          "type": "address"
        }
      ],
      "name": "addBurner",
      "outputs": [],
      "stateMutability": "nonpayable",
      "type": "function"
    },
    {
      "inputs": [
        {
          "internalType": "address",
          "name": "account",
          "type": "address"
        }
      ],
      "name": "addMinter",
      "outputs": [],
      "stateMutability": "nonpayable",
      "type": "function"
    },
    {
      "inputs": [
        {
          "internalType": "address",
          "name": "from",
          "type": "address"
        },
        {
          "internalType": "uint256",
          "name": "amount",
          "type": "uint256"
        }
      ],
      "name": "adminBurn",
      "outputs": [],
      "stateMutability": "nonpayable",
      "type": "function"
    },
    {
      "inputs": [
        {
          "internalType": "address",
          "name": "to",
          "type": "address"
        },
        {
          "internalType": "uint256",
          "name": "amount",
          "type": "uint256"
        }
      ],
      "name": "adminMint",
      "outputs": [],
      "stateMutability": "nonpayable",
      "type": "function"
    },
    {
      "inputs": [
        {
          "internalType": "address",
          "name": "",
          "type": "address"
        },
        {
          "internalType": "address",
          "name": "",
          "type": "address"
        }
      ],
      "name": "allowance",
      "outputs": [
        {
          "internalType": "uint256",
          "name": "",
          "type": "uint256"
        }
      ],
      "stateMutability": "view",
      "type": "function"
    },
    {
      "inputs": [
        {
          "internalType": "address",
          "name": "spender",
          "type": "address"
        },
        {
          "internalType": "uint256",
          "name": "amount",
          "type": "uint256"
        }
      ],
      "name": "approve",
      "outputs": [
        {
          "internalType": "bool",
          "name": "",
          "type": "bool"
        }
      ],
      "stateMutability": "nonpayable",
      "type": "function"
    },
    {
      "inputs": [
        {
          "internalType": "address",
          "name": "",
          "type": "address"
        }
      ],
      "name": "balanceOf",
      "outputs": [
        {
          "internalType": "uint256",
          "name": "",
          "type": "uint256"
        }
      ],
      "stateMutability": "view",
      "type": "function"
    },
    {
      "inputs": [
        {
          "internalType": "address",
          "name": "account",
          "type": "address"
        }
      ],
      "name": "blacklist",
      "outputs": [],
      "stateMutability": "nonpayable",
      "type": "function"
    },
    {
      "inputs": [
        {
          "internalType": "address",
          "name": "",
          "type": "address"
        }
      ],
      "name": "blacklisted",
      "outputs": [
        {
          "internalType": "bool",
          "name": "",
          "type": "bool"
        }
      ],
      "stateMutability": "view",
      "type": "function"
    },
    {
      "inputs": [
        {
          "internalType": "uint256",
          "name": "amount",
          "type": "uint256"
        }
      ],
      "name": "burn",
      "outputs": [],
      "stateMutability": "nonpayable",
      "type": "function"
    },
    {
      "inputs": [
        {
          "internalType": "address",
          "name": "from",
          "type": "address"
        },
        {
          "internalType": "uint256",
          "name": "amount",
          "type": "uint256"
        }
      ],
      "name": "burnFrom",
      "outputs": [],
      "stateMutability": "nonpayable",
      "type": "function"
    },
    {
      "inputs": [],
      "name": "cap",
      "outputs": [
        {
          "internalType": "uint256",
          "name": "",
          "type": "uint256"
        }
      ],
      "stateMutability": "view",
      "type": "function"
    },
    {
      "inputs": [
        {
          "internalType": "address",
          "name": "account",
          "type": "address"
        }
      ],
      "name": "checkAdmin",
      "outputs": [
        {
          "internalType": "bool",
          "name": "",
          "type": "bool"
        }
      ],
      "stateMutability": "view",
      "type": "function"
    },
    {
      "inputs": [
        {
          "internalType": "address",
          "name": "account",
          "type": "address"
        }
      ],
      "name": "checkBurner",
      "outputs": [
        {
          "internalType": "bool",
          "name": "",
          "type": "bool"
        }
      ],
      "stateMutability": "view",
      "type": "function"
    },
    {
      "inputs": [
        {
          "internalType": "address",
          "name": "account",
          "type": "address"
        }
      ],
      "name": "checkMinter",
      "outputs": [
        {
          "internalType": "bool",
          "name": "",
          "type": "bool"
        }
      ],
      "stateMutability": "view",
      "type": "function"
    },
    {
      "inputs": [],
      "name": "decimals",
      "outputs": [
        {
          "internalType": "uint8",
          "name": "",
          "type": "uint8"
        }
      ],
      "stateMutability": "view",
      "type": "function"
    },
    {
      "inputs": [
        {
          "internalType": "address",
          "name": "",
          "type": "address"
        }
      ],
      "name": "isAdmin",
      "outputs": [
        {
          "internalType": "bool",
          "name": "",
          "type": "bool"
        }
      ],
      "stateMutability": "view",
      "type": "function"
    },
    {
      "inputs": [
        {
          "internalType": "address",
          "name": "account",
          "type": "address"
        }
      ],
      "name": "isBlacklisted",
      "outputs": [
        {
          "internalType": "bool",
          "name": "",
          "type": "bool"
        }
      ],
      "stateMutability": "view",
      "type": "function"
    },
    {
      "inputs": [
        {
          "internalType": "address",
          "name": "",
          "type": "address"
        }
      ],
      "name": "isBurner",
      "outputs": [
        {
          "internalType": "bool",
          "name": "",
          "type": "bool"
        }
      ],
      "stateMutability": "view",
      "type": "function"
    },
    {
      "inputs": [
        {
          "internalType": "address",
          "name": "",
          "type": "address"
        }
      ],
      "name": "isMinter",
      "outputs": [
        {
          "internalType": "bool",
          "name": "",
          "type": "bool"
        }
      ],
      "stateMutability": "view",
      "type": "function"
    },
    {
      "inputs": [
        {
          "internalType": "address",
          "name": "account",
          "type": "address"
        }
      ],
      "name": "isWhitelisted",
      "outputs": [
        {
          "internalType": "bool",
          "name": "",
          "type": "bool"
        }
      ],
      "stateMutability": "view",
      "type": "function"
    },
    {
      "inputs": [
        {
          "internalType": "address",
          "name": "to",
          "type": "address"
        },
        {
          "internalType": "uint256",
          "name": "amount",
          "type": "uint256"
        }
      ],
      "name": "mint",
      "outputs": [],
      "stateMutability": "nonpayable",
      "type": "function"
    },
    {
      "inputs": [],
      "name": "name",
      "outputs": [
        {
          "internalType": "string",
          "name": "",
          "type": "string"
        }
      ],
      "stateMutability": "view",
      "type": "function"
    },
    {
      "inputs": [],
      "name": "pause",
      "outputs": [],
      "stateMutability": "nonpayable",
      "type": "function"
    },
    {
      "inputs": [],
      "name": "paused",
      "outputs": [
        {
          "internalType": "bool",
          "name": "",
          "type": "bool"
        }
      ],
      "stateMutability": "view",
      "type": "function"
    },
    {
      "inputs": [],
      "name": "priceOracle",
      "outputs": [
        {
          "internalType": "address",
          "name": "",
          "type": "address"
        }
      ],
      "stateMutability": "view",
      "type": "function"
    },
    {
      "inputs": [
        {
          "internalType": "address",
          "name": "account",
          "type": "address"
        }
      ],
      "name": "removeAdmin",
      "outputs": [],
      "stateMutability": "nonpayable",
      "type": "function"
    },
    {
      "inputs": [
        {
          "internalType": "address",
          "name": "account",
          "type": "address"
        }
      ],
      "name": "removeBurner",
      "outputs": [],
      "stateMutability": "nonpayable",
      "type": "function"
    },
    {
      "inputs": [
        {
          "internalType": "address",
          "name": "account",
          "type": "address"
        }
      ],
      "name": "removeMinter",
      "outputs": [],
      "stateMutability": "nonpayable",
      "type": "function"
    },
    {
      "inputs": [],
      "name": "reserveValidator",
      "outputs": [
        {
          "internalType": "address",
          "name": "",
          "type": "address"
        }
      ],
      "stateMutability": "view",
      "type": "function"
    },
    {
      "inputs": [
        {
          "internalType": "uint256",
          "name": "newCap",
          "type": "uint256"
        }
      ],
      "name": "setCap",
      "outputs": [],
      "stateMutability": "nonpayable",
      "type": "function"
    },
    {
      "inputs": [
        {
          "internalType": "address",
          "name": "oracle",
          "type": "address"
        }
      ],
      "name": "setPriceOracle",
      "outputs": [],
      "stateMutability": "nonpayable",
      "type": "function"
    },
    {
      "inputs": [
        {
          "internalType": "address",
          "name": "validator",
          "type": "address"
        }
      ],
      "name": "setReserveValidator",
      "outputs": [],
      "stateMutability": "nonpayable",
      "type": "function"
    },
    {
      "inputs": [],
      "name": "symbol",
      "outputs": [
        {
          "internalType": "string",
          "name": "",
          "type": "string"
        }
      ],
      "stateMutability": "view",
      "type": "function"
    },
    {
      "inputs": [],
      "name": "totalSupply",
      "outputs": [
        {
          "internalType": "uint256",
          "name": "",
          "type": "uint256"
        }
      ],
      "stateMutability": "view",
      "type": "function"
    },
    {
      "inputs": [
        {
          "internalType": "address",
          "name": "to",
          "type": "address"
        },
        {
          "internalType": "uint256",
          "name": "amount",
          "type": "uint256"
        }
      ],
      "name": "transfer",
      "outputs": [
        {
          "internalType": "bool",
          "name": "",
          "type": "bool"
        }
      ],
      "stateMutability": "nonpayable",
      "type": "function"
    },
    {
      "inputs": [
        {
          "internalType": "address",
          "name": "from",
          "type": "address"
        },
        {
          "internalType": "address",
          "name": "to",
          "type": "address"
        },
        {
          "internalType": "uint256",
          "name": "amount",
          "type": "uint256"
        }
      ],
      "name": "transferFrom",
      "outputs": [
        {
          "internalType": "bool",
          "name": "",
          "type": "bool"
        }
      ],
      "stateMutability": "nonpayable",
      "type": "function"
    },
    {
      "inputs": [
        {
          "internalType": "address",
          "name": "account",
          "type": "address"
        }
      ],
      "name": "unblacklist",
      "outputs": [],
      "stateMutability": "nonpayable",
      "type": "function"
    },
    {
      "inputs": [],
      "name": "unpause",
      "outputs": [],
      "stateMutability": "nonpayable",
      "type": "function"
    },
    {
      "inputs": [
        {
          "internalType": "address",
          "name": "",
          "type": "address"
        }
      ],
      "name": "whitelisted",
      "outputs": [
        {
          "internalType": "bool",
          "name": "",
          "type": "bool"
        }
      ],
      "stateMutability": "view",
      "type": "function"
    }
  ],
  "bytecode": "0x60806040523461042357611db28038038061001981610427565b92833981019060a0818303126104235780516001600160401b038111610423578261004591830161044c565b602082015190926001600160401b0382116104235761006591830161044c565b91604082015160ff81168091036104235760608301516001600160a01b03811693908490036104235760800151916001600d5583156103f1578051906001600160401b0382116102f45760065490600182811c921680156103e7575b60208310146102d65781601f849311610379575b50602090601f8311600114610313575f92610308575b50508160011b915f199060031b1c1916176006555b83516001600160401b0381116102f457600754600181811c911680156102ea575b60208210146102d657601f8111610273575b50602094601f8211600114610210579481929394955f92610205575b50508160011b915f199060031b1c1916176007555b60ff196008541617600855815f52600160205260405f20600160ff19825416179055604051827f44d6d25963f097ad14f29f06854a01f575648a1ef82f30e562ccd3889717e3395f80a2816101c3575b604051611914908161049e8239f35b60207fddf252ad1be2c89b69c2b068fc378daa952ba7f163c4a11628f55a4df523b3ef91835f94600a55858552600b83528060408620558152a35f80806101b4565b015190505f8061014f565b601f1982169560075f52805f20915f5b88811061025b57508360019596979810610243575b505050811b01600755610164565b01515f1960f88460031b161c191690555f8080610235565b91926020600181928685015181550194019201610220565b60075f527fa66cc928b5edb82af9bd49922954155ab7b0942694bea4ce44661d9a8736c688601f830160051c810191602084106102cc575b601f0160051c01905b8181106102c15750610133565b5f81556001016102b4565b90915081906102ab565b634e487b7160e01b5f52602260045260245ffd5b90607f1690610121565b634e487b7160e01b5f52604160045260245ffd5b015190505f806100eb565b60065f9081528281209350601f198516905b8181106103615750908460019594939210610349575b505050811b01600655610100565b01515f1960f88460031b161c191690555f808061033b565b92936020600181928786015181550195019301610325565b60065f529091507ff652222313e28459528d920b65115c16c04f3efc82aaedc97be59f3f377c0d3f601f840160051c810191602085106103dd575b90601f859493920160051c01905b8181106103cf57506100d5565b5f81558493506001016103c2565b90915081906103b4565b91607f16916100c1565b60405162461bcd60e51b815260206004820152600a6024820152692d22a927afa0a226a4a760b11b6044820152606490fd5b5f80fd5b6040519190601f01601f191682016001600160401b038111838210176102f457604052565b81601f82011215610423578051906001600160401b0382116102f45761047b601f8301601f1916602001610427565b928284526020838301011161042357815f9260208093018386015e830101529056fe60806040526004361015610011575f80fd5b5f3560e01c806302846858146110e257806306dd0419146110ae57806306fdde0314610ff3578063095ea7b314610e395780631785f53c14610dc457806318160ddd14610da757806323b872dd14610cb057806324d7806c146105aa5780632630c12f14610c845780633092afd514610c0f578063313ce56714610bef578063355274ea14610bd25780633af32abf146103795780633f4ba83a14610b7857806340c10f1914610ae957806342966c68146109645780634334614a146107a657806347786d37146108b9578063530e784f146107e357806357d95941146107a65780635c975abb146107815780636c772ff9146107455780636d40e8231461071e57806370480275146106a457806370a082311461066c57806375e3661e1461021d57806379cc6790146106455780638456cb59146105e75780639026dee8146105aa57806395d89b41146104a6578063983b2d561461042e578063a9059cbb146103f3578063aa271e1a146103b6578063b789bb1a146103b6578063d936547e14610379578063dbac26e9146101dc578063dd62ed3e14610329578063e58306f91461029a578063f44637ba14610222578063f9f92be41461021d5763fe575a87146101dc575f80fd5b34610219576020366003190112610219576001600160a01b036101fd611157565b165f526005602052602060ff60405f2054166040519015158152f35b5f80fd5b6111e3565b346102195760203660031901126102195761023b611157565b335f52600160205261025360ff60405f205416611233565b6001600160a01b03165f818152600360205260408120805460ff191660011790557f86e57fd2b90329052917118de7c3f521f400d439b9650deaa906a25b08b945609080a2005b346102195760403660031901126102195761030a6102b6611157565b335f5260016020526102ce60ff60405f205416611233565b6102dc6001600d541461126b565b6002600d55335f52600260205260ff60405f2054168015610311575b610301906113a9565b602435906115ea565b6001600d55005b50335f9081526001602052604090205460ff166102f8565b3461021957604036600319011261021957610342611157565b61034a61116d565b6001600160a01b039182165f908152600c60209081526040808320949093168252928352819020549051908152f35b34610219576020366003190112610219576001600160a01b0361039a611157565b165f526004602052602060ff60405f2054166040519015158152f35b34610219576020366003190112610219576001600160a01b036103d7611157565b165f526002602052602060ff60405f2054166040519015158152f35b346102195760403660031901126102195761042361040f611157565b61041981336113e5565b602435903361153a565b602060405160018152f35b3461021957602036600319011261021957610447611157565b335f52600160205261045f60ff60405f205416611233565b6001600160a01b03165f818152600260205260408120805460ff191660011790557f6ae172837ea30b801fbfcdd4108aa1d5bf8ff775444fd70256b44e6bf3dfc3f69080a2005b34610219575f366003190112610219576040515f6007548060011c906001811680156105a0575b60208310811461058c57828552908115610568575060011461050a575b610506836104fa81850382611183565b604051918291826111b9565b0390f35b60075f9081527fa66cc928b5edb82af9bd49922954155ab7b0942694bea4ce44661d9a8736c688939250905b80821061054e575090915081016020016104fa6104ea565b919260018160209254838588010152019101909291610536565b60ff191660208086019190915291151560051b840190910191506104fa90506104ea565b634e487b7160e01b5f52602260045260245ffd5b91607f16916104cd565b34610219576020366003190112610219576001600160a01b036105cb611157565b165f526001602052602060ff60405f2054166040519015158152f35b34610219575f36600319011261021957335f52600160205261060f60ff60405f205416611233565b61010061ff00196008541617600855337f62e78cea01bee320cd4e420270b5ea74000d11b0c9f74754ebdbfc544b05a2585f80a2005b346102195760403660031901126102195761066a610661611157565b602435906112a4565b005b34610219576020366003190112610219576001600160a01b0361068d611157565b165f52600b602052602060405f2054604051908152f35b34610219576020366003190112610219576106bd611157565b335f5260016020526106d560ff60405f205416611233565b6001600160a01b03165f8181526001602081905260408220805460ff191690911790557f44d6d25963f097ad14f29f06854a01f575648a1ef82f30e562ccd3889717e3399080a2005b34610219575f366003190112610219575f546040516001600160a01b039091168152602090f35b34610219576020366003190112610219576001600160a01b03610766611157565b166bffffffffffffffffffffffff60a01b5f5416175f555f80f35b34610219575f36600319011261021957602060ff60085460081c166040519015158152f35b34610219576020366003190112610219576001600160a01b036107c7611157565b165f526003602052602060ff60405f2054166040519015158152f35b34610219576020366003190112610219576107fc611157565b335f52600160205261081460ff60405f205416611233565b6001600160a01b03811690811561087b576008805462010000600160b01b03198116601093841b62010000600160b01b031617909155901c6001600160a01b03167f56b5f80d8cac1479698aa7d01605fd6111e90b15fc4d2b377417f46034876cbd5f80a3005b60405162461bcd60e51b8152602060048201526016602482015275494e56414c49445f4f5241434c455f4144445245535360501b6044820152606490fd5b3461021957602036600319011261021957600435335f5260016020526108e560ff60405f205416611233565b600a54811061091f576020817f3c8eb7c49d332f4c1e4d92a27cda93c31cc9452f7a408e0c6109fcddbc9946ea92600955604051908152a1005b60405162461bcd60e51b815260206004820152601860248201527f4e45575f4341505f4c4553535f5448414e5f535550504c5900000000000000006044820152606490fd5b34610219576020366003190112610219576004356109866001600d541461126b565b6002600d553315610aac57335f52600560205260ff60405f205416610a67576109b760ff60085460081c1615611884565b335f52600b60205260405f2054818110610a22578190335f52600b6020520360405f2055600a5490808203918211610a0e575f91600a556040519081525f5160206118bf5f395f51905f5260203392a36001600d55005b634e487b7160e01b5f52601160045260245ffd5b60405162461bcd60e51b815260206004820152601b60248201527f45524332303a20696e73756666696369656e742062616c616e636500000000006044820152606490fd5b60405162461bcd60e51b815260206004820152601c60248201527f45524332303a206275726e2066726f6d20626c61636b6c6973746564000000006044820152606490fd5b60405162461bcd60e51b815260206004820152601560248201527445524332303a206275726e2066726f6d207a65726f60581b6044820152606490fd5b3461021957604036600319011261021957610b02611157565b610b106001600d541461126b565b6002600d5560ff60085460081c16610b455761030a90335f52600260205260ff60405f205416801561031157610301906113a9565b60405162461bcd60e51b815260206004820152600b60248201526a1352539517d4105554d15160aa1b6044820152606490fd5b34610219575f36600319011261021957335f526001602052610ba060ff60405f205416611233565b61ff001960085416600855337f5db9ee0a495bf2e6ff9c91a7834c1ba4fdd244a5e8aa4e537bd38aeae4b073aa5f80a2005b34610219575f366003190112610219576020600954604051908152f35b34610219575f36600319011261021957602060ff60085416604051908152f35b3461021957602036600319011261021957610c28611157565b335f526001602052610c4060ff60405f205416611233565b6001600160a01b03165f818152600260205260408120805460ff191690557fe94479a9f7e1952cc78f2d6baab678adc1b772d936c6583def489e524cb666929080a2005b34610219575f3660031901126102195760085460405160109190911c6001600160a01b03168152602090f35b3461021957606036600319011261021957610cc9611157565b610cd161116d565b60443590610cdf81846113e5565b6001600160a01b0383165f818152600c602090815260408083203384529091529020549390838510610d62575f818152600c602090815260408083203380855290835292819020978790039788905551968752610423969192917f8c5be1e5ebec7d5bd14f71427d1e84f3dd0314c0f7b2291e5b200ac8c7c3b9259190a361153a565b60405162461bcd60e51b815260206004820152601960248201527f54524332303a20616c6c6f77616e6365206578636565646564000000000000006044820152606490fd5b34610219575f366003190112610219576020600a54604051908152f35b3461021957602036600319011261021957610ddd611157565b335f526001602052610df560ff60405f205416611233565b6001600160a01b03165f818152600160205260408120805460ff191690557fa3b62bc36326052d97ea62d63c3d60308ed4c3ea8ac079dd8499f1e9c4f80c0f9080a2005b3461021957604036600319011261021957610e52611157565b60243590335f52600560205260ff60405f205416610fba57335f52600460205260ff60405f20541615610f755760ff60085460081c16610f475733151580610f35575b15610efa57335f52600c60205260405f2060018060a01b0382165f526020528160405f205560405191825260018060a01b0316907f8c5be1e5ebec7d5bd14f71427d1e84f3dd0314c0f7b2291e5b200ac8c7c3b92560203392a3602060405160018152f35b60405162461bcd60e51b815260206004820152601360248201527254524332303a207a65726f206164647265737360681b6044820152606490fd5b506001600160a01b0381161515610e95565b60405162461bcd60e51b81526020600482015260066024820152651c185d5cd95960d21b6044820152606490fd5b60405162461bcd60e51b815260206004820152601760248201527f41646472657373206e6f742077686974656c69737465640000000000000000006044820152606490fd5b60405162461bcd60e51b81526020600482015260116024820152701bdddb995c88189b1858dadb1a5cdd1959607a1b6044820152606490fd5b34610219575f366003190112610219576040515f6006548060011c906001811680156110a4575b60208310811461058c57828552908115610568575060011461104657610506836104fa81850382611183565b60065f9081527ff652222313e28459528d920b65115c16c04f3efc82aaedc97be59f3f377c0d3f939250905b80821061108a575090915081016020016104fa6104ea565b919260018160209254838588010152019101909291611072565b91607f169161101a565b346102195760403660031901126102195761066a6110ca611157565b335f52600160205261066160ff60405f205416611233565b34610219576020366003190112610219576110fb611157565b335f52600160205261111360ff60405f205416611233565b6001600160a01b03165f818152600360205260408120805460ff191690557f90eabbc0c667db2a5029ed6bc0f5fe9f356d11684a4ca9fcfaec0e53f12b9c8e9080a2005b600435906001600160a01b038216820361021957565b602435906001600160a01b038216820361021957565b90601f8019910116810190811067ffffffffffffffff8211176111a557604052565b634e487b7160e01b5f52604160045260245ffd5b602060409281835280519182918282860152018484015e5f828201840152601f01601f1916010190565b34610219576020366003190112610219576111fc611157565b5060405162461bcd60e51b815260206004820152600e60248201526d105113525397d49154555254915160921b6044820152606490fd5b1561123a57565b60405162461bcd60e51b81526020600482015260096024820152682727aa2fa0a226a4a760b91b6044820152606490fd5b1561127257565b60405162461bcd60e51b815260206004820152600a6024820152695245454e5452414e435960b01b6044820152606490fd5b6112b26001600d541461126b565b6002600d55335f52600360205260ff60405f2054168015611393575b1561135e576001600160a01b03168015610aac57805f52600560205260ff60405f205416610a675761130860ff60085460081c1615611884565b805f52600b60205260405f2054828110610a22578290825f52600b6020520360405f2055600a5491808303928311610a0e5760205f5160206118bf5f395f51905f52915f94600a55604051908152a36001600d55565b60405162461bcd60e51b815260206004820152600d60248201526c2727aa2fa0aaaa242fa12aa92760991b6044820152606490fd5b50335f52600160205260ff60405f2054166112ce565b156113b057565b60405162461bcd60e51b815260206004820152600d60248201526c1393d517d055551217d3525395609a1b6044820152606490fd5b6001600160a01b039091169081156114e8576001600160a01b03165f8181526005602052604090205460ff1615806114d1575b15611497575f52600460205260ff60405f20541615908161147f575b5061143b57565b60ff60085460081c1661144a57565b60405162461bcd60e51b815260206004820152600d60248201526c151490cc8c0e881c185d5cd959609a1b6044820152606490fd5b90505f52600460205260ff60405f205416155f611434565b60405162461bcd60e51b8152602060048201526012602482015271151490cc8c0e88189b1858dadb1a5cdd195960721b6044820152606490fd5b50815f52600560205260ff60405f20541615611418565b60405162461bcd60e51b815260206004820152601760248201527f54524332303a207472616e7366657220746f207a65726f0000000000000000006044820152606490fd5b91908201809211610a0e57565b6001600160a01b03165f818152600b60205260409020549091908381106115a5575f5160206118bf5f395f51905f529184602092855f52600b84520360405f205560018060a01b031693845f52600b825260405f2061159a82825461152d565b9055604051908152a3565b60405162461bcd60e51b815260206004820152601b60248201527f54524332303a20696e73756666696369656e742062616c616e636500000000006044820152606490fd5b6115f682600a5461152d565b60095410611850576001600160a01b0316801561181557805f52600560205260ff60405f2054166117d05761163360ff60085460081c1615611884565b805f52600b60205260405f2061164a83825461152d565b90555f5f5160206118bf5f395f51905f52602061166985600a5461152d565b9485600a55604051908152a35f546001600160a01b0316806116b4575b5060207f662dad40caf91872ee3201405617a25b168d75e387241b93284b9bb2f0596c3f91604051908152a1565b5f8091604051602081019063ce4d01a360e01b8252856024820152602481526116de604482611183565b51915afa3d156117c8573d9067ffffffffffffffff82116111a55760405191611711601f8201601f191660200184611183565b82523d5f602084013e5b1561178357602081805181010312610219576020015180159081150361021957611745575f611686565b60405162461bcd60e51b8152602060048201526016602482015275149154d154959157d393d517d4d551919250d251539560521b6044820152606490fd5b60405162461bcd60e51b815260206004820152601960248201527f524553455256455f56414c49444154494f4e5f4641494c4544000000000000006044820152606490fd5b60609061171b565b60405162461bcd60e51b815260206004820152601a60248201527f45524332303a206d696e7420746f20626c61636b6c69737465640000000000006044820152606490fd5b60405162461bcd60e51b815260206004820152601360248201527245524332303a206d696e7420746f207a65726f60681b6044820152606490fd5b60405162461bcd60e51b815260206004820152600c60248201526b10d05417d15610d15151115160a21b6044820152606490fd5b1561188b57565b60405162461bcd60e51b815260206004820152600b60248201526a1095549397d4105554d15160aa1b6044820152606490fdfeddf252ad1be2c89b69c2b068fc378daa952ba7f163c4a11628f55a4df523b3efa2646970667358221220de3766f5e1ae2d3cbb1d1cc71166748f99938286f8044a97105a9573fccd392a64736f6c634300081e0033",
  "source": "// SPDX-License-Identifier: MIT\r\npragma solidity ^0.8.23;\r\n\r\nimport \"./ReserveValidationModule.sol\";\r\nimport \"./RolesModule.sol\";\r\nimport \"./BlacklistModule.sol\";\r\nimport \"./WhitelistModule.sol\";\r\n\r\ncontract StableCoinCore is ReserveValidationModule,RolesModule, WhitelistModule, BlacklistModule {\r\n\r\n    string public name;\r\n    string public symbol;\r\n    uint8 public decimals;\r\n    bool public paused;\r\n    address public priceOracle;\r\n\r\n    event Paused(address indexed admin);\r\n    event Unpaused(address indexed admin);\r\n\r\n\r\n    uint256 public cap; // default: no cap\r\n    uint256 public totalSupply;\r\n    mapping(address => uint256) public balanceOf;\r\n    mapping(address => mapping(address => uint256)) public allowance;\r\n\r\n\r\n    event Transfer(address indexed from, address indexed to, uint256 amount);\r\n    event Approval(address indexed owner, address indexed spender, uint256 amount);\r\n    event CapUpdated(uint256 newCap);\r\n    event PriceOracleUpdated(address indexed oldOracle, address indexed newOracle);\r\n      \r\n    uint256 private _locked = 1;\r\n\r\n    constructor(string memory _name, string memory _symbol, uint8 _decimals, address initialAdmin, uint256 initialSupply) {\r\n        require(initialAdmin != address(0), \"ZERO_ADMIN\");\r\n        name = _name;\r\n        symbol = _symbol;\r\n        decimals = _decimals;\r\n\r\n\r\n        isAdmin[initialAdmin] = true;\r\n        emit AdminAdded(initialAdmin);\r\n\r\n\r\n        if (initialSupply > 0) {\r\n        totalSupply = initialSupply;\r\n        balanceOf[initialAdmin] = initialSupply;\r\n        emit Transfer(address(0), initialAdmin, initialSupply);\r\n        }\r\n    }\r\n\r\n    modifier onlyAdminHook() {\r\n        require(isAdmin[msg.sender], \"NOT_ADMIN\");\r\n        _;\r\n    }\r\n\r\n    // Set or update max cap\r\n    function setCap(uint256 newCap) external onlyAdminHook {\r\n        require(newCap >= totalSupply, \"NEW_CAP_LESS_THAN_SUPPLY\");\r\n        cap = newCap;\r\n        emit CapUpdated(newCap);\r\n    }\r\n\r\n    function pause() external onlyAdminHook { paused = true; emit Paused(msg.sender); }\r\n    function unpause() external onlyAdminHook { paused = false; emit Unpaused(msg.sender); }\r\n\r\n\r\n    function _isPaused() internal view returns (bool) { return paused; }\r\n\r\n    modifier nonReentrant() {\r\n        require(_locked == 1, \"REENTRANCY\");\r\n        _locked = 2;\r\n        _;\r\n        _locked = 1;\r\n    }\r\n\r\n    function setPriceOracle(address oracle) external onlyAdminHook {\r\n        require(oracle != address(0), \"INVALID_ORACLE_ADDRESS\");\r\n\r\n        address old = priceOracle;\r\n        priceOracle = oracle;\r\n\r\n        emit PriceOracleUpdated(old, oracle);\r\n    }\r\n\r\n\r\n    function _beforeTransferChecks(address from, address to) internal view virtual {\r\n        require(to != address(0), \"TRC20: transfer to zero\");\r\n        require(!isBlacklisted(from) && !isBlacklisted(to), \"TRC20: blacklisted\");\r\n        //require(!_isFrozen(from) && !_isFrozen(to), \"TRC20: frozen\");\r\n        if (!isWhitelisted(from) && !isWhitelisted(to)) {\r\n            require(!_isPaused(), \"TRC20: paused\");\r\n        }\r\n    }\r\n\r\n\r\n    function _transferInternal(address from, address to, uint256 amount) internal virtual {\r\n        uint256 bal = balanceOf[from];\r\n        require(bal >= amount, \"TRC20: insufficient balance\");\r\n        unchecked { balanceOf[from] = bal - amount; }\r\n        balanceOf[to] += amount;\r\n        emit Transfer(from, to, amount);\r\n    }\r\n\r\n\r\n    function _approveInternal(address owner, address spender, uint256 amount) internal virtual {\r\n        require(owner != address(0) && spender != address(0), \"TRC20: zero address\");\r\n        allowance[owner][spender] = amount;\r\n        emit Approval(owner, spender, amount);\r\n    }\r\n\r\n\r\n    function transfer(address to, uint256 amount) external virtual returns (bool) {\r\n        _beforeTransferChecks(msg.sender, to);\r\n        _transferInternal(msg.sender, to, amount);\r\n        return true;\r\n    }\r\n\r\n\r\n    function approve(address spender, uint256 amount) external virtual returns (bool) {\r\n        require(!isBlacklisted(msg.sender), \"owner blacklisted\");\r\n        require(isWhitelisted(msg.sender), \"Address not whitelisted\");\r\n        require(!paused, \"paused\");\r\n        _approveInternal(msg.sender, spender, amount);\r\n        return true;\r\n    }\r\n\r\n\r\n    function transferFrom(address from, address to, uint256 amount) external virtual returns (bool) {\r\n        _beforeTransferChecks(from, to);\r\n        uint256 allowed = allowance[from][msg.sender];\r\n        require(allowed >= amount, \"TRC20: allowance exceeded\");\r\n        unchecked { allowance[from][msg.sender] = allowed - amount; }\r\n        emit Approval(from, msg.sender, allowance[from][msg.sender]);\r\n        _transferInternal(from, to, amount);\r\n        return true;\r\n    }\r\n\r\n\r\n\r\n    function _requireValidMintSigner(address signer) internal view  {\r\n        require(isMinter[signer] || isAdmin[signer], \"SIGNER_NOT_MINTER\");\r\n    }\r\n\r\n\r\n    function _requireValidBurnSigner(address signer) internal view  {\r\n        require(isBurner[signer] || isAdmin[signer], \"SIGNER_NOT_BURNER\");\r\n    }\r\n\r\n\r\n    function _applyPermit(address owner, address spender, uint256 value) internal  {\r\n        allowance[owner][spender] = value;\r\n        emit Approval(owner, spender, value);\r\n    }\r\n\r\n\r\n    // ------------------- Admin mint/burn -------------------\r\n    function adminMint(address to, uint256 amount) external onlyAdminHook nonReentrant {\r\n        require(isMinter[msg.sender] || isAdmin[msg.sender], \"NOT_AUTH_MINT\");\r\n        _mintFromModule(to, amount);\r\n    }\r\n\r\n\r\n    function adminBurn(address from, uint256 amount) external onlyAdminHook nonReentrant {\r\n        require(isBurner[msg.sender] || isAdmin[msg.sender], \"NOT_AUTH_BURN\");\r\n        _burnFromModule(from, amount);\r\n    }\r\n\r\n\r\n    // ------------------- Public mint/burn -------------------\r\n    function mint(address to, uint256 amount) external nonReentrant {\r\n        require(!paused, \"MINT_PAUSED\");\r\n        require(isMinter[msg.sender] || isAdmin[msg.sender], \"NOT_AUTH_MINT\");\r\n        _mintFromModule(to, amount);\r\n    }\r\n\r\n    function _mintFromModule(address to, uint256 amount) internal  {\r\n        // Enforce maximum supply cap\r\n        require(totalSupply + amount <= cap, \"CAP_EXCEEDED\");\r\n\r\n        // Core mint logic (updates balance and totalSupply, emits Transfer event)\r\n        _mintInternal(to, amount);\r\n\r\n        // Post-mint external reserve validation\r\n        _validateReserves(totalSupply);\r\n    }\r\n\r\n    function _mintInternal(address to, uint256 amount) internal virtual {\r\n        require(to != address(0), \"ERC20: mint to zero\");\r\n        \r\n        // Check blacklist/freeze\r\n        require(!isBlacklisted(to), \"ERC20: mint to blacklisted\");\r\n        //require(!isFrozen(to), \"ERC20: mint to frozen address\");\r\n        require(!paused, \"BURN_PAUSED\");\r\n        \r\n        // Update balances and total supply\r\n        balanceOf[to] += amount;\r\n        totalSupply += amount;\r\n        \r\n        // Emit standard ERC20 Transfer event from zero address\r\n        emit Transfer(address(0), to, amount);\r\n    }\r\n\r\n\r\n\r\n    function burn(uint256 amount) external nonReentrant {\r\n        _burnFromModule(msg.sender, amount);\r\n    }\r\n\r\n\r\n    function burnFrom(address from, uint256 amount) external nonReentrant {\r\n        require(isBurner[msg.sender] || isAdmin[msg.sender], \"NOT_AUTH_BURN\");\r\n        \r\n        _burnFromModule(from, amount);\r\n    }\r\n\r\n    // Internal burn called by modules, enforces pause check\r\n    function _burnFromModule(address from, uint256 amount) internal  {\r\n        \r\n        _burnInternal(from, amount);\r\n    }\r\n\r\n    // Core burn logic with blacklist/whitelist/freeze enforcement\r\n    function _burnInternal(address from, uint256 amount) internal virtual {\r\n        require(from != address(0), \"ERC20: burn from zero\");\r\n        require(!isBlacklisted(from), \"ERC20: burn from blacklisted\");\r\n        //require(!isFrozen(from), \"ERC20: burn from frozen\");\r\n        require(!paused, \"BURN_PAUSED\");\r\n\r\n        uint256 bal = balanceOf[from];\r\n        require(bal >= amount, \"ERC20: insufficient balance\");\r\n        unchecked { balanceOf[from] = bal - amount; }\r\n        totalSupply -= amount;\r\n\r\n        emit Transfer(from, address(0), amount);\r\n    }\r\n\r\n\r\n   \r\n\r\n}\r\n",
  "sourcePath": "C:/workspace/tronbfpay/contracts/stablecoin/StableCoinCore.sol",
  "compiler": {
    "name": "solc",
    "version": "0.8.30+commit.73712a01.Emscripten.clang"
  },
  "schemaVersion": "2.0.1",
  "updatedAt": "2025-12-10T22:41:14.755Z"
}