{
  "contractName": "VaultLendingV2",
  "abi": [
    {
      "inputs": [
        {
          "internalType": "address",
          "name": "_accessControl",
          "type": "address"
        }
      ],
      "stateMutability": "nonpayable",
      "type": "constructor"
    },
    {
      "anonymous": false,
      "inputs": [
        {
          "indexed": true,
          "internalType": "address",
          "name": "user",
          "type": "address"
        },
        {
          "indexed": false,
          "internalType": "bool",
          "name": "status",
          "type": "bool"
        }
      ],
      "name": "Blacklisted",
      "type": "event"
    },
    {
      "anonymous": false,
      "inputs": [
        {
          "indexed": true,
          "internalType": "address",
          "name": "user",
          "type": "address"
        },
        {
          "indexed": true,
          "internalType": "address",
          "name": "token",
          "type": "address"
        },
        {
          "indexed": false,
          "internalType": "uint256",
          "name": "amount",
          "type": "uint256"
        }
      ],
      "name": "Deposit",
      "type": "event"
    },
    {
      "anonymous": false,
      "inputs": [
        {
          "indexed": false,
          "internalType": "uint256",
          "name": "depositContributionPercent",
          "type": "uint256"
        }
      ],
      "name": "DepositContributionChanged",
      "type": "event"
    },
    {
      "anonymous": false,
      "inputs": [
        {
          "indexed": false,
          "internalType": "uint256",
          "name": "platformFeeRate",
          "type": "uint256"
        },
        {
          "indexed": false,
          "internalType": "uint256",
          "name": "lenderFeeRate",
          "type": "uint256"
        }
      ],
      "name": "FeeRateChanged",
      "type": "event"
    },
    {
      "anonymous": false,
      "inputs": [
        {
          "indexed": true,
          "internalType": "address",
          "name": "lender",
          "type": "address"
        },
        {
          "indexed": true,
          "internalType": "address",
          "name": "token",
          "type": "address"
        },
        {
          "indexed": false,
          "internalType": "uint256",
          "name": "amount",
          "type": "uint256"
        }
      ],
      "name": "FeesWithdrawn",
      "type": "event"
    },
    {
      "anonymous": false,
      "inputs": [
        {
          "indexed": false,
          "internalType": "bytes32",
          "name": "loanId",
          "type": "bytes32"
        },
        {
          "indexed": false,
          "internalType": "address",
          "name": "borrower",
          "type": "address"
        }
      ],
      "name": "LoanClosed",
      "type": "event"
    },
    {
      "anonymous": false,
      "inputs": [
        {
          "indexed": false,
          "internalType": "bytes32",
          "name": "loanId",
          "type": "bytes32"
        },
        {
          "indexed": false,
          "internalType": "address",
          "name": "borrower",
          "type": "address"
        },
        {
          "indexed": false,
          "internalType": "uint256",
          "name": "principal",
          "type": "uint256"
        },
        {
          "indexed": false,
          "internalType": "uint256",
          "name": "fee",
          "type": "uint256"
        },
        {
          "indexed": false,
          "internalType": "uint256",
          "name": "depositAmount",
          "type": "uint256"
        },
        {
          "indexed": false,
          "internalType": "uint256",
          "name": "lenderFundDeducted",
          "type": "uint256"
        },
        {
          "indexed": false,
          "internalType": "uint256",
          "name": "merchantSettledFund",
          "type": "uint256"
        }
      ],
      "name": "LoanCreated",
      "type": "event"
    },
    {
      "anonymous": false,
      "inputs": [
        {
          "indexed": false,
          "internalType": "bytes32",
          "name": "loanId",
          "type": "bytes32"
        },
        {
          "indexed": false,
          "internalType": "address",
          "name": "borrower",
          "type": "address"
        },
        {
          "indexed": false,
          "internalType": "uint256",
          "name": "amount",
          "type": "uint256"
        }
      ],
      "name": "LoanDisbursed",
      "type": "event"
    },
    {
      "anonymous": false,
      "inputs": [
        {
          "indexed": false,
          "internalType": "bytes32",
          "name": "loanId",
          "type": "bytes32"
        },
        {
          "indexed": false,
          "internalType": "address",
          "name": "borrower",
          "type": "address"
        },
        {
          "indexed": false,
          "internalType": "uint256",
          "name": "amount",
          "type": "uint256"
        },
        {
          "indexed": false,
          "internalType": "uint256",
          "name": "feePaid",
          "type": "uint256"
        }
      ],
      "name": "LoanRepaid",
      "type": "event"
    },
    {
      "anonymous": false,
      "inputs": [
        {
          "indexed": true,
          "internalType": "address",
          "name": "merchant",
          "type": "address"
        },
        {
          "indexed": true,
          "internalType": "address",
          "name": "token",
          "type": "address"
        },
        {
          "indexed": false,
          "internalType": "uint256",
          "name": "amount",
          "type": "uint256"
        }
      ],
      "name": "MerchantWithdrawn",
      "type": "event"
    },
    {
      "anonymous": false,
      "inputs": [],
      "name": "Paused",
      "type": "event"
    },
    {
      "anonymous": false,
      "inputs": [
        {
          "indexed": true,
          "internalType": "bytes32",
          "name": "id",
          "type": "bytes32"
        },
        {
          "indexed": false,
          "internalType": "address",
          "name": "token",
          "type": "address"
        },
        {
          "indexed": false,
          "internalType": "address",
          "name": "to",
          "type": "address"
        },
        {
          "indexed": false,
          "internalType": "uint256",
          "name": "amount",
          "type": "uint256"
        },
        {
          "indexed": false,
          "internalType": "uint256",
          "name": "unlockTime",
          "type": "uint256"
        }
      ],
      "name": "TimelockCreated",
      "type": "event"
    },
    {
      "anonymous": false,
      "inputs": [
        {
          "indexed": true,
          "internalType": "bytes32",
          "name": "id",
          "type": "bytes32"
        }
      ],
      "name": "TimelockExecuted",
      "type": "event"
    },
    {
      "anonymous": false,
      "inputs": [],
      "name": "Unpaused",
      "type": "event"
    },
    {
      "anonymous": false,
      "inputs": [
        {
          "indexed": true,
          "internalType": "address",
          "name": "user",
          "type": "address"
        },
        {
          "indexed": false,
          "internalType": "bool",
          "name": "status",
          "type": "bool"
        }
      ],
      "name": "Whitelisted",
      "type": "event"
    },
    {
      "anonymous": false,
      "inputs": [
        {
          "indexed": true,
          "internalType": "address",
          "name": "user",
          "type": "address"
        },
        {
          "indexed": true,
          "internalType": "address",
          "name": "token",
          "type": "address"
        },
        {
          "indexed": false,
          "internalType": "uint256",
          "name": "amount",
          "type": "uint256"
        }
      ],
      "name": "Withdraw",
      "type": "event"
    },
    {
      "inputs": [],
      "name": "accessControl",
      "outputs": [
        {
          "internalType": "contract IAccessControlModule",
          "name": "",
          "type": "address"
        }
      ],
      "stateMutability": "view",
      "type": "function"
    },
    {
      "inputs": [
        {
          "internalType": "address",
          "name": "",
          "type": "address"
        }
      ],
      "name": "blacklist",
      "outputs": [
        {
          "internalType": "bool",
          "name": "",
          "type": "bool"
        }
      ],
      "stateMutability": "view",
      "type": "function"
    },
    {
      "inputs": [
        {
          "internalType": "bytes32",
          "name": "ref",
          "type": "bytes32"
        },
        {
          "internalType": "address",
          "name": "token",
          "type": "address"
        },
        {
          "internalType": "address",
          "name": "merchant",
          "type": "address"
        },
        {
          "internalType": "uint256",
          "name": "principal",
          "type": "uint256"
        },
        {
          "internalType": "uint256",
          "name": "fee",
          "type": "uint256"
        },
        {
          "internalType": "uint256",
          "name": "depositAmount",
          "type": "uint256"
        },
        {
          "internalType": "address",
          "name": "borrower",
          "type": "address"
        }
      ],
      "name": "createLoan",
      "outputs": [],
      "stateMutability": "nonpayable",
      "type": "function"
    },
    {
      "inputs": [
        {
          "internalType": "address",
          "name": "",
          "type": "address"
        }
      ],
      "name": "cumulativeFeePerToken",
      "outputs": [
        {
          "internalType": "uint256",
          "name": "",
          "type": "uint256"
        }
      ],
      "stateMutability": "view",
      "type": "function"
    },
    {
      "inputs": [
        {
          "internalType": "address",
          "name": "token",
          "type": "address"
        },
        {
          "internalType": "uint256",
          "name": "amount",
          "type": "uint256"
        }
      ],
      "name": "depositToVault",
      "outputs": [],
      "stateMutability": "nonpayable",
      "type": "function"
    },
    {
      "inputs": [
        {
          "internalType": "address",
          "name": "",
          "type": "address"
        },
        {
          "internalType": "address",
          "name": "",
          "type": "address"
        }
      ],
      "name": "feeDebt",
      "outputs": [
        {
          "internalType": "uint256",
          "name": "",
          "type": "uint256"
        }
      ],
      "stateMutability": "view",
      "type": "function"
    },
    {
      "inputs": [],
      "name": "getAllBorrowers",
      "outputs": [
        {
          "internalType": "address[]",
          "name": "",
          "type": "address[]"
        }
      ],
      "stateMutability": "view",
      "type": "function"
    },
    {
      "inputs": [],
      "name": "getAllLenders",
      "outputs": [
        {
          "internalType": "address[]",
          "name": "",
          "type": "address[]"
        }
      ],
      "stateMutability": "view",
      "type": "function"
    },
    {
      "inputs": [
        {
          "internalType": "address",
          "name": "borrower",
          "type": "address"
        },
        {
          "internalType": "address",
          "name": "token",
          "type": "address"
        }
      ],
      "name": "getBorrowerStats",
      "outputs": [
        {
          "internalType": "uint256",
          "name": "vaultBalance",
          "type": "uint256"
        },
        {
          "internalType": "uint256",
          "name": "totalPaidToPool",
          "type": "uint256"
        }
      ],
      "stateMutability": "view",
      "type": "function"
    },
    {
      "inputs": [],
      "name": "getDepositContributionPercent",
      "outputs": [
        {
          "internalType": "uint256",
          "name": "",
          "type": "uint256"
        }
      ],
      "stateMutability": "view",
      "type": "function"
    },
    {
      "inputs": [],
      "name": "getLenderFeeRate",
      "outputs": [
        {
          "internalType": "uint256",
          "name": "",
          "type": "uint256"
        }
      ],
      "stateMutability": "view",
      "type": "function"
    },
    {
      "inputs": [
        {
          "internalType": "address",
          "name": "lender",
          "type": "address"
        },
        {
          "internalType": "address",
          "name": "token",
          "type": "address"
        }
      ],
      "name": "getLenderStats",
      "outputs": [
        {
          "internalType": "uint256",
          "name": "deposit",
          "type": "uint256"
        },
        {
          "internalType": "uint256",
          "name": "poolShare",
          "type": "uint256"
        },
        {
          "internalType": "uint256",
          "name": "totalFeesEarned",
          "type": "uint256"
        },
        {
          "internalType": "uint256",
          "name": "feesClaimed",
          "type": "uint256"
        }
      ],
      "stateMutability": "view",
      "type": "function"
    },
    {
      "inputs": [
        {
          "internalType": "address",
          "name": "borrower",
          "type": "address"
        },
        {
          "internalType": "uint256",
          "name": "offset",
          "type": "uint256"
        },
        {
          "internalType": "uint256",
          "name": "limit",
          "type": "uint256"
        }
      ],
      "name": "getLoans",
      "outputs": [
        {
          "components": [
            {
              "internalType": "bytes32",
              "name": "ref",
              "type": "bytes32"
            },
            {
              "internalType": "address",
              "name": "borrower",
              "type": "address"
            },
            {
              "internalType": "address",
              "name": "token",
              "type": "address"
            },
            {
              "internalType": "address",
              "name": "merchant",
              "type": "address"
            },
            {
              "internalType": "uint256",
              "name": "principal",
              "type": "uint256"
            },
            {
              "internalType": "uint256",
              "name": "outstanding",
              "type": "uint256"
            },
            {
              "internalType": "uint256",
              "name": "startedAt",
              "type": "uint256"
            },
            {
              "internalType": "uint256",
              "name": "installmentsPaid",
              "type": "uint256"
            },
            {
              "internalType": "uint256",
              "name": "fee",
              "type": "uint256"
            },
            {
              "internalType": "uint256",
              "name": "totalPaid",
              "type": "uint256"
            },
            {
              "internalType": "bool",
              "name": "active",
              "type": "bool"
            },
            {
              "internalType": "bool",
              "name": "disbursed",
              "type": "bool"
            }
          ],
          "internalType": "struct VaultLendingV2.Loan[]",
          "name": "result",
          "type": "tuple[]"
        },
        {
          "internalType": "uint256",
          "name": "totalLoans",
          "type": "uint256"
        },
        {
          "internalType": "uint256",
          "name": "nextOffset",
          "type": "uint256"
        }
      ],
      "stateMutability": "view",
      "type": "function"
    },
    {
      "inputs": [
        {
          "internalType": "address",
          "name": "merchant",
          "type": "address"
        },
        {
          "internalType": "address",
          "name": "token",
          "type": "address"
        }
      ],
      "name": "getMerchantFund",
      "outputs": [
        {
          "internalType": "uint256",
          "name": "",
          "type": "uint256"
        }
      ],
      "stateMutability": "view",
      "type": "function"
    },
    {
      "inputs": [],
      "name": "getPlatformFeeRate",
      "outputs": [
        {
          "internalType": "uint256",
          "name": "",
          "type": "uint256"
        }
      ],
      "stateMutability": "view",
      "type": "function"
    },
    {
      "inputs": [
        {
          "internalType": "address",
          "name": "token",
          "type": "address"
        }
      ],
      "name": "getProtocolStats",
      "outputs": [
        {
          "internalType": "uint256",
          "name": "numLenders",
          "type": "uint256"
        },
        {
          "internalType": "uint256",
          "name": "numBorrowers",
          "type": "uint256"
        },
        {
          "internalType": "uint256",
          "name": "totalLenderDeposits",
          "type": "uint256"
        },
        {
          "internalType": "uint256",
          "name": "totalBorrowed",
          "type": "uint256"
        },
        {
          "internalType": "uint256",
          "name": "totalOutstanding",
          "type": "uint256"
        },
        {
          "internalType": "uint256",
          "name": "totalPaid",
          "type": "uint256"
        }
      ],
      "stateMutability": "view",
      "type": "function"
    },
    {
      "inputs": [],
      "name": "getTotalLenderFee",
      "outputs": [
        {
          "internalType": "uint256",
          "name": "",
          "type": "uint256"
        }
      ],
      "stateMutability": "view",
      "type": "function"
    },
    {
      "inputs": [
        {
          "internalType": "address",
          "name": "token",
          "type": "address"
        }
      ],
      "name": "getTotalMerchantFund",
      "outputs": [
        {
          "internalType": "uint256",
          "name": "",
          "type": "uint256"
        }
      ],
      "stateMutability": "view",
      "type": "function"
    },
    {
      "inputs": [
        {
          "internalType": "address",
          "name": "borrower",
          "type": "address"
        }
      ],
      "name": "getTotalOutstanding",
      "outputs": [
        {
          "internalType": "uint256",
          "name": "",
          "type": "uint256"
        }
      ],
      "stateMutability": "view",
      "type": "function"
    },
    {
      "inputs": [],
      "name": "getTotalPlatformFee",
      "outputs": [
        {
          "internalType": "uint256",
          "name": "",
          "type": "uint256"
        }
      ],
      "stateMutability": "view",
      "type": "function"
    },
    {
      "inputs": [
        {
          "internalType": "address",
          "name": "lender",
          "type": "address"
        },
        {
          "internalType": "address",
          "name": "token",
          "type": "address"
        }
      ],
      "name": "getWithdrawableFees",
      "outputs": [
        {
          "internalType": "uint256",
          "name": "",
          "type": "uint256"
        }
      ],
      "stateMutability": "view",
      "type": "function"
    },
    {
      "inputs": [
        {
          "internalType": "address",
          "name": "",
          "type": "address"
        },
        {
          "internalType": "address",
          "name": "",
          "type": "address"
        }
      ],
      "name": "lenderContribution",
      "outputs": [
        {
          "internalType": "uint256",
          "name": "",
          "type": "uint256"
        }
      ],
      "stateMutability": "view",
      "type": "function"
    },
    {
      "inputs": [
        {
          "internalType": "bytes32",
          "name": "",
          "type": "bytes32"
        }
      ],
      "name": "loans",
      "outputs": [
        {
          "internalType": "bytes32",
          "name": "ref",
          "type": "bytes32"
        },
        {
          "internalType": "address",
          "name": "borrower",
          "type": "address"
        },
        {
          "internalType": "address",
          "name": "token",
          "type": "address"
        },
        {
          "internalType": "address",
          "name": "merchant",
          "type": "address"
        },
        {
          "internalType": "uint256",
          "name": "principal",
          "type": "uint256"
        },
        {
          "internalType": "uint256",
          "name": "outstanding",
          "type": "uint256"
        },
        {
          "internalType": "uint256",
          "name": "startedAt",
          "type": "uint256"
        },
        {
          "internalType": "uint256",
          "name": "installmentsPaid",
          "type": "uint256"
        },
        {
          "internalType": "uint256",
          "name": "fee",
          "type": "uint256"
        },
        {
          "internalType": "uint256",
          "name": "totalPaid",
          "type": "uint256"
        },
        {
          "internalType": "bool",
          "name": "active",
          "type": "bool"
        },
        {
          "internalType": "bool",
          "name": "disbursed",
          "type": "bool"
        }
      ],
      "stateMutability": "view",
      "type": "function"
    },
    {
      "inputs": [
        {
          "internalType": "address",
          "name": "",
          "type": "address"
        },
        {
          "internalType": "address",
          "name": "",
          "type": "address"
        }
      ],
      "name": "merchantFund",
      "outputs": [
        {
          "internalType": "uint256",
          "name": "",
          "type": "uint256"
        }
      ],
      "stateMutability": "view",
      "type": "function"
    },
    {
      "inputs": [],
      "name": "pause",
      "outputs": [],
      "stateMutability": "nonpayable",
      "type": "function"
    },
    {
      "inputs": [],
      "name": "paused",
      "outputs": [
        {
          "internalType": "bool",
          "name": "",
          "type": "bool"
        }
      ],
      "stateMutability": "view",
      "type": "function"
    },
    {
      "inputs": [
        {
          "internalType": "address",
          "name": "",
          "type": "address"
        }
      ],
      "name": "pool",
      "outputs": [
        {
          "internalType": "uint256",
          "name": "",
          "type": "uint256"
        }
      ],
      "stateMutability": "view",
      "type": "function"
    },
    {
      "inputs": [
        {
          "internalType": "bytes32",
          "name": "ref",
          "type": "bytes32"
        },
        {
          "internalType": "uint256",
          "name": "amount",
          "type": "uint256"
        }
      ],
      "name": "repayLoan",
      "outputs": [],
      "stateMutability": "nonpayable",
      "type": "function"
    },
    {
      "inputs": [
        {
          "internalType": "address",
          "name": "user",
          "type": "address"
        },
        {
          "internalType": "bool",
          "name": "status",
          "type": "bool"
        }
      ],
      "name": "setBlacklist",
      "outputs": [],
      "stateMutability": "nonpayable",
      "type": "function"
    },
    {
      "inputs": [
        {
          "internalType": "uint256",
          "name": "depositContributionPercent",
          "type": "uint256"
        }
      ],
      "name": "setDepositContributionPercent",
      "outputs": [],
      "stateMutability": "nonpayable",
      "type": "function"
    },
    {
      "inputs": [
        {
          "internalType": "uint256",
          "name": "platformFeeRate",
          "type": "uint256"
        },
        {
          "internalType": "uint256",
          "name": "lenderFeeRate",
          "type": "uint256"
        }
      ],
      "name": "setFeeRate",
      "outputs": [],
      "stateMutability": "nonpayable",
      "type": "function"
    },
    {
      "inputs": [
        {
          "internalType": "address",
          "name": "user",
          "type": "address"
        },
        {
          "internalType": "bool",
          "name": "status",
          "type": "bool"
        }
      ],
      "name": "setWhitelist",
      "outputs": [],
      "stateMutability": "nonpayable",
      "type": "function"
    },
    {
      "inputs": [
        {
          "internalType": "address",
          "name": "",
          "type": "address"
        }
      ],
      "name": "totalPoolContribution",
      "outputs": [
        {
          "internalType": "uint256",
          "name": "",
          "type": "uint256"
        }
      ],
      "stateMutability": "view",
      "type": "function"
    },
    {
      "inputs": [],
      "name": "unpause",
      "outputs": [],
      "stateMutability": "nonpayable",
      "type": "function"
    },
    {
      "inputs": [
        {
          "internalType": "address",
          "name": "",
          "type": "address"
        },
        {
          "internalType": "address",
          "name": "",
          "type": "address"
        }
      ],
      "name": "vault",
      "outputs": [
        {
          "internalType": "uint256",
          "name": "",
          "type": "uint256"
        }
      ],
      "stateMutability": "view",
      "type": "function"
    },
    {
      "inputs": [
        {
          "internalType": "address",
          "name": "",
          "type": "address"
        }
      ],
      "name": "whitelist",
      "outputs": [
        {
          "internalType": "bool",
          "name": "",
          "type": "bool"
        }
      ],
      "stateMutability": "view",
      "type": "function"
    },
    {
      "inputs": [
        {
          "internalType": "address",
          "name": "token",
          "type": "address"
        }
      ],
      "name": "withdrawFees",
      "outputs": [],
      "stateMutability": "nonpayable",
      "type": "function"
    },
    {
      "inputs": [
        {
          "internalType": "address",
          "name": "token",
          "type": "address"
        },
        {
          "internalType": "uint256",
          "name": "amount",
          "type": "uint256"
        }
      ],
      "name": "withdrawFromVault",
      "outputs": [],
      "stateMutability": "nonpayable",
      "type": "function"
    },
    {
      "inputs": [
        {
          "internalType": "address",
          "name": "token",
          "type": "address"
        }
      ],
      "name": "withdrawMerchantFund",
      "outputs": [],
      "stateMutability": "nonpayable",
      "type": "function"
    }
  ],
  "bytecode": "0x60a0346100ff57601f612c5138819003918201601f19168301916001600160401b03831184841017610103578084926020946040528339810103126100ff57516001600160a01b038116908190036100ff5760015f5580156100ba576080526001600255604051612b3990816101188239608051818181610295015281816107ce01528181610e0001528181610f180152818161115501528181611278015281816118ed01528181612428015281816124cc01526125490152f35b60405162461bcd60e51b815260206004820152601660248201527f496e76616c69642061636365737320636f6e74726f6c000000000000000000006044820152606490fd5b5f80fd5b634e487b7160e01b5f52604160045260245ffdfe60806040526004361015610011575f80fd5b5f3560e01c80630351493a146125d85780630c54dd191461251857806310ea1d6b146124fb57806313007d55146124b7578063153b0d1e146123fd578063156522a8146123c5578063164e68de146122585780631b54cc881461220857806321116f4e14611fe45780632571f4b814611fc757806327c2f17c14611ba85780632954f7cc146119da57806332abcdbe1461195d5780633f4ba83a146118c2578063429043ed146117b05780634ee153251461120857806353d6fd591461112a5780635c975abb146111085780635cd436e5146110515780636c92b2f81461100157806374359ac314610ec95780637ef9287714610e915780638456cb5914610dd5578063900d99da14610db85780639402002814610d8c57806398ef646414610b7a5780639a1d90f414610b5d5780639b19251a14610b20578063a1666b5414610a93578063a3d11158146108a6578063a6a5fc2414610788578063add63d9114610738578063c4a9081514610674578063ce88875d14610649578063d15a1bba1461038e578063f2d2a7511461025c578063f756ff281461023f578063f9f92be4146102025763fd83a64f146101c6575f80fd5b346101fe5760203660031901126101fe576001600160a01b036101e7612628565b165f526011602052602060405f2054604051908152f35b5f80fd5b346101fe5760203660031901126101fe576001600160a01b03610223612628565b165f526018602052602060ff60405f2054166040519015158152f35b346101fe575f3660031901126101fe576020600454604051908152f35b346101fe5760403660031901126101fe57600435602435604051630935e01b60e21b815233600482015260208160248160018060a01b037f0000000000000000000000000000000000000000000000000000000000000000165afa8015610383576102ce915f91610354575b5061271c565b620f42406102dc8284612818565b1161031b57816040917fb9ffe02e89fee6f5544ee152a08c2cafbc3a4a89a66737ef42115dcd508aea10936005558060065582519182526020820152a1005b60405162461bcd60e51b81526020600482015260116024820152700496e76616c69642066656520736574757607c1b6044820152606490fd5b610376915060203d60201161037c575b61036e81836126e2565b810190612704565b846102c8565b503d610364565b6040513d5f823e3d90fd5b346101fe5760603660031901126101fe576103a7612628565b6001600160a01b03165f9081526009602052604090208054906024356103cf60443582612818565b91838311610641575b6103e28284612825565b906103ec82612a76565b926103fa60405194856126e2565b828452601f1961040984612a76565b015f5b8181106105de5750505f5b838110610501575050505060405191606083019360608452825180955260206080850193015f955b808710610459575050839450602084015260408301520390f35b90936020610180600192610160885180518352858060a01b03858201511685840152858060a01b036040820151166040840152858060a01b0360608201511660608401526080810151608084015260a081015160a084015260c081015160c084015260e081015160e08401526101008101516101008401526101208101516101208401526101408101511515610140840152015115156101608201520195019601959061043f565b8061051761051160019385612818565b85612971565b90549060031b1c5f52600860205260405f2060ff600a6040519261053a846126c5565b805484528581015460a087811b88900391821660208701526002830154821660408701526003830154909116606086015260048201546080860152600582015490850152600681015460c0850152600781015460e085015260088082015461010086015260098201546101208601529101548281161515610140850152901c1615156101608201526105cc828861294a565b526105d7818761294a565b5001610417565b6020906040516105ed816126c5565b5f81525f838201525f60408201525f60608201525f60808201525f60a08201525f60c08201525f60e08201525f6101008201525f6101208201525f6101408201525f6101608201528282890101520161040c565b8392506103d8565b346101fe5760203660031901126101fe57602061066c610667612628565b612a8e565b604051908152f35b346101fe5760203660031901126101fe576004355f52600860205261018060405f2060ff81549160018060a01b036001820154169060018060a01b0360028201541660018060a01b0360038301541660048301546005840154600685015491600786015493600887015495600a6009890154980154986040519b8c5260208c015260408b015260608a0152608089015260a088015260c087015260e0860152610100850152610120840152818116151561014084015260081c161515610160820152f35b346101fe5760403660031901126101fe57610751612628565b61075961263e565b6001600160a01b039182165f908152600f60209081526040808320949093168252928352819020549051908152f35b346101fe5760203660031901126101fe576107a1612628565b335f5260176020526107b960ff60405f2054166127d5565b604051630935e01b60e21b81523360048201527f00000000000000000000000000000000000000000000000000000000000000006001600160a01b0316602082602481845afa9081156103835761081c6020926024945f91610889575b50612986565b604051638b7ac4d560e01b815233600482015292839182905afa80156103835761084c915f9161086a5750612986565b60018060a01b03165f526010602052602060405f2054604051908152f35b610883915060203d60201161037c5761036e81836126e2565b83610816565b6108a09150843d861161037c5761036e81836126e2565b86610816565b346101fe5760403660031901126101fe576108bf612628565b602435906108ce821515612909565b6040516323b872dd60e01b8152336004820152306024820152604481018390526001600160a01b039190911691906020816064815f875af1801561038357610a76575b50815f526011602052620f424061092c60405f20548361295e565b04335f52601260205260405f20835f5260205261094e60405f20918254612818565b9055335f52600b60205260405f20825f5260205260405f20610971828254612818565b9055335f52600c60205260405f20825f5260205260405f20610994828254612818565b9055815f52600d60205260405f206109ad828254612818565b9055815f52600e60205260405f206109c6828254612818565b9055335f52601560205260ff60405f20541615610a0c575b6040519081527f5548c837ab068cf56a2c2479df0882a4922fd203edb7517321831d95078c5f6260203392a3005b601654600160401b811015610a6257806001610a2d92016016556016612971565b81549060031b9033821b9160018060a01b03901b1916179055335f52601560205260405f20600160ff198254161790556109de565b634e487b7160e01b5f52604160045260245ffd5b610a8e9060203d60201161037c5761036e81836126e2565b610911565b346101fe575f3660031901126101fe5760405180602060165491828152019060165f527fd833147d7dc355ba459fc788f669e58cfaf9dc25ddcd0702e87d69c7b5124289905f5b818110610b0157610afd85610af1818703826126e2565b60405191829182612683565b0390f35b82546001600160a01b0316845260209093019260019283019201610ada565b346101fe5760203660031901126101fe576001600160a01b03610b41612628565b165f526017602052602060ff60405f2054166040519015158152f35b346101fe575f3660031901126101fe576020600754604051908152f35b346101fe5760203660031901126101fe57610b93612628565b6016546001600160a01b03909116905f80825b838210610d27575050601454905f5f915f935f6014545b828210610beb57505060c09650604051958652602086015260408501526060840152608083015260a0820152f35b909697925f969594965081881015610d13577fce6d7b5282bd9a3661ae061feed1dbda4e52ab073b1f9285be6e155d9c38d4ec8801546001600160a01b03165f908152600960209081526040808320905181548082529184528284209096939092879290830191905b808210610cf7575050610c69925003856126e2565b5f5b8451811015610ce357610c7e818661294a565b515f90815260086020526040902060028101546001600160a01b03168714610caa575b50600101610c6b565b9698600191986009610cd3610cc7610cdc9460048d015490612818565b9c60058c015490612818565b99015490612818565b9790610ca1565b509250929796600190969495960190610bbd565b9160019193506020829186548152019401920187929391610c54565b634e487b7160e01b5f52603260045260245ffd5b909181831015610d13577fd833147d7dc355ba459fc788f669e58cfaf9dc25ddcd0702e87d69c7b51242898301546001600160a01b03165f908152600b60209081526040808320888452909152902054600191610d849190612818565b920190610ba6565b346101fe5760403660031901126101fe57602061066c610daa612628565b610db261263e565b906129c6565b346101fe575f3660031901126101fe576020600654604051908152f35b346101fe575f3660031901126101fe57604051630935e01b60e21b81523360048201526020816024817f00000000000000000000000000000000000000000000000000000000000000006001600160a01b03165afa801561038357610e40915f91610e72575061271c565b600160ff19815416176001557f9e87fac88ff661f02d44f95383c817fece4bce600a3dab7a54406878b965e7525f80a1005b610e8b915060203d60201161037c5761036e81836126e2565b826102c8565b346101fe5760203660031901126101fe576001600160a01b03610eb2612628565b165f52600d602052602060405f2054604051908152f35b346101fe5760403660031901126101fe57610ee2612628565b610eea61263e565b90335f526017602052610f0360ff60405f2054166127d5565b604051630935e01b60e21b81523360048201527f00000000000000000000000000000000000000000000000000000000000000006001600160a01b0316602082602481845afa90811561038357610f656020926024945f91610fe45750612986565b604051638b7ac4d560e01b815233600482015292839182905afa801561038357610f95915f91610fc55750612986565b60018060a01b03165f52600f60205260405f209060018060a01b03165f52602052602060405f2054604051908152f35b610fde915060203d60201161037c5761036e81836126e2565b84610816565b610ffb9150843d861161037c5761036e81836126e2565b87610816565b346101fe5760403660031901126101fe5761101a612628565b61102261263e565b6001600160a01b039182165f908152601260209081526040808320949093168252928352819020549051908152f35b346101fe5760403660031901126101fe57608061106c612628565b61107461263e565b6001600160a01b039182165f818152600b60209081526040808320959094168083529481528382205483835260128252848320868452825284832054938352600c8252848320958352948152838220546011909152929020549091620f4240916110dd9161295e565b046110f16110eb8383612825565b84612818565b604051938452602084015260408301526060820152f35b346101fe575f3660031901126101fe57602060ff600154166040519015158152f35b346101fe5761113836612654565b604051630935e01b60e21b815233600482015290916020826024817f00000000000000000000000000000000000000000000000000000000000000006001600160a01b03165afa908115610383576111ba6020927fa54714518c5d275fdcd3d2a461e4858e4e8cb04fb93cd0bca9d6d34115f26440945f916111eb575061271c565b6001600160a01b03165f8181526017835260409020805460ff191660ff86151516179055925b6040519015158152a2005b6112029150843d861161037c5761036e81836126e2565b866102c8565b346101fe5760e03660031901126101fe5760043561122461263e565b6044356001600160a01b0381169291908390036101fe576064359260c4356001600160a01b0381169260a4359160843591908590036101fe57604051638b7ac4d560e01b81523360048201526020816024817f00000000000000000000000000000000000000000000000000000000000000006001600160a01b03165afa908115610383575f91611791575b50156117565760018060a01b031695865f52600e6020528060405f20541061171157845f52601760205260ff60405f205416156116cc57835f52601760205260ff60405f2054161561168757845f52600b60205260405f20875f5260205261131e8360405f2054101561287e565b831561164f57620f42406113346005548361295e565b0494620f42406113466006548461295e565b0494620f42406113586007548561295e565b04908186106116185761139b611370600a9386612825565b97611390611387826113828d8a612825565b612825565b9a600354612818565b600355600454612818565b600455805f52600f60205260405f208a5f5260205260405f206113bf898254612818565b9055895f52601060205260405f206113d8898254612818565b9055885f52600860205260405f209089825560018201846001600160601b0360a01b825416179055600282018b6001600160601b0360a01b82541617905560038201906001600160601b0360a01b82541617905583600482015561143c8585612818565b60058201554260068201555f600782015584600882015585600982015501600161ffff19825416179055805f52600960205260405f2054875f52600a60205260405f2055805f52600960205260405f208054600160401b811015610a62576114ae818a9360016114c494018155612971565b819391549060031b91821b915f19901b19161790565b9055805f52601360205260ff60405f2054161561158d575b9060e0969594939291887f4029f3342223bc7d30c86e7ad5094f6b3cfdd3125b4998f23b45caaf91594068995f52600e60205260405f2061151e848254612825565b9055815f52600b60205260405f20815f5260205260405f20611541868254612825565b9055815f52600c60205260405f20905f5260205260405f20611564858254612825565b9055604051968752602087015260408601526060850152608084015260a083015260c0820152a1005b95949392919060145496600160401b881015610a62577f4029f3342223bc7d30c86e7ad5094f6b3cfdd3125b4998f23b45caaf91594068986115d989600160e09b016014556014612971565b81549060031b9084821b9160018060a01b03901b1916179055815f52601360205260405f20600160ff19825416179055985090919293949596506114dc565b60405162461bcd60e51b815260206004820152600f60248201526e4465706f73697420746f6f206c6f7760881b6044820152606490fd5b60405162461bcd60e51b815260206004820152601060248201526f125b9d985b1a59081b595c98da185b9d60821b6044820152606490fd5b60405162461bcd60e51b815260206004820152601860248201527f4d65726368616e74206e6f742077686974656c697374656400000000000000006044820152606490fd5b60405162461bcd60e51b815260206004820152601860248201527f426f72726f776572206e6f742077686974656c697374656400000000000000006044820152606490fd5b60405162461bcd60e51b815260206004820152601b60248201527f496e73756666696369656e7420706f6f6c206c697175696469747900000000006044820152606490fd5b60405162461bcd60e51b815260206004820152601360248201527227b7363c9031b932b234ba1037b33334b1b2b960691b6044820152606490fd5b6117aa915060203d60201161037c5761036e81836126e2565b886112b0565b346101fe5760403660031901126101fe576117c9612628565b6117d161263e565b9060018060a01b031690815f52600b60205260405f2060018060a01b0382165f5260205260405f2054905f925f52600960205260405f206040519081602082549182815201915f5260205f20905f5b8181106118ac57505050816118369103826126e2565b6001600160a01b03909116905f5b815181101561189c57611857818361294a565b515f90815260086020526040902060028101546001600160a01b03168414611883575b50600101611844565b60019195600961189592015490612818565b949061187a565b6040848682519182526020820152f35b8254845260209093019260019283019201611820565b346101fe575f3660031901126101fe57604051630935e01b60e21b81523360048201526020816024817f00000000000000000000000000000000000000000000000000000000000000006001600160a01b03165afa80156103835761192d915f91610e72575061271c565b60ff19600154166001557fa45f47fdea8a1efdd9029a5691c7f759c32b7c698632b563573e155625d169335f80a1005b346101fe575f3660031901126101fe5760405180602060145491828152019060145f527fce6d7b5282bd9a3661ae061feed1dbda4e52ab073b1f9285be6e155d9c38d4ec905f5b8181106119bb57610afd85610af1818703826126e2565b82546001600160a01b03168452602090930192600192830192016119a4565b346101fe5760203660031901126101fe576119f3612628565b611a0260ff6001541615612755565b335f526018602052611a1b60ff60405f20541615612793565b335f526017602052611a3360ff60405f2054166127d5565b611a41600160025414612832565b60028055335f52600f60205260405f2060018060a01b0382165f5260205260405f2054908115611b6c57335f52600f60205260405f2060018060a01b0382165f526020525f604081205560018060a01b031690815f52601060205260405f20611aab828254612825565b905560405163a9059cbb60e01b60208201908152336024830152604482018390525f91829190611ae881606481015b03601f1981018352826126e2565b519082865af1611af66128ca565b5015611b2f576040519081527fe41d4507cbbbdb09ef0e174837ee2221bf96ffed36cf60f1d4b73c6fca8b395760203392a36001600255005b60405162461bcd60e51b8152602060048201526015602482015274151bdad95b881d1c985b9cd9995c8819985a5b1959605a1b6044820152606490fd5b60405162461bcd60e51b81526020600482015260146024820152734e6f2066756e647320746f20776974686472617760601b6044820152606490fd5b346101fe5760403660031901126101fe5760043560243590611bce600160025414612832565b60028055805f52600860205260405f2091600a830160ff81541615611f915760018401546001600160a01b03163303611f5d57611c0c821515612909565b335f908152600b602090815260408083206002880180546001600160a01b03168086529190935292205484929080611f37575b5082611e5d575b5050506008840180549490838610611e5357611c63848097612825565b9055611c6f8584612825565b926005820191825480861015611e33575b611ca691611c9a600992611c948b8a612818565b90612825565b80955501918254612818565b905515611cfb575b7fcfe13b548fc1743507f7dd02d10678df3bae7b86124955c0f831db4622146f9560808486611cdd8187612818565b60405192835233602084015260408301526060820152a16001600255005b805460ff191690555f828152600a6020908152604080832054338452600990925290912080549293925f198101908111611e1f57611d3891612971565b90549060031b1c335f52600960205280611d586114ae8460405f20612971565b90555f52600a60205260405f2055335f52600960205260405f20928354938415611e0b5781608094611cdd927fcfe13b548fc1743507f7dd02d10678df3bae7b86124955c0f831db4622146f95975f190190611db48282612971565b8154905f199060031b1b1916905555845f52600a6020525f60408120557f27810a468d84d73b8240e706dd0a124a8ce3778bc6ebb13d643a61efcd26f1f060408051878152336020820152a1939450945050611cae565b634e487b7160e01b5f52603160045260245ffd5b634e487b7160e01b5f52601160045260245ffd5b94506009611ca691611c9a611e488a89612825565b979250509150611c80565b611c638680612825565b6040516323b872dd60e01b81523360048201523060248201526044810184905290602090829060649082905f905af1801561038357611f1a575b50335f908152600b6020908152604080832084546001600160a01b0316845290915290208054611ec8908490612818565b905560018060a01b038154165f52600e60205260405f20611eea838254612818565b9055546001600160a01b03165f908152600d6020526040902080549091611f1091612818565b9055848080611c46565b611f329060203d60201161037c5761036e81836126e2565b611e97565b909250848110611f545750611f4d845b85612825565b9187611c3f565b611f4d90611f47565b60405162461bcd60e51b815260206004820152600c60248201526b2737ba103137b93937bbb2b960a11b6044820152606490fd5b60405162461bcd60e51b815260206004820152600e60248201526d131bd85b881a5cc818db1bdcd95960921b6044820152606490fd5b346101fe575f3660031901126101fe576020600554604051908152f35b346101fe5760403660031901126101fe57611ffd612628565b6024359061201060ff6001541615612755565b335f52601860205261202960ff60405f20541615612793565b335f52601760205261204160ff60405f2054166127d5565b61204f600160025414612832565b60028055335f52600b60205260405f2060018060a01b0382165f5260205261207d8260405f2054101561287e565b61208633612a8e565b6121cc57335f52600b60205260405f2060018060a01b0382165f5260205260405f206120b3838254612825565b9055335f52600c60205260405f2060018060a01b0382165f526020528160405f2054101561215e575b60405163a9059cbb60e01b60208201908152336024830152604482018490526001600160a01b039290921692915f9182919061211b8160648101611ada565b519082865af15061212a6128ca565b506040519081527f9b1bfa7fa9ee420a16e124f794c35ac9f90472acc99140eb2f6447c714cad8eb60203392a36001600255005b335f52600c60205260405f2060018060a01b0382165f5260205260405f20612187838254612825565b90556001600160a01b0381165f818152600d6020526040902080546121ad908590612825565b90555f52600e60205260405f206121c5838254612825565b90556120dc565b60405162461bcd60e51b81526020600482015260146024820152733430b99037baba39ba30b73234b733903637b0b760611b6044820152606490fd5b346101fe5760403660031901126101fe57612221612628565b61222961263e565b6001600160a01b039182165f908152600b60209081526040808320949093168252928352819020549051908152f35b346101fe5760203660031901126101fe57612271612628565b61228060ff6001541615612755565b335f52601860205261229960ff60405f20541615612793565b335f5260176020526122b160ff60405f2054166127d5565b6122bb81336129c6565b90811561238a57335f52601260205260405f2060018060a01b0382165f5260205260405f206122eb838254612818565b905560018060a01b031690815f52600e60205260405f2061230d828254612825565b905560405163a9059cbb60e01b8152336004820152602481018290526020816044815f875af180156103835761236d575b506040519081527f5e110f8bc8a20b65dcc87f224bdf1cc039346e267118bae2739847f07321ffa860203392a3005b6123859060203d60201161037c5761036e81836126e2565b61233e565b60405162461bcd60e51b81526020600482015260136024820152724e6f206665657320746f20776974686472617760681b6044820152606490fd5b346101fe5760203660031901126101fe576001600160a01b036123e6612628565b165f52600e602052602060405f2054604051908152f35b346101fe5761240b36612654565b604051630935e01b60e21b815233600482015290916020826024817f00000000000000000000000000000000000000000000000000000000000000006001600160a01b03165afa9081156103835761248d6020927fcf3473b85df1594d47b6958f29a32bea0abff9dd68296f7bf33443646793cfd8945f916111eb575061271c565b6001600160a01b03165f8181526018835260409020805460ff191660ff86151516179055926111e0565b346101fe575f3660031901126101fe576040517f00000000000000000000000000000000000000000000000000000000000000006001600160a01b03168152602090f35b346101fe575f3660031901126101fe576020600354604051908152f35b346101fe5760203660031901126101fe57604051630935e01b60e21b815233600482810191909152356020826024817f00000000000000000000000000000000000000000000000000000000000000006001600160a01b03165afa908115610383576125ae6020927f5661349add19ce6ce658acfc3c3a1f859d293bf58ca7c46070a2c2a404e3d05a945f916125bb575061271c565b80600755604051908152a1005b6125d29150843d861161037c5761036e81836126e2565b856102c8565b346101fe5760403660031901126101fe576125f1612628565b6125f961263e565b6001600160a01b039182165f908152600c60209081526040808320949093168252928352819020549051908152f35b600435906001600160a01b03821682036101fe57565b602435906001600160a01b03821682036101fe57565b60409060031901126101fe576004356001600160a01b03811681036101fe579060243580151581036101fe5790565b60206040818301928281528451809452019201905f5b8181106126a65750505090565b82516001600160a01b0316845260209384019390920191600101612699565b610180810190811067ffffffffffffffff821117610a6257604052565b90601f8019910116810190811067ffffffffffffffff821117610a6257604052565b908160209103126101fe575180151581036101fe5790565b1561272357565b60405162461bcd60e51b815260206004820152600a60248201526927b7363c9030b236b4b760b11b6044820152606490fd5b1561275c57565b60405162461bcd60e51b815260206004820152600f60248201526e10dbdb9d1c9858dd081c185d5cd959608a1b6044820152606490fd5b1561279a57565b60405162461bcd60e51b8152602060048201526013602482015272155cd95c881a5cc8189b1858dadb1a5cdd1959606a1b6044820152606490fd5b156127dc57565b60405162461bcd60e51b8152602060048201526014602482015273155cd95c881b9bdd081dda1a5d195b1a5cdd195960621b6044820152606490fd5b91908201809211611e1f57565b91908203918211611e1f57565b1561283957565b60405162461bcd60e51b815260206004820152601f60248201527f5265656e7472616e637947756172643a207265656e7472616e742063616c6c006044820152606490fd5b1561288557565b60405162461bcd60e51b815260206004820152601a60248201527f496e73756666696369656e74207661756c742062616c616e63650000000000006044820152606490fd5b3d15612904573d9067ffffffffffffffff8211610a6257604051916128f9601f8201601f1916602001846126e2565b82523d5f602084013e565b606090565b1561291057565b60405162461bcd60e51b81526020600482015260126024820152710416d6f756e74206d757374206265203e20360741b6044820152606490fd5b8051821015610d135760209160051b010190565b81810292918115918404141715611e1f57565b8054821015610d13575f5260205f2001905f90565b1561298d57565b60405162461bcd60e51b81526020600482015260116024820152701c195c9b5a5cdcda5bdb8819195b9a5959607a1b6044820152606490fd5b60018060a01b031690815f52600c60205260405f2060018060a01b0382165f5260205260405f20548015612a6f576001600160a01b0382165f90815260116020526040902054620f424091612a1b919061295e565b0490825f52601260205260405f2060018060a01b0382165f5260205260405f205482115f14612a6f57612a6c925f52601260205260405f209060018060a01b03165f5260205260405f205490612825565b90565b5050505f90565b67ffffffffffffffff8111610a625760051b60200190565b6001600160a01b03165f908152600960205260408120805491929190835b828110612ab857505050565b612ac28183612971565b90549060031b1c5f52600860205260405f2060ff600a82015416612aea575b50600101612aac565b600191956005612afc92015490612818565b9490612ae156fea2646970667358221220b78e4a09d4239a2a6a745edc66db131048bf3a629aaba907913e8d9d1c3ff73b64736f6c634300081e0033",
  "source": "// SPDX-License-Identifier: MIT\r\npragma solidity ^0.8.23;\r\n\r\ninterface ITRC20 {\r\n    function transfer(address to, uint256 amount) external returns (bool);\r\n    function transferFrom(address from, address to, uint256 amount) external returns (bool);\r\n    function balanceOf(address account) external view returns (uint256);\r\n    function approve(address spender, uint256 amount) external returns (bool);\r\n    function allowance(address owner, address spender) external view returns (uint256);\r\n}\r\n\r\ninterface IAccessControlModule {\r\n    function isAdmin(address account) external view returns (bool);\r\n    function isCreditOfficer(address account) external view returns (bool);\r\n}\r\n\r\n\r\ncontract VaultLendingV2 {\r\n\r\n    struct Loan {\r\n        bytes32 ref;\r\n        address borrower;\r\n        address token;\r\n        address merchant;\r\n        uint256 principal;\r\n        uint256 outstanding;     // principal + remaining fee\r\n        uint256 startedAt;\r\n        uint256 installmentsPaid;\r\n        uint256 fee;             // remaining fee\r\n        uint256 totalPaid;       // total repaid (principal + fee)\r\n        bool active;\r\n        bool disbursed;\r\n    }\r\n\r\n     // ====== Timelock ======\r\n    struct Timelock {\r\n        uint256 amount;\r\n        address token;      // address(0) for ETH\r\n        address to;\r\n        uint256 unlockTime;\r\n        bool executed;\r\n    }\r\n\r\n\r\n    uint256 private nextLoanId = 1;\r\n    IAccessControlModule public immutable accessControl;\r\n    bool public paused;\r\n    uint256 private _locked;\r\n    uint256 private _platformFee;\r\n    uint256 private _lenderFee;\r\n\r\n    // Percentage rates use 1e6 = 100% (e.g. 2.5% = 25_000)\r\n    uint256 private _platformFeeRate;           // e.g. 20_000 = 2%\r\n    uint256 private _lenderFeeRate;             // e.g. 10_000 = 1%\r\n    uint256 private _depositContributionPercent; // e.g. 100_000 = 10%\r\n\r\n\r\n    // Loan tracking\r\n    mapping(bytes32 => Loan) public loans;\r\n    mapping(address => bytes32[]) private borrowerLoans;\r\n    mapping(bytes32 => uint256) private loanIndex;\r\n\r\n    // Vault & pool tracking\r\n    mapping(address => mapping(address => uint256)) public vault;            // vault[user][token]\r\n    mapping(address => mapping(address => uint256)) public lenderContribution; // lender[token]\r\n    mapping(address => uint256) public totalPoolContribution;               // total principal per token\r\n    mapping(address => uint256) public pool; \r\n    mapping(address => mapping(address => uint256)) public merchantFund; \r\n    mapping(address => uint256) private totalMerchantFund;\r\n    \r\n                                  // total liquidity including fees\r\n\r\n    // Fee tracking (optimized)\r\n    mapping(address => uint256) public cumulativeFeePerToken;               // accumulated fee per 1 token deposited\r\n    mapping(address => mapping(address => uint256)) public feeDebt;         // lender[token] = claimed portion\r\n    uint256 constant FEE_PRECISION = 1e6;\r\n\r\n    // Borrower & lender tracking\r\n    mapping(address => bool) private isBorrower;\r\n    address[] private borrowers;\r\n\r\n    mapping(address => bool) private isLender;\r\n    address[] private lenders;\r\n\r\n    // Events\r\n    event Deposit(address indexed user, address indexed token, uint256 amount);\r\n    event Withdraw(address indexed user, address indexed token, uint256 amount);\r\n    event LoanCreated(bytes32 loanId, address borrower, uint256 principal, uint256 fee,\r\n    uint256 depositAmount,uint256 lenderFundDeducted, uint256 merchantSettledFund);\r\n    event LoanDisbursed(bytes32 loanId, address borrower, uint256 amount);\r\n    event LoanRepaid(bytes32 loanId, address borrower, uint256 amount, uint256 feePaid);\r\n    event LoanClosed(bytes32 loanId, address borrower);\r\n    event FeesWithdrawn(address indexed lender, address indexed token, uint256 amount);\r\n\r\n    event Paused();\r\n    event Unpaused();\r\n    event Whitelisted(address indexed user, bool status);\r\n    event Blacklisted(address indexed user, bool status);\r\n    event FeeRateChanged(uint256 platformFeeRate, uint256 lenderFeeRate);\r\n    event DepositContributionChanged(uint256 depositContributionPercent);\r\n    event MerchantWithdrawn(address indexed merchant, address indexed token, uint256 amount);\r\n  \r\n    event TimelockCreated(bytes32 indexed id, address token, address to, uint256 amount, uint256 unlockTime);\r\n    event TimelockExecuted(bytes32 indexed id);\r\n\r\n    mapping(address => bool) public whitelist;\r\n    mapping(address => bool) public blacklist;\r\n       //  Reentrancy guard per loan\r\n    mapping(bytes32 => bool) private _loanLock;\r\n    \r\n\r\n\r\n    constructor(address _accessControl) {\r\n        require(_accessControl != address(0), \"Invalid access control\");\r\n        accessControl = IAccessControlModule(_accessControl);\r\n        _locked = 1;\r\n    }\r\n\r\n    // ====== Reentrancy Guard ======\r\n    modifier nonReentrant() {\r\n        require(_locked == 1, \"ReentrancyGuard: reentrant call\");\r\n        _locked = 2;\r\n        _;\r\n        _locked = 1;\r\n    }\r\n\r\n    // ====== Modifiers ======\r\n    modifier onlyAdmin() {\r\n        require(accessControl.isAdmin(msg.sender), \"Only admin\");\r\n        _;\r\n    }\r\n\r\n    modifier onlyCreditOfficer() {\r\n        require(accessControl.isCreditOfficer(msg.sender), \"Only credit officer\");\r\n        _;\r\n    }\r\n\r\n    modifier onlyWhitelisted(address user) {\r\n        require(whitelist[user], \"User not whitelisted\");\r\n        _;\r\n    }\r\n\r\n    modifier notBlacklisted(address user) {\r\n        require(!blacklist[user], \"User is blacklisted\");\r\n        _;\r\n    }\r\n\r\n    modifier loanExists(bytes32 ref) {\r\n        require(loans[ref].borrower != address(0), \"Loan does not exist\");\r\n        _;\r\n    }\r\n\r\n    modifier whenNotPaused() {\r\n        require(!paused, \"Contract paused\");\r\n        _;\r\n    }\r\n\r\n    modifier nonReentrantLoan(bytes32 ref) {\r\n        require(!_loanLock[ref], \"ReentrancyGuard: loan locked\");\r\n        _loanLock[ref] = true;\r\n        _;\r\n        _loanLock[ref] = false;\r\n    }\r\n\r\n    modifier onlyActiveLoan(bytes32 ref) {\r\n        require(loans[ref].active, \"Loan not active\");\r\n        _;\r\n    }\r\n\r\n    modifier onlyAuthorized(address merchant) {\r\n        require(whitelist[merchant], \"User not whitelisted\");\r\n        require(accessControl.isAdmin(merchant), \"permission denied\");\r\n        require(accessControl.isCreditOfficer(msg.sender), \"permission denied\");\r\n         _;\r\n    }\r\n\r\n    // ====== Admin: Whitelist / Blacklist ======\r\n    function setWhitelist(address user, bool status) external onlyAdmin {\r\n        whitelist[user] = status;\r\n        emit Whitelisted(user, status);\r\n    }\r\n\r\n    function setBlacklist(address user, bool status) external onlyAdmin {\r\n        blacklist[user] = status;\r\n        emit Blacklisted(user, status);\r\n    }\r\n\r\n    // ====== Admin: Pause / Unpause ======\r\n    function pause() external onlyAdmin {\r\n        paused = true;\r\n        emit Paused();\r\n    }\r\n\r\n    function unpause() external onlyAdmin {\r\n        paused = false;\r\n        emit Unpaused();\r\n    }\r\n\r\n    function setFeeRate(uint256 platformFeeRate, uint256 lenderFeeRate) external onlyAdmin {\r\n        require(platformFeeRate + lenderFeeRate <= 1e6, \"Invalid fee setup\");\r\n        _platformFeeRate = platformFeeRate;\r\n        _lenderFeeRate = lenderFeeRate;\r\n        emit FeeRateChanged(platformFeeRate, lenderFeeRate);\r\n    }\r\n\r\n    function setDepositContributionPercent(uint256 depositContributionPercent) external onlyAdmin {\r\n        _depositContributionPercent = depositContributionPercent;\r\n        emit DepositContributionChanged(depositContributionPercent);\r\n    }\r\n\r\n\r\n\r\n\r\n    /* ========== VAULT FUNCTIONS ========== */\r\n\r\n    function depositToVault(address token, uint256 amount) external {\r\n        require(amount > 0, \"Amount must be > 0\");\r\n        ITRC20(token).transferFrom(msg.sender, address(this), amount);\r\n\r\n        // Update lender fee debt before increasing contribution\r\n        feeDebt[msg.sender][token] += (amount * cumulativeFeePerToken[token]) / FEE_PRECISION;\r\n\r\n        vault[msg.sender][token] += amount;\r\n        lenderContribution[msg.sender][token] += amount;\r\n        totalPoolContribution[token] += amount;\r\n        pool[token] += amount;\r\n\r\n        if (!isLender[msg.sender]) {\r\n            lenders.push(msg.sender);\r\n            isLender[msg.sender] = true;\r\n        }\r\n\r\n        emit Deposit(msg.sender, token, amount);\r\n    }\r\n\r\n    //\r\n\r\n    function withdrawFromVault(address token, uint256 amount) external\r\n    whenNotPaused notBlacklisted(msg.sender) onlyWhitelisted(msg.sender) nonReentrant \r\n      {\r\n        require(vault[msg.sender][token] >= amount, \"Insufficient vault balance\");\r\n        require(_getTotalOutstanding(msg.sender) == 0, \"has outstanding loan\" );\r\n\r\n        // Update lender contribution and pool\r\n        vault[msg.sender][token] -= amount;\r\n        if (lenderContribution[msg.sender][token] >= amount) {\r\n            lenderContribution[msg.sender][token] -= amount;\r\n            totalPoolContribution[token] -= amount;\r\n            pool[token] -= amount;\r\n        }\r\n\r\n         ITRC20 tokenA = ITRC20(token);\r\n        //IERC20(token).transfer(msg.sender, amount);\r\n        // Safe transfer with inline revert check\r\n           (bool success, bytes memory data) = address(tokenA).call(\r\n                abi.encodeWithSelector(tokenA.transfer.selector, msg.sender, amount)\r\n            );\r\n\r\n        //_safeTransfer(tokenA, msg.sender, amount);\r\n\r\n        emit Withdraw(msg.sender, token, amount);\r\n    }\r\n\r\n    function _safeTransfer(ITRC20 token, address to, uint256 value) internal {\r\n        (bool success, bytes memory data) =\r\n            address(token).call(abi.encodeWithSelector(token.transfer.selector, to, value));\r\n        require(success && (data.length == 0 || abi.decode(data, (bool))), \"SafeTransfer: failed\");\r\n    }\r\n\r\n    function _safeTransferFrom(ITRC20 token, address from, address to, uint256 value) internal {\r\n        (bool success, bytes memory data) =\r\n            address(token).call(abi.encodeWithSelector(token.transferFrom.selector, from, to, value));\r\n        require(success && (data.length == 0 || abi.decode(data, (bool))), \"SafeTransferFrom: failed\");\r\n    }\r\n\r\n    /* ========== LOAN FUNCTIONS ========== */\r\n\r\n    function createLoan(bytes32 ref,address token, address merchant, uint256 principal,\r\n     uint256 fee, uint256 depositAmount, address borrower)\r\n     external onlyCreditOfficer {\r\n        require(pool[token] >= principal, \"Insufficient pool liquidity\");\r\n        require(whitelist[borrower], \"Borrower not whitelisted\");\r\n        require(whitelist[merchant], \"Merchant not whitelisted\");\r\n        require(vault[borrower][token] >= depositAmount, \"Insufficient vault balance\");\r\n        require(merchant != address(0), \"Invalid merchant\");\r\n\r\n         // ---- Calculate components ----\r\n        uint256 platformFee = (principal * _platformFeeRate) / 1e6;\r\n        uint256 lenderFee = (principal * _lenderFeeRate) / 1e6;\r\n        uint256 depositRequired = (principal * _depositContributionPercent) / 1e6;\r\n        require(depositAmount >= depositRequired, \"Deposit too low\");\r\n\r\n        uint256 lenderFundDeducted = principal - depositRequired;\r\n        uint256 merchantSettledFund = principal - platformFee - lenderFee;\r\n\r\n        // ---- Update storage ----\r\n        _platformFee += platformFee;\r\n        _lenderFee += lenderFee;\r\n        merchantFund[merchant][token] += merchantSettledFund;\r\n        totalMerchantFund[token] += merchantSettledFund;\r\n\r\n        Loan storage l = loans[ref];\r\n        l.ref = ref;\r\n        l.borrower = borrower;\r\n        l.token = token;\r\n        l.merchant = merchant;\r\n        l.principal = principal;\r\n        l.outstanding = principal + fee;\r\n        l.startedAt = block.timestamp;\r\n        l.installmentsPaid = 0;\r\n        l.fee = fee;\r\n        l.totalPaid = depositAmount;\r\n        l.active = true;\r\n        l.disbursed = false;\r\n\r\n\r\n        // Track borrower\r\n        loanIndex[ref] = borrowerLoans[borrower].length;\r\n        borrowerLoans[borrower].push(ref);\r\n        if (!isBorrower[borrower]) {\r\n            borrowers.push(borrower);\r\n            isBorrower[borrower] = true;\r\n        }\r\n\r\n        // Disburse principal to borrower vault\r\n        pool[token] -= principal;\r\n        //vault[msg.sender][token] += principal;\r\n        vault[borrower][token] -= depositAmount;\r\n        lenderContribution[borrower][token] -= depositAmount;\r\n        //totalPoolContribution[token] -= depositAmount\r\n\r\n        emit LoanCreated(ref, borrower, principal, fee,depositAmount,lenderFundDeducted,merchantSettledFund);\r\n        \r\n        //emit LoanDisbursed(ref, msg.sender, principal);\r\n    }\r\n\r\n    function withdrawMerchantFund(address token) external \r\n    whenNotPaused notBlacklisted(msg.sender) onlyWhitelisted(msg.sender) nonReentrant  {\r\n        address merchant = msg.sender;\r\n        uint256 available = merchantFund[merchant][token];\r\n        require(available > 0, \"No funds to withdraw\");\r\n\r\n        // Reset balance BEFORE external call (prevents reentrancy)\r\n        merchantFund[merchant][token] = 0;\r\n        totalMerchantFund[token] -= available;\r\n\r\n        // Execute safe TRC20 transfer\r\n        ITRC20 tokenA = ITRC20(token);\r\n         (bool success, bytes memory data) = address(tokenA).call(\r\n                abi.encodeWithSelector(tokenA.transfer.selector, merchant, available)\r\n         );\r\n        //bool success = ITRC20(token).transfer(merchant, available);\r\n        require(success, \"Token transfer failed\");\r\n\r\n        emit MerchantWithdrawn(merchant, token, available);\r\n    }\r\n\r\n    function repayLoan(bytes32 ref, uint256 amount) external nonReentrant  {\r\n        Loan storage loan = loans[ref];\r\n        require(loan.active, \"Loan is closed\");\r\n        require(loan.borrower == msg.sender, \"Not borrower\");\r\n        require(amount > 0, \"Amount must be > 0\");\r\n\r\n        uint256 remaining = amount;\r\n\r\n        // Use vault balance first\r\n        uint256 vaultBalance = vault[msg.sender][loan.token];\r\n        if (vaultBalance > 0) {\r\n            uint256 fromVault = vaultBalance >= remaining ? remaining : vaultBalance;\r\n            //vault[msg.sender][loan.token] -= fromVault;\r\n            remaining -= fromVault;\r\n        }\r\n\r\n        // Use external transfer if needed\r\n        if (remaining > 0) {\r\n            ITRC20(loan.token).transferFrom(msg.sender, address(this), remaining);\r\n            vault[msg.sender][loan.token] += remaining;\r\n            pool[loan.token] += remaining;\r\n            totalPoolContribution[loan.token] += remaining;\r\n        }\r\n        \r\n        // Allocate fee portion\r\n        uint256 feePaid = loan.fee >= amount ? amount : loan.fee;\r\n        loan.fee -= feePaid;\r\n        //_addFeeToPool(loan.token, feePaid);\r\n\r\n        uint256 principalPaid = amount - feePaid;\r\n        if (principalPaid >= loan.outstanding) {\r\n            principalPaid = loan.outstanding - feePaid;\r\n        }\r\n\r\n        loan.outstanding -= (principalPaid + feePaid);\r\n        loan.totalPaid += amount;\r\n\r\n        if (loan.outstanding == 0) {\r\n            loan.active = false;\r\n            _removeLoanFromBorrower(msg.sender, ref);\r\n            emit LoanClosed(ref, msg.sender);\r\n        }\r\n\r\n        emit LoanRepaid(ref, msg.sender, principalPaid + feePaid, feePaid);\r\n    }\r\n\r\n    /*function _addFeeToPool(address token, uint256 feeAmount) internal {\r\n        if (totalPoolContribution[token] == 0) return;\r\n        cumulativeFeePerToken[token] += (feeAmount * FEE_PRECISION) / totalPoolContribution[token];\r\n        pool[token] += feeAmount;\r\n    }*/\r\n\r\n    function _removeLoanFromBorrower(address borrower, bytes32 ref) internal {\r\n        uint256 index = loanIndex[ref];\r\n        bytes32 lastRef = borrowerLoans[borrower][borrowerLoans[borrower].length - 1];\r\n\r\n        // Replace the removed ref with the last one\r\n        borrowerLoans[borrower][index] = lastRef;\r\n        loanIndex[lastRef] = index;\r\n\r\n        // Remove last element and delete index mapping\r\n        borrowerLoans[borrower].pop();\r\n        delete loanIndex[ref];\r\n    }\r\n\r\n    /* ========== FEE WITHDRAWAL ========== */\r\n\r\n    function getWithdrawableFees(address lender, address token) public view returns (uint256) {\r\n        uint256 contribution = lenderContribution[lender][token];\r\n        if (contribution == 0) return 0;\r\n\r\n        uint256 accumulatedFee = (contribution * cumulativeFeePerToken[token]) / FEE_PRECISION;\r\n        uint256 withdrawable = accumulatedFee > feeDebt[lender][token] ? accumulatedFee - feeDebt[lender][token] : 0;\r\n        return withdrawable;\r\n    }\r\n\r\n    function withdrawFees(address token) external \r\n    whenNotPaused notBlacklisted(msg.sender) onlyWhitelisted(msg.sender) {\r\n        uint256 amount = getWithdrawableFees(msg.sender, token);\r\n        require(amount > 0, \"No fees to withdraw\");\r\n\r\n        feeDebt[msg.sender][token] += amount;\r\n        pool[token] -= amount;\r\n\r\n        ITRC20(token).transfer(msg.sender, amount);\r\n        emit FeesWithdrawn(msg.sender, token, amount);\r\n    }\r\n\r\n    /* ========== VIEW FUNCTIONS ========== */\r\n\r\n    function getBorrowerStats(address borrower, address token) \r\n        external \r\n        view \r\n        returns (uint256 vaultBalance, uint256 totalPaidToPool) \r\n    {\r\n        vaultBalance = vault[borrower][token];\r\n        totalPaidToPool = 0;\r\n\r\n        bytes32[] memory refs = borrowerLoans[borrower];\r\n        for (uint256 i = 0; i < refs.length; i++) {\r\n            Loan storage loan = loans[refs[i]];\r\n            if (loan.token == token) {\r\n                totalPaidToPool += loan.totalPaid;\r\n            }\r\n        }\r\n    }\r\n\r\n    function getLenderStats(address lender, address token) \r\n        external \r\n        view \r\n        returns (\r\n            uint256 deposit,\r\n            uint256 poolShare,\r\n            uint256 totalFeesEarned,\r\n            uint256 feesClaimed\r\n        ) \r\n    {\r\n        deposit = vault[lender][token];\r\n        feesClaimed = feeDebt[lender][token];\r\n\r\n        uint256 contribution = lenderContribution[lender][token];\r\n        uint256 totalAccumulatedFee = (contribution * cumulativeFeePerToken[token]) / FEE_PRECISION;\r\n        totalFeesEarned = totalAccumulatedFee;\r\n        poolShare = deposit + (totalFeesEarned - feesClaimed);\r\n    }\r\n\r\n    function getProtocolStats(address token) \r\n        external \r\n        view \r\n        returns (\r\n            uint256 numLenders,\r\n            uint256 numBorrowers,\r\n            uint256 totalLenderDeposits,\r\n            uint256 totalBorrowed,\r\n            uint256 totalOutstanding,\r\n            uint256 totalPaid\r\n        ) \r\n    {\r\n        numLenders = lenders.length;\r\n        totalLenderDeposits = 0;\r\n        for (uint256 i = 0; i < lenders.length; i++) {\r\n            totalLenderDeposits += vault[lenders[i]][token];\r\n        }\r\n\r\n        numBorrowers = borrowers.length;\r\n        totalBorrowed = 0;\r\n        totalOutstanding = 0;\r\n        totalPaid = 0;\r\n        for (uint256 i = 0; i < borrowers.length; i++) {\r\n            bytes32[] memory ids = borrowerLoans[borrowers[i]];\r\n            for (uint256 j = 0; j < ids.length; j++) {\r\n                Loan storage loan = loans[ids[j]];\r\n                if (loan.token == token) {\r\n                    totalBorrowed += loan.principal;\r\n                    totalOutstanding += loan.outstanding;\r\n                    totalPaid += loan.totalPaid;\r\n                }\r\n            }\r\n        }\r\n    }\r\n\r\n    function getAllBorrowers() external view returns (address[] memory) {\r\n        return borrowers;\r\n    }\r\n\r\n    function getAllLenders() external view returns (address[] memory) {\r\n        return lenders;\r\n    }\r\n\r\n\r\n        //  INTERNAL function  reusable inside contract\r\n        function _getTotalOutstanding(address borrower) internal view returns (uint256 totalOutstanding) {\r\n            bytes32[] storage ids = borrowerLoans[borrower];\r\n            uint256 len = ids.length;\r\n\r\n            for (uint256 i = 0; i < len; i++) {\r\n                Loan storage l = loans[ids[i]];\r\n                if (l.active) {\r\n                    totalOutstanding += l.outstanding;\r\n                }\r\n            }\r\n        }\r\n\r\n        //  EXTERNAL function  exposed to other contracts or frontends\r\n        function getTotalOutstanding(address borrower) external view returns (uint256) {\r\n            return _getTotalOutstanding(borrower);\r\n        }\r\n\r\n   \r\n    function getLoans(address borrower, uint256 offset, uint256 limit) \r\n        external view returns (Loan[] memory result, uint256 totalLoans, uint256 nextOffset)\r\n    {\r\n        bytes32[] storage ids = borrowerLoans[borrower];\r\n        totalLoans = ids.length;\r\n\r\n        if (offset >= totalLoans) {\r\n            // Return empty result if offset is out of bounds\r\n           // return ; // (new Loan()[0] , totalLoans, totalLoans);\r\n        }\r\n\r\n        uint256 end = offset + limit;\r\n        if (end > totalLoans) {\r\n            end = totalLoans;\r\n        }\r\n\r\n        uint256 length = end - offset;\r\n        result = new Loan[](length);\r\n\r\n        for (uint256 i = 0; i < length; i++) {\r\n            result[i] = loans[ids[offset + i]];\r\n        }\r\n\r\n        nextOffset = end;\r\n    }\r\n\r\n    // ====== Public Read Functions ======\r\n    function getPlatformFeeRate() external view returns (uint256) {\r\n        return _platformFeeRate;\r\n    }\r\n\r\n    function getLenderFeeRate() external view returns (uint256) {\r\n        return _lenderFeeRate;\r\n    }\r\n\r\n    function getDepositContributionPercent() external view returns (uint256) {\r\n        return _depositContributionPercent;\r\n    }\r\n\r\n    function getTotalPlatformFee() external view returns (uint256) {\r\n        return _platformFee;\r\n    }\r\n\r\n    function getTotalLenderFee() external view returns (uint256) {\r\n        return _lenderFee;\r\n    }\r\n\r\n    function getMerchantFund(address merchant, address token) external view onlyAuthorized(msg.sender) returns (uint256) {\r\n        return merchantFund[merchant][token];\r\n    }\r\n    function getTotalMerchantFund(address token) external view onlyAuthorized(msg.sender) returns (uint256)\r\n     { \r\n        return totalMerchantFund[token];\r\n     }\r\n}\r\n",
  "sourcePath": "C:/workspace/tronbfpay/contracts/v4/VaultLendingV2.sol",
  "compiler": {
    "name": "solc",
    "version": "0.8.30+commit.73712a01.Emscripten.clang"
  },
  "schemaVersion": "2.0.1",
  "updatedAt": "2025-10-28T05:48:31.636Z"
}