{
  "contractName": "VaultLendingV3",
  "abi": [
    {
      "inputs": [
        {
          "internalType": "address",
          "name": "_accessControl",
          "type": "address"
        }
      ],
      "stateMutability": "nonpayable",
      "type": "constructor"
    },
    {
      "anonymous": false,
      "inputs": [
        {
          "indexed": true,
          "internalType": "address",
          "name": "user",
          "type": "address"
        },
        {
          "indexed": false,
          "internalType": "bool",
          "name": "status",
          "type": "bool"
        }
      ],
      "name": "Blacklisted",
      "type": "event"
    },
    {
      "anonymous": false,
      "inputs": [
        {
          "indexed": true,
          "internalType": "address",
          "name": "user",
          "type": "address"
        },
        {
          "indexed": true,
          "internalType": "address",
          "name": "token",
          "type": "address"
        },
        {
          "indexed": false,
          "internalType": "uint256",
          "name": "amount",
          "type": "uint256"
        }
      ],
      "name": "Deposit",
      "type": "event"
    },
    {
      "anonymous": false,
      "inputs": [
        {
          "indexed": false,
          "internalType": "uint256",
          "name": "depositContributionPercent",
          "type": "uint256"
        }
      ],
      "name": "DepositContributionChanged",
      "type": "event"
    },
    {
      "anonymous": false,
      "inputs": [
        {
          "indexed": false,
          "internalType": "uint256",
          "name": "platformFeeRate",
          "type": "uint256"
        },
        {
          "indexed": false,
          "internalType": "uint256",
          "name": "lenderFeeRate",
          "type": "uint256"
        }
      ],
      "name": "FeeRateChanged",
      "type": "event"
    },
    {
      "anonymous": false,
      "inputs": [
        {
          "indexed": true,
          "internalType": "address",
          "name": "lender",
          "type": "address"
        },
        {
          "indexed": true,
          "internalType": "address",
          "name": "token",
          "type": "address"
        },
        {
          "indexed": false,
          "internalType": "uint256",
          "name": "amount",
          "type": "uint256"
        }
      ],
      "name": "FeesWithdrawn",
      "type": "event"
    },
    {
      "anonymous": false,
      "inputs": [
        {
          "indexed": false,
          "internalType": "bytes32",
          "name": "loanId",
          "type": "bytes32"
        },
        {
          "indexed": false,
          "internalType": "address",
          "name": "borrower",
          "type": "address"
        }
      ],
      "name": "LoanClosed",
      "type": "event"
    },
    {
      "anonymous": false,
      "inputs": [
        {
          "indexed": false,
          "internalType": "bytes32",
          "name": "ref",
          "type": "bytes32"
        },
        {
          "indexed": false,
          "internalType": "address",
          "name": "borrower",
          "type": "address"
        },
        {
          "indexed": false,
          "internalType": "uint256",
          "name": "principal",
          "type": "uint256"
        },
        {
          "indexed": false,
          "internalType": "uint256",
          "name": "fee",
          "type": "uint256"
        },
        {
          "indexed": false,
          "internalType": "uint256",
          "name": "depositAmount",
          "type": "uint256"
        },
        {
          "indexed": false,
          "internalType": "uint256",
          "name": "lenderFundDeducted",
          "type": "uint256"
        },
        {
          "indexed": false,
          "internalType": "uint256",
          "name": "merchantSettledFund",
          "type": "uint256"
        }
      ],
      "name": "LoanCreated",
      "type": "event"
    },
    {
      "anonymous": false,
      "inputs": [
        {
          "indexed": false,
          "internalType": "bytes32",
          "name": "loanId",
          "type": "bytes32"
        },
        {
          "indexed": false,
          "internalType": "address",
          "name": "borrower",
          "type": "address"
        },
        {
          "indexed": false,
          "internalType": "uint256",
          "name": "amount",
          "type": "uint256"
        }
      ],
      "name": "LoanDisbursed",
      "type": "event"
    },
    {
      "anonymous": false,
      "inputs": [
        {
          "indexed": false,
          "internalType": "bytes32",
          "name": "ref",
          "type": "bytes32"
        },
        {
          "indexed": false,
          "internalType": "address",
          "name": "borrower",
          "type": "address"
        },
        {
          "indexed": false,
          "internalType": "uint256",
          "name": "amount",
          "type": "uint256"
        }
      ],
      "name": "LoanRepaid",
      "type": "event"
    },
    {
      "anonymous": false,
      "inputs": [
        {
          "indexed": true,
          "internalType": "address",
          "name": "merchant",
          "type": "address"
        },
        {
          "indexed": true,
          "internalType": "address",
          "name": "token",
          "type": "address"
        },
        {
          "indexed": false,
          "internalType": "uint256",
          "name": "amount",
          "type": "uint256"
        }
      ],
      "name": "MerchantWithdrawn",
      "type": "event"
    },
    {
      "anonymous": false,
      "inputs": [],
      "name": "Paused",
      "type": "event"
    },
    {
      "anonymous": false,
      "inputs": [
        {
          "indexed": true,
          "internalType": "bytes32",
          "name": "id",
          "type": "bytes32"
        },
        {
          "indexed": false,
          "internalType": "address",
          "name": "token",
          "type": "address"
        },
        {
          "indexed": false,
          "internalType": "address",
          "name": "to",
          "type": "address"
        },
        {
          "indexed": false,
          "internalType": "uint256",
          "name": "amount",
          "type": "uint256"
        },
        {
          "indexed": false,
          "internalType": "uint256",
          "name": "unlockTime",
          "type": "uint256"
        }
      ],
      "name": "TimelockCreated",
      "type": "event"
    },
    {
      "anonymous": false,
      "inputs": [
        {
          "indexed": true,
          "internalType": "bytes32",
          "name": "id",
          "type": "bytes32"
        }
      ],
      "name": "TimelockExecuted",
      "type": "event"
    },
    {
      "anonymous": false,
      "inputs": [],
      "name": "Unpaused",
      "type": "event"
    },
    {
      "anonymous": false,
      "inputs": [
        {
          "indexed": true,
          "internalType": "address",
          "name": "user",
          "type": "address"
        },
        {
          "indexed": false,
          "internalType": "bool",
          "name": "status",
          "type": "bool"
        }
      ],
      "name": "Whitelisted",
      "type": "event"
    },
    {
      "anonymous": false,
      "inputs": [
        {
          "indexed": true,
          "internalType": "address",
          "name": "user",
          "type": "address"
        },
        {
          "indexed": true,
          "internalType": "address",
          "name": "token",
          "type": "address"
        },
        {
          "indexed": false,
          "internalType": "uint256",
          "name": "amount",
          "type": "uint256"
        }
      ],
      "name": "Withdraw",
      "type": "event"
    },
    {
      "inputs": [],
      "name": "accessControl",
      "outputs": [
        {
          "internalType": "contract IAccessControlModule",
          "name": "",
          "type": "address"
        }
      ],
      "stateMutability": "view",
      "type": "function"
    },
    {
      "inputs": [
        {
          "internalType": "address",
          "name": "",
          "type": "address"
        }
      ],
      "name": "blacklist",
      "outputs": [
        {
          "internalType": "bool",
          "name": "",
          "type": "bool"
        }
      ],
      "stateMutability": "view",
      "type": "function"
    },
    {
      "inputs": [
        {
          "internalType": "bytes32",
          "name": "ref",
          "type": "bytes32"
        },
        {
          "internalType": "address",
          "name": "token",
          "type": "address"
        },
        {
          "internalType": "address",
          "name": "merchant",
          "type": "address"
        },
        {
          "internalType": "uint256",
          "name": "principal",
          "type": "uint256"
        },
        {
          "internalType": "uint256",
          "name": "fee",
          "type": "uint256"
        },
        {
          "internalType": "uint256",
          "name": "depositAmount",
          "type": "uint256"
        },
        {
          "internalType": "address",
          "name": "borrower",
          "type": "address"
        }
      ],
      "name": "createLoan",
      "outputs": [],
      "stateMutability": "nonpayable",
      "type": "function"
    },
    {
      "inputs": [
        {
          "internalType": "address",
          "name": "",
          "type": "address"
        }
      ],
      "name": "cumulativeFeePerToken",
      "outputs": [
        {
          "internalType": "uint256",
          "name": "",
          "type": "uint256"
        }
      ],
      "stateMutability": "view",
      "type": "function"
    },
    {
      "inputs": [
        {
          "internalType": "address",
          "name": "token",
          "type": "address"
        },
        {
          "internalType": "uint256",
          "name": "amount",
          "type": "uint256"
        }
      ],
      "name": "depositToVault",
      "outputs": [],
      "stateMutability": "nonpayable",
      "type": "function"
    },
    {
      "inputs": [
        {
          "internalType": "address",
          "name": "",
          "type": "address"
        },
        {
          "internalType": "address",
          "name": "",
          "type": "address"
        }
      ],
      "name": "feeDebt",
      "outputs": [
        {
          "internalType": "uint256",
          "name": "",
          "type": "uint256"
        }
      ],
      "stateMutability": "view",
      "type": "function"
    },
    {
      "inputs": [],
      "name": "getAllBorrowers",
      "outputs": [
        {
          "internalType": "address[]",
          "name": "",
          "type": "address[]"
        }
      ],
      "stateMutability": "view",
      "type": "function"
    },
    {
      "inputs": [],
      "name": "getAllLenders",
      "outputs": [
        {
          "internalType": "address[]",
          "name": "",
          "type": "address[]"
        }
      ],
      "stateMutability": "view",
      "type": "function"
    },
    {
      "inputs": [
        {
          "internalType": "address",
          "name": "borrower",
          "type": "address"
        },
        {
          "internalType": "address",
          "name": "token",
          "type": "address"
        }
      ],
      "name": "getBorrowerStats",
      "outputs": [
        {
          "internalType": "uint256",
          "name": "vaultBalance",
          "type": "uint256"
        },
        {
          "internalType": "uint256",
          "name": "totalPaidToPool",
          "type": "uint256"
        }
      ],
      "stateMutability": "view",
      "type": "function"
    },
    {
      "inputs": [],
      "name": "getDepositContributionPercent",
      "outputs": [
        {
          "internalType": "uint256",
          "name": "",
          "type": "uint256"
        }
      ],
      "stateMutability": "view",
      "type": "function"
    },
    {
      "inputs": [],
      "name": "getLenderFeeRate",
      "outputs": [
        {
          "internalType": "uint256",
          "name": "",
          "type": "uint256"
        }
      ],
      "stateMutability": "view",
      "type": "function"
    },
    {
      "inputs": [
        {
          "internalType": "address",
          "name": "lender",
          "type": "address"
        },
        {
          "internalType": "address",
          "name": "token",
          "type": "address"
        }
      ],
      "name": "getLenderStats",
      "outputs": [
        {
          "internalType": "uint256",
          "name": "deposit",
          "type": "uint256"
        },
        {
          "internalType": "uint256",
          "name": "poolShare",
          "type": "uint256"
        },
        {
          "internalType": "uint256",
          "name": "totalFeesEarned",
          "type": "uint256"
        },
        {
          "internalType": "uint256",
          "name": "feesClaimed",
          "type": "uint256"
        }
      ],
      "stateMutability": "view",
      "type": "function"
    },
    {
      "inputs": [
        {
          "internalType": "bytes32",
          "name": "ref",
          "type": "bytes32"
        }
      ],
      "name": "getLoanData",
      "outputs": [
        {
          "internalType": "address",
          "name": "borrower",
          "type": "address"
        },
        {
          "internalType": "address",
          "name": "merchant",
          "type": "address"
        },
        {
          "internalType": "uint256",
          "name": "principal",
          "type": "uint256"
        },
        {
          "internalType": "uint256",
          "name": "outstanding",
          "type": "uint256"
        },
        {
          "internalType": "uint256",
          "name": "totalPaid",
          "type": "uint256"
        }
      ],
      "stateMutability": "view",
      "type": "function"
    },
    {
      "inputs": [
        {
          "internalType": "address",
          "name": "borrower",
          "type": "address"
        },
        {
          "internalType": "uint256",
          "name": "offset",
          "type": "uint256"
        },
        {
          "internalType": "uint256",
          "name": "limit",
          "type": "uint256"
        }
      ],
      "name": "getLoans",
      "outputs": [
        {
          "components": [
            {
              "internalType": "bytes32",
              "name": "ref",
              "type": "bytes32"
            },
            {
              "internalType": "address",
              "name": "borrower",
              "type": "address"
            },
            {
              "internalType": "address",
              "name": "token",
              "type": "address"
            },
            {
              "internalType": "address",
              "name": "merchant",
              "type": "address"
            },
            {
              "internalType": "uint256",
              "name": "principal",
              "type": "uint256"
            },
            {
              "internalType": "uint256",
              "name": "outstanding",
              "type": "uint256"
            },
            {
              "internalType": "uint256",
              "name": "startedAt",
              "type": "uint256"
            },
            {
              "internalType": "uint256",
              "name": "installmentsPaid",
              "type": "uint256"
            },
            {
              "internalType": "uint256",
              "name": "fee",
              "type": "uint256"
            },
            {
              "internalType": "uint256",
              "name": "totalPaid",
              "type": "uint256"
            },
            {
              "internalType": "bool",
              "name": "active",
              "type": "bool"
            },
            {
              "internalType": "bool",
              "name": "disbursed",
              "type": "bool"
            }
          ],
          "internalType": "struct VaultLendingV3.Loan[]",
          "name": "result",
          "type": "tuple[]"
        },
        {
          "internalType": "uint256",
          "name": "totalLoans",
          "type": "uint256"
        },
        {
          "internalType": "uint256",
          "name": "nextOffset",
          "type": "uint256"
        }
      ],
      "stateMutability": "view",
      "type": "function"
    },
    {
      "inputs": [
        {
          "internalType": "address",
          "name": "merchant",
          "type": "address"
        },
        {
          "internalType": "address",
          "name": "token",
          "type": "address"
        }
      ],
      "name": "getMerchantFund",
      "outputs": [
        {
          "internalType": "uint256",
          "name": "",
          "type": "uint256"
        }
      ],
      "stateMutability": "view",
      "type": "function"
    },
    {
      "inputs": [],
      "name": "getPlatformFeeRate",
      "outputs": [
        {
          "internalType": "uint256",
          "name": "",
          "type": "uint256"
        }
      ],
      "stateMutability": "view",
      "type": "function"
    },
    {
      "inputs": [
        {
          "internalType": "address",
          "name": "token",
          "type": "address"
        }
      ],
      "name": "getProtocolStats",
      "outputs": [
        {
          "internalType": "uint256",
          "name": "numLenders",
          "type": "uint256"
        },
        {
          "internalType": "uint256",
          "name": "numBorrowers",
          "type": "uint256"
        },
        {
          "internalType": "uint256",
          "name": "totalLenderDeposits",
          "type": "uint256"
        },
        {
          "internalType": "uint256",
          "name": "totalBorrowed",
          "type": "uint256"
        },
        {
          "internalType": "uint256",
          "name": "totalOutstanding",
          "type": "uint256"
        },
        {
          "internalType": "uint256",
          "name": "totalPaid",
          "type": "uint256"
        }
      ],
      "stateMutability": "view",
      "type": "function"
    },
    {
      "inputs": [],
      "name": "getTotalLenderFee",
      "outputs": [
        {
          "internalType": "uint256",
          "name": "",
          "type": "uint256"
        }
      ],
      "stateMutability": "view",
      "type": "function"
    },
    {
      "inputs": [
        {
          "internalType": "address",
          "name": "token",
          "type": "address"
        }
      ],
      "name": "getTotalMerchantFund",
      "outputs": [
        {
          "internalType": "uint256",
          "name": "",
          "type": "uint256"
        }
      ],
      "stateMutability": "view",
      "type": "function"
    },
    {
      "inputs": [
        {
          "internalType": "address",
          "name": "borrower",
          "type": "address"
        }
      ],
      "name": "getTotalOutstanding",
      "outputs": [
        {
          "internalType": "uint256",
          "name": "",
          "type": "uint256"
        }
      ],
      "stateMutability": "view",
      "type": "function"
    },
    {
      "inputs": [],
      "name": "getTotalPlatformFee",
      "outputs": [
        {
          "internalType": "uint256",
          "name": "",
          "type": "uint256"
        }
      ],
      "stateMutability": "view",
      "type": "function"
    },
    {
      "inputs": [
        {
          "internalType": "address",
          "name": "borrower",
          "type": "address"
        },
        {
          "internalType": "address",
          "name": "token",
          "type": "address"
        }
      ],
      "name": "getVaultBalance",
      "outputs": [
        {
          "internalType": "uint256",
          "name": "",
          "type": "uint256"
        }
      ],
      "stateMutability": "view",
      "type": "function"
    },
    {
      "inputs": [
        {
          "internalType": "address",
          "name": "lender",
          "type": "address"
        },
        {
          "internalType": "address",
          "name": "token",
          "type": "address"
        }
      ],
      "name": "getWithdrawableFees",
      "outputs": [
        {
          "internalType": "uint256",
          "name": "",
          "type": "uint256"
        }
      ],
      "stateMutability": "view",
      "type": "function"
    },
    {
      "inputs": [
        {
          "internalType": "address",
          "name": "user",
          "type": "address"
        }
      ],
      "name": "isWhitelisted",
      "outputs": [
        {
          "internalType": "bool",
          "name": "",
          "type": "bool"
        }
      ],
      "stateMutability": "view",
      "type": "function"
    },
    {
      "inputs": [
        {
          "internalType": "address",
          "name": "",
          "type": "address"
        },
        {
          "internalType": "address",
          "name": "",
          "type": "address"
        }
      ],
      "name": "lenderContribution",
      "outputs": [
        {
          "internalType": "uint256",
          "name": "",
          "type": "uint256"
        }
      ],
      "stateMutability": "view",
      "type": "function"
    },
    {
      "inputs": [
        {
          "internalType": "bytes32",
          "name": "",
          "type": "bytes32"
        }
      ],
      "name": "loans",
      "outputs": [
        {
          "internalType": "bytes32",
          "name": "ref",
          "type": "bytes32"
        },
        {
          "internalType": "address",
          "name": "borrower",
          "type": "address"
        },
        {
          "internalType": "address",
          "name": "token",
          "type": "address"
        },
        {
          "internalType": "address",
          "name": "merchant",
          "type": "address"
        },
        {
          "internalType": "uint256",
          "name": "principal",
          "type": "uint256"
        },
        {
          "internalType": "uint256",
          "name": "outstanding",
          "type": "uint256"
        },
        {
          "internalType": "uint256",
          "name": "startedAt",
          "type": "uint256"
        },
        {
          "internalType": "uint256",
          "name": "installmentsPaid",
          "type": "uint256"
        },
        {
          "internalType": "uint256",
          "name": "fee",
          "type": "uint256"
        },
        {
          "internalType": "uint256",
          "name": "totalPaid",
          "type": "uint256"
        },
        {
          "internalType": "bool",
          "name": "active",
          "type": "bool"
        },
        {
          "internalType": "bool",
          "name": "disbursed",
          "type": "bool"
        }
      ],
      "stateMutability": "view",
      "type": "function"
    },
    {
      "inputs": [
        {
          "internalType": "address",
          "name": "",
          "type": "address"
        },
        {
          "internalType": "address",
          "name": "",
          "type": "address"
        }
      ],
      "name": "merchantFund",
      "outputs": [
        {
          "internalType": "uint256",
          "name": "",
          "type": "uint256"
        }
      ],
      "stateMutability": "view",
      "type": "function"
    },
    {
      "inputs": [],
      "name": "pause",
      "outputs": [],
      "stateMutability": "nonpayable",
      "type": "function"
    },
    {
      "inputs": [],
      "name": "paused",
      "outputs": [
        {
          "internalType": "bool",
          "name": "",
          "type": "bool"
        }
      ],
      "stateMutability": "view",
      "type": "function"
    },
    {
      "inputs": [
        {
          "internalType": "address",
          "name": "",
          "type": "address"
        }
      ],
      "name": "pool",
      "outputs": [
        {
          "internalType": "uint256",
          "name": "",
          "type": "uint256"
        }
      ],
      "stateMutability": "view",
      "type": "function"
    },
    {
      "inputs": [
        {
          "internalType": "bytes32",
          "name": "ref",
          "type": "bytes32"
        },
        {
          "internalType": "uint256",
          "name": "amount",
          "type": "uint256"
        }
      ],
      "name": "repayLoan",
      "outputs": [],
      "stateMutability": "nonpayable",
      "type": "function"
    },
    {
      "inputs": [
        {
          "internalType": "address",
          "name": "user",
          "type": "address"
        },
        {
          "internalType": "bool",
          "name": "status",
          "type": "bool"
        }
      ],
      "name": "setBlacklist",
      "outputs": [],
      "stateMutability": "nonpayable",
      "type": "function"
    },
    {
      "inputs": [
        {
          "internalType": "uint256",
          "name": "depositContributionPercent",
          "type": "uint256"
        }
      ],
      "name": "setDepositContributionPercent",
      "outputs": [],
      "stateMutability": "nonpayable",
      "type": "function"
    },
    {
      "inputs": [
        {
          "internalType": "uint256",
          "name": "platformFeeRate",
          "type": "uint256"
        },
        {
          "internalType": "uint256",
          "name": "lenderFeeRate",
          "type": "uint256"
        }
      ],
      "name": "setFeeRate",
      "outputs": [],
      "stateMutability": "nonpayable",
      "type": "function"
    },
    {
      "inputs": [
        {
          "internalType": "address",
          "name": "user",
          "type": "address"
        },
        {
          "internalType": "bool",
          "name": "status",
          "type": "bool"
        }
      ],
      "name": "setWhitelist",
      "outputs": [],
      "stateMutability": "nonpayable",
      "type": "function"
    },
    {
      "inputs": [
        {
          "internalType": "address",
          "name": "",
          "type": "address"
        }
      ],
      "name": "totalPoolContribution",
      "outputs": [
        {
          "internalType": "uint256",
          "name": "",
          "type": "uint256"
        }
      ],
      "stateMutability": "view",
      "type": "function"
    },
    {
      "inputs": [],
      "name": "unpause",
      "outputs": [],
      "stateMutability": "nonpayable",
      "type": "function"
    },
    {
      "inputs": [
        {
          "internalType": "address",
          "name": "",
          "type": "address"
        },
        {
          "internalType": "address",
          "name": "",
          "type": "address"
        }
      ],
      "name": "vault",
      "outputs": [
        {
          "internalType": "uint256",
          "name": "",
          "type": "uint256"
        }
      ],
      "stateMutability": "view",
      "type": "function"
    },
    {
      "inputs": [
        {
          "internalType": "address",
          "name": "",
          "type": "address"
        }
      ],
      "name": "whitelist",
      "outputs": [
        {
          "internalType": "bool",
          "name": "",
          "type": "bool"
        }
      ],
      "stateMutability": "view",
      "type": "function"
    },
    {
      "inputs": [
        {
          "internalType": "address",
          "name": "token",
          "type": "address"
        }
      ],
      "name": "withdrawFees",
      "outputs": [],
      "stateMutability": "nonpayable",
      "type": "function"
    },
    {
      "inputs": [
        {
          "internalType": "address",
          "name": "token",
          "type": "address"
        },
        {
          "internalType": "uint256",
          "name": "amount",
          "type": "uint256"
        }
      ],
      "name": "withdrawFromVault",
      "outputs": [],
      "stateMutability": "nonpayable",
      "type": "function"
    },
    {
      "inputs": [
        {
          "internalType": "address",
          "name": "token",
          "type": "address"
        }
      ],
      "name": "withdrawMerchantFund",
      "outputs": [],
      "stateMutability": "nonpayable",
      "type": "function"
    }
  ],
  "bytecode": "0x60a03461010657601f612c0e38819003918201601f19168301916001600160401b0383118484101761010a5780849260209460405283398101031261010657516001600160a01b038116908190036101065760015f5580156100c1576080526001600255604051612aef908161011f82396080518181816102b60152818161088e01528181610e8e01528181610f90015281816111da015281816112fd0152818161197201528181612208015281816123de0152818161248201526124ff0152f35b60405162461bcd60e51b815260206004820152601660248201527f496e76616c69642061636365737320636f6e74726f6c000000000000000000006044820152606490fd5b5f80fd5b634e487b7160e01b5f52604160045260245ffdfe60806040526004361015610011575f80fd5b5f3560e01c80630351493a1461258e5780630c54dd19146124ce57806310ea1d6b146124b157806313007d551461246d578063153b0d1e146123b3578063156522a81461237b578063164e68de146121ac5780631b54cc881461081057806321116f4e14611f885780632571f4b814611f6b57806327c2f17c14611c2d5780632954f7cc14611a5f57806332abcdbe146119e25780633af32abf14610bae5780633f4ba83a14611947578063429043ed146118355780634ee153251461128d57806353d6fd59146111af5780635c975abb1461118d5780635cd436e5146110d65780636c92b2f81461108657806374359ac314610f575780637ef9287714610f1f5780638456cb5914610e63578063900d99da14610e465780639402002814610e1a57806398ef646414610c085780639a1d90f414610beb5780639b19251a14610bae578063a1666b5414610b21578063a3d1115814610972578063a6a5fc2414610860578063abcdc3ce14610810578063add63d91146107c0578063c4a90815146106fc578063c4d2b1b314610695578063ce88875d1461066a578063d15a1bba146103af578063f2d2a7511461027d578063f756ff2814610260578063f9f92be4146102235763fd83a64f146101e7575f80fd5b3461021f57602036600319011261021f576001600160a01b036102086125de565b165f526011602052602060405f2054604051908152f35b5f80fd5b3461021f57602036600319011261021f576001600160a01b036102446125de565b165f526018602052602060ff60405f2054166040519015158152f35b3461021f575f36600319011261021f576020600454604051908152f35b3461021f57604036600319011261021f57600435602435604051630935e01b60e21b815233600482015260208160248160018060a01b037f0000000000000000000000000000000000000000000000000000000000000000165afa80156103a4576102ef915f91610375575b506126d2565b620f42406102fd828461278b565b1161033c57816040917fb9ffe02e89fee6f5544ee152a08c2cafbc3a4a89a66737ef42115dcd508aea10936005558060065582519182526020820152a1005b60405162461bcd60e51b81526020600482015260116024820152700496e76616c69642066656520736574757607c1b6044820152606490fd5b610397915060203d60201161039d575b61038f8183612698565b8101906126ba565b846102e9565b503d610385565b6040513d5f823e3d90fd5b3461021f57606036600319011261021f576103c86125de565b6001600160a01b03165f9081526009602052604090208054906024356103f06044358261278b565b91838311610662575b6104038284612798565b9061040d82612a2c565b9261041b6040519485612698565b828452601f1961042a84612a2c565b015f5b8181106105ff5750505f5b838110610522575050505060405191606083019360608452825180955260206080850193015f955b80871061047a575050839450602084015260408301520390f35b90936020610180600192610160885180518352858060a01b03858201511685840152858060a01b036040820151166040840152858060a01b0360608201511660608401526080810151608084015260a081015160a084015260c081015160c084015260e081015160e084015261010081015161010084015261012081015161012084015261014081015115156101408401520151151561016082015201950196019590610460565b806105386105326001938561278b565b85612927565b90549060031b1c5f52600860205260405f2060ff600a6040519261055b8461267b565b805484528581015460a087811b88900391821660208701526002830154821660408701526003830154909116606086015260048201546080860152600582015490850152600681015460c0850152600781015460e085015260088082015461010086015260098201546101208601529101548281161515610140850152901c1615156101608201526105ed8288612900565b526105f88187612900565b5001610438565b60209060405161060e8161267b565b5f81525f838201525f60408201525f60608201525f60808201525f60a08201525f60c08201525f60e08201525f6101008201525f6101208201525f6101408201525f6101608201528282890101520161042d565b8392506103f9565b3461021f57602036600319011261021f57602061068d6106886125de565b612a44565b604051908152f35b3461021f57602036600319011261021f576004355f52600860205260a060405f20600180831b0360018201541690600180841b0360038201541690600481015460096005830154920154926040519485526020850152604084015260608301526080820152f35b3461021f57602036600319011261021f576004355f52600860205261018060405f2060ff81549160018060a01b036001820154169060018060a01b0360028201541660018060a01b0360038301541660048301546005840154600685015491600786015493600887015495600a6009890154980154986040519b8c5260208c015260408b015260608a0152608089015260a088015260c087015260e0860152610100850152610120840152818116151561014084015260081c161515610160820152f35b3461021f57604036600319011261021f576107d96125de565b6107e16125f4565b6001600160a01b039182165f908152600f60209081526040808320949093168252928352819020549051908152f35b3461021f57604036600319011261021f576108296125de565b6108316125f4565b6001600160a01b039182165f908152600b60209081526040808320949093168252928352819020549051908152f35b3461021f57602036600319011261021f576108796125de565b604051630935e01b60e21b81523360048201527f00000000000000000000000000000000000000000000000000000000000000006001600160a01b031690602081602481855afa9081156103a4575f91610953575b5080156108fe575b6108e0915061293c565b60018060a01b03165f526010602052602060405f2054604051908152f35b50602060249160405192838092638b7ac4d560e01b82523360048301525afa80156103a4576108e0915f91610934575b506108d6565b61094d915060203d60201161039d5761038f8183612698565b8361092e565b61096c915060203d60201161039d5761038f8183612698565b836108ce565b3461021f57604036600319011261021f5761098b6125de565b6024359061099a8215156128bf565b6040516323b872dd60e01b8152336004820152306024820152604481018390526001600160a01b039190911691906020816064815f875af180156103a457610b04575b50335f52600b60205260405f20825f5260205260405f206109ff82825461278b565b9055335f52600c60205260405f20825f5260205260405f20610a2282825461278b565b9055815f52600d60205260405f20610a3b82825461278b565b9055815f52600e60205260405f20610a5482825461278b565b9055335f52601560205260ff60405f20541615610a9a575b6040519081527f5548c837ab068cf56a2c2479df0882a4922fd203edb7517321831d95078c5f6260203392a3005b601654600160401b811015610af057806001610abb92016016556016612927565b81549060031b9033821b9160018060a01b03901b1916179055335f52601560205260405f20600160ff19825416179055610a6c565b634e487b7160e01b5f52604160045260245ffd5b610b1c9060203d60201161039d5761038f8183612698565b6109dd565b3461021f575f36600319011261021f5760405180602060165491828152019060165f527fd833147d7dc355ba459fc788f669e58cfaf9dc25ddcd0702e87d69c7b5124289905f5b818110610b8f57610b8b85610b7f81870382612698565b60405191829182612639565b0390f35b82546001600160a01b0316845260209093019260019283019201610b68565b3461021f57602036600319011261021f576001600160a01b03610bcf6125de565b165f526017602052602060ff60405f2054166040519015158152f35b3461021f575f36600319011261021f576020600754604051908152f35b3461021f57602036600319011261021f57610c216125de565b6016546001600160a01b03909116905f80825b838210610db5575050601454905f5f915f935f6014545b828210610c7957505060c09650604051958652602086015260408501526060840152608083015260a0820152f35b909697925f969594965081881015610da1577fce6d7b5282bd9a3661ae061feed1dbda4e52ab073b1f9285be6e155d9c38d4ec8801546001600160a01b03165f908152600960209081526040808320905181548082529184528284209096939092879290830191905b808210610d85575050610cf792500385612698565b5f5b8451811015610d7157610d0c8186612900565b515f90815260086020526040902060028101546001600160a01b03168714610d38575b50600101610cf9565b9698600191986009610d61610d55610d6a9460048d01549061278b565b9c60058c01549061278b565b9901549061278b565b9790610d2f565b509250929796600190969495960190610c4b565b9160019193506020829186548152019401920187929391610ce2565b634e487b7160e01b5f52603260045260245ffd5b909181831015610da1577fd833147d7dc355ba459fc788f669e58cfaf9dc25ddcd0702e87d69c7b51242898301546001600160a01b03165f908152600b60209081526040808320888452909152902054600191610e12919061278b565b920190610c34565b3461021f57604036600319011261021f57602061068d610e386125de565b610e406125f4565b9061297c565b3461021f575f36600319011261021f576020600654604051908152f35b3461021f575f36600319011261021f57604051630935e01b60e21b81523360048201526020816024817f00000000000000000000000000000000000000000000000000000000000000006001600160a01b03165afa80156103a457610ece915f91610f0057506126d2565b600160ff19815416176001557f9e87fac88ff661f02d44f95383c817fece4bce600a3dab7a54406878b965e7525f80a1005b610f19915060203d60201161039d5761038f8183612698565b826102e9565b3461021f57602036600319011261021f576001600160a01b03610f406125de565b165f52600d602052602060405f2054604051908152f35b3461021f57604036600319011261021f57610f706125de565b610f786125f4565b604051630935e01b60e21b81523360048201529091907f00000000000000000000000000000000000000000000000000000000000000006001600160a01b031690602081602481855afa9081156103a4575f91611067575b508015611012575b610fe2915061293c565b60018060a01b03165f52600f60205260405f209060018060a01b03165f52602052602060405f2054604051908152f35b50602060249160405192838092638b7ac4d560e01b82523360048301525afa80156103a457610fe2915f91611048575b50610fd8565b611061915060203d60201161039d5761038f8183612698565b84611042565b611080915060203d60201161039d5761038f8183612698565b84610fd0565b3461021f57604036600319011261021f5761109f6125de565b6110a76125f4565b6001600160a01b039182165f908152601260209081526040808320949093168252928352819020549051908152f35b3461021f57604036600319011261021f5760806110f16125de565b6110f96125f4565b6001600160a01b039182165f818152600b60209081526040808320959094168083529481528382205483835260128252848320868452825284832054938352600c8252848320958352948152838220546011909152929020549091620f42409161116291612914565b046111766111708383612798565b8461278b565b604051938452602084015260408301526060820152f35b3461021f575f36600319011261021f57602060ff600154166040519015158152f35b3461021f576111bd3661260a565b604051630935e01b60e21b815233600482015290916020826024817f00000000000000000000000000000000000000000000000000000000000000006001600160a01b03165afa9081156103a45761123f6020927fa54714518c5d275fdcd3d2a461e4858e4e8cb04fb93cd0bca9d6d34115f26440945f9161127057506126d2565b6001600160a01b03165f8181526017835260409020805460ff191660ff86151516179055925b6040519015158152a2005b6112879150843d861161039d5761038f8183612698565b866102e9565b3461021f5760e036600319011261021f576004356112a96125f4565b6044356001600160a01b03811692919083900361021f576064359260c4356001600160a01b0381169260a43591608435919085900361021f57604051638b7ac4d560e01b81523360048201526020816024817f00000000000000000000000000000000000000000000000000000000000000006001600160a01b03165afa9081156103a4575f91611816575b50156117db5760018060a01b031695865f52600e6020528060405f20541061179657845f52601760205260ff60405f2054161561175157835f52601760205260ff60405f2054161561170c57845f52600b60205260405f20875f526020526113a38360405f20541015612834565b83156116d457620f42406113b960055483612914565b0494620f42406113cb60065484612914565b0494620f42406113dd60075485612914565b049081861061169d576114206113f5600a9386612798565b9761141561140c826114078d8a612798565b612798565b9a60035461278b565b60035560045461278b565b600455805f52600f60205260405f208a5f5260205260405f2061144489825461278b565b9055895f52601060205260405f2061145d89825461278b565b9055885f52600860205260405f209089825560018201846001600160601b0360a01b825416179055600282018b6001600160601b0360a01b82541617905560038201906001600160601b0360a01b8254161790558360048201556114c18685612798565b60058201554260068201555f600782015584600882015585600982015501600161ffff19825416179055805f52600960205260405f2054875f52600a60205260405f2055805f52600960205260405f208054600160401b811015610af057611533818a93600161154994018155612927565b819391549060031b91821b915f19901b19161790565b9055805f52601360205260ff60405f20541615611612575b9060e0969594939291887f4029f3342223bc7d30c86e7ad5094f6b3cfdd3125b4998f23b45caaf91594068995f52600e60205260405f206115a3848254612798565b9055815f52600b60205260405f20815f5260205260405f206115c6868254612798565b9055815f52600c60205260405f20905f5260205260405f206115e9858254612798565b9055604051968752602087015260408601526060850152608084015260a083015260c0820152a1005b95949392919060145496600160401b881015610af0577f4029f3342223bc7d30c86e7ad5094f6b3cfdd3125b4998f23b45caaf915940689861165e89600160e09b016014556014612927565b81549060031b9084821b9160018060a01b03901b1916179055815f52601360205260405f20600160ff1982541617905598509091929394959650611561565b60405162461bcd60e51b815260206004820152600f60248201526e4465706f73697420746f6f206c6f7760881b6044820152606490fd5b60405162461bcd60e51b815260206004820152601060248201526f125b9d985b1a59081b595c98da185b9d60821b6044820152606490fd5b60405162461bcd60e51b815260206004820152601860248201527f4d65726368616e74206e6f742077686974656c697374656400000000000000006044820152606490fd5b60405162461bcd60e51b815260206004820152601860248201527f426f72726f776572206e6f742077686974656c697374656400000000000000006044820152606490fd5b60405162461bcd60e51b815260206004820152601b60248201527f496e73756666696369656e7420706f6f6c206c697175696469747900000000006044820152606490fd5b60405162461bcd60e51b815260206004820152601360248201527227b7363c9031b932b234ba1037b33334b1b2b960691b6044820152606490fd5b61182f915060203d60201161039d5761038f8183612698565b88611335565b3461021f57604036600319011261021f5761184e6125de565b6118566125f4565b9060018060a01b031690815f52600b60205260405f2060018060a01b0382165f5260205260405f2054905f925f52600960205260405f206040519081602082549182815201915f5260205f20905f5b81811061193157505050816118bb910382612698565b6001600160a01b03909116905f5b8151811015611921576118dc8183612900565b515f90815260086020526040902060028101546001600160a01b03168414611908575b506001016118c9565b60019195600961191a9201549061278b565b94906118ff565b6040848682519182526020820152f35b82548452602090930192600192830192016118a5565b3461021f575f36600319011261021f57604051630935e01b60e21b81523360048201526020816024817f00000000000000000000000000000000000000000000000000000000000000006001600160a01b03165afa80156103a4576119b2915f91610f0057506126d2565b60ff19600154166001557fa45f47fdea8a1efdd9029a5691c7f759c32b7c698632b563573e155625d169335f80a1005b3461021f575f36600319011261021f5760405180602060145491828152019060145f527fce6d7b5282bd9a3661ae061feed1dbda4e52ab073b1f9285be6e155d9c38d4ec905f5b818110611a4057610b8b85610b7f81870382612698565b82546001600160a01b0316845260209093019260019283019201611a29565b3461021f57602036600319011261021f57611a786125de565b611a8760ff600154161561270b565b335f526018602052611aa060ff60405f20541615612749565b335f526017602052611ab860ff60405f2054166127a5565b611ac66001600254146127e8565b60028055335f52600f60205260405f2060018060a01b0382165f5260205260405f2054908115611bf157335f52600f60205260405f2060018060a01b0382165f526020525f604081205560018060a01b031690815f52601060205260405f20611b30828254612798565b905560405163a9059cbb60e01b60208201908152336024830152604482018390525f91829190611b6d81606481015b03601f198101835282612698565b519082865af1611b7b612880565b5015611bb4576040519081527fe41d4507cbbbdb09ef0e174837ee2221bf96ffed36cf60f1d4b73c6fca8b395760203392a36001600255005b60405162461bcd60e51b8152602060048201526015602482015274151bdad95b881d1c985b9cd9995c8819985a5b1959605a1b6044820152606490fd5b60405162461bcd60e51b81526020600482015260146024820152734e6f2066756e647320746f20776974686472617760601b6044820152606490fd5b3461021f57604036600319011261021f57600435602435611c526001600254146127e8565b60028055815f52600860205260405f20600a81019060ff82541615611f355760018101546001600160a01b03163303611f0157611c908315156128bf565b6005810190815415611ebc576002810180546040516323b872dd60e01b815233600482015230602482015260448101879052929190602090849060649082905f906001600160a01b03165af19283156103a457600993611e9f575b50546001600160a01b03165f908152600e602052604090208054611d1090879061278b565b9055611d1d858454612798565b80935501611d2c84825461278b565b905515611d72575b7fa4513463869a9bb2a04ca9d0887721a32388ebe4ade85f8743261b3214b6d65b606084846040519182523360208301526040820152a16001600255005b805460ff191690555f828152600a6020908152604080832054338452600990925290912080545f198101908111611e8b57611dac91612927565b90549060031b1c335f52600960205280611dcc6115338460405f20612927565b90555f52600a60205260405f2055335f52600960205260405f20918254918215611e77577fa4513463869a9bb2a04ca9d0887721a32388ebe4ade85f8743261b3214b6d65b936060935f190190611e238282612927565b8154905f199060031b1b1916905555815f52600a6020525f60408120557f27810a468d84d73b8240e706dd0a124a8ce3778bc6ebb13d643a61efcd26f1f060408051848152336020820152a1915091611d34565b634e487b7160e01b5f52603160045260245ffd5b634e487b7160e01b5f52601160045260245ffd5b611eb79060203d60201161039d5761038f8183612698565b611ceb565b60405162461bcd60e51b815260206004820152601760248201527f4f75747374616e64696e67206d757374206265203e20300000000000000000006044820152606490fd5b60405162461bcd60e51b815260206004820152600c60248201526b2737ba103137b93937bbb2b960a11b6044820152606490fd5b60405162461bcd60e51b815260206004820152600e60248201526d131bd85b881a5cc818db1bdcd95960921b6044820152606490fd5b3461021f575f36600319011261021f576020600554604051908152f35b3461021f57604036600319011261021f57611fa16125de565b60243590611fb460ff600154161561270b565b335f526018602052611fcd60ff60405f20541615612749565b335f526017602052611fe560ff60405f2054166127a5565b611ff36001600254146127e8565b60028055335f52600b60205260405f2060018060a01b0382165f526020526120218260405f20541015612834565b61202a33612a44565b61217057335f52600b60205260405f2060018060a01b0382165f5260205260405f20612057838254612798565b9055335f52600c60205260405f2060018060a01b0382165f526020528160405f20541015612102575b60405163a9059cbb60e01b60208201908152336024830152604482018490526001600160a01b039290921692915f918291906120bf8160648101611b5f565b519082865af1506120ce612880565b506040519081527f9b1bfa7fa9ee420a16e124f794c35ac9f90472acc99140eb2f6447c714cad8eb60203392a36001600255005b335f52600c60205260405f2060018060a01b0382165f5260205260405f2061212b838254612798565b90556001600160a01b0381165f818152600d602052604090208054612151908590612798565b90555f52600e60205260405f20612169838254612798565b9055612080565b60405162461bcd60e51b81526020600482015260146024820152733430b99037baba39ba30b73234b733903637b0b760611b6044820152606490fd5b3461021f57602036600319011261021f576121c56125de565b6121d460ff600154161561270b565b335f5260186020526121ed60ff60405f20541615612749565b604051630935e01b60e21b81523360048201526020816024817f00000000000000000000000000000000000000000000000000000000000000006001600160a01b03165afa80156103a457612248915f9161235c57506126d2565b612252813361297c565b90811561232157335f52601260205260405f2060018060a01b0382165f5260205260405f2061228283825461278b565b905560018060a01b031690815f52600e60205260405f206122a4828254612798565b905560405163a9059cbb60e01b8152336004820152602481018290526020816044815f875af180156103a457612304575b506040519081527f5e110f8bc8a20b65dcc87f224bdf1cc039346e267118bae2739847f07321ffa860203392a3005b61231c9060203d60201161039d5761038f8183612698565b6122d5565b60405162461bcd60e51b81526020600482015260136024820152724e6f206665657320746f20776974686472617760681b6044820152606490fd5b612375915060203d60201161039d5761038f8183612698565b836102e9565b3461021f57602036600319011261021f576001600160a01b0361239c6125de565b165f52600e602052602060405f2054604051908152f35b3461021f576123c13661260a565b604051630935e01b60e21b815233600482015290916020826024817f00000000000000000000000000000000000000000000000000000000000000006001600160a01b03165afa9081156103a4576124436020927fcf3473b85df1594d47b6958f29a32bea0abff9dd68296f7bf33443646793cfd8945f9161127057506126d2565b6001600160a01b03165f8181526018835260409020805460ff191660ff8615151617905592611265565b3461021f575f36600319011261021f576040517f00000000000000000000000000000000000000000000000000000000000000006001600160a01b03168152602090f35b3461021f575f36600319011261021f576020600354604051908152f35b3461021f57602036600319011261021f57604051630935e01b60e21b815233600482810191909152356020826024817f00000000000000000000000000000000000000000000000000000000000000006001600160a01b03165afa9081156103a4576125646020927f5661349add19ce6ce658acfc3c3a1f859d293bf58ca7c46070a2c2a404e3d05a945f9161257157506126d2565b80600755604051908152a1005b6125889150843d861161039d5761038f8183612698565b856102e9565b3461021f57604036600319011261021f576125a76125de565b6125af6125f4565b6001600160a01b039182165f908152600c60209081526040808320949093168252928352819020549051908152f35b600435906001600160a01b038216820361021f57565b602435906001600160a01b038216820361021f57565b604090600319011261021f576004356001600160a01b038116810361021f5790602435801515810361021f5790565b60206040818301928281528451809452019201905f5b81811061265c5750505090565b82516001600160a01b031684526020938401939092019160010161264f565b610180810190811067ffffffffffffffff821117610af057604052565b90601f8019910116810190811067ffffffffffffffff821117610af057604052565b9081602091031261021f5751801515810361021f5790565b156126d957565b60405162461bcd60e51b815260206004820152600a60248201526927b7363c9030b236b4b760b11b6044820152606490fd5b1561271257565b60405162461bcd60e51b815260206004820152600f60248201526e10dbdb9d1c9858dd081c185d5cd959608a1b6044820152606490fd5b1561275057565b60405162461bcd60e51b8152602060048201526013602482015272155cd95c881a5cc8189b1858dadb1a5cdd1959606a1b6044820152606490fd5b91908201809211611e8b57565b91908203918211611e8b57565b156127ac57565b60405162461bcd60e51b8152602060048201526014602482015273155cd95c881b9bdd081dda1a5d195b1a5cdd195960621b6044820152606490fd5b156127ef57565b60405162461bcd60e51b815260206004820152601f60248201527f5265656e7472616e637947756172643a207265656e7472616e742063616c6c006044820152606490fd5b1561283b57565b60405162461bcd60e51b815260206004820152601a60248201527f496e73756666696369656e74207661756c742062616c616e63650000000000006044820152606490fd5b3d156128ba573d9067ffffffffffffffff8211610af057604051916128af601f8201601f191660200184612698565b82523d5f602084013e565b606090565b156128c657565b60405162461bcd60e51b81526020600482015260126024820152710416d6f756e74206d757374206265203e20360741b6044820152606490fd5b8051821015610da15760209160051b010190565b81810292918115918404141715611e8b57565b8054821015610da1575f5260205f2001905f90565b1561294357565b60405162461bcd60e51b81526020600482015260116024820152701c195c9b5a5cdcda5bdb8819195b9a5959607a1b6044820152606490fd5b60018060a01b031690815f52600c60205260405f2060018060a01b0382165f5260205260405f20548015612a25576001600160a01b0382165f90815260116020526040902054620f4240916129d19190612914565b0490825f52601260205260405f2060018060a01b0382165f5260205260405f205482115f14612a2557612a22925f52601260205260405f209060018060a01b03165f5260205260405f205490612798565b90565b5050505f90565b67ffffffffffffffff8111610af05760051b60200190565b6001600160a01b03165f908152600960205260408120805491929190835b828110612a6e57505050565b612a788183612927565b90549060031b1c5f52600860205260405f2060ff600a82015416612aa0575b50600101612a62565b600191956005612ab29201549061278b565b9490612a9756fea2646970667358221220cc3e28b401d03c5311f2ff1e0734db9f3c543d2ce7e9131df344adfa4540c92764736f6c634300081e0033",
  "source": "// SPDX-License-Identifier: MIT\r\npragma solidity ^0.8.23;\r\n\r\ninterface ITRC20 {\r\n    function transfer(address to, uint256 amount) external returns (bool);\r\n    function transferFrom(address from, address to, uint256 amount) external returns (bool);\r\n    function balanceOf(address account) external view returns (uint256);\r\n    function approve(address spender, uint256 amount) external returns (bool);\r\n    function allowance(address owner, address spender) external view returns (uint256);\r\n}\r\n\r\ninterface IAccessControlModule {\r\n    function isAdmin(address account) external view returns (bool);\r\n    function isCreditOfficer(address account) external view returns (bool);\r\n}\r\n\r\n\r\ncontract VaultLendingV3 {\r\n\r\n    struct Loan {\r\n        bytes32 ref;\r\n        address borrower;\r\n        address token;\r\n        address merchant;\r\n        uint256 principal;\r\n        uint256 outstanding;     // principal + remaining fee\r\n        uint256 startedAt;\r\n        uint256 installmentsPaid;\r\n        uint256 fee;             // remaining fee\r\n        uint256 totalPaid;       // total repaid (principal + fee)\r\n        bool active;\r\n        bool disbursed;\r\n    }\r\n\r\n     // ====== Timelock ======\r\n    struct Timelock {\r\n        uint256 amount;\r\n        address token;      // address(0) for ETH\r\n        address to;\r\n        uint256 unlockTime;\r\n        bool executed;\r\n    }\r\n\r\n\r\n    uint256 private nextLoanId = 1;\r\n    IAccessControlModule public immutable accessControl;\r\n    bool public paused;\r\n    uint256 private _locked;\r\n    uint256 private _platformFee;\r\n    uint256 private _lenderFee;\r\n\r\n    // Percentage rates use 1e6 = 100% (e.g. 2.5% = 25_000)\r\n    uint256 private _platformFeeRate;           // e.g. 20_000 = 2%\r\n    uint256 private _lenderFeeRate;             // e.g. 10_000 = 1%\r\n    uint256 private _depositContributionPercent; // e.g. 100_000 = 10%\r\n\r\n\r\n    // Loan tracking\r\n    mapping(bytes32 => Loan) public loans;\r\n    mapping(address => bytes32[]) private borrowerLoans;\r\n    mapping(bytes32 => uint256) private loanIndex;\r\n\r\n    // Vault & pool tracking\r\n    mapping(address => mapping(address => uint256)) public vault;            // vault[user][token]\r\n    mapping(address => mapping(address => uint256)) public lenderContribution; // lender[token]\r\n    mapping(address => uint256) public totalPoolContribution;               // total principal per token\r\n    mapping(address => uint256) public pool; \r\n    mapping(address => mapping(address => uint256)) public merchantFund; \r\n    mapping(address => uint256) private totalMerchantFund;\r\n    \r\n                                  // total liquidity including fees\r\n\r\n    // Fee tracking (optimized)\r\n    mapping(address => uint256) public cumulativeFeePerToken;               // accumulated fee per 1 token deposited\r\n    mapping(address => mapping(address => uint256)) public feeDebt;         // lender[token] = claimed portion\r\n    uint256 constant FEE_PRECISION = 1e6;\r\n\r\n    // Borrower & lender tracking\r\n    mapping(address => bool) private isBorrower;\r\n    address[] private borrowers;\r\n\r\n    mapping(address => bool) private isLender;\r\n    address[] private lenders;\r\n\r\n    // Events\r\n    event Deposit(address indexed user, address indexed token, uint256 amount);\r\n    event Withdraw(address indexed user, address indexed token, uint256 amount);\r\n    \r\n    event LoanCreated(bytes32 ref, address borrower, uint256 principal, uint256 fee, \r\n    uint256 depositAmount, uint256 lenderFundDeducted, uint256 merchantSettledFund);\r\n\r\n    event LoanDisbursed(bytes32 loanId, address borrower, uint256 amount);\r\n    event LoanRepaid(bytes32 ref, address borrower, uint256 amount);\r\n    event LoanClosed(bytes32 loanId, address borrower);\r\n    event FeesWithdrawn(address indexed lender, address indexed token, uint256 amount);\r\n\r\n    event Paused();\r\n    event Unpaused();\r\n    event Whitelisted(address indexed user, bool status);\r\n    event Blacklisted(address indexed user, bool status);\r\n    event FeeRateChanged(uint256 platformFeeRate, uint256 lenderFeeRate);\r\n    event DepositContributionChanged(uint256 depositContributionPercent);\r\n    event MerchantWithdrawn(address indexed merchant, address indexed token, uint256 amount);\r\n  \r\n    event TimelockCreated(bytes32 indexed id, address token, address to, uint256 amount, uint256 unlockTime);\r\n    event TimelockExecuted(bytes32 indexed id);\r\n\r\n    mapping(address => bool) public whitelist;\r\n    mapping(address => bool) public blacklist;\r\n       //  Reentrancy guard per loan\r\n    mapping(bytes32 => bool) private _loanLock;\r\n    \r\n\r\n\r\n    constructor(address _accessControl) {\r\n        require(_accessControl != address(0), \"Invalid access control\");\r\n        accessControl = IAccessControlModule(_accessControl);\r\n        _locked = 1;\r\n    }\r\n\r\n    // ====== Reentrancy Guard ======\r\n    modifier nonReentrant() {\r\n        require(_locked == 1, \"ReentrancyGuard: reentrant call\");\r\n        _locked = 2;\r\n        _;\r\n        _locked = 1;\r\n    }\r\n\r\n    // ====== Modifiers ======\r\n    modifier onlyAdmin() {\r\n        require(accessControl.isAdmin(msg.sender), \"Only admin\");\r\n        _;\r\n    }\r\n\r\n    modifier onlyCreditOfficer() {\r\n        require(accessControl.isCreditOfficer(msg.sender), \"Only credit officer\");\r\n        _;\r\n    }\r\n\r\n    modifier onlyWhitelisted(address user) {\r\n        require(whitelist[user], \"User not whitelisted\");\r\n        _;\r\n    }\r\n\r\n    modifier notBlacklisted(address user) {\r\n        require(!blacklist[user], \"User is blacklisted\");\r\n        _;\r\n    }\r\n\r\n    modifier loanExists(bytes32 ref) {\r\n        require(loans[ref].borrower != address(0), \"Loan does not exist\");\r\n        _;\r\n    }\r\n\r\n    modifier whenNotPaused() {\r\n        require(!paused, \"Contract paused\");\r\n        _;\r\n    }\r\n\r\n    modifier nonReentrantLoan(bytes32 ref) {\r\n        require(!_loanLock[ref], \"ReentrancyGuard: loan locked\");\r\n        _loanLock[ref] = true;\r\n        _;\r\n        _loanLock[ref] = false;\r\n    }\r\n\r\n    modifier onlyActiveLoan(bytes32 ref) {\r\n        require(loans[ref].active, \"Loan not active\");\r\n        _;\r\n    }\r\n\r\n    modifier onlyAuthorized() {\r\n        \r\n         require( accessControl.isAdmin(msg.sender) || accessControl.isCreditOfficer(msg.sender)\r\n        , \"permission denied\");\r\n        \r\n         _;\r\n    }\r\n\r\n    // ====== Admin: Whitelist / Blacklist ======\r\n    function setWhitelist(address user, bool status) external onlyAdmin {\r\n        whitelist[user] = status;\r\n        emit Whitelisted(user, status);\r\n    }\r\n\r\n    function setBlacklist(address user, bool status) external onlyAdmin {\r\n        blacklist[user] = status;\r\n        emit Blacklisted(user, status);\r\n    }\r\n\r\n    // ====== Admin: Pause / Unpause ======\r\n    function pause() external onlyAdmin {\r\n        paused = true;\r\n        emit Paused();\r\n    }\r\n\r\n    function unpause() external onlyAdmin {\r\n        paused = false;\r\n        emit Unpaused();\r\n    }\r\n\r\n    function setFeeRate(uint256 platformFeeRate, uint256 lenderFeeRate) external onlyAdmin {\r\n        require(platformFeeRate + lenderFeeRate <= 1e6, \"Invalid fee setup\");\r\n        _platformFeeRate = platformFeeRate;\r\n        _lenderFeeRate = lenderFeeRate;\r\n        emit FeeRateChanged(platformFeeRate, lenderFeeRate);\r\n    }\r\n\r\n    function setDepositContributionPercent(uint256 depositContributionPercent) external onlyAdmin {\r\n        _depositContributionPercent = depositContributionPercent;\r\n        emit DepositContributionChanged(depositContributionPercent);\r\n    }\r\n\r\n    /* ========== VAULT FUNCTIONS ========== */\r\n\r\n    function depositToVault(address token, uint256 amount) external {\r\n        require(amount > 0, \"Amount must be > 0\");\r\n        ITRC20(token).transferFrom(msg.sender, address(this), amount);\r\n\r\n        // Update lender fee debt before increasing contribution\r\n        //feeDebt[msg.sender][token] += (amount * cumulativeFeePerToken[token]) / FEE_PRECISION;\r\n\r\n        vault[msg.sender][token] += amount;\r\n        lenderContribution[msg.sender][token] += amount;\r\n        totalPoolContribution[token] += amount;\r\n        pool[token] += amount;\r\n\r\n        if (!isLender[msg.sender]) {\r\n            lenders.push(msg.sender);\r\n            isLender[msg.sender] = true;\r\n        }\r\n\r\n        emit Deposit(msg.sender, token, amount);\r\n    }\r\n\r\n    //\r\n\r\n    function withdrawFromVault(address token, uint256 amount) external\r\n    whenNotPaused notBlacklisted(msg.sender) onlyWhitelisted(msg.sender) nonReentrant \r\n      {\r\n        require(vault[msg.sender][token] >= amount, \"Insufficient vault balance\");\r\n        require(_getTotalOutstanding(msg.sender) == 0, \"has outstanding loan\" );\r\n\r\n        // Update lender contribution and pool\r\n        vault[msg.sender][token] -= amount;\r\n        if (lenderContribution[msg.sender][token] >= amount) {\r\n            lenderContribution[msg.sender][token] -= amount;\r\n            totalPoolContribution[token] -= amount;\r\n            pool[token] -= amount;\r\n        }\r\n\r\n         ITRC20 tokenA = ITRC20(token);\r\n        //IERC20(token).transfer(msg.sender, amount);\r\n        // Safe transfer with inline revert check\r\n           (bool success, bytes memory data) = address(tokenA).call(\r\n                abi.encodeWithSelector(tokenA.transfer.selector, msg.sender, amount)\r\n            );\r\n\r\n        //_safeTransfer(tokenA, msg.sender, amount);\r\n\r\n        emit Withdraw(msg.sender, token, amount);\r\n    }\r\n\r\n    function _safeTransfer(ITRC20 token, address to, uint256 value) internal {\r\n        (bool success, bytes memory data) =\r\n            address(token).call(abi.encodeWithSelector(token.transfer.selector, to, value));\r\n        require(success && (data.length == 0 || abi.decode(data, (bool))), \"SafeTransfer: failed\");\r\n    }\r\n\r\n    function _safeTransferFrom(ITRC20 token, address from, address to, uint256 value) internal {\r\n        (bool success, bytes memory data) =\r\n            address(token).call(abi.encodeWithSelector(token.transferFrom.selector, from, to, value));\r\n        require(success && (data.length == 0 || abi.decode(data, (bool))), \"SafeTransferFrom: failed\");\r\n    }\r\n\r\n    /* ========== LOAN FUNCTIONS ========== */\r\n\r\n    function createLoan(bytes32 ref,address token, address merchant, uint256 principal,\r\n     uint256 fee, uint256 depositAmount, address borrower)\r\n     external onlyCreditOfficer {\r\n        require(pool[token] >= principal, \"Insufficient pool liquidity\");\r\n        require(whitelist[borrower], \"Borrower not whitelisted\");\r\n        require(whitelist[merchant], \"Merchant not whitelisted\");\r\n        require(vault[borrower][token] >= depositAmount, \"Insufficient vault balance\");\r\n        require(merchant != address(0), \"Invalid merchant\");\r\n\r\n         // ---- Calculate components ----\r\n        uint256 platformFee = (principal * _platformFeeRate) / 1e6;\r\n        uint256 lenderFee = (principal * _lenderFeeRate) / 1e6;\r\n        uint256 depositRequired = (principal * _depositContributionPercent) / 1e6;\r\n        require(depositAmount >= depositRequired, \"Deposit too low\");\r\n\r\n        uint256 lenderFundDeducted = principal - depositRequired;\r\n        uint256 merchantSettledFund = principal - platformFee - lenderFee;\r\n\r\n        // ---- Update storage ----\r\n        _platformFee += platformFee;\r\n        _lenderFee += lenderFee;\r\n        merchantFund[merchant][token] += merchantSettledFund;\r\n        totalMerchantFund[token] += merchantSettledFund;\r\n\r\n        Loan storage l = loans[ref];\r\n        l.ref = ref;\r\n        l.borrower = borrower;\r\n        l.token = token;\r\n        l.merchant = merchant;\r\n        l.principal = principal;\r\n        l.outstanding = principal - depositAmount ;\r\n        l.startedAt = block.timestamp;\r\n        l.installmentsPaid = 0;\r\n        l.fee = fee;\r\n        l.totalPaid = depositAmount;\r\n        l.active = true;\r\n        l.disbursed = false;\r\n\r\n\r\n        // Track borrower\r\n        loanIndex[ref] = borrowerLoans[borrower].length;\r\n        borrowerLoans[borrower].push(ref);\r\n        if (!isBorrower[borrower]) {\r\n            borrowers.push(borrower);\r\n            isBorrower[borrower] = true;\r\n        }\r\n\r\n        // Disburse principal to borrower vault\r\n        pool[token] -= principal;\r\n        //vault[msg.sender][token] += principal;\r\n        vault[borrower][token] -= depositAmount;\r\n        lenderContribution[borrower][token] -= depositAmount;\r\n        \r\n        //totalPoolContribution[token] -= depositAmount\r\n\r\n       emit LoanCreated(ref, borrower, principal, fee,depositAmount,lenderFundDeducted,merchantSettledFund);\r\n      \r\n    }\r\n\r\n    function withdrawMerchantFund(address token) external \r\n    whenNotPaused notBlacklisted(msg.sender) onlyWhitelisted(msg.sender) nonReentrant  {\r\n        address merchant = msg.sender;\r\n        uint256 available = merchantFund[merchant][token];\r\n        require(available > 0, \"No funds to withdraw\");\r\n\r\n        // Reset balance BEFORE external call (prevents reentrancy)\r\n        merchantFund[merchant][token] = 0;\r\n        totalMerchantFund[token] -= available;\r\n\r\n        // Execute safe TRC20 transfer\r\n        ITRC20 tokenA = ITRC20(token);\r\n         (bool success, bytes memory data) = address(tokenA).call(\r\n                abi.encodeWithSelector(tokenA.transfer.selector, merchant, available)\r\n         );\r\n        //bool success = ITRC20(token).transfer(merchant, available);\r\n        require(success, \"Token transfer failed\");\r\n\r\n        emit MerchantWithdrawn(merchant, token, available);\r\n    }\r\n\r\n    function repayLoan(bytes32 ref, uint256 amount) external nonReentrant  {\r\n        Loan storage loan = loans[ref];\r\n        require(loan.active, \"Loan is closed\");\r\n        require(loan.borrower == msg.sender, \"Not borrower\");\r\n        require(amount > 0, \"Amount must be > 0\");\r\n        require(loan.outstanding > 0, \"Outstanding must be > 0\");\r\n\r\n        uint256 remaining = amount;\r\n\r\n        ITRC20(loan.token).transferFrom(msg.sender, address(this), remaining);\r\n        pool[loan.token] += remaining;\r\n        loan.outstanding -= amount;\r\n        loan.totalPaid += amount;\r\n\r\n        if (loan.outstanding == 0) {\r\n            loan.active = false;\r\n            _removeLoanFromBorrower(msg.sender, ref);\r\n            emit LoanClosed(ref, msg.sender);\r\n        }\r\n\r\n        emit LoanRepaid(ref, msg.sender, amount);\r\n    }\r\n\r\n    /*function _addFeeToPool(address token, uint256 feeAmount) internal {\r\n        if (totalPoolContribution[token] == 0) return;\r\n        cumulativeFeePerToken[token] += (feeAmount * FEE_PRECISION) / totalPoolContribution[token];\r\n        pool[token] += feeAmount;\r\n    }*/\r\n\r\n    function _removeLoanFromBorrower(address borrower, bytes32 ref) internal {\r\n        uint256 index = loanIndex[ref];\r\n        bytes32 lastRef = borrowerLoans[borrower][borrowerLoans[borrower].length - 1];\r\n\r\n        // Replace the removed ref with the last one\r\n        borrowerLoans[borrower][index] = lastRef;\r\n        loanIndex[lastRef] = index;\r\n\r\n        // Remove last element and delete index mapping\r\n        borrowerLoans[borrower].pop();\r\n        delete loanIndex[ref];\r\n    }\r\n\r\n    /* ========== FEE WITHDRAWAL ========== */\r\n\r\n    function getWithdrawableFees(address lender, address token) public view returns (uint256) {\r\n        uint256 contribution = lenderContribution[lender][token];\r\n        if (contribution == 0) return 0;\r\n\r\n        uint256 accumulatedFee = (contribution * cumulativeFeePerToken[token]) / FEE_PRECISION;\r\n        uint256 withdrawable = accumulatedFee > feeDebt[lender][token] ? accumulatedFee - feeDebt[lender][token] : 0;\r\n        return withdrawable;\r\n    }\r\n\r\n    function withdrawFees(address token) external \r\n    whenNotPaused notBlacklisted(msg.sender) onlyAdmin {\r\n        uint256 amount = getWithdrawableFees(msg.sender, token);\r\n        require(amount > 0, \"No fees to withdraw\");\r\n\r\n        feeDebt[msg.sender][token] += amount;\r\n        pool[token] -= amount;\r\n\r\n        ITRC20(token).transfer(msg.sender, amount);\r\n        emit FeesWithdrawn(msg.sender, token, amount);\r\n    }\r\n\r\n    /* ========== VIEW FUNCTIONS ========== */\r\n\r\n    function getBorrowerStats(address borrower, address token) \r\n        external \r\n        view \r\n        returns (uint256 vaultBalance, uint256 totalPaidToPool) \r\n    {\r\n        vaultBalance = vault[borrower][token];\r\n        totalPaidToPool = 0;\r\n\r\n        bytes32[] memory refs = borrowerLoans[borrower];\r\n        for (uint256 i = 0; i < refs.length; i++) {\r\n            Loan storage loan = loans[refs[i]];\r\n            if (loan.token == token) {\r\n                totalPaidToPool += loan.totalPaid;\r\n            }\r\n        }\r\n    }\r\n\r\n    function getLenderStats(address lender, address token) \r\n        external \r\n        view \r\n        returns (\r\n            uint256 deposit,\r\n            uint256 poolShare,\r\n            uint256 totalFeesEarned,\r\n            uint256 feesClaimed\r\n        ) \r\n    {\r\n        deposit = vault[lender][token];\r\n        feesClaimed = feeDebt[lender][token];\r\n\r\n        uint256 contribution = lenderContribution[lender][token];\r\n        uint256 totalAccumulatedFee = (contribution * cumulativeFeePerToken[token]) / FEE_PRECISION;\r\n        totalFeesEarned = totalAccumulatedFee;\r\n        poolShare = deposit + (totalFeesEarned - feesClaimed);\r\n    }\r\n\r\n    function getProtocolStats(address token) \r\n        external \r\n        view \r\n        returns (\r\n            uint256 numLenders,\r\n            uint256 numBorrowers,\r\n            uint256 totalLenderDeposits,\r\n            uint256 totalBorrowed,\r\n            uint256 totalOutstanding,\r\n            uint256 totalPaid\r\n        ) \r\n    {\r\n        numLenders = lenders.length;\r\n        totalLenderDeposits = 0;\r\n        for (uint256 i = 0; i < lenders.length; i++) {\r\n            totalLenderDeposits += vault[lenders[i]][token];\r\n        }\r\n\r\n        numBorrowers = borrowers.length;\r\n        totalBorrowed = 0;\r\n        totalOutstanding = 0;\r\n        totalPaid = 0;\r\n        for (uint256 i = 0; i < borrowers.length; i++) {\r\n            bytes32[] memory ids = borrowerLoans[borrowers[i]];\r\n            for (uint256 j = 0; j < ids.length; j++) {\r\n                Loan storage loan = loans[ids[j]];\r\n                if (loan.token == token) {\r\n                    totalBorrowed += loan.principal;\r\n                    totalOutstanding += loan.outstanding;\r\n                    totalPaid += loan.totalPaid;\r\n                }\r\n            }\r\n        }\r\n    }\r\n\r\n    function getAllBorrowers() external view returns (address[] memory) {\r\n        return borrowers;\r\n    }\r\n\r\n    function getAllLenders() external view returns (address[] memory) {\r\n        return lenders;\r\n    }\r\n\r\n\r\n        //  INTERNAL function  reusable inside contract\r\n        function _getTotalOutstanding(address borrower) internal view returns (uint256 totalOutstanding) {\r\n            bytes32[] storage ids = borrowerLoans[borrower];\r\n            uint256 len = ids.length;\r\n\r\n            for (uint256 i = 0; i < len; i++) {\r\n                Loan storage l = loans[ids[i]];\r\n                if (l.active) {\r\n                    totalOutstanding += l.outstanding;\r\n                }\r\n            }\r\n        }\r\n\r\n        //  EXTERNAL function  exposed to other contracts or frontends\r\n        function getTotalOutstanding(address borrower) external view returns (uint256) {\r\n            return _getTotalOutstanding(borrower);\r\n        }\r\n\r\n   \r\n    function getLoans(address borrower, uint256 offset, uint256 limit) \r\n        external view returns (Loan[] memory result, uint256 totalLoans, uint256 nextOffset)\r\n    {\r\n        bytes32[] storage ids = borrowerLoans[borrower];\r\n        totalLoans = ids.length;\r\n\r\n        if (offset >= totalLoans) {\r\n            // Return empty result if offset is out of bounds\r\n           // return ; // (new Loan()[0] , totalLoans, totalLoans);\r\n        }\r\n\r\n        uint256 end = offset + limit;\r\n        if (end > totalLoans) {\r\n            end = totalLoans;\r\n        }\r\n\r\n        uint256 length = end - offset;\r\n        result = new Loan[](length);\r\n\r\n        for (uint256 i = 0; i < length; i++) {\r\n            result[i] = loans[ids[offset + i]];\r\n        }\r\n\r\n        nextOffset = end;\r\n    }\r\n\r\n    // ====== Public Read Functions ======\r\n    function getPlatformFeeRate() external view returns (uint256) {\r\n        return _platformFeeRate;\r\n    }\r\n\r\n    function getLenderFeeRate() external view returns (uint256) {\r\n        return _lenderFeeRate;\r\n    }\r\n\r\n    function getDepositContributionPercent() external view returns (uint256) {\r\n        return _depositContributionPercent;\r\n    }\r\n\r\n    function getTotalPlatformFee() external view returns (uint256) {\r\n        return _platformFee;\r\n    }\r\n\r\n    function getTotalLenderFee() external view returns (uint256) {\r\n        return _lenderFee;\r\n    }\r\n\r\n    function getMerchantFund(address merchant, address token) external view onlyAuthorized() returns (uint256) {\r\n        return merchantFund[merchant][token];\r\n    }\r\n    function getTotalMerchantFund(address token) external view onlyAuthorized() returns (uint256)\r\n     { \r\n        return totalMerchantFund[token];\r\n     }\r\n\r\n     function getLoanData(bytes32 ref)\r\n        external\r\n        view\r\n        returns (\r\n            address borrower,\r\n            address merchant,\r\n            uint256 principal,\r\n            uint256 outstanding,\r\n            uint256 totalPaid\r\n        )\r\n    {\r\n        Loan storage l = loans[ref];\r\n        borrower = l.borrower;\r\n        merchant = l.merchant;\r\n        principal = l.principal;\r\n        outstanding = l.outstanding;\r\n        totalPaid = l.totalPaid;\r\n    }\r\n\r\n    function getVaultBalance(address borrower, address token) external view returns (uint256) {\r\n        return vault[borrower][token];\r\n    }\r\n\r\n    function isWhitelisted(address user) external view returns (bool) {\r\n        return whitelist[user];\r\n    }\r\n}\r\n",
  "sourcePath": "C:/workspace/tronbfpay/contracts/v4/VaultLendingV3.sol",
  "compiler": {
    "name": "solc",
    "version": "0.8.30+commit.73712a01.Emscripten.clang"
  },
  "schemaVersion": "2.0.1",
  "updatedAt": "2025-11-18T12:34:11.076Z"
}