{
  "contractName": "VaultLendingV4",
  "abi": [
    {
      "inputs": [
        {
          "internalType": "address",
          "name": "_accessControl",
          "type": "address"
        },
        {
          "internalType": "address",
          "name": "_depositToken",
          "type": "address"
        },
        {
          "internalType": "address",
          "name": "_platformTreasury",
          "type": "address"
        },
        {
          "internalType": "address",
          "name": "_attestationOracle",
          "type": "address"
        },
        {
          "internalType": "string",
          "name": "_name",
          "type": "string"
        },
        {
          "internalType": "string",
          "name": "_symbol",
          "type": "string"
        }
      ],
      "stateMutability": "nonpayable",
      "type": "constructor"
    },
    {
      "anonymous": false,
      "inputs": [
        {
          "indexed": true,
          "internalType": "address",
          "name": "user",
          "type": "address"
        },
        {
          "indexed": false,
          "internalType": "bool",
          "name": "status",
          "type": "bool"
        }
      ],
      "name": "Blacklisted",
      "type": "event"
    },
    {
      "anonymous": false,
      "inputs": [
        {
          "indexed": true,
          "internalType": "address",
          "name": "user",
          "type": "address"
        },
        {
          "indexed": false,
          "internalType": "uint256",
          "name": "amount",
          "type": "uint256"
        }
      ],
      "name": "Deposit",
      "type": "event"
    },
    {
      "anonymous": false,
      "inputs": [
        {
          "indexed": false,
          "internalType": "uint256",
          "name": "depositContributionPercent",
          "type": "uint256"
        }
      ],
      "name": "DepositContributionChanged",
      "type": "event"
    },
    {
      "anonymous": false,
      "inputs": [
        {
          "indexed": false,
          "internalType": "uint256",
          "name": "platformFeeRate",
          "type": "uint256"
        },
        {
          "indexed": false,
          "internalType": "uint256",
          "name": "lenderFeeRate",
          "type": "uint256"
        },
        {
          "indexed": false,
          "internalType": "uint256",
          "name": "reserveRateBP",
          "type": "uint256"
        }
      ],
      "name": "FeeRateChanged",
      "type": "event"
    },
    {
      "anonymous": false,
      "inputs": [
        {
          "indexed": true,
          "internalType": "address",
          "name": "lender",
          "type": "address"
        },
        {
          "indexed": true,
          "internalType": "address",
          "name": "token",
          "type": "address"
        },
        {
          "indexed": false,
          "internalType": "uint256",
          "name": "amount",
          "type": "uint256"
        }
      ],
      "name": "FeesWithdrawn",
      "type": "event"
    },
    {
      "anonymous": false,
      "inputs": [
        {
          "indexed": false,
          "internalType": "bytes32",
          "name": "loanId",
          "type": "bytes32"
        },
        {
          "indexed": false,
          "internalType": "address",
          "name": "borrower",
          "type": "address"
        }
      ],
      "name": "LoanClosed",
      "type": "event"
    },
    {
      "anonymous": false,
      "inputs": [
        {
          "indexed": false,
          "internalType": "bytes32",
          "name": "ref",
          "type": "bytes32"
        },
        {
          "indexed": false,
          "internalType": "address",
          "name": "borrower",
          "type": "address"
        },
        {
          "indexed": false,
          "internalType": "uint256",
          "name": "principal",
          "type": "uint256"
        },
        {
          "indexed": false,
          "internalType": "uint256",
          "name": "fee",
          "type": "uint256"
        },
        {
          "indexed": false,
          "internalType": "uint256",
          "name": "depositAmount",
          "type": "uint256"
        },
        {
          "indexed": false,
          "internalType": "uint256",
          "name": "lenderFundDeducted",
          "type": "uint256"
        },
        {
          "indexed": false,
          "internalType": "uint256",
          "name": "merchantSettledFund",
          "type": "uint256"
        }
      ],
      "name": "LoanCreated",
      "type": "event"
    },
    {
      "anonymous": false,
      "inputs": [
        {
          "indexed": true,
          "internalType": "bytes32",
          "name": "loanId",
          "type": "bytes32"
        },
        {
          "indexed": true,
          "internalType": "address",
          "name": "borrower",
          "type": "address"
        },
        {
          "indexed": true,
          "internalType": "uint256",
          "name": "outstanding",
          "type": "uint256"
        }
      ],
      "name": "LoanDefaulted",
      "type": "event"
    },
    {
      "anonymous": false,
      "inputs": [
        {
          "indexed": false,
          "internalType": "bytes32",
          "name": "loanId",
          "type": "bytes32"
        },
        {
          "indexed": false,
          "internalType": "address",
          "name": "borrower",
          "type": "address"
        },
        {
          "indexed": false,
          "internalType": "uint256",
          "name": "amount",
          "type": "uint256"
        }
      ],
      "name": "LoanDisbursed",
      "type": "event"
    },
    {
      "anonymous": false,
      "inputs": [
        {
          "indexed": false,
          "internalType": "bytes32",
          "name": "ref",
          "type": "bytes32"
        },
        {
          "indexed": false,
          "internalType": "address",
          "name": "borrower",
          "type": "address"
        },
        {
          "indexed": false,
          "internalType": "uint256",
          "name": "amount",
          "type": "uint256"
        }
      ],
      "name": "LoanRepaid",
      "type": "event"
    },
    {
      "anonymous": false,
      "inputs": [
        {
          "indexed": true,
          "internalType": "bytes32",
          "name": "loanId",
          "type": "bytes32"
        },
        {
          "indexed": true,
          "internalType": "uint256",
          "name": "lossCoveredByReserve",
          "type": "uint256"
        },
        {
          "indexed": true,
          "internalType": "uint256",
          "name": "lossToPool",
          "type": "uint256"
        }
      ],
      "name": "LoanWrittenOff",
      "type": "event"
    },
    {
      "anonymous": false,
      "inputs": [
        {
          "indexed": true,
          "internalType": "address",
          "name": "merchant",
          "type": "address"
        },
        {
          "indexed": true,
          "internalType": "address",
          "name": "token",
          "type": "address"
        },
        {
          "indexed": false,
          "internalType": "uint256",
          "name": "amount",
          "type": "uint256"
        }
      ],
      "name": "MerchantWithdrawn",
      "type": "event"
    },
    {
      "anonymous": false,
      "inputs": [],
      "name": "Paused",
      "type": "event"
    },
    {
      "anonymous": false,
      "inputs": [
        {
          "indexed": true,
          "internalType": "bytes32",
          "name": "id",
          "type": "bytes32"
        },
        {
          "indexed": false,
          "internalType": "address",
          "name": "token",
          "type": "address"
        },
        {
          "indexed": false,
          "internalType": "address",
          "name": "to",
          "type": "address"
        },
        {
          "indexed": false,
          "internalType": "uint256",
          "name": "amount",
          "type": "uint256"
        },
        {
          "indexed": false,
          "internalType": "uint256",
          "name": "unlockTime",
          "type": "uint256"
        }
      ],
      "name": "TimelockCreated",
      "type": "event"
    },
    {
      "anonymous": false,
      "inputs": [
        {
          "indexed": true,
          "internalType": "bytes32",
          "name": "id",
          "type": "bytes32"
        }
      ],
      "name": "TimelockExecuted",
      "type": "event"
    },
    {
      "anonymous": false,
      "inputs": [],
      "name": "Unpaused",
      "type": "event"
    },
    {
      "anonymous": false,
      "inputs": [
        {
          "indexed": true,
          "internalType": "address",
          "name": "user",
          "type": "address"
        },
        {
          "indexed": false,
          "internalType": "bool",
          "name": "status",
          "type": "bool"
        }
      ],
      "name": "Whitelisted",
      "type": "event"
    },
    {
      "anonymous": false,
      "inputs": [
        {
          "indexed": true,
          "internalType": "address",
          "name": "user",
          "type": "address"
        },
        {
          "indexed": true,
          "internalType": "address",
          "name": "token",
          "type": "address"
        },
        {
          "indexed": false,
          "internalType": "uint256",
          "name": "amount",
          "type": "uint256"
        }
      ],
      "name": "Withdraw",
      "type": "event"
    },
    {
      "inputs": [],
      "name": "BP_DIVISOR",
      "outputs": [
        {
          "internalType": "uint256",
          "name": "",
          "type": "uint256"
        }
      ],
      "stateMutability": "view",
      "type": "function"
    },
    {
      "inputs": [],
      "name": "DECIMAL_MULTIPLIER",
      "outputs": [
        {
          "internalType": "uint256",
          "name": "",
          "type": "uint256"
        }
      ],
      "stateMutability": "view",
      "type": "function"
    },
    {
      "inputs": [],
      "name": "FEE_BASE",
      "outputs": [
        {
          "internalType": "uint256",
          "name": "",
          "type": "uint256"
        }
      ],
      "stateMutability": "view",
      "type": "function"
    },
    {
      "inputs": [],
      "name": "accessControl",
      "outputs": [
        {
          "internalType": "contract IAccessControlModule",
          "name": "",
          "type": "address"
        }
      ],
      "stateMutability": "view",
      "type": "function"
    },
    {
      "inputs": [],
      "name": "attestationOracle",
      "outputs": [
        {
          "internalType": "contract IBNPLAttestationOracle",
          "name": "",
          "type": "address"
        }
      ],
      "stateMutability": "view",
      "type": "function"
    },
    {
      "inputs": [
        {
          "internalType": "address",
          "name": "",
          "type": "address"
        }
      ],
      "name": "balanceOf",
      "outputs": [
        {
          "internalType": "uint256",
          "name": "",
          "type": "uint256"
        }
      ],
      "stateMutability": "view",
      "type": "function"
    },
    {
      "inputs": [
        {
          "internalType": "address",
          "name": "",
          "type": "address"
        }
      ],
      "name": "blacklist",
      "outputs": [
        {
          "internalType": "bool",
          "name": "",
          "type": "bool"
        }
      ],
      "stateMutability": "view",
      "type": "function"
    },
    {
      "inputs": [
        {
          "internalType": "bytes32",
          "name": "ref",
          "type": "bytes32"
        },
        {
          "internalType": "address",
          "name": "merchant",
          "type": "address"
        },
        {
          "internalType": "uint256",
          "name": "principal",
          "type": "uint256"
        },
        {
          "internalType": "uint256",
          "name": "fee",
          "type": "uint256"
        },
        {
          "internalType": "uint256",
          "name": "depositAmount",
          "type": "uint256"
        },
        {
          "internalType": "address",
          "name": "borrower",
          "type": "address"
        },
        {
          "internalType": "uint256",
          "name": "maturitySeconds",
          "type": "uint256"
        }
      ],
      "name": "createLoan",
      "outputs": [],
      "stateMutability": "nonpayable",
      "type": "function"
    },
    {
      "inputs": [],
      "name": "decimals",
      "outputs": [
        {
          "internalType": "uint8",
          "name": "",
          "type": "uint8"
        }
      ],
      "stateMutability": "view",
      "type": "function"
    },
    {
      "inputs": [
        {
          "internalType": "uint256",
          "name": "amount",
          "type": "uint256"
        }
      ],
      "name": "deposit",
      "outputs": [
        {
          "internalType": "uint256",
          "name": "sharesMinted",
          "type": "uint256"
        }
      ],
      "stateMutability": "nonpayable",
      "type": "function"
    },
    {
      "inputs": [],
      "name": "depositToken",
      "outputs": [
        {
          "internalType": "contract ITRC20",
          "name": "",
          "type": "address"
        }
      ],
      "stateMutability": "view",
      "type": "function"
    },
    {
      "inputs": [],
      "name": "fetchDashboardView",
      "outputs": [
        {
          "internalType": "uint256",
          "name": "noOfLoans",
          "type": "uint256"
        },
        {
          "internalType": "uint256",
          "name": "poolBalance",
          "type": "uint256"
        },
        {
          "internalType": "uint256",
          "name": "totalPrincipal",
          "type": "uint256"
        },
        {
          "internalType": "uint256",
          "name": "poolCashTotal",
          "type": "uint256"
        },
        {
          "internalType": "uint256",
          "name": "totalPaidToMerchant",
          "type": "uint256"
        },
        {
          "internalType": "uint256",
          "name": "totalReserveBalance",
          "type": "uint256"
        },
        {
          "internalType": "uint256",
          "name": "totalPlatformFees",
          "type": "uint256"
        },
        {
          "internalType": "uint256",
          "name": "totalLenderFees",
          "type": "uint256"
        },
        {
          "internalType": "uint256",
          "name": "totalPastDue",
          "type": "uint256"
        }
      ],
      "stateMutability": "view",
      "type": "function"
    },
    {
      "inputs": [],
      "name": "fetchRateSettings",
      "outputs": [
        {
          "internalType": "uint256",
          "name": "lenderFeeRate",
          "type": "uint256"
        },
        {
          "internalType": "uint256",
          "name": "platformFeeRate",
          "type": "uint256"
        },
        {
          "internalType": "uint256",
          "name": "depositContributionRate",
          "type": "uint256"
        },
        {
          "internalType": "uint256",
          "name": "defaultBaseRate",
          "type": "uint256"
        }
      ],
      "stateMutability": "view",
      "type": "function"
    },
    {
      "inputs": [],
      "name": "getAllBorrowers",
      "outputs": [
        {
          "internalType": "address[]",
          "name": "",
          "type": "address[]"
        }
      ],
      "stateMutability": "view",
      "type": "function"
    },
    {
      "inputs": [],
      "name": "getAllLenders",
      "outputs": [
        {
          "internalType": "address[]",
          "name": "",
          "type": "address[]"
        }
      ],
      "stateMutability": "view",
      "type": "function"
    },
    {
      "inputs": [
        {
          "internalType": "address",
          "name": "borrower",
          "type": "address"
        },
        {
          "internalType": "address",
          "name": "token",
          "type": "address"
        }
      ],
      "name": "getBorrowerStats",
      "outputs": [
        {
          "internalType": "uint256",
          "name": "vaultBalance",
          "type": "uint256"
        },
        {
          "internalType": "uint256",
          "name": "totalPaidToPool",
          "type": "uint256"
        }
      ],
      "stateMutability": "view",
      "type": "function"
    },
    {
      "inputs": [],
      "name": "getDepositContributionPercent",
      "outputs": [
        {
          "internalType": "uint256",
          "name": "",
          "type": "uint256"
        }
      ],
      "stateMutability": "view",
      "type": "function"
    },
    {
      "inputs": [],
      "name": "getLenderFeeRate",
      "outputs": [
        {
          "internalType": "uint256",
          "name": "",
          "type": "uint256"
        }
      ],
      "stateMutability": "view",
      "type": "function"
    },
    {
      "inputs": [
        {
          "internalType": "bytes32",
          "name": "ref",
          "type": "bytes32"
        }
      ],
      "name": "getLoan",
      "outputs": [
        {
          "components": [
            {
              "internalType": "bytes32",
              "name": "ref",
              "type": "bytes32"
            },
            {
              "internalType": "address",
              "name": "borrower",
              "type": "address"
            },
            {
              "internalType": "address",
              "name": "token",
              "type": "address"
            },
            {
              "internalType": "address",
              "name": "merchant",
              "type": "address"
            },
            {
              "internalType": "uint256",
              "name": "principal",
              "type": "uint256"
            },
            {
              "internalType": "uint256",
              "name": "outstanding",
              "type": "uint256"
            },
            {
              "internalType": "uint256",
              "name": "startedAt",
              "type": "uint256"
            },
            {
              "internalType": "uint256",
              "name": "installmentsPaid",
              "type": "uint256"
            },
            {
              "internalType": "uint256",
              "name": "fee",
              "type": "uint256"
            },
            {
              "internalType": "uint256",
              "name": "totalPaid",
              "type": "uint256"
            },
            {
              "internalType": "bool",
              "name": "disbursed",
              "type": "bool"
            },
            {
              "internalType": "uint256",
              "name": "repaidFee",
              "type": "uint256"
            },
            {
              "internalType": "uint256",
              "name": "lastPaymentTs",
              "type": "uint256"
            },
            {
              "internalType": "uint256",
              "name": "maturityDate",
              "type": "uint256"
            },
            {
              "internalType": "enum VaultLendingV4.LoanStatus",
              "name": "status",
              "type": "uint8"
            }
          ],
          "internalType": "struct VaultLendingV4.Loan",
          "name": "",
          "type": "tuple"
        }
      ],
      "stateMutability": "view",
      "type": "function"
    },
    {
      "inputs": [
        {
          "internalType": "bytes32",
          "name": "ref",
          "type": "bytes32"
        }
      ],
      "name": "getLoanData",
      "outputs": [
        {
          "internalType": "address",
          "name": "borrower",
          "type": "address"
        },
        {
          "internalType": "address",
          "name": "merchant",
          "type": "address"
        },
        {
          "internalType": "uint256",
          "name": "principal",
          "type": "uint256"
        },
        {
          "internalType": "uint256",
          "name": "outstanding",
          "type": "uint256"
        },
        {
          "internalType": "uint256",
          "name": "totalPaid",
          "type": "uint256"
        },
        {
          "internalType": "uint256",
          "name": "maturityDate",
          "type": "uint256"
        },
        {
          "internalType": "string",
          "name": "status",
          "type": "string"
        }
      ],
      "stateMutability": "view",
      "type": "function"
    },
    {
      "inputs": [
        {
          "internalType": "address",
          "name": "borrower",
          "type": "address"
        },
        {
          "internalType": "uint256",
          "name": "offset",
          "type": "uint256"
        },
        {
          "internalType": "uint256",
          "name": "limit",
          "type": "uint256"
        }
      ],
      "name": "getLoans",
      "outputs": [
        {
          "components": [
            {
              "internalType": "bytes32",
              "name": "ref",
              "type": "bytes32"
            },
            {
              "internalType": "address",
              "name": "borrower",
              "type": "address"
            },
            {
              "internalType": "address",
              "name": "token",
              "type": "address"
            },
            {
              "internalType": "address",
              "name": "merchant",
              "type": "address"
            },
            {
              "internalType": "uint256",
              "name": "principal",
              "type": "uint256"
            },
            {
              "internalType": "uint256",
              "name": "outstanding",
              "type": "uint256"
            },
            {
              "internalType": "uint256",
              "name": "startedAt",
              "type": "uint256"
            },
            {
              "internalType": "uint256",
              "name": "installmentsPaid",
              "type": "uint256"
            },
            {
              "internalType": "uint256",
              "name": "fee",
              "type": "uint256"
            },
            {
              "internalType": "uint256",
              "name": "totalPaid",
              "type": "uint256"
            },
            {
              "internalType": "bool",
              "name": "disbursed",
              "type": "bool"
            },
            {
              "internalType": "uint256",
              "name": "repaidFee",
              "type": "uint256"
            },
            {
              "internalType": "uint256",
              "name": "lastPaymentTs",
              "type": "uint256"
            },
            {
              "internalType": "uint256",
              "name": "maturityDate",
              "type": "uint256"
            },
            {
              "internalType": "enum VaultLendingV4.LoanStatus",
              "name": "status",
              "type": "uint8"
            }
          ],
          "internalType": "struct VaultLendingV4.Loan[]",
          "name": "result",
          "type": "tuple[]"
        },
        {
          "internalType": "uint256",
          "name": "totalLoans",
          "type": "uint256"
        },
        {
          "internalType": "uint256",
          "name": "nextOffset",
          "type": "uint256"
        }
      ],
      "stateMutability": "view",
      "type": "function"
    },
    {
      "inputs": [
        {
          "internalType": "address",
          "name": "merchant",
          "type": "address"
        },
        {
          "internalType": "address",
          "name": "token",
          "type": "address"
        }
      ],
      "name": "getMerchantFund",
      "outputs": [
        {
          "internalType": "uint256",
          "name": "",
          "type": "uint256"
        }
      ],
      "stateMutability": "view",
      "type": "function"
    },
    {
      "inputs": [],
      "name": "getPlatformFeeRate",
      "outputs": [
        {
          "internalType": "uint256",
          "name": "",
          "type": "uint256"
        }
      ],
      "stateMutability": "view",
      "type": "function"
    },
    {
      "inputs": [
        {
          "internalType": "uint256",
          "name": "share",
          "type": "uint256"
        }
      ],
      "name": "getShareWorth",
      "outputs": [
        {
          "internalType": "uint256",
          "name": "amount",
          "type": "uint256"
        }
      ],
      "stateMutability": "view",
      "type": "function"
    },
    {
      "inputs": [],
      "name": "getTotalLenderFee",
      "outputs": [
        {
          "internalType": "uint256",
          "name": "",
          "type": "uint256"
        }
      ],
      "stateMutability": "view",
      "type": "function"
    },
    {
      "inputs": [
        {
          "internalType": "address",
          "name": "token",
          "type": "address"
        }
      ],
      "name": "getTotalMerchantFund",
      "outputs": [
        {
          "internalType": "uint256",
          "name": "",
          "type": "uint256"
        }
      ],
      "stateMutability": "view",
      "type": "function"
    },
    {
      "inputs": [
        {
          "internalType": "address",
          "name": "borrower",
          "type": "address"
        }
      ],
      "name": "getTotalOutstanding",
      "outputs": [
        {
          "internalType": "uint256",
          "name": "",
          "type": "uint256"
        }
      ],
      "stateMutability": "view",
      "type": "function"
    },
    {
      "inputs": [],
      "name": "getTotalPlatformFee",
      "outputs": [
        {
          "internalType": "uint256",
          "name": "",
          "type": "uint256"
        }
      ],
      "stateMutability": "view",
      "type": "function"
    },
    {
      "inputs": [],
      "name": "getTotalPrincipalOutstanding",
      "outputs": [
        {
          "internalType": "uint256",
          "name": "",
          "type": "uint256"
        }
      ],
      "stateMutability": "view",
      "type": "function"
    },
    {
      "inputs": [
        {
          "internalType": "address",
          "name": "borrower",
          "type": "address"
        },
        {
          "internalType": "address",
          "name": "token",
          "type": "address"
        }
      ],
      "name": "getVaultBalance",
      "outputs": [
        {
          "internalType": "uint256",
          "name": "",
          "type": "uint256"
        }
      ],
      "stateMutability": "view",
      "type": "function"
    },
    {
      "inputs": [
        {
          "internalType": "address",
          "name": "user",
          "type": "address"
        }
      ],
      "name": "isAdmin",
      "outputs": [
        {
          "internalType": "bool",
          "name": "",
          "type": "bool"
        }
      ],
      "stateMutability": "view",
      "type": "function"
    },
    {
      "inputs": [
        {
          "internalType": "address",
          "name": "user",
          "type": "address"
        }
      ],
      "name": "isCreditOfficer",
      "outputs": [
        {
          "internalType": "bool",
          "name": "",
          "type": "bool"
        }
      ],
      "stateMutability": "view",
      "type": "function"
    },
    {
      "inputs": [
        {
          "internalType": "address",
          "name": "user",
          "type": "address"
        }
      ],
      "name": "isWhitelisted",
      "outputs": [
        {
          "internalType": "bool",
          "name": "",
          "type": "bool"
        }
      ],
      "stateMutability": "view",
      "type": "function"
    },
    {
      "inputs": [
        {
          "internalType": "address",
          "name": "",
          "type": "address"
        },
        {
          "internalType": "address",
          "name": "",
          "type": "address"
        }
      ],
      "name": "lenderContribution",
      "outputs": [
        {
          "internalType": "uint256",
          "name": "",
          "type": "uint256"
        }
      ],
      "stateMutability": "view",
      "type": "function"
    },
    {
      "inputs": [
        {
          "internalType": "uint256",
          "name": "",
          "type": "uint256"
        }
      ],
      "name": "loanRefs",
      "outputs": [
        {
          "internalType": "bytes32",
          "name": "",
          "type": "bytes32"
        }
      ],
      "stateMutability": "view",
      "type": "function"
    },
    {
      "inputs": [
        {
          "internalType": "bytes32",
          "name": "",
          "type": "bytes32"
        }
      ],
      "name": "loans",
      "outputs": [
        {
          "internalType": "bytes32",
          "name": "ref",
          "type": "bytes32"
        },
        {
          "internalType": "address",
          "name": "borrower",
          "type": "address"
        },
        {
          "internalType": "address",
          "name": "token",
          "type": "address"
        },
        {
          "internalType": "address",
          "name": "merchant",
          "type": "address"
        },
        {
          "internalType": "uint256",
          "name": "principal",
          "type": "uint256"
        },
        {
          "internalType": "uint256",
          "name": "outstanding",
          "type": "uint256"
        },
        {
          "internalType": "uint256",
          "name": "startedAt",
          "type": "uint256"
        },
        {
          "internalType": "uint256",
          "name": "installmentsPaid",
          "type": "uint256"
        },
        {
          "internalType": "uint256",
          "name": "fee",
          "type": "uint256"
        },
        {
          "internalType": "uint256",
          "name": "totalPaid",
          "type": "uint256"
        },
        {
          "internalType": "bool",
          "name": "disbursed",
          "type": "bool"
        },
        {
          "internalType": "uint256",
          "name": "repaidFee",
          "type": "uint256"
        },
        {
          "internalType": "uint256",
          "name": "lastPaymentTs",
          "type": "uint256"
        },
        {
          "internalType": "uint256",
          "name": "maturityDate",
          "type": "uint256"
        },
        {
          "internalType": "enum VaultLendingV4.LoanStatus",
          "name": "status",
          "type": "uint8"
        }
      ],
      "stateMutability": "view",
      "type": "function"
    },
    {
      "inputs": [
        {
          "internalType": "bytes32",
          "name": "ref",
          "type": "bytes32"
        }
      ],
      "name": "markDefault",
      "outputs": [],
      "stateMutability": "nonpayable",
      "type": "function"
    },
    {
      "inputs": [
        {
          "internalType": "address",
          "name": "",
          "type": "address"
        },
        {
          "internalType": "address",
          "name": "",
          "type": "address"
        }
      ],
      "name": "merchantFund",
      "outputs": [
        {
          "internalType": "uint256",
          "name": "",
          "type": "uint256"
        }
      ],
      "stateMutability": "view",
      "type": "function"
    },
    {
      "inputs": [],
      "name": "name",
      "outputs": [
        {
          "internalType": "string",
          "name": "",
          "type": "string"
        }
      ],
      "stateMutability": "view",
      "type": "function"
    },
    {
      "inputs": [],
      "name": "nav",
      "outputs": [
        {
          "internalType": "uint256",
          "name": "",
          "type": "uint256"
        }
      ],
      "stateMutability": "view",
      "type": "function"
    },
    {
      "inputs": [],
      "name": "pause",
      "outputs": [],
      "stateMutability": "nonpayable",
      "type": "function"
    },
    {
      "inputs": [],
      "name": "paused",
      "outputs": [
        {
          "internalType": "bool",
          "name": "",
          "type": "bool"
        }
      ],
      "stateMutability": "view",
      "type": "function"
    },
    {
      "inputs": [],
      "name": "platformTreasury",
      "outputs": [
        {
          "internalType": "address",
          "name": "",
          "type": "address"
        }
      ],
      "stateMutability": "view",
      "type": "function"
    },
    {
      "inputs": [],
      "name": "poolCash",
      "outputs": [
        {
          "internalType": "uint256",
          "name": "",
          "type": "uint256"
        }
      ],
      "stateMutability": "view",
      "type": "function"
    },
    {
      "inputs": [
        {
          "internalType": "bytes32",
          "name": "ref",
          "type": "bytes32"
        },
        {
          "internalType": "uint256",
          "name": "amount",
          "type": "uint256"
        },
        {
          "internalType": "address",
          "name": "borrower",
          "type": "address"
        }
      ],
      "name": "repayLoan",
      "outputs": [],
      "stateMutability": "nonpayable",
      "type": "function"
    },
    {
      "inputs": [],
      "name": "reserveBalance",
      "outputs": [
        {
          "internalType": "uint256",
          "name": "",
          "type": "uint256"
        }
      ],
      "stateMutability": "view",
      "type": "function"
    },
    {
      "inputs": [],
      "name": "reserveRateBP",
      "outputs": [
        {
          "internalType": "uint256",
          "name": "",
          "type": "uint256"
        }
      ],
      "stateMutability": "view",
      "type": "function"
    },
    {
      "inputs": [
        {
          "internalType": "address",
          "name": "user",
          "type": "address"
        },
        {
          "internalType": "bool",
          "name": "status",
          "type": "bool"
        }
      ],
      "name": "setBlacklist",
      "outputs": [],
      "stateMutability": "nonpayable",
      "type": "function"
    },
    {
      "inputs": [
        {
          "internalType": "uint256",
          "name": "depositContributionPercent",
          "type": "uint256"
        }
      ],
      "name": "setDepositContributionPercent",
      "outputs": [],
      "stateMutability": "nonpayable",
      "type": "function"
    },
    {
      "inputs": [
        {
          "internalType": "uint256",
          "name": "platformFeeRate",
          "type": "uint256"
        },
        {
          "internalType": "uint256",
          "name": "lenderFeeRate",
          "type": "uint256"
        },
        {
          "internalType": "uint256",
          "name": "_reserveRateBP",
          "type": "uint256"
        }
      ],
      "name": "setFeeRate",
      "outputs": [],
      "stateMutability": "nonpayable",
      "type": "function"
    },
    {
      "inputs": [
        {
          "internalType": "address",
          "name": "user",
          "type": "address"
        },
        {
          "internalType": "bool",
          "name": "status",
          "type": "bool"
        }
      ],
      "name": "setWhitelist",
      "outputs": [],
      "stateMutability": "nonpayable",
      "type": "function"
    },
    {
      "inputs": [],
      "name": "symbol",
      "outputs": [
        {
          "internalType": "string",
          "name": "",
          "type": "string"
        }
      ],
      "stateMutability": "view",
      "type": "function"
    },
    {
      "inputs": [],
      "name": "totalDistributableEarnings",
      "outputs": [
        {
          "internalType": "uint256",
          "name": "",
          "type": "uint256"
        }
      ],
      "stateMutability": "view",
      "type": "function"
    },
    {
      "inputs": [
        {
          "internalType": "address",
          "name": "",
          "type": "address"
        }
      ],
      "name": "totalPoolContribution",
      "outputs": [
        {
          "internalType": "uint256",
          "name": "",
          "type": "uint256"
        }
      ],
      "stateMutability": "view",
      "type": "function"
    },
    {
      "inputs": [],
      "name": "totalPrincipalOutstanding",
      "outputs": [
        {
          "internalType": "uint256",
          "name": "",
          "type": "uint256"
        }
      ],
      "stateMutability": "view",
      "type": "function"
    },
    {
      "inputs": [],
      "name": "totalSupply",
      "outputs": [
        {
          "internalType": "uint256",
          "name": "",
          "type": "uint256"
        }
      ],
      "stateMutability": "view",
      "type": "function"
    },
    {
      "inputs": [],
      "name": "unpause",
      "outputs": [],
      "stateMutability": "nonpayable",
      "type": "function"
    },
    {
      "inputs": [
        {
          "internalType": "address",
          "name": "",
          "type": "address"
        },
        {
          "internalType": "address",
          "name": "",
          "type": "address"
        }
      ],
      "name": "vault",
      "outputs": [
        {
          "internalType": "uint256",
          "name": "",
          "type": "uint256"
        }
      ],
      "stateMutability": "view",
      "type": "function"
    },
    {
      "inputs": [
        {
          "internalType": "address",
          "name": "",
          "type": "address"
        }
      ],
      "name": "whitelist",
      "outputs": [
        {
          "internalType": "bool",
          "name": "",
          "type": "bool"
        }
      ],
      "stateMutability": "view",
      "type": "function"
    },
    {
      "inputs": [
        {
          "internalType": "uint256",
          "name": "sharesToBurn",
          "type": "uint256"
        }
      ],
      "name": "withdraw",
      "outputs": [],
      "stateMutability": "nonpayable",
      "type": "function"
    },
    {
      "inputs": [],
      "name": "withdrawMerchantFund",
      "outputs": [],
      "stateMutability": "nonpayable",
      "type": "function"
    },
    {
      "inputs": [
        {
          "internalType": "uint256",
          "name": "amount",
          "type": "uint256"
        }
      ],
      "name": "withdrawPlatformFees",
      "outputs": [],
      "stateMutability": "nonpayable",
      "type": "function"
    },
    {
      "inputs": [],
      "name": "writeOffDays",
      "outputs": [
        {
          "internalType": "uint256",
          "name": "",
          "type": "uint256"
        }
      ],
      "stateMutability": "view",
      "type": "function"
    },
    {
      "inputs": [
        {
          "internalType": "bytes32",
          "name": "ref",
          "type": "bytes32"
        }
      ],
      "name": "writeOffLoan",
      "outputs": [],
      "stateMutability": "nonpayable",
      "type": "function"
    }
  ],
  "bytecode": "0x60c0604052346104805761427e8038038061001981610484565b92833981019060c08183031261048057610032816104a9565b9061003f602082016104a9565b9061004c604082016104a9565b91610059606083016104a9565b60808301519092906001600160401b038111610480578661007b9183016104bd565b60a08201519096906001600160401b0381116104805761009b92016104bd565b600660805260016005555f601281905560135560506014556101f460155560b4601655936001600160a01b0316801561043b5760a052600480546001600160a01b03199081166001600160a01b0393841690811790925560118054821695841695909517909455600680548516939092169290921790556022805490921617905581516001600160401b038111610351575f54600181811c91168015610431575b602082101461033357601f81116103cf575b50602092601f821160011461037057928192935f92610365575b50508160011b915f199060031b1c1916175f555b80516001600160401b03811161035157600154600181811c91168015610347575b602082101461033357601f81116102d0575b50602091601f8211600114610270579181925f92610265575b50508160011b915f199060031b1c1916176001555b6001600755604051613d6f908161050f823960805181612abe015260a051818181610393015281816116e30152818161186301528181611c4801528181611de901528181611f4701528181612106015281816124340152818161259b015281816128390152818161292401528181612e5f01528181612f0b0152818161301401526130920152f35b015190505f806101c8565b601f1982169260015f52805f20915f5b8581106102b8575083600195106102a0575b505050811b016001556101dd565b01515f1960f88460031b161c191690555f8080610292565b91926020600181928685015181550194019201610280565b60015f527fb10e2d527612073b26eecdfd717e6a320cf44b4afac2b0732d9fcbe2b7fa0cf6601f830160051c81019160208410610329575b601f0160051c01905b81811061031e57506101af565b5f8155600101610311565b9091508190610308565b634e487b7160e01b5f52602260045260245ffd5b90607f169061019d565b634e487b7160e01b5f52604160045260245ffd5b015190505f80610168565b601f198216935f8052805f20915f5b8681106103b7575083600195961061039f575b505050811b015f5561017c565b01515f1960f88460031b161c191690555f8080610392565b9192602060018192868501518155019401920161037f565b5f80527f290decd9548b62a8d60345a988386fc84ba6bc95484008f6362f93160ef3e563601f830160051c81019160208410610427575b601f0160051c01905b81811061041c575061014e565b5f815560010161040f565b9091508190610406565b90607f169061013c565b60405162461bcd60e51b815260206004820152601660248201527f496e76616c69642061636365737320636f6e74726f6c000000000000000000006044820152606490fd5b5f80fd5b6040519190601f01601f191682016001600160401b0381118382101761035157604052565b51906001600160a01b038216820361048057565b81601f82011215610480578051906001600160401b038211610351576104ec601f8301601f1916602001610484565b928284526020838301011161048057815f9260208093018386015e830101529056fe60806040526004361015610011575f80fd5b5f5f3560e01c80630351493a14613423578063039a614f1461322057806306fdde03146131685780630c54dd191461306057806310ea1d6b1461304357806313007d5514612fff578063153b0d1e14612edf57806318160ddd14612ec25780631aef8058146103395780631b54cc88146117e55780631bf28a6c14612e9a57806324d7806c14612e1c5780632571f4b814612dff5780632e1a7d4d14612ae2578063313ce56714612aa557806332abcdbe14612a285780633af32abf14611a505780633f38cb10146128e75780633f4ba83a1461280e578063429043ed146126fc57806348361047146126c45780634b689a60146125695780634c5728ab1461254c5780635272bd491461252f57806353d6fd59146124085780635940e218146123eb5780635c975abb146123c6578063693aa26b146122e95780636aa21416146120ac57806370a082311461207457806374359ac314611f0e578063752f746614611ef25780637abe68c014611ed55780637ef9287714611e9d5780638456cb5914611dbe5780638932f5f714611cbe5780638b7ac4d514611c055780638d316e7f14611bcf578063900d99da14611bb257806395d89b4114611aaa5780639a1d90f414611a8d5780639b19251a14611a50578063a10954fe14611a33578063a1666b54146119aa578063a1804d8d1461197e578063a6a5fc2414611835578063abcdc3ce146117e5578063add63d9114611795578063b3bf8aa2146116b7578063b6b55f2514611489578063b6c3153114610fcf578063c1590cd714610fb4578063c4a9081514610ebd578063c4d2b1b314610e22578063c64d96d314610e04578063c89039c514610ddb578063cb73b45214610dbd578063ce88875d14610d91578063d15a1bba14610b69578063e138818c14610b40578063eaf65df91461033e578063ecefc70514610339578063f756ff281461031b5763f9f92be4146102da575f80fd5b346103185760203660031901126103185760209060ff906040906001600160a01b03610304613473565b168152602684522054166040519015158152f35b80fd5b50346103185780600319360112610318576020600954604051908152f35b613531565b50346103185760e03660031901126103185760043561035b613489565b60a4356001600160a01b038116916084359060443590848403610b3c57604051638b7ac4d560e01b81523360048201526020816024817f00000000000000000000000000000000000000000000000000000000000000006001600160a01b03165afa8015610b31578890610af2575b6103d49150613892565b81600d5410610ab457848752602560205260ff60408820541615610a6f576001600160a01b03168087526025602052604087205490949060ff1615610a2a57808752601b602090815260408089206022546001600160a01b03165f908152925290205483116109e55784156109ad57600a5494612710610454878561384d565b0494600b5491612710610467848761384d565b04612710610477600c548861384d565b0487106109765761048787613c20565b9384156109395760065460405163f9b7179760e01b8152600481018890528d9160c090829060249082906001600160a01b03165afa90811561092e5782809181936108c2575b501561088a576014541161085457886104e5916137bb565b11610817578a8c926104f78a8a61379a565b9a81610503828c61379a565b9061050d9161379a565b9c610518908c61384d565b612710900493610528908c61384d565b612710900494601554806107e1575b508381526017602052604081209384556001840180546001600160a01b03199081168c1790915560225460028601805483166001600160a01b039290921691909117905560038501805490911688179055600484018b90556105b492919061059f8d8d61379a565b600586015542600686015560078501556137bb565b6008820155886009820155600e8101600160ff198254161790556105d883836137bb565b600b820155600a8101805460ff191690556105f560c435426137bb565b600d820155600c429101556012545f1981146107cd5760010160125561061a8b613b27565b601a545f1981019081116107cd5761065192916106469160408f8f8152601960205220556008546137bb565b6008556009546137bb565b6009558952601e60209081526040808b206022546001600160a01b03165f9081529252902080546106839089906137bb565b90556022546001600160a01b03168952601f6020526040892080546106a99089906137bb565b90556106b784600d5461379a565b600d55828952601b60209081526040808b206022546001600160a01b03165f9081529252902080546106ea90879061379a565b9055828952601c60209081526040808b206022546001600160a01b03165f90815292529020805461071c90879061379a565b905561072788613b27565b601a545f1981019081116107b9578896949260e09896949261078e927f4029f3342223bc7d30c86e7ad5094f6b3cfdd3125b4998f23b45caaf915940689b8d52601960205260408d205561078661077e878761379a565b600e546137bb565b600e55613bee565b604051958652602086015260408501526064356060850152608084015260a083015260c0820152a180f35b634e487b7160e01b8a52601160045260248afd5b634e487b7160e01b8d52601160045260248dfd5b866127106107f861080e936105b49796959a61384d565b049061080682600f546137bb565b600f5561379a565b95909192610537565b60405162461bcd60e51b815260206004820152601560248201527418dc99591a5d081b1a5b5a5d08195e18d959591959605a1b6044820152606490fd5b60405162461bcd60e51b815260206004820152600e60248201526d63726564697420746f6f206c6f7760901b6044820152606490fd5b60405162461bcd60e51b815260206004820152601060248201526f1b9bdd0812d650c81d995c9a599a595960821b6044820152606490fd5b935050505060c0813d60c011610926575b816108e060c093836134bc565b81010312610922578051906020810151916108fd60408301613807565b906080606084015193015160018060a01b0381160361091e5792905f6104cd565b8f80fd5b8c80fd5b3d91506108d3565b6040513d84823e3d90fd5b60405162461bcd60e51b815260206004820152601560248201527427379039b430b932903337b9103137b93937bbb2b960591b6044820152606490fd5b60405162461bcd60e51b815260206004820152600f60248201526e4465706f73697420746f6f206c6f7760881b6044820152606490fd5b60405162461bcd60e51b815260206004820152601060248201526f125b9d985b1a59081b595c98da185b9d60821b6044820152606490fd5b60405162461bcd60e51b815260206004820152601a60248201527f496e73756666696369656e74207661756c742062616c616e63650000000000006044820152606490fd5b60405162461bcd60e51b815260206004820152601860248201527f4d65726368616e74206e6f742077686974656c697374656400000000000000006044820152606490fd5b60405162461bcd60e51b815260206004820152601860248201527f426f72726f776572206e6f742077686974656c697374656400000000000000006044820152606490fd5b60405162461bcd60e51b81526020600482015260166024820152750d2dce6eaccccd2c6d2cadce840e0deded840c6c2e6d60531b6044820152606490fd5b506020813d602011610b29575b81610b0c602093836134bc565b81010312610b2557610b206103d491613807565b6103ca565b8780fd5b3d9150610aff565b6040513d8a823e3d90fd5b8680fd5b50346103185780600319360112610318576011546040516001600160a01b039091168152602090f35b503461031857606036600319011261031857610b83613473565b6001600160a01b0316815260186020526040812080549060243590610baa604435836137bb565b90838211610d89575b610bbd838361379a565b90610bc782613b0f565b93610bd560405195866134bc565b828552601f19610be484613b0f565b01875b818110610d72575050865b838110610c555750505050604051926060840194606085528351809652602060808601940190955b808710610c34575050839450602084015260408301520390f35b909360206101e082610c4960019489516135ca565b01950196019590610c1a565b610c68610c6282846137bb565b846135a8565b90549060031b1c885260176020526040882060ff600e60405192610c8b8461349f565b8054845260018101546001600160a01b039081166020860152600282015481166040860152600382015416606085015260048101546080850152600581015460a085015260068082015460c0860152600782015460e086015260088201546101008601526009820154610120860152600a82015484161515610140860152600b820154610160860152600c820154610180860152600d8201546101a086015291015490911690811015610d5e576101c082015260019190610d4c828961387e565b52610d57818861387e565b5001610bf2565b634e487b7160e01b8a52602160045260248afd5b602090610d7d613914565b82828a01015201610be7565b839150610bb3565b5034610318576020366003190112610318576020610db5610db0613473565b613b4f565b604051908152f35b50346103185780600319360112610318576020600e54604051908152f35b50346103185780600319360112610318576004546040516001600160a01b039091168152602090f35b50346103185780600319360112610318576020600d54604051908152f35b503461031857602036600319011261031857604090600435815260176020522060018060a01b03600182015416610eb960018060a01b03600384015416926004810154906005810154600982015490610e8660ff600e600d86015495015416613c54565b936040519788978852602088015260408701526060860152608085015260a084015260e060c084015260e08301906134de565b0390f35b50346103185760203660031901126103185760043581526017602052604090208054600160a01b6001900360018301541691600160a01b60019003600282015416600160a01b600190036003830154166004830154600584015460068501546007860154600887015491600988015493600a89015460ff1695600b8a015497600c8b015499600d8c01549b600e015460ff169c6040519e8f91825260208201526040015260608d015260808c015260a08b015260c08a015260e089015261010088015261012087015215156101408601526101608501526101808401526101a08301526101c08201610fae916135bd565b6101e090f35b50346103185780600319360112610318576020610db5613bd0565b5034611383576060366003190112611383576004356024356044356001600160a01b038116908190036113835761100a60016007541461374e565b6002600755825f52601760205260405f20600e81019060ff82541660068110156114755760030361143f576001810180549091906001600160a01b031684900361140357611059851515613ace565b60058101918254156113be5760028201546040516323b872dd60e01b81523360048201523060248201526044810188905290602090829060649082905f906001600160a01b03165af1801561137857611387575b50620f42406110be600a548861384d565b04620f42406110cf600b548961384d565b04916110e4836110df848b61379a565b61379a565b5060065490546001600160a01b039081169116803b1561138357604051636fc2841160e11b81526001600160a01b03929092166004830152602482018990525f908290604490829084905af1801561137857611357575b506111a56111af9282611152600b946008546137bb565b600855611161826009546137bb565b6009556111708a600e5461379a565b600e5561117f8a600d546137bb565b600d5561118d8a885461379a565b87556009860161119e8b82546137bb565b90556137bb565b92019182546137bb565b90556111bd84600e5461379a565b600e555415611207575b847fa4513463869a9bb2a04ca9d0887721a32388ebe4ade85f8743261b3214b6d65b606086866040519182523360208301526040820152a1600160075580f35b600360ff198254161790558284526019602052604084205481855260186020526040852082865260186020526040862054905f198201918211611343579061124e916135a8565b90549060031b1c82865260186020528061128461126e8460408a206135a8565b819391549060031b91821b915f19901b19161790565b905585526019602052604085205583526018602052604083208054801561132f57917fa4513463869a9bb2a04ca9d0887721a32388ebe4ade85f8743261b3214b6d65b93916060935f1901906112da82826135a8565b8154905f199060031b1b191690555581855260196020528460408120557f27810a468d84d73b8240e706dd0a124a8ce3778bc6ebb13d643a61efcd26f1f060408051848152336020820152a1918193506111c7565b634e487b7160e01b85526031600452602485fd5b634e487b7160e01b87526011600452602487fd5b600b9199506111af9261136d5f6111a5936134bc565b5f9a9250925061113b565b6040513d5f823e3d90fd5b5f80fd5b6020813d6020116113b6575b816113a0602093836134bc565b81010312611383576113b190613807565b6110ad565b3d9150611393565b60405162461bcd60e51b815260206004820152601760248201527f4f75747374616e64696e67206d757374206265203e20300000000000000000006044820152606490fd5b60405162461bcd60e51b81526020600482015260146024820152734e6f7420626f72726f776572206164647265737360601b6044820152606490fd5b60405162461bcd60e51b815260206004820152600e60248201526d131bd85b881a5cc818db1bdcd95960921b6044820152606490fd5b634e487b7160e01b5f52602160045260245ffd5b34611383576020366003190112611383576004356114a8811515613ace565b600480546040516323b872dd60e01b8152339281019290925230602483015260448201839052602090829060649082905f906001600160a01b03165af1801561137857611680575b506115946114fd82613c20565b9161150a836002546137bb565b600255335f52600360205260405f206115248482546137bb565b9055335f908152601b602090815260408083206022546001600160a01b03168452909152902080546115579083906137bb565b9055335f908152601c602090815260408083206022546001600160a01b031684529091529020805461158a9083906137bb565b9055600d546137bb565b600d55335f52602360205260ff60405f205416156115e3575b6020906040518181527fe1fffcc4923d04b559f4d29a8bfc6cda04eb5b0d3c460751c2402c5c5cc9109c833392a2604051908152f35b60245490600160401b82101561166c5760018201602455602454821015611658577f7cd332d19b93bcabe3cce7ca0c18a052f57e5fd03b4758a09f30f5ddc4b22ec490910180546001600160a01b031916339081179091555f908152602360205260409020805460ff191660011790556115ad565b634e487b7160e01b5f52603260045260245ffd5b634e487b7160e01b5f52604160045260245ffd5b6020813d6020116116af575b81611699602093836134bc565b81010312611383576116aa90613807565b6114f0565b3d915061168c565b3461138357602036600319011261138357604051638b7ac4d560e01b81523360048201526020816024817f00000000000000000000000000000000000000000000000000000000000000006001600160a01b03165afa8015611378575f9061175a575b61172390613892565b61173560ff60065460a01c161561368b565b61174360016007541461374e565b6002600755611753600435613981565b6001600755005b506020813d60201161178d575b81611774602093836134bc565b810103126113835761178861172391613807565b61171a565b3d9150611767565b34611383576040366003190112611383576117ae613473565b6117b6613489565b6001600160a01b039182165f908152601e60209081526040808320949093168252928352819020549051908152f35b34611383576040366003190112611383576117fe613473565b611806613489565b6001600160a01b039182165f908152601b60209081526040808320949093168252928352819020549051908152f35b346113835760203660031901126113835761184e613473565b604051630935e01b60e21b81523360048201527f00000000000000000000000000000000000000000000000000000000000000006001600160a01b031690602081602481855afa908115611378575f91611944575b5080156118d3575b6118b591506138d4565b60018060a01b03165f52601f602052602060405f2054604051908152f35b50602060249160405192838092638b7ac4d560e01b82523360048301525afa8015611378575f90611909575b6118b591506118ab565b506020813d60201161193c575b81611923602093836134bc565b81010312611383576119376118b591613807565b6118ff565b3d9150611916565b90506020813d602011611976575b8161195f602093836134bc565b810103126113835761197090613807565b836118a3565b3d9150611952565b34611383576020366003190112611383576020610db56002546119a5600435600d5461384d565b613860565b34611383575f3660031901126113835760405180602060245491828152019060245f527f7cd332d19b93bcabe3cce7ca0c18a052f57e5fd03b4758a09f30f5ddc4b22ec4905f5b818110611a1457610eb985611a08818703826134bc565b6040519182918261354e565b82546001600160a01b03168452602090930192600192830192016119f1565b34611383575f366003190112611383576020600f54604051908152f35b34611383576020366003190112611383576001600160a01b03611a71613473565b165f526025602052602060ff60405f2054166040519015158152f35b34611383575f366003190112611383576020600c54604051908152f35b34611383575f366003190112611383576040515f6001548060011c90600181168015611ba8575b602083108114611b9457828552908115611b705750600114611b12575b610eb983611afe818503826134bc565b6040519182916020835260208301906134de565b60015f9081527fb10e2d527612073b26eecdfd717e6a320cf44b4afac2b0732d9fcbe2b7fa0cf6939250905b808210611b5657509091508101602001611afe611aee565b919260018160209254838588010152019101909291611b3e565b60ff191660208086019190915291151560051b84019091019150611afe9050611aee565b634e487b7160e01b5f52602260045260245ffd5b91607f1691611ad1565b34611383575f366003190112611383576020600b54604051908152f35b34611383575f366003190112611383576080600b54600a54600c5460155491604051938452602084015260408301526060820152f35b3461138357602036600319011261138357611c1e613473565b604051638b7ac4d560e01b81526001600160a01b03918216600482015290602090829060249082907f0000000000000000000000000000000000000000000000000000000000000000165afa8015611378575f90611c84575b6020906040519015158152f35b506020813d602011611cb6575b81611c9e602093836134bc565b8101031261138357611cb1602091613807565b611c77565b3d9150611c91565b3461138357602036600319011261138357611cd7613914565b506004355f52601760205260405f2060ff600e60405192611cf78461349f565b8054845260018101546001600160a01b039081166020860152600282015481166040860152600382015416606085015260048101546080850152600581015460a085015260068082015460c0860152600782015460e086015260088201546101008601526009820154610120860152600a82015484161515610140860152600b820154610160860152600c820154610180860152600d8201546101a08601529101549091169190821015611475576101e0916101c0820152611dbc60405180926135ca565bf35b34611383575f36600319011261138357604051630935e01b60e21b81523360048201526020816024817f00000000000000000000000000000000000000000000000000000000000000006001600160a01b03165afa8015611378575f90611e62575b611e2990613814565b6006805460ff60a01b1916600160a01b1790557f9e87fac88ff661f02d44f95383c817fece4bce600a3dab7a54406878b965e7525f80a1005b506020813d602011611e95575b81611e7c602093836134bc565b8101031261138357611e90611e2991613807565b611e20565b3d9150611e6f565b34611383576020366003190112611383576001600160a01b03611ebe613473565b165f52601d602052602060405f2054604051908152f35b34611383575f366003190112611383576020601654604051908152f35b34611383575f3660031901126113835760206040516127108152f35b3461138357604036600319011261138357611f27613473565b611f2f613489565b604051630935e01b60e21b81523360048201529091907f00000000000000000000000000000000000000000000000000000000000000006001600160a01b031690602081602481855afa908115611378575f9161203a575b508015611fc9575b611f9991506138d4565b60018060a01b03165f52601e60205260405f209060018060a01b03165f52602052602060405f2054604051908152f35b50602060249160405192838092638b7ac4d560e01b82523360048301525afa8015611378575f90611fff575b611f999150611f8f565b506020813d602011612032575b81612019602093836134bc565b810103126113835761202d611f9991613807565b611ff5565b3d915061200c565b90506020813d60201161206c575b81612055602093836134bc565b810103126113835761206690613807565b84611f87565b3d9150612048565b34611383576020366003190112611383576001600160a01b03612095613473565b165f526003602052602060405f2054604051908152f35b34611383576020366003190112611383576004356120d260ff60065460a01c161561368b565b335f5260266020526120eb60ff60405f205416156136c9565b604051630935e01b60e21b81523360048201526020816024817f00000000000000000000000000000000000000000000000000000000000000006001600160a01b03165afa8015611378575f906122ae575b6121479150613814565b80156122835760085480821161224c57816121619161379a565b60085560225460115460405163a9059cbb60e01b602082019081526001600160a01b039283166024830152604482018590525f938493169183906121b281606481015b03601f1981018352826134bc565b51925af16121be6137c8565b5015612207576011546022546040519283526001600160a01b03908116929116907f5e110f8bc8a20b65dcc87f224bdf1cc039346e267118bae2739847f07321ffa890602090a3005b60405162461bcd60e51b815260206004820152601c60248201527f706c6174666f726d20666565207472616e73666572206661696c6564000000006044820152606490fd5b60405162461bcd60e51b815260206004820152600f60248201526e195e18d959591cc81858d8dc9d5959608a1b6044820152606490fd5b606460405162461bcd60e51b81526020600482015260046024820152637a65726f60e01b6044820152fd5b506020813d6020116122e1575b816122c8602093836134bc565b81010312611383576122dc61214791613807565b61213d565b3d91506122bb565b34611383575f36600319011261138357601a54600854906009549161230c613bd0565b925f91601354600d5490600e5491600f54925f5b88811061235d575061012098604051988952602089015260408801526060870152608086015260a085015260c084015260e0830152610100820152f35b61236681613590565b90549060031b1c5f52601760205260405f2060ff600e82015416600681101561147557600114806123b9575b6123a0575b50600101612320565b6001919860056123b2920154906137bb565b9790612397565b50600d8101544211612392565b34611383575f36600319011261138357602060ff60065460a01c166040519015158152f35b34611383575f366003190112611383576020600e54604051908152f35b346113835761241636613502565b604051630935e01b60e21b81523360048201529091906020816024817f00000000000000000000000000000000000000000000000000000000000000006001600160a01b03165afa908115611378575f916124cb575b507fa54714518c5d275fdcd3d2a461e4858e4e8cb04fb93cd0bca9d6d34115f264409161249a602092613814565b6001600160a01b03165f8181526025835260409020805460ff191660ff86151516179055925b6040519015158152a2005b90506020813d602011612527575b816124e6602093836134bc565b81010312611383577fa54714518c5d275fdcd3d2a461e4858e4e8cb04fb93cd0bca9d6d34115f264409161249a61251e602093613807565b9250509161246c565b3d91506124d9565b34611383575f366003190112611383576020601054604051908152f35b34611383575f366003190112611383576020601554604051908152f35b3461138357602036600319011261138357604051638b7ac4d560e01b81523360048281019190915235906020816024817f00000000000000000000000000000000000000000000000000000000000000006001600160a01b03165afa8015611378575f90612689575b6125dc9150613892565b6125ee60ff60065460a01c161561368b565b805f52601760205260405f20600e810160ff81541660068110156114755760010361265757600460ff19825416179055600560018060a01b03600183015416910154917f9b2575b08db7e2edc3ee07cfbf4380255077356eda17afd5dc0dd58d9f4a487d5f80a4005b60405162461bcd60e51b815260206004820152600a6024820152696e6f742061637469766560b01b6044820152606490fd5b506020813d6020116126bc575b816126a3602093836134bc565b81010312611383576126b76125dc91613807565b6125d2565b3d9150612696565b3461138357602036600319011261138357600435601a54811015611383576126ed602091613590565b90549060031b1c604051908152f35b3461138357604036600319011261138357612715613473565b61271d613489565b9060018060a01b031690815f52601b60205260405f2060018060a01b0382165f5260205260405f2054905f925f52601860205260405f206040519081602082549182815201915f5260205f20905f5b8181106127f857505050816127829103826134bc565b6001600160a01b03909116905f5b81518110156127e8576127a3818361387e565b515f90815260176020526040902060028101546001600160a01b031684146127cf575b50600101612790565b6001919560096127e1920154906137bb565b94906127c6565b6040848682519182526020820152f35b825484526020909301926001928301920161276c565b34611383575f36600319011261138357604051630935e01b60e21b81523360048201526020816024817f00000000000000000000000000000000000000000000000000000000000000006001600160a01b03165afa8015611378575f906128ac575b61287990613814565b6006805460ff60a01b191690557fa45f47fdea8a1efdd9029a5691c7f759c32b7c698632b563573e155625d169335f80a1005b506020813d6020116128df575b816128c6602093836134bc565b81010312611383576128da61287991613807565b612870565b3d91506128b9565b346113835760603660031901126113835760043560243560443591604051630935e01b60e21b815233600482015260208160248160018060a01b037f0000000000000000000000000000000000000000000000000000000000000000165afa8015611378575f906129ed575b61295d9150613814565b620f424061296b83836137bb565b116129b4577f6a1a0c510261ee884ec0414bfa94b519f6f0acc436d14688c7564107f60c621a9260609282600a5580600b558160155560405192835260208301526040820152a1005b60405162461bcd60e51b81526020600482015260116024820152700496e76616c69642066656520736574757607c1b6044820152606490fd5b506020813d602011612a20575b81612a07602093836134bc565b8101031261138357612a1b61295d91613807565b612953565b3d91506129fa565b34611383575f3660031901126113835760405180602060215491828152019060215f527f3a6357012c1a3ae0a17d304c9920310382d968ebcc4b1771f41c6b304205b570905f5b818110612a8657610eb985611a08818703826134bc565b82546001600160a01b0316845260209093019260019283019201612a6f565b34611383575f36600319011261138357602060405160ff7f0000000000000000000000000000000000000000000000000000000000000000168152f35b3461138357602036600319011261138357600435612b0860ff60065460a01c161561368b565b335f526026602052612b2160ff60405f205416156136c9565b335f526025602052612b3960ff60405f20541661370b565b612b4760016007541461374e565b60026007558015612dcc57335f52600360205260405f20548110612d9257612b6e33613b4f565b612d5657612b7a613bd0565b50612b8d6002546119a583600d5461384d565b908115612d1b57335f908152601b602090815260408083206022546001600160a01b03168085529252909120549091908311612cd657612bf891335f52601b60205260405f209060018060a01b03165f5260205260405f20612bf084825461379a565b905533613bee565b612c0481600d5461379a565b600d5560225460405163a9059cbb60e01b60208201908152336024830152604482018490525f9283926001600160a01b0390911691908390612c4981606481016121a4565b51925af1612c556137c8565b5015612c9d576022546040519182526001600160a01b03169033907f9b1bfa7fa9ee420a16e124f794c35ac9f90472acc99140eb2f6447c714cad8eb90602090a36001600755005b60405162461bcd60e51b815260206004820152601160248201527019985a5b1959081dda5d1a191c985dd85b607a1b6044820152606490fd5b60405162461bcd60e51b815260206004820152601a60248201527f696e73756666696369656e74207661756c742062616c616e63650000000000006044820152606490fd5b60405162461bcd60e51b81526020600482015260136024820152726e6f7468696e6720746f20776974686472617760681b6044820152606490fd5b60405162461bcd60e51b81526020600482015260146024820152733430b99037baba39ba30b73234b733903637b0b760611b6044820152606490fd5b60405162461bcd60e51b8152602060048201526012602482015271496e73756666696369656e7420736861726560701b6044820152606490fd5b60405162461bcd60e51b815260206004820152600b60248201526a7a65726f2073686172657360a81b6044820152606490fd5b34611383575f366003190112611383576020600a54604051908152f35b3461138357602036600319011261138357612e35613473565b604051630935e01b60e21b81526001600160a01b03918216600482015290602090829060249082907f0000000000000000000000000000000000000000000000000000000000000000165afa8015611378575f90611c84576020906040519015158152f35b34611383575f366003190112611383576006546040516001600160a01b039091168152602090f35b34611383575f366003190112611383576020600254604051908152f35b3461138357612eed36613502565b604051630935e01b60e21b81523360048201529091906020816024817f00000000000000000000000000000000000000000000000000000000000000006001600160a01b03165afa908115611378575f91612f9b575b507fcf3473b85df1594d47b6958f29a32bea0abff9dd68296f7bf33443646793cfd891612f71602092613814565b6001600160a01b03165f8181526026835260409020805460ff191660ff86151516179055926124c0565b90506020813d602011612ff7575b81612fb6602093836134bc565b81010312611383577fcf3473b85df1594d47b6958f29a32bea0abff9dd68296f7bf33443646793cfd891612f71612fee602093613807565b92505091612f43565b3d9150612fa9565b34611383575f366003190112611383576040517f00000000000000000000000000000000000000000000000000000000000000006001600160a01b03168152602090f35b34611383575f366003190112611383576020600854604051908152f35b3461138357602036600319011261138357604051630935e01b60e21b81523360048281019190915235906020816024817f00000000000000000000000000000000000000000000000000000000000000006001600160a01b03165afa908115611378575f91613104575b7f5661349add19ce6ce658acfc3c3a1f859d293bf58ca7c46070a2c2a404e3d05a6020846130f785613814565b80600c55604051908152a1005b90506020813d602011613160575b8161311f602093836134bc565b81010312611383577f5661349add19ce6ce658acfc3c3a1f859d293bf58ca7c46070a2c2a404e3d05a916130f7613157602093613807565b925050916130ca565b3d9150613112565b34611383575f366003190112611383576040515f5f548060011c90600181168015613216575b602083108114611b9457828552908115611b7057506001146131ba57610eb983611afe818503826134bc565b5f8080527f290decd9548b62a8d60345a988386fc84ba6bc95484008f6362f93160ef3e563939250905b8082106131fc57509091508101602001611afe611aee565b9192600181602092548385880101520191019092916131e4565b91607f169161318e565b34611383575f3660031901126113835761324260ff60065460a01c161561368b565b335f52602660205261325b60ff60405f205416156136c9565b335f52602560205261327360ff60405f20541661370b565b61328160016007541461374e565b6002600755335f908152601e602090815260408083206022546001600160a01b03168085529252909120549081156133e757335f52601e60205260405f209060018060a01b03165f526020525f604081205560018060a01b03602254165f52601f60205260405f206132f482825461379a565b9055613302816013546137bb565b60135560225460405163a9059cbb60e01b60208201908152336024830152604482018490525f9283926001600160a01b039091169190839061334781606481016121a4565b51925af16133536137c8565b50156133aa5761336581600d5461379a565b600d556022546040519182526001600160a01b03169033907fe41d4507cbbbdb09ef0e174837ee2221bf96ffed36cf60f1d4b73c6fca8b395790602090a36001600755005b60405162461bcd60e51b8152602060048201526015602482015274151bdad95b881d1c985b9cd9995c8819985a5b1959605a1b6044820152606490fd5b60405162461bcd60e51b81526020600482015260146024820152734e6f2066756e647320746f20776974686472617760601b6044820152606490fd5b346113835760403660031901126113835761343c613473565b613444613489565b6001600160a01b039182165f908152601c60209081526040808320949093168252928352819020549051908152f35b600435906001600160a01b038216820361138357565b602435906001600160a01b038216820361138357565b6101e0810190811067ffffffffffffffff82111761166c57604052565b90601f8019910116810190811067ffffffffffffffff82111761166c57604052565b805180835260209291819084018484015e5f828201840152601f01601f1916010190565b6040906003190112611383576004356001600160a01b0381168103611383579060243580151581036113835790565b34611383575f366003190112611383576020604051620f42408152f35b60206040818301928281528451809452019201905f5b8181106135715750505090565b82516001600160a01b0316845260209384019390920191600101613564565b601a5481101561165857601a5f5260205f2001905f90565b8054821015611658575f5260205f2001905f90565b9060068210156114755752565b906101c080613689938051845260018060a01b03602082015116602085015260018060a01b03604082015116604085015260018060a01b0360608201511660608501526080810151608085015260a081015160a085015260c081015160c085015260e081015160e085015261010081015161010085015261012081015161012085015261014081015115156101408501526101608101516101608501526101808101516101808501526101a08101516101a085015201519101906135bd565b565b1561369257565b60405162461bcd60e51b815260206004820152600f60248201526e10dbdb9d1c9858dd081c185d5cd959608a1b6044820152606490fd5b156136d057565b60405162461bcd60e51b8152602060048201526013602482015272155cd95c881a5cc8189b1858dadb1a5cdd1959606a1b6044820152606490fd5b1561371257565b60405162461bcd60e51b8152602060048201526014602482015273155cd95c881b9bdd081dda1a5d195b1a5cdd195960621b6044820152606490fd5b1561375557565b60405162461bcd60e51b815260206004820152601f60248201527f5265656e7472616e637947756172643a207265656e7472616e742063616c6c006044820152606490fd5b919082039182116137a757565b634e487b7160e01b5f52601160045260245ffd5b919082018092116137a757565b3d15613802573d9067ffffffffffffffff821161166c57604051916137f7601f8201601f1916602001846134bc565b82523d5f602084013e565b606090565b5190811515820361138357565b1561381b57565b60405162461bcd60e51b815260206004820152600a60248201526927b7363c9030b236b4b760b11b6044820152606490fd5b818102929181159184041417156137a757565b811561386a570490565b634e487b7160e01b5f52601260045260245ffd5b80518210156116585760209160051b010190565b1561389957565b60405162461bcd60e51b815260206004820152601360248201527227b7363c9031b932b234ba1037b33334b1b2b960691b6044820152606490fd5b156138db57565b60405162461bcd60e51b81526020600482015260116024820152701c195c9b5a5cdcda5bdb8819195b9a5959607a1b6044820152606490fd5b604051906139218261349f565b5f6101c0838281528260208201528260408201528260608201528260808201528260a08201528260c08201528260e08201528261010082015282610120820152826101408201528261016082015282610180820152826101a08201520152565b805f52601760205260405f20600e81019060ff825416600681101561147557600403613a9957600501908154918215613a62575f9055805460ff19166005179055600e548111613a59576139d781600e5461379a565b600e555b600f54818110613a1e57506139f281600f5461379a565b600f555f915b7f9ade94592c4f13d3eb3903e7d3b0a2601079648e4dd708e14ae8a8c924276d4e5f80a4565b80613a29919261379a565b5f600f55600d54818110613a4d5750613a4481600d5461379a565b600d55916139f8565b9050915f600d556139f8565b5f600e556139db565b50805460ff19166005179055505f9081907f9ade94592c4f13d3eb3903e7d3b0a2601079648e4dd708e14ae8a8c924276d4e8280a4565b60405162461bcd60e51b815260206004820152600d60248201526c1b9bdd08191959985d5b1d1959609a1b6044820152606490fd5b15613ad557565b60405162461bcd60e51b81526020600482015260126024820152710416d6f756e74206d757374206265203e20360741b6044820152606490fd5b67ffffffffffffffff811161166c5760051b60200190565b601a54600160401b81101561166c5761126e816001613b4b9301601a55601a6135a8565b9055565b6001600160a01b03165f908152601860205260408120805491929190835b828110613b7957505050565b613b8381836135a8565b90549060031b1c5f52601760205260405f2060ff600e82015416600681101561147557600114613bb7575b50600101613b6d565b600191956005613bc9920154906137bb565b9490613bae565b613beb613be2600d54600e54906137bb565b600f54906137bb565b90565b90613c1b9160018060a01b03165f52600360205260405f20613c1182825461379a565b905560025461379a565b600255565b600254613c2b613bd0565b9080158015613c4c575b15613c3f57505090565b6119a590613beb9361384d565b508115613c35565b60068110156114755760018114613d145760028114613cf15760048114613cc957600514613ca157604051613c8a6040826134bc565b60078152662ab735b737bbb760c91b602082015290565b604051613caf6040826134bc565b600a8152692bb934ba3a32b727b33360b11b602082015290565b50604051613cd86040826134bc565b6009815268111959985d5b1d195960ba1b602082015290565b50604051613d006040826134bc565b600481526314185a5960e21b602082015290565b50604051613d236040826134bc565b600681526541637469766560d01b60208201529056fea2646970667358221220457933a2b49b132c73cc0c635b5c153552903f5692c6ad0b4aecc28291c5055b64736f6c634300081e0033",
  "source": "// SPDX-License-Identifier: MIT\r\npragma solidity ^0.8.23;\r\n\r\ninterface ITRC20 {\r\n    function transfer(address to, uint256 amount) external returns (bool);\r\n    function transferFrom(address from, address to, uint256 amount) external returns (bool);\r\n    function balanceOf(address account) external view returns (uint256);\r\n    function approve(address spender, uint256 amount) external returns (bool);\r\n    function allowance(address owner, address spender) external view returns (uint256);\r\n}\r\n\r\ninterface IAccessControlModule {\r\n    function isAdmin(address account) external view returns (bool);\r\n    function isCreditOfficer(address account) external view returns (bool);\r\n}\r\n\r\ninterface IBNPLAttestationOracle {\r\n    function getAttestation(address borrower) external view returns (\r\n        uint256 creditLimit,\r\n        uint256 creditScore,\r\n        bool kycVerified,\r\n        uint256 utilizedLimit,\r\n        address attestor,\r\n        uint256 updatedAt\r\n    );\r\n\r\n    function increaseUsedCredit(address borrower, uint256 amount) external;\r\n    function decreaseUsedCredit(address borrower, uint256 amount) external;\r\n}\r\n\r\n\r\ncontract VaultLendingV4 {\r\n\r\n    struct Loan {\r\n        bytes32 ref;\r\n        address borrower;\r\n        address token;\r\n        address merchant;\r\n        uint256 principal;\r\n        uint256 outstanding;     // principal + remaining fee\r\n        uint256 startedAt;\r\n        uint256 installmentsPaid;\r\n        uint256 fee;             // remaining fee\r\n        uint256 totalPaid;       // total repaid (principal + fee)\r\n        bool disbursed;\r\n        uint256 repaidFee;  \r\n        uint256 lastPaymentTs;\r\n        uint256 maturityDate;\r\n        LoanStatus status;\r\n    }\r\n\r\n     // ====== Timelock ======\r\n    struct Timelock {\r\n        uint256 amount;\r\n        address token;      // address(0) for ETH\r\n        address to;\r\n        uint256 unlockTime;\r\n        bool executed;\r\n    }\r\n\r\n   // ====== Loan Struct ======\r\n    enum LoanStatus { None, Active, Paid, Closed, Defaulted, WrittenOff }\r\n   \r\n    string public name;\r\n    string public symbol;\r\n    uint8 public immutable decimals = 6; // TRON-based tokens often 6 decimals\r\n\r\n    uint256 public totalSupply;\r\n    mapping(address => uint256) public balanceOf;\r\n    ITRC20 public depositToken;\r\n    \r\n\r\n    uint256 private nextLoanId = 1;\r\n    IAccessControlModule public immutable accessControl;\r\n    IBNPLAttestationOracle public attestationOracle;\r\n    bool public paused;\r\n    uint256 private _locked;\r\n    uint256 private _platformFee;\r\n    uint256 private _lenderFee;\r\n\r\n    // Percentage rates use 1e6 = 100% (e.g. 2.5% = 25_000)\r\n    uint256 private _platformFeeRate;           // e.g. 20_000 = 2%\r\n    uint256 private _lenderFeeRate;             // e.g. 10_000 = 1%\r\n    uint256 private _depositContributionPercent; // e.g. 100_000 = 10%\r\n\r\n     // ====== Pool Stats ======\r\n    uint256 public poolCash;\r\n    uint256 public totalPrincipalOutstanding;\r\n\r\n    uint256 public reserveBalance;      // reserve for bad debt (wei)\r\n    uint256 public totalDistributableEarnings; // earnings available (interest minus reserve cuts), included in poolCash\r\n     // platform treasury where platform fees will be sent on withdraw\r\n    address public platformTreasury;\r\n    uint256 private loanCounter = 0;\r\n    uint256 private totalDisbursedToMerchant = 0;\r\n    uint256 private _minCreditScore = 80;\r\n  \r\n    uint256 public constant FEE_BASE = 1e6; // 100%\r\n    uint256 public reserveRateBP = 500; // basis points: 500 = 5%\r\n    uint256 public writeOffDays = 180;   // days after which loan may be written off\r\n    uint256 public constant BP_DIVISOR = 10000;\r\n    uint256 public constant DECIMAL_MULTIPLIER = 1e6;\r\n\r\n\r\n    // Loan tracking\r\n    mapping(bytes32 => Loan) public loans;\r\n    mapping(address => bytes32[]) private borrowerLoans;\r\n    mapping(bytes32 => uint256) private loanIndex;\r\n    //mapping(bytes32 => uint256) internal loanIndex;\r\n    bytes32[] public loanRefs;\r\n\r\n    // Vault & pool tracking\r\n    mapping(address => mapping(address => uint256)) public vault;            // vault[user][token]\r\n    mapping(address => mapping(address => uint256)) public lenderContribution; // lender[token]\r\n    mapping(address => uint256) public totalPoolContribution;               // total principal per token\r\n    mapping(address => mapping(address => uint256)) public merchantFund; \r\n    mapping(address => uint256) private totalMerchantFund;\r\n     \r\n    uint256 constant FEE_PRECISION = 1e6;\r\n\r\n    // Borrower & lender tracking\r\n    mapping(address => bool) private isBorrower;\r\n    address[] private borrowers;\r\n    address token;\r\n\r\n    mapping(address => bool) private isLender;\r\n    address[] private lenders;\r\n\r\n    // Events\r\n    event Deposit(address indexed user, uint256 amount);\r\n    event Withdraw(address indexed user, address indexed token, uint256 amount);\r\n    \r\n    event LoanCreated(bytes32 ref, address borrower, uint256 principal, uint256 fee, \r\n    uint256 depositAmount, uint256 lenderFundDeducted, uint256 merchantSettledFund);\r\n\r\n    event LoanDisbursed(bytes32 loanId, address borrower, uint256 amount);\r\n    event LoanRepaid(bytes32 ref, address borrower, uint256 amount);\r\n    event LoanClosed(bytes32 loanId, address borrower);\r\n    event LoanDefaulted(bytes32 indexed loanId,address indexed borrower, uint256 indexed outstanding);\r\n    event LoanWrittenOff(bytes32 indexed loanId, uint256 indexed lossCoveredByReserve, uint256 indexed lossToPool);\r\n\r\n    event FeesWithdrawn(address indexed lender, address indexed token, uint256 amount);\r\n\r\n    event Paused();\r\n    event Unpaused();\r\n    event Whitelisted(address indexed user, bool status);\r\n    event Blacklisted(address indexed user, bool status);\r\n    event FeeRateChanged(uint256 platformFeeRate, uint256 lenderFeeRate, uint256 reserveRateBP);\r\n    event DepositContributionChanged(uint256 depositContributionPercent);\r\n    event MerchantWithdrawn(address indexed merchant, address indexed token, uint256 amount);\r\n  \r\n    event TimelockCreated(bytes32 indexed id, address token, address to, uint256 amount, uint256 unlockTime);\r\n    event TimelockExecuted(bytes32 indexed id);\r\n\r\n    mapping(address => bool) public whitelist;\r\n    mapping(address => bool) public blacklist;\r\n       //  Reentrancy guard per loan\r\n    mapping(bytes32 => bool) private _loanLock;\r\n  \r\n    constructor(\r\n        address _accessControl,\r\n        address _depositToken,\r\n        address _platformTreasury,\r\n        address _attestationOracle,\r\n        string memory _name,\r\n        string memory _symbol\r\n    ) {\r\n         require(_accessControl != address(0), \"Invalid access control\");\r\n        accessControl = IAccessControlModule(_accessControl);\r\n        depositToken = ITRC20(_depositToken);\r\n        platformTreasury = _platformTreasury;\r\n        attestationOracle = IBNPLAttestationOracle(_attestationOracle);\r\n        token = _depositToken;\r\n        name = _name;\r\n        symbol = _symbol;\r\n        _locked = 1;\r\n    }\r\n\r\n    // ====== Reentrancy Guard ======\r\n    modifier nonReentrant() {\r\n        require(_locked == 1, \"ReentrancyGuard: reentrant call\");\r\n        _locked = 2;\r\n        _;\r\n        _locked = 1;\r\n    }\r\n\r\n    // ====== Modifiers ======\r\n    modifier onlyAdmin() {\r\n        require(accessControl.isAdmin(msg.sender), \"Only admin\");\r\n        _;\r\n    }\r\n\r\n    modifier onlyCreditOfficer() {\r\n        require(accessControl.isCreditOfficer(msg.sender), \"Only credit officer\");\r\n        _;\r\n    }\r\n\r\n    modifier onlyWhitelisted(address user) {\r\n        require(whitelist[user], \"User not whitelisted\");\r\n        _;\r\n    }\r\n\r\n    modifier notBlacklisted(address user) {\r\n        require(!blacklist[user], \"User is blacklisted\");\r\n        _;\r\n    }\r\n\r\n    modifier loanExists(bytes32 ref) {\r\n        require(loans[ref].borrower != address(0), \"Loan does not exist\");\r\n        _;\r\n    }\r\n\r\n    modifier whenNotPaused() {\r\n        require(!paused, \"Contract paused\");\r\n        _;\r\n    }\r\n\r\n    modifier nonReentrantLoan(bytes32 ref) {\r\n        require(!_loanLock[ref], \"ReentrancyGuard: loan locked\");\r\n        _loanLock[ref] = true;\r\n        _;\r\n        _loanLock[ref] = false;\r\n    }\r\n\r\n    modifier onlyActiveLoan(bytes32 ref) {\r\n        require(loans[ref].status == LoanStatus.Active, \"Loan not active\");\r\n        _;\r\n    }\r\n\r\n    modifier onlyAuthorized() {\r\n        \r\n         require( accessControl.isAdmin(msg.sender) || accessControl.isCreditOfficer(msg.sender)\r\n        , \"permission denied\");\r\n        \r\n         _;\r\n    }\r\n\r\n    // ====== Admin: Whitelist / Blacklist ======\r\n    function setWhitelist(address user, bool status) external onlyAdmin {\r\n        whitelist[user] = status;\r\n        emit Whitelisted(user, status);\r\n    }\r\n\r\n    function setBlacklist(address user, bool status) external onlyAdmin {\r\n        blacklist[user] = status;\r\n        emit Blacklisted(user, status);\r\n    }\r\n\r\n    // ====== Admin: Pause / Unpause ======\r\n    function pause() external onlyAdmin {\r\n        paused = true;\r\n        emit Paused();\r\n    }\r\n\r\n    function unpause() external onlyAdmin {\r\n        paused = false;\r\n        emit Unpaused();\r\n    }\r\n\r\n    function setFeeRate(uint256 platformFeeRate, uint256 lenderFeeRate,uint256 _reserveRateBP ) external onlyAdmin {\r\n        require(platformFeeRate + lenderFeeRate <= 1e6, \"Invalid fee setup\");\r\n        _platformFeeRate = platformFeeRate;\r\n        _lenderFeeRate = lenderFeeRate;\r\n        reserveRateBP = _reserveRateBP;\r\n        emit FeeRateChanged(platformFeeRate, lenderFeeRate,reserveRateBP);\r\n    }\r\n\r\n    function setDepositContributionPercent(uint256 depositContributionPercent) external onlyAdmin {\r\n        _depositContributionPercent = depositContributionPercent;\r\n        emit DepositContributionChanged(depositContributionPercent);\r\n    }\r\n\r\n      // ====== LP Token Accounting ======\r\n    function _mint(address to, uint256 amount) internal {\r\n        totalSupply += amount;\r\n        balanceOf[to] += amount;\r\n    }\r\n\r\n    function _burn(address from, uint256 amount) internal {\r\n        balanceOf[from] -= amount;\r\n        totalSupply -= amount;\r\n    }\r\n\r\n    function _shareBalance(address from) internal view returns (uint256) {\r\n        return balanceOf[from];\r\n    }\r\n\r\n    // -----------------------\r\n    // NAV & share price\r\n    // -----------------------\r\n    /// @notice NAV = poolCash + outstanding principal + reserve\r\n    function _nav() internal view returns (uint256) {\r\n        return poolCash + totalPrincipalOutstanding + reserveBalance;\r\n    }\r\n\r\n    function nav() external view returns (uint256) {\r\n        return _nav();\r\n    }\r\n\r\n    function _getShareForAsset(uint256 amount) internal view returns (uint256)\r\n    {\r\n        uint256 supply = totalSupply;\r\n        uint256 nav2 = _nav();\r\n\r\n        uint256 shares;\r\n        if (supply == 0 || nav2 == 0) {\r\n            shares = amount; //* (10 ** decimals);\r\n        } else {\r\n            shares = (amount * supply) / nav2;\r\n        }\r\n        return shares;\r\n    }\r\n\r\n    function _getAssetForShare(uint256 sharesToBurn) internal view returns (uint256)\r\n    {\r\n        uint256 supply = totalSupply;\r\n        uint256 nav2 = _nav();\r\n        uint256 amount = (poolCash * sharesToBurn) / supply;\r\n        return amount;\r\n    }\r\n\r\n    /// @notice share price scaled by 1e18\r\n    /*function sharePrice() external view returns (uint256) {\r\n        if (totalSupply == 0) return DECIMAL_MULTIPLIER;\r\n        return (_nav() * DECIMAL_MULTIPLIER) / totalSupply;\r\n    }*/\r\n\r\n\r\n    /* ========== VAULT FUNCTIONS ========== */\r\n\r\n    function deposit(uint256 amount) external returns (uint256 sharesMinted) {\r\n        require(amount > 0, \"Amount must be > 0\");\r\n        \r\n        depositToken.transferFrom(msg.sender, address(this), amount);\r\n        //require(depositToken.transferFrom(msg.sender, address(this), amount), \"transfer failed\");\r\n\r\n        uint256 shares = _getShareForAsset(amount);\r\n        _mint(msg.sender, shares);\r\n         // --- Update multi-token pool variables ---\r\n                        \r\n        vault[msg.sender][token] += amount;       // users deposited balance\r\n        lenderContribution[msg.sender][token] += amount;  // lender contribution\r\n\r\n        poolCash += amount; // overall pool cash for NAV\r\n\r\n         if (!isLender[msg.sender]) {\r\n            lenders.push(msg.sender);\r\n            isLender[msg.sender] = true;\r\n        }\r\n        emit Deposit(msg.sender, shares);\r\n        return shares;\r\n    }\r\n\r\n    //\r\n\r\n    function withdraw(uint256 sharesToBurn) external\r\n       whenNotPaused notBlacklisted(msg.sender) onlyWhitelisted(msg.sender) nonReentrant \r\n      {\r\n        \r\n        //address token = depositToken;\r\n        //uint256 sharesToBurn = balanceOf[from];\r\n        require(sharesToBurn > 0, \"zero shares\");\r\n        require(sharesToBurn >= balanceOf[msg.sender] , \"Insufficient share\");\r\n        \r\n        //require(vault[msg.sender][token] >= amount, \"Insufficient vault balance\");\r\n        require(_getTotalOutstanding(msg.sender) == 0, \"has outstanding loan\");\r\n\r\n        uint256 totalAssets = _nav();\r\n                \r\n        //require(sharesToBurn <= balanceOf[msg.sender], \"insufficient shares\");\r\n\r\n        //assets = (share * totalAsset)/totalSupply of shares\r\n        //shares = (asset * totalSupply)/totalAsset\r\n\r\n       //uint256 amount = (sharesToBurn * totalAssets) / totalSupply; \r\n\r\n        //(num + supply - 1) / supply; // ceil\r\n\r\n        // Update lender contribution and pool\r\n        \r\n        uint256 supply = totalSupply;\r\n        uint256 amount = (poolCash * sharesToBurn) / supply;\r\n        require(amount > 0, \"nothing to withdraw\");\r\n        require(vault[msg.sender][token] >= amount, \"insufficient vault balance\");\r\n        vault[msg.sender][token] -= amount;\r\n\r\n        _burn(msg.sender, sharesToBurn);\r\n        poolCash -= amount;\r\n \r\n        // ITRC20 tokenA = ITRC20(token);\r\n        // Safe transfer with inline revert check\r\n         ITRC20 tokenA = ITRC20(token);\r\n         (bool success, bytes memory data) = address(tokenA).call(\r\n                abi.encodeWithSelector(tokenA.transfer.selector, msg.sender, amount)\r\n         );\r\n        require(success, \"failed withdrawal\");\r\n        emit Withdraw(msg.sender, token, amount);\r\n    }\r\n\r\n    function _safeTransfer(ITRC20 token, address to, uint256 value) internal {\r\n        (bool success, bytes memory data) =\r\n            address(token).call(abi.encodeWithSelector(token.transfer.selector, to, value));\r\n        require(success && (data.length == 0 || abi.decode(data, (bool))), \"SafeTransfer: failed\");\r\n    }\r\n\r\n    function _safeTransferFrom(ITRC20 token, address from, address to, uint256 value) internal {\r\n        (bool success, bytes memory data) =\r\n            address(token).call(abi.encodeWithSelector(token.transferFrom.selector, from, to, value));\r\n        require(success && (data.length == 0 || abi.decode(data, (bool))), \"SafeTransferFrom: failed\");\r\n    }\r\n\r\n    /* ========== LOAN FUNCTIONS ========== */\r\n\r\n    function createLoan(bytes32 ref, address merchant, uint256 principal,\r\n     uint256 fee, uint256 depositAmount, address borrower,uint256 maturitySeconds)\r\n     external onlyCreditOfficer {\r\n\r\n        require(poolCash >= principal, \"insufficient pool cash\");\r\n        require(whitelist[borrower], \"Borrower not whitelisted\");\r\n        require(whitelist[merchant], \"Merchant not whitelisted\");\r\n        require(vault[borrower][token] >= depositAmount, \"Insufficient vault balance\");\r\n        require(merchant != address(0), \"Invalid merchant\");\r\n\r\n         // ---- Calculate components ----\r\n        uint256 platformFee = (principal * _platformFeeRate) / BP_DIVISOR;\r\n        uint256 lenderFee = (principal * _lenderFeeRate) / BP_DIVISOR;\r\n        uint256 depositRequired = (principal * _depositContributionPercent) / BP_DIVISOR;\r\n        require(depositAmount >= depositRequired, \"Deposit too low\");\r\n\r\n        uint256 shareSpent = _getShareForAsset(depositAmount);\r\n        require(shareSpent > 0, \"No share for borrower\");\r\n\r\n        (\r\n            uint256 creditLimit,\r\n            uint256 creditScore,\r\n            bool kycVerified,\r\n            uint256 utilizedLimit,\r\n            address attestor,\r\n            uint256 updatedAt\r\n        ) = attestationOracle.getAttestation(borrower);\r\n\r\n        require(kycVerified, \"not KYC verified\");\r\n        require(creditScore >= _minCreditScore, \"credit too low\");\r\n        require(utilizedLimit + principal <= creditLimit, \"credit limit exceeded\");\r\n        \r\n        uint256 lenderFundDeducted = principal - depositAmount;\r\n        uint256 merchantSettledFund = principal - platformFee - lenderFee;\r\n\r\n        // lender and platform earn fee from deposit made, some part of deposit is earmarket for reserve\r\n        uint256 platformFeeEarn = (depositAmount * _platformFeeRate) / BP_DIVISOR;\r\n        uint256 lenderFeeEarn = (depositAmount * _lenderFeeRate) / BP_DIVISOR;\r\n\r\n        if (reserveRateBP > 0) {\r\n            uint256 reserveCut = (lenderFeeEarn * reserveRateBP) / BP_DIVISOR;\r\n            reserveBalance += reserveCut;\r\n            lenderFeeEarn = lenderFeeEarn - reserveCut;\r\n        }\r\n       \r\n        Loan storage l = loans[ref];\r\n        l.ref = ref;\r\n        l.borrower = borrower;\r\n        l.token = token;\r\n        l.merchant = merchant;\r\n        l.principal = principal;\r\n        l.outstanding = principal - depositAmount;\r\n        l.startedAt = block.timestamp;\r\n        l.installmentsPaid = 0;\r\n        l.fee = platformFee + lenderFee;\r\n        l.totalPaid = depositAmount;\r\n        l.status = LoanStatus.Active;\r\n        l.repaidFee = platformFeeEarn + lenderFeeEarn;\r\n        l.disbursed = false;\r\n        l.maturityDate = block.timestamp + maturitySeconds;\r\n        l.lastPaymentTs = block.timestamp;\r\n\r\n        loanCounter++;\r\n        loanRefs.push(ref);\r\n        loanIndex[ref] = loanRefs.length - 1;\r\n\r\n        // ---- Update storage ----\r\n        _platformFee += platformFeeEarn;\r\n        _lenderFee += lenderFeeEarn; //lender fee earned\r\n        merchantFund[merchant][token] += merchantSettledFund;\r\n        totalMerchantFund[token] += merchantSettledFund;\r\n        poolCash -= principal; // merchantSettledFund;\r\n\r\n        // Disburse principal to borrower vault\r\n        //vault[msg.sender][token] += principal;\r\n        vault[borrower][token] -= depositAmount;\r\n        lenderContribution[borrower][token] -= depositAmount;\r\n\r\n        loanRefs.push(ref);\r\n        loanIndex[ref] = loanRefs.length - 1;\r\n        totalPrincipalOutstanding += (principal - depositAmount);\r\n        _burn(borrower, shareSpent);\r\n        \r\n        //totalPoolContribution[token] -= depositAmount\r\n\r\n       emit LoanCreated(ref, borrower, principal, fee,depositAmount,lenderFundDeducted,merchantSettledFund);\r\n      \r\n    }\r\n\r\n    function withdrawMerchantFund() external \r\n    whenNotPaused notBlacklisted(msg.sender) onlyWhitelisted(msg.sender) nonReentrant  {\r\n        address merchant = msg.sender;\r\n       \r\n        uint256 available = merchantFund[merchant][token];\r\n        require(available > 0, \"No funds to withdraw\");\r\n\r\n        // Reset balance BEFORE external call (prevents reentrancy)\r\n        merchantFund[merchant][token] = 0;\r\n        totalMerchantFund[token] -= available;\r\n        totalDisbursedToMerchant += available;\r\n       \r\n        // Execute safe TRC20 transfer\r\n        ITRC20 tokenA = ITRC20(token);\r\n         (bool success, bytes memory data) = address(tokenA).call(\r\n                abi.encodeWithSelector(tokenA.transfer.selector, merchant, available)\r\n         );\r\n        require(success, \"Token transfer failed\");\r\n        poolCash -= available;\r\n\r\n        emit MerchantWithdrawn(merchant, token, available);\r\n    }\r\n\r\n    function repayLoan(bytes32 ref, uint256 amount, address borrower) external nonReentrant  {\r\n        Loan storage loan = loans[ref];\r\n        require(loan.status == LoanStatus.Closed, \"Loan is closed\");\r\n        require(loan.borrower == borrower, \"Not borrower address\");\r\n        require(amount > 0, \"Amount must be > 0\");\r\n        require(loan.outstanding > 0, \"Outstanding must be > 0\");\r\n\r\n        uint256 remaining = amount;\r\n        ITRC20(loan.token).transferFrom(msg.sender, address(this), remaining);\r\n        \r\n         // ---- 2. Fee split ----\r\n        uint256 platformFee = (amount * _platformFeeRate) / 1e6;\r\n        uint256 lenderFee = (amount * _lenderFeeRate) / 1e6;\r\n        uint256 netAmount = amount - platformFee - lenderFee;\r\n\r\n        attestationOracle.decreaseUsedCredit(loan.borrower, amount);\r\n\r\n        _platformFee += platformFee;\r\n        _lenderFee += lenderFee;\r\n        totalPrincipalOutstanding -= amount;\r\n        poolCash += amount;\r\n         \r\n        loan.outstanding -= amount;\r\n        loan.totalPaid += amount;\r\n        loan.repaidFee += platformFee + lenderFee;\r\n        totalPrincipalOutstanding -= amount;\r\n\r\n        if (loan.outstanding == 0) {\r\n            loan.status = LoanStatus.Closed;\r\n            _removeLoanFromBorrower(borrower, ref);\r\n            emit LoanClosed(ref, msg.sender);\r\n        }\r\n\r\n        emit LoanRepaid(ref, msg.sender, amount);\r\n    }\r\n\r\n    function _removeLoanFromBorrower(address borrower, bytes32 ref) internal {\r\n        uint256 index = loanIndex[ref];\r\n        bytes32 lastRef = borrowerLoans[borrower][borrowerLoans[borrower].length - 1];\r\n\r\n        // Replace the removed ref with the last one\r\n        borrowerLoans[borrower][index] = lastRef;\r\n        loanIndex[lastRef] = index;\r\n\r\n        // Remove last element and delete index mapping\r\n        borrowerLoans[borrower].pop();\r\n        delete loanIndex[ref];\r\n    }\r\n\r\n    /* ========== FEE WITHDRAWAL ========== */\r\n   \r\n    function withdrawPlatformFees(uint256 amount) external \r\n       whenNotPaused notBlacklisted(msg.sender) onlyAdmin {\r\n       \r\n        require(amount > 0, \"zero\");\r\n        require(amount <=_platformFee , \"exceeds accrued\");\r\n        _platformFee -= amount;\r\n        //poolCash -= amount;\r\n\r\n         // Execute safe TRC20 transfer\r\n        ITRC20 tokenA = ITRC20(token);\r\n         (bool success, bytes memory data) = address(tokenA).call(\r\n                abi.encodeWithSelector(tokenA.transfer.selector,platformTreasury , amount)\r\n         );\r\n        require(success, \"platform fee transfer failed\");\r\n        emit FeesWithdrawn(platformTreasury, token, amount);\r\n    }\r\n\r\n     /// @notice Mark a loan as defaulted (called by owner/credit officer after delinquency)\r\n    function markDefault(bytes32 ref) external onlyCreditOfficer whenNotPaused {\r\n        Loan storage loan = loans[ref];\r\n        require(loan.status == LoanStatus.Active, \"not active\");\r\n        loan.status = LoanStatus.Defaulted;\r\n        emit LoanDefaulted(ref, loan.borrower, loan.outstanding);\r\n    }\r\n\r\n    /// @notice Write off a defaulted loan. Uses reserve first, then poolCash. Reduces NAV.\r\n    function writeOffLoan(bytes32 ref) external onlyCreditOfficer whenNotPaused nonReentrant {\r\n        Loan storage loan = loans[ref];\r\n        require(loan.status == LoanStatus.Defaulted, \"not defaulted\");\r\n\r\n        uint256 loss = loan.outstanding;\r\n        if (loss == 0) {\r\n            loan.status = LoanStatus.WrittenOff;\r\n            emit LoanWrittenOff(ref, 0, 0);\r\n            return;\r\n        }\r\n\r\n        // zero out outstanding\r\n        loan.outstanding = 0;\r\n        loan.status = LoanStatus.WrittenOff;\r\n\r\n        // reduce totalPrincipalOutstanding\r\n        if (totalPrincipalOutstanding >= loss) {\r\n            totalPrincipalOutstanding -= loss;\r\n        } else {\r\n            totalPrincipalOutstanding = 0;\r\n        }\r\n\r\n        uint256 coveredByReserve = 0;\r\n        uint256 lossToPool = 0;\r\n\r\n        // consume reserve\r\n        if (reserveBalance >= loss) {\r\n            reserveBalance -= loss;\r\n            coveredByReserve = loss;\r\n            lossToPool = 0;\r\n        } else {\r\n            coveredByReserve = reserveBalance;\r\n            uint256 remaining = loss - reserveBalance;\r\n            reserveBalance = 0;\r\n\r\n            // consume poolCash\r\n            if (poolCash >= remaining) {\r\n                poolCash -= remaining;\r\n                lossToPool = remaining;\r\n            } else {\r\n                // if insufficient poolCash, consume what's left and remaining is implicit NAV reduction\r\n                lossToPool = poolCash;\r\n                poolCash = 0;\r\n                // implicit remaining loss reduces future NAV (because outstanding was already removed)\r\n            }\r\n        }\r\n\r\n        emit LoanWrittenOff(ref, coveredByReserve, lossToPool);\r\n    }\r\n\r\n\r\n    function _removeLoanFromBorrower(bytes32 ref) internal {\r\n        uint256 index = loanIndex[ref];\r\n        uint256 lastIndex = loanRefs.length - 1;\r\n\r\n        if (index != lastIndex) {\r\n            bytes32 lastRef = loanRefs[lastIndex];\r\n            loanRefs[index] = lastRef;\r\n            loanIndex[lastRef] = index;\r\n        }\r\n\r\n        loanRefs.pop();\r\n        delete loanIndex[ref];\r\n        }\r\n\r\n    /* ========== VIEW FUNCTIONS ========== */\r\n\r\n    function getBorrowerStats(address borrower, address token) \r\n        external \r\n        view \r\n        returns (uint256 vaultBalance, uint256 totalPaidToPool) \r\n    {\r\n        vaultBalance = vault[borrower][token];\r\n        totalPaidToPool = 0;\r\n\r\n        bytes32[] memory refs = borrowerLoans[borrower];\r\n        for (uint256 i = 0; i < refs.length; i++) {\r\n            Loan storage loan = loans[refs[i]];\r\n            if (loan.token == token) {\r\n                totalPaidToPool += loan.totalPaid;\r\n            }\r\n        }\r\n    }\r\n\r\n    function getAllBorrowers() external view returns (address[] memory) {\r\n        return borrowers;\r\n    }\r\n\r\n    function getAllLenders() external view returns (address[] memory) {\r\n        return lenders;\r\n    }\r\n\r\n\r\n    //  INTERNAL function  reusable inside contract\r\n    function _getTotalOutstanding(address borrower) internal view returns (uint256 totalOutstanding) {\r\n        bytes32[] storage ids = borrowerLoans[borrower];\r\n        uint256 len = ids.length;\r\n\r\n        for (uint256 i = 0; i < len; i++) {\r\n            Loan storage l = loans[ids[i]];\r\n            if (l.status == LoanStatus.Active) {\r\n                totalOutstanding += l.outstanding;\r\n            }\r\n        }\r\n    }\r\n\r\n    //  EXTERNAL function  exposed to other contracts or frontends\r\n    function getTotalOutstanding(address borrower) external view returns (uint256) {\r\n        return _getTotalOutstanding(borrower);\r\n    }\r\n   \r\n    function getLoans(address borrower, uint256 offset, uint256 limit) \r\n        external view returns (Loan[] memory result, uint256 totalLoans, uint256 nextOffset)\r\n    {\r\n        bytes32[] storage ids = borrowerLoans[borrower];\r\n        totalLoans = ids.length;\r\n\r\n        if (offset >= totalLoans) {\r\n            // Return empty result if offset is out of bounds\r\n           // return ; // (new Loan()[0] , totalLoans, totalLoans);\r\n        }\r\n\r\n        uint256 end = offset + limit;\r\n        if (end > totalLoans) {\r\n            end = totalLoans;\r\n        }\r\n\r\n        uint256 length = end - offset;\r\n        result = new Loan[](length);\r\n\r\n        for (uint256 i = 0; i < length; i++) {\r\n            result[i] = loans[ids[offset + i]];\r\n        }\r\n\r\n        nextOffset = end;\r\n    }\r\n\r\n    // ====== Public Read Functions ======\r\n    function getPlatformFeeRate() external view returns (uint256) {\r\n        return _platformFeeRate;\r\n    }\r\n\r\n    function getLenderFeeRate() external view returns (uint256) {\r\n        return _lenderFeeRate;\r\n    }\r\n\r\n    function getDepositContributionPercent() external view returns (uint256) {\r\n        return _depositContributionPercent;\r\n    }\r\n\r\n    function getTotalPlatformFee() external view returns (uint256) {\r\n        return _platformFee;\r\n    }\r\n\r\n    function getTotalLenderFee() external view returns (uint256) {\r\n        return _lenderFee;\r\n    }\r\n\r\n    function getMerchantFund(address merchant, address token) external view onlyAuthorized() returns (uint256) {\r\n        return merchantFund[merchant][token];\r\n    }\r\n    function getTotalMerchantFund(address token) external view onlyAuthorized() returns (uint256)\r\n     { \r\n        return totalMerchantFund[token];\r\n     }\r\n\r\n     \r\n    // -----------------------\r\n    // 7 totalPrincipalOutstanding()\r\n    // -----------------------\r\n    function getTotalPrincipalOutstanding() external view returns (uint256) {\r\n        return totalPrincipalOutstanding;\r\n    }\r\n\r\n    function fetchDashboardView() external view returns ( uint256 noOfLoans, uint256 poolBalance,\r\n    uint256 totalPrincipal, uint256 poolCashTotal,uint256 totalPaidToMerchant,\r\n    uint256 totalReserveBalance,\r\n    uint256 totalPlatformFees,uint256 totalLenderFees,uint256 totalPastDue) {\r\n        \r\n        noOfLoans = loanRefs.length;\r\n        totalPlatformFees = _platformFee;\r\n        totalLenderFees = _lenderFee;\r\n        poolBalance = _nav();\r\n        totalPastDue = 0;\r\n        totalPaidToMerchant = totalDisbursedToMerchant;\r\n        poolCashTotal = poolCash;\r\n        totalPrincipal= totalPrincipalOutstanding;\r\n        totalReserveBalance = reserveBalance;\r\n        //totalPrincipalOutstanding,totalDisbursedToMerchant,poolCash,reserveBalance\r\n\r\n\r\n        for (uint256 i = 0; i < noOfLoans; i++) {\r\n            Loan storage l = loans[loanRefs[i]];\r\n            if (l.status == LoanStatus.Active && block.timestamp > l.maturityDate) {\r\n                totalPastDue += l.outstanding;\r\n                \r\n            }\r\n        }\r\n    }\r\n\r\n    function fetchRateSettings() external view returns ( uint256 lenderFeeRate, uint256 platformFeeRate,uint256 depositContributionRate, uint256 defaultBaseRate) {\r\n        \r\n        lenderFeeRate = _lenderFeeRate;\r\n        platformFeeRate = _platformFeeRate;\r\n        depositContributionRate = _depositContributionPercent;\r\n        defaultBaseRate = reserveRateBP;\r\n        \r\n    }\r\n\r\n    function getShareWorth(uint256 share) external view returns ( uint256 amount) {\r\n        \r\n        uint256 supply = totalSupply;\r\n        amount = (poolCash * share) / supply;\r\n        \r\n    }\r\n\r\n    function getVaultBalance(address borrower, address token) external view returns (uint256) {\r\n        return vault[borrower][token];\r\n    }\r\n\r\n    function isWhitelisted(address user) external view returns (bool) {\r\n        return whitelist[user];\r\n    }\r\n\r\n    function isCreditOfficer(address user) external view returns (bool) {\r\n        return accessControl.isCreditOfficer(user);\r\n    }\r\n\r\n    function isAdmin(address user) external view returns (bool) {\r\n        return accessControl.isAdmin(user);\r\n    }\r\n\r\n    function getLoanData(bytes32 ref)\r\n        external\r\n        view\r\n        returns (\r\n            address borrower,\r\n            address merchant,\r\n            uint256 principal,\r\n            uint256 outstanding,\r\n            uint256 totalPaid,\r\n            uint256 maturityDate,\r\n            string memory status\r\n\r\n        )\r\n    {\r\n        Loan storage l = loans[ref];\r\n        borrower = l.borrower;\r\n        merchant = l.merchant;\r\n        principal = l.principal;\r\n        outstanding = l.outstanding;\r\n        totalPaid = l.totalPaid;\r\n        maturityDate = l.maturityDate;\r\n        status = _loanStatusToString(l.status);\r\n    }\r\n\r\n    function _loanStatusToString(LoanStatus s)\r\n    internal\r\n    pure\r\n    returns (string memory)\r\n    {\r\n        \r\n        if (s == LoanStatus.Active) return \"Active\";\r\n        if (s == LoanStatus.Paid) return \"Paid\";\r\n        if (s == LoanStatus.Defaulted) return \"Defaulted\";\r\n        if (s == LoanStatus.WrittenOff) return \"WrittenOff\";\r\n        return \"Unknown\";\r\n    }\r\n\r\n    function getLoan(bytes32 ref) external view returns (Loan memory) {\r\n        return loans[ref];\r\n     }\r\n}\r\n",
  "sourcePath": "C:/workspace/tronbfpay/contracts/v4/VaultLendingV4.sol",
  "compiler": {
    "name": "solc",
    "version": "0.8.30+commit.73712a01.Emscripten.clang"
  },
  "schemaVersion": "2.0.1",
  "updatedAt": "2025-12-05T23:17:43.296Z"
}