{
  "contractName": "WhitelistModule",
  "abi": [
    {
      "anonymous": false,
      "inputs": [
        {
          "indexed": true,
          "internalType": "address",
          "name": "account",
          "type": "address"
        }
      ],
      "name": "UnWhitelisted",
      "type": "event"
    },
    {
      "anonymous": false,
      "inputs": [
        {
          "indexed": true,
          "internalType": "address",
          "name": "account",
          "type": "address"
        }
      ],
      "name": "Whitelisted",
      "type": "event"
    },
    {
      "inputs": [
        {
          "internalType": "address",
          "name": "account",
          "type": "address"
        }
      ],
      "name": "isWhitelisted",
      "outputs": [
        {
          "internalType": "bool",
          "name": "",
          "type": "bool"
        }
      ],
      "stateMutability": "view",
      "type": "function"
    },
    {
      "inputs": [
        {
          "internalType": "address",
          "name": "",
          "type": "address"
        }
      ],
      "name": "whitelisted",
      "outputs": [
        {
          "internalType": "bool",
          "name": "",
          "type": "bool"
        }
      ],
      "stateMutability": "view",
      "type": "function"
    }
  ],
  "bytecode": "0x6080806040523460135760e0908160188239f35b5f80fdfe60808060405260043610156011575f80fd5b5f3560e01c9081633af32abf146070575063d936547e14602f575f80fd5b34606c576020366003190112606c576004356001600160a01b03811690819003606c575f525f602052602060ff60405f2054166040519015158152f35b5f80fd5b34606c576020366003190112606c576004356001600160a01b0381169190829003606c576020915f525f825260ff60405f20541615158152f3fea26469706673582212200ac8e94a68dee74f7f3466d717c667d312638d0add3fd085f9fd4e55d8dd365564736f6c634300081e0033",
  "source": "// SPDX-License-Identifier: MIT\r\npragma solidity ^0.8.23;\r\n\r\n/**\r\n * @title WhitelistModule\r\n * @notice Provides address-level whitelisting integrated with ERC20Core hooks.\r\n */\r\ncontract WhitelistModule {\r\n    mapping(address => bool) public whitelisted;\r\n\r\n    event Whitelisted(address indexed account);\r\n    event UnWhitelisted(address indexed account);\r\n\r\n    // Internal methods to add/remove whitelisted addresses\r\n    function _addWhitelist(address account) internal virtual {\r\n        whitelisted[account] = true;\r\n        emit Whitelisted(account);\r\n    }\r\n\r\n    function _removeWhitelist(address account) internal virtual {\r\n        whitelisted[account] = false;\r\n        emit UnWhitelisted(account);\r\n    }\r\n\r\n    // Public view to check if an address is whitelisted\r\n    function isWhitelisted(address account) public view virtual returns (bool) {\r\n        return whitelisted[account];\r\n    }\r\n}\r\n\r\n",
  "sourcePath": "C:/workspace/tronbfpay/contracts/stablecoin/WhitelistModule.sol",
  "compiler": {
    "name": "solc",
    "version": "0.8.30+commit.73712a01.Emscripten.clang"
  },
  "schemaVersion": "2.0.1",
  "updatedAt": "2025-12-10T22:41:09.440Z"
}